{
  "contractName": "Assignment4Exchange",
  "abi": [
    {
      "inputs": [
        {
          "internalType": "address",
          "name": "_token",
          "type": "address"
        },
        {
          "internalType": "address",
          "name": "_configContractAddress",
          "type": "address"
        }
      ],
      "stateMutability": "payable",
      "type": "constructor"
    },
    {
      "anonymous": false,
      "inputs": [
        {
          "indexed": true,
          "internalType": "address",
          "name": "owner",
          "type": "address"
        },
        {
          "indexed": true,
          "internalType": "address",
          "name": "spender",
          "type": "address"
        },
        {
          "indexed": false,
          "internalType": "uint256",
          "name": "value",
          "type": "uint256"
        }
      ],
      "name": "Approval",
      "type": "event"
    },
    {
      "anonymous": false,
      "inputs": [
        {
          "indexed": true,
          "internalType": "address",
          "name": "buyer",
          "type": "address"
        },
        {
          "indexed": true,
          "internalType": "uint256",
          "name": "ethBought",
          "type": "uint256"
        },
        {
          "indexed": true,
          "internalType": "uint256",
          "name": "tokensSold",
          "type": "uint256"
        }
      ],
      "name": "EthBought",
      "type": "event"
    },
    {
      "anonymous": false,
      "inputs": [
        {
          "indexed": true,
          "internalType": "address",
          "name": "provider",
          "type": "address"
        },
        {
          "indexed": true,
          "internalType": "uint256",
          "name": "ethAmount",
          "type": "uint256"
        },
        {
          "indexed": true,
          "internalType": "uint256",
          "name": "tokenAmount",
          "type": "uint256"
        }
      ],
      "name": "LiquidityAdded",
      "type": "event"
    },
    {
      "anonymous": false,
      "inputs": [
        {
          "indexed": true,
          "internalType": "address",
          "name": "provider",
          "type": "address"
        },
        {
          "indexed": true,
          "internalType": "uint256",
          "name": "ethAmount",
          "type": "uint256"
        },
        {
          "indexed": true,
          "internalType": "uint256",
          "name": "tokenAmount",
          "type": "uint256"
        }
      ],
      "name": "LiquidityRemoved",
      "type": "event"
    },
    {
      "anonymous": false,
      "inputs": [
        {
          "indexed": true,
          "internalType": "address",
          "name": "buyer",
          "type": "address"
        },
        {
          "indexed": true,
          "internalType": "uint256",
          "name": "ethSold",
          "type": "uint256"
        },
        {
          "indexed": true,
          "internalType": "uint256",
          "name": "tokensBought",
          "type": "uint256"
        }
      ],
      "name": "TokenBought",
      "type": "event"
    },
    {
      "anonymous": false,
      "inputs": [
        {
          "indexed": true,
          "internalType": "address",
          "name": "from",
          "type": "address"
        },
        {
          "indexed": true,
          "internalType": "address",
          "name": "to",
          "type": "address"
        },
        {
          "indexed": false,
          "internalType": "uint256",
          "name": "value",
          "type": "uint256"
        }
      ],
      "name": "Transfer",
      "type": "event"
    },
    {
      "inputs": [
        {
          "internalType": "address",
          "name": "owner",
          "type": "address"
        },
        {
          "internalType": "address",
          "name": "spender",
          "type": "address"
        }
      ],
      "name": "allowance",
      "outputs": [
        {
          "internalType": "uint256",
          "name": "",
          "type": "uint256"
        }
      ],
      "stateMutability": "view",
      "type": "function"
    },
    {
      "inputs": [
        {
          "internalType": "address",
          "name": "spender",
          "type": "address"
        },
        {
          "internalType": "uint256",
          "name": "amount",
          "type": "uint256"
        }
      ],
      "name": "approve",
      "outputs": [
        {
          "internalType": "bool",
          "name": "",
          "type": "bool"
        }
      ],
      "stateMutability": "nonpayable",
      "type": "function"
    },
    {
      "inputs": [
        {
          "internalType": "address",
          "name": "account",
          "type": "address"
        }
      ],
      "name": "balanceOf",
      "outputs": [
        {
          "internalType": "uint256",
          "name": "",
          "type": "uint256"
        }
      ],
      "stateMutability": "view",
      "type": "function"
    },
    {
      "inputs": [],
      "name": "decimals",
      "outputs": [
        {
          "internalType": "uint8",
          "name": "",
          "type": "uint8"
        }
      ],
      "stateMutability": "view",
      "type": "function"
    },
    {
      "inputs": [
        {
          "internalType": "address",
          "name": "spender",
          "type": "address"
        },
        {
          "internalType": "uint256",
          "name": "subtractedValue",
          "type": "uint256"
        }
      ],
      "name": "decreaseAllowance",
      "outputs": [
        {
          "internalType": "bool",
          "name": "",
          "type": "bool"
        }
      ],
      "stateMutability": "nonpayable",
      "type": "function"
    },
    {
      "inputs": [],
      "name": "getConfigStorage",
      "outputs": [
        {
          "internalType": "contract ConfigStorage",
          "name": "",
          "type": "address"
        }
      ],
      "stateMutability": "view",
      "type": "function"
    },
    {
      "inputs": [
        {
          "internalType": "address",
          "name": "spender",
          "type": "address"
        },
        {
          "internalType": "uint256",
          "name": "addedValue",
          "type": "uint256"
        }
      ],
      "name": "increaseAllowance",
      "outputs": [
        {
          "internalType": "bool",
          "name": "",
          "type": "bool"
        }
      ],
      "stateMutability": "nonpayable",
      "type": "function"
    },
    {
      "inputs": [
        {
          "internalType": "address",
          "name": "_configContractAddress",
          "type": "address"
        },
        {
          "internalType": "string",
          "name": "_contractName",
          "type": "string"
        }
      ],
      "name": "initAdmin",
      "outputs": [],
      "stateMutability": "nonpayable",
      "type": "function"
    },
    {
      "inputs": [],
      "name": "name",
      "outputs": [
        {
          "internalType": "string",
          "name": "",
          "type": "string"
        }
      ],
      "stateMutability": "view",
      "type": "function"
    },
    {
      "inputs": [],
      "name": "registryAddress",
      "outputs": [
        {
          "internalType": "address",
          "name": "",
          "type": "address"
        }
      ],
      "stateMutability": "view",
      "type": "function"
    },
    {
      "inputs": [],
      "name": "symbol",
      "outputs": [
        {
          "internalType": "string",
          "name": "",
          "type": "string"
        }
      ],
      "stateMutability": "view",
      "type": "function"
    },
    {
      "inputs": [],
      "name": "tokenAddress",
      "outputs": [
        {
          "internalType": "address",
          "name": "",
          "type": "address"
        }
      ],
      "stateMutability": "view",
      "type": "function"
    },
    {
      "inputs": [],
      "name": "totalSupply",
      "outputs": [
        {
          "internalType": "uint256",
          "name": "",
          "type": "uint256"
        }
      ],
      "stateMutability": "view",
      "type": "function"
    },
    {
      "inputs": [
        {
          "internalType": "address",
          "name": "to",
          "type": "address"
        },
        {
          "internalType": "uint256",
          "name": "amount",
          "type": "uint256"
        }
      ],
      "name": "transfer",
      "outputs": [
        {
          "internalType": "bool",
          "name": "",
          "type": "bool"
        }
      ],
      "stateMutability": "nonpayable",
      "type": "function"
    },
    {
      "inputs": [
        {
          "internalType": "address",
          "name": "from",
          "type": "address"
        },
        {
          "internalType": "address",
          "name": "to",
          "type": "address"
        },
        {
          "internalType": "uint256",
          "name": "amount",
          "type": "uint256"
        }
      ],
      "name": "transferFrom",
      "outputs": [
        {
          "internalType": "bool",
          "name": "",
          "type": "bool"
        }
      ],
      "stateMutability": "nonpayable",
      "type": "function"
    },
    {
      "inputs": [
        {
          "internalType": "address payable",
          "name": "_to",
          "type": "address"
        },
        {
          "internalType": "uint256",
          "name": "_value",
          "type": "uint256"
        }
      ],
      "name": "withdrawFunds",
      "outputs": [],
      "stateMutability": "payable",
      "type": "function"
    },
    {
      "inputs": [],
      "name": "getTokenAddress",
      "outputs": [
        {
          "internalType": "address",
          "name": "",
          "type": "address"
        }
      ],
      "stateMutability": "view",
      "type": "function"
    },
    {
      "inputs": [
        {
          "internalType": "uint256",
          "name": "_tokenAmount",
          "type": "uint256"
        }
      ],
      "name": "addLiquidity",
      "outputs": [
        {
          "internalType": "uint256",
          "name": "",
          "type": "uint256"
        }
      ],
      "stateMutability": "payable",
      "type": "function"
    },
    {
      "inputs": [
        {
          "internalType": "uint256",
          "name": "_amount",
          "type": "uint256"
        }
      ],
      "name": "removeLiquidity",
      "outputs": [
        {
          "internalType": "uint256",
          "name": "",
          "type": "uint256"
        },
        {
          "internalType": "uint256",
          "name": "",
          "type": "uint256"
        }
      ],
      "stateMutability": "payable",
      "type": "function"
    },
    {
      "inputs": [],
      "name": "getReserve",
      "outputs": [
        {
          "internalType": "uint256",
          "name": "",
          "type": "uint256"
        }
      ],
      "stateMutability": "view",
      "type": "function"
    },
    {
      "inputs": [
        {
          "internalType": "uint256",
          "name": "_ethSold",
          "type": "uint256"
        }
      ],
      "name": "getTokenAmount",
      "outputs": [
        {
          "internalType": "uint256",
          "name": "",
          "type": "uint256"
        }
      ],
      "stateMutability": "view",
      "type": "function"
    },
    {
      "inputs": [
        {
          "internalType": "uint256",
          "name": "_tokenSold",
          "type": "uint256"
        }
      ],
      "name": "getEthAmount",
      "outputs": [
        {
          "internalType": "uint256",
          "name": "",
          "type": "uint256"
        }
      ],
      "stateMutability": "view",
      "type": "function"
    },
    {
      "inputs": [
        {
          "internalType": "uint256",
          "name": "_minTokens",
          "type": "uint256"
        },
        {
          "internalType": "address",
          "name": "recipient",
          "type": "address"
        }
      ],
      "name": "ethToTokenTransfer",
      "outputs": [],
      "stateMutability": "payable",
      "type": "function"
    },
    {
      "inputs": [
        {
          "internalType": "uint256",
          "name": "_minTokens",
          "type": "uint256"
        }
      ],
      "name": "ethToToken",
      "outputs": [],
      "stateMutability": "payable",
      "type": "function"
    },
    {
      "inputs": [
        {
          "internalType": "uint256",
          "name": "_tokensSold",
          "type": "uint256"
        },
        {
          "internalType": "uint256",
          "name": "_minEth",
          "type": "uint256"
        }
      ],
      "name": "tokenToEth",
      "outputs": [],
      "stateMutability": "nonpayable",
      "type": "function"
    },
    {
      "inputs": [
        {
          "internalType": "uint256",
          "name": "_tokensSold",
          "type": "uint256"
        },
        {
          "internalType": "uint256",
          "name": "_minTokensBought",
          "type": "uint256"
        },
        {
          "internalType": "address",
          "name": "_tokenAddress",
          "type": "address"
        }
      ],
      "name": "tokenToTokenSwap",
      "outputs": [],
      "stateMutability": "nonpayable",
      "type": "function"
    },
    {
      "inputs": [],
      "name": "donateEther",
      "outputs": [],
      "stateMutability": "payable",
      "type": "function"
    }
  ],
  "bytecode": "0x6080604052604051620043fa380380620043fa833981810160405281019062000029919062000341565b6040518060400160405280601581526020017f41737369676e6d656e7420342045786368616e676500000000000000000000008152506040518060400160405280600381526020017f41324500000000000000000000000000000000000000000000000000000000008152508160039081620000a6919062000602565b508060049081620000b8919062000602565b505050620000e6816040518060600160405280602f8152602001620043cb602f9139620001e260201b60201c565b600073ffffffffffffffffffffffffffffffffffffffff168273ffffffffffffffffffffffffffffffffffffffff160362000158576040517f08c379a00000000000000000000000000000000000000000000000000000000081526004016200014f9062000770565b60405180910390fd5b81600660006101000a81548173ffffffffffffffffffffffffffffffffffffffff021916908373ffffffffffffffffffffffffffffffffffffffff16021790555033600760006101000a81548173ffffffffffffffffffffffffffffffffffffffff021916908373ffffffffffffffffffffffffffffffffffffffff160217905550505062000855565b81600560006101000a81548173ffffffffffffffffffffffffffffffffffffffff021916908373ffffffffffffffffffffffffffffffffffffffff160217905550600062000235620002ad60201b60201c565b90508073ffffffffffffffffffffffffffffffffffffffff16637fb99b9330846040518363ffffffff1660e01b81526004016200027492919062000821565b600060405180830381600087803b1580156200028f57600080fd5b505af1158015620002a4573d6000803e3d6000fd5b50505050505050565b6000600560009054906101000a900473ffffffffffffffffffffffffffffffffffffffff16905090565b600080fd5b600073ffffffffffffffffffffffffffffffffffffffff82169050919050565b60006200030982620002dc565b9050919050565b6200031b81620002fc565b81146200032757600080fd5b50565b6000815190506200033b8162000310565b92915050565b600080604083850312156200035b576200035a620002d7565b5b60006200036b858286016200032a565b92505060206200037e858286016200032a565b9150509250929050565b600081519050919050565b7f4e487b7100000000000000000000000000000000000000000000000000000000600052604160045260246000fd5b7f4e487b7100000000000000000000000000000000000000000000000000000000600052602260045260246000fd5b600060028204905060018216806200040a57607f821691505b60208210810362000420576200041f620003c2565b5b50919050565b60008190508160005260206000209050919050565b60006020601f8301049050919050565b600082821b905092915050565b6000600883026200048a7fffffffffffffffffffffffffffffffffffffffffffffffffffffffffffffffff826200044b565b6200049686836200044b565b95508019841693508086168417925050509392505050565b6000819050919050565b6000819050919050565b6000620004e3620004dd620004d784620004ae565b620004b8565b620004ae565b9050919050565b6000819050919050565b620004ff83620004c2565b620005176200050e82620004ea565b84845462000458565b825550505050565b600090565b6200052e6200051f565b6200053b818484620004f4565b505050565b5b8181101562000563576200055760008262000524565b60018101905062000541565b5050565b601f821115620005b2576200057c8162000426565b62000587846200043b565b8101602085101562000597578190505b620005af620005a6856200043b565b83018262000540565b50505b505050565b600082821c905092915050565b6000620005d760001984600802620005b7565b1980831691505092915050565b6000620005f28383620005c4565b9150826002028217905092915050565b6200060d8262000388565b67ffffffffffffffff81111562000629576200062862000393565b5b620006358254620003f1565b6200064282828562000567565b600060209050601f8311600181146200067a576000841562000665578287015190505b620006718582620005e4565b865550620006e1565b601f1984166200068a8662000426565b60005b82811015620006b4578489015182556001820191506020850194506020810190506200068d565b86831015620006d45784890151620006d0601f891682620005c4565b8355505b6001600288020188555050505b505050505050565b600082825260208201905092915050565b7f41737369676e6d656e7420342045786368616e67653a20696e76616c6964207460008201527f6f6b656e20616464726573730000000000000000000000000000000000000000602082015250565b600062000758602c83620006e9565b91506200076582620006fa565b604082019050919050565b600060208201905081810360008301526200078b8162000749565b9050919050565b6200079d81620002fc565b82525050565b60005b83811015620007c3578082015181840152602081019050620007a6565b60008484015250505050565b6000601f19601f8301169050919050565b6000620007ed8262000388565b620007f98185620006e9565b93506200080b818560208601620007a3565b6200081681620007cf565b840191505092915050565b600060408201905062000838600083018562000792565b81810360208301526200084c8184620007e0565b90509392505050565b613b6680620008656000396000f3fe60806040526004361061019c5760003560e01c8063863451dd116100ec578063c10753291161008a578063e27a248911610064578063e27a2489146105ea578063ed9aab5114610606578063f7a7e32414610631578063fae45fbe1461065a5761019c565b8063c107532914610554578063c2507ac114610570578063dd62ed3e146105ad5761019c565b80639c8f9f23116100c65780639c8f9f231461047e5780639d76ea58146104af578063a457c2d7146104da578063a9059cbb146105175761019c565b8063863451dd1461040c5780638fc7a25d1461041657806395d89b41146104535761019c565b8063389d9a401161015957806351c6590a1161013357806351c6590a1461034b57806359bf5d391461037b57806363ffeafd146103a657806370a08231146103cf5761019c565b8063389d9a40146102c757806339509351146102e3578063516cbbe2146103205761019c565b806306fdde03146101a1578063095ea7b3146101cc57806310fe9ae81461020957806318160ddd1461023457806323b872dd1461025f578063313ce5671461029c575b600080fd5b3480156101ad57600080fd5b506101b6610683565b6040516101c39190612450565b60405180910390f35b3480156101d857600080fd5b506101f360048036038101906101ee919061251a565b610715565b6040516102009190612575565b60405180910390f35b34801561021557600080fd5b5061021e610738565b60405161022b919061259f565b60405180910390f35b34801561024057600080fd5b50610249610762565b60405161025691906125c9565b60405180910390f35b34801561026b57600080fd5b50610286600480360381019061028191906125e4565b61076c565b6040516102939190612575565b60405180910390f35b3480156102a857600080fd5b506102b161079b565b6040516102be9190612653565b60405180910390f35b6102e160048036038101906102dc919061266e565b6107a4565b005b3480156102ef57600080fd5b5061030a6004803603810190610305919061251a565b61099a565b6040516103179190612575565b60405180910390f35b34801561032c57600080fd5b506103356109d1565b604051610342919061270d565b60405180910390f35b61036560048036038101906103609190612728565b6109fb565b60405161037291906125c9565b60405180910390f35b34801561038757600080fd5b50610390610c3e565b60405161039d91906125c9565b60405180910390f35b3480156103b257600080fd5b506103cd60048036038101906103c89190612755565b610ce1565b005b3480156103db57600080fd5b506103f660048036038101906103f19190612795565b610e74565b60405161040391906125c9565b60405180910390f35b610414610ebc565b005b34801561042257600080fd5b5061043d60048036038101906104389190612728565b610f01565b60405161044a91906125c9565b60405180910390f35b34801561045f57600080fd5b50610468610f64565b6040516104759190612450565b60405180910390f35b61049860048036038101906104939190612728565b610ff6565b6040516104a69291906127c2565b60405180910390f35b3480156104bb57600080fd5b506104c46112b4565b6040516104d1919061259f565b60405180910390f35b3480156104e657600080fd5b5061050160048036038101906104fc919061251a565b6112da565b60405161050e9190612575565b60405180910390f35b34801561052357600080fd5b5061053e6004803603810190610539919061251a565b611351565b60405161054b9190612575565b60405180910390f35b61056e60048036038101906105699190612829565b611374565b005b34801561057c57600080fd5b5061059760048036038101906105929190612728565b6116c3565b6040516105a491906125c9565b60405180910390f35b3480156105b957600080fd5b506105d460048036038101906105cf9190612869565b611726565b6040516105e191906125c9565b60405180910390f35b61060460048036038101906105ff9190612728565b6117ad565b005b34801561061257600080fd5b5061061b6117ba565b604051610628919061259f565b60405180910390f35b34801561063d57600080fd5b50610658600480360381019061065391906128a9565b6117e0565b005b34801561066657600080fd5b50610681600480360381019061067c9190612a31565b611a5c565b005b60606003805461069290612abc565b80601f01602080910402602001604051908101604052809291908181526020018280546106be90612abc565b801561070b5780601f106106e05761010080835404028352916020019161070b565b820191906000526020600020905b8154815290600101906020018083116106ee57829003601f168201915b5050505050905090565b600080610720611b1b565b905061072d818585611b23565b600191505092915050565b6000600660009054906101000a900473ffffffffffffffffffffffffffffffffffffffff16905090565b6000600254905090565b600080610777611b1b565b9050610784858285611cec565b61078f858585611d78565b60019150509392505050565b60006012905090565b60006107ae610c3e565b905060006107c83434476107c29190612b1c565b84611fee565b90508381101561080d576040517f08c379a000000000000000000000000000000000000000000000000000000000815260040161080490612bc2565b60405180910390fd5b600660009054906101000a900473ffffffffffffffffffffffffffffffffffffffff1673ffffffffffffffffffffffffffffffffffffffff1663095ea7b384836040518363ffffffff1660e01b815260040161086a929190612be2565b6020604051808303816000875af1158015610889573d6000803e3d6000fd5b505050506040513d601f19601f820116820180604052508101906108ad9190612c37565b50600660009054906101000a900473ffffffffffffffffffffffffffffffffffffffff1673ffffffffffffffffffffffffffffffffffffffff1663a9059cbb84836040518363ffffffff1660e01b815260040161090b929190612be2565b6020604051808303816000875af115801561092a573d6000803e3d6000fd5b505050506040513d601f19601f8201168201806040525081019061094e9190612c37565b5080343373ffffffffffffffffffffffffffffffffffffffff167f28cab0d660ed8aedd61a8c9db00b97f6a2d67e07d87795994f440b18bc5f1aa360405160405180910390a450505050565b6000806109a5611b1b565b90506109c68185856109b78589611726565b6109c19190612c64565b611b23565b600191505092915050565b6000600560009054906101000a900473ffffffffffffffffffffffffffffffffffffffff16905090565b60008060004790506000610a0d610c3e565b90506000600660009054906101000a900473ffffffffffffffffffffffffffffffffffffffff16905060008203610ad1578293508073ffffffffffffffffffffffffffffffffffffffff166323b872dd3330896040518463ffffffff1660e01b8152600401610a7e93929190612c98565b6020604051808303816000875af1158015610a9d573d6000803e3d6000fd5b505050506040513d601f19601f82011682018060405250810190610ac19190612c37565b50610acc3385612093565b610bed565b60003484610adf9190612b1c565b90506000818434610af09190612ccf565b610afa9190612d40565b905080881015610b3f576040517f08c379a0000000000000000000000000000000000000000000000000000000008152600401610b3690612de3565b60405180910390fd5b8134610b49610762565b610b539190612ccf565b610b5d9190612d40565b95508273ffffffffffffffffffffffffffffffffffffffff166323b872dd3330846040518463ffffffff1660e01b8152600401610b9c93929190612c98565b6020604051808303816000875af1158015610bbb573d6000803e3d6000fd5b505050506040513d601f19601f82011682018060405250810190610bdf9190612c37565b50610bea3387612093565b50505b85343373ffffffffffffffffffffffffffffffffffffffff167fac1d76749e5447b7b16f5ab61447e1bd502f3bb4807af3b28e620d1700a6ee4560405160405180910390a483945050505050919050565b6000600660009054906101000a900473ffffffffffffffffffffffffffffffffffffffff1673ffffffffffffffffffffffffffffffffffffffff166370a08231306040518263ffffffff1660e01b8152600401610c9b919061259f565b602060405180830381865afa158015610cb8573d6000803e3d6000fd5b505050506040513d601f19601f82011682018060405250810190610cdc9190612e18565b905090565b6000610ceb610c3e565b90506000610cfa844784611fee565b905082811015610d3f576040517f08c379a0000000000000000000000000000000000000000000000000000000008152600401610d3690612bc2565b60405180910390fd5b600660009054906101000a900473ffffffffffffffffffffffffffffffffffffffff1673ffffffffffffffffffffffffffffffffffffffff166323b872dd3330876040518463ffffffff1660e01b8152600401610d9e93929190612c98565b6020604051808303816000875af1158015610dbd573d6000803e3d6000fd5b505050506040513d601f19601f82011682018060405250810190610de19190612c37565b503373ffffffffffffffffffffffffffffffffffffffff166108fc829081150290604051600060405180830381858888f19350505050158015610e28573d6000803e3d6000fd5b5083813373ffffffffffffffffffffffffffffffffffffffff167f5a1e673945c465d80ae35013d0da05934c0e037190dca541b408ed4ea402e3e360405160405180910390a450505050565b60008060008373ffffffffffffffffffffffffffffffffffffffff1673ffffffffffffffffffffffffffffffffffffffff168152602001908152602001600020549050919050565b60003411610eff576040517f08c379a0000000000000000000000000000000000000000000000000000000008152600401610ef690612eb7565b60405180910390fd5b565b6000808211610f45576040517f08c379a0000000000000000000000000000000000000000000000000000000008152600401610f3c90612f49565b60405180910390fd5b6000610f4f610c3e565b9050610f5c838247611fee565b915050919050565b606060048054610f7390612abc565b80601f0160208091040260200160405190810160405280929190818152602001828054610f9f90612abc565b8015610fec5780601f10610fc157610100808354040283529160200191610fec565b820191906000526020600020905b815481529060010190602001808311610fcf57829003601f168201915b5050505050905090565b6000806000831161103c576040517f08c379a000000000000000000000000000000000000000000000000000000000815260040161103390612fdb565b60405180910390fd5b600047905060008111611084576040517f08c379a000000000000000000000000000000000000000000000000000000000815260040161107b9061306d565b60405180910390fd5b600061108e610762565b9050600081868461109f9190612ccf565b6110a99190612d40565b9050600082876110b7610c3e565b6110c19190612ccf565b6110cb9190612d40565b90506110d733886121e9565b3373ffffffffffffffffffffffffffffffffffffffff166108fc839081150290604051600060405180830381858888f1935050505015801561111d573d6000803e3d6000fd5b50600660009054906101000a900473ffffffffffffffffffffffffffffffffffffffff1673ffffffffffffffffffffffffffffffffffffffff1663095ea7b333836040518363ffffffff1660e01b815260040161117b929190612be2565b6020604051808303816000875af115801561119a573d6000803e3d6000fd5b505050506040513d601f19601f820116820180604052508101906111be9190612c37565b50600660009054906101000a900473ffffffffffffffffffffffffffffffffffffffff1673ffffffffffffffffffffffffffffffffffffffff1663a9059cbb33836040518363ffffffff1660e01b815260040161121c929190612be2565b6020604051808303816000875af115801561123b573d6000803e3d6000fd5b505050506040513d601f19601f8201168201806040525081019061125f9190612c37565b5080823373ffffffffffffffffffffffffffffffffffffffff167f96cd817c6329656790ef8fba7675405193677d39619571282f5e21f3a98cd05960405160405180910390a481819550955050505050915091565b600660009054906101000a900473ffffffffffffffffffffffffffffffffffffffff1681565b6000806112e5611b1b565b905060006112f38286611726565b905083811015611338576040517f08c379a000000000000000000000000000000000000000000000000000000000815260040161132f906130ff565b60405180910390fd5b6113458286868403611b23565b60019250505092915050565b60008061135c611b1b565b9050611369818585611d78565b600191505092915050565b61137c6109d1565b73ffffffffffffffffffffffffffffffffffffffff166324d7806c336040518263ffffffff1660e01b81526004016113b4919061259f565b602060405180830381865afa1580156113d1573d6000803e3d6000fd5b505050506040513d601f19601f820116820180604052508101906113f59190612c37565b611434576040517f08c379a000000000000000000000000000000000000000000000000000000000815260040161142b90613191565b60405180910390fd5b600073ffffffffffffffffffffffffffffffffffffffff168273ffffffffffffffffffffffffffffffffffffffff16036114a3576040517f08c379a000000000000000000000000000000000000000000000000000000000815260040161149a906131fd565b60405180910390fd5b3373ffffffffffffffffffffffffffffffffffffffff168273ffffffffffffffffffffffffffffffffffffffff16148061150857503273ffffffffffffffffffffffffffffffffffffffff168273ffffffffffffffffffffffffffffffffffffffff16145b8061159057506115166109d1565b73ffffffffffffffffffffffffffffffffffffffff166324d7806c836040518263ffffffff1660e01b815260040161154e919061323e565b602060405180830381865afa15801561156b573d6000803e3d6000fd5b505050506040513d601f19601f8201168201806040525081019061158f9190612c37565b5b6115cf576040517f08c379a00000000000000000000000000000000000000000000000000000000081526004016115c6906132cb565b60405180910390fd5b47811015611612576040517f08c379a000000000000000000000000000000000000000000000000000000000815260040161160990613337565b60405180910390fd5b60008273ffffffffffffffffffffffffffffffffffffffff168260405161163890613388565b60006040518083038185875af1925050503d8060008114611675576040519150601f19603f3d011682016040523d82523d6000602084013e61167a565b606091505b50509050806116be576040517f08c379a00000000000000000000000000000000000000000000000000000000081526004016116b5906133e9565b60405180910390fd5b505050565b6000808211611707576040517f08c379a00000000000000000000000000000000000000000000000000000000081526004016116fe9061347b565b60405180910390fd5b6000611711610c3e565b905061171e834783611fee565b915050919050565b6000600160008473ffffffffffffffffffffffffffffffffffffffff1673ffffffffffffffffffffffffffffffffffffffff16815260200190815260200160002060008373ffffffffffffffffffffffffffffffffffffffff1673ffffffffffffffffffffffffffffffffffffffff16815260200190815260200160002054905092915050565b6117b781336107a4565b50565b600760009054906101000a900473ffffffffffffffffffffffffffffffffffffffff1681565b6000600760009054906101000a900473ffffffffffffffffffffffffffffffffffffffff1673ffffffffffffffffffffffffffffffffffffffff166306f2bf62836040518263ffffffff1660e01b815260040161183d919061259f565b602060405180830381865afa15801561185a573d6000803e3d6000fd5b505050506040513d601f19601f8201168201806040525081019061187e91906134b0565b90503073ffffffffffffffffffffffffffffffffffffffff168173ffffffffffffffffffffffffffffffffffffffff16141580156118e95750600073ffffffffffffffffffffffffffffffffffffffff168173ffffffffffffffffffffffffffffffffffffffff1614155b611928576040517f08c379a000000000000000000000000000000000000000000000000000000000815260040161191f9061354f565b60405180910390fd5b6000611932610c3e565b90506000611941868347611fee565b9050600660009054906101000a900473ffffffffffffffffffffffffffffffffffffffff1673ffffffffffffffffffffffffffffffffffffffff166323b872dd3330896040518463ffffffff1660e01b81526004016119a293929190612c98565b6020604051808303816000875af11580156119c1573d6000803e3d6000fd5b505050506040513d601f19601f820116820180604052508101906119e59190612c37565b508273ffffffffffffffffffffffffffffffffffffffff1663389d9a408287336040518463ffffffff1660e01b8152600401611a2292919061356f565b6000604051808303818588803b158015611a3b57600080fd5b505af1158015611a4f573d6000803e3d6000fd5b5050505050505050505050565b81600560006101000a81548173ffffffffffffffffffffffffffffffffffffffff021916908373ffffffffffffffffffffffffffffffffffffffff1602179055506000611aa76109d1565b90508073ffffffffffffffffffffffffffffffffffffffff16637fb99b9330846040518363ffffffff1660e01b8152600401611ae4929190613598565b600060405180830381600087803b158015611afe57600080fd5b505af1158015611b12573d6000803e3d6000fd5b50505050505050565b600033905090565b600073ffffffffffffffffffffffffffffffffffffffff168373ffffffffffffffffffffffffffffffffffffffff1603611b92576040517f08c379a0000000000000000000000000000000000000000000000000000000008152600401611b899061363a565b60405180910390fd5b600073ffffffffffffffffffffffffffffffffffffffff168273ffffffffffffffffffffffffffffffffffffffff1603611c01576040517f08c379a0000000000000000000000000000000000000000000000000000000008152600401611bf8906136cc565b60405180910390fd5b80600160008573ffffffffffffffffffffffffffffffffffffffff1673ffffffffffffffffffffffffffffffffffffffff16815260200190815260200160002060008473ffffffffffffffffffffffffffffffffffffffff1673ffffffffffffffffffffffffffffffffffffffff168152602001908152602001600020819055508173ffffffffffffffffffffffffffffffffffffffff168373ffffffffffffffffffffffffffffffffffffffff167f8c5be1e5ebec7d5bd14f71427d1e84f3dd0314c0f7b2291e5b200ac8c7c3b92583604051611cdf91906125c9565b60405180910390a3505050565b6000611cf88484611726565b90507fffffffffffffffffffffffffffffffffffffffffffffffffffffffffffffffff8114611d725781811015611d64576040517f08c379a0000000000000000000000000000000000000000000000000000000008152600401611d5b90613738565b60405180910390fd5b611d718484848403611b23565b5b50505050565b600073ffffffffffffffffffffffffffffffffffffffff168373ffffffffffffffffffffffffffffffffffffffff1603611de7576040517f08c379a0000000000000000000000000000000000000000000000000000000008152600401611dde906137ca565b60405180910390fd5b600073ffffffffffffffffffffffffffffffffffffffff168273ffffffffffffffffffffffffffffffffffffffff1603611e56576040517f08c379a0000000000000000000000000000000000000000000000000000000008152600401611e4d9061385c565b60405180910390fd5b611e618383836123b6565b60008060008573ffffffffffffffffffffffffffffffffffffffff1673ffffffffffffffffffffffffffffffffffffffff16815260200190815260200160002054905081811015611ee7576040517f08c379a0000000000000000000000000000000000000000000000000000000008152600401611ede906138ee565b60405180910390fd5b8181036000808673ffffffffffffffffffffffffffffffffffffffff1673ffffffffffffffffffffffffffffffffffffffff16815260200190815260200160002081905550816000808573ffffffffffffffffffffffffffffffffffffffff1673ffffffffffffffffffffffffffffffffffffffff168152602001908152602001600020600082825401925050819055508273ffffffffffffffffffffffffffffffffffffffff168473ffffffffffffffffffffffffffffffffffffffff167fddf252ad1be2c89b69c2b068fc378daa952ba7f163c4a11628f55a4df523b3ef84604051611fd591906125c9565b60405180910390a3611fe88484846123bb565b50505050565b60008083118015611fff5750600082115b61203e576040517f08c379a000000000000000000000000000000000000000000000000000000000815260040161203590613980565b60405180910390fd5b600060638561204d9190612ccf565b90506000838261205d9190612ccf565b905060008260648761206f9190612ccf565b6120799190612c64565b905080826120879190612d40565b93505050509392505050565b600073ffffffffffffffffffffffffffffffffffffffff168273ffffffffffffffffffffffffffffffffffffffff1603612102576040517f08c379a00000000000000000000000000000000000000000000000000000000081526004016120f9906139ec565b60405180910390fd5b61210e600083836123b6565b80600260008282546121209190612c64565b92505081905550806000808473ffffffffffffffffffffffffffffffffffffffff1673ffffffffffffffffffffffffffffffffffffffff168152602001908152602001600020600082825401925050819055508173ffffffffffffffffffffffffffffffffffffffff16600073ffffffffffffffffffffffffffffffffffffffff167fddf252ad1be2c89b69c2b068fc378daa952ba7f163c4a11628f55a4df523b3ef836040516121d191906125c9565b60405180910390a36121e5600083836123bb565b5050565b600073ffffffffffffffffffffffffffffffffffffffff168273ffffffffffffffffffffffffffffffffffffffff1603612258576040517f08c379a000000000000000000000000000000000000000000000000000000000815260040161224f90613a7e565b60405180910390fd5b612264826000836123b6565b60008060008473ffffffffffffffffffffffffffffffffffffffff1673ffffffffffffffffffffffffffffffffffffffff168152602001908152602001600020549050818110156122ea576040517f08c379a00000000000000000000000000000000000000000000000000000000081526004016122e190613b10565b60405180910390fd5b8181036000808573ffffffffffffffffffffffffffffffffffffffff1673ffffffffffffffffffffffffffffffffffffffff1681526020019081526020016000208190555081600260008282540392505081905550600073ffffffffffffffffffffffffffffffffffffffff168373ffffffffffffffffffffffffffffffffffffffff167fddf252ad1be2c89b69c2b068fc378daa952ba7f163c4a11628f55a4df523b3ef8460405161239d91906125c9565b60405180910390a36123b1836000846123bb565b505050565b505050565b505050565b600081519050919050565b600082825260208201905092915050565b60005b838110156123fa5780820151818401526020810190506123df565b60008484015250505050565b6000601f19601f8301169050919050565b6000612422826123c0565b61242c81856123cb565b935061243c8185602086016123dc565b61244581612406565b840191505092915050565b6000602082019050818103600083015261246a8184612417565b905092915050565b6000604051905090565b600080fd5b600080fd5b600073ffffffffffffffffffffffffffffffffffffffff82169050919050565b60006124b182612486565b9050919050565b6124c1816124a6565b81146124cc57600080fd5b50565b6000813590506124de816124b8565b92915050565b6000819050919050565b6124f7816124e4565b811461250257600080fd5b50565b600081359050612514816124ee565b92915050565b600080604083850312156125315761253061247c565b5b600061253f858286016124cf565b925050602061255085828601612505565b9150509250929050565b60008115159050919050565b61256f8161255a565b82525050565b600060208201905061258a6000830184612566565b92915050565b612599816124a6565b82525050565b60006020820190506125b46000830184612590565b92915050565b6125c3816124e4565b82525050565b60006020820190506125de60008301846125ba565b92915050565b6000806000606084860312156125fd576125fc61247c565b5b600061260b868287016124cf565b935050602061261c868287016124cf565b925050604061262d86828701612505565b9150509250925092565b600060ff82169050919050565b61264d81612637565b82525050565b60006020820190506126686000830184612644565b92915050565b600080604083850312156126855761268461247c565b5b600061269385828601612505565b92505060206126a4858286016124cf565b9150509250929050565b6000819050919050565b60006126d36126ce6126c984612486565b6126ae565b612486565b9050919050565b60006126e5826126b8565b9050919050565b60006126f7826126da565b9050919050565b612707816126ec565b82525050565b600060208201905061272260008301846126fe565b92915050565b60006020828403121561273e5761273d61247c565b5b600061274c84828501612505565b91505092915050565b6000806040838503121561276c5761276b61247c565b5b600061277a85828601612505565b925050602061278b85828601612505565b9150509250929050565b6000602082840312156127ab576127aa61247c565b5b60006127b9848285016124cf565b91505092915050565b60006040820190506127d760008301856125ba565b6127e460208301846125ba565b9392505050565b60006127f682612486565b9050919050565b612806816127eb565b811461281157600080fd5b50565b600081359050612823816127fd565b92915050565b600080604083850312156128405761283f61247c565b5b600061284e85828601612814565b925050602061285f85828601612505565b9150509250929050565b600080604083850312156128805761287f61247c565b5b600061288e858286016124cf565b925050602061289f858286016124cf565b9150509250929050565b6000806000606084860312156128c2576128c161247c565b5b60006128d086828701612505565b93505060206128e186828701612505565b92505060406128f2868287016124cf565b9150509250925092565b600080fd5b600080fd5b7f4e487b7100000000000000000000000000000000000000000000000000000000600052604160045260246000fd5b61293e82612406565b810181811067ffffffffffffffff8211171561295d5761295c612906565b5b80604052505050565b6000612970612472565b905061297c8282612935565b919050565b600067ffffffffffffffff82111561299c5761299b612906565b5b6129a582612406565b9050602081019050919050565b82818337600083830152505050565b60006129d46129cf84612981565b612966565b9050828152602081018484840111156129f0576129ef612901565b5b6129fb8482856129b2565b509392505050565b600082601f830112612a1857612a176128fc565b5b8135612a288482602086016129c1565b91505092915050565b60008060408385031215612a4857612a4761247c565b5b6000612a56858286016124cf565b925050602083013567ffffffffffffffff811115612a7757612a76612481565b5b612a8385828601612a03565b9150509250929050565b7f4e487b7100000000000000000000000000000000000000000000000000000000600052602260045260246000fd5b60006002820490506001821680612ad457607f821691505b602082108103612ae757612ae6612a8d565b5b50919050565b7f4e487b7100000000000000000000000000000000000000000000000000000000600052601160045260246000fd5b6000612b27826124e4565b9150612b32836124e4565b9250828203905081811115612b4a57612b49612aed565b5b92915050565b7f41737369676e6d656e7420342045786368616e67653a20696e7375666669636960008201527f656e74206f757470757420616d6f756e74000000000000000000000000000000602082015250565b6000612bac6031836123cb565b9150612bb782612b50565b604082019050919050565b60006020820190508181036000830152612bdb81612b9f565b9050919050565b6000604082019050612bf76000830185612590565b612c0460208301846125ba565b9392505050565b612c148161255a565b8114612c1f57600080fd5b50565b600081519050612c3181612c0b565b92915050565b600060208284031215612c4d57612c4c61247c565b5b6000612c5b84828501612c22565b91505092915050565b6000612c6f826124e4565b9150612c7a836124e4565b9250828201905080821115612c9257612c91612aed565b5b92915050565b6000606082019050612cad6000830186612590565b612cba6020830185612590565b612cc760408301846125ba565b949350505050565b6000612cda826124e4565b9150612ce5836124e4565b9250828202612cf3816124e4565b91508282048414831517612d0a57612d09612aed565b5b5092915050565b7f4e487b7100000000000000000000000000000000000000000000000000000000600052601260045260246000fd5b6000612d4b826124e4565b9150612d56836124e4565b925082612d6657612d65612d11565b5b828204905092915050565b7f41737369676e6d656e7420342045786368616e67653a20696e7375666669636960008201527f656e7420746f6b656e20616d6f756e7400000000000000000000000000000000602082015250565b6000612dcd6030836123cb565b9150612dd882612d71565b604082019050919050565b60006020820190508181036000830152612dfc81612dc0565b9050919050565b600081519050612e12816124ee565b92915050565b600060208284031215612e2e57612e2d61247c565b5b6000612e3c84828501612e03565b91505092915050565b7f41737369676e6d656e7420342052656769737472793a20696e76616c6964206160008201527f6d6f756e74000000000000000000000000000000000000000000000000000000602082015250565b6000612ea16025836123cb565b9150612eac82612e45565b604082019050919050565b60006020820190508181036000830152612ed081612e94565b9050919050565b7f41737369676e6d656e7420342045786368616e67653a20746f6b656e536f6c6460008201527f2063616e6e6f74206265207a65726f0000000000000000000000000000000000602082015250565b6000612f33602f836123cb565b9150612f3e82612ed7565b604082019050919050565b60006020820190508181036000830152612f6281612f26565b9050919050565b7f41737369676e6d656e7420342045786368616e67653a20696e76616c6964206160008201527f6d6f756e74000000000000000000000000000000000000000000000000000000602082015250565b6000612fc56025836123cb565b9150612fd082612f69565b604082019050919050565b60006020820190508181036000830152612ff481612fb8565b9050919050565b7f41737369676e6d656e7420342045786368616e67653a2045746820616d6f756e60008201527f7420697320300000000000000000000000000000000000000000000000000000602082015250565b60006130576026836123cb565b915061306282612ffb565b604082019050919050565b600060208201905081810360008301526130868161304a565b9050919050565b7f45524332303a2064656372656173656420616c6c6f77616e63652062656c6f7760008201527f207a65726f000000000000000000000000000000000000000000000000000000602082015250565b60006130e96025836123cb565b91506130f48261308d565b604082019050919050565b60006020820190508181036000830152613118816130dc565b9050919050565b7f4f6e6c7920636f6e74726163742061646d696e2063616e20776974686472617760008201527f2066756e64730000000000000000000000000000000000000000000000000000602082015250565b600061317b6026836123cb565b91506131868261311f565b604082019050919050565b600060208201905081810360008301526131aa8161316e565b9050919050565b7f496e76616c696420616464726573730000000000000000000000000000000000600082015250565b60006131e7600f836123cb565b91506131f2826131b1565b602082019050919050565b60006020820190508181036000830152613216816131da565b9050919050565b6000613228826126da565b9050919050565b6132388161321d565b82525050565b6000602082019050613253600083018461322f565b92915050565b7f46756e64732063616e206f6e6c792062652077697468647261776e20746f206160008201527f646d696e2c206d73672e73656e646572206f722074782e6f726967696e000000602082015250565b60006132b5603d836123cb565b91506132c082613259565b604082019050919050565b600060208201905081810360008301526132e4816132a8565b9050919050565b7f496e73756666696369656e742066756e64730000000000000000000000000000600082015250565b60006133216012836123cb565b915061332c826132eb565b602082019050919050565b6000602082019050818103600083015261335081613314565b9050919050565b600081905092915050565b50565b6000613372600083613357565b915061337d82613362565b600082019050919050565b600061339382613365565b9150819050919050565b7f5472616e73666572206661696c65642e00000000000000000000000000000000600082015250565b60006133d36010836123cb565b91506133de8261339d565b602082019050919050565b60006020820190508181036000830152613402816133c6565b9050919050565b7f41737369676e6d656e7420342045786368616e67653a20657468536f6c64206360008201527f616e6e6f74206265207a65726f00000000000000000000000000000000000000602082015250565b6000613465602d836123cb565b915061347082613409565b604082019050919050565b6000602082019050818103600083015261349481613458565b9050919050565b6000815190506134aa816124b8565b92915050565b6000602082840312156134c6576134c561247c565b5b60006134d48482850161349b565b91505092915050565b7f41737369676e6d656e7420342045786368616e67653a20696e76616c6964206560008201527f786368616e676520616464726573730000000000000000000000000000000000602082015250565b6000613539602f836123cb565b9150613544826134dd565b604082019050919050565b600060208201905081810360008301526135688161352c565b9050919050565b600060408201905061358460008301856125ba565b6135916020830184612590565b9392505050565b60006040820190506135ad6000830185612590565b81810360208301526135bf8184612417565b90509392505050565b7f45524332303a20617070726f76652066726f6d20746865207a65726f2061646460008201527f7265737300000000000000000000000000000000000000000000000000000000602082015250565b60006136246024836123cb565b915061362f826135c8565b604082019050919050565b6000602082019050818103600083015261365381613617565b9050919050565b7f45524332303a20617070726f766520746f20746865207a65726f20616464726560008201527f7373000000000000000000000000000000000000000000000000000000000000602082015250565b60006136b66022836123cb565b91506136c18261365a565b604082019050919050565b600060208201905081810360008301526136e5816136a9565b9050919050565b7f45524332303a20696e73756666696369656e7420616c6c6f77616e6365000000600082015250565b6000613722601d836123cb565b915061372d826136ec565b602082019050919050565b6000602082019050818103600083015261375181613715565b9050919050565b7f45524332303a207472616e736665722066726f6d20746865207a65726f20616460008201527f6472657373000000000000000000000000000000000000000000000000000000602082015250565b60006137b46025836123cb565b91506137bf82613758565b604082019050919050565b600060208201905081810360008301526137e3816137a7565b9050919050565b7f45524332303a207472616e7366657220746f20746865207a65726f206164647260008201527f6573730000000000000000000000000000000000000000000000000000000000602082015250565b60006138466023836123cb565b9150613851826137ea565b604082019050919050565b6000602082019050818103600083015261387581613839565b9050919050565b7f45524332303a207472616e7366657220616d6f756e742065786365656473206260008201527f616c616e63650000000000000000000000000000000000000000000000000000602082015250565b60006138d86026836123cb565b91506138e38261387c565b604082019050919050565b60006020820190508181036000830152613907816138cb565b9050919050565b7f41737369676e6d656e7420342045786368616e67653a20696e76616c6964207260008201527f6573657276657300000000000000000000000000000000000000000000000000602082015250565b600061396a6027836123cb565b91506139758261390e565b604082019050919050565b600060208201905081810360008301526139998161395d565b9050919050565b7f45524332303a206d696e7420746f20746865207a65726f206164647265737300600082015250565b60006139d6601f836123cb565b91506139e1826139a0565b602082019050919050565b60006020820190508181036000830152613a05816139c9565b9050919050565b7f45524332303a206275726e2066726f6d20746865207a65726f2061646472657360008201527f7300000000000000000000000000000000000000000000000000000000000000602082015250565b6000613a686021836123cb565b9150613a7382613a0c565b604082019050919050565b60006020820190508181036000830152613a9781613a5b565b9050919050565b7f45524332303a206275726e20616d6f756e7420657863656564732062616c616e60008201527f6365000000000000000000000000000000000000000000000000000000000000602082015250565b6000613afa6022836123cb565b9150613b0582613a9e565b604082019050919050565b60006020820190508181036000830152613b2981613aed565b905091905056fea264697066735822122060b50d31320586a086e54280898df75ab48a17202aad79eeb8e6575be73f7b3b64736f6c63430008130033535332332041737369676e6d656e7420342056616c696461746f7220436f6e7472616374202d2045786368616e6765",
  "immutableReferences": {},
  "source": "// SPDX-License-Identifier: MIT\r\npragma solidity ^0.8.0;\r\n\r\nimport \"../../../node_modules/@openzeppelin/contracts/token/ERC20/ERC20.sol\";\r\nimport \"../../../node_modules/@openzeppelin/contracts/token/ERC20/IERC20.sol\";\r\n\r\n// Import BaseConfig.sol\r\nimport \"../../BaseConfig.sol\";\r\n\r\n// Import the registry contract\r\nimport \"./Assignment4Registry.sol\";\r\n\r\ncontract Assignment4Exchange is ERC20, BaseConfig {\r\n    address public tokenAddress;\r\n    address public registryAddress;\r\n\r\n    event TokenBought(\r\n        address indexed buyer,\r\n        uint256 indexed ethSold,\r\n        uint256 indexed tokensBought\r\n    );\r\n    event EthBought(\r\n        address indexed buyer,\r\n        uint256 indexed ethBought,\r\n        uint256 indexed tokensSold\r\n    );\r\n    event LiquidityAdded(\r\n        address indexed provider,\r\n        uint256 indexed ethAmount,\r\n        uint256 indexed tokenAmount\r\n    );\r\n    event LiquidityRemoved(\r\n        address indexed provider,\r\n        uint256 indexed ethAmount,\r\n        uint256 indexed tokenAmount\r\n    );\r\n\r\n    constructor(address _token, address _configContractAddress)\r\n        payable\r\n        ERC20(\"Assignment 4 Exchange\", \"A2E\")\r\n    {\r\n        initAdmin(\r\n            _configContractAddress,\r\n            \"SS23 Assignment 4 Validator Contract - Exchange\"\r\n        );\r\n\r\n        require(\r\n            _token != address(0),\r\n            \"Assignment 4 Exchange: invalid token address\"\r\n        );\r\n        tokenAddress = _token;\r\n        registryAddress = msg.sender;\r\n    }\r\n\r\n    function getTokenAddress() public view returns (address) {\r\n        return tokenAddress;\r\n    }\r\n\r\n    function addLiquidity(uint256 _tokenAmount)\r\n        public\r\n        payable\r\n        returns (uint256)\r\n    {\r\n        uint256 liquidity;\r\n        uint256 ethBalance = address(this).balance;\r\n        uint256 tokenReserve = getReserve();\r\n\r\n        IERC20 token = IERC20(tokenAddress);\r\n\r\n        if (tokenReserve == 0) {\r\n            liquidity = ethBalance;\r\n            token.transferFrom(msg.sender, address(this), _tokenAmount);\r\n            _mint(msg.sender, liquidity);\r\n        } else {\r\n            uint256 ethReserve = ethBalance - msg.value;\r\n            uint256 tokenAmount = (msg.value * tokenReserve) / ethReserve;\r\n            require(\r\n                _tokenAmount >= tokenAmount,\r\n                \"Assignment 4 Exchange: insufficient token amount\"\r\n            );\r\n\r\n            // Calculate the liquidity\r\n            liquidity = (totalSupply() * msg.value) / ethReserve;\r\n\r\n            // Transfer the tokens to the exchange\r\n            token.transferFrom(msg.sender, address(this), tokenAmount);\r\n            _mint(msg.sender, liquidity);\r\n        }\r\n\r\n        emit LiquidityAdded(msg.sender, msg.value, _tokenAmount);\r\n\r\n        return liquidity;\r\n    }\r\n\r\n    function removeLiquidity(uint256 _amount)\r\n        public\r\n        payable\r\n        returns (uint256, uint256)\r\n    {\r\n        require(_amount > 0, \"Assignment 4 Exchange: invalid amount\");\r\n\r\n        uint256 ethReserve = address(this).balance;\r\n\r\n        require(ethReserve > 0, \"Assignment 4 Exchange: Eth amount is 0\");\r\n\r\n        uint256 supply = totalSupply();\r\n        uint256 ethAmount = (ethReserve * _amount) / supply;\r\n        uint256 tokenAmount = (getReserve() * _amount) / supply;\r\n\r\n        // Burn the liquidity tokens\r\n        _burn(msg.sender, _amount);\r\n\r\n        // Transfer the ETH and tokens to the user\r\n        payable(msg.sender).transfer(ethAmount);\r\n\r\n        // Transfer the tokens to the user\r\n        IERC20(tokenAddress).approve(msg.sender, tokenAmount);\r\n        IERC20(tokenAddress).transfer(msg.sender, tokenAmount);\r\n\r\n        emit LiquidityRemoved(msg.sender, ethAmount, tokenAmount);\r\n\r\n        return (ethAmount, tokenAmount);\r\n    }\r\n\r\n    function getReserve() public view returns (uint256) {\r\n        return IERC20(tokenAddress).balanceOf(address(this));\r\n    }\r\n\r\n    function getAmount(\r\n        uint256 inputAmount,\r\n        uint256 inputReserve,\r\n        uint256 outputReserve\r\n    ) private pure returns (uint256) {\r\n        require(\r\n            inputReserve > 0 && outputReserve > 0,\r\n            \"Assignment 4 Exchange: invalid reserves\"\r\n        );\r\n\r\n        uint256 inputAmountWithFee = inputAmount * 99;\r\n        uint256 numerator = inputAmountWithFee * outputReserve;\r\n        uint256 denominator = (inputReserve * 100) + inputAmountWithFee;\r\n\r\n        return numerator / denominator;\r\n    }\r\n\r\n    function getTokenAmount(uint256 _ethSold) public view returns (uint256) {\r\n        require(_ethSold > 0, \"Assignment 4 Exchange: ethSold cannot be zero\");\r\n        uint256 tokenReserve = getReserve();\r\n        return getAmount(_ethSold, address(this).balance, tokenReserve);\r\n    }\r\n\r\n    function getEthAmount(uint256 _tokenSold) public view returns (uint256) {\r\n        require(\r\n            _tokenSold > 0,\r\n            \"Assignment 4 Exchange: tokenSold cannot be zero\"\r\n        );\r\n        uint256 tokenReserve = getReserve();\r\n        return getAmount(_tokenSold, tokenReserve, address(this).balance);\r\n    }\r\n\r\n    function ethToTokenTransfer(uint256 _minTokens, address recipient)\r\n        public\r\n        payable\r\n    {\r\n        uint256 tokenReserve = getReserve();\r\n        uint256 tokensBought = getAmount(\r\n            msg.value,\r\n            address(this).balance - msg.value,\r\n            tokenReserve\r\n        );\r\n\r\n        require(\r\n            tokensBought >= _minTokens,\r\n            \"Assignment 4 Exchange: insufficient output amount\"\r\n        );\r\n        IERC20(tokenAddress).approve(recipient, tokensBought);\r\n        IERC20(tokenAddress).transfer(recipient, tokensBought);\r\n\r\n        emit TokenBought(msg.sender, msg.value, tokensBought);\r\n    }\r\n\r\n    function ethToToken(uint256 _minTokens) public payable {\r\n        ethToTokenTransfer(_minTokens, msg.sender);\r\n    }\r\n\r\n    function tokenToEth(uint256 _tokensSold, uint256 _minEth) public {\r\n        uint256 tokenReserve = getReserve();\r\n        uint256 ethBought = getAmount(\r\n            _tokensSold,\r\n            address(this).balance,\r\n            tokenReserve\r\n        );\r\n\r\n        require(\r\n            ethBought >= _minEth,\r\n            \"Assignment 4 Exchange: insufficient output amount\"\r\n        );\r\n\r\n        IERC20(tokenAddress).transferFrom(\r\n            msg.sender,\r\n            address(this),\r\n            _tokensSold\r\n        );\r\n        payable(msg.sender).transfer(ethBought);\r\n\r\n        emit EthBought(msg.sender, ethBought, _tokensSold);\r\n    }\r\n\r\n    function tokenToTokenSwap(\r\n        uint256 _tokensSold,\r\n        uint256 _minTokensBought,\r\n        address _tokenAddress\r\n    ) public {\r\n        address exchangeAddress = Assignment4Registry(registryAddress)\r\n            .getExchange(_tokenAddress);\r\n\r\n        require(\r\n            exchangeAddress != address(this) && exchangeAddress != address(0),\r\n            \"Assignment 4 Exchange: invalid exchange address\"\r\n        );\r\n\r\n        uint256 tokenReserve = getReserve();\r\n        uint256 ethBought = getAmount(\r\n            _tokensSold,\r\n            tokenReserve,\r\n            address(this).balance\r\n        );\r\n\r\n        IERC20(tokenAddress).transferFrom(\r\n            msg.sender,\r\n            address(this),\r\n            _tokensSold\r\n        );\r\n\r\n        Assignment4Exchange(exchangeAddress).ethToTokenTransfer{\r\n            value: ethBought\r\n        }(_minTokensBought, msg.sender);\r\n    }\r\n\r\n    // Donate Ether to the contract\r\n    function donateEther() public payable {\r\n        require(msg.value > 0, \"Assignment 4 Registry: invalid amount\");\r\n    }\r\n}\r\n",
  "sourcePath": "C:\\Users\\stefa\\www\\mtp-blockchain\\smart-contracts\\contracts\\assignment_4\\helper\\Assignment4Exchange.sol",
  "compiler": {
    "name": "solc",
    "version": "0.8.19+commit.7dd6d404.Emscripten.clang"
  },
  "schemaVersion": "3.4.11",
  "updatedAt": "2023-02-28T09:01:11.441Z",
  "devdoc": {
    "events": {
      "Approval(address,address,uint256)": {
        "details": "Emitted when the allowance of a `spender` for an `owner` is set by a call to {approve}. `value` is the new allowance."
      },
      "Transfer(address,address,uint256)": {
        "details": "Emitted when `value` tokens are moved from one account (`from`) to another (`to`). Note that `value` may be zero."
      }
    },
    "kind": "dev",
    "methods": {
      "allowance(address,address)": {
        "details": "See {IERC20-allowance}."
      },
      "approve(address,uint256)": {
        "details": "See {IERC20-approve}. NOTE: If `amount` is the maximum `uint256`, the allowance is not updated on `transferFrom`. This is semantically equivalent to an infinite approval. Requirements: - `spender` cannot be the zero address."
      },
      "balanceOf(address)": {
        "details": "See {IERC20-balanceOf}."
      },
      "decimals()": {
        "details": "Returns the number of decimals used to get its user representation. For example, if `decimals` equals `2`, a balance of `505` tokens should be displayed to a user as `5.05` (`505 / 10 ** 2`). Tokens usually opt for a value of 18, imitating the relationship between Ether and Wei. This is the value {ERC20} uses, unless this function is overridden; NOTE: This information is only used for _display_ purposes: it in no way affects any of the arithmetic of the contract, including {IERC20-balanceOf} and {IERC20-transfer}."
      },
      "decreaseAllowance(address,uint256)": {
        "details": "Atomically decreases the allowance granted to `spender` by the caller. This is an alternative to {approve} that can be used as a mitigation for problems described in {IERC20-approve}. Emits an {Approval} event indicating the updated allowance. Requirements: - `spender` cannot be the zero address. - `spender` must have allowance for the caller of at least `subtractedValue`."
      },
      "increaseAllowance(address,uint256)": {
        "details": "Atomically increases the allowance granted to `spender` by the caller. This is an alternative to {approve} that can be used as a mitigation for problems described in {IERC20-approve}. Emits an {Approval} event indicating the updated allowance. Requirements: - `spender` cannot be the zero address."
      },
      "name()": {
        "details": "Returns the name of the token."
      },
      "symbol()": {
        "details": "Returns the symbol of the token, usually a shorter version of the name."
      },
      "totalSupply()": {
        "details": "See {IERC20-totalSupply}."
      },
      "transfer(address,uint256)": {
        "details": "See {IERC20-transfer}. Requirements: - `to` cannot be the zero address. - the caller must have a balance of at least `amount`."
      },
      "transferFrom(address,address,uint256)": {
        "details": "See {IERC20-transferFrom}. Emits an {Approval} event indicating the updated allowance. This is not required by the EIP. See the note at the beginning of {ERC20}. NOTE: Does not update the allowance if the current allowance is the maximum `uint256`. Requirements: - `from` and `to` cannot be the zero address. - `from` must have a balance of at least `amount`. - the caller must have allowance for ``from``'s tokens of at least `amount`."
      }
    },
    "version": 1
  },
  "userdoc": {
    "kind": "user",
    "methods": {},
    "version": 1
  }
}