{
  "contractName": "Assignment4Registry",
  "abi": [
    {
      "inputs": [
        {
          "internalType": "address",
          "name": "_configContractAddress",
          "type": "address"
        },
        {
          "internalType": "address",
          "name": "testExchangeAddress",
          "type": "address"
        }
      ],
      "stateMutability": "nonpayable",
      "type": "constructor"
    },
    {
      "anonymous": false,
      "inputs": [
        {
          "indexed": true,
          "internalType": "address",
          "name": "token",
          "type": "address"
        },
        {
          "indexed": true,
          "internalType": "address",
          "name": "exchange",
          "type": "address"
        }
      ],
      "name": "NewExchange",
      "type": "event"
    },
    {
      "inputs": [],
      "name": "getConfigStorage",
      "outputs": [
        {
          "internalType": "contract ConfigStorage",
          "name": "",
          "type": "address"
        }
      ],
      "stateMutability": "view",
      "type": "function"
    },
    {
      "inputs": [
        {
          "internalType": "address",
          "name": "_configContractAddress",
          "type": "address"
        },
        {
          "internalType": "string",
          "name": "_contractName",
          "type": "string"
        }
      ],
      "name": "initAdmin",
      "outputs": [],
      "stateMutability": "nonpayable",
      "type": "function"
    },
    {
      "inputs": [
        {
          "internalType": "address",
          "name": "",
          "type": "address"
        }
      ],
      "name": "tokenToExchange",
      "outputs": [
        {
          "internalType": "address",
          "name": "",
          "type": "address"
        }
      ],
      "stateMutability": "view",
      "type": "function"
    },
    {
      "inputs": [
        {
          "internalType": "address payable",
          "name": "_to",
          "type": "address"
        },
        {
          "internalType": "uint256",
          "name": "_value",
          "type": "uint256"
        }
      ],
      "name": "withdrawFunds",
      "outputs": [],
      "stateMutability": "payable",
      "type": "function"
    },
    {
      "inputs": [
        {
          "internalType": "address",
          "name": "_exchangeAddress",
          "type": "address"
        }
      ],
      "name": "registerAMM",
      "outputs": [],
      "stateMutability": "nonpayable",
      "type": "function"
    },
    {
      "inputs": [
        {
          "internalType": "address",
          "name": "_tokenAddress",
          "type": "address"
        }
      ],
      "name": "getExchange",
      "outputs": [
        {
          "internalType": "address",
          "name": "",
          "type": "address"
        }
      ],
      "stateMutability": "view",
      "type": "function"
    }
  ],
  "bytecode": "0x60806040523480156200001157600080fd5b5060405162001a6538038062001a658339818101604052810190620000379190620004e5565b62000062826040518060600160405280602f815260200162001a36602f91396200007b60201b60201c565b62000073816200014560201b60201c565b505062000793565b816000806101000a81548173ffffffffffffffffffffffffffffffffffffffff021916908373ffffffffffffffffffffffffffffffffffffffff1602179055506000620000cd6200045260201b60201c565b90508073ffffffffffffffffffffffffffffffffffffffff16637fb99b9330846040518363ffffffff1660e01b81526004016200010c929190620005d7565b600060405180830381600087803b1580156200012757600080fd5b505af11580156200013c573d6000803e3d6000fd5b50505050505050565b600073ffffffffffffffffffffffffffffffffffffffff168173ffffffffffffffffffffffffffffffffffffffff1603620001b7576040517f08c379a0000000000000000000000000000000000000000000000000000000008152600401620001ae906200065b565b60405180910390fd5b600073ffffffffffffffffffffffffffffffffffffffff16600160008373ffffffffffffffffffffffffffffffffffffffff1673ffffffffffffffffffffffffffffffffffffffff16815260200190815260200160002060009054906101000a900473ffffffffffffffffffffffffffffffffffffffff1673ffffffffffffffffffffffffffffffffffffffff161462000288576040517f08c379a00000000000000000000000000000000000000000000000000000000081526004016200027f90620006cd565b60405180910390fd5b600081905060008173ffffffffffffffffffffffffffffffffffffffff166310fe9ae86040518163ffffffff1660e01b8152600401602060405180830381865afa158015620002db573d6000803e3d6000fd5b505050506040513d601f19601f82011682018060405250810190620003019190620006ef565b9050600073ffffffffffffffffffffffffffffffffffffffff168173ffffffffffffffffffffffffffffffffffffffff160362000375576040517f08c379a00000000000000000000000000000000000000000000000000000000081526004016200036c9062000771565b60405180910390fd5b82600160008373ffffffffffffffffffffffffffffffffffffffff1673ffffffffffffffffffffffffffffffffffffffff16815260200190815260200160002060006101000a81548173ffffffffffffffffffffffffffffffffffffffff021916908373ffffffffffffffffffffffffffffffffffffffff1602179055508273ffffffffffffffffffffffffffffffffffffffff168173ffffffffffffffffffffffffffffffffffffffff167f9d42cb017eb05bd8944ab536a8b35bc68085931dd5f4356489801453923953f960405160405180910390a3505050565b60008060009054906101000a900473ffffffffffffffffffffffffffffffffffffffff16905090565b600080fd5b600073ffffffffffffffffffffffffffffffffffffffff82169050919050565b6000620004ad8262000480565b9050919050565b620004bf81620004a0565b8114620004cb57600080fd5b50565b600081519050620004df81620004b4565b92915050565b60008060408385031215620004ff57620004fe6200047b565b5b60006200050f85828601620004ce565b92505060206200052285828601620004ce565b9150509250929050565b6200053781620004a0565b82525050565b600081519050919050565b600082825260208201905092915050565b60005b83811015620005795780820151818401526020810190506200055c565b60008484015250505050565b6000601f19601f8301169050919050565b6000620005a3826200053d565b620005af818562000548565b9350620005c181856020860162000559565b620005cc8162000585565b840191505092915050565b6000604082019050620005ee60008301856200052c565b818103602083015262000602818462000596565b90509392505050565b7f696e76616c69642065786368616e676520616464726573730000000000000000600082015250565b60006200064360188362000548565b915062000650826200060b565b602082019050919050565b60006020820190508181036000830152620006768162000634565b9050919050565b7f65786368616e676520616c726561647920726567697374657265640000000000600082015250565b6000620006b5601b8362000548565b9150620006c2826200067d565b602082019050919050565b60006020820190508181036000830152620006e881620006a6565b9050919050565b6000602082840312156200070857620007076200047b565b5b60006200071884828501620004ce565b91505092915050565b7f696e76616c696420746f6b656e20616464726573730000000000000000000000600082015250565b60006200075960158362000548565b9150620007668262000721565b602082019050919050565b600060208201905081810360008301526200078c816200074a565b9050919050565b61129380620007a36000396000f3fe6080604052600436106100555760003560e01c806306f2bf621461005a578063516cbbe214610097578063c1075329146100c2578063c3c49a63146100de578063da517b671461011b578063fae45fbe14610144575b600080fd5b34801561006657600080fd5b50610081600480360381019061007c91906109b2565b61016d565b60405161008e91906109ee565b60405180910390f35b3480156100a357600080fd5b506100ac6101d6565b6040516100b99190610a68565b60405180910390f35b6100dc60048036038101906100d79190610af7565b6101ff565b005b3480156100ea57600080fd5b50610105600480360381019061010091906109b2565b61054e565b60405161011291906109ee565b60405180910390f35b34801561012757600080fd5b50610142600480360381019061013d91906109b2565b610581565b005b34801561015057600080fd5b5061016b60048036038101906101669190610c7d565b610882565b005b6000600160008373ffffffffffffffffffffffffffffffffffffffff1673ffffffffffffffffffffffffffffffffffffffff16815260200190815260200160002060009054906101000a900473ffffffffffffffffffffffffffffffffffffffff169050919050565b60008060009054906101000a900473ffffffffffffffffffffffffffffffffffffffff16905090565b6102076101d6565b73ffffffffffffffffffffffffffffffffffffffff166324d7806c336040518263ffffffff1660e01b815260040161023f91906109ee565b602060405180830381865afa15801561025c573d6000803e3d6000fd5b505050506040513d601f19601f820116820180604052508101906102809190610d11565b6102bf576040517f08c379a00000000000000000000000000000000000000000000000000000000081526004016102b690610dc1565b60405180910390fd5b600073ffffffffffffffffffffffffffffffffffffffff168273ffffffffffffffffffffffffffffffffffffffff160361032e576040517f08c379a000000000000000000000000000000000000000000000000000000000815260040161032590610e2d565b60405180910390fd5b3373ffffffffffffffffffffffffffffffffffffffff168273ffffffffffffffffffffffffffffffffffffffff16148061039357503273ffffffffffffffffffffffffffffffffffffffff168273ffffffffffffffffffffffffffffffffffffffff16145b8061041b57506103a16101d6565b73ffffffffffffffffffffffffffffffffffffffff166324d7806c836040518263ffffffff1660e01b81526004016103d99190610e6e565b602060405180830381865afa1580156103f6573d6000803e3d6000fd5b505050506040513d601f19601f8201168201806040525081019061041a9190610d11565b5b61045a576040517f08c379a000000000000000000000000000000000000000000000000000000000815260040161045190610efb565b60405180910390fd5b4781101561049d576040517f08c379a000000000000000000000000000000000000000000000000000000000815260040161049490610f67565b60405180910390fd5b60008273ffffffffffffffffffffffffffffffffffffffff16826040516104c390610fb8565b60006040518083038185875af1925050503d8060008114610500576040519150601f19603f3d011682016040523d82523d6000602084013e610505565b606091505b5050905080610549576040517f08c379a000000000000000000000000000000000000000000000000000000000815260040161054090611019565b60405180910390fd5b505050565b60016020528060005260406000206000915054906101000a900473ffffffffffffffffffffffffffffffffffffffff1681565b600073ffffffffffffffffffffffffffffffffffffffff168173ffffffffffffffffffffffffffffffffffffffff16036105f0576040517f08c379a00000000000000000000000000000000000000000000000000000000081526004016105e790611085565b60405180910390fd5b600073ffffffffffffffffffffffffffffffffffffffff16600160008373ffffffffffffffffffffffffffffffffffffffff1673ffffffffffffffffffffffffffffffffffffffff16815260200190815260200160002060009054906101000a900473ffffffffffffffffffffffffffffffffffffffff1673ffffffffffffffffffffffffffffffffffffffff16146106be576040517f08c379a00000000000000000000000000000000000000000000000000000000081526004016106b5906110f1565b60405180910390fd5b600081905060008173ffffffffffffffffffffffffffffffffffffffff166310fe9ae86040518163ffffffff1660e01b8152600401602060405180830381865afa158015610710573d6000803e3d6000fd5b505050506040513d601f19601f820116820180604052508101906107349190611126565b9050600073ffffffffffffffffffffffffffffffffffffffff168173ffffffffffffffffffffffffffffffffffffffff16036107a5576040517f08c379a000000000000000000000000000000000000000000000000000000000815260040161079c9061119f565b60405180910390fd5b82600160008373ffffffffffffffffffffffffffffffffffffffff1673ffffffffffffffffffffffffffffffffffffffff16815260200190815260200160002060006101000a81548173ffffffffffffffffffffffffffffffffffffffff021916908373ffffffffffffffffffffffffffffffffffffffff1602179055508273ffffffffffffffffffffffffffffffffffffffff168173ffffffffffffffffffffffffffffffffffffffff167f9d42cb017eb05bd8944ab536a8b35bc68085931dd5f4356489801453923953f960405160405180910390a3505050565b816000806101000a81548173ffffffffffffffffffffffffffffffffffffffff021916908373ffffffffffffffffffffffffffffffffffffffff16021790555060006108cc6101d6565b90508073ffffffffffffffffffffffffffffffffffffffff16637fb99b9330846040518363ffffffff1660e01b815260040161090992919061122d565b600060405180830381600087803b15801561092357600080fd5b505af1158015610937573d6000803e3d6000fd5b50505050505050565b6000604051905090565b600080fd5b600080fd5b600073ffffffffffffffffffffffffffffffffffffffff82169050919050565b600061097f82610954565b9050919050565b61098f81610974565b811461099a57600080fd5b50565b6000813590506109ac81610986565b92915050565b6000602082840312156109c8576109c761094a565b5b60006109d68482850161099d565b91505092915050565b6109e881610974565b82525050565b6000602082019050610a0360008301846109df565b92915050565b6000819050919050565b6000610a2e610a29610a2484610954565b610a09565b610954565b9050919050565b6000610a4082610a13565b9050919050565b6000610a5282610a35565b9050919050565b610a6281610a47565b82525050565b6000602082019050610a7d6000830184610a59565b92915050565b6000610a8e82610954565b9050919050565b610a9e81610a83565b8114610aa957600080fd5b50565b600081359050610abb81610a95565b92915050565b6000819050919050565b610ad481610ac1565b8114610adf57600080fd5b50565b600081359050610af181610acb565b92915050565b60008060408385031215610b0e57610b0d61094a565b5b6000610b1c85828601610aac565b9250506020610b2d85828601610ae2565b9150509250929050565b600080fd5b600080fd5b6000601f19601f8301169050919050565b7f4e487b7100000000000000000000000000000000000000000000000000000000600052604160045260246000fd5b610b8a82610b41565b810181811067ffffffffffffffff82111715610ba957610ba8610b52565b5b80604052505050565b6000610bbc610940565b9050610bc88282610b81565b919050565b600067ffffffffffffffff821115610be857610be7610b52565b5b610bf182610b41565b9050602081019050919050565b82818337600083830152505050565b6000610c20610c1b84610bcd565b610bb2565b905082815260208101848484011115610c3c57610c3b610b3c565b5b610c47848285610bfe565b509392505050565b600082601f830112610c6457610c63610b37565b5b8135610c74848260208601610c0d565b91505092915050565b60008060408385031215610c9457610c9361094a565b5b6000610ca28582860161099d565b925050602083013567ffffffffffffffff811115610cc357610cc261094f565b5b610ccf85828601610c4f565b9150509250929050565b60008115159050919050565b610cee81610cd9565b8114610cf957600080fd5b50565b600081519050610d0b81610ce5565b92915050565b600060208284031215610d2757610d2661094a565b5b6000610d3584828501610cfc565b91505092915050565b600082825260208201905092915050565b7f4f6e6c7920636f6e74726163742061646d696e2063616e20776974686472617760008201527f2066756e64730000000000000000000000000000000000000000000000000000602082015250565b6000610dab602683610d3e565b9150610db682610d4f565b604082019050919050565b60006020820190508181036000830152610dda81610d9e565b9050919050565b7f496e76616c696420616464726573730000000000000000000000000000000000600082015250565b6000610e17600f83610d3e565b9150610e2282610de1565b602082019050919050565b60006020820190508181036000830152610e4681610e0a565b9050919050565b6000610e5882610a35565b9050919050565b610e6881610e4d565b82525050565b6000602082019050610e836000830184610e5f565b92915050565b7f46756e64732063616e206f6e6c792062652077697468647261776e20746f206160008201527f646d696e2c206d73672e73656e646572206f722074782e6f726967696e000000602082015250565b6000610ee5603d83610d3e565b9150610ef082610e89565b604082019050919050565b60006020820190508181036000830152610f1481610ed8565b9050919050565b7f496e73756666696369656e742066756e64730000000000000000000000000000600082015250565b6000610f51601283610d3e565b9150610f5c82610f1b565b602082019050919050565b60006020820190508181036000830152610f8081610f44565b9050919050565b600081905092915050565b50565b6000610fa2600083610f87565b9150610fad82610f92565b600082019050919050565b6000610fc382610f95565b9150819050919050565b7f5472616e73666572206661696c65642e00000000000000000000000000000000600082015250565b6000611003601083610d3e565b915061100e82610fcd565b602082019050919050565b6000602082019050818103600083015261103281610ff6565b9050919050565b7f696e76616c69642065786368616e676520616464726573730000000000000000600082015250565b600061106f601883610d3e565b915061107a82611039565b602082019050919050565b6000602082019050818103600083015261109e81611062565b9050919050565b7f65786368616e676520616c726561647920726567697374657265640000000000600082015250565b60006110db601b83610d3e565b91506110e6826110a5565b602082019050919050565b6000602082019050818103600083015261110a816110ce565b9050919050565b60008151905061112081610986565b92915050565b60006020828403121561113c5761113b61094a565b5b600061114a84828501611111565b91505092915050565b7f696e76616c696420746f6b656e20616464726573730000000000000000000000600082015250565b6000611189601583610d3e565b915061119482611153565b602082019050919050565b600060208201905081810360008301526111b88161117c565b9050919050565b600081519050919050565b60005b838110156111e85780820151818401526020810190506111cd565b60008484015250505050565b60006111ff826111bf565b6112098185610d3e565b93506112198185602086016111ca565b61122281610b41565b840191505092915050565b600060408201905061124260008301856109df565b818103602083015261125481846111f4565b9050939250505056fea2646970667358221220dff583b2605ee39ff9ceee07cf15b9c0ca3e9c37d7a9538bb31af6be523ac95264736f6c63430008110033535332332041737369676e6d656e7420342056616c696461746f7220436f6e7472616374202d205265676973747279",
  "immutableReferences": {},
  "source": "// SPDX-License-Identifier: MIT\r\npragma solidity ^0.8.0;\r\n\r\n// Import IAssignment4.sol\r\nimport \"../interface/IAssignment4.sol\";\r\n\r\n// Import BaseConfig.sol\r\nimport \"../../BaseConfig.sol\";\r\n\r\ncontract Assignment4Registry is BaseConfig {\r\n    // mapping(tokenAddress => exchangeAddress) -> get exchange address by token address\r\n    mapping(address => address) public tokenToExchange;\r\n\r\n    event NewExchange(address indexed token, address indexed exchange);\r\n\r\n    constructor(address _configContractAddress, address testExchangeAddress) {\r\n        // Add smart contract to contract admin list with the name SBCoin_<coin_name>\r\n        initAdmin(\r\n            _configContractAddress,\r\n            \"SS23 Assignment 4 Validator Contract - Registry\"\r\n        );\r\n\r\n        registerAMM(testExchangeAddress);\r\n    }\r\n\r\n    function registerAMM(address _exchangeAddress) public {\r\n        require(_exchangeAddress != address(0), \"invalid exchange address\");\r\n        require(\r\n            tokenToExchange[_exchangeAddress] == address(0),\r\n            \"exchange already registered\"\r\n        );\r\n\r\n        IAssignment4 exchange = IAssignment4(_exchangeAddress);\r\n        address tokenAddress = exchange.getTokenAddress();\r\n\r\n        require(tokenAddress != address(0), \"invalid token address\");\r\n\r\n        tokenToExchange[tokenAddress] = _exchangeAddress;\r\n\r\n        emit NewExchange(tokenAddress, _exchangeAddress);\r\n    }\r\n\r\n    function getExchange(address _tokenAddress) public view returns (address) {\r\n        return tokenToExchange[_tokenAddress];\r\n    }\r\n}\r\n",
  "sourcePath": "C:\\Users\\jonas\\Repos\\mtp-blockchain\\smart-contracts\\contracts\\assignment_4\\helper\\Assignment4Registry.sol",
  "compiler": {
    "name": "solc",
    "version": "0.8.17+commit.8df45f5f.Emscripten.clang"
  },
  "schemaVersion": "3.4.11",
  "updatedAt": "2023-02-01T15:34:30.495Z",
  "devdoc": {
    "kind": "dev",
    "methods": {},
    "version": 1
  },
  "userdoc": {
    "kind": "user",
    "methods": {},
    "version": 1
  }
}