{
  "contractName": "BaseAssignmentValidator",
  "abi": [
    {
      "inputs": [
        {
          "internalType": "address",
          "name": "_configContractAddress",
          "type": "address"
        },
        {
          "internalType": "string",
          "name": "_contractName",
          "type": "string"
        }
      ],
      "stateMutability": "nonpayable",
      "type": "constructor"
    },
    {
      "inputs": [],
      "name": "getConfigStorage",
      "outputs": [
        {
          "internalType": "contract ConfigStorage",
          "name": "",
          "type": "address"
        }
      ],
      "stateMutability": "view",
      "type": "function"
    },
    {
      "inputs": [
        {
          "internalType": "address",
          "name": "_configContractAddress",
          "type": "address"
        },
        {
          "internalType": "string",
          "name": "_contractName",
          "type": "string"
        }
      ],
      "name": "initAdmin",
      "outputs": [],
      "stateMutability": "nonpayable",
      "type": "function"
    },
    {
      "inputs": [
        {
          "internalType": "address",
          "name": "_contractAddress",
          "type": "address"
        }
      ],
      "name": "test",
      "outputs": [
        {
          "internalType": "uint256",
          "name": "",
          "type": "uint256"
        }
      ],
      "stateMutability": "nonpayable",
      "type": "function"
    },
    {
      "inputs": [
        {
          "internalType": "address",
          "name": "_contractAddress",
          "type": "address"
        }
      ],
      "name": "validateAssignment",
      "outputs": [
        {
          "internalType": "uint256",
          "name": "",
          "type": "uint256"
        }
      ],
      "stateMutability": "nonpayable",
      "type": "function"
    },
    {
      "inputs": [
        {
          "internalType": "address",
          "name": "_contractAddress",
          "type": "address"
        }
      ],
      "name": "submitAssignment",
      "outputs": [
        {
          "internalType": "uint256",
          "name": "",
          "type": "uint256"
        }
      ],
      "stateMutability": "nonpayable",
      "type": "function"
    },
    {
      "inputs": [
        {
          "internalType": "address",
          "name": "_contractAddress",
          "type": "address"
        }
      ],
      "name": "createTestHistory",
      "outputs": [
        {
          "internalType": "uint256",
          "name": "",
          "type": "uint256"
        }
      ],
      "stateMutability": "nonpayable",
      "type": "function"
    },
    {
      "inputs": [
        {
          "internalType": "uint256",
          "name": "_index",
          "type": "uint256"
        },
        {
          "internalType": "string",
          "name": "_name",
          "type": "string"
        },
        {
          "internalType": "bool",
          "name": "_result",
          "type": "bool"
        }
      ],
      "name": "appendTestResult",
      "outputs": [],
      "stateMutability": "nonpayable",
      "type": "function"
    },
    {
      "inputs": [
        {
          "internalType": "uint256",
          "name": "_historyIndex",
          "type": "uint256"
        },
        {
          "internalType": "uint256",
          "name": "_testIndex",
          "type": "uint256"
        }
      ],
      "name": "getTestResultByIndex",
      "outputs": [
        {
          "components": [
            {
              "internalType": "string",
              "name": "testName",
              "type": "string"
            },
            {
              "internalType": "bool",
              "name": "testPassed",
              "type": "bool"
            }
          ],
          "internalType": "struct BaseAssignmentValidator.Test",
          "name": "result",
          "type": "tuple"
        }
      ],
      "stateMutability": "view",
      "type": "function"
    },
    {
      "inputs": [
        {
          "internalType": "uint256",
          "name": "_historyIndex",
          "type": "uint256"
        }
      ],
      "name": "getTestResults",
      "outputs": [
        {
          "components": [
            {
              "internalType": "string",
              "name": "testName",
              "type": "string"
            },
            {
              "internalType": "bool",
              "name": "testPassed",
              "type": "bool"
            }
          ],
          "internalType": "struct BaseAssignmentValidator.Test[]",
          "name": "result",
          "type": "tuple[]"
        }
      ],
      "stateMutability": "view",
      "type": "function"
    },
    {
      "inputs": [
        {
          "internalType": "address",
          "name": "_address",
          "type": "address"
        }
      ],
      "name": "getTestHistoryIndexes",
      "outputs": [
        {
          "internalType": "uint256[]",
          "name": "",
          "type": "uint256[]"
        }
      ],
      "stateMutability": "view",
      "type": "function"
    },
    {
      "inputs": [
        {
          "internalType": "address",
          "name": "_address",
          "type": "address"
        }
      ],
      "name": "getSubmittedAssignment",
      "outputs": [
        {
          "components": [
            {
              "internalType": "uint256",
              "name": "testIndex",
              "type": "uint256"
            },
            {
              "internalType": "address",
              "name": "studentAddress",
              "type": "address"
            },
            {
              "internalType": "address",
              "name": "contractAddress",
              "type": "address"
            },
            {
              "internalType": "uint256",
              "name": "knowledgeCoins",
              "type": "uint256"
            },
            {
              "internalType": "uint256",
              "name": "blockNo",
              "type": "uint256"
            },
            {
              "internalType": "bool",
              "name": "submitted",
              "type": "bool"
            }
          ],
          "internalType": "struct BaseAssignmentValidator.AssignmentSubmitted",
          "name": "",
          "type": "tuple"
        }
      ],
      "stateMutability": "view",
      "type": "function"
    },
    {
      "inputs": [
        {
          "internalType": "address",
          "name": "_contractAddress",
          "type": "address"
        }
      ],
      "name": "checkAssignmentOwner",
      "outputs": [
        {
          "internalType": "bool",
          "name": "",
          "type": "bool"
        }
      ],
      "stateMutability": "view",
      "type": "function"
    },
    {
      "inputs": [],
      "name": "getHistoryCounter",
      "outputs": [
        {
          "internalType": "uint256",
          "name": "",
          "type": "uint256"
        }
      ],
      "stateMutability": "view",
      "type": "function"
    },
    {
      "inputs": [
        {
          "internalType": "address",
          "name": "_address",
          "type": "address"
        }
      ],
      "name": "removeSubmittedAssignment",
      "outputs": [],
      "stateMutability": "nonpayable",
      "type": "function"
    },
    {
      "inputs": [
        {
          "internalType": "address",
          "name": "_address",
          "type": "address"
        }
      ],
      "name": "hasAssignmentSubmitted",
      "outputs": [
        {
          "internalType": "bool",
          "name": "",
          "type": "bool"
        }
      ],
      "stateMutability": "view",
      "type": "function"
    },
    {
      "inputs": [
        {
          "internalType": "uint256",
          "name": "semesterId",
          "type": "uint256"
        },
        {
          "internalType": "uint256",
          "name": "assignmentId",
          "type": "uint256"
        }
      ],
      "name": "setAssignmentInfos",
      "outputs": [],
      "stateMutability": "nonpayable",
      "type": "function"
    },
    {
      "inputs": [],
      "name": "clearAssignmentInfos",
      "outputs": [],
      "stateMutability": "nonpayable",
      "type": "function"
    },
    {
      "inputs": [],
      "name": "isAssignmentLinked",
      "outputs": [
        {
          "internalType": "bool",
          "name": "",
          "type": "bool"
        }
      ],
      "stateMutability": "view",
      "type": "function"
    },
    {
      "inputs": [],
      "name": "getAssignmentInfos",
      "outputs": [
        {
          "internalType": "uint256",
          "name": "",
          "type": "uint256"
        },
        {
          "internalType": "uint256",
          "name": "",
          "type": "uint256"
        },
        {
          "internalType": "bool",
          "name": "",
          "type": "bool"
        }
      ],
      "stateMutability": "view",
      "type": "function"
    }
  ],
  "bytecode": "0x60806040523480156200001157600080fd5b50604051620037b6380380620037b68339818101604052810190620000379190620003c4565b6200004982826200005960201b60201c565b6000600481905550505062000558565b816000806101000a81548173ffffffffffffffffffffffffffffffffffffffff021916908373ffffffffffffffffffffffffffffffffffffffff1602179055506000620000ab620001a360201b60201c565b90508073ffffffffffffffffffffffffffffffffffffffff1663fcd441e4336040518263ffffffff1660e01b8152600401620000e891906200043b565b602060405180830381865afa15801562000106573d6000803e3d6000fd5b505050506040513d601f19601f820116820180604052508101906200012c919062000495565b508073ffffffffffffffffffffffffffffffffffffffff16637fb99b9330846040518363ffffffff1660e01b81526004016200016a92919062000524565b600060405180830381600087803b1580156200018557600080fd5b505af11580156200019a573d6000803e3d6000fd5b50505050505050565b60008060009054906101000a900473ffffffffffffffffffffffffffffffffffffffff16905090565b6000604051905090565b600080fd5b600080fd5b600073ffffffffffffffffffffffffffffffffffffffff82169050919050565b60006200020d82620001e0565b9050919050565b6200021f8162000200565b81146200022b57600080fd5b50565b6000815190506200023f8162000214565b92915050565b600080fd5b600080fd5b6000601f19601f8301169050919050565b7f4e487b7100000000000000000000000000000000000000000000000000000000600052604160045260246000fd5b6200029a826200024f565b810181811067ffffffffffffffff82111715620002bc57620002bb62000260565b5b80604052505050565b6000620002d1620001cc565b9050620002df82826200028f565b919050565b600067ffffffffffffffff82111562000302576200030162000260565b5b6200030d826200024f565b9050602081019050919050565b60005b838110156200033a5780820151818401526020810190506200031d565b60008484015250505050565b60006200035d6200035784620002e4565b620002c5565b9050828152602081018484840111156200037c576200037b6200024a565b5b620003898482856200031a565b509392505050565b600082601f830112620003a957620003a862000245565b5b8151620003bb84826020860162000346565b91505092915050565b60008060408385031215620003de57620003dd620001d6565b5b6000620003ee858286016200022e565b925050602083015167ffffffffffffffff811115620004125762000411620001db565b5b620004208582860162000391565b9150509250929050565b620004358162000200565b82525050565b60006020820190506200045260008301846200042a565b92915050565b60008115159050919050565b6200046f8162000458565b81146200047b57600080fd5b50565b6000815190506200048f8162000464565b92915050565b600060208284031215620004ae57620004ad620001d6565b5b6000620004be848285016200047e565b91505092915050565b600081519050919050565b600082825260208201905092915050565b6000620004f082620004c7565b620004fc8185620004d2565b93506200050e8185602086016200031a565b62000519816200024f565b840191505092915050565b60006040820190506200053b60008301856200042a565b81810360208301526200054f8184620004e3565b90509392505050565b61324e80620005686000396000f3fe608060405234801561001057600080fd5b50600436106101215760003560e01c80636d6fa6d9116100ad578063b8e58a2a11610071578063b8e58a2a14610332578063bb29998e14610362578063c717a43414610392578063f274f596146103c2578063fae45fbe146103de57610121565b80636d6fa6d91461028e578063990fdd49146102be578063a10311ba146102ee578063a69e79b71461030a578063ab6f490f1461031457610121565b80633e45b826116100f45780633e45b826146101b05780634eed8c5d146101e0578063516cbbe2146102105780635da15abd1461022e578063621eb8a71461025e57610121565b8063067df42b1461012657806306854c5f1461014257806308e753ed146101605780630fa56ee414610190575b600080fd5b610140600480360381019061013b9190611e26565b6103fa565b005b61014a610639565b6040516101579190611e81565b60405180910390f35b61017a60048036038101906101759190611efa565b610650565b6040516101879190611e81565b60405180910390f35b6101986106a9565b6040516101a793929190611f36565b60405180910390f35b6101ca60048036038101906101c59190611f6d565b6106cf565b6040516101d79190612138565b60405180910390f35b6101fa60048036038101906101f59190611e26565b6107f1565b6040516102079190612197565b60405180910390f35b6102186108ef565b6040516102259190612218565b60405180910390f35b61024860048036038101906102439190611efa565b610918565b6040516102559190612233565b60405180910390f35b61027860048036038101906102739190611efa565b610f9f565b604051610285919061230c565b60405180910390f35b6102a860048036038101906102a39190611efa565b6110b8565b6040516102b59190611e81565b60405180910390f35b6102d860048036038101906102d39190611efa565b611174565b6040516102e59190612233565b60405180910390f35b6103086004803603810190610303919061248f565b611242565b005b6103126112f4565b005b61031c6113a3565b6040516103299190612233565b60405180910390f35b61034c60048036038101906103479190611efa565b6113ad565b6040516103599190612233565b60405180910390f35b61037c60048036038101906103779190611efa565b61163b565b6040516103899190612233565b60405180910390f35b6103ac60048036038101906103a79190611efa565b611642565b6040516103b99190612588565b60405180910390f35b6103dc60048036038101906103d79190611efa565b611780565b005b6103f860048036038101906103f391906125a3565b611a52565b005b6104026108ef565b73ffffffffffffffffffffffffffffffffffffffff16635577210a336040518263ffffffff1660e01b815260040161043a919061260e565b602060405180830381865afa158015610457573d6000803e3d6000fd5b505050506040513d601f19601f8201168201806040525081019061047b919061263e565b50600115156104886108ef565b73ffffffffffffffffffffffffffffffffffffffff16633a06068d846040518263ffffffff1660e01b81526004016104c09190612233565b602060405180830381865afa1580156104dd573d6000803e3d6000fd5b505050506040513d601f19601f82011682018060405250810190610501919061263e565b151514610543576040517f08c379a000000000000000000000000000000000000000000000000000000000815260040161053a906126c8565b60405180910390fd5b6001151561054f6108ef565b73ffffffffffffffffffffffffffffffffffffffff16637572fa8984846040518363ffffffff1660e01b81526004016105899291906126e8565b602060405180830381865afa1580156105a6573d6000803e3d6000fd5b505050506040513d601f19601f820116820180604052508101906105ca919061263e565b15151461060c576040517f08c379a000000000000000000000000000000000000000000000000000000000815260040161060390612783565b60405180910390fd5b81600181905550806002819055506001600360006101000a81548160ff0219169083151502179055505050565b6000600360009054906101000a900460ff16905090565b6000600660008373ffffffffffffffffffffffffffffffffffffffff1673ffffffffffffffffffffffffffffffffffffffff16815260200190815260200160002060050160009054906101000a900460ff169050919050565b6000806000600154600254600360009054906101000a900460ff16925092509250909192565b606060056000838152602001908152602001600020600201805480602002602001604051908101604052809291908181526020016000905b828210156107e6578382906000526020600020906002020160405180604001604052908160008201805461073a906127d2565b80601f0160208091040260200160405190810160405280929190818152602001828054610766906127d2565b80156107b35780601f10610788576101008083540402835291602001916107b3565b820191906000526020600020905b81548152906001019060200180831161079657829003601f168201915b505050505081526020016001820160009054906101000a900460ff16151515158152505081526020019060010190610707565b505050509050919050565b6107f9611d5c565b60056000848152602001908152602001600020600201828154811061082157610820612803565b5b906000526020600020906002020160405180604001604052908160008201805461084a906127d2565b80601f0160208091040260200160405190810160405280929190818152602001828054610876906127d2565b80156108c35780601f10610898576101008083540402835291602001916108c3565b820191906000526020600020905b8154815290600101906020018083116108a657829003601f168201915b505050505081526020016001820160009054906101000a900460ff161515151581525050905092915050565b60008060009054906101000a900473ffffffffffffffffffffffffffffffffffffffff16905090565b600060011515610926610639565b151514610968576040517f08c379a000000000000000000000000000000000000000000000000000000000815260040161095f906128ca565b60405180910390fd5b60011515600660003373ffffffffffffffffffffffffffffffffffffffff1673ffffffffffffffffffffffffffffffffffffffff16815260200190815260200160002060050160009054906101000a900460ff161515036109fe576040517f08c379a00000000000000000000000000000000000000000000000000000000081526004016109f590612982565b60405180910390fd5b3373ffffffffffffffffffffffffffffffffffffffff168273ffffffffffffffffffffffffffffffffffffffff1663893d20e86040518163ffffffff1660e01b8152600401602060405180830381865afa158015610a60573d6000803e3d6000fd5b505050506040513d601f19601f82011682018060405250810190610a8491906129b7565b73ffffffffffffffffffffffffffffffffffffffff1614610ada576040517f08c379a0000000000000000000000000000000000000000000000000000000008152600401610ad190612a7c565b60405180910390fd5b60011515610ae783611b8b565b151514610b29576040517f08c379a0000000000000000000000000000000000000000000000000000000008152600401610b2090612b34565b60405180910390fd5b6000610b34836113ad565b90506000808060056000858152602001908152602001600020600201805480602002602001604051908101604052809291908181526020016000905b82821015610c4f5783829060005260206000209060020201604051806040016040529081600082018054610ba3906127d2565b80601f0160208091040260200160405190810160405280929190818152602001828054610bcf906127d2565b8015610c1c5780601f10610bf157610100808354040283529160200191610c1c565b820191906000526020600020905b815481529060010190602001808311610bff57829003601f168201915b505050505081526020016001820160009054906101000a900460ff16151515158152505081526020019060010190610b70565b505050509050600091505b8051821015610cb05760011515818381518110610c7a57610c79612803565b5b602002602001015160200151151503610c9d57600183610c9a9190612b83565b92505b8180610ca890612bb7565b925050610c5a565b6000610cba6108ef565b73ffffffffffffffffffffffffffffffffffffffff1663f67917796040518163ffffffff1660e01b8152600401602060405180830381865afa158015610d04573d6000803e3d6000fd5b505050506040513d601f19601f82011682018060405250810190610d2891906129b7565b905060008173ffffffffffffffffffffffffffffffffffffffff16634cdca3bd866040518263ffffffff1660e01b8152600401610d659190612233565b602060405180830381865afa158015610d82573d6000803e3d6000fd5b505050506040513d601f19601f82011682018060405250810190610da69190612c14565b90508173ffffffffffffffffffffffffffffffffffffffff166340c10f1933836040518363ffffffff1660e01b8152600401610de3929190612c41565b6020604051808303816000875af1158015610e02573d6000803e3d6000fd5b505050506040513d601f19601f82011682018060405250810190610e26919061263e565b506040518060c001604052808781526020013373ffffffffffffffffffffffffffffffffffffffff1681526020018973ffffffffffffffffffffffffffffffffffffffff16815260200186815260200143815260200160011515815250600660003373ffffffffffffffffffffffffffffffffffffffff1673ffffffffffffffffffffffffffffffffffffffff1681526020019081526020016000206000820151816000015560208201518160010160006101000a81548173ffffffffffffffffffffffffffffffffffffffff021916908373ffffffffffffffffffffffffffffffffffffffff16021790555060408201518160020160006101000a81548173ffffffffffffffffffffffffffffffffffffffff021916908373ffffffffffffffffffffffffffffffffffffffff160217905550606082015181600301556080820151816004015560a08201518160050160006101000a81548160ff021916908315150217905550905050859650505050505050919050565b6060600060045467ffffffffffffffff811115610fbf57610fbe612338565b5b604051908082528060200260200182016040528015610fed5781602001602082028036833780820191505090505b509050600080600091505b6004548210156110ad578473ffffffffffffffffffffffffffffffffffffffff166005600084815260200190815260200160002060000160009054906101000a900473ffffffffffffffffffffffffffffffffffffffff1673ffffffffffffffffffffffffffffffffffffffff160361109a578183828151811061107f5761107e612803565b5b602002602001018181525050808061109690612bb7565b9150505b81806110a590612bb7565b925050610ff8565b829350505050919050565b6000808290503373ffffffffffffffffffffffffffffffffffffffff168173ffffffffffffffffffffffffffffffffffffffff1663893d20e86040518163ffffffff1660e01b8152600401602060405180830381865afa158015611120573d6000803e3d6000fd5b505050506040513d601f19601f8201168201806040525081019061114491906129b7565b73ffffffffffffffffffffffffffffffffffffffff160361116957600191505061116f565b60009150505b919050565b60008060016004546111869190612b83565b9050336005600083815260200190815260200160002060000160006101000a81548173ffffffffffffffffffffffffffffffffffffffff021916908373ffffffffffffffffffffffffffffffffffffffff160217905550826005600083815260200190815260200160002060010160006101000a81548173ffffffffffffffffffffffffffffffffffffffff021916908373ffffffffffffffffffffffffffffffffffffffff1602179055508060048190555080915050919050565b600060405180604001604052808481526020018315158152509050828160000181905250818160200190151590811515815250506005600085815260200190815260200160002060020181908060018154018082558091505060019003906000526020600020906002020160009091909190915060008201518160000190816112cb9190612e0c565b5060208201518160010160006101000a81548160ff021916908315150217905550505050505050565b6112fc6108ef565b73ffffffffffffffffffffffffffffffffffffffff16635577210a336040518263ffffffff1660e01b8152600401611334919061260e565b602060405180830381865afa158015611351573d6000803e3d6000fd5b505050506040513d601f19601f82011682018060405250810190611375919061263e565b50600060018190555060006002819055506000600360006101000a81548160ff021916908315150217905550565b6000600454905090565b6000600115156113bb610639565b1515146113fd576040517f08c379a00000000000000000000000000000000000000000000000000000000081526004016113f4906128ca565b60405180910390fd5b3373ffffffffffffffffffffffffffffffffffffffff168273ffffffffffffffffffffffffffffffffffffffff1663893d20e86040518163ffffffff1660e01b8152600401602060405180830381865afa15801561145f573d6000803e3d6000fd5b505050506040513d601f19601f8201168201806040525081019061148391906129b7565b73ffffffffffffffffffffffffffffffffffffffff1614806115975750600115156114ac6108ef565b73ffffffffffffffffffffffffffffffffffffffff166324d7806c8473ffffffffffffffffffffffffffffffffffffffff1663893d20e86040518163ffffffff1660e01b8152600401602060405180830381865afa158015611512573d6000803e3d6000fd5b505050506040513d601f19601f8201168201806040525081019061153691906129b7565b6040518263ffffffff1660e01b8152600401611552919061260e565b602060405180830381865afa15801561156f573d6000803e3d6000fd5b505050506040513d601f19601f82011682018060405250810190611593919061263e565b1515145b6115d6576040517f08c379a00000000000000000000000000000000000000000000000000000000081526004016115cd90612f76565b60405180910390fd5b600115156115e383611b8b565b151514611625576040517f08c379a000000000000000000000000000000000000000000000000000000000815260040161161c90612b34565b60405180910390fd5b60006116308361163b565b905080915050919050565b6000919050565b61164a611d78565b600660008373ffffffffffffffffffffffffffffffffffffffff1673ffffffffffffffffffffffffffffffffffffffff1681526020019081526020016000206040518060c0016040529081600082015481526020016001820160009054906101000a900473ffffffffffffffffffffffffffffffffffffffff1673ffffffffffffffffffffffffffffffffffffffff1673ffffffffffffffffffffffffffffffffffffffff1681526020016002820160009054906101000a900473ffffffffffffffffffffffffffffffffffffffff1673ffffffffffffffffffffffffffffffffffffffff1673ffffffffffffffffffffffffffffffffffffffff16815260200160038201548152602001600482015481526020016005820160009054906101000a900460ff1615151515815250509050919050565b6117886108ef565b73ffffffffffffffffffffffffffffffffffffffff16635577210a826040518263ffffffff1660e01b81526004016117c0919061260e565b602060405180830381865afa1580156117dd573d6000803e3d6000fd5b505050506040513d601f19601f82011682018060405250810190611801919061263e565b506001151561180f82610650565b151514611851576040517f08c379a000000000000000000000000000000000000000000000000000000000815260040161184890613008565b60405180910390fd5b6000600660008373ffffffffffffffffffffffffffffffffffffffff1673ffffffffffffffffffffffffffffffffffffffff16815260200190815260200160002060030154905060006118a26108ef565b73ffffffffffffffffffffffffffffffffffffffff1663f67917796040518163ffffffff1660e01b8152600401602060405180830381865afa1580156118ec573d6000803e3d6000fd5b505050506040513d601f19601f8201168201806040525081019061191091906129b7565b90508073ffffffffffffffffffffffffffffffffffffffff16639dc29fac84846040518363ffffffff1660e01b815260040161194d929190612c41565b6020604051808303816000875af115801561196c573d6000803e3d6000fd5b505050506040513d601f19601f82011682018060405250810190611990919061263e565b50600660008473ffffffffffffffffffffffffffffffffffffffff1673ffffffffffffffffffffffffffffffffffffffff1681526020019081526020016000206000808201600090556001820160006101000a81549073ffffffffffffffffffffffffffffffffffffffff02191690556002820160006101000a81549073ffffffffffffffffffffffffffffffffffffffff0219169055600382016000905560048201600090556005820160006101000a81549060ff02191690555050505050565b816000806101000a81548173ffffffffffffffffffffffffffffffffffffffff021916908373ffffffffffffffffffffffffffffffffffffffff1602179055506000611a9c6108ef565b90508073ffffffffffffffffffffffffffffffffffffffff1663fcd441e4336040518263ffffffff1660e01b8152600401611ad7919061260e565b602060405180830381865afa158015611af4573d6000803e3d6000fd5b505050506040513d601f19601f82011682018060405250810190611b18919061263e565b508073ffffffffffffffffffffffffffffffffffffffff16637fb99b9330846040518363ffffffff1660e01b8152600401611b54929190613061565b600060405180830381600087803b158015611b6e57600080fd5b505af1158015611b82573d6000803e3d6000fd5b50505050505050565b60008082905060008173ffffffffffffffffffffffffffffffffffffffff166342cbb15c6040518163ffffffff1660e01b8152600401602060405180830381865afa158015611bde573d6000803e3d6000fd5b505050506040513d601f19601f82011682018060405250810190611c029190612c14565b90506000611c0e6108ef565b73ffffffffffffffffffffffffffffffffffffffff1663e07b04946001546002546040518363ffffffff1660e01b8152600401611c4c9291906126e8565b600060405180830381865afa158015611c69573d6000803e3d6000fd5b505050506040513d6000823e3d601f19601f82011682018060405250810190611c9291906131cf565b6060015190506000611ca26108ef565b73ffffffffffffffffffffffffffffffffffffffff1663e07b04946001546002546040518363ffffffff1660e01b8152600401611ce09291906126e8565b600060405180830381865afa158015611cfd573d6000803e3d6000fd5b505050506040513d6000823e3d601f19601f82011682018060405250810190611d2691906131cf565b608001519050818310158015611d3c5750808311155b15611d4e576001945050505050611d57565b60009450505050505b919050565b6040518060400160405280606081526020016000151581525090565b6040518060c0016040528060008152602001600073ffffffffffffffffffffffffffffffffffffffff168152602001600073ffffffffffffffffffffffffffffffffffffffff16815260200160008152602001600081526020016000151581525090565b6000604051905090565b600080fd5b600080fd5b6000819050919050565b611e0381611df0565b8114611e0e57600080fd5b50565b600081359050611e2081611dfa565b92915050565b60008060408385031215611e3d57611e3c611de6565b5b6000611e4b85828601611e11565b9250506020611e5c85828601611e11565b9150509250929050565b60008115159050919050565b611e7b81611e66565b82525050565b6000602082019050611e966000830184611e72565b92915050565b600073ffffffffffffffffffffffffffffffffffffffff82169050919050565b6000611ec782611e9c565b9050919050565b611ed781611ebc565b8114611ee257600080fd5b50565b600081359050611ef481611ece565b92915050565b600060208284031215611f1057611f0f611de6565b5b6000611f1e84828501611ee5565b91505092915050565b611f3081611df0565b82525050565b6000606082019050611f4b6000830186611f27565b611f586020830185611f27565b611f656040830184611e72565b949350505050565b600060208284031215611f8357611f82611de6565b5b6000611f9184828501611e11565b91505092915050565b600081519050919050565b600082825260208201905092915050565b6000819050602082019050919050565b600081519050919050565b600082825260208201905092915050565b60005b83811015612000578082015181840152602081019050611fe5565b60008484015250505050565b6000601f19601f8301169050919050565b600061202882611fc6565b6120328185611fd1565b9350612042818560208601611fe2565b61204b8161200c565b840191505092915050565b61205f81611e66565b82525050565b60006040830160008301518482036000860152612082828261201d565b91505060208301516120976020860182612056565b508091505092915050565b60006120ae8383612065565b905092915050565b6000602082019050919050565b60006120ce82611f9a565b6120d88185611fa5565b9350836020820285016120ea85611fb6565b8060005b85811015612126578484038952815161210785826120a2565b9450612112836120b6565b925060208a019950506001810190506120ee565b50829750879550505050505092915050565b6000602082019050818103600083015261215281846120c3565b905092915050565b60006040830160008301518482036000860152612177828261201d565b915050602083015161218c6020860182612056565b508091505092915050565b600060208201905081810360008301526121b1818461215a565b905092915050565b6000819050919050565b60006121de6121d96121d484611e9c565b6121b9565b611e9c565b9050919050565b60006121f0826121c3565b9050919050565b6000612202826121e5565b9050919050565b612212816121f7565b82525050565b600060208201905061222d6000830184612209565b92915050565b60006020820190506122486000830184611f27565b92915050565b600081519050919050565b600082825260208201905092915050565b6000819050602082019050919050565b61228381611df0565b82525050565b6000612295838361227a565b60208301905092915050565b6000602082019050919050565b60006122b98261224e565b6122c38185612259565b93506122ce8361226a565b8060005b838110156122ff5781516122e68882612289565b97506122f1836122a1565b9250506001810190506122d2565b5085935050505092915050565b6000602082019050818103600083015261232681846122ae565b905092915050565b600080fd5b600080fd5b7f4e487b7100000000000000000000000000000000000000000000000000000000600052604160045260246000fd5b6123708261200c565b810181811067ffffffffffffffff8211171561238f5761238e612338565b5b80604052505050565b60006123a2611ddc565b90506123ae8282612367565b919050565b600067ffffffffffffffff8211156123ce576123cd612338565b5b6123d78261200c565b9050602081019050919050565b82818337600083830152505050565b6000612406612401846123b3565b612398565b90508281526020810184848401111561242257612421612333565b5b61242d8482856123e4565b509392505050565b600082601f83011261244a5761244961232e565b5b813561245a8482602086016123f3565b91505092915050565b61246c81611e66565b811461247757600080fd5b50565b60008135905061248981612463565b92915050565b6000806000606084860312156124a8576124a7611de6565b5b60006124b686828701611e11565b935050602084013567ffffffffffffffff8111156124d7576124d6611deb565b5b6124e386828701612435565b92505060406124f48682870161247a565b9150509250925092565b61250781611ebc565b82525050565b60c082016000820151612523600085018261227a565b50602082015161253660208501826124fe565b50604082015161254960408501826124fe565b50606082015161255c606085018261227a565b50608082015161256f608085018261227a565b5060a082015161258260a0850182612056565b50505050565b600060c08201905061259d600083018461250d565b92915050565b600080604083850312156125ba576125b9611de6565b5b60006125c885828601611ee5565b925050602083013567ffffffffffffffff8111156125e9576125e8611deb565b5b6125f585828601612435565b9150509250929050565b61260881611ebc565b82525050565b600060208201905061262360008301846125ff565b92915050565b60008151905061263881612463565b92915050565b60006020828403121561265457612653611de6565b5b600061266284828501612629565b91505092915050565b600082825260208201905092915050565b7f53656d657374657220696420646f6573206e6f74206578697374210000000000600082015250565b60006126b2601b8361266b565b91506126bd8261267c565b602082019050919050565b600060208201905081810360008301526126e1816126a5565b9050919050565b60006040820190506126fd6000830185611f27565b61270a6020830184611f27565b9392505050565b7f41737369676e6d656e7420696420666f72207468652073656d6573746572206460008201527f6f6573206e6f7420657869737421000000000000000000000000000000000000602082015250565b600061276d602e8361266b565b915061277882612711565b604082019050919050565b6000602082019050818103600083015261279c81612760565b9050919050565b7f4e487b7100000000000000000000000000000000000000000000000000000000600052602260045260246000fd5b600060028204905060018216806127ea57607f821691505b6020821081036127fd576127fc6127a3565b5b50919050565b7f4e487b7100000000000000000000000000000000000000000000000000000000600052603260045260246000fd5b7f41737369676e6d656e74204572726f723a2041737369676e6d656e742069732060008201527f6e6f74206c696e6b656420746f20612073656d65737465722120506c6561736560208201527f20636f6e7472616374207468652041646d696e20617361702100000000000000604082015250565b60006128b460598361266b565b91506128bf82612832565b606082019050919050565b600060208201905081810360008301526128e3816128a7565b9050919050565b7f41737369676e6d656e74204572726f723a2041737369676e6d656e7420616c7260008201527f65616479207375626d6974746564212043616e6e6f74207375626d697420746860208201527f652061737369676e6d656e7420616761696e2100000000000000000000000000604082015250565b600061296c60538361266b565b9150612977826128ea565b606082019050919050565b6000602082019050818103600083015261299b8161295f565b9050919050565b6000815190506129b181611ece565b92915050565b6000602082840312156129cd576129cc611de6565b5b60006129db848285016129a2565b91505092915050565b7f41737369676e6d656e74204572726f723a204f6e6c7920746865206f776e657260008201527f206f662074686520636f6e74726163742063616e207375626d6974207468697360208201527f2061737369676e6d656e74210000000000000000000000000000000000000000604082015250565b6000612a66604c8361266b565b9150612a71826129e4565b606082019050919050565b60006020820190508181036000830152612a9581612a59565b9050919050565b7f41737369676e6d656e74204572726f723a2041737369676e6d656e74206e6f7460008201527f206465706c6f79656420696e207468652072657175697265642061737369676e60208201527f6d656e7420626c6f636b2072616e676521000000000000000000000000000000604082015250565b6000612b1e60518361266b565b9150612b2982612a9c565b606082019050919050565b60006020820190508181036000830152612b4d81612b11565b9050919050565b7f4e487b7100000000000000000000000000000000000000000000000000000000600052601160045260246000fd5b6000612b8e82611df0565b9150612b9983611df0565b9250828201905080821115612bb157612bb0612b54565b5b92915050565b6000612bc282611df0565b91507fffffffffffffffffffffffffffffffffffffffffffffffffffffffffffffffff8203612bf457612bf3612b54565b5b600182019050919050565b600081519050612c0e81611dfa565b92915050565b600060208284031215612c2a57612c29611de6565b5b6000612c3884828501612bff565b91505092915050565b6000604082019050612c5660008301856125ff565b612c636020830184611f27565b9392505050565b60008190508160005260206000209050919050565b60006020601f8301049050919050565b600082821b905092915050565b600060088302612ccc7fffffffffffffffffffffffffffffffffffffffffffffffffffffffffffffffff82612c8f565b612cd68683612c8f565b95508019841693508086168417925050509392505050565b6000612d09612d04612cff84611df0565b6121b9565b611df0565b9050919050565b6000819050919050565b612d2383612cee565b612d37612d2f82612d10565b848454612c9c565b825550505050565b600090565b612d4c612d3f565b612d57818484612d1a565b505050565b5b81811015612d7b57612d70600082612d44565b600181019050612d5d565b5050565b601f821115612dc057612d9181612c6a565b612d9a84612c7f565b81016020851015612da9578190505b612dbd612db585612c7f565b830182612d5c565b50505b505050565b600082821c905092915050565b6000612de360001984600802612dc5565b1980831691505092915050565b6000612dfc8383612dd2565b9150826002028217905092915050565b612e1582611fc6565b67ffffffffffffffff811115612e2e57612e2d612338565b5b612e3882546127d2565b612e43828285612d7f565b600060209050601f831160018114612e765760008415612e64578287015190505b612e6e8582612df0565b865550612ed6565b601f198416612e8486612c6a565b60005b82811015612eac57848901518255600182019150602085019450602081019050612e87565b86831015612ec95784890151612ec5601f891682612dd2565b8355505b6001600288020188555050505b505050505050565b7f41737369676e6d656e74204572726f723a204f6e6c7920746865206f776e657260008201527f206f662074686520636f6e7472616374206f7220616e2061646d696e2063616e60208201527f2076616c696461746520746869732061737369676e6d656e7421000000000000604082015250565b6000612f60605a8361266b565b9150612f6b82612ede565b606082019050919050565b60006020820190508181036000830152612f8f81612f53565b9050919050565b7f41737369676e6d656e74206e65656420746f206265206669727374207375626d60008201527f69747465642c20746f2062652072656d6f766564210000000000000000000000602082015250565b6000612ff260358361266b565b9150612ffd82612f96565b604082019050919050565b6000602082019050818103600083015261302181612fe5565b9050919050565b600061303382611fc6565b61303d818561266b565b935061304d818560208601611fe2565b6130568161200c565b840191505092915050565b600060408201905061307660008301856125ff565b81810360208301526130888184613028565b90509392505050565b600080fd5b600080fd5b60006130ae6130a9846123b3565b612398565b9050828152602081018484840111156130ca576130c9612333565b5b6130d5848285611fe2565b509392505050565b600082601f8301126130f2576130f161232e565b5b815161310284826020860161309b565b91505092915050565b600060a0828403121561312157613120613091565b5b61312b60a0612398565b9050600082015167ffffffffffffffff81111561314b5761314a613096565b5b613157848285016130dd565b600083015250602082015167ffffffffffffffff81111561317b5761317a613096565b5b613187848285016130dd565b602083015250604061319b848285016129a2565b60408301525060606131af84828501612bff565b60608301525060806131c384828501612bff565b60808301525092915050565b6000602082840312156131e5576131e4611de6565b5b600082015167ffffffffffffffff81111561320357613202611deb565b5b61320f8482850161310b565b9150509291505056fea264697066735822122016bd70252ad67d577bacc7311f19c0688a5a52a7fc10aaf59d0416621e44477564736f6c63430008110033",
  "immutableReferences": {},
  "source": "// SPDX-License-Identifier: MIT\r\npragma solidity ^0.8.17;\r\n\r\n/*=============================================\r\n=                Assignment Helper            =\r\n=============================================*/\r\n\r\nimport \"../contracts/BaseConfig.sol\";\r\nimport \"../contracts/BaseAssignment.sol\";\r\nimport \"../contracts/SBCoin.sol\";\r\n\r\ncontract BaseAssignmentValidator is BaseConfig {\r\n    // TEST STRUCT\r\n    struct Test {\r\n        // Name of test\r\n        string testName;\r\n        // Test result\r\n        bool testPassed;\r\n    }\r\n\r\n    // TEST HISTORY STRUCT\r\n    struct TestHistory {\r\n        // studentAddress\r\n        address studentAddress;\r\n        // contractAddress\r\n        address contractAddress;\r\n        // test\r\n        Test[] test;\r\n    }\r\n\r\n    // SUBMIT STRUCT\r\n    struct AssignmentSubmitted {\r\n        // index of the test which is used to calculate the amount of knowledge coins\r\n        uint256 testIndex;\r\n        // student address\r\n        address studentAddress;\r\n        // contract address\r\n        address contractAddress;\r\n        // knowledge coins\r\n        uint256 knowledgeCoins;\r\n        // blockno\r\n        uint256 blockNo;\r\n        // submitted\r\n        bool submitted;\r\n    }\r\n\r\n    // Info about the assignment is has in the ConfigStorage\r\n    uint256 _semesterId;\r\n    uint256 _assignmentId;\r\n    bool _assignmentLinked;\r\n\r\n    // Test history\r\n    uint256 private _testHistoryCounter;\r\n    mapping(uint256 => TestHistory) _testHistory;\r\n\r\n    // Submitted assignments (student_address => true)\r\n    mapping(address => AssignmentSubmitted) _assignmentSubmitted;\r\n\r\n    constructor(address _configContractAddress, string memory _contractName) {\r\n        initAdmin(_configContractAddress, _contractName);\r\n\r\n        _testHistoryCounter = 0;\r\n    }\r\n\r\n    /*=============================================\r\n    =            Validate and Submit            =\r\n    =============================================*/\r\n\r\n    // abstract validate test function\r\n    function test(address _contractAddress) public virtual returns (uint256) {}\r\n\r\n    // validate function\r\n    function validateAssignment(address _contractAddress)\r\n        public\r\n        returns (uint256)\r\n    {\r\n        // Make sure the assignment is linked to a semester\r\n        require(\r\n            isAssignmentLinked() == true,\r\n            \"Assignment Error: Assignment is not linked to a semester! Please contract the Admin asap!\"\r\n        );\r\n\r\n        // Make sure the person who is checking the assignment is the owner of the contract or an admin\r\n        require(\r\n            BaseAssignment(_contractAddress).getOwner() == msg.sender ||\r\n                getConfigStorage().isAdmin(\r\n                    BaseAssignment(_contractAddress).getOwner()\r\n                ) ==\r\n                true,\r\n            \"Assignment Error: Only the owner of the contract or an admin can validate this assignment!\"\r\n        );\r\n\r\n        // Make sure the assignment is deploy in the required block range\r\n        require(\r\n            hasAssignmentDeployedInBlockRange(_contractAddress) == true,\r\n            \"Assignment Error: Assignment not deployed in the required assignment block range!\"\r\n        );\r\n\r\n        uint256 historyCounter = test(_contractAddress);\r\n\r\n        return historyCounter;\r\n    }\r\n\r\n    // Submit assignment\r\n    function submitAssignment(address _contractAddress) public returns (uint256) {\r\n        // Make sure the assignment is linked to a semester\r\n        require(\r\n            isAssignmentLinked() == true,\r\n            \"Assignment Error: Assignment is not linked to a semester! Please contract the Admin asap!\"\r\n        );\r\n\r\n        // Make sure the assignment is not already submitted\r\n        require(\r\n            _assignmentSubmitted[msg.sender].submitted != true,\r\n            \"Assignment Error: Assignment already submitted! Cannot submit the assignment again!\"\r\n        );\r\n\r\n        // Make sure the student is the owner of the contract\r\n        require(\r\n            BaseAssignment(_contractAddress).getOwner() == msg.sender,\r\n            \"Assignment Error: Only the owner of the contract can submit this assignment!\"\r\n        );\r\n\r\n        // Make sure the assignment is deployed in the required block range\r\n        require(\r\n            hasAssignmentDeployedInBlockRange(_contractAddress) == true,\r\n            \"Assignment Error: Assignment not deployed in the required assignment block range!\"\r\n        );\r\n\r\n        // Validate assignment and return test history index\r\n        uint256 historyIndex = validateAssignment(_contractAddress);\r\n\r\n        // Get for each passed test a knowledge coin\r\n        uint256 knowledgeCoins = 0;\r\n\r\n        uint256 i;\r\n        Test[] memory tests = _testHistory[historyIndex].test;\r\n\r\n        for (i = 0; i < tests.length; i++) {\r\n            if (tests[i].testPassed == true) {\r\n                knowledgeCoins = knowledgeCoins + 1;\r\n            }\r\n        }\r\n\r\n        // Get knowledge coin contract\r\n        SBCoin knowledgeCoin = SBCoin(\r\n            getConfigStorage().getKnowledgeCoinContractAddress()\r\n        );\r\n\r\n        // Exchange coin into knowledge coin\r\n        uint256 sbCoinAmount = knowledgeCoin.exchangeToFullCoin(knowledgeCoins);\r\n\r\n        // Mint knowledge coins\r\n        knowledgeCoin.mint(msg.sender, sbCoinAmount);\r\n\r\n        // Mark assignment as submitted\r\n        _assignmentSubmitted[msg.sender] = AssignmentSubmitted(\r\n            historyIndex,\r\n            msg.sender,\r\n            _contractAddress,\r\n            knowledgeCoins,\r\n            block.number,\r\n            true\r\n        );\r\n\r\n        return historyIndex;\r\n    }\r\n\r\n    /*=====  End of Validate and Submit  ======*/\r\n\r\n    /*=============================================\r\n    =                 Test Helper                 =\r\n    =============================================*/\r\n\r\n    // Create test history\r\n    function createTestHistory(address _contractAddress)\r\n        public\r\n        returns (uint256)\r\n    {\r\n        uint256 index = _testHistoryCounter + 1;\r\n\r\n        _testHistory[index].studentAddress = msg.sender;\r\n        _testHistory[index].contractAddress = _contractAddress;\r\n\r\n        _testHistoryCounter = index;\r\n\r\n        return index;\r\n    }\r\n\r\n    // Append test result to array\r\n    function appendTestResult(\r\n        uint256 _index,\r\n        string memory _name,\r\n        bool _result\r\n    ) public {\r\n        Test memory a = Test(_name, _result);\r\n        a.testName = _name;\r\n        a.testPassed = _result;\r\n\r\n        _testHistory[_index].test.push(a);\r\n    }\r\n\r\n    // Return test result by id\r\n    function getTestResultByIndex(uint256 _historyIndex, uint256 _testIndex)\r\n        public\r\n        view\r\n        returns (Test memory result)\r\n    {\r\n        return _testHistory[_historyIndex].test[_testIndex];\r\n    }\r\n\r\n    // Return test result\r\n    function getTestResults(uint256 _historyIndex)\r\n        public\r\n        view\r\n        returns (Test[] memory result)\r\n    {\r\n        return _testHistory[_historyIndex].test;\r\n    }\r\n\r\n    /**\r\n     * Get all test history indexes for a student\r\n     *\r\n     * MARK: The array has a fixed size, ignore all number besides 0\r\n     *\r\n     * @param _address Student address\r\n     * @return testIndexes Array of test history indexes\r\n     */\r\n    function getTestHistoryIndexes(address _address)\r\n        public\r\n        view\r\n        returns (uint256[] memory)\r\n    {\r\n        uint256[] memory testIndexes = new uint256[](_testHistoryCounter);\r\n\r\n        uint256 i = 0;\r\n        uint256 j = 0;\r\n        for (i = 0; i < _testHistoryCounter; i++) {\r\n            if (_testHistory[i].studentAddress == _address) {\r\n                testIndexes[j] = i;\r\n                j++;\r\n            }\r\n        }\r\n\r\n        return testIndexes;\r\n    }\r\n\r\n    /**\r\n     * Get submitted assignment for address\r\n     *\r\n     * @param _address Student address\r\n     * @return AssignmentSubmitted\r\n     */\r\n    function getSubmittedAssignment(address _address)\r\n        public\r\n        view\r\n        returns (AssignmentSubmitted memory)\r\n    {\r\n        return _assignmentSubmitted[_address];\r\n    }\r\n\r\n    // Check assignment owner\r\n    function checkAssignmentOwner(address _contractAddress)\r\n        public\r\n        view\r\n        returns (bool)\r\n    {\r\n        BaseAssignment assignment = BaseAssignment(_contractAddress);\r\n\r\n        if (assignment.getOwner() == msg.sender) {\r\n            return true;\r\n        } else {\r\n            return false;\r\n        }\r\n    }\r\n\r\n    /**\r\n     * Get test history counter\r\n     */\r\n    function getHistoryCounter() public view returns (uint256) {\r\n        return _testHistoryCounter;\r\n    }\r\n\r\n    /**\r\n     * Remove submitted assignment\r\n     *\r\n     * @param _address Student address\r\n     */\r\n    function removeSubmittedAssignment(address _address) public {\r\n        getConfigStorage().requireAdmin(_address);\r\n\r\n        require(\r\n            hasAssignmentSubmitted(_address) == true,\r\n            \"Assignment need to be first submitted, to be removed!\"\r\n        );\r\n\r\n        uint256 knowledgeCoins = _assignmentSubmitted[_address].knowledgeCoins;\r\n\r\n        // Get knowledge coin contract\r\n        SBCoin knowledgeCoinInstance = SBCoin(\r\n            getConfigStorage().getKnowledgeCoinContractAddress()\r\n        );\r\n\r\n        knowledgeCoinInstance.burn(_address, knowledgeCoins);\r\n\r\n        delete _assignmentSubmitted[_address];\r\n    }\r\n\r\n    /**\r\n     * Check if assignment is submitted\r\n     *\r\n     * @param _address Student address\r\n     * @return bool\r\n     */\r\n    function hasAssignmentSubmitted(address _address)\r\n        public\r\n        view\r\n        returns (bool)\r\n    {\r\n        return _assignmentSubmitted[_address].submitted;\r\n    }\r\n\r\n    /**\r\n     * Check if assignment is deployed in block range\r\n     *\r\n     * @param _contractAddress Assignment contract address\r\n     * @return bool\r\n     */\r\n    function hasAssignmentDeployedInBlockRange(address _contractAddress)\r\n        private\r\n        view\r\n        returns (bool)\r\n    {\r\n        BaseAssignment assignment = BaseAssignment(_contractAddress);\r\n\r\n        // Get block number of assignment\r\n        uint256 blockNumber = assignment.getBlockNumber();\r\n\r\n        // Get allowed start and end block of assignment\r\n        uint256 startBlock = getConfigStorage()\r\n            .getAssignment(_semesterId, _assignmentId)\r\n            .startBlock;\r\n        uint256 endBlock = getConfigStorage()\r\n            .getAssignment(_semesterId, _assignmentId)\r\n            .endBlock;\r\n\r\n        // Check if block number is in range\r\n        if (blockNumber >= startBlock && blockNumber <= endBlock) {\r\n            return true;\r\n        } else {\r\n            return false;\r\n        }\r\n    }\r\n\r\n    /*=====        End of Test Helper      ======*/\r\n\r\n    /*=============================================\r\n    =               Config Helper               =\r\n    =============================================*/\r\n\r\n    /**\r\n     * Set assignment infos\r\n     *\r\n     * @param semesterId Semester id\r\n     * @param assignmentId Assignment id\r\n     */\r\n    function setAssignmentInfos(uint256 semesterId, uint256 assignmentId)\r\n        public\r\n    {\r\n        getConfigStorage().requireAdmin(msg.sender);\r\n\r\n        // Make sure that the semester exists\r\n        require(\r\n            getConfigStorage().hasSemesterId(semesterId) == true,\r\n            \"Semester id does not exist!\"\r\n        );\r\n\r\n        // Make sure that the assignment exists in the semester\r\n        require(\r\n            getConfigStorage().hasAssignmentId(semesterId, assignmentId) ==\r\n                true,\r\n            \"Assignment id for the semester does not exist!\"\r\n        );\r\n\r\n        _semesterId = semesterId;\r\n        _assignmentId = assignmentId;\r\n\r\n        // set linked to true\r\n        _assignmentLinked = true;\r\n    }\r\n\r\n    /**\r\n     * Clear assignment infos\r\n     */\r\n    function clearAssignmentInfos() public {\r\n        getConfigStorage().requireAdmin(msg.sender);\r\n\r\n        _semesterId = 0;\r\n        _assignmentId = 0;\r\n        _assignmentLinked = false;\r\n    }\r\n\r\n    /**\r\n     * Check if assignment is linked to config storage\r\n     */\r\n    function isAssignmentLinked() public view returns (bool) {\r\n        return _assignmentLinked;\r\n    }\r\n\r\n    /**\r\n     * Get assignment infos\r\n     */\r\n    function getAssignmentInfos()\r\n        public\r\n        view\r\n        returns (\r\n            uint256,\r\n            uint256,\r\n            bool\r\n        )\r\n    {\r\n        return (_semesterId, _assignmentId, _assignmentLinked);\r\n    }\r\n\r\n    /*=====     End of Config Helper     ======*/\r\n}\r\n\r\n/*=====   End of Assignment Helper    ======*/\r\n",
  "sourcePath": "C:\\Users\\jonas\\Repos\\mtp-blockchain\\smart-contracts\\contracts\\BaseAssignmentValidator.sol",
  "compiler": {
    "name": "solc",
    "version": "0.8.17+commit.8df45f5f.Emscripten.clang"
  },
  "schemaVersion": "3.4.11",
  "updatedAt": "2023-02-01T14:29:32.841Z",
  "devdoc": {
    "kind": "dev",
    "methods": {
      "getSubmittedAssignment(address)": {
        "params": {
          "_address": "Student address"
        },
        "returns": {
          "_0": "AssignmentSubmitted"
        }
      },
      "getTestHistoryIndexes(address)": {
        "params": {
          "_address": "Student address"
        },
        "returns": {
          "_0": "testIndexes Array of test history indexes"
        }
      },
      "hasAssignmentSubmitted(address)": {
        "params": {
          "_address": "Student address"
        },
        "returns": {
          "_0": "bool"
        }
      },
      "removeSubmittedAssignment(address)": {
        "params": {
          "_address": "Student address"
        }
      },
      "setAssignmentInfos(uint256,uint256)": {
        "params": {
          "assignmentId": "Assignment id",
          "semesterId": "Semester id"
        }
      }
    },
    "version": 1
  },
  "userdoc": {
    "kind": "user",
    "methods": {
      "clearAssignmentInfos()": {
        "notice": "Clear assignment infos"
      },
      "getAssignmentInfos()": {
        "notice": "Get assignment infos"
      },
      "getHistoryCounter()": {
        "notice": "Get test history counter"
      },
      "getSubmittedAssignment(address)": {
        "notice": "Get submitted assignment for address"
      },
      "getTestHistoryIndexes(address)": {
        "notice": "Get all test history indexes for a student MARK: The array has a fixed size, ignore all number besides 0"
      },
      "hasAssignmentSubmitted(address)": {
        "notice": "Check if assignment is submitted"
      },
      "isAssignmentLinked()": {
        "notice": "Check if assignment is linked to config storage"
      },
      "removeSubmittedAssignment(address)": {
        "notice": "Remove submitted assignment"
      },
      "setAssignmentInfos(uint256,uint256)": {
        "notice": "Set assignment infos"
      }
    },
    "version": 1
  }
}