{
  "contractName": "BaseAssignment",
  "abi": [
    {
      "inputs": [
        {
          "internalType": "address",
          "name": "validator",
          "type": "address"
        }
      ],
      "stateMutability": "nonpayable",
      "type": "constructor"
    },
    {
      "inputs": [],
      "name": "_owner",
      "outputs": [
        {
          "internalType": "address",
          "name": "",
          "type": "address"
        }
      ],
      "stateMutability": "view",
      "type": "function"
    },
    {
      "inputs": [],
      "name": "_validator",
      "outputs": [
        {
          "internalType": "address",
          "name": "",
          "type": "address"
        }
      ],
      "stateMutability": "view",
      "type": "function"
    },
    {
      "inputs": [
        {
          "internalType": "uint256",
          "name": "",
          "type": "uint256"
        }
      ],
      "name": "signatures",
      "outputs": [
        {
          "internalType": "bytes",
          "name": "signature",
          "type": "bytes"
        },
        {
          "internalType": "uint256",
          "name": "ethAmount",
          "type": "uint256"
        }
      ],
      "stateMutability": "view",
      "type": "function"
    },
    {
      "inputs": [],
      "name": "getOwner",
      "outputs": [
        {
          "internalType": "address",
          "name": "",
          "type": "address"
        }
      ],
      "stateMutability": "view",
      "type": "function"
    },
    {
      "inputs": [],
      "name": "getBlockNumber",
      "outputs": [
        {
          "internalType": "uint256",
          "name": "",
          "type": "uint256"
        }
      ],
      "stateMutability": "view",
      "type": "function"
    },
    {
      "inputs": [
        {
          "internalType": "address",
          "name": "_address",
          "type": "address"
        }
      ],
      "name": "isValidator",
      "outputs": [
        {
          "internalType": "bool",
          "name": "",
          "type": "bool"
        }
      ],
      "stateMutability": "view",
      "type": "function"
    },
    {
      "inputs": [
        {
          "internalType": "uint256",
          "name": "blockNumber",
          "type": "uint256"
        }
      ],
      "name": "setBlockNumber",
      "outputs": [],
      "stateMutability": "nonpayable",
      "type": "function"
    },
    {
      "inputs": [
        {
          "internalType": "uint256",
          "name": "index",
          "type": "uint256"
        },
        {
          "internalType": "bytes",
          "name": "signature",
          "type": "bytes"
        },
        {
          "internalType": "uint256",
          "name": "ethAmount",
          "type": "uint256"
        }
      ],
      "name": "addSignature",
      "outputs": [],
      "stateMutability": "nonpayable",
      "type": "function"
    },
    {
      "inputs": [
        {
          "internalType": "uint256",
          "name": "index",
          "type": "uint256"
        }
      ],
      "name": "getSignature",
      "outputs": [
        {
          "internalType": "bytes",
          "name": "",
          "type": "bytes"
        }
      ],
      "stateMutability": "view",
      "type": "function"
    },
    {
      "inputs": [
        {
          "internalType": "uint256",
          "name": "index",
          "type": "uint256"
        }
      ],
      "name": "getSignatureEthAmount",
      "outputs": [
        {
          "internalType": "uint256",
          "name": "",
          "type": "uint256"
        }
      ],
      "stateMutability": "view",
      "type": "function"
    }
  ],
  "bytecode": "0x60806040523480156200001157600080fd5b5060405162001998380380620019988339818101604052810190620000379190620002c5565b336000806101000a81548173ffffffffffffffffffffffffffffffffffffffff021916908373ffffffffffffffffffffffffffffffffffffffff16021790555080600160006101000a81548173ffffffffffffffffffffffffffffffffffffffff021916908373ffffffffffffffffffffffffffffffffffffffff160217905550600073ffffffffffffffffffffffffffffffffffffffff16600160009054906101000a900473ffffffffffffffffffffffffffffffffffffffff1673ffffffffffffffffffffffffffffffffffffffff16036200014c576040517f08c379a000000000000000000000000000000000000000000000000000000000815260040162000143906200037e565b60405180910390fd5b600160009054906101000a900473ffffffffffffffffffffffffffffffffffffffff1673ffffffffffffffffffffffffffffffffffffffff1663c9b9da956040518163ffffffff1660e01b8152600401600060405180830381600087803b158015620001b757600080fd5b505af1158015620001cc573d6000803e3d6000fd5b50505050600160009054906101000a900473ffffffffffffffffffffffffffffffffffffffff1673ffffffffffffffffffffffffffffffffffffffff16633c21bf256040518163ffffffff1660e01b8152600401600060405180830381600087803b1580156200023b57600080fd5b505af115801562000250573d6000803e3d6000fd5b5050505050620003a0565b600080fd5b600073ffffffffffffffffffffffffffffffffffffffff82169050919050565b60006200028d8262000260565b9050919050565b6200029f8162000280565b8114620002ab57600080fd5b50565b600081519050620002bf8162000294565b92915050565b600060208284031215620002de57620002dd6200025b565b5b6000620002ee84828501620002ae565b91505092915050565b600082825260208201905092915050565b7f41646472657373206f662056616c696461746f7220436f6e747261637420697360008201527f206e6f7420736574000000000000000000000000000000000000000000000000602082015250565b600062000366602883620002f7565b9150620003738262000308565b604082019050919050565b60006020820190508181036000830152620003998162000357565b9050919050565b6115e880620003b06000396000f3fe608060405234801561001057600080fd5b506004361061009e5760003560e01c8063b2bdfa7b11610066578063b2bdfa7b1461015c578063ba44f1f91461017a578063c5bacb9614610196578063e785fe52146101c6578063facd743b146101e45761009e565b806302a569e6146100a357806342cbb15c146100d3578063893d20e8146100f15780638be101941461010f578063a8c3c85014610140575b600080fd5b6100bd60048036038101906100b89190610ac4565b610214565b6040516100ca9190610b81565b60405180910390f35b6100db6103ed565b6040516100e89190610bb2565b60405180910390f35b6100f961040e565b6040516101069190610c0e565b60405180910390f35b61012960048036038101906101249190610ac4565b610437565b604051610137929190610c29565b60405180910390f35b61015a60048036038101906101559190610ac4565b6104e3565b005b6101646105c8565b6040516101719190610c0e565b60405180910390f35b610194600480360381019061018f9190610d8e565b6105ec565b005b6101b060048036038101906101ab9190610ac4565b6107bd565b6040516101bd9190610bb2565b60405180910390f35b6101ce61090e565b6040516101db9190610c0e565b60405180910390f35b6101fe60048036038101906101f99190610e29565b610934565b60405161020b9190610e71565b60405180910390f35b6060600160009054906101000a900473ffffffffffffffffffffffffffffffffffffffff1673ffffffffffffffffffffffffffffffffffffffff1663facd743b336040518263ffffffff1660e01b81526004016102719190610c0e565b602060405180830381865afa15801561028e573d6000803e3d6000fd5b505050506040513d601f19601f820116820180604052508101906102b29190610eb8565b80610308575060008054906101000a900473ffffffffffffffffffffffffffffffffffffffff1673ffffffffffffffffffffffffffffffffffffffff163373ffffffffffffffffffffffffffffffffffffffff16145b610347576040517f08c379a000000000000000000000000000000000000000000000000000000000815260040161033e90610f8e565b60405180910390fd5b60036000838152602001908152602001600020600001805461036890610fdd565b80601f016020809104026020016040519081016040528092919081815260200182805461039490610fdd565b80156103e15780601f106103b6576101008083540402835291602001916103e1565b820191906000526020600020905b8154815290600101906020018083116103c457829003601f168201915b50505050509050919050565b60006103f833610934565b1561040757600254905061040b565b4390505b90565b60008060009054906101000a900473ffffffffffffffffffffffffffffffffffffffff16905090565b600360205280600052604060002060009150905080600001805461045a90610fdd565b80601f016020809104026020016040519081016040528092919081815260200182805461048690610fdd565b80156104d35780601f106104a8576101008083540402835291602001916104d3565b820191906000526020600020905b8154815290600101906020018083116104b657829003601f168201915b5050505050908060010154905082565b600160009054906101000a900473ffffffffffffffffffffffffffffffffffffffff1673ffffffffffffffffffffffffffffffffffffffff1663facd743b336040518263ffffffff1660e01b815260040161053e9190610c0e565b602060405180830381865afa15801561055b573d6000803e3d6000fd5b505050506040513d601f19601f8201168201806040525081019061057f9190610eb8565b6105be576040517f08c379a00000000000000000000000000000000000000000000000000000000081526004016105b5906110a6565b60405180910390fd5b8060028190555050565b60008054906101000a900473ffffffffffffffffffffffffffffffffffffffff1681565b600160009054906101000a900473ffffffffffffffffffffffffffffffffffffffff1673ffffffffffffffffffffffffffffffffffffffff1663facd743b336040518263ffffffff1660e01b81526004016106479190610c0e565b602060405180830381865afa158015610664573d6000803e3d6000fd5b505050506040513d601f19601f820116820180604052508101906106889190610eb8565b806106de575060008054906101000a900473ffffffffffffffffffffffffffffffffffffffff1673ffffffffffffffffffffffffffffffffffffffff163373ffffffffffffffffffffffffffffffffffffffff16145b61071d576040517f08c379a00000000000000000000000000000000000000000000000000000000081526004016107149061115e565b60405180910390fd5b6000831015801561072e5750600583105b61076d576040517f08c379a0000000000000000000000000000000000000000000000000000000008152600401610764906111f0565b60405180910390fd5b6040518060400160405280838152602001828152506003600085815260200190815260200160002060008201518160000190816107aa91906113bc565b5060208201518160010155905050505050565b6000600160009054906101000a900473ffffffffffffffffffffffffffffffffffffffff1673ffffffffffffffffffffffffffffffffffffffff1663facd743b336040518263ffffffff1660e01b815260040161081a9190610c0e565b602060405180830381865afa158015610837573d6000803e3d6000fd5b505050506040513d601f19601f8201168201806040525081019061085b9190610eb8565b806108b1575060008054906101000a900473ffffffffffffffffffffffffffffffffffffffff1673ffffffffffffffffffffffffffffffffffffffff163373ffffffffffffffffffffffffffffffffffffffff16145b6108f0576040517f08c379a00000000000000000000000000000000000000000000000000000000081526004016108e790611526565b60405180910390fd5b60036000838152602001908152602001600020600101549050919050565b600160009054906101000a900473ffffffffffffffffffffffffffffffffffffffff1681565b60008073ffffffffffffffffffffffffffffffffffffffff16600160009054906101000a900473ffffffffffffffffffffffffffffffffffffffff1673ffffffffffffffffffffffffffffffffffffffff16036109c6576040517f08c379a00000000000000000000000000000000000000000000000000000000081526004016109bd90611592565b60405180910390fd5b600160009054906101000a900473ffffffffffffffffffffffffffffffffffffffff1673ffffffffffffffffffffffffffffffffffffffff1663facd743b836040518263ffffffff1660e01b8152600401610a219190610c0e565b602060405180830381865afa158015610a3e573d6000803e3d6000fd5b505050506040513d601f19601f82011682018060405250810190610a629190610eb8565b15610a705760019050610a75565b600090505b919050565b6000604051905090565b600080fd5b600080fd5b6000819050919050565b610aa181610a8e565b8114610aac57600080fd5b50565b600081359050610abe81610a98565b92915050565b600060208284031215610ada57610ad9610a84565b5b6000610ae884828501610aaf565b91505092915050565b600081519050919050565b600082825260208201905092915050565b60005b83811015610b2b578082015181840152602081019050610b10565b60008484015250505050565b6000601f19601f8301169050919050565b6000610b5382610af1565b610b5d8185610afc565b9350610b6d818560208601610b0d565b610b7681610b37565b840191505092915050565b60006020820190508181036000830152610b9b8184610b48565b905092915050565b610bac81610a8e565b82525050565b6000602082019050610bc76000830184610ba3565b92915050565b600073ffffffffffffffffffffffffffffffffffffffff82169050919050565b6000610bf882610bcd565b9050919050565b610c0881610bed565b82525050565b6000602082019050610c236000830184610bff565b92915050565b60006040820190508181036000830152610c438185610b48565b9050610c526020830184610ba3565b9392505050565b600080fd5b600080fd5b7f4e487b7100000000000000000000000000000000000000000000000000000000600052604160045260246000fd5b610c9b82610b37565b810181811067ffffffffffffffff82111715610cba57610cb9610c63565b5b80604052505050565b6000610ccd610a7a565b9050610cd98282610c92565b919050565b600067ffffffffffffffff821115610cf957610cf8610c63565b5b610d0282610b37565b9050602081019050919050565b82818337600083830152505050565b6000610d31610d2c84610cde565b610cc3565b905082815260208101848484011115610d4d57610d4c610c5e565b5b610d58848285610d0f565b509392505050565b600082601f830112610d7557610d74610c59565b5b8135610d85848260208601610d1e565b91505092915050565b600080600060608486031215610da757610da6610a84565b5b6000610db586828701610aaf565b935050602084013567ffffffffffffffff811115610dd657610dd5610a89565b5b610de286828701610d60565b9250506040610df386828701610aaf565b9150509250925092565b610e0681610bed565b8114610e1157600080fd5b50565b600081359050610e2381610dfd565b92915050565b600060208284031215610e3f57610e3e610a84565b5b6000610e4d84828501610e14565b91505092915050565b60008115159050919050565b610e6b81610e56565b82525050565b6000602082019050610e866000830184610e62565b92915050565b610e9581610e56565b8114610ea057600080fd5b50565b600081519050610eb281610e8c565b92915050565b600060208284031215610ece57610ecd610a84565b5b6000610edc84828501610ea3565b91505092915050565b600082825260208201905092915050565b7f4261736541737369676e6d656e743a206765745369676e61747572653a204f6e60008201527f6c792076616c696461746f72206f72206f776e65722063616e2063616c6c207460208201527f6869732066756e6374696f6e0000000000000000000000000000000000000000604082015250565b6000610f78604c83610ee5565b9150610f8382610ef6565b606082019050919050565b60006020820190508181036000830152610fa781610f6b565b9050919050565b7f4e487b7100000000000000000000000000000000000000000000000000000000600052602260045260246000fd5b60006002820490506001821680610ff557607f821691505b60208210810361100857611007610fae565b5b50919050565b7f4261736541737369676e6d656e743a20736574426c6f636b4e756d6265723a2060008201527f4f6e6c792076616c696461746f722063616e2063616c6c20746869732066756e60208201527f6374696f6e000000000000000000000000000000000000000000000000000000604082015250565b6000611090604583610ee5565b915061109b8261100e565b606082019050919050565b600060208201905081810360008301526110bf81611083565b9050919050565b7f4261736541737369676e6d656e743a206164645369676e61747572653a204f6e60008201527f6c792076616c696461746f72206f72206f776e65722063616e2063616c6c207460208201527f6869732066756e6374696f6e0000000000000000000000000000000000000000604082015250565b6000611148604c83610ee5565b9150611153826110c6565b606082019050919050565b600060208201905081810360008301526111778161113b565b9050919050565b7f496e646578206f7574206f662072616e67652e204f6e6c792035207369676e6160008201527f747572657320616c6c6f7765642028696e646578203020746f20342900000000602082015250565b60006111da603c83610ee5565b91506111e58261117e565b604082019050919050565b60006020820190508181036000830152611209816111cd565b9050919050565b60008190508160005260206000209050919050565b60006020601f8301049050919050565b600082821b905092915050565b6000600883026112727fffffffffffffffffffffffffffffffffffffffffffffffffffffffffffffffff82611235565b61127c8683611235565b95508019841693508086168417925050509392505050565b6000819050919050565b60006112b96112b46112af84610a8e565b611294565b610a8e565b9050919050565b6000819050919050565b6112d38361129e565b6112e76112df826112c0565b848454611242565b825550505050565b600090565b6112fc6112ef565b6113078184846112ca565b505050565b5b8181101561132b576113206000826112f4565b60018101905061130d565b5050565b601f8211156113705761134181611210565b61134a84611225565b81016020851015611359578190505b61136d61136585611225565b83018261130c565b50505b505050565b600082821c905092915050565b600061139360001984600802611375565b1980831691505092915050565b60006113ac8383611382565b9150826002028217905092915050565b6113c582610af1565b67ffffffffffffffff8111156113de576113dd610c63565b5b6113e88254610fdd565b6113f382828561132f565b600060209050601f8311600181146114265760008415611414578287015190505b61141e85826113a0565b865550611486565b601f19841661143486611210565b60005b8281101561145c57848901518255600182019150602085019450602081019050611437565b868310156114795784890151611475601f891682611382565b8355505b6001600288020188555050505b505050505050565b7f4261736541737369676e6d656e743a206765745369676e61747572654574684160008201527f6d6f756e743a204f6e6c792076616c696461746f72206f72206f776e6572206360208201527f616e2063616c6c20746869732066756e6374696f6e0000000000000000000000604082015250565b6000611510605583610ee5565b915061151b8261148e565b606082019050919050565b6000602082019050818103600083015261153f81611503565b9050919050565b7f56616c696461746f722061646472657373206973206e6f742073657400000000600082015250565b600061157c601c83610ee5565b915061158782611546565b602082019050919050565b600060208201905081810360008301526115ab8161156f565b905091905056fea26469706673582212200648b221b32e8016d8d7b79f70ccbc7fb0018e72ad6a763564151605081af62464736f6c63430008110033",
  "immutableReferences": {},
  "source": "// SPDX-License-Identifier: MIT\r\npragma solidity ^0.8.17;\r\n\r\nimport \"../BaseValidator.sol\";\r\n\r\n/*=============================================\r\n=                 BaseAssignment                 =\r\n=============================================*/\r\n\r\ncontract BaseAssignment {\r\n    // METADATA STORAGE\r\n    address public _owner; // Owner of the contract\r\n    address public _validator; // Address of the validator\r\n\r\n    // IGNORE\r\n    uint256 private _testBlockNumber; // For test purposes\r\n\r\n    constructor(address validator) {\r\n        _owner = msg.sender;\r\n        _validator = validator;\r\n\r\n        // Make sure that the validator address is not default\r\n        require(\r\n            _validator != address(0),\r\n            \"Address of Validator Contract is not set\"\r\n        );\r\n\r\n        // Register contract in validator\r\n        BaseValidator(_validator).setAssignmentCreationBlockNumber();\r\n        BaseValidator(_validator).setAssignmentOwner();\r\n    }\r\n\r\n    // Get owner of the contract\r\n    function getOwner() public view returns (address) {\r\n        return _owner;\r\n    }\r\n\r\n    // Get the current block number (for test purposes)\r\n    function getBlockNumber() public view returns (uint256) {\r\n        if (isValidator(msg.sender)) return _testBlockNumber;\r\n        else return block.number;\r\n    }\r\n\r\n    // return if the current tester is a validator\r\n    function isValidator(address _address) public view returns (bool) {\r\n        require(_validator != address(0), \"Validator address is not set\");\r\n\r\n        if (BaseValidator(_validator).isValidator(_address)) return true;\r\n        else return false;\r\n    }\r\n\r\n    // Set the \"current\" block number (for test purposes)\r\n    function setBlockNumber(uint256 blockNumber) public {\r\n        require(\r\n            BaseValidator(_validator).isValidator(msg.sender),\r\n            \"BaseAssignment: setBlockNumber: Only validator can call this function\"\r\n        );\r\n\r\n        _testBlockNumber = blockNumber;\r\n    }\r\n\r\n    // SPECIAL FUNCTIONS FOR ASSIGNMENT 4 (STATE CHANNEL)\r\n\r\n    struct Signature {\r\n        bytes signature;\r\n        uint256 ethAmount;\r\n    }\r\n\r\n    mapping(uint256 => Signature) public signatures;\r\n\r\n    function addSignature(\r\n        uint256 index,\r\n        bytes memory signature,\r\n        uint256 ethAmount\r\n    ) public {\r\n        require(\r\n            BaseValidator(_validator).isValidator(msg.sender) ||\r\n                msg.sender == _owner,\r\n            \"BaseAssignment: addSignature: Only validator or owner can call this function\"\r\n        );\r\n\r\n        require(\r\n            index >= 0 && index < 5,\r\n            \"Index out of range. Only 5 signatures allowed (index 0 to 4)\"\r\n        );\r\n\r\n        signatures[index] = Signature(signature, ethAmount);\r\n    }\r\n\r\n    function getSignature(uint256 index) public view returns (bytes memory) {\r\n        require(\r\n            BaseValidator(_validator).isValidator(msg.sender) ||\r\n                msg.sender == _owner,\r\n            \"BaseAssignment: getSignature: Only validator or owner can call this function\"\r\n        );\r\n\r\n        return signatures[index].signature;\r\n    }\r\n\r\n    function getSignatureEthAmount(uint256 index)\r\n        public\r\n        view\r\n        returns (uint256)\r\n    {\r\n        require(\r\n            BaseValidator(_validator).isValidator(msg.sender) ||\r\n                msg.sender == _owner,\r\n            \"BaseAssignment: getSignatureEthAmount: Only validator or owner can call this function\"\r\n        );\r\n\r\n        return signatures[index].ethAmount;\r\n    }\r\n}\r\n\r\n/*=====       End of BaseAssignment        ======*/\r\n",
  "sourcePath": "C:\\Users\\jonas\\Repos\\mtp-blockchain\\smart-contracts\\contracts\\example\\BaseAssignment.sol",
  "compiler": {
    "name": "solc",
    "version": "0.8.17+commit.8df45f5f.Emscripten.clang"
  },
  "schemaVersion": "3.4.11",
  "updatedAt": "2023-02-01T15:34:30.502Z",
  "devdoc": {
    "kind": "dev",
    "methods": {},
    "version": 1
  },
  "userdoc": {
    "kind": "user",
    "methods": {},
    "version": 1
  }
}