{
  "contractName": "BaseConfig",
  "abi": [
    {
      "inputs": [
        {
          "internalType": "address",
          "name": "_configContractAddress",
          "type": "address"
        },
        {
          "internalType": "string",
          "name": "_contractName",
          "type": "string"
        }
      ],
      "name": "initAdmin",
      "outputs": [],
      "stateMutability": "nonpayable",
      "type": "function"
    },
    {
      "inputs": [],
      "name": "getConfigStorage",
      "outputs": [
        {
          "internalType": "contract ConfigStorage",
          "name": "",
          "type": "address"
        }
      ],
      "stateMutability": "view",
      "type": "function"
    },
    {
      "inputs": [
        {
          "internalType": "address payable",
          "name": "_to",
          "type": "address"
        },
        {
          "internalType": "uint256",
          "name": "_value",
          "type": "uint256"
        }
      ],
      "name": "withdrawFunds",
      "outputs": [],
      "stateMutability": "payable",
      "type": "function"
    }
  ],
  "bytecode": "0x608060405234801561001057600080fd5b50610c7f806100206000396000f3fe6080604052600436106100345760003560e01c8063516cbbe214610039578063c107532914610064578063fae45fbe14610080575b600080fd5b34801561004557600080fd5b5061004e6100a9565b60405161005b919061055e565b60405180910390f35b61007e60048036038101906100799190610601565b6100d2565b005b34801561008c57600080fd5b506100a760048036038101906100a291906107c5565b610421565b005b60008060009054906101000a900473ffffffffffffffffffffffffffffffffffffffff16905090565b6100da6100a9565b73ffffffffffffffffffffffffffffffffffffffff166324d7806c336040518263ffffffff1660e01b81526004016101129190610830565b602060405180830381865afa15801561012f573d6000803e3d6000fd5b505050506040513d601f19601f820116820180604052508101906101539190610883565b610192576040517f08c379a000000000000000000000000000000000000000000000000000000000815260040161018990610933565b60405180910390fd5b600073ffffffffffffffffffffffffffffffffffffffff168273ffffffffffffffffffffffffffffffffffffffff1603610201576040517f08c379a00000000000000000000000000000000000000000000000000000000081526004016101f89061099f565b60405180910390fd5b3373ffffffffffffffffffffffffffffffffffffffff168273ffffffffffffffffffffffffffffffffffffffff16148061026657503273ffffffffffffffffffffffffffffffffffffffff168273ffffffffffffffffffffffffffffffffffffffff16145b806102ee57506102746100a9565b73ffffffffffffffffffffffffffffffffffffffff166324d7806c836040518263ffffffff1660e01b81526004016102ac91906109e0565b602060405180830381865afa1580156102c9573d6000803e3d6000fd5b505050506040513d601f19601f820116820180604052508101906102ed9190610883565b5b61032d576040517f08c379a000000000000000000000000000000000000000000000000000000000815260040161032490610a6d565b60405180910390fd5b47811015610370576040517f08c379a000000000000000000000000000000000000000000000000000000000815260040161036790610ad9565b60405180910390fd5b60008273ffffffffffffffffffffffffffffffffffffffff168260405161039690610b2a565b60006040518083038185875af1925050503d80600081146103d3576040519150601f19603f3d011682016040523d82523d6000602084013e6103d8565b606091505b505090508061041c576040517f08c379a000000000000000000000000000000000000000000000000000000000815260040161041390610b8b565b60405180910390fd5b505050565b816000806101000a81548173ffffffffffffffffffffffffffffffffffffffff021916908373ffffffffffffffffffffffffffffffffffffffff160217905550600061046b6100a9565b90508073ffffffffffffffffffffffffffffffffffffffff16637fb99b9330846040518363ffffffff1660e01b81526004016104a8929190610c19565b600060405180830381600087803b1580156104c257600080fd5b505af11580156104d6573d6000803e3d6000fd5b50505050505050565b600073ffffffffffffffffffffffffffffffffffffffff82169050919050565b6000819050919050565b600061052461051f61051a846104df565b6104ff565b6104df565b9050919050565b600061053682610509565b9050919050565b60006105488261052b565b9050919050565b6105588161053d565b82525050565b6000602082019050610573600083018461054f565b92915050565b6000604051905090565b600080fd5b600080fd5b6000610598826104df565b9050919050565b6105a88161058d565b81146105b357600080fd5b50565b6000813590506105c58161059f565b92915050565b6000819050919050565b6105de816105cb565b81146105e957600080fd5b50565b6000813590506105fb816105d5565b92915050565b6000806040838503121561061857610617610583565b5b6000610626858286016105b6565b9250506020610637858286016105ec565b9150509250929050565b600061064c826104df565b9050919050565b61065c81610641565b811461066757600080fd5b50565b60008135905061067981610653565b92915050565b600080fd5b600080fd5b6000601f19601f8301169050919050565b7f4e487b7100000000000000000000000000000000000000000000000000000000600052604160045260246000fd5b6106d282610689565b810181811067ffffffffffffffff821117156106f1576106f061069a565b5b80604052505050565b6000610704610579565b905061071082826106c9565b919050565b600067ffffffffffffffff8211156107305761072f61069a565b5b61073982610689565b9050602081019050919050565b82818337600083830152505050565b600061076861076384610715565b6106fa565b90508281526020810184848401111561078457610783610684565b5b61078f848285610746565b509392505050565b600082601f8301126107ac576107ab61067f565b5b81356107bc848260208601610755565b91505092915050565b600080604083850312156107dc576107db610583565b5b60006107ea8582860161066a565b925050602083013567ffffffffffffffff81111561080b5761080a610588565b5b61081785828601610797565b9150509250929050565b61082a81610641565b82525050565b60006020820190506108456000830184610821565b92915050565b60008115159050919050565b6108608161084b565b811461086b57600080fd5b50565b60008151905061087d81610857565b92915050565b60006020828403121561089957610898610583565b5b60006108a78482850161086e565b91505092915050565b600082825260208201905092915050565b7f4f6e6c7920636f6e74726163742061646d696e2063616e20776974686472617760008201527f2066756e64730000000000000000000000000000000000000000000000000000602082015250565b600061091d6026836108b0565b9150610928826108c1565b604082019050919050565b6000602082019050818103600083015261094c81610910565b9050919050565b7f496e76616c696420616464726573730000000000000000000000000000000000600082015250565b6000610989600f836108b0565b915061099482610953565b602082019050919050565b600060208201905081810360008301526109b88161097c565b9050919050565b60006109ca8261052b565b9050919050565b6109da816109bf565b82525050565b60006020820190506109f560008301846109d1565b92915050565b7f46756e64732063616e206f6e6c792062652077697468647261776e20746f206160008201527f646d696e2c206d73672e73656e646572206f722074782e6f726967696e000000602082015250565b6000610a57603d836108b0565b9150610a62826109fb565b604082019050919050565b60006020820190508181036000830152610a8681610a4a565b9050919050565b7f496e73756666696369656e742066756e64730000000000000000000000000000600082015250565b6000610ac36012836108b0565b9150610ace82610a8d565b602082019050919050565b60006020820190508181036000830152610af281610ab6565b9050919050565b600081905092915050565b50565b6000610b14600083610af9565b9150610b1f82610b04565b600082019050919050565b6000610b3582610b07565b9150819050919050565b7f5472616e73666572206661696c65642e00000000000000000000000000000000600082015250565b6000610b756010836108b0565b9150610b8082610b3f565b602082019050919050565b60006020820190508181036000830152610ba481610b68565b9050919050565b600081519050919050565b60005b83811015610bd4578082015181840152602081019050610bb9565b60008484015250505050565b6000610beb82610bab565b610bf581856108b0565b9350610c05818560208601610bb6565b610c0e81610689565b840191505092915050565b6000604082019050610c2e6000830185610821565b8181036020830152610c408184610be0565b9050939250505056fea26469706673582212206e582f9024b26657a41ebb57867baa00b965268a2489e3d6ec510f72ed70fcc864736f6c63430008130033",
  "immutableReferences": {},
  "source": "// SPDX-License-Identifier: MIT\r\npragma solidity ^0.8.17;\r\n\r\n/*=============================================\r\n=                 Base Config                 =\r\n=============================================*/\r\n\r\nimport \"./ConfigStorage.sol\";\r\n\r\ncontract BaseConfig {\r\n    address private configContractAddress;\r\n\r\n    function initAdmin(\r\n        address _configContractAddress,\r\n        string memory _contractName\r\n    ) public {\r\n        configContractAddress = _configContractAddress;\r\n\r\n        ConfigStorage configContact = getConfigStorage();\r\n        configContact.addContractAdmin(address(this), _contractName);\r\n    }\r\n\r\n    function getConfigStorage() public view returns (ConfigStorage) {\r\n        return ConfigStorage(configContractAddress);\r\n    }\r\n\r\n    function withdrawFunds(address payable _to, uint256 _value) public payable {\r\n        require(\r\n            getConfigStorage().isAdmin(msg.sender),\r\n            \"Only contract admin can withdraw funds\"\r\n        );\r\n\r\n        require(_to != address(0), \"Invalid address\");\r\n\r\n        require(\r\n            _to == msg.sender ||\r\n                _to == tx.origin ||\r\n                getConfigStorage().isAdmin(_to),\r\n            \"Funds can only be withdrawn to admin, msg.sender or tx.origin\"\r\n        );\r\n\r\n        require(_value >= address(this).balance, \"Insufficient funds\");\r\n\r\n        (bool success, ) = _to.call{value: _value}(\"\");\r\n        require(success, \"Transfer failed.\");\r\n    }\r\n}\r\n\r\n/*=====            End of Admin        ======*/\r\n",
  "sourcePath": "C:\\Users\\stefa\\www\\mtp-blockchain\\smart-contracts\\contracts\\BaseConfig.sol",
  "compiler": {
    "name": "solc",
    "version": "0.8.19+commit.7dd6d404.Emscripten.clang"
  },
  "schemaVersion": "3.4.11",
  "updatedAt": "2023-02-24T09:41:34.842Z",
  "devdoc": {
    "kind": "dev",
    "methods": {},
    "version": 1
  },
  "userdoc": {
    "kind": "user",
    "methods": {},
    "version": 1
  }
}