{
  "contractName": "BaseConfigAdmin",
  "abi": [
    {
      "inputs": [
        {
          "internalType": "string",
          "name": "contractName",
          "type": "string"
        }
      ],
      "stateMutability": "nonpayable",
      "type": "constructor"
    },
    {
      "inputs": [],
      "name": "requireMsgSenderAdmin",
      "outputs": [
        {
          "internalType": "bool",
          "name": "",
          "type": "bool"
        }
      ],
      "stateMutability": "view",
      "type": "function"
    },
    {
      "inputs": [],
      "name": "requireOriginAdmin",
      "outputs": [
        {
          "internalType": "bool",
          "name": "",
          "type": "bool"
        }
      ],
      "stateMutability": "view",
      "type": "function"
    },
    {
      "inputs": [
        {
          "internalType": "address",
          "name": "possibleAdmin",
          "type": "address"
        }
      ],
      "name": "requireAdmin",
      "outputs": [
        {
          "internalType": "bool",
          "name": "",
          "type": "bool"
        }
      ],
      "stateMutability": "view",
      "type": "function"
    },
    {
      "inputs": [
        {
          "internalType": "address",
          "name": "possibleUserAdmin",
          "type": "address"
        }
      ],
      "name": "requireUserAdmin",
      "outputs": [
        {
          "internalType": "bool",
          "name": "",
          "type": "bool"
        }
      ],
      "stateMutability": "view",
      "type": "function"
    },
    {
      "inputs": [
        {
          "internalType": "address",
          "name": "possibleContractAdmin",
          "type": "address"
        }
      ],
      "name": "requireContractAdmin",
      "outputs": [
        {
          "internalType": "bool",
          "name": "",
          "type": "bool"
        }
      ],
      "stateMutability": "view",
      "type": "function"
    },
    {
      "inputs": [
        {
          "internalType": "address",
          "name": "possibleUserAdmin",
          "type": "address"
        }
      ],
      "name": "isUserAdmin",
      "outputs": [
        {
          "internalType": "bool",
          "name": "",
          "type": "bool"
        }
      ],
      "stateMutability": "view",
      "type": "function"
    },
    {
      "inputs": [
        {
          "internalType": "address",
          "name": "possibleContractAdmin",
          "type": "address"
        }
      ],
      "name": "isContractAdmin",
      "outputs": [
        {
          "internalType": "bool",
          "name": "",
          "type": "bool"
        }
      ],
      "stateMutability": "view",
      "type": "function"
    },
    {
      "inputs": [
        {
          "internalType": "address",
          "name": "possibleAdmin",
          "type": "address"
        }
      ],
      "name": "isAdmin",
      "outputs": [
        {
          "internalType": "bool",
          "name": "",
          "type": "bool"
        }
      ],
      "stateMutability": "view",
      "type": "function"
    },
    {
      "inputs": [
        {
          "internalType": "address",
          "name": "userAdmin",
          "type": "address"
        }
      ],
      "name": "addUserAdmin",
      "outputs": [],
      "stateMutability": "nonpayable",
      "type": "function"
    },
    {
      "inputs": [
        {
          "internalType": "address",
          "name": "contractAdmin",
          "type": "address"
        },
        {
          "internalType": "string",
          "name": "contractName",
          "type": "string"
        }
      ],
      "name": "addContractAdmin",
      "outputs": [],
      "stateMutability": "nonpayable",
      "type": "function"
    },
    {
      "inputs": [
        {
          "internalType": "address",
          "name": "userAdmin",
          "type": "address"
        }
      ],
      "name": "removeUserAdmin",
      "outputs": [],
      "stateMutability": "nonpayable",
      "type": "function"
    },
    {
      "inputs": [
        {
          "internalType": "address",
          "name": "contractAdmin",
          "type": "address"
        }
      ],
      "name": "removeContractAdmin",
      "outputs": [],
      "stateMutability": "nonpayable",
      "type": "function"
    },
    {
      "inputs": [],
      "name": "getUserAdmins",
      "outputs": [
        {
          "internalType": "address[]",
          "name": "",
          "type": "address[]"
        }
      ],
      "stateMutability": "view",
      "type": "function"
    },
    {
      "inputs": [],
      "name": "getContractAdminAddresses",
      "outputs": [
        {
          "internalType": "address[]",
          "name": "",
          "type": "address[]"
        }
      ],
      "stateMutability": "view",
      "type": "function"
    },
    {
      "inputs": [],
      "name": "getContractAdmins",
      "outputs": [
        {
          "components": [
            {
              "internalType": "string",
              "name": "contractName",
              "type": "string"
            },
            {
              "internalType": "address",
              "name": "contractAddress",
              "type": "address"
            },
            {
              "internalType": "bool",
              "name": "isContractAdmin",
              "type": "bool"
            }
          ],
          "internalType": "struct BaseConfigAdmin.ContractAdmin[]",
          "name": "",
          "type": "tuple[]"
        }
      ],
      "stateMutability": "view",
      "type": "function"
    },
    {
      "inputs": [],
      "name": "getUserAdminsLength",
      "outputs": [
        {
          "internalType": "uint256",
          "name": "",
          "type": "uint256"
        }
      ],
      "stateMutability": "view",
      "type": "function"
    },
    {
      "inputs": [],
      "name": "getContractAdminsLength",
      "outputs": [
        {
          "internalType": "uint256",
          "name": "",
          "type": "uint256"
        }
      ],
      "stateMutability": "view",
      "type": "function"
    }
  ],
  "bytecode": "0x60806040523480156200001157600080fd5b50604051620020ec380380620020ec833981810160405281019062000037919062000314565b6000339080600181540180825580915050600190039060005260206000200160009091909190916101000a81548173ffffffffffffffffffffffffffffffffffffffff021916908373ffffffffffffffffffffffffffffffffffffffff160217905550600160405180606001604052808381526020013073ffffffffffffffffffffffffffffffffffffffff1681526020016001151581525090806001815401808255809150506001900390600052602060002090600202016000909190919091506000820151816000019081620001109190620005b0565b5060208201518160010160006101000a81548173ffffffffffffffffffffffffffffffffffffffff021916908373ffffffffffffffffffffffffffffffffffffffff16021790555060408201518160010160146101000a81548160ff02191690831515021790555050505062000697565b6000604051905090565b600080fd5b600080fd5b600080fd5b600080fd5b6000601f19601f8301169050919050565b7f4e487b7100000000000000000000000000000000000000000000000000000000600052604160045260246000fd5b620001ea826200019f565b810181811067ffffffffffffffff821117156200020c576200020b620001b0565b5b80604052505050565b60006200022162000181565b90506200022f8282620001df565b919050565b600067ffffffffffffffff821115620002525762000251620001b0565b5b6200025d826200019f565b9050602081019050919050565b60005b838110156200028a5780820151818401526020810190506200026d565b60008484015250505050565b6000620002ad620002a78462000234565b62000215565b905082815260208101848484011115620002cc57620002cb6200019a565b5b620002d98482856200026a565b509392505050565b600082601f830112620002f957620002f862000195565b5b81516200030b84826020860162000296565b91505092915050565b6000602082840312156200032d576200032c6200018b565b5b600082015167ffffffffffffffff8111156200034e576200034d62000190565b5b6200035c84828501620002e1565b91505092915050565b600081519050919050565b7f4e487b7100000000000000000000000000000000000000000000000000000000600052602260045260246000fd5b60006002820490506001821680620003b857607f821691505b602082108103620003ce57620003cd62000370565b5b50919050565b60008190508160005260206000209050919050565b60006020601f8301049050919050565b600082821b905092915050565b600060088302620004387fffffffffffffffffffffffffffffffffffffffffffffffffffffffffffffffff82620003f9565b620004448683620003f9565b95508019841693508086168417925050509392505050565b6000819050919050565b6000819050919050565b6000620004916200048b62000485846200045c565b62000466565b6200045c565b9050919050565b6000819050919050565b620004ad8362000470565b620004c5620004bc8262000498565b84845462000406565b825550505050565b600090565b620004dc620004cd565b620004e9818484620004a2565b505050565b5b81811015620005115762000505600082620004d2565b600181019050620004ef565b5050565b601f82111562000560576200052a81620003d4565b6200053584620003e9565b8101602085101562000545578190505b6200055d6200055485620003e9565b830182620004ee565b50505b505050565b600082821c905092915050565b6000620005856000198460080262000565565b1980831691505092915050565b6000620005a0838362000572565b9150826002028217905092915050565b620005bb8262000365565b67ffffffffffffffff811115620005d757620005d6620001b0565b5b620005e382546200039f565b620005f082828562000515565b600060209050601f83116001811462000628576000841562000613578287015190505b6200061f858262000592565b8655506200068f565b601f1984166200063886620003d4565b60005b8281101562000662578489015182556001820191506020850194506020810190506200063b565b868310156200068257848901516200067e601f89168262000572565b8355505b6001600288020188555050505b505050505050565b611a4580620006a76000396000f3fe608060405234801561001057600080fd5b506004361061010b5760003560e01c8063b89f9ac1116100a2578063e2390e2811610071578063e2390e28146102a6578063ee6f7512146102d6578063faca1ccc146102f4578063fc81a12a14610312578063fcd441e4146103425761010b565b8063b89f9ac114610232578063ba73818d1461024e578063bc40c9871461026c578063e096cfed1461028a5761010b565b806374d523a8116100de57806374d523a8146101aa5780637fb99b93146101da578063a8ff5f4b146101f6578063ab091f11146102145761010b565b80631389c0d51461011057806324d7806c1461012e5780634743909e1461015e5780635577210a1461017a575b600080fd5b610118610372565b60405161012591906110bd565b60405180910390f35b6101486004803603810190610143919061111f565b6104d4565b604051610155919061115b565b60405180910390f35b6101786004803603810190610173919061111f565b61050e565b005b610194600480360381019061018f919061111f565b61062b565b6040516101a1919061115b565b60405180910390f35b6101c460048036038101906101bf919061111f565b610684565b6040516101d1919061115b565b60405180910390f35b6101f460048036038101906101ef91906112ab565b610732565b005b6101fe610832565b60405161020b919061115b565b60405180910390f35b61021c610853565b6040516102299190611320565b60405180910390f35b61024c6004803603810190610247919061111f565b61085f565b005b6102566108e3565b60405161026391906113ea565b60405180910390f35b6102746109f5565b60405161028191906113ea565b60405180910390f35b6102a4600480360381019061029f919061111f565b610a83565b005b6102c060048036038101906102bb919061111f565b610b66565b6040516102cd919061115b565b60405180910390f35b6102de610c50565b6040516102eb919061115b565b60405180910390f35b6102fc610cbd565b6040516103099190611320565b60405180910390f35b61032c6004803603810190610327919061111f565b610cca565b604051610339919061115b565b60405180910390f35b61035c6004803603810190610357919061111f565b610d7f565b604051610369919061115b565b60405180910390f35b60606001805480602002602001604051908101604052809291908181526020016000905b828210156104cb57838290600052602060002090600202016040518060600160405290816000820180546103c99061143b565b80601f01602080910402602001604051908101604052809291908181526020018280546103f59061143b565b80156104425780601f1061041757610100808354040283529160200191610442565b820191906000526020600020905b81548152906001019060200180831161042557829003601f168201915b505050505081526020016001820160009054906101000a900473ffffffffffffffffffffffffffffffffffffffff1673ffffffffffffffffffffffffffffffffffffffff1673ffffffffffffffffffffffffffffffffffffffff1681526020016001820160149054906101000a900460ff16151515158152505081526020019060010190610396565b50505050905090565b60006104df82610684565b156104ed5760019050610509565b6104f682610cca565b156105045760019050610509565b600090505b919050565b610516610c50565b5060005b600180549050811015610627578173ffffffffffffffffffffffffffffffffffffffff16600182815481106105525761055161146c565b5b906000526020600020906002020160010160009054906101000a900473ffffffffffffffffffffffffffffffffffffffff1673ffffffffffffffffffffffffffffffffffffffff160361061457600181815481106105b3576105b261146c565b5b9060005260206000209060020201600080820160006105d29190610e62565b6001820160006101000a81549073ffffffffffffffffffffffffffffffffffffffff02191690556001820160146101000a81549060ff02191690555050610627565b808061061f906114ca565b91505061051a565b5050565b6000610636826104d4565b15610644576001905061067f565b6040517f08c379a000000000000000000000000000000000000000000000000000000000815260040161067690611595565b60405180910390fd5b919050565b600080600090505b600080549050811015610727578273ffffffffffffffffffffffffffffffffffffffff16600082815481106106c4576106c361146c565b5b9060005260206000200160009054906101000a900473ffffffffffffffffffffffffffffffffffffffff1673ffffffffffffffffffffffffffffffffffffffff160361071457600191505061072d565b808061071f906114ca565b91505061068c565b60009150505b919050565b61073a610c50565b506000151561074883610cca565b15150361082e57600160405180606001604052808381526020018473ffffffffffffffffffffffffffffffffffffffff16815260200160011515815250908060018154018082558091505060019003906000526020600020906002020160009091909190915060008201518160000190816107c39190611761565b5060208201518160010160006101000a81548173ffffffffffffffffffffffffffffffffffffffff021916908373ffffffffffffffffffffffffffffffffffffffff16021790555060408201518160010160146101000a81548160ff02191690831515021790555050505b5050565b600061083d3361062b565b1561084b5760019050610850565b600090505b90565b60008080549050905090565b610867610c50565b506000151561087582610684565b1515036108e0576000819080600181540180825580915050600190039060005260206000200160009091909190916101000a81548173ffffffffffffffffffffffffffffffffffffffff021916908373ffffffffffffffffffffffffffffffffffffffff1602179055505b50565b6060600060018054905067ffffffffffffffff81111561090657610905611180565b5b6040519080825280602002602001820160405280156109345781602001602082028036833780820191505090505b50905060005b6001805490508110156109ed576001818154811061095b5761095a61146c565b5b906000526020600020906002020160010160009054906101000a900473ffffffffffffffffffffffffffffffffffffffff168282815181106109a05761099f61146c565b5b602002602001019073ffffffffffffffffffffffffffffffffffffffff16908173ffffffffffffffffffffffffffffffffffffffff168152505080806109e5906114ca565b91505061093a565b819250505090565b60606000805480602002602001604051908101604052809291908181526020018280548015610a7957602002820191906000526020600020905b8160009054906101000a900473ffffffffffffffffffffffffffffffffffffffff1673ffffffffffffffffffffffffffffffffffffffff1681526020019060010190808311610a2f575b5050505050905090565b610a8b610c50565b5060005b600080549050811015610b62578173ffffffffffffffffffffffffffffffffffffffff1660008281548110610ac757610ac661146c565b5b9060005260206000200160009054906101000a900473ffffffffffffffffffffffffffffffffffffffff1673ffffffffffffffffffffffffffffffffffffffff1603610b4f5760008181548110610b2157610b2061146c565b5b9060005260206000200160006101000a81549073ffffffffffffffffffffffffffffffffffffffff02191690555b8080610b5a906114ca565b915050610a8f565b5050565b600080600090505b600180549050811015610c10578273ffffffffffffffffffffffffffffffffffffffff1660018281548110610ba657610ba561146c565b5b906000526020600020906002020160010160009054906101000a900473ffffffffffffffffffffffffffffffffffffffff1673ffffffffffffffffffffffffffffffffffffffff1603610bfd576001915050610c4b565b8080610c08906114ca565b915050610b6e565b6040517f08c379a0000000000000000000000000000000000000000000000000000000008152600401610c42906118cb565b60405180910390fd5b919050565b6000610c5b3261062b565b15610c695760019050610cba565b610c71610832565b15610c7f5760019050610cba565b6040517f08c379a0000000000000000000000000000000000000000000000000000000008152600401610cb19061195d565b60405180910390fd5b90565b6000600180549050905090565b600080600090505b600180549050811015610d74578273ffffffffffffffffffffffffffffffffffffffff1660018281548110610d0a57610d0961146c565b5b906000526020600020906002020160010160009054906101000a900473ffffffffffffffffffffffffffffffffffffffff1673ffffffffffffffffffffffffffffffffffffffff1603610d61576001915050610d7a565b8080610d6c906114ca565b915050610cd2565b60009150505b919050565b600080600090505b600080549050811015610e22578273ffffffffffffffffffffffffffffffffffffffff1660008281548110610dbf57610dbe61146c565b5b9060005260206000200160009054906101000a900473ffffffffffffffffffffffffffffffffffffffff1673ffffffffffffffffffffffffffffffffffffffff1603610e0f576001915050610e5d565b8080610e1a906114ca565b915050610d87565b6040517f08c379a0000000000000000000000000000000000000000000000000000000008152600401610e54906119ef565b60405180910390fd5b919050565b508054610e6e9061143b565b6000825580601f10610e805750610e9f565b601f016020900490600052602060002090810190610e9e9190610ea2565b5b50565b5b80821115610ebb576000816000905550600101610ea3565b5090565b600081519050919050565b600082825260208201905092915050565b6000819050602082019050919050565b600081519050919050565b600082825260208201905092915050565b60005b83811015610f25578082015181840152602081019050610f0a565b60008484015250505050565b6000601f19601f8301169050919050565b6000610f4d82610eeb565b610f578185610ef6565b9350610f67818560208601610f07565b610f7081610f31565b840191505092915050565b600073ffffffffffffffffffffffffffffffffffffffff82169050919050565b6000610fa682610f7b565b9050919050565b610fb681610f9b565b82525050565b60008115159050919050565b610fd181610fbc565b82525050565b60006060830160008301518482036000860152610ff48282610f42565b91505060208301516110096020860182610fad565b50604083015161101c6040860182610fc8565b508091505092915050565b60006110338383610fd7565b905092915050565b6000602082019050919050565b600061105382610ebf565b61105d8185610eca565b93508360208202850161106f85610edb565b8060005b858110156110ab578484038952815161108c8582611027565b94506110978361103b565b925060208a01995050600181019050611073565b50829750879550505050505092915050565b600060208201905081810360008301526110d78184611048565b905092915050565b6000604051905090565b600080fd5b600080fd5b6110fc81610f9b565b811461110757600080fd5b50565b600081359050611119816110f3565b92915050565b600060208284031215611135576111346110e9565b5b60006111438482850161110a565b91505092915050565b61115581610fbc565b82525050565b6000602082019050611170600083018461114c565b92915050565b600080fd5b600080fd5b7f4e487b7100000000000000000000000000000000000000000000000000000000600052604160045260246000fd5b6111b882610f31565b810181811067ffffffffffffffff821117156111d7576111d6611180565b5b80604052505050565b60006111ea6110df565b90506111f682826111af565b919050565b600067ffffffffffffffff82111561121657611215611180565b5b61121f82610f31565b9050602081019050919050565b82818337600083830152505050565b600061124e611249846111fb565b6111e0565b90508281526020810184848401111561126a5761126961117b565b5b61127584828561122c565b509392505050565b600082601f83011261129257611291611176565b5b81356112a284826020860161123b565b91505092915050565b600080604083850312156112c2576112c16110e9565b5b60006112d08582860161110a565b925050602083013567ffffffffffffffff8111156112f1576112f06110ee565b5b6112fd8582860161127d565b9150509250929050565b6000819050919050565b61131a81611307565b82525050565b60006020820190506113356000830184611311565b92915050565b600081519050919050565b600082825260208201905092915050565b6000819050602082019050919050565b60006113738383610fad565b60208301905092915050565b6000602082019050919050565b60006113978261133b565b6113a18185611346565b93506113ac83611357565b8060005b838110156113dd5781516113c48882611367565b97506113cf8361137f565b9250506001810190506113b0565b5085935050505092915050565b60006020820190508181036000830152611404818461138c565b905092915050565b7f4e487b7100000000000000000000000000000000000000000000000000000000600052602260045260246000fd5b6000600282049050600182168061145357607f821691505b6020821081036114665761146561140c565b5b50919050565b7f4e487b7100000000000000000000000000000000000000000000000000000000600052603260045260246000fd5b7f4e487b7100000000000000000000000000000000000000000000000000000000600052601160045260246000fd5b60006114d582611307565b91507fffffffffffffffffffffffffffffffffffffffffffffffffffffffffffffffff82036115075761150661149b565b5b600182019050919050565b600082825260208201905092915050565b7f41646472657373206973206e65697468657220616e2075736572206e6f72206160008201527f6e20636f6e74726163742061646d696e21000000000000000000000000000000602082015250565b600061157f603183611512565b915061158a82611523565b604082019050919050565b600060208201905081810360008301526115ae81611572565b9050919050565b60008190508160005260206000209050919050565b60006020601f8301049050919050565b600082821b905092915050565b6000600883026116177fffffffffffffffffffffffffffffffffffffffffffffffffffffffffffffffff826115da565b61162186836115da565b95508019841693508086168417925050509392505050565b6000819050919050565b600061165e61165961165484611307565b611639565b611307565b9050919050565b6000819050919050565b61167883611643565b61168c61168482611665565b8484546115e7565b825550505050565b600090565b6116a1611694565b6116ac81848461166f565b505050565b5b818110156116d0576116c5600082611699565b6001810190506116b2565b5050565b601f821115611715576116e6816115b5565b6116ef846115ca565b810160208510156116fe578190505b61171261170a856115ca565b8301826116b1565b50505b505050565b600082821c905092915050565b60006117386000198460080261171a565b1980831691505092915050565b60006117518383611727565b9150826002028217905092915050565b61176a82610eeb565b67ffffffffffffffff81111561178357611782611180565b5b61178d825461143b565b6117988282856116d4565b600060209050601f8311600181146117cb57600084156117b9578287015190505b6117c38582611745565b86555061182b565b601f1984166117d9866115b5565b60005b82811015611801578489015182556001820191506020850194506020810190506117dc565b8683101561181e578489015161181a601f891682611727565b8355505b6001600288020188555050505b505050505050565b7f41646472657373206f662074686520736d61727420636f6e747261637420746860008201527f61742063616c6c7320746869732066756e6374696f6e206973206e6f7420616e60208201527f20636f6e74726163742061646d696e2100000000000000000000000000000000604082015250565b60006118b5605083611512565b91506118c082611833565b606082019050919050565b600060208201905081810360008301526118e4816118a8565b9050919050565b7f4f726967696e206f72206d73672e73656e646572206973206e6569746865722060008201527f616e2075736572206e6f7220616e20636f6e74726163742061646d696e210000602082015250565b6000611947603e83611512565b9150611952826118eb565b604082019050919050565b600060208201905081810360008301526119768161193a565b9050919050565b7f4164647265737320746861742063616c6c73207468697320736d61727420636f60008201527f6e74726163742066756e6374696f6e206973206e6f7420616e2061646d696e21602082015250565b60006119d9604083611512565b91506119e48261197d565b604082019050919050565b60006020820190508181036000830152611a08816119cc565b905091905056fea26469706673582212201f561b7f45dc264823a1ae5bf3a6269b68593270e04ed9f8ab9c76c56e65272a64736f6c63430008130033",
  "immutableReferences": {},
  "source": "// SPDX-License-Identifier: MIT\r\npragma solidity ^0.8.17;\r\n\r\n/*=============================================\r\n=                     Admin                   =\r\n=============================================*/\r\n\r\ncontract BaseConfigAdmin {\r\n    // Address of user admin (e.g., professor, lecturer, etc.)\r\n    address[] private userAdmins;\r\n\r\n    struct ContractAdmin {\r\n        string contractName; // Name of contract\r\n        address contractAddress; // Address of contract\r\n        bool isContractAdmin; // Is contract admin\r\n    }\r\n\r\n    // Address of contract admins (e.g., validator contract, etc.)\r\n    ContractAdmin[] private contractAdmins;\r\n\r\n    constructor(string memory contractName) {\r\n        // Add current msg.sender as admin\r\n        userAdmins.push(msg.sender);\r\n\r\n        // Add current contract address(this) as contract admin\r\n        contractAdmins.push(ContractAdmin(contractName, address(this), true));\r\n    }\r\n\r\n    // Require that msg.sender is either contract or user admin\r\n    function requireMsgSenderAdmin() public view returns (bool) {\r\n        if (requireAdmin(msg.sender)) return true;\r\n        else return false;\r\n    }\r\n\r\n    function requireOriginAdmin() public view returns (bool) {\r\n        if (requireAdmin(tx.origin)) return true;\r\n        if (requireMsgSenderAdmin()) return true;\r\n\r\n        revert(\r\n            \"Origin or msg.sender is neither an user nor an contract admin!\"\r\n        );\r\n    }\r\n\r\n    // Require if address is either user or contract admin > with error handling\r\n    function requireAdmin(address possibleAdmin) public view returns (bool) {\r\n        if (isAdmin(possibleAdmin)) return true;\r\n        else revert(\"Address is neither an user nor an contract admin!\");\r\n    }\r\n\r\n    // Require if address of user is admin > with error handling\r\n    function requireUserAdmin(address possibleUserAdmin)\r\n        public\r\n        view\r\n        returns (bool)\r\n    {\r\n        uint256 i;\r\n\r\n        for (i = 0; i < userAdmins.length; i++) {\r\n            if (userAdmins[i] == possibleUserAdmin) {\r\n                return true;\r\n            }\r\n        }\r\n\r\n        revert(\r\n            \"Address that calls this smart contract function is not an admin!\"\r\n        );\r\n    }\r\n\r\n    // Require if address of contract is admin > with error handling\r\n    function requireContractAdmin(address possibleContractAdmin)\r\n        public\r\n        view\r\n        returns (bool)\r\n    {\r\n        uint256 i;\r\n\r\n        for (i = 0; i < contractAdmins.length; i++) {\r\n            if (contractAdmins[i].contractAddress == possibleContractAdmin) {\r\n                return true;\r\n            }\r\n        }\r\n\r\n        revert(\r\n            \"Address of the smart contract that calls this function is not an contract admin!\"\r\n        );\r\n    }\r\n\r\n    // Check if user is admin\r\n    function isUserAdmin(address possibleUserAdmin) public view returns (bool) {\r\n        uint256 i;\r\n\r\n        for (i = 0; i < userAdmins.length; i++) {\r\n            if (userAdmins[i] == possibleUserAdmin) {\r\n                return true;\r\n            }\r\n        }\r\n\r\n        return false;\r\n    }\r\n\r\n    // Check if contract is admin\r\n    function isContractAdmin(address possibleContractAdmin)\r\n        public\r\n        view\r\n        returns (bool)\r\n    {\r\n        uint256 i;\r\n\r\n        for (i = 0; i < contractAdmins.length; i++) {\r\n            if (contractAdmins[i].contractAddress == possibleContractAdmin) {\r\n                return true;\r\n            }\r\n        }\r\n\r\n        return false;\r\n    }\r\n\r\n    function isAdmin(address possibleAdmin) public view returns (bool) {\r\n        if (isUserAdmin(possibleAdmin)) return true;\r\n        if (isContractAdmin(possibleAdmin)) return true;\r\n\r\n        return false;\r\n    }\r\n\r\n    // Add new admin to list\r\n    function addUserAdmin(address userAdmin) public {\r\n        requireOriginAdmin();\r\n        // Only add user admin if not already in list\r\n        if (isUserAdmin(userAdmin) == false) userAdmins.push(userAdmin);\r\n    }\r\n\r\n    // Add new admin to list\r\n    function addContractAdmin(address contractAdmin, string memory contractName)\r\n        public\r\n    {\r\n        requireOriginAdmin();\r\n        // Only add user admin if not already in list\r\n        if (isContractAdmin(contractAdmin) == false) {\r\n            contractAdmins.push(\r\n                ContractAdmin(contractName, contractAdmin, true)\r\n            );\r\n        }\r\n    }\r\n\r\n    // Remove admin from list\r\n    function removeUserAdmin(address userAdmin) public {\r\n        requireOriginAdmin();\r\n        uint256 i;\r\n\r\n        for (i = 0; i < userAdmins.length; i++) {\r\n            if (userAdmins[i] == userAdmin) {\r\n                delete userAdmins[i];\r\n            }\r\n        }\r\n    }\r\n\r\n    // Remove admin from list\r\n    function removeContractAdmin(address contractAdmin) public {\r\n        requireOriginAdmin();\r\n        uint256 i;\r\n\r\n        for (i = 0; i < contractAdmins.length; i++) {\r\n            if (contractAdmins[i].contractAddress == contractAdmin) {\r\n                delete contractAdmins[i];\r\n                break;\r\n            }\r\n        }\r\n    }\r\n\r\n    // Get list of all userAdmins\r\n    function getUserAdmins() public view returns (address[] memory) {\r\n        return userAdmins;\r\n    }\r\n\r\n    // Get list of all contractAdmins\r\n    function getContractAdminAddresses()\r\n        public\r\n        view\r\n        returns (address[] memory)\r\n    {\r\n        address[] memory adminAdresses = new address[](contractAdmins.length);\r\n\r\n        uint256 i = 0;\r\n\r\n        for (i = 0; i < contractAdmins.length; i++) {\r\n            adminAdresses[i] = contractAdmins[i].contractAddress;\r\n        }\r\n\r\n        return adminAdresses;\r\n    }\r\n\r\n    // Get list of all contractAdmins\r\n    function getContractAdmins() public view returns (ContractAdmin[] memory) {\r\n        return contractAdmins;\r\n    }\r\n\r\n    // Get length of userAdmins\r\n    function getUserAdminsLength() public view returns (uint256) {\r\n        return userAdmins.length;\r\n    }\r\n\r\n    // Get length of contractAdmins\r\n    function getContractAdminsLength() public view returns (uint256) {\r\n        return contractAdmins.length;\r\n    }\r\n}\r\n\r\n/*=====            End of Admin        ======*/\r\n",
  "sourcePath": "C:\\Users\\stefa\\www\\mtp-blockchain\\smart-contracts\\contracts\\BaseConfigAdmin.sol",
  "compiler": {
    "name": "solc",
    "version": "0.8.19+commit.7dd6d404.Emscripten.clang"
  },
  "schemaVersion": "3.4.11",
  "updatedAt": "2023-02-28T09:01:11.140Z",
  "devdoc": {
    "kind": "dev",
    "methods": {},
    "version": 1
  },
  "userdoc": {
    "kind": "user",
    "methods": {},
    "version": 1
  }
}