{
  "contractName": "BaseAdmin",
  "abi": [
    {
      "inputs": [],
      "stateMutability": "nonpayable",
      "type": "constructor"
    },
    {
      "inputs": [
        {
          "internalType": "address",
          "name": "possibleAdmin",
          "type": "address"
        }
      ],
      "name": "requireAdmin",
      "outputs": [
        {
          "internalType": "bool",
          "name": "",
          "type": "bool"
        }
      ],
      "stateMutability": "view",
      "type": "function"
    },
    {
      "inputs": [
        {
          "internalType": "address",
          "name": "possibleAdmin",
          "type": "address"
        }
      ],
      "name": "isAdmin",
      "outputs": [
        {
          "internalType": "bool",
          "name": "",
          "type": "bool"
        }
      ],
      "stateMutability": "view",
      "type": "function"
    },
    {
      "inputs": [
        {
          "internalType": "address",
          "name": "admin",
          "type": "address"
        }
      ],
      "name": "addAdmin",
      "outputs": [],
      "stateMutability": "nonpayable",
      "type": "function"
    },
    {
      "inputs": [
        {
          "internalType": "address",
          "name": "admin",
          "type": "address"
        }
      ],
      "name": "removeAdmin",
      "outputs": [],
      "stateMutability": "nonpayable",
      "type": "function"
    },
    {
      "inputs": [],
      "name": "getAdmins",
      "outputs": [
        {
          "internalType": "address[]",
          "name": "",
          "type": "address[]"
        }
      ],
      "stateMutability": "view",
      "type": "function"
    },
    {
      "inputs": [],
      "name": "getLength",
      "outputs": [
        {
          "internalType": "uint256",
          "name": "",
          "type": "uint256"
        }
      ],
      "stateMutability": "view",
      "type": "function"
    }
  ],
  "bytecode": "0x608060405234801561001057600080fd5b506100203361002560201b60201c565b610204565b60001515610038826100a660201b60201c565b1515036100a3576000819080600181540180825580915050600190039060005260206000200160009091909190916101000a81548173ffffffffffffffffffffffffffffffffffffffff021916908373ffffffffffffffffffffffffffffffffffffffff1602179055505b50565b600080600090505b600080549050811015610149578273ffffffffffffffffffffffffffffffffffffffff16600082815481106100e6576100e5610154565b5b9060005260206000200160009054906101000a900473ffffffffffffffffffffffffffffffffffffffff1673ffffffffffffffffffffffffffffffffffffffff160361013657600191505061014f565b8080610141906101bc565b9150506100ae565b60009150505b919050565b7f4e487b7100000000000000000000000000000000000000000000000000000000600052603260045260246000fd5b7f4e487b7100000000000000000000000000000000000000000000000000000000600052601160045260246000fd5b6000819050919050565b60006101c7826101b2565b91507fffffffffffffffffffffffffffffffffffffffffffffffffffffffffffffffff82036101f9576101f8610183565b5b600182019050919050565b61083a806102136000396000f3fe608060405234801561001057600080fd5b50600436106100625760003560e01c80631785f53c1461006757806324d7806c1461008357806331ae450b146100b35780635577210a146100d15780637048027514610101578063be1c766b1461011d575b600080fd5b610081600480360381019061007c919061051e565b61013b565b005b61009d6004803603810190610098919061051e565b610215565b6040516100aa9190610566565b60405180910390f35b6100bb6102c3565b6040516100c8919061063f565b60405180910390f35b6100eb60048036038101906100e6919061051e565b610351565b6040516100f89190610566565b60405180910390f35b61011b6004803603810190610116919061051e565b610434565b005b6101256104af565b604051610132919061067a565b60405180910390f35b60005b600080549050811015610211578173ffffffffffffffffffffffffffffffffffffffff166000828154811061017657610175610695565b5b9060005260206000200160009054906101000a900473ffffffffffffffffffffffffffffffffffffffff1673ffffffffffffffffffffffffffffffffffffffff16036101fe57600081815481106101d0576101cf610695565b5b9060005260206000200160006101000a81549073ffffffffffffffffffffffffffffffffffffffff02191690555b8080610209906106f3565b91505061013e565b5050565b600080600090505b6000805490508110156102b8578273ffffffffffffffffffffffffffffffffffffffff166000828154811061025557610254610695565b5b9060005260206000200160009054906101000a900473ffffffffffffffffffffffffffffffffffffffff1673ffffffffffffffffffffffffffffffffffffffff16036102a55760019150506102be565b80806102b0906106f3565b91505061021d565b60009150505b919050565b6060600080548060200260200160405190810160405280929190818152602001828054801561034757602002820191906000526020600020905b8160009054906101000a900473ffffffffffffffffffffffffffffffffffffffff1673ffffffffffffffffffffffffffffffffffffffff16815260200190600101908083116102fd575b5050505050905090565b600080600090505b6000805490508110156103f4578273ffffffffffffffffffffffffffffffffffffffff166000828154811061039157610390610695565b5b9060005260206000200160009054906101000a900473ffffffffffffffffffffffffffffffffffffffff1673ffffffffffffffffffffffffffffffffffffffff16036103e157600191505061042f565b80806103ec906106f3565b915050610359565b6040517f08c379a0000000000000000000000000000000000000000000000000000000008152600401610426906107e4565b60405180910390fd5b919050565b6000151561044182610215565b1515036104ac576000819080600181540180825580915050600190039060005260206000200160009091909190916101000a81548173ffffffffffffffffffffffffffffffffffffffff021916908373ffffffffffffffffffffffffffffffffffffffff1602179055505b50565b60008080549050905090565b600080fd5b600073ffffffffffffffffffffffffffffffffffffffff82169050919050565b60006104eb826104c0565b9050919050565b6104fb816104e0565b811461050657600080fd5b50565b600081359050610518816104f2565b92915050565b600060208284031215610534576105336104bb565b5b600061054284828501610509565b91505092915050565b60008115159050919050565b6105608161054b565b82525050565b600060208201905061057b6000830184610557565b92915050565b600081519050919050565b600082825260208201905092915050565b6000819050602082019050919050565b6105b6816104e0565b82525050565b60006105c883836105ad565b60208301905092915050565b6000602082019050919050565b60006105ec82610581565b6105f6818561058c565b93506106018361059d565b8060005b8381101561063257815161061988826105bc565b9750610624836105d4565b925050600181019050610605565b5085935050505092915050565b6000602082019050818103600083015261065981846105e1565b905092915050565b6000819050919050565b61067481610661565b82525050565b600060208201905061068f600083018461066b565b92915050565b7f4e487b7100000000000000000000000000000000000000000000000000000000600052603260045260246000fd5b7f4e487b7100000000000000000000000000000000000000000000000000000000600052601160045260246000fd5b60006106fe82610661565b91507fffffffffffffffffffffffffffffffffffffffffffffffffffffffffffffffff82036107305761072f6106c4565b5b600182019050919050565b600082825260208201905092915050565b7f416464726573732074686174206465706c6f7973207468697320736d6172742060008201527f636f6e7472616374206973206e6f742074686520636f696e626173652061646460208201527f7265737321000000000000000000000000000000000000000000000000000000604082015250565b60006107ce60458361073b565b91506107d98261074c565b606082019050919050565b600060208201905081810360008301526107fd816107c1565b905091905056fea264697066735822122041ba63391bdf65aca46495e0285f30ec25d9f675d2582986e587cc5a1c047d5e64736f6c63430008110033",
  "immutableReferences": {},
  "source": "// SPDX-License-Identifier: MIT\r\npragma solidity ^0.8.17;\r\n\r\n/*=============================================\r\n=                     Admin                   =\r\n=============================================*/\r\n\r\ncontract BaseAdmin {\r\n    // Address of admin\r\n    address[] private admins;\r\n\r\n    constructor() {\r\n        addAdmin(msg.sender);\r\n    }\r\n\r\n    // Require if admin with error handling\r\n    function requireAdmin(address possibleAdmin) public view returns (bool) {\r\n        uint256 i;\r\n\r\n        for (i = 0; i < admins.length; i++) {\r\n            if (admins[i] == possibleAdmin) {\r\n                return true;\r\n            }\r\n        }\r\n\r\n        revert(\r\n            \"Address that deploys this smart contract is not the coinbase address!\"\r\n        );\r\n    }\r\n\r\n    // Check if admin\r\n    function isAdmin(address possibleAdmin) public view returns (bool) {\r\n        uint256 i;\r\n\r\n        for (i = 0; i < admins.length; i++) {\r\n            if (admins[i] == possibleAdmin) {\r\n                return true;\r\n            }\r\n        }\r\n\r\n        return false;\r\n    }\r\n\r\n    // Add new admin to list\r\n    function addAdmin(address admin) public {\r\n        // Only add admin if not already in list\r\n        if (isAdmin(admin) == false) admins.push(admin);\r\n    }\r\n\r\n    // Remove admin from list\r\n    function removeAdmin(address admin) public {\r\n        uint256 i;\r\n\r\n        for (i = 0; i < admins.length; i++) {\r\n            if (admins[i] == admin) {\r\n                delete admins[i];\r\n            }\r\n        }\r\n    }\r\n\r\n    // Get list of all admins\r\n    function getAdmins() public view returns (address[] memory) {\r\n        return admins;\r\n    }\r\n\r\n    // Get list of admins\r\n    function getLength() public view returns (uint256) {\r\n        return admins.length;\r\n    }\r\n}\r\n\r\n/*=====            End of Admin        ======*/\r\n",
  "sourcePath": "C:\\Users\\stefa\\www\\mtp-blockchain\\smart-contracts\\contracts\\BaseAdmin.sol",
  "compiler": {
    "name": "solc",
    "version": "0.8.17+commit.8df45f5f.Emscripten.clang"
  },
  "schemaVersion": "3.4.11",
  "updatedAt": "2023-01-04T11:05:09.520Z",
  "devdoc": {
    "kind": "dev",
    "methods": {},
    "version": 1
  },
  "userdoc": {
    "kind": "user",
    "methods": {},
    "version": 1
  }
}