{
  "contractName": "ConfigStorage",
  "abi": [
    {
      "inputs": [],
      "stateMutability": "nonpayable",
      "type": "constructor"
    },
    {
      "inputs": [],
      "name": "getFaucetGas",
      "outputs": [
        {
          "internalType": "int128",
          "name": "",
          "type": "int128"
        }
      ],
      "stateMutability": "view",
      "type": "function",
      "constant": true
    },
    {
      "inputs": [
        {
          "internalType": "string",
          "name": "key",
          "type": "string"
        }
      ],
      "name": "getIntValue",
      "outputs": [
        {
          "internalType": "int128",
          "name": "",
          "type": "int128"
        }
      ],
      "stateMutability": "view",
      "type": "function",
      "constant": true
    },
    {
      "inputs": [
        {
          "internalType": "string",
          "name": "key",
          "type": "string"
        },
        {
          "internalType": "int128",
          "name": "value",
          "type": "int128"
        }
      ],
      "name": "setIntValue",
      "outputs": [],
      "stateMutability": "nonpayable",
      "type": "function"
    },
    {
      "inputs": [
        {
          "internalType": "string",
          "name": "a",
          "type": "string"
        },
        {
          "internalType": "string",
          "name": "b",
          "type": "string"
        }
      ],
      "name": "compareStrings",
      "outputs": [
        {
          "internalType": "bool",
          "name": "",
          "type": "bool"
        }
      ],
      "stateMutability": "view",
      "type": "function",
      "constant": true
    }
  ],
  "bytecode": "0x608060405234801561001057600080fd5b5033600160006101000a81548173ffffffffffffffffffffffffffffffffffffffff021916908373ffffffffffffffffffffffffffffffffffffffff160217905550600a6000806101000a8154816fffffffffffffffffffffffffffffffff0219169083600f0b6fffffffffffffffffffffffffffffffff160217905550600a600060106101000a8154816fffffffffffffffffffffffffffffffff0219169083600f0b6fffffffffffffffffffffffffffffffff16021790555061070a806100da6000396000f3fe608060405234801561001057600080fd5b506004361061004c5760003560e01c80637615c0dc14610051578063877c21841461006d57806389820ac81461009d578063bed34bba146100bb575b600080fd5b61006b600480360381019061006691906104cf565b6100eb565b005b6100876004803603810190610082919061052b565b610201565b6040516100949190610583565b60405180910390f35b6100a56102cd565b6040516100b29190610583565b60405180910390f35b6100d560048036038101906100d0919061059e565b6102e3565b6040516100e29190610631565b60405180910390f35b6001151561012e836040518060400160405280600981526020017f66617563657447617300000000000000000000000000000000000000000000008152506102e3565b15150361017557806000806101000a8154816fffffffffffffffffffffffffffffffff0219169083600f0b6fffffffffffffffffffffffffffffffff1602179055506101fd565b600115156101b8836040518060400160405280601781526020017f666175636574426c6f636b4e6f446966666572656e63650000000000000000008152506102e3565b1515036101fc5780600060106101000a8154816fffffffffffffffffffffffffffffffff0219169083600f0b6fffffffffffffffffffffffffffffffff1602179055505b5b5050565b600060011515610246836040518060400160405280600981526020017f66617563657447617300000000000000000000000000000000000000000000008152506102e3565b1515036102625760008054906101000a9004600f0b90506102c8565b600115156102a5836040518060400160405280601781526020017f666175636574426c6f636b4e6f446966666572656e63650000000000000000008152506102e3565b1515036102c357600060109054906101000a9004600f0b90506102c8565b600090505b919050565b60008060009054906101000a9004600f0b905090565b6000816040516020016102f691906106bd565b604051602081830303815290604052805190602001208360405160200161031d91906106bd565b6040516020818303038152906040528051906020012014905092915050565b6000604051905090565b600080fd5b600080fd5b600080fd5b600080fd5b6000601f19601f8301169050919050565b7f4e487b7100000000000000000000000000000000000000000000000000000000600052604160045260246000fd5b6103a38261035a565b810181811067ffffffffffffffff821117156103c2576103c161036b565b5b80604052505050565b60006103d561033c565b90506103e1828261039a565b919050565b600067ffffffffffffffff8211156104015761040061036b565b5b61040a8261035a565b9050602081019050919050565b82818337600083830152505050565b6000610439610434846103e6565b6103cb565b90508281526020810184848401111561045557610454610355565b5b610460848285610417565b509392505050565b600082601f83011261047d5761047c610350565b5b813561048d848260208601610426565b91505092915050565b600081600f0b9050919050565b6104ac81610496565b81146104b757600080fd5b50565b6000813590506104c9816104a3565b92915050565b600080604083850312156104e6576104e5610346565b5b600083013567ffffffffffffffff8111156105045761050361034b565b5b61051085828601610468565b9250506020610521858286016104ba565b9150509250929050565b60006020828403121561054157610540610346565b5b600082013567ffffffffffffffff81111561055f5761055e61034b565b5b61056b84828501610468565b91505092915050565b61057d81610496565b82525050565b60006020820190506105986000830184610574565b92915050565b600080604083850312156105b5576105b4610346565b5b600083013567ffffffffffffffff8111156105d3576105d261034b565b5b6105df85828601610468565b925050602083013567ffffffffffffffff811115610600576105ff61034b565b5b61060c85828601610468565b9150509250929050565b60008115159050919050565b61062b81610616565b82525050565b60006020820190506106466000830184610622565b92915050565b600081519050919050565b600081905092915050565b60005b83811015610680578082015181840152602081019050610665565b60008484015250505050565b60006106978261064c565b6106a18185610657565b93506106b1818560208601610662565b80840191505092915050565b60006106c9828461068c565b91508190509291505056fea2646970667358221220189f4fdb38b8ecd8525beea78e97790023c0205d27e93a5698989064b82eac6864736f6c63430008110033",
  "immutableReferences": {},
  "source": "// SPDX-License-Identifier: MIT\r\npragma solidity ^0.8.17;\r\n\r\ncontract ConfigStorage {\r\n    // Amount of gas the user can get using the faucet\r\n    int128 faucetGas;\r\n\r\n    // Amount of blocks difference between last faucet usage\r\n    int128 faucetBlockNoDifference;\r\n\r\n    // Address of owner\r\n    address owner;\r\n\r\n    /**\r\n     * Constructor to set default config values\r\n     */\r\n    constructor() {\r\n        owner = msg.sender;\r\n\r\n        faucetGas = 10;\r\n        faucetBlockNoDifference = 10;\r\n    }\r\n\r\n    function getFaucetGas() public view returns (int128) {\r\n        return faucetGas;\r\n    }\r\n\r\n    function getIntValue(string memory key) public view returns (int128) {\r\n        if (compareStrings(key, \"faucetGas\") == true) {\r\n            return faucetGas;\r\n        } else if (compareStrings(key, \"faucetBlockNoDifference\") == true) {\r\n            return faucetBlockNoDifference;\r\n        }\r\n        return 0;\r\n    }\r\n\r\n    function setIntValue(string memory key, int128 value) public {\r\n        if (compareStrings(key, \"faucetGas\") == true) {\r\n            faucetGas = value;\r\n        } else if (compareStrings(key, \"faucetBlockNoDifference\") == true) {\r\n            faucetBlockNoDifference = value;\r\n        }\r\n    }\r\n\r\n    function compareStrings(string memory a, string memory b)\r\n        public\r\n        view\r\n        returns (bool)\r\n    {\r\n        return (keccak256(abi.encodePacked((a))) ==\r\n            keccak256(abi.encodePacked((b))));\r\n    }\r\n}\r\n",
  "sourcePath": "C:\\Users\\elias\\OneDrive\\Dokumente\\Blockchain\\mtp-blockchain\\smart-contracts\\contracts\\ConfigStorage.sol",
  "compiler": {
    "name": "solc",
    "version": "0.8.17+commit.8df45f5f.Emscripten.clang"
  },
  "schemaVersion": "3.4.10",
  "updatedAt": "2022-11-08T20:48:38.355Z",
  "networkType": "ethereum",
  "devdoc": {
    "kind": "dev",
    "methods": {},
    "version": 1
  },
  "userdoc": {
    "kind": "user",
    "methods": {
      "constructor": {
        "notice": "Constructor to set default config values"
      }
    },
    "version": 1
  }
}