{
  "contractName": "ConfigStorage",
  "abi": [
    {
      "inputs": [],
      "stateMutability": "nonpayable",
      "type": "constructor"
    },
    {
      "inputs": [
        {
          "internalType": "string",
          "name": "_name",
          "type": "string"
        },
        {
          "internalType": "uint256",
          "name": "_startBlock",
          "type": "uint256"
        },
        {
          "internalType": "uint256",
          "name": "_endBlock",
          "type": "uint256"
        }
      ],
      "name": "appendSemester",
      "outputs": [
        {
          "internalType": "uint256",
          "name": "",
          "type": "uint256"
        }
      ],
      "stateMutability": "nonpayable",
      "type": "function"
    },
    {
      "inputs": [
        {
          "internalType": "uint256",
          "name": "_id",
          "type": "uint256"
        }
      ],
      "name": "getSemester",
      "outputs": [
        {
          "components": [
            {
              "internalType": "string",
              "name": "name",
              "type": "string"
            },
            {
              "internalType": "uint256",
              "name": "startBlock",
              "type": "uint256"
            },
            {
              "internalType": "uint256",
              "name": "endBlock",
              "type": "uint256"
            }
          ],
          "internalType": "struct ConfigStorage.uniMaSemesterReturn",
          "name": "semester",
          "type": "tuple"
        }
      ],
      "stateMutability": "view",
      "type": "function",
      "constant": true
    },
    {
      "inputs": [
        {
          "internalType": "uint256",
          "name": "_id",
          "type": "uint256"
        }
      ],
      "name": "deleteSemester",
      "outputs": [],
      "stateMutability": "nonpayable",
      "type": "function"
    },
    {
      "inputs": [],
      "name": "getSemesterCounter",
      "outputs": [
        {
          "internalType": "uint256",
          "name": "",
          "type": "uint256"
        }
      ],
      "stateMutability": "view",
      "type": "function",
      "constant": true
    },
    {
      "inputs": [
        {
          "internalType": "uint256",
          "name": "_id",
          "type": "uint256"
        },
        {
          "internalType": "string",
          "name": "name",
          "type": "string"
        }
      ],
      "name": "setSemesterName",
      "outputs": [],
      "stateMutability": "nonpayable",
      "type": "function"
    },
    {
      "inputs": [
        {
          "internalType": "uint256",
          "name": "_id",
          "type": "uint256"
        },
        {
          "internalType": "uint256",
          "name": "startBlock",
          "type": "uint256"
        }
      ],
      "name": "setSemesterStartBlock",
      "outputs": [],
      "stateMutability": "nonpayable",
      "type": "function"
    },
    {
      "inputs": [
        {
          "internalType": "uint256",
          "name": "_id",
          "type": "uint256"
        },
        {
          "internalType": "uint256",
          "name": "endBlock",
          "type": "uint256"
        }
      ],
      "name": "setSemesterEndBlock",
      "outputs": [],
      "stateMutability": "nonpayable",
      "type": "function"
    },
    {
      "inputs": [
        {
          "internalType": "uint256",
          "name": "_semesterId",
          "type": "uint256"
        },
        {
          "internalType": "string",
          "name": "_name",
          "type": "string"
        },
        {
          "internalType": "string",
          "name": "_link",
          "type": "string"
        },
        {
          "internalType": "address",
          "name": "_validationContractAddress",
          "type": "address"
        }
      ],
      "name": "appendAssignment",
      "outputs": [
        {
          "internalType": "uint256",
          "name": "",
          "type": "uint256"
        }
      ],
      "stateMutability": "nonpayable",
      "type": "function"
    },
    {
      "inputs": [
        {
          "internalType": "uint256",
          "name": "_semesterId",
          "type": "uint256"
        },
        {
          "internalType": "uint256",
          "name": "_assignmentId",
          "type": "uint256"
        }
      ],
      "name": "getAssignment",
      "outputs": [
        {
          "components": [
            {
              "internalType": "string",
              "name": "name",
              "type": "string"
            },
            {
              "internalType": "string",
              "name": "link",
              "type": "string"
            },
            {
              "internalType": "address",
              "name": "validationContractAddress",
              "type": "address"
            }
          ],
          "internalType": "struct ConfigStorage.uniMaAssignments",
          "name": "assignment",
          "type": "tuple"
        }
      ],
      "stateMutability": "view",
      "type": "function",
      "constant": true
    },
    {
      "inputs": [
        {
          "internalType": "uint256",
          "name": "_semesterId",
          "type": "uint256"
        },
        {
          "internalType": "uint256",
          "name": "_assignmentId",
          "type": "uint256"
        }
      ],
      "name": "deleteAssignment",
      "outputs": [],
      "stateMutability": "nonpayable",
      "type": "function"
    },
    {
      "inputs": [
        {
          "internalType": "uint256",
          "name": "semester_id",
          "type": "uint256"
        }
      ],
      "name": "getAssignmentCounter",
      "outputs": [
        {
          "internalType": "uint256",
          "name": "",
          "type": "uint256"
        }
      ],
      "stateMutability": "view",
      "type": "function",
      "constant": true
    },
    {
      "inputs": [
        {
          "internalType": "uint256",
          "name": "_semesterId",
          "type": "uint256"
        },
        {
          "internalType": "uint256",
          "name": "_assignmentId",
          "type": "uint256"
        },
        {
          "internalType": "string",
          "name": "name",
          "type": "string"
        }
      ],
      "name": "setAssignmentName",
      "outputs": [],
      "stateMutability": "nonpayable",
      "type": "function"
    },
    {
      "inputs": [
        {
          "internalType": "uint256",
          "name": "_semesterId",
          "type": "uint256"
        },
        {
          "internalType": "uint256",
          "name": "_assignmentId",
          "type": "uint256"
        },
        {
          "internalType": "string",
          "name": "link",
          "type": "string"
        }
      ],
      "name": "setAssignmentLink",
      "outputs": [],
      "stateMutability": "nonpayable",
      "type": "function"
    },
    {
      "inputs": [
        {
          "internalType": "uint256",
          "name": "_semesterId",
          "type": "uint256"
        },
        {
          "internalType": "uint256",
          "name": "_assignmentId",
          "type": "uint256"
        },
        {
          "internalType": "address",
          "name": "_address",
          "type": "address"
        }
      ],
      "name": "setAssignmentAddress",
      "outputs": [],
      "stateMutability": "nonpayable",
      "type": "function"
    },
    {
      "inputs": [
        {
          "internalType": "string",
          "name": "key",
          "type": "string"
        }
      ],
      "name": "getIntValue",
      "outputs": [
        {
          "internalType": "int128",
          "name": "",
          "type": "int128"
        }
      ],
      "stateMutability": "view",
      "type": "function",
      "constant": true
    },
    {
      "inputs": [
        {
          "internalType": "string",
          "name": "key",
          "type": "string"
        },
        {
          "internalType": "int128",
          "name": "value",
          "type": "int128"
        }
      ],
      "name": "setIntValue",
      "outputs": [],
      "stateMutability": "nonpayable",
      "type": "function"
    },
    {
      "inputs": [
        {
          "internalType": "string",
          "name": "a",
          "type": "string"
        },
        {
          "internalType": "string",
          "name": "b",
          "type": "string"
        }
      ],
      "name": "compareStrings",
      "outputs": [
        {
          "internalType": "bool",
          "name": "",
          "type": "bool"
        }
      ],
      "stateMutability": "view",
      "type": "function",
      "constant": true
    }
  ],
  "bytecode": "0x6080604052600060025534801561001557600080fd5b5033600160006101000a81548173ffffffffffffffffffffffffffffffffffffffff021916908373ffffffffffffffffffffffffffffffffffffffff160217905550600a6000806101000a8154816fffffffffffffffffffffffffffffffff0219169083600f0b6fffffffffffffffffffffffffffffffff160217905550600a600060106101000a8154816fffffffffffffffffffffffffffffffff0219169083600f0b6fffffffffffffffffffffffffffffffff1602179055506000600281905550611b40806100e76000396000f3fe608060405234801561001057600080fd5b506004361061010b5760003560e01c8063877c2184116100a2578063be73cb2e11610071578063be73cb2e146102c6578063bed34bba146102e2578063c8e3a51514610312578063e07b04941461032e578063f01bafac1461035e5761010b565b8063877c21841461022e578063b062b8301461025e578063b95986d81461027a578063bb5927c4146102aa5761010b565b8063653d90de116100de578063653d90de146101a857806371c37c3a146101c45780637615c0dc146101e257806381b217e0146101fe5761010b565b8063337f6e6b14610110578063474b28a01461014057806349342827146101705780635a7c3c451461018c575b600080fd5b61012a60048036038101906101259190610f08565b61037a565b6040516101379190610f44565b60405180910390f35b61015a60048036038101906101559190611103565b61039a565b6040516101679190610f44565b60405180910390f35b61018a600480360381019061018591906111a2565b610553565b005b6101a660048036038101906101a191906111e2565b610572565b005b6101c260048036038101906101bd9190611251565b6105af565b005b6101cc6105d7565b6040516101d99190610f44565b60405180910390f35b6101fc60048036038101906101f791906112e6565b6105e1565b005b61021860048036038101906102139190611342565b610787565b6040516102259190610f44565b60405180910390f35b610248600480360381019061024391906113b1565b6108b4565b6040516102559190611409565b60405180910390f35b61027860048036038101906102739190611424565b610980565b005b610294600480360381019061028f9190610f08565b6109ee565b6040516102a19190611555565b60405180910390f35b6102c460048036038101906102bf91906111a2565b610ae2565b005b6102e060048036038101906102db9190610f08565b610b57565b005b6102fc60048036038101906102f79190611577565b610b98565b604051610309919061160a565b60405180910390f35b61032c600480360381019061032791906111a2565b610bf1565b005b610348600480360381019061034391906111a2565b610c10565b604051610355919061168b565b60405180910390f35b610378600480360381019061037391906111e2565b610dcc565b005b600060036000838152602001908152602001600020600301549050919050565b6000600160009054906101000a900473ffffffffffffffffffffffffffffffffffffffff1673ffffffffffffffffffffffffffffffffffffffff163373ffffffffffffffffffffffffffffffffffffffff161461042c576040517f08c379a000000000000000000000000000000000000000000000000000000000815260040161042390611756565b60405180910390fd5b60006001600360008881526020019081526020016000206003015461045191906117a5565b905084600360008881526020019081526020016000206004016000838152602001908152602001600020600001908161048a91906119e5565b508360036000888152602001908152602001600020600401600083815260200190815260200160002060010190816104c291906119e5565b508260036000888152602001908152602001600020600401600083815260200190815260200160002060020160006101000a81548173ffffffffffffffffffffffffffffffffffffffff021916908373ffffffffffffffffffffffffffffffffffffffff16021790555080600360008881526020019081526020016000206003018190555080915050949350505050565b8060036000848152602001908152602001600020600101819055505050565b8060036000858152602001908152602001600020600401600084815260200190815260200160002060000190816105a991906119e5565b50505050565b806003600084815260200190815260200160002060000190816105d291906119e5565b505050565b6000600254905090565b600160009054906101000a900473ffffffffffffffffffffffffffffffffffffffff1673ffffffffffffffffffffffffffffffffffffffff163373ffffffffffffffffffffffffffffffffffffffff1614610671576040517f08c379a000000000000000000000000000000000000000000000000000000000815260040161066890611756565b60405180910390fd5b600115156106b4836040518060400160405280600981526020017f6661756365744761730000000000000000000000000000000000000000000000815250610b98565b1515036106fb57806000806101000a8154816fffffffffffffffffffffffffffffffff0219169083600f0b6fffffffffffffffffffffffffffffffff160217905550610783565b6001151561073e836040518060400160405280601781526020017f666175636574426c6f636b4e6f446966666572656e6365000000000000000000815250610b98565b1515036107825780600060106101000a8154816fffffffffffffffffffffffffffffffff0219169083600f0b6fffffffffffffffffffffffffffffffff1602179055505b5b5050565b6000600160009054906101000a900473ffffffffffffffffffffffffffffffffffffffff1673ffffffffffffffffffffffffffffffffffffffff163373ffffffffffffffffffffffffffffffffffffffff1614610819576040517f08c379a000000000000000000000000000000000000000000000000000000000815260040161081090611756565b60405180910390fd5b6000600160025461082a91906117a5565b90508460036000838152602001908152602001600020600001908161084f91906119e5565b508360036000838152602001908152602001600020600101819055508260036000838152602001908152602001600020600201819055506000600360008381526020019081526020016000206003018190555080600281905550809150509392505050565b6000600115156108f9836040518060400160405280600981526020017f6661756365744761730000000000000000000000000000000000000000000000815250610b98565b1515036109155760008054906101000a9004600f0b905061097b565b60011515610958836040518060400160405280601781526020017f666175636574426c6f636b4e6f446966666572656e6365000000000000000000815250610b98565b15150361097657600060109054906101000a9004600f0b905061097b565b600090505b919050565b8060036000858152602001908152602001600020600401600084815260200190815260200160002060020160006101000a81548173ffffffffffffffffffffffffffffffffffffffff021916908373ffffffffffffffffffffffffffffffffffffffff160217905550505050565b6109f6610e09565b6040518060600160405280600360008581526020019081526020016000206000018054610a2290611808565b80601f0160208091040260200160405190810160405280929190818152602001828054610a4e90611808565b8015610a9b5780601f10610a7057610100808354040283529160200191610a9b565b820191906000526020600020905b815481529060010190602001808311610a7e57829003601f168201915b505050505081526020016003600085815260200190815260200160002060010154815260200160036000858152602001908152602001600020600201548152509050919050565b60036000838152602001908152602001600020600401600082815260200190815260200160002060008082016000610b1a9190610e2a565b600182016000610b2a9190610e2a565b6002820160006101000a81549073ffffffffffffffffffffffffffffffffffffffff021916905550505050565b6003600082815260200190815260200160002060008082016000610b7b9190610e2a565b600182016000905560028201600090556003820160009055505050565b600081604051602001610bab9190611af3565b6040516020818303038152906040528051906020012083604051602001610bd29190611af3565b6040516020818303038152906040528051906020012014905092915050565b8060036000848152602001908152602001600020600201819055505050565b610c18610e6a565b600360008481526020019081526020016000206004016000838152602001908152602001600020604051806060016040529081600082018054610c5a90611808565b80601f0160208091040260200160405190810160405280929190818152602001828054610c8690611808565b8015610cd35780601f10610ca857610100808354040283529160200191610cd3565b820191906000526020600020905b815481529060010190602001808311610cb657829003601f168201915b50505050508152602001600182018054610cec90611808565b80601f0160208091040260200160405190810160405280929190818152602001828054610d1890611808565b8015610d655780601f10610d3a57610100808354040283529160200191610d65565b820191906000526020600020905b815481529060010190602001808311610d4857829003601f168201915b505050505081526020016002820160009054906101000a900473ffffffffffffffffffffffffffffffffffffffff1673ffffffffffffffffffffffffffffffffffffffff1673ffffffffffffffffffffffffffffffffffffffff1681525050905092915050565b806003600085815260200190815260200160002060040160008481526020019081526020016000206001019081610e0391906119e5565b50505050565b60405180606001604052806060815260200160008152602001600081525090565b508054610e3690611808565b6000825580601f10610e485750610e67565b601f016020900490600052602060002090810190610e669190610ea1565b5b50565b60405180606001604052806060815260200160608152602001600073ffffffffffffffffffffffffffffffffffffffff1681525090565b5b80821115610eba576000816000905550600101610ea2565b5090565b6000604051905090565b600080fd5b600080fd5b6000819050919050565b610ee581610ed2565b8114610ef057600080fd5b50565b600081359050610f0281610edc565b92915050565b600060208284031215610f1e57610f1d610ec8565b5b6000610f2c84828501610ef3565b91505092915050565b610f3e81610ed2565b82525050565b6000602082019050610f596000830184610f35565b92915050565b600080fd5b600080fd5b6000601f19601f8301169050919050565b7f4e487b7100000000000000000000000000000000000000000000000000000000600052604160045260246000fd5b610fb282610f69565b810181811067ffffffffffffffff82111715610fd157610fd0610f7a565b5b80604052505050565b6000610fe4610ebe565b9050610ff08282610fa9565b919050565b600067ffffffffffffffff8211156110105761100f610f7a565b5b61101982610f69565b9050602081019050919050565b82818337600083830152505050565b600061104861104384610ff5565b610fda565b90508281526020810184848401111561106457611063610f64565b5b61106f848285611026565b509392505050565b600082601f83011261108c5761108b610f5f565b5b813561109c848260208601611035565b91505092915050565b600073ffffffffffffffffffffffffffffffffffffffff82169050919050565b60006110d0826110a5565b9050919050565b6110e0816110c5565b81146110eb57600080fd5b50565b6000813590506110fd816110d7565b92915050565b6000806000806080858703121561111d5761111c610ec8565b5b600061112b87828801610ef3565b945050602085013567ffffffffffffffff81111561114c5761114b610ecd565b5b61115887828801611077565b935050604085013567ffffffffffffffff81111561117957611178610ecd565b5b61118587828801611077565b9250506060611196878288016110ee565b91505092959194509250565b600080604083850312156111b9576111b8610ec8565b5b60006111c785828601610ef3565b92505060206111d885828601610ef3565b9150509250929050565b6000806000606084860312156111fb576111fa610ec8565b5b600061120986828701610ef3565b935050602061121a86828701610ef3565b925050604084013567ffffffffffffffff81111561123b5761123a610ecd565b5b61124786828701611077565b9150509250925092565b6000806040838503121561126857611267610ec8565b5b600061127685828601610ef3565b925050602083013567ffffffffffffffff81111561129757611296610ecd565b5b6112a385828601611077565b9150509250929050565b600081600f0b9050919050565b6112c3816112ad565b81146112ce57600080fd5b50565b6000813590506112e0816112ba565b92915050565b600080604083850312156112fd576112fc610ec8565b5b600083013567ffffffffffffffff81111561131b5761131a610ecd565b5b61132785828601611077565b9250506020611338858286016112d1565b9150509250929050565b60008060006060848603121561135b5761135a610ec8565b5b600084013567ffffffffffffffff81111561137957611378610ecd565b5b61138586828701611077565b935050602061139686828701610ef3565b92505060406113a786828701610ef3565b9150509250925092565b6000602082840312156113c7576113c6610ec8565b5b600082013567ffffffffffffffff8111156113e5576113e4610ecd565b5b6113f184828501611077565b91505092915050565b611403816112ad565b82525050565b600060208201905061141e60008301846113fa565b92915050565b60008060006060848603121561143d5761143c610ec8565b5b600061144b86828701610ef3565b935050602061145c86828701610ef3565b925050604061146d868287016110ee565b9150509250925092565b600081519050919050565b600082825260208201905092915050565b60005b838110156114b1578082015181840152602081019050611496565b60008484015250505050565b60006114c882611477565b6114d28185611482565b93506114e2818560208601611493565b6114eb81610f69565b840191505092915050565b6114ff81610ed2565b82525050565b6000606083016000830151848203600086015261152282826114bd565b915050602083015161153760208601826114f6565b50604083015161154a60408601826114f6565b508091505092915050565b6000602082019050818103600083015261156f8184611505565b905092915050565b6000806040838503121561158e5761158d610ec8565b5b600083013567ffffffffffffffff8111156115ac576115ab610ecd565b5b6115b885828601611077565b925050602083013567ffffffffffffffff8111156115d9576115d8610ecd565b5b6115e585828601611077565b9150509250929050565b60008115159050919050565b611604816115ef565b82525050565b600060208201905061161f60008301846115fb565b92915050565b61162e816110c5565b82525050565b6000606083016000830151848203600086015261165182826114bd565b9150506020830151848203602086015261166b82826114bd565b91505060408301516116806040860182611625565b508091505092915050565b600060208201905081810360008301526116a58184611634565b905092915050565b600082825260208201905092915050565b7f416464726573732074686174206465706c6f7973207468697320736d6172742060008201527f636f6e7472616374206973206e6f742074686520636f696e626173652061646460208201527f7265737321000000000000000000000000000000000000000000000000000000604082015250565b60006117406045836116ad565b915061174b826116be565b606082019050919050565b6000602082019050818103600083015261176f81611733565b9050919050565b7f4e487b7100000000000000000000000000000000000000000000000000000000600052601160045260246000fd5b60006117b082610ed2565b91506117bb83610ed2565b92508282019050808211156117d3576117d2611776565b5b92915050565b7f4e487b7100000000000000000000000000000000000000000000000000000000600052602260045260246000fd5b6000600282049050600182168061182057607f821691505b602082108103611833576118326117d9565b5b50919050565b60008190508160005260206000209050919050565b60006020601f8301049050919050565b600082821b905092915050565b60006008830261189b7fffffffffffffffffffffffffffffffffffffffffffffffffffffffffffffffff8261185e565b6118a5868361185e565b95508019841693508086168417925050509392505050565b6000819050919050565b60006118e26118dd6118d884610ed2565b6118bd565b610ed2565b9050919050565b6000819050919050565b6118fc836118c7565b611910611908826118e9565b84845461186b565b825550505050565b600090565b611925611918565b6119308184846118f3565b505050565b5b818110156119545761194960008261191d565b600181019050611936565b5050565b601f8211156119995761196a81611839565b6119738461184e565b81016020851015611982578190505b61199661198e8561184e565b830182611935565b50505b505050565b600082821c905092915050565b60006119bc6000198460080261199e565b1980831691505092915050565b60006119d583836119ab565b9150826002028217905092915050565b6119ee82611477565b67ffffffffffffffff811115611a0757611a06610f7a565b5b611a118254611808565b611a1c828285611958565b600060209050601f831160018114611a4f5760008415611a3d578287015190505b611a4785826119c9565b865550611aaf565b601f198416611a5d86611839565b60005b82811015611a8557848901518255600182019150602085019450602081019050611a60565b86831015611aa25784890151611a9e601f8916826119ab565b8355505b6001600288020188555050505b505050505050565b600081905092915050565b6000611acd82611477565b611ad78185611ab7565b9350611ae7818560208601611493565b80840191505092915050565b6000611aff8284611ac2565b91508190509291505056fea264697066735822122062e8dfb1fca1401064dbc8eba90efa6e718c595a7bde199fcf4aa77d3d3cf6fb64736f6c63430008110033",
  "immutableReferences": {},
  "source": "// SPDX-License-Identifier: MIT\r\npragma solidity ^0.8.17;\r\n\r\ncontract ConfigStorage {\r\n    // Amount of gas the user can get using the faucet\r\n    int128 faucetGas;\r\n\r\n    // Amount of blocks difference between last faucet usage\r\n    int128 faucetBlockNoDifference;\r\n\r\n    // Address of owner\r\n    address owner;\r\n\r\n    // Struct Seminar\r\n    struct uniMaSemester {\r\n        // Name of the semester (e.g. SS22)\r\n        string name;\r\n        // First block which counts towards this semester\r\n        uint256 startBlock;\r\n        // Last block which counts towards this semester\r\n        uint256 endBlock;\r\n        // Assignment counter\r\n        uint256 assignmentCounter;\r\n        // Assigned assignments\r\n        mapping(uint256 => uniMaAssignments) assignments;\r\n    }\r\n\r\n    // Struct Seminar\r\n    struct uniMaSemesterReturn {\r\n        // Name of the semester (e.g. SS22)\r\n        string name;\r\n        // First block which counts towards this semester\r\n        uint256 startBlock;\r\n        // Last block which counts towards this semester\r\n        uint256 endBlock;\r\n    }\r\n\r\n    // Assignments\r\n    struct uniMaAssignments {\r\n        // Name of the assignment\r\n        string name;\r\n        // Link to the assignment\r\n        string link;\r\n        // Address to the validation contrac\r\n        address validationContractAddress;\r\n    }\r\n\r\n    uint256 semesterCounter = 0;\r\n    mapping(uint256 => uniMaSemester) semesters;\r\n\r\n    /**\r\n     * Constructor to set default config values\r\n     */\r\n    constructor() {\r\n        owner = msg.sender;\r\n\r\n        faucetGas = 10;\r\n        faucetBlockNoDifference = 10;\r\n\r\n        // Set counters to 0\r\n        semesterCounter = 0;\r\n    }\r\n\r\n    /*=============================================\r\n    =            Semester function            =\r\n    =============================================*/\r\n\r\n    function appendSemester(\r\n        string memory _name,\r\n        uint256 _startBlock,\r\n        uint256 _endBlock\r\n    ) public returns (uint256) {\r\n        require(\r\n            msg.sender == owner,\r\n            \"Address that deploys this smart contract is not the coinbase address!\"\r\n        );\r\n\r\n        uint256 index = semesterCounter + 1;\r\n\r\n        semesters[index].name = _name;\r\n        semesters[index].startBlock = _startBlock;\r\n        semesters[index].endBlock = _endBlock;\r\n        semesters[index].assignmentCounter = 0;\r\n\r\n        semesterCounter = index;\r\n\r\n        return index;\r\n    }\r\n\r\n    function getSemester(uint256 _id)\r\n        public\r\n        view\r\n        returns (uniMaSemesterReturn memory semester)\r\n    {\r\n        return\r\n            uniMaSemesterReturn(\r\n                semesters[_id].name,\r\n                semesters[_id].startBlock,\r\n                semesters[_id].endBlock\r\n            );\r\n    }\r\n\r\n    function deleteSemester(uint256 _id) public {\r\n        delete semesters[_id];\r\n    }\r\n\r\n    function getSemesterCounter() public view returns (uint256) {\r\n        return semesterCounter;\r\n    }\r\n\r\n    /*----------  Setter  ----------*/\r\n\r\n    function setSemesterName(uint256 _id, string memory name) public {\r\n        semesters[_id].name = name;\r\n    }\r\n\r\n    function setSemesterStartBlock(uint256 _id, uint256 startBlock) public {\r\n        semesters[_id].startBlock = startBlock;\r\n    }\r\n\r\n    function setSemesterEndBlock(uint256 _id, uint256 endBlock) public {\r\n        semesters[_id].endBlock = endBlock;\r\n    }\r\n\r\n    /*=====  End of Semester function  ======*/\r\n\r\n    /*=============================================\r\n    =            Assignment functions            =\r\n    =============================================*/\r\n\r\n    function appendAssignment(\r\n        uint256 _semesterId,\r\n        string memory _name,\r\n        string memory _link,\r\n        address _validationContractAddress\r\n    ) public returns (uint256) {\r\n        require(\r\n            msg.sender == owner,\r\n            \"Address that deploys this smart contract is not the coinbase address!\"\r\n        );\r\n\r\n        uint256 index = semesters[_semesterId].assignmentCounter + 1;\r\n\r\n        semesters[_semesterId].assignments[index].name = _name;\r\n        semesters[_semesterId].assignments[index].link = _link;\r\n        semesters[_semesterId]\r\n            .assignments[index]\r\n            .validationContractAddress = _validationContractAddress;\r\n\r\n        semesters[_semesterId].assignmentCounter = index;\r\n\r\n        return index;\r\n    }\r\n\r\n    function getAssignment(uint256 _semesterId, uint256 _assignmentId)\r\n        public\r\n        view\r\n        returns (uniMaAssignments memory assignment)\r\n    {\r\n        return semesters[_semesterId].assignments[_assignmentId];\r\n    }\r\n\r\n    function deleteAssignment(uint256 _semesterId, uint256 _assignmentId)\r\n        public\r\n    {\r\n        delete semesters[_semesterId].assignments[_assignmentId];\r\n    }\r\n\r\n    function getAssignmentCounter(uint256 semester_id)\r\n        public\r\n        view\r\n        returns (uint256)\r\n    {\r\n        return semesters[semester_id].assignmentCounter;\r\n    }\r\n\r\n    /*----------  Setter  ----------*/\r\n\r\n    function setAssignmentName(\r\n        uint256 _semesterId,\r\n        uint256 _assignmentId,\r\n        string memory name\r\n    ) public {\r\n        semesters[_semesterId].assignments[_assignmentId].name = name;\r\n    }\r\n\r\n    function setAssignmentLink(\r\n        uint256 _semesterId,\r\n        uint256 _assignmentId,\r\n        string memory link\r\n    ) public {\r\n        semesters[_semesterId].assignments[_assignmentId].link = link;\r\n    }\r\n\r\n    function setAssignmentAddress(\r\n        uint256 _semesterId,\r\n        uint256 _assignmentId,\r\n        address _address\r\n    ) public {\r\n        semesters[_semesterId]\r\n            .assignments[_assignmentId]\r\n            .validationContractAddress = _address;\r\n    }\r\n\r\n    /*=====  End of Assignment functions  ======*/\r\n\r\n    /*=============================================\r\n    =            Other functions            =\r\n    =============================================*/\r\n\r\n    function getIntValue(string memory key) public view returns (int128) {\r\n        if (compareStrings(key, \"faucetGas\") == true) {\r\n            return faucetGas;\r\n        } else if (compareStrings(key, \"faucetBlockNoDifference\") == true) {\r\n            return faucetBlockNoDifference;\r\n        }\r\n        return 0;\r\n    }\r\n\r\n    function setIntValue(string memory key, int128 value) public {\r\n        require(\r\n            msg.sender == owner,\r\n            \"Address that deploys this smart contract is not the coinbase address!\"\r\n        );\r\n\r\n        if (compareStrings(key, \"faucetGas\") == true) {\r\n            faucetGas = value;\r\n        } else if (compareStrings(key, \"faucetBlockNoDifference\") == true) {\r\n            faucetBlockNoDifference = value;\r\n        }\r\n    }\r\n\r\n    /*=====  End of Other functions  ======*/\r\n\r\n    /*=============================================\r\n    =            Helper Functions            =\r\n    =============================================*/\r\n\r\n    function compareStrings(string memory a, string memory b)\r\n        public\r\n        view\r\n        returns (bool)\r\n    {\r\n        return (keccak256(abi.encodePacked((a))) ==\r\n            keccak256(abi.encodePacked((b))));\r\n    }\r\n    /*=====  End of Helper Functions  ======*/\r\n}\r\n",
  "sourcePath": "C:\\Users\\Equus\\Documents\\UniProjekte\\mtp-blockchain\\smart-contracts\\contracts\\ConfigStorage.sol",
  "compiler": {
    "name": "solc",
    "version": "0.8.17+commit.8df45f5f.Emscripten.clang"
  },
  "schemaVersion": "3.4.10",
  "updatedAt": "2022-11-15T13:43:15.217Z",
  "networkType": "ethereum",
  "devdoc": {
    "kind": "dev",
    "methods": {},
    "version": 1
  },
  "userdoc": {
    "kind": "user",
    "methods": {
      "constructor": {
        "notice": "Constructor to set default config values"
      }
    },
    "version": 1
  }
}