{
  "contractName": "ConfigStorage",
  "abi": [
    {
      "inputs": [],
      "stateMutability": "nonpayable",
      "type": "constructor"
    },
    {
      "inputs": [
        {
          "internalType": "string",
          "name": "key",
          "type": "string"
        }
      ],
      "name": "getIntValue",
      "outputs": [
        {
          "internalType": "int128",
          "name": "",
          "type": "int128"
        }
      ],
      "stateMutability": "view",
      "type": "function"
    },
    {
      "inputs": [
        {
          "internalType": "string",
          "name": "key",
          "type": "string"
        },
        {
          "internalType": "int128",
          "name": "value",
          "type": "int128"
        }
      ],
      "name": "setIntValue",
      "outputs": [],
      "stateMutability": "nonpayable",
      "type": "function"
    },
    {
      "inputs": [
        {
          "internalType": "string",
          "name": "a",
          "type": "string"
        },
        {
          "internalType": "string",
          "name": "b",
          "type": "string"
        }
      ],
      "name": "compareStrings",
      "outputs": [
        {
          "internalType": "bool",
          "name": "",
          "type": "bool"
        }
      ],
      "stateMutability": "view",
      "type": "function"
    }
  ],
  "bytecode": "0x608060405234801561001057600080fd5b5033600160006101000a81548173ffffffffffffffffffffffffffffffffffffffff021916908373ffffffffffffffffffffffffffffffffffffffff160217905550600a6000806101000a8154816fffffffffffffffffffffffffffffffff0219169083600f0b6fffffffffffffffffffffffffffffffff160217905550600a600060106101000a8154816fffffffffffffffffffffffffffffffff0219169083600f0b6fffffffffffffffffffffffffffffffff160217905550610824806100da6000396000f3fe608060405234801561001057600080fd5b50600436106100415760003560e01c80637615c0dc14610046578063877c218414610062578063bed34bba14610092575b600080fd5b610060600480360381019061005b9190610520565b6100c2565b005b61007c6004803603810190610077919061057c565b610268565b60405161008991906105d4565b60405180910390f35b6100ac60048036038101906100a791906105ef565b610334565b6040516100b99190610682565b60405180910390f35b600160009054906101000a900473ffffffffffffffffffffffffffffffffffffffff1673ffffffffffffffffffffffffffffffffffffffff163373ffffffffffffffffffffffffffffffffffffffff1614610152576040517f08c379a000000000000000000000000000000000000000000000000000000000815260040161014990610746565b60405180910390fd5b60011515610195836040518060400160405280600981526020017f6661756365744761730000000000000000000000000000000000000000000000815250610334565b1515036101dc57806000806101000a8154816fffffffffffffffffffffffffffffffff0219169083600f0b6fffffffffffffffffffffffffffffffff160217905550610264565b6001151561021f836040518060400160405280601781526020017f666175636574426c6f636b4e6f446966666572656e6365000000000000000000815250610334565b1515036102635780600060106101000a8154816fffffffffffffffffffffffffffffffff0219169083600f0b6fffffffffffffffffffffffffffffffff1602179055505b5b5050565b6000600115156102ad836040518060400160405280600981526020017f6661756365744761730000000000000000000000000000000000000000000000815250610334565b1515036102c95760008054906101000a9004600f0b905061032f565b6001151561030c836040518060400160405280601781526020017f666175636574426c6f636b4e6f446966666572656e6365000000000000000000815250610334565b15150361032a57600060109054906101000a9004600f0b905061032f565b600090505b919050565b60008160405160200161034791906107d7565b604051602081830303815290604052805190602001208360405160200161036e91906107d7565b6040516020818303038152906040528051906020012014905092915050565b6000604051905090565b600080fd5b600080fd5b600080fd5b600080fd5b6000601f19601f8301169050919050565b7f4e487b7100000000000000000000000000000000000000000000000000000000600052604160045260246000fd5b6103f4826103ab565b810181811067ffffffffffffffff82111715610413576104126103bc565b5b80604052505050565b600061042661038d565b905061043282826103eb565b919050565b600067ffffffffffffffff821115610452576104516103bc565b5b61045b826103ab565b9050602081019050919050565b82818337600083830152505050565b600061048a61048584610437565b61041c565b9050828152602081018484840111156104a6576104a56103a6565b5b6104b1848285610468565b509392505050565b600082601f8301126104ce576104cd6103a1565b5b81356104de848260208601610477565b91505092915050565b600081600f0b9050919050565b6104fd816104e7565b811461050857600080fd5b50565b60008135905061051a816104f4565b92915050565b6000806040838503121561053757610536610397565b5b600083013567ffffffffffffffff8111156105555761055461039c565b5b610561858286016104b9565b92505060206105728582860161050b565b9150509250929050565b60006020828403121561059257610591610397565b5b600082013567ffffffffffffffff8111156105b0576105af61039c565b5b6105bc848285016104b9565b91505092915050565b6105ce816104e7565b82525050565b60006020820190506105e960008301846105c5565b92915050565b6000806040838503121561060657610605610397565b5b600083013567ffffffffffffffff8111156106245761062361039c565b5b610630858286016104b9565b925050602083013567ffffffffffffffff8111156106515761065061039c565b5b61065d858286016104b9565b9150509250929050565b60008115159050919050565b61067c81610667565b82525050565b60006020820190506106976000830184610673565b92915050565b600082825260208201905092915050565b7f416464726573732074686174206465706c6f7973207468697320736d6172742060008201527f636f6e7472616374206973206e6f742074686520636f696e626173652061646460208201527f7265737321000000000000000000000000000000000000000000000000000000604082015250565b600061073060458361069d565b915061073b826106ae565b606082019050919050565b6000602082019050818103600083015261075f81610723565b9050919050565b600081519050919050565b600081905092915050565b60005b8381101561079a57808201518184015260208101905061077f565b60008484015250505050565b60006107b182610766565b6107bb8185610771565b93506107cb81856020860161077c565b80840191505092915050565b60006107e382846107a6565b91508190509291505056fea2646970667358221220dcb359e5b6c45e29ee743c7226dc55f270d6e3257d410c7237037f2c3c4cac5764736f6c63430008110033",
  "immutableReferences": {},
  "source": "// SPDX-License-Identifier: MIT\r\npragma solidity ^0.8.17;\r\n\r\ncontract ConfigStorage {\r\n    // Amount of gas the user can get using the faucet\r\n    int128 faucetGas;\r\n\r\n    // Amount of blocks difference between last faucet usage\r\n    int128 faucetBlockNoDifference;\r\n\r\n    // Address of owner\r\n    address owner;\r\n\r\n    /**\r\n     * Constructor to set default config values\r\n     */\r\n    constructor() {\r\n        owner = msg.sender;\r\n\r\n        faucetGas = 10;\r\n        faucetBlockNoDifference = 10;\r\n    }\r\n\r\n    function getIntValue(string memory key) public view returns (int128) {\r\n        if (compareStrings(key, \"faucetGas\") == true) {\r\n            return faucetGas;\r\n        } else if (compareStrings(key, \"faucetBlockNoDifference\") == true) {\r\n            return faucetBlockNoDifference;\r\n        }\r\n        return 0;\r\n    }\r\n\r\n    function setIntValue(string memory key, int128 value) public {\r\n        require(\r\n            msg.sender == owner,\r\n            \"Address that deploys this smart contract is not the coinbase address!\"\r\n        );\r\n        \r\n        if (compareStrings(key, \"faucetGas\") == true) {\r\n            faucetGas = value;\r\n        } else if (compareStrings(key, \"faucetBlockNoDifference\") == true) {\r\n            faucetBlockNoDifference = value;\r\n        }\r\n    }\r\n\r\n    function compareStrings(string memory a, string memory b)\r\n        public\r\n        view\r\n        returns (bool)\r\n    {\r\n        return (keccak256(abi.encodePacked((a))) ==\r\n            keccak256(abi.encodePacked((b))));\r\n    }\r\n}\r\n",
  "sourcePath": "C:\\Users\\elias\\OneDrive\\Dokumente\\Blockchain\\mtp-blockchain\\smart-contracts\\contracts\\ConfigStorage.sol",
  "compiler": {
    "name": "solc",
    "version": "0.8.17+commit.8df45f5f.Emscripten.clang"
  },
  "schemaVersion": "3.4.10",
  "updatedAt": "2022-11-10T13:47:40.450Z",
  "devdoc": {
    "kind": "dev",
    "methods": {},
    "version": 1
  },
  "userdoc": {
    "kind": "user",
    "methods": {
      "constructor": {
        "notice": "Constructor to set default config values"
      }
    },
    "version": 1
  }
}