{
  "contractName": "ConfigStorage",
  "abi": [
    {
      "inputs": [],
      "stateMutability": "nonpayable",
      "type": "constructor"
    },
    {
      "inputs": [
        {
          "internalType": "string",
          "name": "_name",
          "type": "string"
        },
        {
          "internalType": "uint256",
          "name": "_startBlock",
          "type": "uint256"
        },
        {
          "internalType": "uint256",
          "name": "_endBlock",
          "type": "uint256"
        },
        {
          "internalType": "uint256",
          "name": "_minKnowledgeCoinAmount",
          "type": "uint256"
        }
      ],
      "name": "appendSemester",
      "outputs": [
        {
          "internalType": "uint256",
          "name": "",
          "type": "uint256"
        }
      ],
      "stateMutability": "nonpayable",
      "type": "function"
    },
    {
      "inputs": [
        {
          "internalType": "uint256",
          "name": "_id",
          "type": "uint256"
        }
      ],
      "name": "getSemester",
      "outputs": [
        {
          "components": [
            {
              "internalType": "string",
              "name": "name",
              "type": "string"
            },
            {
              "internalType": "uint256",
              "name": "startBlock",
              "type": "uint256"
            },
            {
              "internalType": "uint256",
              "name": "endBlock",
              "type": "uint256"
            },
            {
              "internalType": "uint256",
              "name": "minKnowledgeCoinAmount",
              "type": "uint256"
            }
          ],
          "internalType": "struct ConfigStorage.uniMaSemesterReturn",
          "name": "semester",
          "type": "tuple"
        }
      ],
      "stateMutability": "view",
      "type": "function",
      "constant": true
    },
    {
      "inputs": [
        {
          "internalType": "uint256",
          "name": "_id",
          "type": "uint256"
        }
      ],
      "name": "deleteSemester",
      "outputs": [],
      "stateMutability": "nonpayable",
      "type": "function"
    },
    {
      "inputs": [],
      "name": "getSemesterCounter",
      "outputs": [
        {
          "internalType": "uint256",
          "name": "",
          "type": "uint256"
        }
      ],
      "stateMutability": "view",
      "type": "function",
      "constant": true
    },
    {
      "inputs": [
        {
          "internalType": "uint256",
          "name": "_id",
          "type": "uint256"
        },
        {
          "internalType": "string",
          "name": "name",
          "type": "string"
        }
      ],
      "name": "setSemesterName",
      "outputs": [],
      "stateMutability": "nonpayable",
      "type": "function"
    },
    {
      "inputs": [
        {
          "internalType": "uint256",
          "name": "_id",
          "type": "uint256"
        },
        {
          "internalType": "uint256",
          "name": "_startBlock",
          "type": "uint256"
        }
      ],
      "name": "setSemesterStartBlock",
      "outputs": [],
      "stateMutability": "nonpayable",
      "type": "function"
    },
    {
      "inputs": [
        {
          "internalType": "uint256",
          "name": "_id",
          "type": "uint256"
        },
        {
          "internalType": "uint256",
          "name": "_endBlock",
          "type": "uint256"
        }
      ],
      "name": "setSemesterEndBlock",
      "outputs": [],
      "stateMutability": "nonpayable",
      "type": "function"
    },
    {
      "inputs": [
        {
          "internalType": "uint256",
          "name": "_id",
          "type": "uint256"
        },
        {
          "internalType": "uint256",
          "name": "_minKnowledgeCoinAmount",
          "type": "uint256"
        }
      ],
      "name": "setMinKnowledgeCoinAmount",
      "outputs": [],
      "stateMutability": "nonpayable",
      "type": "function"
    },
    {
      "inputs": [
        {
          "internalType": "uint256",
          "name": "_semesterId",
          "type": "uint256"
        },
        {
          "internalType": "string",
          "name": "_name",
          "type": "string"
        },
        {
          "internalType": "string",
          "name": "_link",
          "type": "string"
        },
        {
          "internalType": "address",
          "name": "_validationContractAddress",
          "type": "address"
        },
        {
          "internalType": "uint256",
          "name": "_startBlock",
          "type": "uint256"
        },
        {
          "internalType": "uint256",
          "name": "_endBlock",
          "type": "uint256"
        }
      ],
      "name": "appendAssignment",
      "outputs": [
        {
          "internalType": "uint256",
          "name": "",
          "type": "uint256"
        }
      ],
      "stateMutability": "nonpayable",
      "type": "function"
    },
    {
      "inputs": [
        {
          "internalType": "uint256",
          "name": "_semesterId",
          "type": "uint256"
        },
        {
          "internalType": "uint256",
          "name": "_assignmentId",
          "type": "uint256"
        }
      ],
      "name": "getAssignment",
      "outputs": [
        {
          "components": [
            {
              "internalType": "string",
              "name": "name",
              "type": "string"
            },
            {
              "internalType": "string",
              "name": "link",
              "type": "string"
            },
            {
              "internalType": "address",
              "name": "validationContractAddress",
              "type": "address"
            },
            {
              "internalType": "uint256",
              "name": "startBlock",
              "type": "uint256"
            },
            {
              "internalType": "uint256",
              "name": "endBlock",
              "type": "uint256"
            }
          ],
          "internalType": "struct ConfigStorage.uniMaAssignments",
          "name": "assignment",
          "type": "tuple"
        }
      ],
      "stateMutability": "view",
      "type": "function",
      "constant": true
    },
    {
      "inputs": [
        {
          "internalType": "uint256",
          "name": "_semesterId",
          "type": "uint256"
        },
        {
          "internalType": "uint256",
          "name": "_assignmentId",
          "type": "uint256"
        }
      ],
      "name": "deleteAssignment",
      "outputs": [],
      "stateMutability": "nonpayable",
      "type": "function"
    },
    {
      "inputs": [
        {
          "internalType": "uint256",
          "name": "semester_id",
          "type": "uint256"
        }
      ],
      "name": "getAssignmentCounter",
      "outputs": [
        {
          "internalType": "uint256",
          "name": "",
          "type": "uint256"
        }
      ],
      "stateMutability": "view",
      "type": "function",
      "constant": true
    },
    {
      "inputs": [
        {
          "internalType": "uint256",
          "name": "_semesterId",
          "type": "uint256"
        },
        {
          "internalType": "uint256",
          "name": "_assignmentId",
          "type": "uint256"
        },
        {
          "internalType": "string",
          "name": "name",
          "type": "string"
        }
      ],
      "name": "setAssignmentName",
      "outputs": [],
      "stateMutability": "nonpayable",
      "type": "function"
    },
    {
      "inputs": [
        {
          "internalType": "uint256",
          "name": "_semesterId",
          "type": "uint256"
        },
        {
          "internalType": "uint256",
          "name": "_assignmentId",
          "type": "uint256"
        },
        {
          "internalType": "string",
          "name": "link",
          "type": "string"
        }
      ],
      "name": "setAssignmentLink",
      "outputs": [],
      "stateMutability": "nonpayable",
      "type": "function"
    },
    {
      "inputs": [
        {
          "internalType": "uint256",
          "name": "_semesterId",
          "type": "uint256"
        },
        {
          "internalType": "uint256",
          "name": "_assignmentId",
          "type": "uint256"
        },
        {
          "internalType": "address",
          "name": "_address",
          "type": "address"
        }
      ],
      "name": "setAssignmentAddress",
      "outputs": [],
      "stateMutability": "nonpayable",
      "type": "function"
    },
    {
      "inputs": [
        {
          "internalType": "uint256",
          "name": "_semesterId",
          "type": "uint256"
        },
        {
          "internalType": "uint256",
          "name": "_assignmentId",
          "type": "uint256"
        },
        {
          "internalType": "uint256",
          "name": "_startBlock",
          "type": "uint256"
        }
      ],
      "name": "setAssignmentStartBlock",
      "outputs": [],
      "stateMutability": "nonpayable",
      "type": "function"
    },
    {
      "inputs": [
        {
          "internalType": "uint256",
          "name": "_semesterId",
          "type": "uint256"
        },
        {
          "internalType": "uint256",
          "name": "_assignmentId",
          "type": "uint256"
        },
        {
          "internalType": "uint256",
          "name": "_endBlock",
          "type": "uint256"
        }
      ],
      "name": "setAssignmentEndBlock",
      "outputs": [],
      "stateMutability": "nonpayable",
      "type": "function"
    },
    {
      "inputs": [
        {
          "internalType": "string",
          "name": "key",
          "type": "string"
        }
      ],
      "name": "getIntValue",
      "outputs": [
        {
          "internalType": "int128",
          "name": "",
          "type": "int128"
        }
      ],
      "stateMutability": "view",
      "type": "function",
      "constant": true
    },
    {
      "inputs": [
        {
          "internalType": "string",
          "name": "key",
          "type": "string"
        },
        {
          "internalType": "int128",
          "name": "value",
          "type": "int128"
        }
      ],
      "name": "setIntValue",
      "outputs": [],
      "stateMutability": "nonpayable",
      "type": "function"
    }
  ],
  "bytecode": "0x6080604052600060025534801561001557600080fd5b5033600160006101000a81548173ffffffffffffffffffffffffffffffffffffffff021916908373ffffffffffffffffffffffffffffffffffffffff160217905550600a6000806101000a8154816fffffffffffffffffffffffffffffffff0219169083600f0b6fffffffffffffffffffffffffffffffff160217905550600a600060106101000a8154816fffffffffffffffffffffffffffffffff0219169083600f0b6fffffffffffffffffffffffffffffffff1602179055506000600281905550612322806100e76000396000f3fe608060405234801561001057600080fd5b50600436106101215760003560e01c80637615c0dc116100ad578063bb5927c411610071578063bb5927c414610314578063be73cb2e14610330578063c8e3a5151461034c578063e07b049414610368578063f01bafac1461039857610121565b80637615c0dc1461024c578063877c218414610268578063a99b8c4014610298578063b062b830146102c8578063b95986d8146102e457610121565b80635a7c3c45116100f45780635a7c3c45146101aa578063653d90de146101c657806368975f4d146101e25780636e580a9b146101fe57806371c37c3a1461022e57610121565b80630b757d7514610126578063337f6e6b14610142578063442caa5214610172578063493428271461018e575b600080fd5b610140600480360381019061013b91906116d2565b6103b4565b005b61015c60048036038101906101579190611712565b610463565b604051610169919061174e565b60405180910390f35b61018c60048036038101906101879190611769565b610483565b005b6101a860048036038101906101a391906116d2565b610547565b005b6101c460048036038101906101bf9190611902565b6105f6565b005b6101e060048036038101906101db9190611971565b6106c3565b005b6101fc60048036038101906101f79190611769565b61077b565b005b61021860048036038101906102139190611a2b565b61083f565b604051610225919061174e565b60405180910390f35b610236610a58565b604051610243919061174e565b60405180910390f35b61026660048036038101906102619190611b29565b610a62565b005b610282600480360381019061027d9190611b85565b610c08565b60405161028f9190611bdd565b60405180910390f35b6102b260048036038101906102ad9190611bf8565b610cd4565b6040516102bf919061174e565b60405180910390f35b6102e260048036038101906102dd9190611c7b565b610e1d565b005b6102fe60048036038101906102f99190611712565b610f1b565b60405161030b9190611dbf565b60405180910390f35b61032e600480360381019061032991906116d2565b61102b565b005b61034a60048036038101906103459190611712565b611140565b005b610366600480360381019061036191906116d2565b611219565b005b610382600480360381019061037d91906116d2565b6112c8565b60405161038f9190611e6d565b60405180910390f35b6103b260048036038101906103ad9190611902565b611498565b005b600160009054906101000a900473ffffffffffffffffffffffffffffffffffffffff1673ffffffffffffffffffffffffffffffffffffffff163373ffffffffffffffffffffffffffffffffffffffff1614610444576040517f08c379a000000000000000000000000000000000000000000000000000000000815260040161043b90611f38565b60405180910390fd5b8060036000848152602001908152602001600020600301819055505050565b600060036000838152602001908152602001600020600401549050919050565b600160009054906101000a900473ffffffffffffffffffffffffffffffffffffffff1673ffffffffffffffffffffffffffffffffffffffff163373ffffffffffffffffffffffffffffffffffffffff1614610513576040517f08c379a000000000000000000000000000000000000000000000000000000000815260040161050a90611f38565b60405180910390fd5b8060036000858152602001908152602001600020600501600084815260200190815260200160002060040181905550505050565b600160009054906101000a900473ffffffffffffffffffffffffffffffffffffffff1673ffffffffffffffffffffffffffffffffffffffff163373ffffffffffffffffffffffffffffffffffffffff16146105d7576040517f08c379a00000000000000000000000000000000000000000000000000000000081526004016105ce90611f38565b60405180910390fd5b8060036000848152602001908152602001600020600101819055505050565b600160009054906101000a900473ffffffffffffffffffffffffffffffffffffffff1673ffffffffffffffffffffffffffffffffffffffff163373ffffffffffffffffffffffffffffffffffffffff1614610686576040517f08c379a000000000000000000000000000000000000000000000000000000000815260040161067d90611f38565b60405180910390fd5b8060036000858152602001908152602001600020600501600084815260200190815260200160002060000190816106bd9190612164565b50505050565b600160009054906101000a900473ffffffffffffffffffffffffffffffffffffffff1673ffffffffffffffffffffffffffffffffffffffff163373ffffffffffffffffffffffffffffffffffffffff1614610753576040517f08c379a000000000000000000000000000000000000000000000000000000000815260040161074a90611f38565b60405180910390fd5b806003600084815260200190815260200160002060000190816107769190612164565b505050565b600160009054906101000a900473ffffffffffffffffffffffffffffffffffffffff1673ffffffffffffffffffffffffffffffffffffffff163373ffffffffffffffffffffffffffffffffffffffff161461080b576040517f08c379a000000000000000000000000000000000000000000000000000000000815260040161080290611f38565b60405180910390fd5b8060036000858152602001908152602001600020600501600084815260200190815260200160002060030181905550505050565b6000600160009054906101000a900473ffffffffffffffffffffffffffffffffffffffff1673ffffffffffffffffffffffffffffffffffffffff163373ffffffffffffffffffffffffffffffffffffffff16146108d1576040517f08c379a00000000000000000000000000000000000000000000000000000000081526004016108c890611f38565b60405180910390fd5b60006001600360008a8152602001908152602001600020600401546108f69190612265565b905086600360008a81526020019081526020016000206005016000838152602001908152602001600020600001908161092f9190612164565b5085600360008a8152602001908152602001600020600501600083815260200190815260200160002060010190816109679190612164565b5084600360008a8152602001908152602001600020600501600083815260200190815260200160002060020160006101000a81548173ffffffffffffffffffffffffffffffffffffffff021916908373ffffffffffffffffffffffffffffffffffffffff16021790555083600360008a815260200190815260200160002060050160008381526020019081526020016000206003018190555082600360008a815260200190815260200160002060050160008381526020019081526020016000206004018190555080600360008a815260200190815260200160002060040181905550809150509695505050505050565b6000600254905090565b600160009054906101000a900473ffffffffffffffffffffffffffffffffffffffff1673ffffffffffffffffffffffffffffffffffffffff163373ffffffffffffffffffffffffffffffffffffffff1614610af2576040517f08c379a0000000000000000000000000000000000000000000000000000000008152600401610ae990611f38565b60405180910390fd5b60011515610b35836040518060400160405280600981526020017f6661756365744761730000000000000000000000000000000000000000000000815250611565565b151503610b7c57806000806101000a8154816fffffffffffffffffffffffffffffffff0219169083600f0b6fffffffffffffffffffffffffffffffff160217905550610c04565b60011515610bbf836040518060400160405280601781526020017f666175636574426c6f636b4e6f446966666572656e6365000000000000000000815250611565565b151503610c035780600060106101000a8154816fffffffffffffffffffffffffffffffff0219169083600f0b6fffffffffffffffffffffffffffffffff1602179055505b5b5050565b600060011515610c4d836040518060400160405280600981526020017f6661756365744761730000000000000000000000000000000000000000000000815250611565565b151503610c695760008054906101000a9004600f0b9050610ccf565b60011515610cac836040518060400160405280601781526020017f666175636574426c6f636b4e6f446966666572656e6365000000000000000000815250611565565b151503610cca57600060109054906101000a9004600f0b9050610ccf565b600090505b919050565b6000600160009054906101000a900473ffffffffffffffffffffffffffffffffffffffff1673ffffffffffffffffffffffffffffffffffffffff163373ffffffffffffffffffffffffffffffffffffffff1614610d66576040517f08c379a0000000000000000000000000000000000000000000000000000000008152600401610d5d90611f38565b60405180910390fd5b60006001600254610d779190612265565b905085600360008381526020019081526020016000206000019081610d9c9190612164565b50846003600083815260200190815260200160002060010181905550836003600083815260200190815260200160002060020181905550826003600083815260200190815260200160002060030181905550600060036000838152602001908152602001600020600401819055508060028190555080915050949350505050565b600160009054906101000a900473ffffffffffffffffffffffffffffffffffffffff1673ffffffffffffffffffffffffffffffffffffffff163373ffffffffffffffffffffffffffffffffffffffff1614610ead576040517f08c379a0000000000000000000000000000000000000000000000000000000008152600401610ea490611f38565b60405180910390fd5b8060036000858152602001908152602001600020600501600084815260200190815260200160002060020160006101000a81548173ffffffffffffffffffffffffffffffffffffffff021916908373ffffffffffffffffffffffffffffffffffffffff160217905550505050565b610f236115be565b6040518060800160405280600360008581526020019081526020016000206000018054610f4f90611f87565b80601f0160208091040260200160405190810160405280929190818152602001828054610f7b90611f87565b8015610fc85780601f10610f9d57610100808354040283529160200191610fc8565b820191906000526020600020905b815481529060010190602001808311610fab57829003601f168201915b50505050508152602001600360008581526020019081526020016000206001015481526020016003600085815260200190815260200160002060020154815260200160036000858152602001908152602001600020600301548152509050919050565b600160009054906101000a900473ffffffffffffffffffffffffffffffffffffffff1673ffffffffffffffffffffffffffffffffffffffff163373ffffffffffffffffffffffffffffffffffffffff16146110bb576040517f08c379a00000000000000000000000000000000000000000000000000000000081526004016110b290611f38565b60405180910390fd5b600360008381526020019081526020016000206005016000828152602001908152602001600020600080820160006110f391906115e6565b60018201600061110391906115e6565b6002820160006101000a81549073ffffffffffffffffffffffffffffffffffffffff02191690556003820160009055600482016000905550505050565b600160009054906101000a900473ffffffffffffffffffffffffffffffffffffffff1673ffffffffffffffffffffffffffffffffffffffff163373ffffffffffffffffffffffffffffffffffffffff16146111d0576040517f08c379a00000000000000000000000000000000000000000000000000000000081526004016111c790611f38565b60405180910390fd5b60036000828152602001908152602001600020600080820160006111f491906115e6565b6001820160009055600282016000905560038201600090556004820160009055505050565b600160009054906101000a900473ffffffffffffffffffffffffffffffffffffffff1673ffffffffffffffffffffffffffffffffffffffff163373ffffffffffffffffffffffffffffffffffffffff16146112a9576040517f08c379a00000000000000000000000000000000000000000000000000000000081526004016112a090611f38565b60405180910390fd5b8060036000848152602001908152602001600020600201819055505050565b6112d0611626565b6003600084815260200190815260200160002060050160008381526020019081526020016000206040518060a001604052908160008201805461131290611f87565b80601f016020809104026020016040519081016040528092919081815260200182805461133e90611f87565b801561138b5780601f106113605761010080835404028352916020019161138b565b820191906000526020600020905b81548152906001019060200180831161136e57829003601f168201915b505050505081526020016001820180546113a490611f87565b80601f01602080910402602001604051908101604052809291908181526020018280546113d090611f87565b801561141d5780601f106113f25761010080835404028352916020019161141d565b820191906000526020600020905b81548152906001019060200180831161140057829003601f168201915b505050505081526020016002820160009054906101000a900473ffffffffffffffffffffffffffffffffffffffff1673ffffffffffffffffffffffffffffffffffffffff1673ffffffffffffffffffffffffffffffffffffffff16815260200160038201548152602001600482015481525050905092915050565b600160009054906101000a900473ffffffffffffffffffffffffffffffffffffffff1673ffffffffffffffffffffffffffffffffffffffff163373ffffffffffffffffffffffffffffffffffffffff1614611528576040517f08c379a000000000000000000000000000000000000000000000000000000000815260040161151f90611f38565b60405180910390fd5b80600360008581526020019081526020016000206005016000848152602001908152602001600020600101908161155f9190612164565b50505050565b60008160405160200161157891906122d5565b604051602081830303815290604052805190602001208360405160200161159f91906122d5565b6040516020818303038152906040528051906020012014905092915050565b6040518060800160405280606081526020016000815260200160008152602001600081525090565b5080546115f290611f87565b6000825580601f106116045750611623565b601f016020900490600052602060002090810190611622919061166b565b5b50565b6040518060a001604052806060815260200160608152602001600073ffffffffffffffffffffffffffffffffffffffff16815260200160008152602001600081525090565b5b8082111561168457600081600090555060010161166c565b5090565b6000604051905090565b600080fd5b600080fd5b6000819050919050565b6116af8161169c565b81146116ba57600080fd5b50565b6000813590506116cc816116a6565b92915050565b600080604083850312156116e9576116e8611692565b5b60006116f7858286016116bd565b9250506020611708858286016116bd565b9150509250929050565b60006020828403121561172857611727611692565b5b6000611736848285016116bd565b91505092915050565b6117488161169c565b82525050565b6000602082019050611763600083018461173f565b92915050565b60008060006060848603121561178257611781611692565b5b6000611790868287016116bd565b93505060206117a1868287016116bd565b92505060406117b2868287016116bd565b9150509250925092565b600080fd5b600080fd5b6000601f19601f8301169050919050565b7f4e487b7100000000000000000000000000000000000000000000000000000000600052604160045260246000fd5b61180f826117c6565b810181811067ffffffffffffffff8211171561182e5761182d6117d7565b5b80604052505050565b6000611841611688565b905061184d8282611806565b919050565b600067ffffffffffffffff82111561186d5761186c6117d7565b5b611876826117c6565b9050602081019050919050565b82818337600083830152505050565b60006118a56118a084611852565b611837565b9050828152602081018484840111156118c1576118c06117c1565b5b6118cc848285611883565b509392505050565b600082601f8301126118e9576118e86117bc565b5b81356118f9848260208601611892565b91505092915050565b60008060006060848603121561191b5761191a611692565b5b6000611929868287016116bd565b935050602061193a868287016116bd565b925050604084013567ffffffffffffffff81111561195b5761195a611697565b5b611967868287016118d4565b9150509250925092565b6000806040838503121561198857611987611692565b5b6000611996858286016116bd565b925050602083013567ffffffffffffffff8111156119b7576119b6611697565b5b6119c3858286016118d4565b9150509250929050565b600073ffffffffffffffffffffffffffffffffffffffff82169050919050565b60006119f8826119cd565b9050919050565b611a08816119ed565b8114611a1357600080fd5b50565b600081359050611a25816119ff565b92915050565b60008060008060008060c08789031215611a4857611a47611692565b5b6000611a5689828a016116bd565b965050602087013567ffffffffffffffff811115611a7757611a76611697565b5b611a8389828a016118d4565b955050604087013567ffffffffffffffff811115611aa457611aa3611697565b5b611ab089828a016118d4565b9450506060611ac189828a01611a16565b9350506080611ad289828a016116bd565b92505060a0611ae389828a016116bd565b9150509295509295509295565b600081600f0b9050919050565b611b0681611af0565b8114611b1157600080fd5b50565b600081359050611b2381611afd565b92915050565b60008060408385031215611b4057611b3f611692565b5b600083013567ffffffffffffffff811115611b5e57611b5d611697565b5b611b6a858286016118d4565b9250506020611b7b85828601611b14565b9150509250929050565b600060208284031215611b9b57611b9a611692565b5b600082013567ffffffffffffffff811115611bb957611bb8611697565b5b611bc5848285016118d4565b91505092915050565b611bd781611af0565b82525050565b6000602082019050611bf26000830184611bce565b92915050565b60008060008060808587031215611c1257611c11611692565b5b600085013567ffffffffffffffff811115611c3057611c2f611697565b5b611c3c878288016118d4565b9450506020611c4d878288016116bd565b9350506040611c5e878288016116bd565b9250506060611c6f878288016116bd565b91505092959194509250565b600080600060608486031215611c9457611c93611692565b5b6000611ca2868287016116bd565b9350506020611cb3868287016116bd565b9250506040611cc486828701611a16565b9150509250925092565b600081519050919050565b600082825260208201905092915050565b60005b83811015611d08578082015181840152602081019050611ced565b60008484015250505050565b6000611d1f82611cce565b611d298185611cd9565b9350611d39818560208601611cea565b611d42816117c6565b840191505092915050565b611d568161169c565b82525050565b60006080830160008301518482036000860152611d798282611d14565b9150506020830151611d8e6020860182611d4d565b506040830151611da16040860182611d4d565b506060830151611db46060860182611d4d565b508091505092915050565b60006020820190508181036000830152611dd98184611d5c565b905092915050565b611dea816119ed565b82525050565b600060a0830160008301518482036000860152611e0d8282611d14565b91505060208301518482036020860152611e278282611d14565b9150506040830151611e3c6040860182611de1565b506060830151611e4f6060860182611d4d565b506080830151611e626080860182611d4d565b508091505092915050565b60006020820190508181036000830152611e878184611df0565b905092915050565b600082825260208201905092915050565b7f5065726d697373696f6e2064656e69656421205468652061646472657373206960008201527f73206e6f7420616c6c6f77656420746f2065786563757465732074686973207360208201527f6d61727420636f6e74726163742066756e6374696f6e21000000000000000000604082015250565b6000611f22605783611e8f565b9150611f2d82611ea0565b606082019050919050565b60006020820190508181036000830152611f5181611f15565b9050919050565b7f4e487b7100000000000000000000000000000000000000000000000000000000600052602260045260246000fd5b60006002820490506001821680611f9f57607f821691505b602082108103611fb257611fb1611f58565b5b50919050565b60008190508160005260206000209050919050565b60006020601f8301049050919050565b600082821b905092915050565b60006008830261201a7fffffffffffffffffffffffffffffffffffffffffffffffffffffffffffffffff82611fdd565b6120248683611fdd565b95508019841693508086168417925050509392505050565b6000819050919050565b600061206161205c6120578461169c565b61203c565b61169c565b9050919050565b6000819050919050565b61207b83612046565b61208f61208782612068565b848454611fea565b825550505050565b600090565b6120a4612097565b6120af818484612072565b505050565b5b818110156120d3576120c860008261209c565b6001810190506120b5565b5050565b601f821115612118576120e981611fb8565b6120f284611fcd565b81016020851015612101578190505b61211561210d85611fcd565b8301826120b4565b50505b505050565b600082821c905092915050565b600061213b6000198460080261211d565b1980831691505092915050565b6000612154838361212a565b9150826002028217905092915050565b61216d82611cce565b67ffffffffffffffff811115612186576121856117d7565b5b6121908254611f87565b61219b8282856120d7565b600060209050601f8311600181146121ce57600084156121bc578287015190505b6121c68582612148565b86555061222e565b601f1984166121dc86611fb8565b60005b82811015612204578489015182556001820191506020850194506020810190506121df565b86831015612221578489015161221d601f89168261212a565b8355505b6001600288020188555050505b505050505050565b7f4e487b7100000000000000000000000000000000000000000000000000000000600052601160045260246000fd5b60006122708261169c565b915061227b8361169c565b925082820190508082111561229357612292612236565b5b92915050565b600081905092915050565b60006122af82611cce565b6122b98185612299565b93506122c9818560208601611cea565b80840191505092915050565b60006122e182846122a4565b91508190509291505056fea26469706673582212207e46dc6c1259b7ed958e494eae2217e152ee1a8a263b038098d82cea4a130c2764736f6c63430008110033",
  "immutableReferences": {},
  "source": "// SPDX-License-Identifier: MIT\r\npragma solidity ^0.8.17;\r\n\r\ncontract ConfigStorage {\r\n    // Amount of gas the user can get using the faucet\r\n    int128 faucetGas;\r\n\r\n    // Amount of blocks difference between last faucet usage\r\n    int128 faucetBlockNoDifference;\r\n\r\n    // Address of owner\r\n    address owner;\r\n\r\n    // Struct Seminar\r\n    struct uniMaSemester {\r\n        // Name of the semester (e.g. SS22)\r\n        string name;\r\n        // First block which counts towards this semester\r\n        uint256 startBlock;\r\n        // Last block which counts towards this semester\r\n        uint256 endBlock;\r\n        // Amount of knowledge Coins needed to take exam\r\n        uint256 minKnowledgeCoinAmount;\r\n        // Assignment counter\r\n        uint256 assignmentCounter;\r\n        // Assigned assignments\r\n        mapping(uint256 => uniMaAssignments) assignments;\r\n    }\r\n\r\n    // Struct Seminar\r\n    struct uniMaSemesterReturn {\r\n        // Name of the semester (e.g. SS22)\r\n        string name;\r\n        // First block which counts towards this semester\r\n        uint256 startBlock;\r\n        // Last block which counts towards this semester\r\n        uint256 endBlock;\r\n        // Amount of knowledge Coins needed to take exam\r\n        uint256 minKnowledgeCoinAmount;\r\n    }\r\n\r\n    // Assignments\r\n    struct uniMaAssignments {\r\n        // Name of the assignment\r\n        string name;\r\n        // Link to the assignment\r\n        string link;\r\n        // Address to the validation contrac\r\n        address validationContractAddress;\r\n        // First block which counts towards this assignment\r\n        uint256 startBlock;\r\n        // Last block which counts towards this assignment\r\n        uint256 endBlock;\r\n    }\r\n\r\n    uint256 semesterCounter = 0;\r\n    mapping(uint256 => uniMaSemester) semesters;\r\n\r\n    /**\r\n     * Constructor to set default config values\r\n     */\r\n    constructor() {\r\n        owner = msg.sender;\r\n\r\n        faucetGas = 10;\r\n        faucetBlockNoDifference = 10;\r\n\r\n        // Set counters to 0\r\n        semesterCounter = 0;\r\n    }\r\n\r\n    /*=============================================\r\n    =            Semester function            =\r\n    =============================================*/\r\n\r\n    function appendSemester(\r\n        string memory _name,\r\n        uint256 _startBlock,\r\n        uint256 _endBlock,\r\n        uint256 _minKnowledgeCoinAmount\r\n    ) public returns (uint256) {\r\n        require(\r\n            msg.sender == owner,\r\n            \"Permission denied! The address is not allowed to executes this smart contract function!\"\r\n        );\r\n\r\n        uint256 index = semesterCounter + 1;\r\n\r\n        semesters[index].name = _name;\r\n        semesters[index].startBlock = _startBlock;\r\n        semesters[index].endBlock = _endBlock;\r\n        semesters[index].minKnowledgeCoinAmount = _minKnowledgeCoinAmount;\r\n        semesters[index].assignmentCounter = 0;\r\n\r\n        semesterCounter = index;\r\n\r\n        return index;\r\n    }\r\n\r\n    function getSemester(uint256 _id)\r\n        public\r\n        view\r\n        returns (uniMaSemesterReturn memory semester)\r\n    {\r\n        return\r\n            uniMaSemesterReturn(\r\n                semesters[_id].name,\r\n                semesters[_id].startBlock,\r\n                semesters[_id].endBlock,\r\n                semesters[_id].minKnowledgeCoinAmount\r\n            );\r\n    }\r\n\r\n    function deleteSemester(uint256 _id) public {\r\n        require(\r\n            msg.sender == owner,\r\n            \"Permission denied! The address is not allowed to executes this smart contract function!\"\r\n        );\r\n\r\n        delete semesters[_id];\r\n    }\r\n\r\n    function getSemesterCounter() public view returns (uint256) {\r\n        return semesterCounter;\r\n    }\r\n\r\n    /*----------  Setter  ----------*/\r\n\r\n    function setSemesterName(uint256 _id, string memory name) public {\r\n        require(\r\n            msg.sender == owner,\r\n            \"Permission denied! The address is not allowed to executes this smart contract function!\"\r\n        );\r\n        semesters[_id].name = name;\r\n    }\r\n\r\n    function setSemesterStartBlock(uint256 _id, uint256 _startBlock) public {\r\n        require(\r\n            msg.sender == owner,\r\n            \"Permission denied! The address is not allowed to executes this smart contract function!\"\r\n        );\r\n        semesters[_id].startBlock = _startBlock;\r\n    }\r\n\r\n    function setSemesterEndBlock(uint256 _id, uint256 _endBlock) public {\r\n        require(\r\n            msg.sender == owner,\r\n            \"Permission denied! The address is not allowed to executes this smart contract function!\"\r\n        );\r\n        semesters[_id].endBlock = _endBlock;\r\n    }\r\n\r\n    function setMinKnowledgeCoinAmount(\r\n        uint256 _id,\r\n        uint256 _minKnowledgeCoinAmount\r\n    ) public {\r\n        require(\r\n            msg.sender == owner,\r\n            \"Permission denied! The address is not allowed to executes this smart contract function!\"\r\n        );\r\n        semesters[_id].minKnowledgeCoinAmount = _minKnowledgeCoinAmount;\r\n    }\r\n\r\n    /*=====  End of Semester function  ======*/\r\n\r\n    /*=============================================\r\n    =            Assignment functions            =\r\n    =============================================*/\r\n\r\n    function appendAssignment(\r\n        uint256 _semesterId,\r\n        string memory _name,\r\n        string memory _link,\r\n        address _validationContractAddress,\r\n        uint256 _startBlock,\r\n        uint256 _endBlock\r\n    ) public returns (uint256) {\r\n        require(\r\n            msg.sender == owner,\r\n            \"Permission denied! The address is not allowed to executes this smart contract function!\"\r\n        );\r\n\r\n        uint256 index = semesters[_semesterId].assignmentCounter + 1;\r\n\r\n        semesters[_semesterId].assignments[index].name = _name;\r\n        semesters[_semesterId].assignments[index].link = _link;\r\n        semesters[_semesterId]\r\n            .assignments[index]\r\n            .validationContractAddress = _validationContractAddress;\r\n        semesters[_semesterId].assignments[index].startBlock = _startBlock;\r\n        semesters[_semesterId].assignments[index].endBlock = _endBlock;\r\n\r\n        semesters[_semesterId].assignmentCounter = index;\r\n\r\n        return index;\r\n    }\r\n\r\n    function getAssignment(uint256 _semesterId, uint256 _assignmentId)\r\n        public\r\n        view\r\n        returns (uniMaAssignments memory assignment)\r\n    {\r\n        return semesters[_semesterId].assignments[_assignmentId];\r\n    }\r\n\r\n    function deleteAssignment(uint256 _semesterId, uint256 _assignmentId)\r\n        public\r\n    {\r\n        require(\r\n            msg.sender == owner,\r\n            \"Permission denied! The address is not allowed to executes this smart contract function!\"\r\n        );\r\n        delete semesters[_semesterId].assignments[_assignmentId];\r\n    }\r\n\r\n    function getAssignmentCounter(uint256 semester_id)\r\n        public\r\n        view\r\n        returns (uint256)\r\n    {\r\n        return semesters[semester_id].assignmentCounter;\r\n    }\r\n\r\n    /*----------  Setter  ----------*/\r\n\r\n    function setAssignmentName(\r\n        uint256 _semesterId,\r\n        uint256 _assignmentId,\r\n        string memory name\r\n    ) public {\r\n        require(\r\n            msg.sender == owner,\r\n            \"Permission denied! The address is not allowed to executes this smart contract function!\"\r\n        );\r\n        semesters[_semesterId].assignments[_assignmentId].name = name;\r\n    }\r\n\r\n    function setAssignmentLink(\r\n        uint256 _semesterId,\r\n        uint256 _assignmentId,\r\n        string memory link\r\n    ) public {\r\n        require(\r\n            msg.sender == owner,\r\n            \"Permission denied! The address is not allowed to executes this smart contract function!\"\r\n        );\r\n        semesters[_semesterId].assignments[_assignmentId].link = link;\r\n    }\r\n\r\n    function setAssignmentAddress(\r\n        uint256 _semesterId,\r\n        uint256 _assignmentId,\r\n        address _address\r\n    ) public {\r\n        require(\r\n            msg.sender == owner,\r\n            \"Permission denied! The address is not allowed to executes this smart contract function!\"\r\n        );\r\n        semesters[_semesterId]\r\n            .assignments[_assignmentId]\r\n            .validationContractAddress = _address;\r\n    }\r\n\r\n    function setAssignmentStartBlock(\r\n        uint256 _semesterId,\r\n        uint256 _assignmentId,\r\n        uint256 _startBlock\r\n    ) public {\r\n        require(\r\n            msg.sender == owner,\r\n            \"Permission denied! The address is not allowed to executes this smart contract function!\"\r\n        );\r\n        semesters[_semesterId]\r\n            .assignments[_assignmentId]\r\n            .startBlock = _startBlock;\r\n    }\r\n\r\n    function setAssignmentEndBlock(\r\n        uint256 _semesterId,\r\n        uint256 _assignmentId,\r\n        uint256 _endBlock\r\n    ) public {\r\n        require(\r\n            msg.sender == owner,\r\n            \"Permission denied! The address is not allowed to executes this smart contract function!\"\r\n        );\r\n        semesters[_semesterId].assignments[_assignmentId].endBlock = _endBlock;\r\n    }\r\n\r\n    /*=====  End of Assignment functions  ======*/\r\n\r\n    /*=============================================\r\n    =            Other functions            =\r\n    =============================================*/\r\n\r\n    function getIntValue(string memory key) public view returns (int128) {\r\n        if (compareStrings(key, \"faucetGas\") == true) {\r\n            return faucetGas;\r\n        } else if (compareStrings(key, \"faucetBlockNoDifference\") == true) {\r\n            return faucetBlockNoDifference;\r\n        }\r\n        return 0;\r\n    }\r\n\r\n    function setIntValue(string memory key, int128 value) public {\r\n        require(\r\n            msg.sender == owner,\r\n            \"Permission denied! The address is not allowed to executes this smart contract function!\"\r\n        );\r\n\r\n        if (compareStrings(key, \"faucetGas\") == true) {\r\n            faucetGas = value;\r\n        } else if (compareStrings(key, \"faucetBlockNoDifference\") == true) {\r\n            faucetBlockNoDifference = value;\r\n        }\r\n    }\r\n\r\n    /*=====  End of Other functions  ======*/\r\n\r\n    /*=============================================\r\n    =            Helper Functions            =\r\n    =============================================*/\r\n\r\n    function compareStrings(string memory a, string memory b)\r\n        internal\r\n        view\r\n        returns (bool)\r\n    {\r\n        return (keccak256(abi.encodePacked((a))) ==\r\n            keccak256(abi.encodePacked((b))));\r\n    }\r\n    /*=====  End of Helper Functions  ======*/\r\n}\r\n",
  "sourcePath": "C:\\Users\\elias\\OneDrive\\Dokumente\\Blockchain\\mtp-blockchain\\smart-contracts\\contracts\\ConfigStorage.sol",
  "compiler": {
    "name": "solc",
    "version": "0.8.17+commit.8df45f5f.Emscripten.clang"
  },
  "schemaVersion": "3.4.10",
  "updatedAt": "2022-11-17T16:46:25.105Z",
  "networkType": "ethereum",
  "devdoc": {
    "kind": "dev",
    "methods": {},
    "version": 1
  },
  "userdoc": {
    "kind": "user",
    "methods": {
      "constructor": {
        "notice": "Constructor to set default config values"
      }
    },
    "version": 1
  }
}