{
  "contractName": "ConfigStorage",
  "abi": [
    {
      "inputs": [],
      "stateMutability": "nonpayable",
      "type": "constructor"
    },
    {
      "inputs": [
        {
          "internalType": "address",
          "name": "contractAdmin",
          "type": "address"
        },
        {
          "internalType": "string",
          "name": "contractName",
          "type": "string"
        }
      ],
      "name": "addContractAdmin",
      "outputs": [],
      "stateMutability": "nonpayable",
      "type": "function"
    },
    {
      "inputs": [
        {
          "internalType": "address",
          "name": "userAdmin",
          "type": "address"
        }
      ],
      "name": "addUserAdmin",
      "outputs": [],
      "stateMutability": "nonpayable",
      "type": "function"
    },
    {
      "inputs": [],
      "name": "getContractAdminAddresses",
      "outputs": [
        {
          "internalType": "address[]",
          "name": "",
          "type": "address[]"
        }
      ],
      "stateMutability": "view",
      "type": "function"
    },
    {
      "inputs": [],
      "name": "getContractAdmins",
      "outputs": [
        {
          "components": [
            {
              "internalType": "string",
              "name": "contractName",
              "type": "string"
            },
            {
              "internalType": "address",
              "name": "contractAddress",
              "type": "address"
            },
            {
              "internalType": "bool",
              "name": "isContractAdmin",
              "type": "bool"
            }
          ],
          "internalType": "struct BaseConfigAdmin.ContractAdmin[]",
          "name": "",
          "type": "tuple[]"
        }
      ],
      "stateMutability": "view",
      "type": "function"
    },
    {
      "inputs": [],
      "name": "getContractAdminsLength",
      "outputs": [
        {
          "internalType": "uint256",
          "name": "",
          "type": "uint256"
        }
      ],
      "stateMutability": "view",
      "type": "function"
    },
    {
      "inputs": [],
      "name": "getUserAdmins",
      "outputs": [
        {
          "internalType": "address[]",
          "name": "",
          "type": "address[]"
        }
      ],
      "stateMutability": "view",
      "type": "function"
    },
    {
      "inputs": [],
      "name": "getUserAdminsLength",
      "outputs": [
        {
          "internalType": "uint256",
          "name": "",
          "type": "uint256"
        }
      ],
      "stateMutability": "view",
      "type": "function"
    },
    {
      "inputs": [
        {
          "internalType": "address",
          "name": "possibleAdmin",
          "type": "address"
        }
      ],
      "name": "isAdmin",
      "outputs": [
        {
          "internalType": "bool",
          "name": "",
          "type": "bool"
        }
      ],
      "stateMutability": "view",
      "type": "function"
    },
    {
      "inputs": [
        {
          "internalType": "address",
          "name": "possibleContractAdmin",
          "type": "address"
        }
      ],
      "name": "isContractAdmin",
      "outputs": [
        {
          "internalType": "bool",
          "name": "",
          "type": "bool"
        }
      ],
      "stateMutability": "view",
      "type": "function"
    },
    {
      "inputs": [
        {
          "internalType": "address",
          "name": "possibleUserAdmin",
          "type": "address"
        }
      ],
      "name": "isUserAdmin",
      "outputs": [
        {
          "internalType": "bool",
          "name": "",
          "type": "bool"
        }
      ],
      "stateMutability": "view",
      "type": "function"
    },
    {
      "inputs": [],
      "name": "knowledgeCoinContractAddress",
      "outputs": [
        {
          "internalType": "address",
          "name": "",
          "type": "address"
        }
      ],
      "stateMutability": "view",
      "type": "function"
    },
    {
      "inputs": [
        {
          "internalType": "address",
          "name": "contractAdmin",
          "type": "address"
        }
      ],
      "name": "removeContractAdmin",
      "outputs": [],
      "stateMutability": "nonpayable",
      "type": "function"
    },
    {
      "inputs": [
        {
          "internalType": "address",
          "name": "userAdmin",
          "type": "address"
        }
      ],
      "name": "removeUserAdmin",
      "outputs": [],
      "stateMutability": "nonpayable",
      "type": "function"
    },
    {
      "inputs": [
        {
          "internalType": "address",
          "name": "possibleAdmin",
          "type": "address"
        }
      ],
      "name": "requireAdmin",
      "outputs": [
        {
          "internalType": "bool",
          "name": "",
          "type": "bool"
        }
      ],
      "stateMutability": "view",
      "type": "function"
    },
    {
      "inputs": [
        {
          "internalType": "address",
          "name": "possibleContractAdmin",
          "type": "address"
        }
      ],
      "name": "requireContractAdmin",
      "outputs": [
        {
          "internalType": "bool",
          "name": "",
          "type": "bool"
        }
      ],
      "stateMutability": "view",
      "type": "function"
    },
    {
      "inputs": [],
      "name": "requireMsgSenderAdmin",
      "outputs": [
        {
          "internalType": "bool",
          "name": "",
          "type": "bool"
        }
      ],
      "stateMutability": "view",
      "type": "function"
    },
    {
      "inputs": [],
      "name": "requireOriginAdmin",
      "outputs": [
        {
          "internalType": "bool",
          "name": "",
          "type": "bool"
        }
      ],
      "stateMutability": "view",
      "type": "function"
    },
    {
      "inputs": [
        {
          "internalType": "address",
          "name": "possibleUserAdmin",
          "type": "address"
        }
      ],
      "name": "requireUserAdmin",
      "outputs": [
        {
          "internalType": "bool",
          "name": "",
          "type": "bool"
        }
      ],
      "stateMutability": "view",
      "type": "function"
    },
    {
      "inputs": [
        {
          "internalType": "address",
          "name": "_address",
          "type": "address"
        }
      ],
      "name": "setKnowledgeCoinContractAdress",
      "outputs": [],
      "stateMutability": "nonpayable",
      "type": "function"
    },
    {
      "inputs": [],
      "name": "getKnowledgeCoinContractAddress",
      "outputs": [
        {
          "internalType": "address",
          "name": "",
          "type": "address"
        }
      ],
      "stateMutability": "view",
      "type": "function"
    },
    {
      "inputs": [
        {
          "internalType": "string",
          "name": "_name",
          "type": "string"
        },
        {
          "internalType": "uint256",
          "name": "_startBlock",
          "type": "uint256"
        },
        {
          "internalType": "uint256",
          "name": "_endBlock",
          "type": "uint256"
        },
        {
          "internalType": "uint256",
          "name": "_minKnowledgeCoinAmount",
          "type": "uint256"
        }
      ],
      "name": "appendSemester",
      "outputs": [
        {
          "internalType": "uint256",
          "name": "",
          "type": "uint256"
        }
      ],
      "stateMutability": "nonpayable",
      "type": "function"
    },
    {
      "inputs": [
        {
          "internalType": "uint256",
          "name": "_id",
          "type": "uint256"
        }
      ],
      "name": "getSemester",
      "outputs": [
        {
          "components": [
            {
              "internalType": "string",
              "name": "name",
              "type": "string"
            },
            {
              "internalType": "uint256",
              "name": "startBlock",
              "type": "uint256"
            },
            {
              "internalType": "uint256",
              "name": "endBlock",
              "type": "uint256"
            },
            {
              "internalType": "uint256",
              "name": "minKnowledgeCoinAmount",
              "type": "uint256"
            }
          ],
          "internalType": "struct ConfigStorage.NOWSemesterReturn",
          "name": "semester",
          "type": "tuple"
        }
      ],
      "stateMutability": "view",
      "type": "function"
    },
    {
      "inputs": [],
      "name": "getSemesterIds",
      "outputs": [
        {
          "internalType": "uint256[]",
          "name": "",
          "type": "uint256[]"
        }
      ],
      "stateMutability": "view",
      "type": "function"
    },
    {
      "inputs": [
        {
          "internalType": "uint256",
          "name": "_id",
          "type": "uint256"
        }
      ],
      "name": "deleteSemester",
      "outputs": [],
      "stateMutability": "nonpayable",
      "type": "function"
    },
    {
      "inputs": [],
      "name": "getSemesterCounter",
      "outputs": [
        {
          "internalType": "uint256",
          "name": "",
          "type": "uint256"
        }
      ],
      "stateMutability": "view",
      "type": "function"
    },
    {
      "inputs": [
        {
          "internalType": "uint256",
          "name": "_semesterId",
          "type": "uint256"
        }
      ],
      "name": "hasSemesterId",
      "outputs": [
        {
          "internalType": "bool",
          "name": "",
          "type": "bool"
        }
      ],
      "stateMutability": "view",
      "type": "function"
    },
    {
      "inputs": [
        {
          "internalType": "uint256",
          "name": "_id",
          "type": "uint256"
        },
        {
          "internalType": "string",
          "name": "name",
          "type": "string"
        }
      ],
      "name": "setSemesterName",
      "outputs": [],
      "stateMutability": "nonpayable",
      "type": "function"
    },
    {
      "inputs": [
        {
          "internalType": "uint256",
          "name": "_id",
          "type": "uint256"
        },
        {
          "internalType": "uint256",
          "name": "_startBlock",
          "type": "uint256"
        }
      ],
      "name": "setSemesterStartBlock",
      "outputs": [],
      "stateMutability": "nonpayable",
      "type": "function"
    },
    {
      "inputs": [
        {
          "internalType": "uint256",
          "name": "_id",
          "type": "uint256"
        },
        {
          "internalType": "uint256",
          "name": "_endBlock",
          "type": "uint256"
        }
      ],
      "name": "setSemesterEndBlock",
      "outputs": [],
      "stateMutability": "nonpayable",
      "type": "function"
    },
    {
      "inputs": [
        {
          "internalType": "uint256",
          "name": "_id",
          "type": "uint256"
        },
        {
          "internalType": "uint256",
          "name": "_minKnowledgeCoinAmount",
          "type": "uint256"
        }
      ],
      "name": "setSemesterMinKnowledgeCoinAmount",
      "outputs": [],
      "stateMutability": "nonpayable",
      "type": "function"
    },
    {
      "inputs": [
        {
          "internalType": "uint256",
          "name": "_semesterId",
          "type": "uint256"
        },
        {
          "internalType": "string",
          "name": "_name",
          "type": "string"
        },
        {
          "internalType": "string",
          "name": "_link",
          "type": "string"
        },
        {
          "internalType": "address",
          "name": "_validationContractAddress",
          "type": "address"
        },
        {
          "internalType": "uint256",
          "name": "_startBlock",
          "type": "uint256"
        },
        {
          "internalType": "uint256",
          "name": "_endBlock",
          "type": "uint256"
        }
      ],
      "name": "appendAssignment",
      "outputs": [
        {
          "internalType": "uint256",
          "name": "",
          "type": "uint256"
        }
      ],
      "stateMutability": "nonpayable",
      "type": "function"
    },
    {
      "inputs": [
        {
          "internalType": "uint256",
          "name": "_semesterId",
          "type": "uint256"
        },
        {
          "internalType": "uint256",
          "name": "_assignmentId",
          "type": "uint256"
        }
      ],
      "name": "getAssignment",
      "outputs": [
        {
          "components": [
            {
              "internalType": "string",
              "name": "name",
              "type": "string"
            },
            {
              "internalType": "string",
              "name": "link",
              "type": "string"
            },
            {
              "internalType": "address",
              "name": "validationContractAddress",
              "type": "address"
            },
            {
              "internalType": "uint256",
              "name": "startBlock",
              "type": "uint256"
            },
            {
              "internalType": "uint256",
              "name": "endBlock",
              "type": "uint256"
            }
          ],
          "internalType": "struct ConfigStorage.NOWAssignments",
          "name": "assignment",
          "type": "tuple"
        }
      ],
      "stateMutability": "view",
      "type": "function"
    },
    {
      "inputs": [
        {
          "internalType": "uint256",
          "name": "_semesterId",
          "type": "uint256"
        }
      ],
      "name": "getAssignmentIds",
      "outputs": [
        {
          "internalType": "uint256[]",
          "name": "",
          "type": "uint256[]"
        }
      ],
      "stateMutability": "view",
      "type": "function"
    },
    {
      "inputs": [
        {
          "internalType": "uint256",
          "name": "_semesterId",
          "type": "uint256"
        },
        {
          "internalType": "uint256",
          "name": "_assignmentId",
          "type": "uint256"
        }
      ],
      "name": "deleteAssignment",
      "outputs": [],
      "stateMutability": "nonpayable",
      "type": "function"
    },
    {
      "inputs": [
        {
          "internalType": "uint256",
          "name": "semester_id",
          "type": "uint256"
        }
      ],
      "name": "getAssignmentCounter",
      "outputs": [
        {
          "internalType": "uint256",
          "name": "",
          "type": "uint256"
        }
      ],
      "stateMutability": "view",
      "type": "function"
    },
    {
      "inputs": [
        {
          "internalType": "uint256",
          "name": "_semesterId",
          "type": "uint256"
        },
        {
          "internalType": "uint256",
          "name": "_assignmentId",
          "type": "uint256"
        }
      ],
      "name": "hasAssignmentId",
      "outputs": [
        {
          "internalType": "bool",
          "name": "",
          "type": "bool"
        }
      ],
      "stateMutability": "view",
      "type": "function"
    },
    {
      "inputs": [
        {
          "internalType": "uint256",
          "name": "_semesterId",
          "type": "uint256"
        },
        {
          "internalType": "uint256",
          "name": "_assignmentId",
          "type": "uint256"
        },
        {
          "internalType": "string",
          "name": "name",
          "type": "string"
        }
      ],
      "name": "setAssignmentName",
      "outputs": [],
      "stateMutability": "nonpayable",
      "type": "function"
    },
    {
      "inputs": [
        {
          "internalType": "uint256",
          "name": "_semesterId",
          "type": "uint256"
        },
        {
          "internalType": "uint256",
          "name": "_assignmentId",
          "type": "uint256"
        },
        {
          "internalType": "string",
          "name": "link",
          "type": "string"
        }
      ],
      "name": "setAssignmentLink",
      "outputs": [],
      "stateMutability": "nonpayable",
      "type": "function"
    },
    {
      "inputs": [
        {
          "internalType": "uint256",
          "name": "_semesterId",
          "type": "uint256"
        },
        {
          "internalType": "uint256",
          "name": "_assignmentId",
          "type": "uint256"
        },
        {
          "internalType": "address",
          "name": "_address",
          "type": "address"
        }
      ],
      "name": "setAssignmentAddress",
      "outputs": [],
      "stateMutability": "nonpayable",
      "type": "function"
    },
    {
      "inputs": [
        {
          "internalType": "uint256",
          "name": "_semesterId",
          "type": "uint256"
        },
        {
          "internalType": "uint256",
          "name": "_assignmentId",
          "type": "uint256"
        },
        {
          "internalType": "uint256",
          "name": "_startBlock",
          "type": "uint256"
        }
      ],
      "name": "setAssignmentStartBlock",
      "outputs": [],
      "stateMutability": "nonpayable",
      "type": "function"
    },
    {
      "inputs": [
        {
          "internalType": "uint256",
          "name": "_semesterId",
          "type": "uint256"
        },
        {
          "internalType": "uint256",
          "name": "_assignmentId",
          "type": "uint256"
        },
        {
          "internalType": "uint256",
          "name": "_endBlock",
          "type": "uint256"
        }
      ],
      "name": "setAssignmentEndBlock",
      "outputs": [],
      "stateMutability": "nonpayable",
      "type": "function"
    },
    {
      "inputs": [],
      "name": "getFaucetGas",
      "outputs": [
        {
          "internalType": "uint128",
          "name": "",
          "type": "uint128"
        }
      ],
      "stateMutability": "view",
      "type": "function"
    },
    {
      "inputs": [],
      "name": "getFaucetBlockNoDifference",
      "outputs": [
        {
          "internalType": "uint128",
          "name": "",
          "type": "uint128"
        }
      ],
      "stateMutability": "view",
      "type": "function"
    },
    {
      "inputs": [
        {
          "internalType": "uint128",
          "name": "_faucetGas",
          "type": "uint128"
        }
      ],
      "name": "setFaucetGas",
      "outputs": [],
      "stateMutability": "nonpayable",
      "type": "function"
    },
    {
      "inputs": [
        {
          "internalType": "uint128",
          "name": "_faucetBlockNoDifference",
          "type": "uint128"
        }
      ],
      "name": "setFaucetBlockNoDifference",
      "outputs": [],
      "stateMutability": "nonpayable",
      "type": "function"
    }
  ],
  "bytecode": "0x608060405260006003553480156200001657600080fd5b506040518060400160405280600d81526020017f436f6e66696753746f72616765000000000000000000000000000000000000008152506000339080600181540180825580915050600190039060005260206000200160009091909190916101000a81548173ffffffffffffffffffffffffffffffffffffffff021916908373ffffffffffffffffffffffffffffffffffffffff160217905550600160405180606001604052808381526020013073ffffffffffffffffffffffffffffffffffffffff16815260200160011515815250908060018154018082558091505060019003906000526020600020906002020160009091909190915060008201518160000190816200012691906200048c565b5060208201518160010160006101000a81548173ffffffffffffffffffffffffffffffffffffffff021916908373ffffffffffffffffffffffffffffffffffffffff16021790555060408201518160010160146101000a81548160ff02191690831515021790555050505060028060006101000a8154816fffffffffffffffffffffffffffffffff02191690836fffffffffffffffffffffffffffffffff160217905550600a600260106101000a8154816fffffffffffffffffffffffffffffffff02191690836fffffffffffffffffffffffffffffffff160217905550600060038190555062000573565b600081519050919050565b7f4e487b7100000000000000000000000000000000000000000000000000000000600052604160045260246000fd5b7f4e487b7100000000000000000000000000000000000000000000000000000000600052602260045260246000fd5b600060028204905060018216806200029457607f821691505b602082108103620002aa57620002a96200024c565b5b50919050565b60008190508160005260206000209050919050565b60006020601f8301049050919050565b600082821b905092915050565b600060088302620003147fffffffffffffffffffffffffffffffffffffffffffffffffffffffffffffffff82620002d5565b620003208683620002d5565b95508019841693508086168417925050509392505050565b6000819050919050565b6000819050919050565b60006200036d62000367620003618462000338565b62000342565b62000338565b9050919050565b6000819050919050565b62000389836200034c565b620003a1620003988262000374565b848454620002e2565b825550505050565b600090565b620003b8620003a9565b620003c58184846200037e565b505050565b5b81811015620003ed57620003e1600082620003ae565b600181019050620003cb565b5050565b601f8211156200043c576200040681620002b0565b6200041184620002c5565b8101602085101562000421578190505b620004396200043085620002c5565b830182620003ca565b50505b505050565b600082821c905092915050565b6000620004616000198460080262000441565b1980831691505092915050565b60006200047c83836200044e565b9150826002028217905092915050565b620004978262000212565b67ffffffffffffffff811115620004b357620004b26200021d565b5b620004bf82546200027b565b620004cc828285620003f1565b600060209050601f831160018114620005045760008415620004ef578287015190505b620004fb85826200046e565b8655506200056b565b601f1984166200051486620002b0565b60005b828110156200053e5784890151825560018201915060208501945060208101905062000517565b868310156200055e57848901516200055a601f8916826200044e565b8355505b6001600288020188555050505b505050505050565b614f8f80620005836000396000f3fe608060405234801561001057600080fd5b506004361061027f5760003560e01c8063b062b8301161015c578063d544f8cb116100ce578063f01bafac11610087578063f01bafac146107ba578063f6791779146107d6578063faca1ccc146107f4578063fb1987fc14610812578063fc81a12a14610842578063fcd441e4146108725761027f565b8063d544f8cb146106e8578063dc91858814610704578063e07b049414610720578063e096cfed14610750578063e2390e281461076c578063ee6f75121461079c5761027f565b8063ba9e360d11610120578063ba9e360d1461063a578063bb5927c414610658578063bc40c98714610674578063be73cb2e14610692578063c500ada5146106ae578063c8e3a515146106cc5761027f565b8063b062b83014610596578063b89f9ac1146105b2578063b95986d8146105ce578063ba73818d146105fe578063ba919fd41461061c5761027f565b80636e580a9b116101f55780637fb99b93116101b95780637fb99b93146104d457806389820ac8146104f057806391a10edf1461050e578063a8ff5f4b1461052a578063a99b8c4014610548578063ab091f11146105785761027f565b80636e580a9b1461040a57806371c37c3a1461043a57806374d523a8146104585780637572fa89146104885780637b441502146104b85761027f565b80634743909e116102475780634743909e1461034e578063493428271461036a5780635577210a146103865780635a7c3c45146103b6578063653d90de146103d257806368975f4d146103ee5761027f565b80631389c0d51461028457806324d7806c146102a2578063337f6e6b146102d25780633a06068d14610302578063442caa5214610332575b600080fd5b61028c6108a2565b60405161029991906132d5565b60405180910390f35b6102bc60048036038101906102b79190613337565b610a04565b6040516102c99190613373565b60405180910390f35b6102ec60048036038101906102e791906133c4565b610a3e565b6040516102f99190613400565b60405180910390f35b61031c600480360381019061031791906133c4565b610a5e565b6040516103299190613373565b60405180910390f35b61034c6004803603810190610347919061341b565b610ac0565b005b61036860048036038101906103639190613337565b610c82565b005b610384600480360381019061037f919061346e565b610d9f565b005b6103a0600480360381019061039b9190613337565b610edb565b6040516103ad9190613373565b60405180910390f35b6103d060048036038101906103cb91906135e3565b610f34565b005b6103ec60048036038101906103e79190613652565b610f7b565b005b6104086004803603810190610403919061341b565b610fad565b005b610424600480360381019061041f91906136ae565b61116f565b6040516104319190613400565b60405180910390f35b610442611720565b60405161044f9190613400565b60405180910390f35b610472600480360381019061046d9190613337565b61172a565b60405161047f9190613373565b60405180910390f35b6104a2600480360381019061049d919061346e565b6117d8565b6040516104af9190613373565b60405180910390f35b6104d260048036038101906104cd919061346e565b6118b7565b005b6104ee60048036038101906104e99190613773565b611923565b005b6104f8611a23565b60405161050591906137fa565b60405180910390f35b61052860048036038101906105239190613337565b611a49565b005b610532611a8d565b60405161053f9190613373565b60405180910390f35b610562600480360381019061055d9190613815565b611aae565b60405161056f9190613400565b60405180910390f35b610580611ca6565b60405161058d9190613400565b60405180910390f35b6105b060048036038101906105ab9190613898565b611cb2565b005b6105cc60048036038101906105c79190613337565b611fc1565b005b6105e860048036038101906105e391906133c4565b612045565b6040516105f5919061395d565b60405180910390f35b610606612155565b6040516106139190613a2e565b60405180910390f35b610624612267565b60405161063191906137fa565b60405180910390f35b61064261228d565b60405161064f9190613a5f565b60405180910390f35b610672600480360381019061066d919061346e565b6122b3565b005b61067c6124ce565b6040516106899190613a2e565b60405180910390f35b6106ac60048036038101906106a791906133c4565b61255c565b005b6106b6612636565b6040516106c39190613b29565b60405180910390f35b6106e660048036038101906106e1919061346e565b61268e565b005b61070260048036038101906106fd9190613b77565b6127ca565b005b61071e60048036038101906107199190613b77565b612810565b005b61073a6004803603810190610735919061346e565b612856565b6040516107479190613c21565b60405180910390f35b61076a60048036038101906107659190613337565b612a26565b005b61078660048036038101906107819190613337565b612b09565b6040516107939190613373565b60405180910390f35b6107a4612bf3565b6040516107b19190613373565b60405180910390f35b6107d460048036038101906107cf91906135e3565b612c60565b005b6107de612ca7565b6040516107eb9190613a5f565b60405180910390f35b6107fc612cd1565b6040516108099190613400565b60405180910390f35b61082c600480360381019061082791906133c4565b612cde565b6040516108399190613b29565b60405180910390f35b61085c60048036038101906108579190613337565b612d4c565b6040516108699190613373565b60405180910390f35b61088c60048036038101906108879190613337565b612e01565b6040516108999190613373565b60405180910390f35b60606001805480602002602001604051908101604052809291908181526020016000905b828210156109fb57838290600052602060002090600202016040518060600160405290816000820180546108f990613c72565b80601f016020809104026020016040519081016040528092919081815260200182805461092590613c72565b80156109725780601f1061094757610100808354040283529160200191610972565b820191906000526020600020905b81548152906001019060200180831161095557829003601f168201915b505050505081526020016001820160009054906101000a900473ffffffffffffffffffffffffffffffffffffffff1673ffffffffffffffffffffffffffffffffffffffff1673ffffffffffffffffffffffffffffffffffffffff1681526020016001820160149054906101000a900460ff161515151581525050815260200190600101906108c6565b50505050905090565b6000610a0f8261172a565b15610a1d5760019050610a39565b610a2682612d4c565b15610a345760019050610a39565b600090505b919050565b600060056000838152602001908152602001600020600401549050919050565b600080600090505b600480549050811015610ab5578260048281548110610a8857610a87613ca3565b5b906000526020600020015403610aa2576001915050610abb565b8080610aad90613d01565b915050610a66565b50600090505b919050565b610ac933612e01565b50600560008481526020019081526020016000206006016000838152602001908152602001600020600301548111610b36576040517f08c379a0000000000000000000000000000000000000000000000000000000008152600401610b2d90613dcc565b60405180910390fd5b60056000848152602001908152602001600020600101548110158015610b72575060056000848152602001908152602001600020600201548111155b610bb1576040517f08c379a0000000000000000000000000000000000000000000000000000000008152600401610ba890613e5e565b60405180910390fd5b60008111610bf4576040517f08c379a0000000000000000000000000000000000000000000000000000000008152600401610beb90613ef0565b60405180910390fd5b600060056000858152602001908152602001600020600801541115610c4e576005600084815260200190815260200160002060080154811115610c4d578060056000858152602001908152602001600020600801819055505b5b8060056000858152602001908152602001600020600601600084815260200190815260200160002060040181905550505050565b610c8a612bf3565b5060005b600180549050811015610d9b578173ffffffffffffffffffffffffffffffffffffffff1660018281548110610cc657610cc5613ca3565b5b906000526020600020906002020160010160009054906101000a900473ffffffffffffffffffffffffffffffffffffffff1673ffffffffffffffffffffffffffffffffffffffff1603610d885760018181548110610d2757610d26613ca3565b5b906000526020600020906002020160008082016000610d469190612fec565b6001820160006101000a81549073ffffffffffffffffffffffffffffffffffffffff02191690556001820160146101000a81549060ff02191690555050610d9b565b8080610d9390613d01565b915050610c8e565b5050565b610da833612e01565b5060056000838152602001908152602001600020600201548110610e01576040517f08c379a0000000000000000000000000000000000000000000000000000000008152600401610df890613f82565b60405180910390fd5b60008111610e44576040517f08c379a0000000000000000000000000000000000000000000000000000000008152600401610e3b90614014565b60405180910390fd5b600060056000848152602001908152602001600020600701541115610ebc5760056000838152602001908152602001600020600701548110610ebb576040517f08c379a0000000000000000000000000000000000000000000000000000000008152600401610eb2906140cc565b60405180910390fd5b5b8060056000848152602001908152602001600020600101819055505050565b6000610ee682610a04565b15610ef45760019050610f2f565b6040517f08c379a0000000000000000000000000000000000000000000000000000000008152600401610f269061415e565b60405180910390fd5b919050565b610f3d33612e01565b50806005600085815260200190815260200160002060060160008481526020019081526020016000206000019081610f75919061432a565b50505050565b610f8433612e01565b5080600560008481526020019081526020016000206000019081610fa8919061432a565b505050565b610fb633612e01565b50600560008481526020019081526020016000206006016000838152602001908152602001600020600401548110611023576040517f08c379a000000000000000000000000000000000000000000000000000000000815260040161101a9061446e565b60405180910390fd5b6005600084815260200190815260200160002060010154811015801561105f575060056000848152602001908152602001600020600201548111155b61109e576040517f08c379a000000000000000000000000000000000000000000000000000000000815260040161109590614500565b60405180910390fd5b600081116110e1576040517f08c379a00000000000000000000000000000000000000000000000000000000081526004016110d890614592565b60405180910390fd5b60006005600085815260200190815260200160002060070154111561113b57600560008481526020019081526020016000206007015481101561113a578060056000858152602001908152602001600020600701819055505b5b8060056000858152602001908152602001600020600601600084815260200190815260200160002060030181905550505050565b600061117a33612e01565b50600560008881526020019081526020016000206001015483101580156111b7575060056000888152602001908152602001600020600201548211155b6111f6576040517f08c379a00000000000000000000000000000000000000000000000000000000081526004016111ed90614624565b60405180910390fd5b818310611238576040517f08c379a000000000000000000000000000000000000000000000000000000000815260040161122f90613f82565b60405180910390fd5b6000831180156112485750600082115b611287576040517f08c379a000000000000000000000000000000000000000000000000000000000815260040161127e906146b6565b60405180910390fd5b60006001600560008a8152602001908152602001600020600401546112ac91906146d6565b905086600560008a8152602001908152602001600020600601600083815260200190815260200160002060000190816112e5919061432a565b5085600560008a81526020019081526020016000206006016000838152602001908152602001600020600101908161131d919061432a565b5084600560008a8152602001908152602001600020600601600083815260200190815260200160002060020160006101000a81548173ffffffffffffffffffffffffffffffffffffffff021916908373ffffffffffffffffffffffffffffffffffffffff16021790555083600560008a815260200190815260200160002060060160008381526020019081526020016000206003018190555082600560008a815260200190815260200160002060060160008381526020019081526020016000206004018190555080600560008a815260200190815260200160002060040181905550600560008981526020019081526020016000206005018190806001815401808255809150506001900390600052602060002001600090919091909150556000600560008a815260200190815260200160002060070154111561149b5760056000898152602001908152602001600020600701548410156114965783600560008a8152602001908152602001600020600701819055505b6114b7565b83600560008a8152602001908152602001600020600701819055505b6000600560008a81526020019081526020016000206008015411156115155760056000898152602001908152602001600020600801548311156115105782600560008a8152602001908152602001600020600801819055505b611531565b82600560008a8152602001908152602001600020600801819055505b6000859050600015158173ffffffffffffffffffffffffffffffffffffffff166306854c5f6040518163ffffffff1660e01b81526004016020604051808303816000875af1158015611587573d6000803e3d6000fd5b505050506040513d601f19601f820116820180604052508101906115ab9190614736565b1515146115ed576040517f08c379a00000000000000000000000000000000000000000000000000000000081526004016115e4906147d5565b60405180910390fd5b8073ffffffffffffffffffffffffffffffffffffffff1663067df42b8a846040518363ffffffff1660e01b81526004016116289291906147f5565b600060405180830381600087803b15801561164257600080fd5b505af1158015611656573d6000803e3d6000fd5b50505050600115158173ffffffffffffffffffffffffffffffffffffffff166306854c5f6040518163ffffffff1660e01b81526004016020604051808303816000875af11580156116ab573d6000803e3d6000fd5b505050506040513d601f19601f820116820180604052508101906116cf9190614736565b151514611711576040517f08c379a000000000000000000000000000000000000000000000000000000000815260040161170890614890565b60405180910390fd5b81925050509695505050505050565b6000600354905090565b600080600090505b6000805490508110156117cd578273ffffffffffffffffffffffffffffffffffffffff166000828154811061176a57611769613ca3565b5b9060005260206000200160009054906101000a900473ffffffffffffffffffffffffffffffffffffffff1673ffffffffffffffffffffffffffffffffffffffff16036117ba5760019150506117d3565b80806117c590613d01565b915050611732565b60009150505b919050565b600080600090505b6004805490508110156118ab57836004828154811061180257611801613ca3565b5b9060005260206000200154036118985760005b600560008681526020019081526020016000206005018054905081101561188d578360056000878152602001908152602001600020600501828154811061185f5761185e613ca3565b5b90600052602060002001540361187a576001925050506118b1565b808061188590613d01565b915050611815565b5060009150506118b1565b80806118a390613d01565b9150506117e0565b50600090505b92915050565b6118c033612e01565b5060008111611904576040517f08c379a00000000000000000000000000000000000000000000000000000000081526004016118fb90614922565b60405180910390fd5b8060056000848152602001908152602001600020600301819055505050565b61192b612bf3565b506000151561193983612d4c565b151503611a1f57600160405180606001604052808381526020018473ffffffffffffffffffffffffffffffffffffffff16815260200160011515815250908060018154018082558091505060019003906000526020600020906002020160009091909190915060008201518160000190816119b4919061432a565b5060208201518160010160006101000a81548173ffffffffffffffffffffffffffffffffffffffff021916908373ffffffffffffffffffffffffffffffffffffffff16021790555060408201518160010160146101000a81548160ff02191690831515021790555050505b5050565b6000600260009054906101000a90046fffffffffffffffffffffffffffffffff16905090565b80600660006101000a81548173ffffffffffffffffffffffffffffffffffffffff021916908373ffffffffffffffffffffffffffffffffffffffff16021790555050565b6000611a9833610edb565b15611aa65760019050611aab565b600090505b90565b6000611ab933612e01565b50828410611afc576040517f08c379a0000000000000000000000000000000000000000000000000000000008152600401611af390613f82565b60405180910390fd5b60008211611b3f576040517f08c379a0000000000000000000000000000000000000000000000000000000008152600401611b3690614922565b60405180910390fd5b600084118015611b4f5750600083115b611b8e576040517f08c379a0000000000000000000000000000000000000000000000000000000008152600401611b85906146b6565b60405180910390fd5b60006001600354611b9f91906146d6565b905085600560008381526020019081526020016000206000019081611bc4919061432a565b5084600560008381526020019081526020016000206001018190555083600560008381526020019081526020016000206002018190555082600560008381526020019081526020016000206003018190555060006005600083815260200190815260200160002060040181905550600060056000838152602001908152602001600020600701819055506000600560008381526020019081526020016000206008018190555080600381905550600481908060018154018082558091505060019003906000526020600020016000909190919091505580915050949350505050565b60008080549050905090565b611cbb33612e01565b50600060056000858152602001908152602001600020600601600084815260200190815260200160002060020160009054906101000a900473ffffffffffffffffffffffffffffffffffffffff16905060008190508073ffffffffffffffffffffffffffffffffffffffff1663a69e79b76040518163ffffffff1660e01b8152600401600060405180830381600087803b158015611d5857600080fd5b505af1158015611d6c573d6000803e3d6000fd5b50505050600015158173ffffffffffffffffffffffffffffffffffffffff166306854c5f6040518163ffffffff1660e01b81526004016020604051808303816000875af1158015611dc1573d6000803e3d6000fd5b505050506040513d601f19601f82011682018060405250810190611de59190614736565b151514611e27576040517f08c379a0000000000000000000000000000000000000000000000000000000008152600401611e1e906149b4565b60405180910390fd5b60008390508073ffffffffffffffffffffffffffffffffffffffff1663067df42b87876040518363ffffffff1660e01b8152600401611e679291906147f5565b600060405180830381600087803b158015611e8157600080fd5b505af1158015611e95573d6000803e3d6000fd5b50505050600115158173ffffffffffffffffffffffffffffffffffffffff166306854c5f6040518163ffffffff1660e01b81526004016020604051808303816000875af1158015611eea573d6000803e3d6000fd5b505050506040513d601f19601f82011682018060405250810190611f0e9190614736565b151514611f50576040517f08c379a0000000000000000000000000000000000000000000000000000000008152600401611f4790614a46565b60405180910390fd5b8360056000888152602001908152602001600020600601600087815260200190815260200160002060020160006101000a81548173ffffffffffffffffffffffffffffffffffffffff021916908373ffffffffffffffffffffffffffffffffffffffff160217905550505050505050565b611fc9612bf3565b5060001515611fd78261172a565b151503612042576000819080600181540180825580915050600190039060005260206000200160009091909190916101000a81548173ffffffffffffffffffffffffffffffffffffffff021916908373ffffffffffffffffffffffffffffffffffffffff1602179055505b50565b61204d61302c565b604051806080016040528060056000858152602001908152602001600020600001805461207990613c72565b80601f01602080910402602001604051908101604052809291908181526020018280546120a590613c72565b80156120f25780601f106120c7576101008083540402835291602001916120f2565b820191906000526020600020905b8154815290600101906020018083116120d557829003601f168201915b50505050508152602001600560008581526020019081526020016000206001015481526020016005600085815260200190815260200160002060020154815260200160056000858152602001908152602001600020600301548152509050919050565b6060600060018054905067ffffffffffffffff811115612178576121776134b8565b5b6040519080825280602002602001820160405280156121a65781602001602082028036833780820191505090505b50905060005b60018054905081101561225f57600181815481106121cd576121cc613ca3565b5b906000526020600020906002020160010160009054906101000a900473ffffffffffffffffffffffffffffffffffffffff1682828151811061221257612211613ca3565b5b602002602001019073ffffffffffffffffffffffffffffffffffffffff16908173ffffffffffffffffffffffffffffffffffffffff1681525050808061225790613d01565b9150506121ac565b819250505090565b6000600260109054906101000a90046fffffffffffffffffffffffffffffffff16905090565b600660009054906101000a900473ffffffffffffffffffffffffffffffffffffffff1681565b6122bc33612e01565b50600060056000848152602001908152602001600020600601600083815260200190815260200160002060020160009054906101000a900473ffffffffffffffffffffffffffffffffffffffff169050600560008481526020019081526020016000206006016000838152602001908152602001600020600080820160006123449190612fec565b6001820160006123549190612fec565b6002820160006101000a81549073ffffffffffffffffffffffffffffffffffffffff02191690556003820160009055600482016000905550506123ac6005600085815260200190815260200160002060050183612ee4565b60008190508073ffffffffffffffffffffffffffffffffffffffff1663a69e79b76040518163ffffffff1660e01b8152600401600060405180830381600087803b1580156123f957600080fd5b505af115801561240d573d6000803e3d6000fd5b50505050600015158173ffffffffffffffffffffffffffffffffffffffff166306854c5f6040518163ffffffff1660e01b81526004016020604051808303816000875af1158015612462573d6000803e3d6000fd5b505050506040513d601f19601f820116820180604052508101906124869190614736565b1515146124c8576040517f08c379a00000000000000000000000000000000000000000000000000000000081526004016124bf90614ad8565b60405180910390fd5b50505050565b6060600080548060200260200160405190810160405280929190818152602001828054801561255257602002820191906000526020600020905b8160009054906101000a900473ffffffffffffffffffffffffffffffffffffffff1673ffffffffffffffffffffffffffffffffffffffff1681526020019060010190808311612508575b5050505050905090565b61256533612e01565b5060006005600083815260200190815260200160002060050180549050146125c2576040517f08c379a00000000000000000000000000000000000000000000000000000000081526004016125b990614b44565b60405180910390fd5b60056000828152602001908152602001600020600080820160006125e69190612fec565b60018201600090556002820160009055600382016000905560048201600090556005820160006126169190613054565b600782016000905560088201600090555050612633600482612ee4565b50565b6060600480548060200260200160405190810160405280929190818152602001828054801561268457602002820191906000526020600020905b815481526020019060010190808311612670575b5050505050905090565b61269733612e01565b50600560008381526020019081526020016000206001015481116126f0576040517f08c379a00000000000000000000000000000000000000000000000000000000081526004016126e790614bd6565b60405180910390fd5b60008111612733576040517f08c379a000000000000000000000000000000000000000000000000000000000815260040161272a90614c42565b60405180910390fd5b6000600560008481526020019081526020016000206007015411156127ab57600560008381526020019081526020016000206008015481116127aa576040517f08c379a00000000000000000000000000000000000000000000000000000000081526004016127a190614cfa565b60405180910390fd5b5b8060056000848152602001908152602001600020600201819055505050565b6127d333612e01565b5080600260106101000a8154816fffffffffffffffffffffffffffffffff02191690836fffffffffffffffffffffffffffffffff16021790555050565b61281933612e01565b5080600260006101000a8154816fffffffffffffffffffffffffffffffff02191690836fffffffffffffffffffffffffffffffff16021790555050565b61285e613075565b6005600084815260200190815260200160002060060160008381526020019081526020016000206040518060a00160405290816000820180546128a090613c72565b80601f01602080910402602001604051908101604052809291908181526020018280546128cc90613c72565b80156129195780601f106128ee57610100808354040283529160200191612919565b820191906000526020600020905b8154815290600101906020018083116128fc57829003601f168201915b5050505050815260200160018201805461293290613c72565b80601f016020809104026020016040519081016040528092919081815260200182805461295e90613c72565b80156129ab5780601f10612980576101008083540402835291602001916129ab565b820191906000526020600020905b81548152906001019060200180831161298e57829003601f168201915b505050505081526020016002820160009054906101000a900473ffffffffffffffffffffffffffffffffffffffff1673ffffffffffffffffffffffffffffffffffffffff1673ffffffffffffffffffffffffffffffffffffffff16815260200160038201548152602001600482015481525050905092915050565b612a2e612bf3565b5060005b600080549050811015612b05578173ffffffffffffffffffffffffffffffffffffffff1660008281548110612a6a57612a69613ca3565b5b9060005260206000200160009054906101000a900473ffffffffffffffffffffffffffffffffffffffff1673ffffffffffffffffffffffffffffffffffffffff1603612af25760008181548110612ac457612ac3613ca3565b5b9060005260206000200160006101000a81549073ffffffffffffffffffffffffffffffffffffffff02191690555b8080612afd90613d01565b915050612a32565b5050565b600080600090505b600180549050811015612bb3578273ffffffffffffffffffffffffffffffffffffffff1660018281548110612b4957612b48613ca3565b5b906000526020600020906002020160010160009054906101000a900473ffffffffffffffffffffffffffffffffffffffff1673ffffffffffffffffffffffffffffffffffffffff1603612ba0576001915050612bee565b8080612bab90613d01565b915050612b11565b6040517f08c379a0000000000000000000000000000000000000000000000000000000008152600401612be590614db2565b60405180910390fd5b919050565b6000612bfe32610edb565b15612c0c5760019050612c5d565b612c14611a8d565b15612c225760019050612c5d565b6040517f08c379a0000000000000000000000000000000000000000000000000000000008152600401612c5490614e44565b60405180910390fd5b90565b612c6933612e01565b50806005600085815260200190815260200160002060060160008481526020019081526020016000206001019081612ca1919061432a565b50505050565b6000600660009054906101000a900473ffffffffffffffffffffffffffffffffffffffff16905090565b6000600180549050905090565b606060056000838152602001908152602001600020600501805480602002602001604051908101604052809291908181526020018280548015612d4057602002820191906000526020600020905b815481526020019060010190808311612d2c575b50505050509050919050565b600080600090505b600180549050811015612df6578273ffffffffffffffffffffffffffffffffffffffff1660018281548110612d8c57612d8b613ca3565b5b906000526020600020906002020160010160009054906101000a900473ffffffffffffffffffffffffffffffffffffffff1673ffffffffffffffffffffffffffffffffffffffff1603612de3576001915050612dfc565b8080612dee90613d01565b915050612d54565b60009150505b919050565b600080600090505b600080549050811015612ea4578273ffffffffffffffffffffffffffffffffffffffff1660008281548110612e4157612e40613ca3565b5b9060005260206000200160009054906101000a900473ffffffffffffffffffffffffffffffffffffffff1673ffffffffffffffffffffffffffffffffffffffff1603612e91576001915050612edf565b8080612e9c90613d01565b915050612e09565b6040517f08c379a0000000000000000000000000000000000000000000000000000000008152600401612ed690614ed6565b60405180910390fd5b919050565b6000612ef08383612f01565b9050612efc8382612f4a565b505050565b600080600090505b82848281548110612f1d57612f1c613ca3565b5b906000526020600020015414612f40578080612f3890613d01565b915050612f09565b8091505092915050565b5b60018280549050612f5c9190614ef6565b811015612fc15781600182612f7191906146d6565b81548110612f8257612f81613ca3565b5b9060005260206000200154828281548110612fa057612f9f613ca3565b5b90600052602060002001819055508080612fb990613d01565b915050612f4b565b81805480612fd257612fd1614f2a565b5b600190038181906000526020600020016000905590555050565b508054612ff890613c72565b6000825580601f1061300a5750613029565b601f01602090049060005260206000209081019061302891906130ba565b5b50565b6040518060800160405280606081526020016000815260200160008152602001600081525090565b508054600082559060005260206000209081019061307291906130ba565b50565b6040518060a001604052806060815260200160608152602001600073ffffffffffffffffffffffffffffffffffffffff16815260200160008152602001600081525090565b5b808211156130d35760008160009055506001016130bb565b5090565b600081519050919050565b600082825260208201905092915050565b6000819050602082019050919050565b600081519050919050565b600082825260208201905092915050565b60005b8381101561313d578082015181840152602081019050613122565b60008484015250505050565b6000601f19601f8301169050919050565b600061316582613103565b61316f818561310e565b935061317f81856020860161311f565b61318881613149565b840191505092915050565b600073ffffffffffffffffffffffffffffffffffffffff82169050919050565b60006131be82613193565b9050919050565b6131ce816131b3565b82525050565b60008115159050919050565b6131e9816131d4565b82525050565b6000606083016000830151848203600086015261320c828261315a565b915050602083015161322160208601826131c5565b50604083015161323460408601826131e0565b508091505092915050565b600061324b83836131ef565b905092915050565b6000602082019050919050565b600061326b826130d7565b61327581856130e2565b935083602082028501613287856130f3565b8060005b858110156132c357848403895281516132a4858261323f565b94506132af83613253565b925060208a0199505060018101905061328b565b50829750879550505050505092915050565b600060208201905081810360008301526132ef8184613260565b905092915050565b6000604051905090565b600080fd5b600080fd5b613314816131b3565b811461331f57600080fd5b50565b6000813590506133318161330b565b92915050565b60006020828403121561334d5761334c613301565b5b600061335b84828501613322565b91505092915050565b61336d816131d4565b82525050565b60006020820190506133886000830184613364565b92915050565b6000819050919050565b6133a18161338e565b81146133ac57600080fd5b50565b6000813590506133be81613398565b92915050565b6000602082840312156133da576133d9613301565b5b60006133e8848285016133af565b91505092915050565b6133fa8161338e565b82525050565b600060208201905061341560008301846133f1565b92915050565b60008060006060848603121561343457613433613301565b5b6000613442868287016133af565b9350506020613453868287016133af565b9250506040613464868287016133af565b9150509250925092565b6000806040838503121561348557613484613301565b5b6000613493858286016133af565b92505060206134a4858286016133af565b9150509250929050565b600080fd5b600080fd5b7f4e487b7100000000000000000000000000000000000000000000000000000000600052604160045260246000fd5b6134f082613149565b810181811067ffffffffffffffff8211171561350f5761350e6134b8565b5b80604052505050565b60006135226132f7565b905061352e82826134e7565b919050565b600067ffffffffffffffff82111561354e5761354d6134b8565b5b61355782613149565b9050602081019050919050565b82818337600083830152505050565b600061358661358184613533565b613518565b9050828152602081018484840111156135a2576135a16134b3565b5b6135ad848285613564565b509392505050565b600082601f8301126135ca576135c96134ae565b5b81356135da848260208601613573565b91505092915050565b6000806000606084860312156135fc576135fb613301565b5b600061360a868287016133af565b935050602061361b868287016133af565b925050604084013567ffffffffffffffff81111561363c5761363b613306565b5b613648868287016135b5565b9150509250925092565b6000806040838503121561366957613668613301565b5b6000613677858286016133af565b925050602083013567ffffffffffffffff81111561369857613697613306565b5b6136a4858286016135b5565b9150509250929050565b60008060008060008060c087890312156136cb576136ca613301565b5b60006136d989828a016133af565b965050602087013567ffffffffffffffff8111156136fa576136f9613306565b5b61370689828a016135b5565b955050604087013567ffffffffffffffff81111561372757613726613306565b5b61373389828a016135b5565b945050606061374489828a01613322565b935050608061375589828a016133af565b92505060a061376689828a016133af565b9150509295509295509295565b6000806040838503121561378a57613789613301565b5b600061379885828601613322565b925050602083013567ffffffffffffffff8111156137b9576137b8613306565b5b6137c5858286016135b5565b9150509250929050565b60006fffffffffffffffffffffffffffffffff82169050919050565b6137f4816137cf565b82525050565b600060208201905061380f60008301846137eb565b92915050565b6000806000806080858703121561382f5761382e613301565b5b600085013567ffffffffffffffff81111561384d5761384c613306565b5b613859878288016135b5565b945050602061386a878288016133af565b935050604061387b878288016133af565b925050606061388c878288016133af565b91505092959194509250565b6000806000606084860312156138b1576138b0613301565b5b60006138bf868287016133af565b93505060206138d0868287016133af565b92505060406138e186828701613322565b9150509250925092565b6138f48161338e565b82525050565b60006080830160008301518482036000860152613917828261315a565b915050602083015161392c60208601826138eb565b50604083015161393f60408601826138eb565b50606083015161395260608601826138eb565b508091505092915050565b6000602082019050818103600083015261397781846138fa565b905092915050565b600081519050919050565b600082825260208201905092915050565b6000819050602082019050919050565b60006139b783836131c5565b60208301905092915050565b6000602082019050919050565b60006139db8261397f565b6139e5818561398a565b93506139f08361399b565b8060005b83811015613a21578151613a0888826139ab565b9750613a13836139c3565b9250506001810190506139f4565b5085935050505092915050565b60006020820190508181036000830152613a4881846139d0565b905092915050565b613a59816131b3565b82525050565b6000602082019050613a746000830184613a50565b92915050565b600081519050919050565b600082825260208201905092915050565b6000819050602082019050919050565b6000613ab283836138eb565b60208301905092915050565b6000602082019050919050565b6000613ad682613a7a565b613ae08185613a85565b9350613aeb83613a96565b8060005b83811015613b1c578151613b038882613aa6565b9750613b0e83613abe565b925050600181019050613aef565b5085935050505092915050565b60006020820190508181036000830152613b438184613acb565b905092915050565b613b54816137cf565b8114613b5f57600080fd5b50565b600081359050613b7181613b4b565b92915050565b600060208284031215613b8d57613b8c613301565b5b6000613b9b84828501613b62565b91505092915050565b600060a0830160008301518482036000860152613bc1828261315a565b91505060208301518482036020860152613bdb828261315a565b9150506040830151613bf060408601826131c5565b506060830151613c0360608601826138eb565b506080830151613c1660808601826138eb565b508091505092915050565b60006020820190508181036000830152613c3b8184613ba4565b905092915050565b7f4e487b7100000000000000000000000000000000000000000000000000000000600052602260045260246000fd5b60006002820490506001821680613c8a57607f821691505b602082108103613c9d57613c9c613c43565b5b50919050565b7f4e487b7100000000000000000000000000000000000000000000000000000000600052603260045260246000fd5b7f4e487b7100000000000000000000000000000000000000000000000000000000600052601160045260246000fd5b6000613d0c8261338e565b91507fffffffffffffffffffffffffffffffffffffffffffffffffffffffffffffffff8203613d3e57613d3d613cd2565b5b600182019050919050565b600082825260208201905092915050565b7f456e6420626c6f636b206e6565647320746f206265206269676765722074686160008201527f6e20737461727420626c6f636b00000000000000000000000000000000000000602082015250565b6000613db6602d83613d49565b9150613dc182613d5a565b604082019050919050565b60006020820190508181036000830152613de581613da9565b9050919050565b7f456e6420626c6f636b206e6565647320746f20626520696e2072616e6765206f60008201527f66207468652073656d6573746572000000000000000000000000000000000000602082015250565b6000613e48602e83613d49565b9150613e5382613dec565b604082019050919050565b60006020820190508181036000830152613e7781613e3b565b9050919050565b7f456e6420626c6f636b206e6565647320746f206265206c61726765722074686160008201527f6e20300000000000000000000000000000000000000000000000000000000000602082015250565b6000613eda602383613d49565b9150613ee582613e7e565b604082019050919050565b60006020820190508181036000830152613f0981613ecd565b9050919050565b7f537461727420626c6f636b206d75737420626520736d616c6c6572207468616e60008201527f20656e6420626c6f636b00000000000000000000000000000000000000000000602082015250565b6000613f6c602a83613d49565b9150613f7782613f10565b604082019050919050565b60006020820190508181036000830152613f9b81613f5f565b9050919050565b7f537461727420626c6f636b206d757374206265206c6172676572207468616e2060008201527f3000000000000000000000000000000000000000000000000000000000000000602082015250565b6000613ffe602183613d49565b915061400982613fa2565b604082019050919050565b6000602082019050818103600083015261402d81613ff1565b9050919050565b7f537461727420626c6f636b206d75737420626520736d616c6c6572207468616e60008201527f2074686520736d616c6c6573742061737369676e6d656e74207374617274206260208201527f6c6f636b00000000000000000000000000000000000000000000000000000000604082015250565b60006140b6604483613d49565b91506140c182614034565b606082019050919050565b600060208201905081810360008301526140e5816140a9565b9050919050565b7f41646472657373206973206e65697468657220616e2075736572206e6f72206160008201527f6e20636f6e74726163742061646d696e21000000000000000000000000000000602082015250565b6000614148603183613d49565b9150614153826140ec565b604082019050919050565b600060208201905081810360008301526141778161413b565b9050919050565b60008190508160005260206000209050919050565b60006020601f8301049050919050565b600082821b905092915050565b6000600883026141e07fffffffffffffffffffffffffffffffffffffffffffffffffffffffffffffffff826141a3565b6141ea86836141a3565b95508019841693508086168417925050509392505050565b6000819050919050565b600061422761422261421d8461338e565b614202565b61338e565b9050919050565b6000819050919050565b6142418361420c565b61425561424d8261422e565b8484546141b0565b825550505050565b600090565b61426a61425d565b614275818484614238565b505050565b5b818110156142995761428e600082614262565b60018101905061427b565b5050565b601f8211156142de576142af8161417e565b6142b884614193565b810160208510156142c7578190505b6142db6142d385614193565b83018261427a565b50505b505050565b600082821c905092915050565b6000614301600019846008026142e3565b1980831691505092915050565b600061431a83836142f0565b9150826002028217905092915050565b61433382613103565b67ffffffffffffffff81111561434c5761434b6134b8565b5b6143568254613c72565b61436182828561429d565b600060209050601f8311600181146143945760008415614382578287015190505b61438c858261430e565b8655506143f4565b601f1984166143a28661417e565b60005b828110156143ca578489015182556001820191506020850194506020810190506143a5565b868310156143e757848901516143e3601f8916826142f0565b8355505b6001600288020188555050505b505050505050565b7f537461727420626c6f636b206e6565647320746f20626520736d616c6c65722060008201527f7468616e20656e6420626c6f636b000000000000000000000000000000000000602082015250565b6000614458602e83613d49565b9150614463826143fc565b604082019050919050565b600060208201905081810360008301526144878161444b565b9050919050565b7f537461727420626c6f636b206e6565647320746f20626520696e2072616e676560008201527f206f66207468652073656d657374657200000000000000000000000000000000602082015250565b60006144ea603083613d49565b91506144f58261448e565b604082019050919050565b60006020820190508181036000830152614519816144dd565b9050919050565b7f537461727420626c6f636b206e6565647320746f206265206c6172676572207460008201527f68616e2030000000000000000000000000000000000000000000000000000000602082015250565b600061457c602583613d49565b915061458782614520565b604082019050919050565b600060208201905081810360008301526145ab8161456f565b9050919050565b7f446566696e65642041737369676e6d656e742072616e6765206973206e6f742060008201527f696e2073656d65737465722072616e6765000000000000000000000000000000602082015250565b600061460e603183613d49565b9150614619826145b2565b604082019050919050565b6000602082019050818103600083015261463d81614601565b9050919050565b7f537461727420616e6420656e6420626c6f636b206d757374206265206c61726760008201527f6572207468616e20300000000000000000000000000000000000000000000000602082015250565b60006146a0602983613d49565b91506146ab82614644565b604082019050919050565b600060208201905081810360008301526146cf81614693565b9050919050565b60006146e18261338e565b91506146ec8361338e565b925082820190508082111561470457614703613cd2565b5b92915050565b614713816131d4565b811461471e57600080fd5b50565b6000815190506147308161470a565b92915050565b60006020828403121561474c5761474b613301565b5b600061475a84828501614721565b91505092915050565b7f41737369676e6d656e7420697320616c7265616479206c696e6b656420746f2060008201527f612073656d657374657200000000000000000000000000000000000000000000602082015250565b60006147bf602a83613d49565b91506147ca82614763565b604082019050919050565b600060208201905081810360008301526147ee816147b2565b9050919050565b600060408201905061480a60008301856133f1565b61481760208301846133f1565b9392505050565b7f41737369676e6d656e74206e6565647320746f206265206c696e6b656420746f60008201527f20612073656d65737465722c206e6f7721000000000000000000000000000000602082015250565b600061487a603183613d49565b91506148858261481e565b604082019050919050565b600060208201905081810360008301526148a98161486d565b9050919050565b7f4d696e206b6e6f776c6564676520636f696e20616d6f756e74206d757374206260008201527f65206c6172676572207468616e20300000000000000000000000000000000000602082015250565b600061490c602f83613d49565b9150614917826148b0565b604082019050919050565b6000602082019050818103600083015261493b816148ff565b9050919050565b7f4f4c442041737369676e6d656e74206973207374696c6c206c696e6b6564207460008201527f6f20612073656d65737465722100000000000000000000000000000000000000602082015250565b600061499e602d83613d49565b91506149a982614942565b604082019050919050565b600060208201905081810360008301526149cd81614991565b9050919050565b7f4e45572041737369676e6d656e74206973206e6f74206c696e6b656420746f2060008201527f612073656d657374657221000000000000000000000000000000000000000000602082015250565b6000614a30602b83613d49565b9150614a3b826149d4565b604082019050919050565b60006020820190508181036000830152614a5f81614a23565b9050919050565b7f41737369676e6d656e74206973207374696c6c206c696e6b656420746f20612060008201527f73656d6573746572210000000000000000000000000000000000000000000000602082015250565b6000614ac2602983613d49565b9150614acd82614a66565b604082019050919050565b60006020820190508181036000830152614af181614ab5565b9050919050565b7f53656d657374657220686173206c696e6b65642061737369676e6d656e747300600082015250565b6000614b2e601f83613d49565b9150614b3982614af8565b602082019050919050565b60006020820190508181036000830152614b5d81614b21565b9050919050565b7f456e6420626c6f636b206d757374206265206c6172676572207468616e20737460008201527f61727420626c6f636b0000000000000000000000000000000000000000000000602082015250565b6000614bc0602983613d49565b9150614bcb82614b64565b604082019050919050565b60006020820190508181036000830152614bef81614bb3565b9050919050565b7f456e6420626c6f636b206d757374206265206c6172676572207468616e203000600082015250565b6000614c2c601f83613d49565b9150614c3782614bf6565b602082019050919050565b60006020820190508181036000830152614c5b81614c1f565b9050919050565b7f537461727420626c6f636b206d75737420626520736d616c6c6572207468616e60008201527f20746865206c6172676573742061737369676e6d656e7420656e64626c6f636b60208201527f20626c6f636b0000000000000000000000000000000000000000000000000000604082015250565b6000614ce4604683613d49565b9150614cef82614c62565b606082019050919050565b60006020820190508181036000830152614d1381614cd7565b9050919050565b7f41646472657373206f662074686520736d61727420636f6e747261637420746860008201527f61742063616c6c7320746869732066756e6374696f6e206973206e6f7420616e60208201527f20636f6e74726163742061646d696e2100000000000000000000000000000000604082015250565b6000614d9c605083613d49565b9150614da782614d1a565b606082019050919050565b60006020820190508181036000830152614dcb81614d8f565b9050919050565b7f4f726967696e206f72206d73672e73656e646572206973206e6569746865722060008201527f616e2075736572206e6f7220616e20636f6e74726163742061646d696e210000602082015250565b6000614e2e603e83613d49565b9150614e3982614dd2565b604082019050919050565b60006020820190508181036000830152614e5d81614e21565b9050919050565b7f4164647265737320746861742063616c6c73207468697320736d61727420636f60008201527f6e74726163742066756e6374696f6e206973206e6f7420616e2061646d696e21602082015250565b6000614ec0604083613d49565b9150614ecb82614e64565b604082019050919050565b60006020820190508181036000830152614eef81614eb3565b9050919050565b6000614f018261338e565b9150614f0c8361338e565b9250828203905081811115614f2457614f23613cd2565b5b92915050565b7f4e487b7100000000000000000000000000000000000000000000000000000000600052603160045260246000fdfea2646970667358221220b2e40a943159e2226c77a939cd7f50965f4202033e9f48f8227f9548eaa0cd2b64736f6c63430008130033",
  "immutableReferences": {},
  "source": "// SPDX-License-Identifier: MIT\r\npragma solidity ^0.8.17;\r\n\r\nimport \"../contracts/BaseConfigAdmin.sol\";\r\n\r\nabstract contract IBaseValidator {\r\n    function clearAssignmentInfos() external {}\r\n\r\n    function isAssignmentLinked() external returns (bool) {}\r\n\r\n    function setAssignmentInfos(uint256 semesterId, uint256 assignmentId)\r\n        external\r\n    {}\r\n}\r\n\r\ncontract ConfigStorage is BaseConfigAdmin {\r\n    // Amount of gas the user can get using the faucet\r\n    uint128 faucetGas;\r\n\r\n    // Amount of blocks difference between last faucet usage\r\n    uint128 faucetBlockNoDifference;\r\n\r\n    // Struct Seminar\r\n    struct NOWSemester {\r\n        string name; // Name of the semester (e.g. SS22)\r\n        uint256 startBlock; // First block which counts towards this semester\r\n        uint256 endBlock; // Last block which counts towards this semester\r\n        uint256 minKnowledgeCoinAmount; // Amount of knowledge Coins needed to take exam\r\n        uint256 assignmentCounter; // Assignment counter\r\n        uint256[] assignmentIds; // Assignment Ids\r\n        mapping(uint256 => NOWAssignments) assignments; // Assigned assignments\r\n        // TEMP VARIABLES\r\n        uint256 assignmentStartBlock; // Temp var to keep track of lowest start block of all assignments\r\n        uint256 assignmentEndBlock; // Temp var to keep track of highest end block of all assignments\r\n    }\r\n\r\n    // Struct Seminar\r\n    struct NOWSemesterReturn {\r\n        string name; // Name of the semester (e.g. SS22)\r\n        uint256 startBlock; // First block which counts towards this semester\r\n        uint256 endBlock; // Last block which counts towards this semester\r\n        uint256 minKnowledgeCoinAmount; // Amount of knowledge Coins needed to take exam\r\n    }\r\n\r\n    // Struct Assignments\r\n    struct NOWAssignments {\r\n        string name; // Name of the assignment\r\n        string link; // Link to the assignment\r\n        address validationContractAddress; // Address to the validation contract\r\n        uint256 startBlock; // First block which counts towards this assignment\r\n        uint256 endBlock; // Last block which counts towards this assignment\r\n    }\r\n\r\n    // Semester variables\r\n    uint256 semesterCounter = 0;\r\n    uint256[] private semesterIds;\r\n    mapping(uint256 => NOWSemester) semesters;\r\n\r\n    // SMART CONTRACT ADDRESS\r\n    address public knowledgeCoinContractAddress;\r\n\r\n    /**\r\n     * Constructor to set default config values\r\n     */\r\n    constructor() BaseConfigAdmin(\"ConfigStorage\") {\r\n        faucetGas = 2;\r\n        faucetBlockNoDifference = 10;\r\n\r\n        // Set counters to 0\r\n        semesterCounter = 0;\r\n    }\r\n\r\n    /*=============================================\r\n    =            Contract Adresses            =\r\n    =============================================*/\r\n\r\n    function setKnowledgeCoinContractAdress(address _address) public {\r\n        knowledgeCoinContractAddress = _address;\r\n    }\r\n\r\n    function getKnowledgeCoinContractAddress() public view returns (address) {\r\n        return knowledgeCoinContractAddress;\r\n    }\r\n\r\n    /*=====  End of Contract Adresses  ======*/\r\n\r\n    /*=============================================\r\n    =              Semester function              =\r\n    =============================================*/\r\n\r\n    // Append a new semester\r\n    function appendSemester(\r\n        string memory _name,\r\n        uint256 _startBlock,\r\n        uint256 _endBlock,\r\n        uint256 _minKnowledgeCoinAmount\r\n    ) public returns (uint256) {\r\n        requireUserAdmin(msg.sender);\r\n\r\n        // Require start block to be smaller than end block\r\n        require(\r\n            _startBlock < _endBlock,\r\n            \"Start block must be smaller than end block\"\r\n        );\r\n\r\n        // Require min knowledge coin amount to be larger than 0\r\n        require(\r\n            _minKnowledgeCoinAmount > 0,\r\n            \"Min knowledge coin amount must be larger than 0\"\r\n        );\r\n\r\n        // Require start and end block to be larger than 0\r\n        require(\r\n            _startBlock > 0 && _endBlock > 0,\r\n            \"Start and end block must be larger than 0\"\r\n        );\r\n\r\n        uint256 index = semesterCounter + 1;\r\n\r\n        semesters[index].name = _name;\r\n        semesters[index].startBlock = _startBlock;\r\n        semesters[index].endBlock = _endBlock;\r\n        semesters[index].minKnowledgeCoinAmount = _minKnowledgeCoinAmount;\r\n        semesters[index].assignmentCounter = 0;\r\n\r\n        // TEMP VARIABLES\r\n        semesters[index].assignmentStartBlock = 0;\r\n        semesters[index].assignmentEndBlock = 0;\r\n\r\n        semesterCounter = index;\r\n\r\n        semesterIds.push(index);\r\n\r\n        return index;\r\n    }\r\n\r\n    // Get the semester by id\r\n    function getSemester(uint256 _id)\r\n        public\r\n        view\r\n        returns (NOWSemesterReturn memory semester)\r\n    {\r\n        return\r\n            NOWSemesterReturn(\r\n                semesters[_id].name,\r\n                semesters[_id].startBlock,\r\n                semesters[_id].endBlock,\r\n                semesters[_id].minKnowledgeCoinAmount\r\n            );\r\n    }\r\n\r\n    // Get all semester ids\r\n    function getSemesterIds() public view returns (uint256[] memory) {\r\n        return semesterIds;\r\n    }\r\n\r\n    // Delete the semester by id\r\n    function deleteSemester(uint256 _id) public {\r\n        requireUserAdmin(msg.sender);\r\n\r\n        // Require no linked assignments\r\n        require(\r\n            semesters[_id].assignmentIds.length == 0,\r\n            \"Semester has linked assignments\"\r\n        );\r\n\r\n        delete semesters[_id];\r\n        removeByValue(semesterIds, _id);\r\n    }\r\n\r\n    // Get the latest semester counter id\r\n    function getSemesterCounter() public view returns (uint256) {\r\n        return semesterCounter;\r\n    }\r\n\r\n    // Check if semester id exists\r\n    function hasSemesterId(uint256 _semesterId) public view returns (bool) {\r\n        for (uint256 i = 0; i < semesterIds.length; i++) {\r\n            if (semesterIds[i] == _semesterId) {\r\n                return true;\r\n            }\r\n        }\r\n        return false;\r\n    }\r\n\r\n    /*----------  Setter  ----------*/\r\n\r\n    // Set the semester name\r\n    function setSemesterName(uint256 _id, string memory name) public {\r\n        requireUserAdmin(msg.sender);\r\n        semesters[_id].name = name;\r\n    }\r\n\r\n    // Set the semester start block\r\n    function setSemesterStartBlock(uint256 _id, uint256 _startBlock) public {\r\n        requireUserAdmin(msg.sender);\r\n\r\n        // Require start block to be smaller than end block\r\n        require(\r\n            _startBlock < semesters[_id].endBlock,\r\n            \"Start block must be smaller than end block\"\r\n        );\r\n\r\n        // Require start block to be larger than 0\r\n        require(_startBlock > 0, \"Start block must be larger than 0\");\r\n\r\n        // Require new start block to be smaller than the assignment start block\r\n        if (semesters[_id].assignmentStartBlock > 0) {\r\n            require(\r\n                _startBlock < semesters[_id].assignmentStartBlock,\r\n                \"Start block must be smaller than the smallest assignment start block\"\r\n            );\r\n        }\r\n\r\n        semesters[_id].startBlock = _startBlock;\r\n    }\r\n\r\n    // Set the semester end block\r\n    function setSemesterEndBlock(uint256 _id, uint256 _endBlock) public {\r\n        requireUserAdmin(msg.sender);\r\n\r\n        // Require end block to be larger than start block\r\n        require(\r\n            _endBlock > semesters[_id].startBlock,\r\n            \"End block must be larger than start block\"\r\n        );\r\n\r\n        // Require end block to be larger than 0\r\n        require(_endBlock > 0, \"End block must be larger than 0\");\r\n\r\n        // Require new start block to be smaller than the assignment start block\r\n        if (semesters[_id].assignmentStartBlock > 0) {\r\n            require(\r\n                _endBlock > semesters[_id].assignmentEndBlock,\r\n                \"Start block must be smaller than the largest assignment endblock block\"\r\n            );\r\n        }\r\n\r\n        semesters[_id].endBlock = _endBlock;\r\n    }\r\n\r\n    // Set the semester min knowledge coin amount\r\n    function setSemesterMinKnowledgeCoinAmount(\r\n        uint256 _id,\r\n        uint256 _minKnowledgeCoinAmount\r\n    ) public {\r\n        requireUserAdmin(msg.sender);\r\n\r\n        // Require min knowledge coin amount to be larger than 0\r\n        require(\r\n            _minKnowledgeCoinAmount > 0,\r\n            \"Min knowledge coin amount must be larger than 0\"\r\n        );\r\n\r\n        semesters[_id].minKnowledgeCoinAmount = _minKnowledgeCoinAmount;\r\n    }\r\n\r\n    /*=====  End of Semester function  ======*/\r\n\r\n    /*=============================================\r\n    =            Assignment functions            =\r\n    =============================================*/\r\n\r\n    // Append a new assignment to a semester\r\n    function appendAssignment(\r\n        uint256 _semesterId,\r\n        string memory _name,\r\n        string memory _link,\r\n        address _validationContractAddress,\r\n        uint256 _startBlock,\r\n        uint256 _endBlock\r\n    ) public returns (uint256) {\r\n        requireUserAdmin(msg.sender);\r\n\r\n        // Require that assignment is in block range of semester\r\n        require(\r\n            _startBlock >= semesters[_semesterId].startBlock &&\r\n                _endBlock <= semesters[_semesterId].endBlock,\r\n            \"Defined Assignment range is not in semester range\"\r\n        );\r\n\r\n        // Require that start block is smaller than end block\r\n        require(\r\n            _startBlock < _endBlock,\r\n            \"Start block must be smaller than end block\"\r\n        );\r\n\r\n        // Require start and end block to be larger than 0\r\n        require(\r\n            _startBlock > 0 && _endBlock > 0,\r\n            \"Start and end block must be larger than 0\"\r\n        );\r\n\r\n        uint256 index = semesters[_semesterId].assignmentCounter + 1;\r\n\r\n        semesters[_semesterId].assignments[index].name = _name;\r\n        semesters[_semesterId].assignments[index].link = _link;\r\n        semesters[_semesterId]\r\n            .assignments[index]\r\n            .validationContractAddress = _validationContractAddress;\r\n        semesters[_semesterId].assignments[index].startBlock = _startBlock;\r\n        semesters[_semesterId].assignments[index].endBlock = _endBlock;\r\n\r\n        semesters[_semesterId].assignmentCounter = index;\r\n\r\n        semesters[_semesterId].assignmentIds.push(index);\r\n\r\n        if (semesters[_semesterId].assignmentStartBlock > 0) {\r\n            // if start block is lower then assignment start block set to value\r\n            if (_startBlock < semesters[_semesterId].assignmentStartBlock) {\r\n                semesters[_semesterId].assignmentStartBlock = _startBlock;\r\n            }\r\n        } else {\r\n            semesters[_semesterId].assignmentStartBlock = _startBlock;\r\n        }\r\n\r\n        if (semesters[_semesterId].assignmentEndBlock > 0) {\r\n            // if end block is higher then assignment end block set to value\r\n            if (_endBlock > semesters[_semesterId].assignmentEndBlock) {\r\n                semesters[_semesterId].assignmentEndBlock = _endBlock;\r\n            }\r\n        } else {\r\n            semesters[_semesterId].assignmentEndBlock = _endBlock;\r\n        }\r\n        // Set the assignment infos to the validator contract\r\n        IBaseValidator validator = IBaseValidator(_validationContractAddress);\r\n\r\n        require(\r\n            validator.isAssignmentLinked() == false,\r\n            \"Assignment is already linked to a semester\"\r\n        );\r\n\r\n        validator.setAssignmentInfos(_semesterId, index);\r\n\r\n        require(\r\n            validator.isAssignmentLinked() == true,\r\n            \"Assignment needs to be linked to a semester, now!\"\r\n        );\r\n\r\n        return index;\r\n    }\r\n\r\n    // Get the assignment by id and semester id\r\n    function getAssignment(uint256 _semesterId, uint256 _assignmentId)\r\n        public\r\n        view\r\n        returns (NOWAssignments memory assignment)\r\n    {\r\n        return semesters[_semesterId].assignments[_assignmentId];\r\n    }\r\n\r\n    // Get all assignment ids from the semester\r\n    function getAssignmentIds(uint256 _semesterId)\r\n        public\r\n        view\r\n        returns (uint256[] memory)\r\n    {\r\n        return semesters[_semesterId].assignmentIds;\r\n    }\r\n\r\n    // Delete the assignment by id and semester id\r\n    function deleteAssignment(uint256 _semesterId, uint256 _assignmentId)\r\n        public\r\n    {\r\n        requireUserAdmin(msg.sender);\r\n\r\n        // First get the validation contract address\r\n        address validationContractAddress = semesters[_semesterId]\r\n            .assignments[_assignmentId]\r\n            .validationContractAddress;\r\n\r\n        // Remove the assignment from the mapping and address\r\n        delete semesters[_semesterId].assignments[_assignmentId];\r\n        removeByValue(semesters[_semesterId].assignmentIds, _assignmentId);\r\n\r\n        // Remove the infos from the assignment contract\r\n        IBaseValidator validator = IBaseValidator(validationContractAddress);\r\n\r\n        validator.clearAssignmentInfos();\r\n\r\n        require(\r\n            validator.isAssignmentLinked() == false,\r\n            \"Assignment is still linked to a semester!\"\r\n        );\r\n    }\r\n\r\n    // Get the latest assignment counter id\r\n    function getAssignmentCounter(uint256 semester_id)\r\n        public\r\n        view\r\n        returns (uint256)\r\n    {\r\n        return semesters[semester_id].assignmentCounter;\r\n    }\r\n\r\n    // Check if semester id exists\r\n    function hasAssignmentId(uint256 _semesterId, uint256 _assignmentId)\r\n        public\r\n        view\r\n        returns (bool)\r\n    {\r\n        // Loop over all semesters\r\n        for (uint256 i = 0; i < semesterIds.length; i++) {\r\n            // Check if the semester id exists\r\n            if (semesterIds[i] == _semesterId) {\r\n                // Loop over all assignments of the matching semester\r\n                for (\r\n                    uint256 j = 0;\r\n                    j < semesters[_semesterId].assignmentIds.length;\r\n                    j++\r\n                ) {\r\n                    // if the assignment id matches return true\r\n                    if (\r\n                        semesters[_semesterId].assignmentIds[j] == _assignmentId\r\n                    ) {\r\n                        return true;\r\n                    }\r\n                }\r\n\r\n                // If no assignment id matches of the matching semester return false\r\n                return false;\r\n            }\r\n        }\r\n\r\n        // Semester id does not exist\r\n        return false;\r\n    }\r\n\r\n    /*----------  Setter  ----------*/\r\n\r\n    function setAssignmentName(\r\n        uint256 _semesterId,\r\n        uint256 _assignmentId,\r\n        string memory name\r\n    ) public {\r\n        requireUserAdmin(msg.sender);\r\n        semesters[_semesterId].assignments[_assignmentId].name = name;\r\n    }\r\n\r\n    function setAssignmentLink(\r\n        uint256 _semesterId,\r\n        uint256 _assignmentId,\r\n        string memory link\r\n    ) public {\r\n        requireUserAdmin(msg.sender);\r\n        semesters[_semesterId].assignments[_assignmentId].link = link;\r\n    }\r\n\r\n    function setAssignmentAddress(\r\n        uint256 _semesterId,\r\n        uint256 _assignmentId,\r\n        address _address\r\n    ) public {\r\n        requireUserAdmin(msg.sender);\r\n\r\n        // 1. DELETE LINKAGE TO OLD VALIDATOR CONTRACT\r\n        address validationContractAddress = semesters[_semesterId]\r\n            .assignments[_assignmentId]\r\n            .validationContractAddress;\r\n\r\n        // Remove the infos from the assignment contract\r\n        IBaseValidator oldValidator = IBaseValidator(validationContractAddress);\r\n        oldValidator.clearAssignmentInfos();\r\n\r\n        require(\r\n            oldValidator.isAssignmentLinked() == false,\r\n            \"OLD Assignment is still linked to a semester!\"\r\n        );\r\n\r\n        // 2. SET NEW VALIDATOR CONTRACT\r\n        IBaseValidator newValidator = IBaseValidator(_address);\r\n\r\n        newValidator.setAssignmentInfos(_semesterId, _assignmentId);\r\n\r\n        require(\r\n            newValidator.isAssignmentLinked() == true,\r\n            \"NEW Assignment is not linked to a semester!\"\r\n        );\r\n\r\n        // 3. SET NEW VALIDATOR CONTRACT ADDRESS\r\n        semesters[_semesterId]\r\n            .assignments[_assignmentId]\r\n            .validationContractAddress = _address;\r\n    }\r\n\r\n    function setAssignmentStartBlock(\r\n        uint256 _semesterId,\r\n        uint256 _assignmentId,\r\n        uint256 _startBlock\r\n    ) public {\r\n        requireUserAdmin(msg.sender);\r\n\r\n        // Require that the start block is smaller than the end block\r\n        require(\r\n            _startBlock <\r\n                semesters[_semesterId].assignments[_assignmentId].endBlock,\r\n            \"Start block needs to be smaller than end block\"\r\n        );\r\n\r\n        // Require start block to be in range of the semester\r\n        require(\r\n            _startBlock >= semesters[_semesterId].startBlock &&\r\n                _startBlock <= semesters[_semesterId].endBlock,\r\n            \"Start block needs to be in range of the semester\"\r\n        );\r\n\r\n        // Require start block to be larger than 0\r\n        require(_startBlock > 0, \"Start block needs to be larger than 0\");\r\n\r\n        if (semesters[_semesterId].assignmentStartBlock > 0) {\r\n            // if start block is lower then assignment start block set to value\r\n            if (_startBlock < semesters[_semesterId].assignmentStartBlock) {\r\n                semesters[_semesterId].assignmentStartBlock = _startBlock;\r\n            }\r\n        }\r\n\r\n        semesters[_semesterId]\r\n            .assignments[_assignmentId]\r\n            .startBlock = _startBlock;\r\n    }\r\n\r\n    function setAssignmentEndBlock(\r\n        uint256 _semesterId,\r\n        uint256 _assignmentId,\r\n        uint256 _endBlock\r\n    ) public {\r\n        requireUserAdmin(msg.sender);\r\n\r\n        // Require that the end block is bigger than the start block\r\n        require(\r\n            _endBlock >\r\n                semesters[_semesterId].assignments[_assignmentId].startBlock,\r\n            \"End block needs to be bigger than start block\"\r\n        );\r\n\r\n        // Require end block to be in range of the semester\r\n        require(\r\n            _endBlock >= semesters[_semesterId].startBlock &&\r\n                _endBlock <= semesters[_semesterId].endBlock,\r\n            \"End block needs to be in range of the semester\"\r\n        );\r\n\r\n        // Require end block to be larger than 0\r\n        require(_endBlock > 0, \"End block needs to be larger than 0\");\r\n\r\n        if (semesters[_semesterId].assignmentEndBlock > 0) {\r\n            // if end block is higher then assignment end block set to value\r\n            if (_endBlock > semesters[_semesterId].assignmentEndBlock) {\r\n                semesters[_semesterId].assignmentEndBlock = _endBlock;\r\n            }\r\n        }\r\n\r\n        semesters[_semesterId].assignments[_assignmentId].endBlock = _endBlock;\r\n    }\r\n\r\n    /*=====  End of Assignment functions  ======*/\r\n\r\n    /*=============================================\r\n    =            Other functions            =\r\n    =============================================*/\r\n\r\n    function getFaucetGas() public view returns (uint128) {\r\n        return faucetGas;\r\n    }\r\n\r\n    function getFaucetBlockNoDifference() public view returns (uint128) {\r\n        return faucetBlockNoDifference;\r\n    }\r\n\r\n    function setFaucetGas(uint128 _faucetGas) public {\r\n        requireUserAdmin(msg.sender);\r\n        faucetGas = _faucetGas;\r\n    }\r\n\r\n    function setFaucetBlockNoDifference(uint128 _faucetBlockNoDifference)\r\n        public\r\n    {\r\n        requireUserAdmin(msg.sender);\r\n        faucetBlockNoDifference = _faucetBlockNoDifference;\r\n    }\r\n\r\n    /*=====  End of Other functions  ======*/\r\n\r\n    /*=============================================\r\n    =            Helper Functions            =\r\n    =============================================*/\r\n\r\n    function compareStrings(string memory a, string memory b)\r\n        internal\r\n        pure\r\n        returns (bool)\r\n    {\r\n        return (keccak256(abi.encodePacked((a))) ==\r\n            keccak256(abi.encodePacked((b))));\r\n    }\r\n\r\n    function find(uint256[] storage arr, uint256 value)\r\n        internal\r\n        view\r\n        returns (uint256)\r\n    {\r\n        uint256 i = 0;\r\n        while (arr[i] != value) {\r\n            i++;\r\n        }\r\n        return i;\r\n    }\r\n\r\n    function removeByValue(uint256[] storage arr, uint256 value) internal {\r\n        uint256 i = find(arr, value);\r\n        removeByIndex(arr, i);\r\n    }\r\n\r\n    function removeByIndex(uint256[] storage arr, uint256 i) internal {\r\n        while (i < arr.length - 1) {\r\n            arr[i] = arr[i + 1];\r\n            i++;\r\n        }\r\n        arr.pop();\r\n    }\r\n\r\n    /*=====  End of Helper Functions  ======*/\r\n}\r\n",
  "sourcePath": "C:\\Users\\stefa\\www\\mtp-blockchain\\smart-contracts\\contracts\\ConfigStorage.sol",
  "compiler": {
    "name": "solc",
    "version": "0.8.19+commit.7dd6d404.Emscripten.clang"
  },
  "schemaVersion": "3.4.11",
  "updatedAt": "2023-02-24T09:41:34.892Z",
  "devdoc": {
    "kind": "dev",
    "methods": {},
    "version": 1
  },
  "userdoc": {
    "kind": "user",
    "methods": {
      "constructor": {
        "notice": "Constructor to set default config values"
      }
    },
    "version": 1
  }
}