{
  "contractName": "ExampleAssignmentValidator2",
  "abi": [
    {
      "inputs": [
        {
          "internalType": "address",
          "name": "_configContractAddress",
          "type": "address"
        }
      ],
      "stateMutability": "nonpayable",
      "type": "constructor"
    },
    {
      "inputs": [],
      "name": "_testHistoryCounter",
      "outputs": [
        {
          "internalType": "uint256",
          "name": "",
          "type": "uint256"
        }
      ],
      "stateMutability": "view",
      "type": "function"
    },
    {
      "inputs": [
        {
          "internalType": "address",
          "name": "_helperAddress",
          "type": "address"
        }
      ],
      "name": "addHelperContracts",
      "outputs": [],
      "stateMutability": "nonpayable",
      "type": "function"
    },
    {
      "inputs": [
        {
          "internalType": "string",
          "name": "_name",
          "type": "string"
        },
        {
          "internalType": "bool",
          "name": "_result",
          "type": "bool"
        },
        {
          "internalType": "uint256",
          "name": "_points",
          "type": "uint256"
        }
      ],
      "name": "appendTestResult",
      "outputs": [],
      "stateMutability": "nonpayable",
      "type": "function"
    },
    {
      "inputs": [
        {
          "internalType": "string",
          "name": "_prefix",
          "type": "string"
        },
        {
          "internalType": "string",
          "name": "_message",
          "type": "string"
        },
        {
          "internalType": "string",
          "name": "_errorMsg",
          "type": "string"
        }
      ],
      "name": "buildErrorMessage",
      "outputs": [
        {
          "internalType": "string",
          "name": "",
          "type": "string"
        }
      ],
      "stateMutability": "pure",
      "type": "function"
    },
    {
      "inputs": [
        {
          "internalType": "string",
          "name": "_prefix",
          "type": "string"
        },
        {
          "internalType": "string",
          "name": "_message",
          "type": "string"
        },
        {
          "internalType": "string",
          "name": "_expected",
          "type": "string"
        },
        {
          "internalType": "string",
          "name": "_actual",
          "type": "string"
        }
      ],
      "name": "buildErrorMessageExtended",
      "outputs": [
        {
          "internalType": "string",
          "name": "",
          "type": "string"
        }
      ],
      "stateMutability": "pure",
      "type": "function"
    },
    {
      "inputs": [
        {
          "internalType": "address",
          "name": "_contractAddress",
          "type": "address"
        }
      ],
      "name": "checkAssignmentOwner",
      "outputs": [
        {
          "internalType": "bool",
          "name": "",
          "type": "bool"
        }
      ],
      "stateMutability": "view",
      "type": "function"
    },
    {
      "inputs": [],
      "name": "clearAssignmentInfos",
      "outputs": [],
      "stateMutability": "nonpayable",
      "type": "function"
    },
    {
      "inputs": [
        {
          "internalType": "string",
          "name": "a",
          "type": "string"
        },
        {
          "internalType": "string",
          "name": "b",
          "type": "string"
        }
      ],
      "name": "compareStrings",
      "outputs": [
        {
          "internalType": "bool",
          "name": "",
          "type": "bool"
        }
      ],
      "stateMutability": "pure",
      "type": "function"
    },
    {
      "inputs": [
        {
          "internalType": "address",
          "name": "_contractAddress",
          "type": "address"
        }
      ],
      "name": "createTestHistory",
      "outputs": [
        {
          "internalType": "uint256",
          "name": "",
          "type": "uint256"
        }
      ],
      "stateMutability": "nonpayable",
      "type": "function"
    },
    {
      "inputs": [
        {
          "internalType": "address",
          "name": "_address",
          "type": "address"
        }
      ],
      "name": "getAssignmentCreationBlockNumber",
      "outputs": [
        {
          "internalType": "uint256",
          "name": "",
          "type": "uint256"
        }
      ],
      "stateMutability": "view",
      "type": "function"
    },
    {
      "inputs": [],
      "name": "getAssignmentInfos",
      "outputs": [
        {
          "internalType": "uint256",
          "name": "",
          "type": "uint256"
        },
        {
          "internalType": "uint256",
          "name": "",
          "type": "uint256"
        },
        {
          "internalType": "bool",
          "name": "",
          "type": "bool"
        }
      ],
      "stateMutability": "view",
      "type": "function"
    },
    {
      "inputs": [
        {
          "internalType": "address",
          "name": "_address",
          "type": "address"
        }
      ],
      "name": "getAssignmentOwner",
      "outputs": [
        {
          "internalType": "address",
          "name": "",
          "type": "address"
        }
      ],
      "stateMutability": "view",
      "type": "function"
    },
    {
      "inputs": [],
      "name": "getConfigStorage",
      "outputs": [
        {
          "internalType": "contract ConfigStorage",
          "name": "",
          "type": "address"
        }
      ],
      "stateMutability": "view",
      "type": "function"
    },
    {
      "inputs": [],
      "name": "getHistoryCounter",
      "outputs": [
        {
          "internalType": "uint256",
          "name": "",
          "type": "uint256"
        }
      ],
      "stateMutability": "view",
      "type": "function"
    },
    {
      "inputs": [],
      "name": "getRequiredEther",
      "outputs": [
        {
          "internalType": "uint256",
          "name": "",
          "type": "uint256"
        }
      ],
      "stateMutability": "view",
      "type": "function"
    },
    {
      "inputs": [
        {
          "internalType": "address",
          "name": "_address",
          "type": "address"
        }
      ],
      "name": "getSubmittedAssignment",
      "outputs": [
        {
          "components": [
            {
              "internalType": "uint256",
              "name": "testIndex",
              "type": "uint256"
            },
            {
              "internalType": "address",
              "name": "studentAddress",
              "type": "address"
            },
            {
              "internalType": "address",
              "name": "contractAddress",
              "type": "address"
            },
            {
              "internalType": "uint256",
              "name": "knowledgeCoins",
              "type": "uint256"
            },
            {
              "internalType": "uint256",
              "name": "blockNo",
              "type": "uint256"
            },
            {
              "internalType": "bool",
              "name": "submitted",
              "type": "bool"
            }
          ],
          "internalType": "struct BaseValidator.AssignmentSubmitted",
          "name": "",
          "type": "tuple"
        }
      ],
      "stateMutability": "view",
      "type": "function"
    },
    {
      "inputs": [
        {
          "internalType": "address",
          "name": "_address",
          "type": "address"
        }
      ],
      "name": "getTestHistoryIndexes",
      "outputs": [
        {
          "internalType": "uint256[]",
          "name": "",
          "type": "uint256[]"
        }
      ],
      "stateMutability": "view",
      "type": "function"
    },
    {
      "inputs": [
        {
          "internalType": "uint256",
          "name": "_historyIndex",
          "type": "uint256"
        },
        {
          "internalType": "uint256",
          "name": "_testIndex",
          "type": "uint256"
        }
      ],
      "name": "getTestResultByIndex",
      "outputs": [
        {
          "components": [
            {
              "internalType": "string",
              "name": "testName",
              "type": "string"
            },
            {
              "internalType": "bool",
              "name": "testPassed",
              "type": "bool"
            },
            {
              "internalType": "uint256",
              "name": "points",
              "type": "uint256"
            }
          ],
          "internalType": "struct BaseValidator.Test",
          "name": "result",
          "type": "tuple"
        }
      ],
      "stateMutability": "view",
      "type": "function"
    },
    {
      "inputs": [
        {
          "internalType": "uint256",
          "name": "_historyIndex",
          "type": "uint256"
        }
      ],
      "name": "getTestResults",
      "outputs": [
        {
          "components": [
            {
              "internalType": "string",
              "name": "testName",
              "type": "string"
            },
            {
              "internalType": "bool",
              "name": "testPassed",
              "type": "bool"
            },
            {
              "internalType": "uint256",
              "name": "points",
              "type": "uint256"
            }
          ],
          "internalType": "struct BaseValidator.Test[]",
          "name": "result",
          "type": "tuple[]"
        }
      ],
      "stateMutability": "view",
      "type": "function"
    },
    {
      "inputs": [
        {
          "internalType": "address",
          "name": "_address",
          "type": "address"
        }
      ],
      "name": "hasAssignmentSubmitted",
      "outputs": [
        {
          "internalType": "bool",
          "name": "",
          "type": "bool"
        }
      ],
      "stateMutability": "view",
      "type": "function"
    },
    {
      "inputs": [
        {
          "internalType": "address",
          "name": "_addr",
          "type": "address"
        },
        {
          "internalType": "string",
          "name": "functionName",
          "type": "string"
        },
        {
          "internalType": "uint256",
          "name": "ethValue",
          "type": "uint256"
        }
      ],
      "name": "hasFunction",
      "outputs": [
        {
          "internalType": "bool",
          "name": "",
          "type": "bool"
        }
      ],
      "stateMutability": "payable",
      "type": "function"
    },
    {
      "inputs": [
        {
          "internalType": "address",
          "name": "_configContractAddress",
          "type": "address"
        },
        {
          "internalType": "string",
          "name": "_contractName",
          "type": "string"
        }
      ],
      "name": "initAdmin",
      "outputs": [],
      "stateMutability": "nonpayable",
      "type": "function"
    },
    {
      "inputs": [],
      "name": "isAssignmentLinked",
      "outputs": [
        {
          "internalType": "bool",
          "name": "",
          "type": "bool"
        }
      ],
      "stateMutability": "view",
      "type": "function"
    },
    {
      "inputs": [
        {
          "internalType": "address",
          "name": "_helperAddress",
          "type": "address"
        }
      ],
      "name": "isValidator",
      "outputs": [
        {
          "internalType": "bool",
          "name": "",
          "type": "bool"
        }
      ],
      "stateMutability": "view",
      "type": "function"
    },
    {
      "inputs": [
        {
          "internalType": "address",
          "name": "_address",
          "type": "address"
        }
      ],
      "name": "removeSubmittedAssignment",
      "outputs": [],
      "stateMutability": "nonpayable",
      "type": "function"
    },
    {
      "inputs": [],
      "name": "setAssignmentCreationBlockNumber",
      "outputs": [],
      "stateMutability": "nonpayable",
      "type": "function"
    },
    {
      "inputs": [
        {
          "internalType": "uint256",
          "name": "semesterId",
          "type": "uint256"
        },
        {
          "internalType": "uint256",
          "name": "assignmentId",
          "type": "uint256"
        }
      ],
      "name": "setAssignmentInfos",
      "outputs": [],
      "stateMutability": "nonpayable",
      "type": "function"
    },
    {
      "inputs": [],
      "name": "setAssignmentOwner",
      "outputs": [],
      "stateMutability": "nonpayable",
      "type": "function"
    },
    {
      "inputs": [
        {
          "internalType": "address",
          "name": "_contractAddress",
          "type": "address"
        }
      ],
      "name": "submitAssignment",
      "outputs": [
        {
          "internalType": "uint256",
          "name": "",
          "type": "uint256"
        }
      ],
      "stateMutability": "payable",
      "type": "function"
    },
    {
      "inputs": [
        {
          "internalType": "address",
          "name": "_contractAddress",
          "type": "address"
        }
      ],
      "name": "validateAssignment",
      "outputs": [
        {
          "internalType": "uint256",
          "name": "",
          "type": "uint256"
        }
      ],
      "stateMutability": "payable",
      "type": "function"
    },
    {
      "inputs": [
        {
          "internalType": "address payable",
          "name": "_to",
          "type": "address"
        },
        {
          "internalType": "uint256",
          "name": "_value",
          "type": "uint256"
        }
      ],
      "name": "withdrawFunds",
      "outputs": [],
      "stateMutability": "payable",
      "type": "function"
    },
    {
      "inputs": [
        {
          "internalType": "address",
          "name": "_contractAddress",
          "type": "address"
        }
      ],
      "name": "test",
      "outputs": [
        {
          "internalType": "uint256",
          "name": "",
          "type": "uint256"
        }
      ],
      "stateMutability": "payable",
      "type": "function"
    }
  ],
  "bytecode": "0x608060405260006006553480156200001657600080fd5b50604051620051403803806200514083398181016040528101906200003c9190620002f8565b806040518060400160405280601b81526020017f4578616d706c6541737369676e6d656e7456616c696461746f723200000000008152506000620000878383620000b160201b60201c565b62000098306200017b60201b60201c565b8060068190555060006007819055505050505062000495565b816000806101000a81548173ffffffffffffffffffffffffffffffffffffffff021916908373ffffffffffffffffffffffffffffffffffffffff1602179055506000620001036200026560201b60201c565b90508073ffffffffffffffffffffffffffffffffffffffff16637fb99b9330846040518363ffffffff1660e01b815260040162000142929190620003d5565b600060405180830381600087803b1580156200015d57600080fd5b505af115801562000172573d6000803e3d6000fd5b50505050505050565b6200018b6200026560201b60201c565b73ffffffffffffffffffffffffffffffffffffffff16635577210a336040518263ffffffff1660e01b8152600401620001c5919062000409565b602060405180830381865afa158015620001e3573d6000803e3d6000fd5b505050506040513d601f19601f8201168201806040525081019062000209919062000463565b506001600a60008373ffffffffffffffffffffffffffffffffffffffff1673ffffffffffffffffffffffffffffffffffffffff16815260200190815260200160002060006101000a81548160ff02191690831515021790555050565b60008060009054906101000a900473ffffffffffffffffffffffffffffffffffffffff16905090565b600080fd5b600073ffffffffffffffffffffffffffffffffffffffff82169050919050565b6000620002c08262000293565b9050919050565b620002d281620002b3565b8114620002de57600080fd5b50565b600081519050620002f281620002c7565b92915050565b6000602082840312156200031157620003106200028e565b5b60006200032184828501620002e1565b91505092915050565b6200033581620002b3565b82525050565b600081519050919050565b600082825260208201905092915050565b60005b83811015620003775780820151818401526020810190506200035a565b60008484015250505050565b6000601f19601f8301169050919050565b6000620003a1826200033b565b620003ad818562000346565b9350620003bf81856020860162000357565b620003ca8162000383565b840191505092915050565b6000604082019050620003ec60008301856200032a565b818103602083015262000400818462000394565b90509392505050565b60006020820190506200042060008301846200032a565b92915050565b60008115159050919050565b6200043d8162000426565b81146200044957600080fd5b50565b6000815190506200045d8162000432565b92915050565b6000602082840312156200047c576200047b6200028e565b5b60006200048c848285016200044c565b91505092915050565b614c9b80620004a56000396000f3fe6080604052600436106101e35760003560e01c8063990fdd4911610102578063c107532911610095578063f274f59611610064578063f274f59614610739578063facd743b14610762578063fae45fbe1461079f578063fbd5bf4c146107c8576101e3565b8063c107532914610699578063c717a434146106b5578063c9b9da95146106f2578063d7dc298114610709576101e3565b8063afbd6ae5116100d1578063afbd6ae5146105bf578063b8e58a2a146105fc578063bb29998e1461062c578063bed34bba1461065c576101e3565b8063990fdd4914610517578063a2574c3014610554578063a69e79b71461057d578063ab6f490f14610594576101e3565b80633e45b8261161017a5780635da15abd116101495780635da15abd146104445780635f1d4ea914610474578063621eb8a71461049d5780636d6fa6d9146104da576101e3565b80633e45b826146103625780634eed8c5d1461039f578063516cbbe2146103dc5780635827a06514610407576101e3565b806313a12b44116101b657806313a12b44146102a65780632350e03a146102e35780632b5183011461030e5780633c21bf251461034b576101e3565b8063067df42b146101e857806306854c5f1461021157806308e753ed1461023c5780630fa56ee414610279575b600080fd5b3480156101f457600080fd5b5061020f600480360381019061020a9190612e04565b6107f3565b005b34801561021d57600080fd5b50610226610a32565b6040516102339190612e5f565b60405180910390f35b34801561024857600080fd5b50610263600480360381019061025e9190612ed8565b610a49565b6040516102709190612e5f565b60405180910390f35b34801561028557600080fd5b5061028e610aa2565b60405161029d93929190612f14565b60405180910390f35b3480156102b257600080fd5b506102cd60048036038101906102c89190612ed8565b610ac8565b6040516102da9190612f4b565b60405180910390f35b3480156102ef57600080fd5b506102f8610b11565b6040516103059190612f4b565b60405180910390f35b34801561031a57600080fd5b50610335600480360381019061033091906130ac565b610b1b565b60405161034291906131d2565b60405180910390f35b34801561035757600080fd5b50610360610b4a565b005b34801561036e57600080fd5b50610389600480360381019061038491906131f4565b610c5e565b604051610396919061339b565b60405180910390f35b3480156103ab57600080fd5b506103c660048036038101906103c19190612e04565b610e22565b6040516103d3919061340d565b60405180910390f35b3480156103e857600080fd5b506103f1610f1b565b6040516103fe919061348e565b60405180910390f35b34801561041357600080fd5b5061042e600480360381019061042991906134a9565b610f44565b60405161043b91906131d2565b60405180910390f35b61045e60048036038101906104599190612ed8565b610f76565b60405161046b9190612f4b565b60405180910390f35b34801561048057600080fd5b5061049b60048036038101906104969190612ed8565b611586565b005b3480156104a957600080fd5b506104c460048036038101906104bf9190612ed8565b611663565b6040516104d1919061362f565b60405180910390f35b3480156104e657600080fd5b5061050160048036038101906104fc9190612ed8565b61177b565b60405161050e9190612e5f565b60405180910390f35b34801561052357600080fd5b5061053e60048036038101906105399190612ed8565b6117cb565b60405161054b9190612f4b565b60405180910390f35b34801561056057600080fd5b5061057b6004803603810190610576919061367d565b611938565b005b34801561058957600080fd5b50610592611ab8565b005b3480156105a057600080fd5b506105a9611b67565b6040516105b69190612f4b565b60405180910390f35b3480156105cb57600080fd5b506105e660048036038101906105e19190612ed8565b611b71565b6040516105f391906136fb565b60405180910390f35b61061660048036038101906106119190612ed8565b611bda565b6040516106239190612f4b565b60405180910390f35b61064660048036038101906106419190612ed8565b611d94565b6040516106539190612f4b565b60405180910390f35b34801561066857600080fd5b50610683600480360381019061067e9190613716565b612064565b6040516106909190612e5f565b60405180910390f35b6106b360048036038101906106ae91906137cc565b6120bd565b005b3480156106c157600080fd5b506106dc60048036038101906106d79190612ed8565b61240c565b6040516106e99190613896565b60405180910390f35b3480156106fe57600080fd5b5061070761254a565b005b610723600480360381019061071e91906138b1565b6125d8565b6040516107309190612e5f565b60405180910390f35b34801561074557600080fd5b50610760600480360381019061075b9190612ed8565b612689565b005b34801561076e57600080fd5b5061078960048036038101906107849190612ed8565b61295b565b6040516107969190612e5f565b60405180910390f35b3480156107ab57600080fd5b506107c660048036038101906107c19190613920565b6129b1565b005b3480156107d457600080fd5b506107dd612a6f565b6040516107ea9190612f4b565b60405180910390f35b6107fb610f1b565b73ffffffffffffffffffffffffffffffffffffffff16635577210a336040518263ffffffff1660e01b815260040161083391906136fb565b602060405180830381865afa158015610850573d6000803e3d6000fd5b505050506040513d601f19601f820116820180604052508101906108749190613991565b5060011515610881610f1b565b73ffffffffffffffffffffffffffffffffffffffff16633a06068d846040518263ffffffff1660e01b81526004016108b99190612f4b565b602060405180830381865afa1580156108d6573d6000803e3d6000fd5b505050506040513d601f19601f820116820180604052508101906108fa9190613991565b15151461093c576040517f08c379a000000000000000000000000000000000000000000000000000000000815260040161093390613a0a565b60405180910390fd5b60011515610948610f1b565b73ffffffffffffffffffffffffffffffffffffffff16637572fa8984846040518363ffffffff1660e01b8152600401610982929190613a2a565b602060405180830381865afa15801561099f573d6000803e3d6000fd5b505050506040513d601f19601f820116820180604052508101906109c39190613991565b151514610a05576040517f08c379a00000000000000000000000000000000000000000000000000000000081526004016109fc90613ac5565b60405180910390fd5b81600381905550806004819055506001600560006101000a81548160ff0219169083151502179055505050565b6000600560009054906101000a900460ff16905090565b6000600960008373ffffffffffffffffffffffffffffffffffffffff1673ffffffffffffffffffffffffffffffffffffffff16815260200190815260200160002060050160009054906101000a900460ff169050919050565b6000806000600354600454600560009054906101000a900460ff16925092509250909192565b6000600160008373ffffffffffffffffffffffffffffffffffffffff1673ffffffffffffffffffffffffffffffffffffffff168152602001908152602001600020549050919050565b6000600654905090565b6060838383604051602001610b3293929190613bb9565b60405160208183030381529060405290509392505050565b600073ffffffffffffffffffffffffffffffffffffffff16600260003373ffffffffffffffffffffffffffffffffffffffff1673ffffffffffffffffffffffffffffffffffffffff16815260200190815260200160002060009054906101000a900473ffffffffffffffffffffffffffffffffffffffff1673ffffffffffffffffffffffffffffffffffffffff1603610c5c5732600260003373ffffffffffffffffffffffffffffffffffffffff1673ffffffffffffffffffffffffffffffffffffffff16815260200190815260200160002060006101000a81548173ffffffffffffffffffffffffffffffffffffffff021916908373ffffffffffffffffffffffffffffffffffffffff1602179055505b565b60606000600860008481526020019081526020016000206002015467ffffffffffffffff811115610c9257610c91612f81565b5b604051908082528060200260200182016040528015610ccb57816020015b610cb8612d33565b815260200190600190039081610cb05790505b5090506000600190505b60086000858152602001908152602001600020600201548111610e1857600860008581526020019081526020016000206003016000828152602001908152602001600020604051806060016040529081600082018054610d3490613c2f565b80601f0160208091040260200160405190810160405280929190818152602001828054610d6090613c2f565b8015610dad5780601f10610d8257610100808354040283529160200191610dad565b820191906000526020600020905b815481529060010190602001808311610d9057829003601f168201915b505050505081526020016001820160009054906101000a900460ff1615151515815260200160028201548152505082600183610de99190613c8f565b81518110610dfa57610df9613cc3565b5b60200260200101819052508080610e1090613cf2565b915050610cd5565b8192505050919050565b610e2a612d33565b600860008481526020019081526020016000206003016000838152602001908152602001600020604051806060016040529081600082018054610e6c90613c2f565b80601f0160208091040260200160405190810160405280929190818152602001828054610e9890613c2f565b8015610ee55780601f10610eba57610100808354040283529160200191610ee5565b820191906000526020600020905b815481529060010190602001808311610ec857829003601f168201915b505050505081526020016001820160009054906101000a900460ff16151515158152602001600282015481525050905092915050565b60008060009054906101000a900473ffffffffffffffffffffffffffffffffffffffff16905090565b606084848484604051602001610f5d9493929190613dd2565b6040516020818303038152906040529050949350505050565b600060011515610f84610a32565b151514610fc6576040517f08c379a0000000000000000000000000000000000000000000000000000000008152600401610fbd90613ec9565b60405180910390fd5b60011515600960003373ffffffffffffffffffffffffffffffffffffffff1673ffffffffffffffffffffffffffffffffffffffff16815260200190815260200160002060050160009054906101000a900460ff1615150361105c576040517f08c379a000000000000000000000000000000000000000000000000000000000815260040161105390613f81565b60405180910390fd5b3373ffffffffffffffffffffffffffffffffffffffff168273ffffffffffffffffffffffffffffffffffffffff1663893d20e86040518163ffffffff1660e01b81526004016020604051808303816000875af11580156110c0573d6000803e3d6000fd5b505050506040513d601f19601f820116820180604052508101906110e49190613fb6565b73ffffffffffffffffffffffffffffffffffffffff161461113a576040517f08c379a00000000000000000000000000000000000000000000000000000000081526004016111319061407b565b60405180910390fd5b6001151561114783612a75565b151514611189576040517f08c379a000000000000000000000000000000000000000000000000000000000815260040161118090614133565b60405180910390fd5b60011515611195612bd9565b1515146111d7576040517f08c379a00000000000000000000000000000000000000000000000000000000081526004016111ce906141eb565b60405180910390fd5b60006111e283611bda565b9050600080600190505b60086000848152602001908152602001600020600201548111611298576001151560086000858152602001908152602001600020600301600083815260200190815260200160002060010160009054906101000a900460ff16151503611285576008600084815260200190815260200160002060030160008281526020019081526020016000206002015482611282919061420b565b91505b808061129090613cf2565b9150506111ec565b60006112a2610f1b565b73ffffffffffffffffffffffffffffffffffffffff1663f67917796040518163ffffffff1660e01b8152600401602060405180830381865afa1580156112ec573d6000803e3d6000fd5b505050506040513d601f19601f820116820180604052508101906113109190613fb6565b905060008173ffffffffffffffffffffffffffffffffffffffff16634cdca3bd856040518263ffffffff1660e01b815260040161134d9190612f4b565b602060405180830381865afa15801561136a573d6000803e3d6000fd5b505050506040513d601f19601f8201168201806040525081019061138e9190614254565b90508173ffffffffffffffffffffffffffffffffffffffff166340c10f1933836040518363ffffffff1660e01b81526004016113cb929190614281565b6020604051808303816000875af11580156113ea573d6000803e3d6000fd5b505050506040513d601f19601f8201168201806040525081019061140e9190613991565b506040518060c001604052808681526020013373ffffffffffffffffffffffffffffffffffffffff1681526020018873ffffffffffffffffffffffffffffffffffffffff16815260200185815260200143815260200160011515815250600960003373ffffffffffffffffffffffffffffffffffffffff1673ffffffffffffffffffffffffffffffffffffffff1681526020019081526020016000206000820151816000015560208201518160010160006101000a81548173ffffffffffffffffffffffffffffffffffffffff021916908373ffffffffffffffffffffffffffffffffffffffff16021790555060408201518160020160006101000a81548173ffffffffffffffffffffffffffffffffffffffff021916908373ffffffffffffffffffffffffffffffffffffffff160217905550606082015181600301556080820151816004015560a08201518160050160006101000a81548160ff0219169083151502179055509050508495505050505050919050565b61158e610f1b565b73ffffffffffffffffffffffffffffffffffffffff16635577210a336040518263ffffffff1660e01b81526004016115c691906136fb565b602060405180830381865afa1580156115e3573d6000803e3d6000fd5b505050506040513d601f19601f820116820180604052508101906116079190613991565b506001600a60008373ffffffffffffffffffffffffffffffffffffffff1673ffffffffffffffffffffffffffffffffffffffff16815260200190815260200160002060006101000a81548160ff02191690831515021790555050565b6060600060075467ffffffffffffffff81111561168357611682612f81565b5b6040519080825280602002602001820160405280156116b15781602001602082028036833780820191505090505b509050600080600091505b6007548211611770578473ffffffffffffffffffffffffffffffffffffffff166008600084815260200190815260200160002060000160009054906101000a900473ffffffffffffffffffffffffffffffffffffffff1673ffffffffffffffffffffffffffffffffffffffff160361175d578183828151811061174257611741613cc3565b5b602002602001018181525050808061175990613cf2565b9150505b818061176890613cf2565b9250506116bc565b829350505050919050565b60003373ffffffffffffffffffffffffffffffffffffffff1661179d83611b71565b73ffffffffffffffffffffffffffffffffffffffff16036117c157600190506117c6565b600090505b919050565b60006117d5610f1b565b73ffffffffffffffffffffffffffffffffffffffff16635577210a306040518263ffffffff1660e01b815260040161180d91906136fb565b602060405180830381865afa15801561182a573d6000803e3d6000fd5b505050506040513d601f19601f8201168201806040525081019061184e9190613991565b5060006001600754611860919061420b565b9050336008600083815260200190815260200160002060000160006101000a81548173ffffffffffffffffffffffffffffffffffffffff021916908373ffffffffffffffffffffffffffffffffffffffff160217905550826008600083815260200190815260200160002060010160006101000a81548173ffffffffffffffffffffffffffffffffffffffff021916908373ffffffffffffffffffffffffffffffffffffffff160217905550600060086000838152602001908152602001600020600201819055508060078190555080915050919050565b611940610f1b565b73ffffffffffffffffffffffffffffffffffffffff16635577210a306040518263ffffffff1660e01b815260040161197891906136fb565b602060405180830381865afa158015611995573d6000803e3d6000fd5b505050506040513d601f19601f820116820180604052508101906119b99190613991565b5060006001600860006007548152602001908152602001600020600201546119e1919061420b565b905060006040518060600160405280868152602001851515815260200184815250905084816000018190525083816020019015159081151581525050828160400181815250508060086000600754815260200190815260200160002060030160008481526020019081526020016000206000820151816000019081611a66919061444c565b5060208201518160010160006101000a81548160ff0219169083151502179055506040820151816002015590505081600860006007548152602001908152602001600020600201819055505050505050565b611ac0610f1b565b73ffffffffffffffffffffffffffffffffffffffff16635577210a336040518263ffffffff1660e01b8152600401611af891906136fb565b602060405180830381865afa158015611b15573d6000803e3d6000fd5b505050506040513d601f19601f82011682018060405250810190611b399190613991565b50600060038190555060006004819055506000600560006101000a81548160ff021916908315150217905550565b6000600754905090565b6000600260008373ffffffffffffffffffffffffffffffffffffffff1673ffffffffffffffffffffffffffffffffffffffff16815260200190815260200160002060009054906101000a900473ffffffffffffffffffffffffffffffffffffffff169050919050565b600060011515611be8610a32565b151514611c2a576040517f08c379a0000000000000000000000000000000000000000000000000000000008152600401611c21906145b6565b60405180910390fd5b3273ffffffffffffffffffffffffffffffffffffffff16611c4a83611b71565b73ffffffffffffffffffffffffffffffffffffffff161480611cf0575060011515611c73610f1b565b73ffffffffffffffffffffffffffffffffffffffff166324d7806c336040518263ffffffff1660e01b8152600401611cab91906136fb565b602060405180830381865afa158015611cc8573d6000803e3d6000fd5b505050506040513d601f19601f82011682018060405250810190611cec9190613991565b1515145b611d2f576040517f08c379a0000000000000000000000000000000000000000000000000000000008152600401611d269061466e565b60405180910390fd5b60011515611d3c83612a75565b151514611d7e576040517f08c379a0000000000000000000000000000000000000000000000000000000008152600401611d7590614133565b60405180910390fd5b6000611d8983611d94565b905080915050919050565b6000611d9f826117cb565b506000829050611dee6040518060400160405280601c81526020017f497320636f6e74726163742066726f6d207468652073747564656e7400000000815250611de78561177b565b6001611938565b6103e88173ffffffffffffffffffffffffffffffffffffffff1663a420e5d26040518163ffffffff1660e01b8152600401602060405180830381865afa158015611e3c573d6000803e3d6000fd5b505050506040513d601f19601f82011682018060405250810190611e6091906146c4565b03611eab57611ea66040518060400160405280601d81526020017f746573742069662064656661756c742076616c75652069732031303030000000815250600180611938565b611eed565b611eec6040518060400160405280601d81526020017f746573742069662064656661756c742076616c75652069732031393938000000815250600080611938565b5b8073ffffffffffffffffffffffffffffffffffffffff16636c2e929c6107e66040518263ffffffff1660e01b8152600401611f289190614700565b600060405180830381600087803b158015611f4257600080fd5b505af1158015611f56573d6000803e3d6000fd5b505050506107e68173ffffffffffffffffffffffffffffffffffffffff1663a420e5d26040518163ffffffff1660e01b8152600401602060405180830381865afa158015611fa8573d6000803e3d6000fd5b505050506040513d601f19601f82011682018060405250810190611fcc91906146c4565b03612017576120126040518060400160405280601a81526020017f74657374206966207365745465737456616c756520776f726b73000000000000815250600180611938565b612059565b6120586040518060400160405280601a81526020017f74657374206966207365745465737456616c756520776f726b73000000000000815250600080611938565b5b600754915050919050565b600081604051602001612077919061471b565b604051602081830303815290604052805190602001208360405160200161209e919061471b565b6040516020818303038152906040528051906020012014905092915050565b6120c5610f1b565b73ffffffffffffffffffffffffffffffffffffffff166324d7806c336040518263ffffffff1660e01b81526004016120fd91906136fb565b602060405180830381865afa15801561211a573d6000803e3d6000fd5b505050506040513d601f19601f8201168201806040525081019061213e9190613991565b61217d576040517f08c379a0000000000000000000000000000000000000000000000000000000008152600401612174906147a4565b60405180910390fd5b600073ffffffffffffffffffffffffffffffffffffffff168273ffffffffffffffffffffffffffffffffffffffff16036121ec576040517f08c379a00000000000000000000000000000000000000000000000000000000081526004016121e390614810565b60405180910390fd5b3373ffffffffffffffffffffffffffffffffffffffff168273ffffffffffffffffffffffffffffffffffffffff16148061225157503273ffffffffffffffffffffffffffffffffffffffff168273ffffffffffffffffffffffffffffffffffffffff16145b806122d9575061225f610f1b565b73ffffffffffffffffffffffffffffffffffffffff166324d7806c836040518263ffffffff1660e01b81526004016122979190614851565b602060405180830381865afa1580156122b4573d6000803e3d6000fd5b505050506040513d601f19601f820116820180604052508101906122d89190613991565b5b612318576040517f08c379a000000000000000000000000000000000000000000000000000000000815260040161230f906148de565b60405180910390fd5b4781101561235b576040517f08c379a00000000000000000000000000000000000000000000000000000000081526004016123529061494a565b60405180910390fd5b60008273ffffffffffffffffffffffffffffffffffffffff16826040516123819061499b565b60006040518083038185875af1925050503d80600081146123be576040519150601f19603f3d011682016040523d82523d6000602084013e6123c3565b606091505b5050905080612407576040517f08c379a00000000000000000000000000000000000000000000000000000000081526004016123fe906149fc565b60405180910390fd5b505050565b612414612d56565b600960008373ffffffffffffffffffffffffffffffffffffffff1673ffffffffffffffffffffffffffffffffffffffff1681526020019081526020016000206040518060c0016040529081600082015481526020016001820160009054906101000a900473ffffffffffffffffffffffffffffffffffffffff1673ffffffffffffffffffffffffffffffffffffffff1673ffffffffffffffffffffffffffffffffffffffff1681526020016002820160009054906101000a900473ffffffffffffffffffffffffffffffffffffffff1673ffffffffffffffffffffffffffffffffffffffff1673ffffffffffffffffffffffffffffffffffffffff16815260200160038201548152602001600482015481526020016005820160009054906101000a900460ff1615151515815250509050919050565b6000600160003373ffffffffffffffffffffffffffffffffffffffff1673ffffffffffffffffffffffffffffffffffffffff16815260200190815260200160002054036125d65743600160003373ffffffffffffffffffffffffffffffffffffffff1673ffffffffffffffffffffffffffffffffffffffff168152602001908152602001600020819055505b565b600080836040516020016125ec919061471b565b60405160208183030381529060405280519060200120905060008082604051602401604051602081830303815290604052907bffffffffffffffffffffffffffffffffffffffffffffffffffffffff19166020820180517bffffffffffffffffffffffffffffffffffffffffffffffffffffffff83818316178352505050509050600080825160208401888b5af191508193505050509392505050565b612691610f1b565b73ffffffffffffffffffffffffffffffffffffffff16635577210a826040518263ffffffff1660e01b81526004016126c991906136fb565b602060405180830381865afa1580156126e6573d6000803e3d6000fd5b505050506040513d601f19601f8201168201806040525081019061270a9190613991565b506001151561271882610a49565b15151461275a576040517f08c379a000000000000000000000000000000000000000000000000000000000815260040161275190614a8e565b60405180910390fd5b6000600960008373ffffffffffffffffffffffffffffffffffffffff1673ffffffffffffffffffffffffffffffffffffffff16815260200190815260200160002060030154905060006127ab610f1b565b73ffffffffffffffffffffffffffffffffffffffff1663f67917796040518163ffffffff1660e01b8152600401602060405180830381865afa1580156127f5573d6000803e3d6000fd5b505050506040513d601f19601f820116820180604052508101906128199190613fb6565b90508073ffffffffffffffffffffffffffffffffffffffff16639dc29fac84846040518363ffffffff1660e01b8152600401612856929190614281565b6020604051808303816000875af1158015612875573d6000803e3d6000fd5b505050506040513d601f19601f820116820180604052508101906128999190613991565b50600960008473ffffffffffffffffffffffffffffffffffffffff1673ffffffffffffffffffffffffffffffffffffffff1681526020019081526020016000206000808201600090556001820160006101000a81549073ffffffffffffffffffffffffffffffffffffffff02191690556002820160006101000a81549073ffffffffffffffffffffffffffffffffffffffff0219169055600382016000905560048201600090556005820160006101000a81549060ff02191690555050505050565b6000600a60008373ffffffffffffffffffffffffffffffffffffffff1673ffffffffffffffffffffffffffffffffffffffff16815260200190815260200160002060009054906101000a900460ff169050919050565b816000806101000a81548173ffffffffffffffffffffffffffffffffffffffff021916908373ffffffffffffffffffffffffffffffffffffffff16021790555060006129fb610f1b565b90508073ffffffffffffffffffffffffffffffffffffffff16637fb99b9330846040518363ffffffff1660e01b8152600401612a38929190614aae565b600060405180830381600087803b158015612a5257600080fd5b505af1158015612a66573d6000803e3d6000fd5b50505050505050565b60075481565b600080612a8183610ac8565b90506000612a8d610f1b565b73ffffffffffffffffffffffffffffffffffffffff1663e07b04946003546004546040518363ffffffff1660e01b8152600401612acb929190613a2a565b600060405180830381865afa158015612ae8573d6000803e3d6000fd5b505050506040513d6000823e3d601f19601f82011682018060405250810190612b119190614c1c565b6060015190506000612b21610f1b565b73ffffffffffffffffffffffffffffffffffffffff1663e07b04946003546004546040518363ffffffff1660e01b8152600401612b5f929190613a2a565b600060405180830381865afa158015612b7c573d6000803e3d6000fd5b505050506040513d6000823e3d601f19601f82011682018060405250810190612ba59190614c1c565b608001519050818310158015612bbb5750808311155b15612bcc5760019350505050612bd4565b600093505050505b919050565b6000804390506000612be9610f1b565b73ffffffffffffffffffffffffffffffffffffffff1663e07b04946003546004546040518363ffffffff1660e01b8152600401612c27929190613a2a565b600060405180830381865afa158015612c44573d6000803e3d6000fd5b505050506040513d6000823e3d601f19601f82011682018060405250810190612c6d9190614c1c565b6060015190506000612c7d610f1b565b73ffffffffffffffffffffffffffffffffffffffff1663e07b04946003546004546040518363ffffffff1660e01b8152600401612cbb929190613a2a565b600060405180830381865afa158015612cd8573d6000803e3d6000fd5b505050506040513d6000823e3d601f19601f82011682018060405250810190612d019190614c1c565b608001519050818310158015612d175750808311155b15612d285760019350505050612d30565b600093505050505b90565b604051806060016040528060608152602001600015158152602001600081525090565b6040518060c0016040528060008152602001600073ffffffffffffffffffffffffffffffffffffffff168152602001600073ffffffffffffffffffffffffffffffffffffffff16815260200160008152602001600081526020016000151581525090565b6000604051905090565b600080fd5b600080fd5b6000819050919050565b612de181612dce565b8114612dec57600080fd5b50565b600081359050612dfe81612dd8565b92915050565b60008060408385031215612e1b57612e1a612dc4565b5b6000612e2985828601612def565b9250506020612e3a85828601612def565b9150509250929050565b60008115159050919050565b612e5981612e44565b82525050565b6000602082019050612e746000830184612e50565b92915050565b600073ffffffffffffffffffffffffffffffffffffffff82169050919050565b6000612ea582612e7a565b9050919050565b612eb581612e9a565b8114612ec057600080fd5b50565b600081359050612ed281612eac565b92915050565b600060208284031215612eee57612eed612dc4565b5b6000612efc84828501612ec3565b91505092915050565b612f0e81612dce565b82525050565b6000606082019050612f296000830186612f05565b612f366020830185612f05565b612f436040830184612e50565b949350505050565b6000602082019050612f606000830184612f05565b92915050565b600080fd5b600080fd5b6000601f19601f8301169050919050565b7f4e487b7100000000000000000000000000000000000000000000000000000000600052604160045260246000fd5b612fb982612f70565b810181811067ffffffffffffffff82111715612fd857612fd7612f81565b5b80604052505050565b6000612feb612dba565b9050612ff78282612fb0565b919050565b600067ffffffffffffffff82111561301757613016612f81565b5b61302082612f70565b9050602081019050919050565b82818337600083830152505050565b600061304f61304a84612ffc565b612fe1565b90508281526020810184848401111561306b5761306a612f6b565b5b61307684828561302d565b509392505050565b600082601f83011261309357613092612f66565b5b81356130a384826020860161303c565b91505092915050565b6000806000606084860312156130c5576130c4612dc4565b5b600084013567ffffffffffffffff8111156130e3576130e2612dc9565b5b6130ef8682870161307e565b935050602084013567ffffffffffffffff8111156131105761310f612dc9565b5b61311c8682870161307e565b925050604084013567ffffffffffffffff81111561313d5761313c612dc9565b5b6131498682870161307e565b9150509250925092565b600081519050919050565b600082825260208201905092915050565b60005b8381101561318d578082015181840152602081019050613172565b60008484015250505050565b60006131a482613153565b6131ae818561315e565b93506131be81856020860161316f565b6131c781612f70565b840191505092915050565b600060208201905081810360008301526131ec8184613199565b905092915050565b60006020828403121561320a57613209612dc4565b5b600061321884828501612def565b91505092915050565b600081519050919050565b600082825260208201905092915050565b6000819050602082019050919050565b600082825260208201905092915050565b600061326982613153565b613273818561324d565b935061328381856020860161316f565b61328c81612f70565b840191505092915050565b6132a081612e44565b82525050565b6132af81612dce565b82525050565b600060608301600083015184820360008601526132d2828261325e565b91505060208301516132e76020860182613297565b5060408301516132fa60408601826132a6565b508091505092915050565b600061331183836132b5565b905092915050565b6000602082019050919050565b600061333182613221565b61333b818561322c565b93508360208202850161334d8561323d565b8060005b85811015613389578484038952815161336a8582613305565b945061337583613319565b925060208a01995050600181019050613351565b50829750879550505050505092915050565b600060208201905081810360008301526133b58184613326565b905092915050565b600060608301600083015184820360008601526133da828261325e565b91505060208301516133ef6020860182613297565b50604083015161340260408601826132a6565b508091505092915050565b6000602082019050818103600083015261342781846133bd565b905092915050565b6000819050919050565b600061345461344f61344a84612e7a565b61342f565b612e7a565b9050919050565b600061346682613439565b9050919050565b60006134788261345b565b9050919050565b6134888161346d565b82525050565b60006020820190506134a3600083018461347f565b92915050565b600080600080608085870312156134c3576134c2612dc4565b5b600085013567ffffffffffffffff8111156134e1576134e0612dc9565b5b6134ed8782880161307e565b945050602085013567ffffffffffffffff81111561350e5761350d612dc9565b5b61351a8782880161307e565b935050604085013567ffffffffffffffff81111561353b5761353a612dc9565b5b6135478782880161307e565b925050606085013567ffffffffffffffff81111561356857613567612dc9565b5b6135748782880161307e565b91505092959194509250565b600081519050919050565b600082825260208201905092915050565b6000819050602082019050919050565b60006135b883836132a6565b60208301905092915050565b6000602082019050919050565b60006135dc82613580565b6135e6818561358b565b93506135f18361359c565b8060005b8381101561362257815161360988826135ac565b9750613614836135c4565b9250506001810190506135f5565b5085935050505092915050565b6000602082019050818103600083015261364981846135d1565b905092915050565b61365a81612e44565b811461366557600080fd5b50565b60008135905061367781613651565b92915050565b60008060006060848603121561369657613695612dc4565b5b600084013567ffffffffffffffff8111156136b4576136b3612dc9565b5b6136c08682870161307e565b93505060206136d186828701613668565b92505060406136e286828701612def565b9150509250925092565b6136f581612e9a565b82525050565b600060208201905061371060008301846136ec565b92915050565b6000806040838503121561372d5761372c612dc4565b5b600083013567ffffffffffffffff81111561374b5761374a612dc9565b5b6137578582860161307e565b925050602083013567ffffffffffffffff81111561377857613777612dc9565b5b6137848582860161307e565b9150509250929050565b600061379982612e7a565b9050919050565b6137a98161378e565b81146137b457600080fd5b50565b6000813590506137c6816137a0565b92915050565b600080604083850312156137e3576137e2612dc4565b5b60006137f1858286016137b7565b925050602061380285828601612def565b9150509250929050565b61381581612e9a565b82525050565b60c08201600082015161383160008501826132a6565b506020820151613844602085018261380c565b506040820151613857604085018261380c565b50606082015161386a60608501826132a6565b50608082015161387d60808501826132a6565b5060a082015161389060a0850182613297565b50505050565b600060c0820190506138ab600083018461381b565b92915050565b6000806000606084860312156138ca576138c9612dc4565b5b60006138d886828701612ec3565b935050602084013567ffffffffffffffff8111156138f9576138f8612dc9565b5b6139058682870161307e565b925050604061391686828701612def565b9150509250925092565b6000806040838503121561393757613936612dc4565b5b600061394585828601612ec3565b925050602083013567ffffffffffffffff81111561396657613965612dc9565b5b6139728582860161307e565b9150509250929050565b60008151905061398b81613651565b92915050565b6000602082840312156139a7576139a6612dc4565b5b60006139b58482850161397c565b91505092915050565b7f53656d657374657220696420646f6573206e6f74206578697374210000000000600082015250565b60006139f4601b8361315e565b91506139ff826139be565b602082019050919050565b60006020820190508181036000830152613a23816139e7565b9050919050565b6000604082019050613a3f6000830185612f05565b613a4c6020830184612f05565b9392505050565b7f41737369676e6d656e7420696420666f72207468652073656d6573746572206460008201527f6f6573206e6f7420657869737421000000000000000000000000000000000000602082015250565b6000613aaf602e8361315e565b9150613aba82613a53565b604082019050919050565b60006020820190508181036000830152613ade81613aa2565b9050919050565b600081905092915050565b6000613afb82613153565b613b058185613ae5565b9350613b1581856020860161316f565b80840191505092915050565b7f3a20000000000000000000000000000000000000000000000000000000000000600082015250565b6000613b57600283613ae5565b9150613b6282613b21565b600282019050919050565b7f203e200000000000000000000000000000000000000000000000000000000000600082015250565b6000613ba3600383613ae5565b9150613bae82613b6d565b600382019050919050565b6000613bc58286613af0565b9150613bd082613b4a565b9150613bdc8285613af0565b9150613be782613b96565b9150613bf38284613af0565b9150819050949350505050565b7f4e487b7100000000000000000000000000000000000000000000000000000000600052602260045260246000fd5b60006002820490506001821680613c4757607f821691505b602082108103613c5a57613c59613c00565b5b50919050565b7f4e487b7100000000000000000000000000000000000000000000000000000000600052601160045260246000fd5b6000613c9a82612dce565b9150613ca583612dce565b9250828203905081811115613cbd57613cbc613c60565b5b92915050565b7f4e487b7100000000000000000000000000000000000000000000000000000000600052603260045260246000fd5b6000613cfd82612dce565b91507fffffffffffffffffffffffffffffffffffffffffffffffffffffffffffffffff8203613d2f57613d2e613c60565b5b600182019050919050565b7f2045787065637465643a20000000000000000000000000000000000000000000600082015250565b6000613d70600b83613ae5565b9150613d7b82613d3a565b600b82019050919050565b7f2041637475616c3a200000000000000000000000000000000000000000000000600082015250565b6000613dbc600983613ae5565b9150613dc782613d86565b600982019050919050565b6000613dde8287613af0565b9150613de982613b4a565b9150613df58286613af0565b9150613e0082613d63565b9150613e0c8285613af0565b9150613e1782613daf565b9150613e238284613af0565b915081905095945050505050565b7f41737369676e6d656e74204572726f723a2041737369676e6d656e742069732060008201527f6e6f74206c696e6b656420746f20612073656d65737465722120506c6561736560208201527f20636f6e74616374207468652041646d696e2061736170210000000000000000604082015250565b6000613eb360588361315e565b9150613ebe82613e31565b606082019050919050565b60006020820190508181036000830152613ee281613ea6565b9050919050565b7f41737369676e6d656e74204572726f723a2041737369676e6d656e7420616c7260008201527f65616479207375626d6974746564212043616e6e6f74207375626d697420746860208201527f652061737369676e6d656e7420616761696e2100000000000000000000000000604082015250565b6000613f6b60538361315e565b9150613f7682613ee9565b606082019050919050565b60006020820190508181036000830152613f9a81613f5e565b9050919050565b600081519050613fb081612eac565b92915050565b600060208284031215613fcc57613fcb612dc4565b5b6000613fda84828501613fa1565b91505092915050565b7f41737369676e6d656e74204572726f723a204f6e6c7920746865206f776e657260008201527f206f662074686520636f6e74726163742063616e207375626d6974207468697360208201527f2061737369676e6d656e74210000000000000000000000000000000000000000604082015250565b6000614065604c8361315e565b915061407082613fe3565b606082019050919050565b6000602082019050818103600083015261409481614058565b9050919050565b7f41737369676e6d656e74204572726f723a2041737369676e6d656e74206e6f7460008201527f206465706c6f79656420696e207468652072657175697265642061737369676e60208201527f6d656e7420626c6f636b2072616e676521000000000000000000000000000000604082015250565b600061411d60518361315e565b91506141288261409b565b606082019050919050565b6000602082019050818103600083015261414c81614110565b9050919050565b7f41737369676e6d656e74204572726f723a2041737369676e6d656e74206e6f7460008201527f207375626d697474656420696e2074686520726571756972656420617373696760208201527f6e6d656e7420626c6f636b2072616e6765210000000000000000000000000000604082015250565b60006141d560528361315e565b91506141e082614153565b606082019050919050565b60006020820190508181036000830152614204816141c8565b9050919050565b600061421682612dce565b915061422183612dce565b925082820190508082111561423957614238613c60565b5b92915050565b60008151905061424e81612dd8565b92915050565b60006020828403121561426a57614269612dc4565b5b60006142788482850161423f565b91505092915050565b600060408201905061429660008301856136ec565b6142a36020830184612f05565b9392505050565b60008190508160005260206000209050919050565b60006020601f8301049050919050565b600082821b905092915050565b60006008830261430c7fffffffffffffffffffffffffffffffffffffffffffffffffffffffffffffffff826142cf565b61431686836142cf565b95508019841693508086168417925050509392505050565b600061434961434461433f84612dce565b61342f565b612dce565b9050919050565b6000819050919050565b6143638361432e565b61437761436f82614350565b8484546142dc565b825550505050565b600090565b61438c61437f565b61439781848461435a565b505050565b5b818110156143bb576143b0600082614384565b60018101905061439d565b5050565b601f821115614400576143d1816142aa565b6143da846142bf565b810160208510156143e9578190505b6143fd6143f5856142bf565b83018261439c565b50505b505050565b600082821c905092915050565b600061442360001984600802614405565b1980831691505092915050565b600061443c8383614412565b9150826002028217905092915050565b61445582613153565b67ffffffffffffffff81111561446e5761446d612f81565b5b6144788254613c2f565b6144838282856143bf565b600060209050601f8311600181146144b657600084156144a4578287015190505b6144ae8582614430565b865550614516565b601f1984166144c4866142aa565b60005b828110156144ec578489015182556001820191506020850194506020810190506144c7565b868310156145095784890151614505601f891682614412565b8355505b6001600288020188555050505b505050505050565b7f41737369676e6d656e74204572726f723a2041737369676e6d656e742069732060008201527f6e6f74206c696e6b656420746f20612073656d65737465722120506c6561736560208201527f20636f6e747261637420616e2041646d696e2061736170210000000000000000604082015250565b60006145a060588361315e565b91506145ab8261451e565b606082019050919050565b600060208201905081810360008301526145cf81614593565b9050919050565b7f41737369676e6d656e74204572726f723a204f6e6c7920746865206f776e657260008201527f206f662074686520636f6e7472616374206f7220616e2061646d696e2063616e60208201527f2076616c696461746520746869732061737369676e6d656e7421000000000000604082015250565b6000614658605a8361315e565b9150614663826145d6565b606082019050919050565b600060208201905081810360008301526146878161464b565b9050919050565b6000819050919050565b6146a18161468e565b81146146ac57600080fd5b50565b6000815190506146be81614698565b92915050565b6000602082840312156146da576146d9612dc4565b5b60006146e8848285016146af565b91505092915050565b6146fa8161468e565b82525050565b600060208201905061471560008301846146f1565b92915050565b60006147278284613af0565b915081905092915050565b7f4f6e6c7920636f6e74726163742061646d696e2063616e20776974686472617760008201527f2066756e64730000000000000000000000000000000000000000000000000000602082015250565b600061478e60268361315e565b915061479982614732565b604082019050919050565b600060208201905081810360008301526147bd81614781565b9050919050565b7f496e76616c696420616464726573730000000000000000000000000000000000600082015250565b60006147fa600f8361315e565b9150614805826147c4565b602082019050919050565b60006020820190508181036000830152614829816147ed565b9050919050565b600061483b8261345b565b9050919050565b61484b81614830565b82525050565b60006020820190506148666000830184614842565b92915050565b7f46756e64732063616e206f6e6c792062652077697468647261776e20746f206160008201527f646d696e2c206d73672e73656e646572206f722074782e6f726967696e000000602082015250565b60006148c8603d8361315e565b91506148d38261486c565b604082019050919050565b600060208201905081810360008301526148f7816148bb565b9050919050565b7f496e73756666696369656e742066756e64730000000000000000000000000000600082015250565b600061493460128361315e565b915061493f826148fe565b602082019050919050565b6000602082019050818103600083015261496381614927565b9050919050565b600081905092915050565b50565b600061498560008361496a565b915061499082614975565b600082019050919050565b60006149a682614978565b9150819050919050565b7f5472616e73666572206661696c65642e00000000000000000000000000000000600082015250565b60006149e660108361315e565b91506149f1826149b0565b602082019050919050565b60006020820190508181036000830152614a15816149d9565b9050919050565b7f41737369676e6d656e74206e65656420746f206265206669727374207375626d60008201527f69747465642c20746f2062652072656d6f766564210000000000000000000000602082015250565b6000614a7860358361315e565b9150614a8382614a1c565b604082019050919050565b60006020820190508181036000830152614aa781614a6b565b9050919050565b6000604082019050614ac360008301856136ec565b8181036020830152614ad58184613199565b90509392505050565b600080fd5b600080fd5b6000614afb614af684612ffc565b612fe1565b905082815260208101848484011115614b1757614b16612f6b565b5b614b2284828561316f565b509392505050565b600082601f830112614b3f57614b3e612f66565b5b8151614b4f848260208601614ae8565b91505092915050565b600060a08284031215614b6e57614b6d614ade565b5b614b7860a0612fe1565b9050600082015167ffffffffffffffff811115614b9857614b97614ae3565b5b614ba484828501614b2a565b600083015250602082015167ffffffffffffffff811115614bc857614bc7614ae3565b5b614bd484828501614b2a565b6020830152506040614be884828501613fa1565b6040830152506060614bfc8482850161423f565b6060830152506080614c108482850161423f565b60808301525092915050565b600060208284031215614c3257614c31612dc4565b5b600082015167ffffffffffffffff811115614c5057614c4f612dc9565b5b614c5c84828501614b58565b9150509291505056fea26469706673582212204af344c367a4b479b387c5b5216a867a8a104c497b8f4a16c0eda05d2a74970864736f6c63430008110033",
  "immutableReferences": {},
  "source": "// SPDX-License-Identifier: MIT\r\npragma solidity ^0.8.17;\r\n\r\n/**\r\n *  Import a sceleton version of the contract the students need to submit\r\n *  The imported base assignment needs to own the functions which are\r\n *  called by the validator\r\n */\r\nimport \"./ExampleAssignmentInterface.sol\";\r\n\r\n// Import the base assignment validator contract\r\nimport \"../../contracts/BaseValidator.sol\";\r\n\r\n// Give the contract a name and inherit from the base assignment validator\r\ncontract ExampleAssignmentValidator2 is BaseValidator {\r\n    /**\r\n     * Import empty constructor and pass the config contract address to the\r\n     * base assignment validator constructor\r\n     */\r\n    constructor(address _configContractAddress)\r\n        BaseValidator(\r\n            _configContractAddress,\r\n            \"ExampleAssignmentValidator2\", // Define the name of the contract\r\n            0\r\n        )\r\n    {\r\n        // The constructor is empty\r\n    }\r\n\r\n    /**\r\n     * The test function is inherited from the base assignment validator\r\n     * and needs to be implemented in the child contract.\r\n     *\r\n     * In this function all the necessary tests are executed and the results are returned\r\n     *\r\n     * MARK THE override KEYWORD\r\n     */\r\n    function test(address _contractAddress)\r\n        public\r\n        payable\r\n        override(BaseValidator)\r\n        returns (uint256)\r\n    {\r\n        /**\r\n         *  Create a new history entry in the smart contract\r\n         *\r\n         *  The history entry is used to store the results of the tests.\r\n         *  Always use this index in the further functions.\r\n         */\r\n        createTestHistory(_contractAddress);\r\n\r\n        // Call the contract which needs to be tested and store it in the variable assignment_contract\r\n        ExampleAssignmentInterface assignment_contract = ExampleAssignmentInterface(\r\n                _contractAddress\r\n            );\r\n\r\n        /*\r\n         *  The following tests are just examples and can be replaced with your own tests\r\n         *\r\n         *  Every test is structured as follows:\r\n         *    ```\r\n         *    appendTestResult(\r\n         *         *         \"Is contract from the student\",\r\n         *         checkAssignmentOwner(_studentAddress, _contractAddress)\r\n         *    );\r\n         *    ```\r\n         *    - The first parameter is the history index\r\n         *    - The second parameter is the name of the test\r\n         *    - The third parameter is the result of the test\r\n         */\r\n\r\n        // \"Is contract from the student\"\r\n        appendTestResult(\r\n            \"Is contract from the student\",\r\n            checkAssignmentOwner(_contractAddress),\r\n            1\r\n        );\r\n\r\n        // Test 1 - test if default value is 1998 --> will fail intentional\r\n        if (int256(assignment_contract.getTestValue()) == int256(1000)) {\r\n            appendTestResult(\"test if default value is 1000\", true, 1);\r\n        } else {\r\n            appendTestResult(\"test if default value is 1998\", false, 0);\r\n        }\r\n\r\n        // Test 2 - test if setTestValue works\r\n        assignment_contract.setTestValue(int256(2022));\r\n\r\n        if (int256(assignment_contract.getTestValue()) == int256(2022)) {\r\n            appendTestResult(\"test if setTestValue works\", true, 1);\r\n        } else {\r\n            appendTestResult(\"test if setTestValue works\", false, 0);\r\n        }\r\n\r\n        // Return the history index\r\n        return _testHistoryCounter;\r\n    }\r\n}\r\n",
  "sourcePath": "C:\\Users\\jonas\\Repos\\mtp-blockchain\\smart-contracts\\contracts\\example\\ExampleAssignmentValidator2.sol",
  "compiler": {
    "name": "solc",
    "version": "0.8.17+commit.8df45f5f.Emscripten.clang"
  },
  "schemaVersion": "3.4.11",
  "updatedAt": "2023-02-01T15:34:30.533Z",
  "devdoc": {
    "kind": "dev",
    "methods": {
      "getSubmittedAssignment(address)": {
        "params": {
          "_address": "Student address"
        },
        "returns": {
          "_0": "AssignmentSubmitted"
        }
      },
      "getTestHistoryIndexes(address)": {
        "params": {
          "_address": "Student address"
        },
        "returns": {
          "_0": "testIndexes Array of test history indexes"
        }
      },
      "hasAssignmentSubmitted(address)": {
        "params": {
          "_address": "Student address"
        },
        "returns": {
          "_0": "bool"
        }
      },
      "removeSubmittedAssignment(address)": {
        "params": {
          "_address": "Student address"
        }
      },
      "setAssignmentInfos(uint256,uint256)": {
        "params": {
          "assignmentId": "Assignment id",
          "semesterId": "Semester id"
        }
      }
    },
    "version": 1
  },
  "userdoc": {
    "kind": "user",
    "methods": {
      "clearAssignmentInfos()": {
        "notice": "Clear assignment infos"
      },
      "constructor": {
        "notice": "Import empty constructor and pass the config contract address to the base assignment validator constructor"
      },
      "getAssignmentInfos()": {
        "notice": "Get assignment infos"
      },
      "getHistoryCounter()": {
        "notice": "Get test history counter"
      },
      "getRequiredEther()": {
        "notice": "Get required ether This amount of ether is required to submit or test an assignment"
      },
      "getSubmittedAssignment(address)": {
        "notice": "Get submitted assignment for address"
      },
      "getTestHistoryIndexes(address)": {
        "notice": "Get all test history indexes for a student MARK: The array has a fixed size, ignore all number besides 0"
      },
      "hasAssignmentSubmitted(address)": {
        "notice": "Check if assignment is submitted"
      },
      "isAssignmentLinked()": {
        "notice": "Check if assignment is linked to config storage"
      },
      "removeSubmittedAssignment(address)": {
        "notice": "Remove submitted assignment"
      },
      "setAssignmentCreationBlockNumber()": {
        "notice": "Set block number of contract creation"
      },
      "setAssignmentInfos(uint256,uint256)": {
        "notice": "Set assignment infos"
      },
      "setAssignmentOwner()": {
        "notice": "Set admin address"
      },
      "test(address)": {
        "notice": "The test function is inherited from the base assignment validator and needs to be implemented in the child contract. In this function all the necessary tests are executed and the results are returned MARK THE override KEYWORD"
      }
    },
    "version": 1
  }
}