{
  "contractName": "ExampleAssignment",
  "abi": [
    {
      "inputs": [
        {
          "internalType": "address",
          "name": "validator",
          "type": "address"
        }
      ],
      "stateMutability": "nonpayable",
      "type": "constructor"
    },
    {
      "inputs": [],
      "name": "_owner",
      "outputs": [
        {
          "internalType": "address",
          "name": "",
          "type": "address"
        }
      ],
      "stateMutability": "view",
      "type": "function",
      "constant": true
    },
    {
      "inputs": [],
      "name": "_validator",
      "outputs": [
        {
          "internalType": "address",
          "name": "",
          "type": "address"
        }
      ],
      "stateMutability": "view",
      "type": "function",
      "constant": true
    },
    {
      "inputs": [
        {
          "internalType": "uint256",
          "name": "index",
          "type": "uint256"
        },
        {
          "internalType": "bytes",
          "name": "signature",
          "type": "bytes"
        },
        {
          "internalType": "uint256",
          "name": "ethAmount",
          "type": "uint256"
        }
      ],
      "name": "addSignature",
      "outputs": [],
      "stateMutability": "nonpayable",
      "type": "function"
    },
    {
      "inputs": [],
      "name": "getBlockNumber",
      "outputs": [
        {
          "internalType": "uint256",
          "name": "",
          "type": "uint256"
        }
      ],
      "stateMutability": "view",
      "type": "function",
      "constant": true
    },
    {
      "inputs": [],
      "name": "getOwner",
      "outputs": [
        {
          "internalType": "address",
          "name": "",
          "type": "address"
        }
      ],
      "stateMutability": "view",
      "type": "function",
      "constant": true
    },
    {
      "inputs": [
        {
          "internalType": "uint256",
          "name": "index",
          "type": "uint256"
        }
      ],
      "name": "getSignature",
      "outputs": [
        {
          "internalType": "bytes",
          "name": "",
          "type": "bytes"
        }
      ],
      "stateMutability": "view",
      "type": "function",
      "constant": true
    },
    {
      "inputs": [
        {
          "internalType": "uint256",
          "name": "index",
          "type": "uint256"
        }
      ],
      "name": "getSignatureEthAmount",
      "outputs": [
        {
          "internalType": "uint256",
          "name": "",
          "type": "uint256"
        }
      ],
      "stateMutability": "view",
      "type": "function",
      "constant": true
    },
    {
      "inputs": [
        {
          "internalType": "address",
          "name": "_address",
          "type": "address"
        }
      ],
      "name": "isValidator",
      "outputs": [
        {
          "internalType": "bool",
          "name": "",
          "type": "bool"
        }
      ],
      "stateMutability": "view",
      "type": "function",
      "constant": true
    },
    {
      "inputs": [
        {
          "internalType": "uint256",
          "name": "blockNumber",
          "type": "uint256"
        }
      ],
      "name": "setBlockNumber",
      "outputs": [],
      "stateMutability": "nonpayable",
      "type": "function"
    },
    {
      "inputs": [
        {
          "internalType": "uint256",
          "name": "",
          "type": "uint256"
        }
      ],
      "name": "signatures",
      "outputs": [
        {
          "internalType": "bytes",
          "name": "signature",
          "type": "bytes"
        },
        {
          "internalType": "uint256",
          "name": "ethAmount",
          "type": "uint256"
        }
      ],
      "stateMutability": "view",
      "type": "function",
      "constant": true
    },
    {
      "inputs": [
        {
          "internalType": "int256",
          "name": "_value",
          "type": "int256"
        }
      ],
      "name": "setTestValue",
      "outputs": [],
      "stateMutability": "nonpayable",
      "type": "function"
    },
    {
      "inputs": [],
      "name": "getTestValue",
      "outputs": [
        {
          "internalType": "int256",
          "name": "",
          "type": "int256"
        }
      ],
      "stateMutability": "view",
      "type": "function",
      "constant": true
    }
  ],
  "bytecode": "0x60806040523480156200001157600080fd5b5060405162001a9438038062001a948339818101604052810190620000379190620002d0565b80336000806101000a81548173ffffffffffffffffffffffffffffffffffffffff021916908373ffffffffffffffffffffffffffffffffffffffff16021790555080600160006101000a81548173ffffffffffffffffffffffffffffffffffffffff021916908373ffffffffffffffffffffffffffffffffffffffff160217905550600073ffffffffffffffffffffffffffffffffffffffff16600160009054906101000a900473ffffffffffffffffffffffffffffffffffffffff1673ffffffffffffffffffffffffffffffffffffffff16036200014d576040517f08c379a0000000000000000000000000000000000000000000000000000000008152600401620001449062000389565b60405180910390fd5b600160009054906101000a900473ffffffffffffffffffffffffffffffffffffffff1673ffffffffffffffffffffffffffffffffffffffff1663c9b9da956040518163ffffffff1660e01b8152600401600060405180830381600087803b158015620001b857600080fd5b505af1158015620001cd573d6000803e3d6000fd5b50505050600160009054906101000a900473ffffffffffffffffffffffffffffffffffffffff1673ffffffffffffffffffffffffffffffffffffffff16633c21bf256040518163ffffffff1660e01b8152600401600060405180830381600087803b1580156200023c57600080fd5b505af115801562000251573d6000803e3d6000fd5b50505050506107ce60048190555050620003ab565b600080fd5b600073ffffffffffffffffffffffffffffffffffffffff82169050919050565b600062000298826200026b565b9050919050565b620002aa816200028b565b8114620002b657600080fd5b50565b600081519050620002ca816200029f565b92915050565b600060208284031215620002e957620002e862000266565b5b6000620002f984828501620002b9565b91505092915050565b600082825260208201905092915050565b7f41646472657373206f662056616c696461746f7220436f6e747261637420697360008201527f206e6f7420736574000000000000000000000000000000000000000000000000602082015250565b60006200037160288362000302565b91506200037e8262000313565b604082019050919050565b60006020820190508181036000830152620003a48162000362565b9050919050565b6116d980620003bb6000396000f3fe608060405234801561001057600080fd5b50600436106100b45760003560e01c8063a8c3c85011610071578063a8c3c85014610190578063b2bdfa7b146101ac578063ba44f1f9146101ca578063c5bacb96146101e6578063e785fe5214610216578063facd743b14610234576100b4565b806302a569e6146100b957806342cbb15c146100e95780636c2e929c14610107578063893d20e8146101235780638be1019414610141578063a420e5d214610172575b600080fd5b6100d360048036038101906100ce9190610b28565b610264565b6040516100e09190610be5565b60405180910390f35b6100f161043d565b6040516100fe9190610c16565b60405180910390f35b610121600480360381019061011c9190610c67565b61045e565b005b61012b610468565b6040516101389190610cd5565b60405180910390f35b61015b60048036038101906101569190610b28565b610491565b604051610169929190610cf0565b60405180910390f35b61017a61053d565b6040516101879190610d2f565b60405180910390f35b6101aa60048036038101906101a59190610b28565b610547565b005b6101b461062c565b6040516101c19190610cd5565b60405180910390f35b6101e460048036038101906101df9190610e7f565b610650565b005b61020060048036038101906101fb9190610b28565b610821565b60405161020d9190610c16565b60405180910390f35b61021e610972565b60405161022b9190610cd5565b60405180910390f35b61024e60048036038101906102499190610f1a565b610998565b60405161025b9190610f62565b60405180910390f35b6060600160009054906101000a900473ffffffffffffffffffffffffffffffffffffffff1673ffffffffffffffffffffffffffffffffffffffff1663facd743b336040518263ffffffff1660e01b81526004016102c19190610cd5565b602060405180830381865afa1580156102de573d6000803e3d6000fd5b505050506040513d601f19601f820116820180604052508101906103029190610fa9565b80610358575060008054906101000a900473ffffffffffffffffffffffffffffffffffffffff1673ffffffffffffffffffffffffffffffffffffffff163373ffffffffffffffffffffffffffffffffffffffff16145b610397576040517f08c379a000000000000000000000000000000000000000000000000000000000815260040161038e9061107f565b60405180910390fd5b6003600083815260200190815260200160002060000180546103b8906110ce565b80601f01602080910402602001604051908101604052809291908181526020018280546103e4906110ce565b80156104315780601f1061040657610100808354040283529160200191610431565b820191906000526020600020905b81548152906001019060200180831161041457829003601f168201915b50505050509050919050565b600061044833610998565b1561045757600254905061045b565b4390505b90565b8060048190555050565b60008060009054906101000a900473ffffffffffffffffffffffffffffffffffffffff16905090565b60036020528060005260406000206000915090508060000180546104b4906110ce565b80601f01602080910402602001604051908101604052809291908181526020018280546104e0906110ce565b801561052d5780601f106105025761010080835404028352916020019161052d565b820191906000526020600020905b81548152906001019060200180831161051057829003601f168201915b5050505050908060010154905082565b6000600454905090565b600160009054906101000a900473ffffffffffffffffffffffffffffffffffffffff1673ffffffffffffffffffffffffffffffffffffffff1663facd743b336040518263ffffffff1660e01b81526004016105a29190610cd5565b602060405180830381865afa1580156105bf573d6000803e3d6000fd5b505050506040513d601f19601f820116820180604052508101906105e39190610fa9565b610622576040517f08c379a000000000000000000000000000000000000000000000000000000000815260040161061990611197565b60405180910390fd5b8060028190555050565b60008054906101000a900473ffffffffffffffffffffffffffffffffffffffff1681565b600160009054906101000a900473ffffffffffffffffffffffffffffffffffffffff1673ffffffffffffffffffffffffffffffffffffffff1663facd743b336040518263ffffffff1660e01b81526004016106ab9190610cd5565b602060405180830381865afa1580156106c8573d6000803e3d6000fd5b505050506040513d601f19601f820116820180604052508101906106ec9190610fa9565b80610742575060008054906101000a900473ffffffffffffffffffffffffffffffffffffffff1673ffffffffffffffffffffffffffffffffffffffff163373ffffffffffffffffffffffffffffffffffffffff16145b610781576040517f08c379a00000000000000000000000000000000000000000000000000000000081526004016107789061124f565b60405180910390fd5b600083101580156107925750600583105b6107d1576040517f08c379a00000000000000000000000000000000000000000000000000000000081526004016107c8906112e1565b60405180910390fd5b60405180604001604052808381526020018281525060036000858152602001908152602001600020600082015181600001908161080e91906114ad565b5060208201518160010155905050505050565b6000600160009054906101000a900473ffffffffffffffffffffffffffffffffffffffff1673ffffffffffffffffffffffffffffffffffffffff1663facd743b336040518263ffffffff1660e01b815260040161087e9190610cd5565b602060405180830381865afa15801561089b573d6000803e3d6000fd5b505050506040513d601f19601f820116820180604052508101906108bf9190610fa9565b80610915575060008054906101000a900473ffffffffffffffffffffffffffffffffffffffff1673ffffffffffffffffffffffffffffffffffffffff163373ffffffffffffffffffffffffffffffffffffffff16145b610954576040517f08c379a000000000000000000000000000000000000000000000000000000000815260040161094b90611617565b60405180910390fd5b60036000838152602001908152602001600020600101549050919050565b600160009054906101000a900473ffffffffffffffffffffffffffffffffffffffff1681565b60008073ffffffffffffffffffffffffffffffffffffffff16600160009054906101000a900473ffffffffffffffffffffffffffffffffffffffff1673ffffffffffffffffffffffffffffffffffffffff1603610a2a576040517f08c379a0000000000000000000000000000000000000000000000000000000008152600401610a2190611683565b60405180910390fd5b600160009054906101000a900473ffffffffffffffffffffffffffffffffffffffff1673ffffffffffffffffffffffffffffffffffffffff1663facd743b836040518263ffffffff1660e01b8152600401610a859190610cd5565b602060405180830381865afa158015610aa2573d6000803e3d6000fd5b505050506040513d601f19601f82011682018060405250810190610ac69190610fa9565b15610ad45760019050610ad9565b600090505b919050565b6000604051905090565b600080fd5b600080fd5b6000819050919050565b610b0581610af2565b8114610b1057600080fd5b50565b600081359050610b2281610afc565b92915050565b600060208284031215610b3e57610b3d610ae8565b5b6000610b4c84828501610b13565b91505092915050565b600081519050919050565b600082825260208201905092915050565b60005b83811015610b8f578082015181840152602081019050610b74565b60008484015250505050565b6000601f19601f8301169050919050565b6000610bb782610b55565b610bc18185610b60565b9350610bd1818560208601610b71565b610bda81610b9b565b840191505092915050565b60006020820190508181036000830152610bff8184610bac565b905092915050565b610c1081610af2565b82525050565b6000602082019050610c2b6000830184610c07565b92915050565b6000819050919050565b610c4481610c31565b8114610c4f57600080fd5b50565b600081359050610c6181610c3b565b92915050565b600060208284031215610c7d57610c7c610ae8565b5b6000610c8b84828501610c52565b91505092915050565b600073ffffffffffffffffffffffffffffffffffffffff82169050919050565b6000610cbf82610c94565b9050919050565b610ccf81610cb4565b82525050565b6000602082019050610cea6000830184610cc6565b92915050565b60006040820190508181036000830152610d0a8185610bac565b9050610d196020830184610c07565b9392505050565b610d2981610c31565b82525050565b6000602082019050610d446000830184610d20565b92915050565b600080fd5b600080fd5b7f4e487b7100000000000000000000000000000000000000000000000000000000600052604160045260246000fd5b610d8c82610b9b565b810181811067ffffffffffffffff82111715610dab57610daa610d54565b5b80604052505050565b6000610dbe610ade565b9050610dca8282610d83565b919050565b600067ffffffffffffffff821115610dea57610de9610d54565b5b610df382610b9b565b9050602081019050919050565b82818337600083830152505050565b6000610e22610e1d84610dcf565b610db4565b905082815260208101848484011115610e3e57610e3d610d4f565b5b610e49848285610e00565b509392505050565b600082601f830112610e6657610e65610d4a565b5b8135610e76848260208601610e0f565b91505092915050565b600080600060608486031215610e9857610e97610ae8565b5b6000610ea686828701610b13565b935050602084013567ffffffffffffffff811115610ec757610ec6610aed565b5b610ed386828701610e51565b9250506040610ee486828701610b13565b9150509250925092565b610ef781610cb4565b8114610f0257600080fd5b50565b600081359050610f1481610eee565b92915050565b600060208284031215610f3057610f2f610ae8565b5b6000610f3e84828501610f05565b91505092915050565b60008115159050919050565b610f5c81610f47565b82525050565b6000602082019050610f776000830184610f53565b92915050565b610f8681610f47565b8114610f9157600080fd5b50565b600081519050610fa381610f7d565b92915050565b600060208284031215610fbf57610fbe610ae8565b5b6000610fcd84828501610f94565b91505092915050565b600082825260208201905092915050565b7f4261736541737369676e6d656e743a206765745369676e61747572653a204f6e60008201527f6c792076616c696461746f72206f72206f776e65722063616e2063616c6c207460208201527f6869732066756e6374696f6e0000000000000000000000000000000000000000604082015250565b6000611069604c83610fd6565b915061107482610fe7565b606082019050919050565b600060208201905081810360008301526110988161105c565b9050919050565b7f4e487b7100000000000000000000000000000000000000000000000000000000600052602260045260246000fd5b600060028204905060018216806110e657607f821691505b6020821081036110f9576110f861109f565b5b50919050565b7f4261736541737369676e6d656e743a20736574426c6f636b4e756d6265723a2060008201527f4f6e6c792076616c696461746f722063616e2063616c6c20746869732066756e60208201527f6374696f6e000000000000000000000000000000000000000000000000000000604082015250565b6000611181604583610fd6565b915061118c826110ff565b606082019050919050565b600060208201905081810360008301526111b081611174565b9050919050565b7f4261736541737369676e6d656e743a206164645369676e61747572653a204f6e60008201527f6c792076616c696461746f72206f72206f776e65722063616e2063616c6c207460208201527f6869732066756e6374696f6e0000000000000000000000000000000000000000604082015250565b6000611239604c83610fd6565b9150611244826111b7565b606082019050919050565b600060208201905081810360008301526112688161122c565b9050919050565b7f496e646578206f7574206f662072616e67652e204f6e6c792035207369676e6160008201527f747572657320616c6c6f7765642028696e646578203020746f20342900000000602082015250565b60006112cb603c83610fd6565b91506112d68261126f565b604082019050919050565b600060208201905081810360008301526112fa816112be565b9050919050565b60008190508160005260206000209050919050565b60006020601f8301049050919050565b600082821b905092915050565b6000600883026113637fffffffffffffffffffffffffffffffffffffffffffffffffffffffffffffffff82611326565b61136d8683611326565b95508019841693508086168417925050509392505050565b6000819050919050565b60006113aa6113a56113a084610af2565b611385565b610af2565b9050919050565b6000819050919050565b6113c48361138f565b6113d86113d0826113b1565b848454611333565b825550505050565b600090565b6113ed6113e0565b6113f88184846113bb565b505050565b5b8181101561141c576114116000826113e5565b6001810190506113fe565b5050565b601f8211156114615761143281611301565b61143b84611316565b8101602085101561144a578190505b61145e61145685611316565b8301826113fd565b50505b505050565b600082821c905092915050565b600061148460001984600802611466565b1980831691505092915050565b600061149d8383611473565b9150826002028217905092915050565b6114b682610b55565b67ffffffffffffffff8111156114cf576114ce610d54565b5b6114d982546110ce565b6114e4828285611420565b600060209050601f8311600181146115175760008415611505578287015190505b61150f8582611491565b865550611577565b601f19841661152586611301565b60005b8281101561154d57848901518255600182019150602085019450602081019050611528565b8683101561156a5784890151611566601f891682611473565b8355505b6001600288020188555050505b505050505050565b7f4261736541737369676e6d656e743a206765745369676e61747572654574684160008201527f6d6f756e743a204f6e6c792076616c696461746f72206f72206f776e6572206360208201527f616e2063616c6c20746869732066756e6374696f6e0000000000000000000000604082015250565b6000611601605583610fd6565b915061160c8261157f565b606082019050919050565b60006020820190508181036000830152611630816115f4565b9050919050565b7f56616c696461746f722061646472657373206973206e6f742073657400000000600082015250565b600061166d601c83610fd6565b915061167882611637565b602082019050919050565b6000602082019050818103600083015261169c81611660565b905091905056fea264697066735822122023f23b5f778976ccbd11f9c4550155e597822bc6caf0d4158e91c6a7cf2a9a8964736f6c63430008130033",
  "immutableReferences": {},
  "source": "// SPDX-License-Identifier: MIT\r\npragma solidity ^0.8.17;\r\n\r\n/**\r\n * Example assignment for testing\r\n */\r\n\r\nimport \"./BaseAssignment.sol\";\r\n\r\ncontract ExampleAssignment is BaseAssignment {\r\n    int256 testValue;\r\n\r\n    constructor(address validator) BaseAssignment(validator) {\r\n        testValue = 1998;\r\n    }\r\n\r\n    function setTestValue(int256 _value) public {\r\n        testValue = _value;\r\n    }\r\n\r\n    function getTestValue() public view returns (int256) {\r\n        return testValue;\r\n    }\r\n}\r\n",
  "sourcePath": "C:\\Users\\stefa\\www\\mtp-blockchain\\smart-contracts\\contracts\\example\\ExampleAssignment.sol",
  "compiler": {
    "name": "solc",
    "version": "0.8.19+commit.7dd6d404.Emscripten.clang"
  },
  "schemaVersion": "3.4.11",
  "updatedAt": "2023-02-28T09:03:28.335Z",
  "networkType": "ethereum",
  "devdoc": {
    "kind": "dev",
    "methods": {},
    "version": 1
  },
  "userdoc": {
    "kind": "user",
    "methods": {},
    "version": 1
  }
}