{
  "contractName": "FaucetStorage",
  "abi": [
    {
      "inputs": [],
      "stateMutability": "nonpayable",
      "type": "constructor"
    },
    {
      "anonymous": false,
      "inputs": [
        {
          "indexed": false,
          "internalType": "address",
          "name": "_address",
          "type": "address"
        },
        {
          "indexed": false,
          "internalType": "uint256",
          "name": "_blockNo",
          "type": "uint256"
        }
      ],
      "name": "faucetUsed",
      "type": "event"
    },
    {
      "inputs": [
        {
          "internalType": "address",
          "name": "_address",
          "type": "address"
        },
        {
          "internalType": "uint256",
          "name": "_blockNo",
          "type": "uint256"
        }
      ],
      "name": "addFaucetUsage",
      "outputs": [],
      "stateMutability": "nonpayable",
      "type": "function"
    },
    {
      "inputs": [
        {
          "internalType": "address",
          "name": "_address",
          "type": "address"
        }
      ],
      "name": "getFaucetUsage",
      "outputs": [
        {
          "components": [
            {
              "internalType": "uint256",
              "name": "blockNo",
              "type": "uint256"
            }
          ],
          "internalType": "struct FaucetStorage.faucetUser",
          "name": "",
          "type": "tuple"
        }
      ],
      "stateMutability": "view",
      "type": "function",
      "constant": true
    }
  ],
  "bytecode": "0x608060405234801561001057600080fd5b5033600160006101000a81548173ffffffffffffffffffffffffffffffffffffffff021916908373ffffffffffffffffffffffffffffffffffffffff1602179055506104bb806100616000396000f3fe608060405234801561001057600080fd5b50600436106100365760003560e01c80631743f5151461003b578063aecf986614610057575b600080fd5b610055600480360381019061005091906102c2565b610087565b005b610071600480360381019061006c9190610302565b6101b4565b60405161007e919061035a565b60405180910390f35b600160009054906101000a900473ffffffffffffffffffffffffffffffffffffffff1673ffffffffffffffffffffffffffffffffffffffff163373ffffffffffffffffffffffffffffffffffffffff1614610117576040517f08c379a000000000000000000000000000000000000000000000000000000000815260040161010e9061041e565b60405180910390fd5b60006040518060200160405280838152509050806000808573ffffffffffffffffffffffffffffffffffffffff1673ffffffffffffffffffffffffffffffffffffffff168152602001908152602001600020600082015181600001559050507fc58b2544858971e180cfd7fa79f6862f44a71f22a3a84d1172e238ba81d163d883836040516101a792919061045c565b60405180910390a1505050565b6101bc610216565b6000808373ffffffffffffffffffffffffffffffffffffffff1673ffffffffffffffffffffffffffffffffffffffff1681526020019081526020016000206040518060200160405290816000820154815250509050919050565b6040518060200160405280600081525090565b600080fd5b600073ffffffffffffffffffffffffffffffffffffffff82169050919050565b60006102598261022e565b9050919050565b6102698161024e565b811461027457600080fd5b50565b60008135905061028681610260565b92915050565b6000819050919050565b61029f8161028c565b81146102aa57600080fd5b50565b6000813590506102bc81610296565b92915050565b600080604083850312156102d9576102d8610229565b5b60006102e785828601610277565b92505060206102f8858286016102ad565b9150509250929050565b60006020828403121561031857610317610229565b5b600061032684828501610277565b91505092915050565b6103388161028c565b82525050565b602082016000820151610354600085018261032f565b50505050565b600060208201905061036f600083018461033e565b92915050565b600082825260208201905092915050565b7f416464726573732074686174206465706c6f7973207468697320736d6172742060008201527f636f6e7472616374206973206e6f742074686520636f696e626173652061646460208201527f7265737321000000000000000000000000000000000000000000000000000000604082015250565b6000610408604583610375565b915061041382610386565b606082019050919050565b60006020820190508181036000830152610437816103fb565b9050919050565b6104478161024e565b82525050565b6104568161028c565b82525050565b6000604082019050610471600083018561043e565b61047e602083018461044d565b939250505056fea264697066735822122050275d251c2fb548c99d079e5cf0dff95388a5e5ff417ccd8067541e50a5c98c64736f6c63430008110033",
  "immutableReferences": {},
  "source": "// SPDX-License-Identifier: MIT\r\npragma solidity ^0.8.17;\r\n\r\ncontract FaucetStorage {\r\n    // Keep struct to allow extending to more than one value\r\n    struct faucetUser {\r\n        // Block number when faucet last used\r\n        uint256 blockNo;\r\n    }\r\n\r\n    mapping(address => faucetUser) Users;\r\n\r\n    address owner;\r\n\r\n    event faucetUsed(address _address, uint256 _blockNo);\r\n\r\n    /**\r\n     * constructor method setting an initial value\r\n     */\r\n    constructor() {\r\n        owner = msg.sender;\r\n    }\r\n\r\n    /**\r\n        Add usage of faucet\r\n        todo: restrict so that only the coinbase holder can call this function\r\n     */\r\n    function addFaucetUsage(address _address, uint256 _blockNo) public {\r\n        require(\r\n            msg.sender == owner,\r\n            \"Address that deploys this smart contract is not the coinbase address!\"\r\n        );\r\n\r\n        faucetUser memory obj = faucetUser(_blockNo);\r\n\r\n        Users[_address] = obj;\r\n\r\n        emit faucetUsed(_address, _blockNo);\r\n    }\r\n\r\n    function getFaucetUsage(address _address)\r\n        public\r\n        view\r\n        returns (faucetUser memory)\r\n    {\r\n        return Users[_address];\r\n    }\r\n}\r\n",
  "sourcePath": "C:\\Users\\elias\\OneDrive\\Dokumente\\Blockchain\\mtp-blockchain\\smart-contracts\\contracts\\FaucetStorage.sol",
  "compiler": {
    "name": "solc",
    "version": "0.8.17+commit.8df45f5f.Emscripten.clang"
  },
  "schemaVersion": "3.4.10",
  "updatedAt": "2022-11-17T16:46:23.941Z",
  "networkType": "ethereum",
  "devdoc": {
    "kind": "dev",
    "methods": {},
    "version": 1
  },
  "userdoc": {
    "kind": "user",
    "methods": {
      "addFaucetUsage(address,uint256)": {
        "notice": "Add usage of faucet todo: restrict so that only the coinbase holder can call this function"
      },
      "constructor": {
        "notice": "constructor method setting an initial value"
      }
    },
    "version": 1
  }
}