{
  "contractName": "FaucetStorage",
  "abi": [
    {
      "inputs": [
        {
          "internalType": "address",
          "name": "_configContractAddress",
          "type": "address"
        }
      ],
      "stateMutability": "payable",
      "type": "constructor"
    },
    {
      "anonymous": false,
      "inputs": [
        {
          "indexed": false,
          "internalType": "address",
          "name": "",
          "type": "address"
        },
        {
          "indexed": false,
          "internalType": "uint256",
          "name": "",
          "type": "uint256"
        }
      ],
      "name": "Received",
      "type": "event"
    },
    {
      "anonymous": false,
      "inputs": [
        {
          "indexed": false,
          "internalType": "address",
          "name": "_address",
          "type": "address"
        },
        {
          "indexed": false,
          "internalType": "uint256",
          "name": "_blockNo",
          "type": "uint256"
        }
      ],
      "name": "faucetUsed",
      "type": "event"
    },
    {
      "inputs": [],
      "name": "getConfigStorage",
      "outputs": [
        {
          "internalType": "contract ConfigStorage",
          "name": "",
          "type": "address"
        }
      ],
      "stateMutability": "view",
      "type": "function"
    },
    {
      "inputs": [
        {
          "internalType": "address",
          "name": "_configContractAddress",
          "type": "address"
        },
        {
          "internalType": "string",
          "name": "_contractName",
          "type": "string"
        }
      ],
      "name": "initAdmin",
      "outputs": [],
      "stateMutability": "nonpayable",
      "type": "function"
    },
    {
      "inputs": [
        {
          "internalType": "address payable",
          "name": "_to",
          "type": "address"
        },
        {
          "internalType": "uint256",
          "name": "_value",
          "type": "uint256"
        }
      ],
      "name": "withdrawFunds",
      "outputs": [],
      "stateMutability": "payable",
      "type": "function"
    },
    {
      "stateMutability": "payable",
      "type": "receive"
    },
    {
      "inputs": [
        {
          "internalType": "address payable",
          "name": "_address",
          "type": "address"
        }
      ],
      "name": "sendEth",
      "outputs": [],
      "stateMutability": "payable",
      "type": "function"
    },
    {
      "inputs": [
        {
          "internalType": "address",
          "name": "_address",
          "type": "address"
        }
      ],
      "name": "getFaucetUsage",
      "outputs": [
        {
          "components": [
            {
              "internalType": "uint256",
              "name": "blockNo",
              "type": "uint256"
            }
          ],
          "internalType": "struct FaucetStorage.faucetUser",
          "name": "",
          "type": "tuple"
        }
      ],
      "stateMutability": "view",
      "type": "function"
    },
    {
      "inputs": [],
      "name": "getFaucetBalance",
      "outputs": [
        {
          "internalType": "uint256",
          "name": "",
          "type": "uint256"
        }
      ],
      "stateMutability": "view",
      "type": "function"
    }
  ],
  "bytecode": "0x60806040526040516200179a3803806200179a8339818101604052810190620000299190620001d4565b62000070816040518060400160405280600c81526020017f466175636574536f7261676500000000000000000000000000000000000000008152506200007760201b60201c565b50620002e5565b816000806101000a81548173ffffffffffffffffffffffffffffffffffffffff021916908373ffffffffffffffffffffffffffffffffffffffff1602179055506000620000c96200014160201b60201c565b90508073ffffffffffffffffffffffffffffffffffffffff16637fb99b9330846040518363ffffffff1660e01b815260040162000108929190620002b1565b600060405180830381600087803b1580156200012357600080fd5b505af115801562000138573d6000803e3d6000fd5b50505050505050565b60008060009054906101000a900473ffffffffffffffffffffffffffffffffffffffff16905090565b600080fd5b600073ffffffffffffffffffffffffffffffffffffffff82169050919050565b60006200019c826200016f565b9050919050565b620001ae816200018f565b8114620001ba57600080fd5b50565b600081519050620001ce81620001a3565b92915050565b600060208284031215620001ed57620001ec6200016a565b5b6000620001fd84828501620001bd565b91505092915050565b62000211816200018f565b82525050565b600081519050919050565b600082825260208201905092915050565b60005b838110156200025357808201518184015260208101905062000236565b60008484015250505050565b6000601f19601f8301169050919050565b60006200027d8262000217565b62000289818562000222565b93506200029b81856020860162000233565b620002a6816200025f565b840191505092915050565b6000604082019050620002c8600083018562000206565b8181036020830152620002dc818462000270565b90509392505050565b6114a580620002f56000396000f3fe6080604052600436106100595760003560e01c8063516cbbe21461009e57806376a54c60146100c9578063aecf9866146100e5578063c107532914610122578063f1f959a61461013e578063fae45fbe1461016957610099565b36610099577f88a5966d370b9919b20f3e2c13ff65706f196a4e32cc2c12bf57088f88525874333460405161008f929190610a1e565b60405180910390a1005b600080fd5b3480156100aa57600080fd5b506100b3610192565b6040516100c09190610aa6565b60405180910390f35b6100e360048036038101906100de9190610b13565b6101bb565b005b3480156100f157600080fd5b5061010c60048036038101906101079190610b6c565b61049b565b6040516101199190610bc4565b60405180910390f35b61013c60048036038101906101379190610c0b565b6104fe565b005b34801561014a57600080fd5b5061015361084d565b6040516101609190610c4b565b60405180910390f35b34801561017557600080fd5b50610190600480360381019061018b9190610dac565b610855565b005b60008060009054906101000a900473ffffffffffffffffffffffffffffffffffffffff16905090565b600043905060006101cb8361049b565b905060006101d7610192565b73ffffffffffffffffffffffffffffffffffffffff1663ba919fd46040518163ffffffff1660e01b8152600401602060405180830381865afa158015610221573d6000803e3d6000fd5b505050506040513d601f19601f820116820180604052508101906102459190610e50565b90506000670de0b6b3a764000061025a610192565b73ffffffffffffffffffffffffffffffffffffffff166389820ac86040518163ffffffff1660e01b8152600401602060405180830381865afa1580156102a4573d6000803e3d6000fd5b505050506040513d601f19601f820116820180604052508101906102c89190610e50565b6102d29190610eac565b6fffffffffffffffffffffffffffffffff16905080471015610329576040517f08c379a000000000000000000000000000000000000000000000000000000000815260040161032090610f46565b60405180910390fd5b6000836000015111801561035d5750816fffffffffffffffffffffffffffffffff1683600001518561035b9190610f66565b105b1561039d576040517f08c379a000000000000000000000000000000000000000000000000000000000815260040161039490610fe6565b60405180910390fd5b6103a78585610913565b60008573ffffffffffffffffffffffffffffffffffffffff16826040516103cd9061105d565b60006040518083038185875af1925050503d806000811461040a576040519150601f19603f3d011682016040523d82523d6000602084013e61040f565b606091505b5050905080610453576040517f08c379a000000000000000000000000000000000000000000000000000000000815260040161044a906110be565b60405180910390fd5b80610493576040517f08c379a000000000000000000000000000000000000000000000000000000000815260040161048a906110be565b60405180910390fd5b505050505050565b6104a36109b1565b600160008373ffffffffffffffffffffffffffffffffffffffff1673ffffffffffffffffffffffffffffffffffffffff1681526020019081526020016000206040518060200160405290816000820154815250509050919050565b610506610192565b73ffffffffffffffffffffffffffffffffffffffff166324d7806c336040518263ffffffff1660e01b815260040161053e91906110de565b602060405180830381865afa15801561055b573d6000803e3d6000fd5b505050506040513d601f19601f8201168201806040525081019061057f9190611131565b6105be576040517f08c379a00000000000000000000000000000000000000000000000000000000081526004016105b5906111d0565b60405180910390fd5b600073ffffffffffffffffffffffffffffffffffffffff168273ffffffffffffffffffffffffffffffffffffffff160361062d576040517f08c379a00000000000000000000000000000000000000000000000000000000081526004016106249061123c565b60405180910390fd5b3373ffffffffffffffffffffffffffffffffffffffff168273ffffffffffffffffffffffffffffffffffffffff16148061069257503273ffffffffffffffffffffffffffffffffffffffff168273ffffffffffffffffffffffffffffffffffffffff16145b8061071a57506106a0610192565b73ffffffffffffffffffffffffffffffffffffffff166324d7806c836040518263ffffffff1660e01b81526004016106d8919061127d565b602060405180830381865afa1580156106f5573d6000803e3d6000fd5b505050506040513d601f19601f820116820180604052508101906107199190611131565b5b610759576040517f08c379a00000000000000000000000000000000000000000000000000000000081526004016107509061130a565b60405180910390fd5b4781101561079c576040517f08c379a000000000000000000000000000000000000000000000000000000000815260040161079390611376565b60405180910390fd5b60008273ffffffffffffffffffffffffffffffffffffffff16826040516107c2906113bc565b60006040518083038185875af1925050503d80600081146107ff576040519150601f19603f3d011682016040523d82523d6000602084013e610804565b606091505b5050905080610848576040517f08c379a000000000000000000000000000000000000000000000000000000000815260040161083f906110be565b60405180910390fd5b505050565b600047905090565b816000806101000a81548173ffffffffffffffffffffffffffffffffffffffff021916908373ffffffffffffffffffffffffffffffffffffffff160217905550600061089f610192565b90508073ffffffffffffffffffffffffffffffffffffffff16637fb99b9330846040518363ffffffff1660e01b81526004016108dc92919061143f565b600060405180830381600087803b1580156108f657600080fd5b505af115801561090a573d6000803e3d6000fd5b50505050505050565b6000604051806020016040528083815250905080600160008573ffffffffffffffffffffffffffffffffffffffff1673ffffffffffffffffffffffffffffffffffffffff168152602001908152602001600020600082015181600001559050507fc58b2544858971e180cfd7fa79f6862f44a71f22a3a84d1172e238ba81d163d883836040516109a4929190610a1e565b60405180910390a1505050565b6040518060200160405280600081525090565b600073ffffffffffffffffffffffffffffffffffffffff82169050919050565b60006109ef826109c4565b9050919050565b6109ff816109e4565b82525050565b6000819050919050565b610a1881610a05565b82525050565b6000604082019050610a3360008301856109f6565b610a406020830184610a0f565b9392505050565b6000819050919050565b6000610a6c610a67610a62846109c4565b610a47565b6109c4565b9050919050565b6000610a7e82610a51565b9050919050565b6000610a9082610a73565b9050919050565b610aa081610a85565b82525050565b6000602082019050610abb6000830184610a97565b92915050565b6000604051905090565b600080fd5b600080fd5b6000610ae0826109c4565b9050919050565b610af081610ad5565b8114610afb57600080fd5b50565b600081359050610b0d81610ae7565b92915050565b600060208284031215610b2957610b28610acb565b5b6000610b3784828501610afe565b91505092915050565b610b49816109e4565b8114610b5457600080fd5b50565b600081359050610b6681610b40565b92915050565b600060208284031215610b8257610b81610acb565b5b6000610b9084828501610b57565b91505092915050565b610ba281610a05565b82525050565b602082016000820151610bbe6000850182610b99565b50505050565b6000602082019050610bd96000830184610ba8565b92915050565b610be881610a05565b8114610bf357600080fd5b50565b600081359050610c0581610bdf565b92915050565b60008060408385031215610c2257610c21610acb565b5b6000610c3085828601610afe565b9250506020610c4185828601610bf6565b9150509250929050565b6000602082019050610c606000830184610a0f565b92915050565b600080fd5b600080fd5b6000601f19601f8301169050919050565b7f4e487b7100000000000000000000000000000000000000000000000000000000600052604160045260246000fd5b610cb982610c70565b810181811067ffffffffffffffff82111715610cd857610cd7610c81565b5b80604052505050565b6000610ceb610ac1565b9050610cf78282610cb0565b919050565b600067ffffffffffffffff821115610d1757610d16610c81565b5b610d2082610c70565b9050602081019050919050565b82818337600083830152505050565b6000610d4f610d4a84610cfc565b610ce1565b905082815260208101848484011115610d6b57610d6a610c6b565b5b610d76848285610d2d565b509392505050565b600082601f830112610d9357610d92610c66565b5b8135610da3848260208601610d3c565b91505092915050565b60008060408385031215610dc357610dc2610acb565b5b6000610dd185828601610b57565b925050602083013567ffffffffffffffff811115610df257610df1610ad0565b5b610dfe85828601610d7e565b9150509250929050565b60006fffffffffffffffffffffffffffffffff82169050919050565b610e2d81610e08565b8114610e3857600080fd5b50565b600081519050610e4a81610e24565b92915050565b600060208284031215610e6657610e65610acb565b5b6000610e7484828501610e3b565b91505092915050565b7f4e487b7100000000000000000000000000000000000000000000000000000000600052601160045260246000fd5b6000610eb782610e08565b9150610ec283610e08565b9250828202610ed081610e08565b9150808214610ee257610ee1610e7d565b5b5092915050565b600082825260208201905092915050565b7f4e6f7420656e6f7567682066756e647320696e20666175636574210000000000600082015250565b6000610f30601b83610ee9565b9150610f3b82610efa565b602082019050919050565b60006020820190508181036000830152610f5f81610f23565b9050919050565b6000610f7182610a05565b9150610f7c83610a05565b9250828203905081811115610f9457610f93610e7d565b5b92915050565b7f466175636574207573656420746f6f20726563656e746c792100000000000000600082015250565b6000610fd0601983610ee9565b9150610fdb82610f9a565b602082019050919050565b60006020820190508181036000830152610fff81610fc3565b9050919050565b600081905092915050565b7f45746865722073656e74207375636365737366756c6c79210000000000000000600082015250565b6000611047601883611006565b915061105282611011565b601882019050919050565b60006110688261103a565b9150819050919050565b7f5472616e73666572206661696c65642e00000000000000000000000000000000600082015250565b60006110a8601083610ee9565b91506110b382611072565b602082019050919050565b600060208201905081810360008301526110d78161109b565b9050919050565b60006020820190506110f360008301846109f6565b92915050565b60008115159050919050565b61110e816110f9565b811461111957600080fd5b50565b60008151905061112b81611105565b92915050565b60006020828403121561114757611146610acb565b5b60006111558482850161111c565b91505092915050565b7f4f6e6c7920636f6e74726163742061646d696e2063616e20776974686472617760008201527f2066756e64730000000000000000000000000000000000000000000000000000602082015250565b60006111ba602683610ee9565b91506111c58261115e565b604082019050919050565b600060208201905081810360008301526111e9816111ad565b9050919050565b7f496e76616c696420616464726573730000000000000000000000000000000000600082015250565b6000611226600f83610ee9565b9150611231826111f0565b602082019050919050565b6000602082019050818103600083015261125581611219565b9050919050565b600061126782610a73565b9050919050565b6112778161125c565b82525050565b6000602082019050611292600083018461126e565b92915050565b7f46756e64732063616e206f6e6c792062652077697468647261776e20746f206160008201527f646d696e2c206d73672e73656e646572206f722074782e6f726967696e000000602082015250565b60006112f4603d83610ee9565b91506112ff82611298565b604082019050919050565b60006020820190508181036000830152611323816112e7565b9050919050565b7f496e73756666696369656e742066756e64730000000000000000000000000000600082015250565b6000611360601283610ee9565b915061136b8261132a565b602082019050919050565b6000602082019050818103600083015261138f81611353565b9050919050565b50565b60006113a6600083611006565b91506113b182611396565b600082019050919050565b60006113c782611399565b9150819050919050565b600081519050919050565b60005b838110156113fa5780820151818401526020810190506113df565b60008484015250505050565b6000611411826113d1565b61141b8185610ee9565b935061142b8185602086016113dc565b61143481610c70565b840191505092915050565b600060408201905061145460008301856109f6565b81810360208301526114668184611406565b9050939250505056fea264697066735822122029afe36cbcfb5053deb5ca112fb5166dd66b49e3c0da0500445720b87d2ebacd64736f6c63430008110033",
  "immutableReferences": {},
  "source": "// SPDX-License-Identifier: MIT\r\npragma solidity ^0.8.17;\r\n\r\nimport \"./BaseConfig.sol\";\r\n\r\ncontract FaucetStorage is BaseConfig {\r\n    // Keep struct to allow extending to more than one value\r\n    struct faucetUser {\r\n        // Block number when faucet last used\r\n        uint256 blockNo;\r\n    }\r\n\r\n    // Mapping to store when user last used faucet\r\n    mapping(address => faucetUser) Users;\r\n\r\n    // Create event when faucet is used\r\n    event faucetUsed(address _address, uint256 _blockNo);\r\n\r\n    constructor(address _configContractAddress) payable {\r\n        initAdmin(_configContractAddress, \"FaucetSorage\");\r\n    }\r\n\r\n    /*=============================================\r\n    =               Faucet Methods                =\r\n    =============================================*/\r\n\r\n    function sendEth(address payable _address) public payable {\r\n        uint256 currentBlockNumber = block.number;\r\n\r\n        faucetUser memory obj = getFaucetUsage(_address);\r\n\r\n        // Get the block difference\r\n        uint128 faucetBlockNoDifference = getConfigStorage()\r\n            .getFaucetBlockNoDifference();\r\n\r\n        // Get the amount of gas to send\r\n        uint256 faucetGas = getConfigStorage().getFaucetGas() * 10**18;\r\n\r\n        // Make sure the faucet has enough funds to send\r\n        require(\r\n            address(this).balance >= faucetGas,\r\n            \"Not enough funds in faucet!\"\r\n        );\r\n\r\n        // Make sure the faucet has not been used recently by the address\r\n        if (\r\n            obj.blockNo > 0 &&\r\n            currentBlockNumber - obj.blockNo < faucetBlockNoDifference\r\n        ) {\r\n            revert(\"Faucet used too recently!\");\r\n        }\r\n\r\n        // Send the gas\r\n\r\n        // Register the faucet usage\r\n        addFaucetUsage(_address, currentBlockNumber);\r\n\r\n        (bool success, ) = _address.call{value: faucetGas}(\r\n            \"Ether sent successfully!\"\r\n        );\r\n\r\n        if (!success) {\r\n            revert(\"Transfer failed.\");\r\n        }\r\n\r\n        // Make sure the transfer was successful\r\n        require(success, \"Transfer failed.\");\r\n    }\r\n\r\n    function addFaucetUsage(address _address, uint256 _blockNo) private {\r\n        faucetUser memory obj = faucetUser(_blockNo);\r\n\r\n        Users[_address] = obj;\r\n\r\n        emit faucetUsed(_address, _blockNo);\r\n    }\r\n\r\n    function getFaucetUsage(address _address)\r\n        public\r\n        view\r\n        returns (faucetUser memory)\r\n    {\r\n        return Users[_address];\r\n    }\r\n\r\n    /**\r\n     * Get the balance of the faucet\r\n     */\r\n    function getFaucetBalance() public view returns (uint256) {\r\n        return address(this).balance;\r\n    }\r\n\r\n    /*=====     End of Faucet Methods      ======*/\r\n\r\n    /*=============================================\r\n    =            Ether (ETH) functions            =\r\n    =============================================*/\r\n\r\n    event Received(address, uint256);\r\n\r\n    receive() external payable {\r\n        emit Received(msg.sender, msg.value);\r\n    }\r\n\r\n    /*=====  End of Ethereum functions  ======*/\r\n}\r\n",
  "sourcePath": "C:\\Users\\jonas\\Repos\\mtp-blockchain\\smart-contracts\\contracts\\FaucetStorage.sol",
  "compiler": {
    "name": "solc",
    "version": "0.8.17+commit.8df45f5f.Emscripten.clang"
  },
  "schemaVersion": "3.4.11",
  "updatedAt": "2023-02-01T15:34:30.265Z",
  "devdoc": {
    "kind": "dev",
    "methods": {},
    "version": 1
  },
  "userdoc": {
    "kind": "user",
    "methods": {
      "getFaucetBalance()": {
        "notice": "Get the balance of the faucet"
      }
    },
    "version": 1
  }
}