{
  "contractName": "Helper",
  "abi": [
    {
      "inputs": [],
      "stateMutability": "nonpayable",
      "type": "constructor"
    },
    {
      "inputs": [
        {
          "internalType": "string",
          "name": "a",
          "type": "string"
        },
        {
          "internalType": "string",
          "name": "b",
          "type": "string"
        }
      ],
      "name": "compareStrings",
      "outputs": [
        {
          "internalType": "bool",
          "name": "",
          "type": "bool"
        }
      ],
      "stateMutability": "pure",
      "type": "function"
    },
    {
      "inputs": [
        {
          "internalType": "string",
          "name": "_prefix",
          "type": "string"
        },
        {
          "internalType": "string",
          "name": "_message",
          "type": "string"
        },
        {
          "internalType": "string",
          "name": "_errorMsg",
          "type": "string"
        }
      ],
      "name": "buildErrorMessage",
      "outputs": [
        {
          "internalType": "string",
          "name": "",
          "type": "string"
        }
      ],
      "stateMutability": "pure",
      "type": "function"
    },
    {
      "inputs": [
        {
          "internalType": "string",
          "name": "_prefix",
          "type": "string"
        },
        {
          "internalType": "string",
          "name": "_message",
          "type": "string"
        },
        {
          "internalType": "string",
          "name": "_expected",
          "type": "string"
        },
        {
          "internalType": "string",
          "name": "_actual",
          "type": "string"
        }
      ],
      "name": "buildErrorMessageExtended",
      "outputs": [
        {
          "internalType": "string",
          "name": "",
          "type": "string"
        }
      ],
      "stateMutability": "pure",
      "type": "function"
    }
  ],
  "bytecode": "0x608060405234801561001057600080fd5b50610816806100206000396000f3fe608060405234801561001057600080fd5b50600436106100415760003560e01c80632b518301146100465780635827a06514610076578063bed34bba146100a6575b600080fd5b610060600480360381019061005b91906102ea565b6100d6565b60405161006d9190610410565b60405180910390f35b610090600480360381019061008b9190610432565b610105565b60405161009d9190610410565b60405180910390f35b6100c060048036038101906100bb9190610509565b610137565b6040516100cd919061059c565b60405180910390f35b60608383836040516020016100ed9392919061068b565b60405160208183030381529060405290509392505050565b60608484848460405160200161011e949392919061076a565b6040516020818303038152906040529050949350505050565b60008160405160200161014a91906107c9565b604051602081830303815290604052805190602001208360405160200161017191906107c9565b6040516020818303038152906040528051906020012014905092915050565b6000604051905090565b600080fd5b600080fd5b600080fd5b600080fd5b6000601f19601f8301169050919050565b7f4e487b7100000000000000000000000000000000000000000000000000000000600052604160045260246000fd5b6101f7826101ae565b810181811067ffffffffffffffff82111715610216576102156101bf565b5b80604052505050565b6000610229610190565b905061023582826101ee565b919050565b600067ffffffffffffffff821115610255576102546101bf565b5b61025e826101ae565b9050602081019050919050565b82818337600083830152505050565b600061028d6102888461023a565b61021f565b9050828152602081018484840111156102a9576102a86101a9565b5b6102b484828561026b565b509392505050565b600082601f8301126102d1576102d06101a4565b5b81356102e184826020860161027a565b91505092915050565b6000806000606084860312156103035761030261019a565b5b600084013567ffffffffffffffff8111156103215761032061019f565b5b61032d868287016102bc565b935050602084013567ffffffffffffffff81111561034e5761034d61019f565b5b61035a868287016102bc565b925050604084013567ffffffffffffffff81111561037b5761037a61019f565b5b610387868287016102bc565b9150509250925092565b600081519050919050565b600082825260208201905092915050565b60005b838110156103cb5780820151818401526020810190506103b0565b60008484015250505050565b60006103e282610391565b6103ec818561039c565b93506103fc8185602086016103ad565b610405816101ae565b840191505092915050565b6000602082019050818103600083015261042a81846103d7565b905092915050565b6000806000806080858703121561044c5761044b61019a565b5b600085013567ffffffffffffffff81111561046a5761046961019f565b5b610476878288016102bc565b945050602085013567ffffffffffffffff8111156104975761049661019f565b5b6104a3878288016102bc565b935050604085013567ffffffffffffffff8111156104c4576104c361019f565b5b6104d0878288016102bc565b925050606085013567ffffffffffffffff8111156104f1576104f061019f565b5b6104fd878288016102bc565b91505092959194509250565b600080604083850312156105205761051f61019a565b5b600083013567ffffffffffffffff81111561053e5761053d61019f565b5b61054a858286016102bc565b925050602083013567ffffffffffffffff81111561056b5761056a61019f565b5b610577858286016102bc565b9150509250929050565b60008115159050919050565b61059681610581565b82525050565b60006020820190506105b1600083018461058d565b92915050565b600081905092915050565b60006105cd82610391565b6105d781856105b7565b93506105e78185602086016103ad565b80840191505092915050565b7f3a20000000000000000000000000000000000000000000000000000000000000600082015250565b60006106296002836105b7565b9150610634826105f3565b600282019050919050565b7f203e200000000000000000000000000000000000000000000000000000000000600082015250565b60006106756003836105b7565b91506106808261063f565b600382019050919050565b600061069782866105c2565b91506106a28261061c565b91506106ae82856105c2565b91506106b982610668565b91506106c582846105c2565b9150819050949350505050565b7f2045787065637465643a20000000000000000000000000000000000000000000600082015250565b6000610708600b836105b7565b9150610713826106d2565b600b82019050919050565b7f2041637475616c3a200000000000000000000000000000000000000000000000600082015250565b60006107546009836105b7565b915061075f8261071e565b600982019050919050565b600061077682876105c2565b91506107818261061c565b915061078d82866105c2565b9150610798826106fb565b91506107a482856105c2565b91506107af82610747565b91506107bb82846105c2565b915081905095945050505050565b60006107d582846105c2565b91508190509291505056fea2646970667358221220da182b7b9291dde71f113febf60a2639103d0d6da552ab512cb3611395f9ed4f64736f6c63430008130033",
  "immutableReferences": {},
  "source": "// SPDX-License-Identifier: AGPL-3.0-only\r\npragma solidity >=0.8.17;\r\n\r\nimport \"../node_modules/@openzeppelin/contracts/utils/Strings.sol\";\r\n\r\ncontract Helper {\r\n    constructor() {}\r\n\r\n    /*=============================================\r\n    =                    HELPER                   =\r\n    =============================================*/\r\n\r\n    // Compare strings -> return true if equal (on keccak encoded byte level)\r\n    function compareStrings(string memory a, string memory b)\r\n        public\r\n        pure\r\n        returns (bool)\r\n    {\r\n        return (keccak256(abi.encodePacked((a))) ==\r\n            keccak256(abi.encodePacked((b))));\r\n    }\r\n\r\n    // Build error message -> simple\r\n    function buildErrorMessage(\r\n        string memory _prefix,\r\n        string memory _message,\r\n        string memory _errorMsg\r\n    ) public pure returns (string memory) {\r\n        return\r\n            string(abi.encodePacked(_prefix, \": \", _message, \" > \", _errorMsg));\r\n    }\r\n\r\n    // Build error message -> extended\r\n    function buildErrorMessageExtended(\r\n        string memory _prefix,\r\n        string memory _message,\r\n        string memory _expected,\r\n        string memory _actual\r\n    ) public pure returns (string memory) {\r\n        return\r\n            string(\r\n                abi.encodePacked(\r\n                    _prefix,\r\n                    \": \",\r\n                    _message,\r\n                    \" Expected: \",\r\n                    _expected,\r\n                    \" Actual: \",\r\n                    _actual\r\n                )\r\n            );\r\n    }\r\n\r\n    /*=====  End of HELPER  ======*/\r\n}\r\n",
  "sourcePath": "C:\\Users\\stefa\\www\\mtp-blockchain\\smart-contracts\\contracts\\Helper.sol",
  "compiler": {
    "name": "solc",
    "version": "0.8.19+commit.7dd6d404.Emscripten.clang"
  },
  "schemaVersion": "3.4.11",
  "updatedAt": "2023-02-28T09:01:11.199Z",
  "devdoc": {
    "kind": "dev",
    "methods": {},
    "version": 1
  },
  "userdoc": {
    "kind": "user",
    "methods": {},
    "version": 1
  }
}