{
  "contractName": "SBCoin",
  "abi": [
    {
      "inputs": [
        {
          "internalType": "string",
          "name": "name_",
          "type": "string"
        },
        {
          "internalType": "string",
          "name": "symbol_",
          "type": "string"
        },
        {
          "internalType": "address",
          "name": "_configContractAddress",
          "type": "address"
        }
      ],
      "stateMutability": "nonpayable",
      "type": "constructor"
    },
    {
      "anonymous": false,
      "inputs": [
        {
          "indexed": true,
          "internalType": "address",
          "name": "owner",
          "type": "address"
        },
        {
          "indexed": true,
          "internalType": "address",
          "name": "spender",
          "type": "address"
        },
        {
          "indexed": false,
          "internalType": "uint256",
          "name": "amount",
          "type": "uint256"
        }
      ],
      "name": "Approval",
      "type": "event"
    },
    {
      "anonymous": false,
      "inputs": [
        {
          "indexed": true,
          "internalType": "address",
          "name": "from",
          "type": "address"
        },
        {
          "indexed": false,
          "internalType": "uint256",
          "name": "amount",
          "type": "uint256"
        }
      ],
      "name": "Burn",
      "type": "event"
    },
    {
      "anonymous": false,
      "inputs": [
        {
          "indexed": true,
          "internalType": "address",
          "name": "from",
          "type": "address"
        },
        {
          "indexed": true,
          "internalType": "address",
          "name": "to",
          "type": "address"
        },
        {
          "indexed": false,
          "internalType": "uint256",
          "name": "amount",
          "type": "uint256"
        }
      ],
      "name": "Transfer",
      "type": "event"
    },
    {
      "inputs": [],
      "name": "getConfigStorage",
      "outputs": [
        {
          "internalType": "contract ConfigStorage",
          "name": "",
          "type": "address"
        }
      ],
      "stateMutability": "view",
      "type": "function"
    },
    {
      "inputs": [
        {
          "internalType": "address",
          "name": "_configContractAddress",
          "type": "address"
        },
        {
          "internalType": "string",
          "name": "_contractName",
          "type": "string"
        }
      ],
      "name": "initAdmin",
      "outputs": [],
      "stateMutability": "nonpayable",
      "type": "function"
    },
    {
      "inputs": [
        {
          "internalType": "address payable",
          "name": "_to",
          "type": "address"
        },
        {
          "internalType": "uint256",
          "name": "_value",
          "type": "uint256"
        }
      ],
      "name": "withdrawFunds",
      "outputs": [],
      "stateMutability": "payable",
      "type": "function"
    },
    {
      "inputs": [],
      "name": "name",
      "outputs": [
        {
          "internalType": "string",
          "name": "",
          "type": "string"
        }
      ],
      "stateMutability": "view",
      "type": "function"
    },
    {
      "inputs": [],
      "name": "symbol",
      "outputs": [
        {
          "internalType": "string",
          "name": "",
          "type": "string"
        }
      ],
      "stateMutability": "view",
      "type": "function"
    },
    {
      "inputs": [],
      "name": "decimals",
      "outputs": [
        {
          "internalType": "uint8",
          "name": "",
          "type": "uint8"
        }
      ],
      "stateMutability": "view",
      "type": "function"
    },
    {
      "inputs": [],
      "name": "totalSupply",
      "outputs": [
        {
          "internalType": "uint256",
          "name": "",
          "type": "uint256"
        }
      ],
      "stateMutability": "view",
      "type": "function"
    },
    {
      "inputs": [
        {
          "internalType": "address",
          "name": "account",
          "type": "address"
        }
      ],
      "name": "balanceOf",
      "outputs": [
        {
          "internalType": "uint256",
          "name": "",
          "type": "uint256"
        }
      ],
      "stateMutability": "view",
      "type": "function"
    },
    {
      "inputs": [
        {
          "internalType": "address",
          "name": "to",
          "type": "address"
        },
        {
          "internalType": "uint256",
          "name": "amount",
          "type": "uint256"
        }
      ],
      "name": "transfer",
      "outputs": [
        {
          "internalType": "bool",
          "name": "",
          "type": "bool"
        }
      ],
      "stateMutability": "nonpayable",
      "type": "function"
    },
    {
      "inputs": [
        {
          "internalType": "address",
          "name": "from",
          "type": "address"
        },
        {
          "internalType": "address",
          "name": "to",
          "type": "address"
        },
        {
          "internalType": "uint256",
          "name": "amount",
          "type": "uint256"
        }
      ],
      "name": "transferFrom",
      "outputs": [
        {
          "internalType": "bool",
          "name": "",
          "type": "bool"
        }
      ],
      "stateMutability": "nonpayable",
      "type": "function"
    },
    {
      "inputs": [
        {
          "internalType": "address",
          "name": "spender",
          "type": "address"
        },
        {
          "internalType": "uint256",
          "name": "amount",
          "type": "uint256"
        }
      ],
      "name": "approve",
      "outputs": [
        {
          "internalType": "bool",
          "name": "",
          "type": "bool"
        }
      ],
      "stateMutability": "nonpayable",
      "type": "function"
    },
    {
      "inputs": [
        {
          "internalType": "address",
          "name": "owner",
          "type": "address"
        },
        {
          "internalType": "address",
          "name": "spender",
          "type": "address"
        }
      ],
      "name": "allowance",
      "outputs": [
        {
          "internalType": "uint256",
          "name": "",
          "type": "uint256"
        }
      ],
      "stateMutability": "view",
      "type": "function"
    },
    {
      "inputs": [
        {
          "internalType": "address",
          "name": "to",
          "type": "address"
        },
        {
          "internalType": "uint256",
          "name": "amount",
          "type": "uint256"
        }
      ],
      "name": "mint",
      "outputs": [
        {
          "internalType": "bool",
          "name": "",
          "type": "bool"
        }
      ],
      "stateMutability": "nonpayable",
      "type": "function"
    },
    {
      "inputs": [
        {
          "internalType": "address",
          "name": "account",
          "type": "address"
        },
        {
          "internalType": "uint256",
          "name": "startBlock",
          "type": "uint256"
        },
        {
          "internalType": "uint256",
          "name": "endBlock",
          "type": "uint256"
        }
      ],
      "name": "coinsInBlockNumberRange",
      "outputs": [
        {
          "internalType": "uint256",
          "name": "",
          "type": "uint256"
        }
      ],
      "stateMutability": "view",
      "type": "function"
    },
    {
      "inputs": [
        {
          "internalType": "uint256",
          "name": "amount",
          "type": "uint256"
        }
      ],
      "name": "exchangeToFullCoin",
      "outputs": [
        {
          "internalType": "uint256",
          "name": "",
          "type": "uint256"
        }
      ],
      "stateMutability": "view",
      "type": "function"
    },
    {
      "inputs": [
        {
          "internalType": "uint256",
          "name": "amount",
          "type": "uint256"
        }
      ],
      "name": "exchangeToDecimalCoin",
      "outputs": [
        {
          "internalType": "uint256",
          "name": "",
          "type": "uint256"
        }
      ],
      "stateMutability": "view",
      "type": "function"
    },
    {
      "inputs": [
        {
          "internalType": "address",
          "name": "_address",
          "type": "address"
        }
      ],
      "name": "scaledBalanceOf",
      "outputs": [
        {
          "internalType": "uint256",
          "name": "",
          "type": "uint256"
        }
      ],
      "stateMutability": "view",
      "type": "function"
    },
    {
      "inputs": [
        {
          "internalType": "address",
          "name": "_address",
          "type": "address"
        },
        {
          "internalType": "uint256",
          "name": "_value",
          "type": "uint256"
        }
      ],
      "name": "burn",
      "outputs": [
        {
          "internalType": "bool",
          "name": "",
          "type": "bool"
        }
      ],
      "stateMutability": "nonpayable",
      "type": "function"
    }
  ],
  "bytecode": "0x60a06040523480156200001157600080fd5b50604051620033e7380380620033e7833981810160405281019062000037919062000418565b8260019081620000489190620006fd565b5081600290816200005a9190620006fd565b50601260ff1660808160ff16815250506000600381905550620000a68160016040516020016200008b91906200091e565b6040516020818303038152906040526200012d60201b60201c565b620000b6620001f760201b60201c565b73ffffffffffffffffffffffffffffffffffffffff166391a10edf306040518263ffffffff1660e01b8152600401620000f0919062000962565b600060405180830381600087803b1580156200010b57600080fd5b505af115801562000120573d6000803e3d6000fd5b5050505050505062000a05565b816000806101000a81548173ffffffffffffffffffffffffffffffffffffffff021916908373ffffffffffffffffffffffffffffffffffffffff16021790555060006200017f620001f760201b60201c565b90508073ffffffffffffffffffffffffffffffffffffffff16637fb99b9330846040518363ffffffff1660e01b8152600401620001be929190620009d1565b600060405180830381600087803b158015620001d957600080fd5b505af1158015620001ee573d6000803e3d6000fd5b50505050505050565b60008060009054906101000a900473ffffffffffffffffffffffffffffffffffffffff16905090565b6000604051905090565b600080fd5b600080fd5b600080fd5b600080fd5b6000601f19601f8301169050919050565b7f4e487b7100000000000000000000000000000000000000000000000000000000600052604160045260246000fd5b62000289826200023e565b810181811067ffffffffffffffff82111715620002ab57620002aa6200024f565b5b80604052505050565b6000620002c062000220565b9050620002ce82826200027e565b919050565b600067ffffffffffffffff821115620002f157620002f06200024f565b5b620002fc826200023e565b9050602081019050919050565b60005b83811015620003295780820151818401526020810190506200030c565b60008484015250505050565b60006200034c6200034684620002d3565b620002b4565b9050828152602081018484840111156200036b576200036a62000239565b5b6200037884828562000309565b509392505050565b600082601f83011262000398576200039762000234565b5b8151620003aa84826020860162000335565b91505092915050565b600073ffffffffffffffffffffffffffffffffffffffff82169050919050565b6000620003e082620003b3565b9050919050565b620003f281620003d3565b8114620003fe57600080fd5b50565b6000815190506200041281620003e7565b92915050565b6000806000606084860312156200043457620004336200022a565b5b600084015167ffffffffffffffff8111156200045557620004546200022f565b5b620004638682870162000380565b935050602084015167ffffffffffffffff8111156200048757620004866200022f565b5b620004958682870162000380565b9250506040620004a88682870162000401565b9150509250925092565b600081519050919050565b7f4e487b7100000000000000000000000000000000000000000000000000000000600052602260045260246000fd5b600060028204905060018216806200050557607f821691505b6020821081036200051b576200051a620004bd565b5b50919050565b60008190508160005260206000209050919050565b60006020601f8301049050919050565b600082821b905092915050565b600060088302620005857fffffffffffffffffffffffffffffffffffffffffffffffffffffffffffffffff8262000546565b62000591868362000546565b95508019841693508086168417925050509392505050565b6000819050919050565b6000819050919050565b6000620005de620005d8620005d284620005a9565b620005b3565b620005a9565b9050919050565b6000819050919050565b620005fa83620005bd565b620006126200060982620005e5565b84845462000553565b825550505050565b600090565b620006296200061a565b62000636818484620005ef565b505050565b5b818110156200065e57620006526000826200061f565b6001810190506200063c565b5050565b601f821115620006ad57620006778162000521565b620006828462000536565b8101602085101562000692578190505b620006aa620006a18562000536565b8301826200063b565b50505b505050565b600082821c905092915050565b6000620006d260001984600802620006b2565b1980831691505092915050565b6000620006ed8383620006bf565b9150826002028217905092915050565b6200070882620004b2565b67ffffffffffffffff8111156200072457620007236200024f565b5b620007308254620004ec565b6200073d82828562000662565b600060209050601f83116001811462000775576000841562000760578287015190505b6200076c8582620006df565b865550620007dc565b601f198416620007858662000521565b60005b82811015620007af5784890151825560018201915060208501945060208101905062000788565b86831015620007cf5784890151620007cb601f891682620006bf565b8355505b6001600288020188555050505b505050505050565b600081905092915050565b7f5342436f696e0000000000000000000000000000000000000000000000000000600082015250565b600062000827600683620007e4565b91506200083482620007ef565b600682019050919050565b7f2000000000000000000000000000000000000000000000000000000000000000600082015250565b600062000877600183620007e4565b915062000884826200083f565b600182019050919050565b600081546200089e81620004ec565b620008aa8186620007e4565b94506001821660008114620008c85760018114620008de5762000915565b60ff198316865281151582028601935062000915565b620008e98562000521565b60005b838110156200090d57815481890152600182019150602081019050620008ec565b838801955050505b50505092915050565b60006200092b8262000818565b9150620009388262000868565b91506200094682846200088f565b915081905092915050565b6200095c81620003d3565b82525050565b600060208201905062000979600083018462000951565b92915050565b600082825260208201905092915050565b60006200099d82620004b2565b620009a981856200097f565b9350620009bb81856020860162000309565b620009c6816200023e565b840191505092915050565b6000604082019050620009e8600083018562000951565b8181036020830152620009fc818462000990565b90509392505050565b6080516129c662000a21600039600061067501526129c66000f3fe6080604052600436106101095760003560e01c8063516cbbe211610095578063a9059cbb11610064578063a9059cbb146103cd578063c10753291461040a578063dd62ed3e14610426578063df0b42e014610463578063fae45fbe146104a057610109565b8063516cbbe2146102fd57806370a082311461032857806395d89b41146103655780639dc29fac1461039057610109565b806323b872dd116100dc57806323b872dd146101de578063313ce5671461021b57806340c10f191461024657806348cdb55f146102835780634cdca3bd146102c057610109565b806306fdde031461010e578063095ea7b31461013957806318160ddd146101765780631da24f3e146101a1575b600080fd5b34801561011a57600080fd5b506101236104c9565b6040516101309190611786565b60405180910390f35b34801561014557600080fd5b50610160600480360381019061015b9190611850565b61055b565b60405161016d91906118ab565b60405180910390f35b34801561018257600080fd5b5061018b610572565b60405161019891906118d5565b60405180910390f35b3480156101ad57600080fd5b506101c860048036038101906101c391906118f0565b61057c565b6040516101d591906118d5565b60405180910390f35b3480156101ea57600080fd5b506102056004803603810190610200919061191d565b6105cd565b60405161021291906118ab565b60405180910390f35b34801561022757600080fd5b50610230610671565b60405161023d919061198c565b60405180910390f35b34801561025257600080fd5b5061026d60048036038101906102689190611850565b610699565b60405161027a91906118ab565b60405180910390f35b34801561028f57600080fd5b506102aa60048036038101906102a591906119a7565b6108f4565b6040516102b791906118d5565b60405180910390f35b3480156102cc57600080fd5b506102e760048036038101906102e291906119fa565b610995565b6040516102f491906118d5565b60405180910390f35b34801561030957600080fd5b506103126109bd565b60405161031f9190611a86565b60405180910390f35b34801561033457600080fd5b5061034f600480360381019061034a91906118f0565b6109e6565b60405161035c91906118d5565b60405180910390f35b34801561037157600080fd5b5061037a610a2f565b6040516103879190611786565b60405180910390f35b34801561039c57600080fd5b506103b760048036038101906103b29190611850565b610ac1565b6040516103c491906118ab565b60405180910390f35b3480156103d957600080fd5b506103f460048036038101906103ef9190611850565b610c33565b60405161040191906118ab565b60405180910390f35b610424600480360381019061041f9190611adf565b610c4a565b005b34801561043257600080fd5b5061044d60048036038101906104489190611b1f565b610f99565b60405161045a91906118d5565b60405180910390f35b34801561046f57600080fd5b5061048a600480360381019061048591906119fa565b611020565b60405161049791906118d5565b60405180910390f35b3480156104ac57600080fd5b506104c760048036038101906104c29190611c94565b611048565b005b6060600180546104d890611d1f565b80601f016020809104026020016040519081016040528092919081815260200182805461050490611d1f565b80156105515780601f1061052657610100808354040283529160200191610551565b820191906000526020600020905b81548152906001019060200180831161053457829003601f168201915b5050505050905090565b6000610568338484611106565b6001905092915050565b6000600354905090565b60006105c6600460008473ffffffffffffffffffffffffffffffffffffffff1673ffffffffffffffffffffffffffffffffffffffff16815260200190815260200160002054611020565b9050919050565b60008033905060006105df8683610f99565b90507fffffffffffffffffffffffffffffffffffffffffffffffffffffffffffffffff8114610659578381101561064b576040517f08c379a000000000000000000000000000000000000000000000000000000000815260040161064290611d9c565b60405180910390fd5b6106588683868403611106565b5b61066486868661138f565b6001925050509392505050565b60007f0000000000000000000000000000000000000000000000000000000000000000905090565b60008073ffffffffffffffffffffffffffffffffffffffff168373ffffffffffffffffffffffffffffffffffffffff1603610709576040517f08c379a000000000000000000000000000000000000000000000000000000000815260040161070090611e08565b60405180910390fd5b6107116109bd565b73ffffffffffffffffffffffffffffffffffffffff166324d7806c336040518263ffffffff1660e01b81526004016107499190611e37565b602060405180830381865afa158015610766573d6000803e3d6000fd5b505050506040513d601f19601f8201168201806040525081019061078a9190611e7e565b6107c9576040517f08c379a00000000000000000000000000000000000000000000000000000000081526004016107c090611ef7565b60405180910390fd5b81600360008282546107db9190611f46565b9250508190555081600460008573ffffffffffffffffffffffffffffffffffffffff1673ffffffffffffffffffffffffffffffffffffffff1681526020019081526020016000206000828254019250508190555081600660008573ffffffffffffffffffffffffffffffffffffffff1673ffffffffffffffffffffffffffffffffffffffff1681526020019081526020016000206000438152602001908152602001600020819055508273ffffffffffffffffffffffffffffffffffffffff16600073ffffffffffffffffffffffffffffffffffffffff167fddf252ad1be2c89b69c2b068fc378daa952ba7f163c4a11628f55a4df523b3ef846040516108e291906118d5565b60405180910390a36001905092915050565b6000806000905060008490505b83811161097957600660008773ffffffffffffffffffffffffffffffffffffffff1673ffffffffffffffffffffffffffffffffffffffff168152602001908152602001600020600082815260200190815260200160002054826109649190611f84565b9150808061097190611fc8565b915050610901565b506000811361098957600061098b565b805b9150509392505050565b600061099f610671565b600a6109ab9190612143565b826109b6919061218e565b9050919050565b60008060009054906101000a900473ffffffffffffffffffffffffffffffffffffffff16905090565b6000600460008373ffffffffffffffffffffffffffffffffffffffff1673ffffffffffffffffffffffffffffffffffffffff168152602001908152602001600020549050919050565b606060028054610a3e90611d1f565b80601f0160208091040260200160405190810160405280929190818152602001828054610a6a90611d1f565b8015610ab75780601f10610a8c57610100808354040283529160200191610ab7565b820191906000526020600020905b815481529060010190602001808311610a9a57829003601f168201915b5050505050905090565b6000610acb6109bd565b73ffffffffffffffffffffffffffffffffffffffff166324d7806c336040518263ffffffff1660e01b8152600401610b039190611e37565b602060405180830381865afa158015610b20573d6000803e3d6000fd5b505050506040513d601f19601f82011682018060405250810190610b449190611e7e565b610b83576040517f08c379a0000000000000000000000000000000000000000000000000000000008152600401610b7a90612242565b60405180910390fd5b600460008473ffffffffffffffffffffffffffffffffffffffff1673ffffffffffffffffffffffffffffffffffffffff16815260200190815260200160002054821115610bcf57600080fd5b610bdb8360008461138f565b8273ffffffffffffffffffffffffffffffffffffffff167fcc16f5dbb4873280815c1ee09dbd06736cffcc184412cf7a71a0fdb75d397ca583604051610c2191906118d5565b60405180910390a26001905092915050565b6000610c4033848461138f565b6001905092915050565b610c526109bd565b73ffffffffffffffffffffffffffffffffffffffff166324d7806c336040518263ffffffff1660e01b8152600401610c8a9190611e37565b602060405180830381865afa158015610ca7573d6000803e3d6000fd5b505050506040513d601f19601f82011682018060405250810190610ccb9190611e7e565b610d0a576040517f08c379a0000000000000000000000000000000000000000000000000000000008152600401610d01906122d4565b60405180910390fd5b600073ffffffffffffffffffffffffffffffffffffffff168273ffffffffffffffffffffffffffffffffffffffff1603610d79576040517f08c379a0000000000000000000000000000000000000000000000000000000008152600401610d7090612340565b60405180910390fd5b3373ffffffffffffffffffffffffffffffffffffffff168273ffffffffffffffffffffffffffffffffffffffff161480610dde57503273ffffffffffffffffffffffffffffffffffffffff168273ffffffffffffffffffffffffffffffffffffffff16145b80610e665750610dec6109bd565b73ffffffffffffffffffffffffffffffffffffffff166324d7806c836040518263ffffffff1660e01b8152600401610e249190612381565b602060405180830381865afa158015610e41573d6000803e3d6000fd5b505050506040513d601f19601f82011682018060405250810190610e659190611e7e565b5b610ea5576040517f08c379a0000000000000000000000000000000000000000000000000000000008152600401610e9c9061240e565b60405180910390fd5b47811015610ee8576040517f08c379a0000000000000000000000000000000000000000000000000000000008152600401610edf9061247a565b60405180910390fd5b60008273ffffffffffffffffffffffffffffffffffffffff1682604051610f0e906124cb565b60006040518083038185875af1925050503d8060008114610f4b576040519150601f19603f3d011682016040523d82523d6000602084013e610f50565b606091505b5050905080610f94576040517f08c379a0000000000000000000000000000000000000000000000000000000008152600401610f8b9061252c565b60405180910390fd5b505050565b6000600560008473ffffffffffffffffffffffffffffffffffffffff1673ffffffffffffffffffffffffffffffffffffffff16815260200190815260200160002060008373ffffffffffffffffffffffffffffffffffffffff1673ffffffffffffffffffffffffffffffffffffffff16815260200190815260200160002054905092915050565b600061102a610671565b600a6110369190612143565b82611041919061257b565b9050919050565b816000806101000a81548173ffffffffffffffffffffffffffffffffffffffff021916908373ffffffffffffffffffffffffffffffffffffffff16021790555060006110926109bd565b90508073ffffffffffffffffffffffffffffffffffffffff16637fb99b9330846040518363ffffffff1660e01b81526004016110cf9291906125ac565b600060405180830381600087803b1580156110e957600080fd5b505af11580156110fd573d6000803e3d6000fd5b50505050505050565b61110e6109bd565b73ffffffffffffffffffffffffffffffffffffffff166324d7806c336040518263ffffffff1660e01b81526004016111469190611e37565b602060405180830381865afa158015611163573d6000803e3d6000fd5b505050506040513d601f19601f820116820180604052508101906111879190611e7e565b6111c6576040517f08c379a00000000000000000000000000000000000000000000000000000000081526004016111bd9061264e565b60405180910390fd5b600073ffffffffffffffffffffffffffffffffffffffff168373ffffffffffffffffffffffffffffffffffffffff1603611235576040517f08c379a000000000000000000000000000000000000000000000000000000000815260040161122c906126e0565b60405180910390fd5b600073ffffffffffffffffffffffffffffffffffffffff168273ffffffffffffffffffffffffffffffffffffffff16036112a4576040517f08c379a000000000000000000000000000000000000000000000000000000000815260040161129b90612772565b60405180910390fd5b80600560008573ffffffffffffffffffffffffffffffffffffffff1673ffffffffffffffffffffffffffffffffffffffff16815260200190815260200160002060008473ffffffffffffffffffffffffffffffffffffffff1673ffffffffffffffffffffffffffffffffffffffff168152602001908152602001600020819055508173ffffffffffffffffffffffffffffffffffffffff168373ffffffffffffffffffffffffffffffffffffffff167f8c5be1e5ebec7d5bd14f71427d1e84f3dd0314c0f7b2291e5b200ac8c7c3b9258360405161138291906118d5565b60405180910390a3505050565b6113976109bd565b73ffffffffffffffffffffffffffffffffffffffff166324d7806c336040518263ffffffff1660e01b81526004016113cf9190611e37565b602060405180830381865afa1580156113ec573d6000803e3d6000fd5b505050506040513d601f19601f820116820180604052508101906114109190611e7e565b61144f576040517f08c379a000000000000000000000000000000000000000000000000000000000815260040161144690612804565b60405180910390fd5b600073ffffffffffffffffffffffffffffffffffffffff168373ffffffffffffffffffffffffffffffffffffffff16036114be576040517f08c379a00000000000000000000000000000000000000000000000000000000081526004016114b590612896565b60405180910390fd5b6000600460008573ffffffffffffffffffffffffffffffffffffffff1673ffffffffffffffffffffffffffffffffffffffff16815260200190815260200160002054905081811015611545576040517f08c379a000000000000000000000000000000000000000000000000000000000815260040161153c90612928565b60405180910390fd5b818103600460008673ffffffffffffffffffffffffffffffffffffffff1673ffffffffffffffffffffffffffffffffffffffff1681526020019081526020016000208190555081600460008573ffffffffffffffffffffffffffffffffffffffff1673ffffffffffffffffffffffffffffffffffffffff16815260200190815260200160002060008282540192505081905550816115e290612948565b600660008673ffffffffffffffffffffffffffffffffffffffff1673ffffffffffffffffffffffffffffffffffffffff16815260200190815260200160002060004381526020019081526020016000208190555081600660008573ffffffffffffffffffffffffffffffffffffffff1673ffffffffffffffffffffffffffffffffffffffff1681526020019081526020016000206000438152602001908152602001600020819055508273ffffffffffffffffffffffffffffffffffffffff168473ffffffffffffffffffffffffffffffffffffffff167fddf252ad1be2c89b69c2b068fc378daa952ba7f163c4a11628f55a4df523b3ef846040516116e891906118d5565b60405180910390a350505050565b600081519050919050565b600082825260208201905092915050565b60005b83811015611730578082015181840152602081019050611715565b60008484015250505050565b6000601f19601f8301169050919050565b6000611758826116f6565b6117628185611701565b9350611772818560208601611712565b61177b8161173c565b840191505092915050565b600060208201905081810360008301526117a0818461174d565b905092915050565b6000604051905090565b600080fd5b600080fd5b600073ffffffffffffffffffffffffffffffffffffffff82169050919050565b60006117e7826117bc565b9050919050565b6117f7816117dc565b811461180257600080fd5b50565b600081359050611814816117ee565b92915050565b6000819050919050565b61182d8161181a565b811461183857600080fd5b50565b60008135905061184a81611824565b92915050565b60008060408385031215611867576118666117b2565b5b600061187585828601611805565b92505060206118868582860161183b565b9150509250929050565b60008115159050919050565b6118a581611890565b82525050565b60006020820190506118c0600083018461189c565b92915050565b6118cf8161181a565b82525050565b60006020820190506118ea60008301846118c6565b92915050565b600060208284031215611906576119056117b2565b5b600061191484828501611805565b91505092915050565b600080600060608486031215611936576119356117b2565b5b600061194486828701611805565b935050602061195586828701611805565b92505060406119668682870161183b565b9150509250925092565b600060ff82169050919050565b61198681611970565b82525050565b60006020820190506119a1600083018461197d565b92915050565b6000806000606084860312156119c0576119bf6117b2565b5b60006119ce86828701611805565b93505060206119df8682870161183b565b92505060406119f08682870161183b565b9150509250925092565b600060208284031215611a1057611a0f6117b2565b5b6000611a1e8482850161183b565b91505092915050565b6000819050919050565b6000611a4c611a47611a42846117bc565b611a27565b6117bc565b9050919050565b6000611a5e82611a31565b9050919050565b6000611a7082611a53565b9050919050565b611a8081611a65565b82525050565b6000602082019050611a9b6000830184611a77565b92915050565b6000611aac826117bc565b9050919050565b611abc81611aa1565b8114611ac757600080fd5b50565b600081359050611ad981611ab3565b92915050565b60008060408385031215611af657611af56117b2565b5b6000611b0485828601611aca565b9250506020611b158582860161183b565b9150509250929050565b60008060408385031215611b3657611b356117b2565b5b6000611b4485828601611805565b9250506020611b5585828601611805565b9150509250929050565b600080fd5b600080fd5b7f4e487b7100000000000000000000000000000000000000000000000000000000600052604160045260246000fd5b611ba18261173c565b810181811067ffffffffffffffff82111715611bc057611bbf611b69565b5b80604052505050565b6000611bd36117a8565b9050611bdf8282611b98565b919050565b600067ffffffffffffffff821115611bff57611bfe611b69565b5b611c088261173c565b9050602081019050919050565b82818337600083830152505050565b6000611c37611c3284611be4565b611bc9565b905082815260208101848484011115611c5357611c52611b64565b5b611c5e848285611c15565b509392505050565b600082601f830112611c7b57611c7a611b5f565b5b8135611c8b848260208601611c24565b91505092915050565b60008060408385031215611cab57611caa6117b2565b5b6000611cb985828601611805565b925050602083013567ffffffffffffffff811115611cda57611cd96117b7565b5b611ce685828601611c66565b9150509250929050565b7f4e487b7100000000000000000000000000000000000000000000000000000000600052602260045260246000fd5b60006002820490506001821680611d3757607f821691505b602082108103611d4a57611d49611cf0565b5b50919050565b7f45524332303a20696e73756666696369656e7420616c6c6f77616e6365000000600082015250565b6000611d86601d83611701565b9150611d9182611d50565b602082019050919050565b60006020820190508181036000830152611db581611d79565b9050919050565b7f45524332303a206d696e7420746f20746865207a65726f206164647265737300600082015250565b6000611df2601f83611701565b9150611dfd82611dbc565b602082019050919050565b60006020820190508181036000830152611e2181611de5565b9050919050565b611e31816117dc565b82525050565b6000602082019050611e4c6000830184611e28565b92915050565b611e5b81611890565b8114611e6657600080fd5b50565b600081519050611e7881611e52565b92915050565b600060208284031215611e9457611e936117b2565b5b6000611ea284828501611e69565b91505092915050565b7f45524332303a206f6e6c792061646d696e2063616e206d696e74000000000000600082015250565b6000611ee1601a83611701565b9150611eec82611eab565b602082019050919050565b60006020820190508181036000830152611f1081611ed4565b9050919050565b7f4e487b7100000000000000000000000000000000000000000000000000000000600052601160045260246000fd5b6000611f518261181a565b9150611f5c8361181a565b9250828201905080821115611f7457611f73611f17565b5b92915050565b6000819050919050565b6000611f8f82611f7a565b9150611f9a83611f7a565b925082820190508281121560008312168382126000841215161715611fc257611fc1611f17565b5b92915050565b6000611fd38261181a565b91507fffffffffffffffffffffffffffffffffffffffffffffffffffffffffffffffff820361200557612004611f17565b5b600182019050919050565b60008160011c9050919050565b6000808291508390505b60018511156120675780860481111561204357612042611f17565b5b60018516156120525780820291505b808102905061206085612010565b9450612027565b94509492505050565b600082612080576001905061213c565b8161208e576000905061213c565b81600181146120a457600281146120ae576120dd565b600191505061213c565b60ff8411156120c0576120bf611f17565b5b8360020a9150848211156120d7576120d6611f17565b5b5061213c565b5060208310610133831016604e8410600b84101617156121125782820a90508381111561210d5761210c611f17565b5b61213c565b61211f848484600161201d565b9250905081840481111561213657612135611f17565b5b81810290505b9392505050565b600061214e8261181a565b915061215983611970565b92506121867fffffffffffffffffffffffffffffffffffffffffffffffffffffffffffffffff8484612070565b905092915050565b60006121998261181a565b91506121a48361181a565b92508282026121b28161181a565b915082820484148315176121c9576121c8611f17565b5b5092915050565b7f536f756c426f756e64205265737472696374696f6e3a206f6e6c792061646d6960008201527f6e2063616e206275726e00000000000000000000000000000000000000000000602082015250565b600061222c602a83611701565b9150612237826121d0565b604082019050919050565b6000602082019050818103600083015261225b8161221f565b9050919050565b7f4f6e6c7920636f6e74726163742061646d696e2063616e20776974686472617760008201527f2066756e64730000000000000000000000000000000000000000000000000000602082015250565b60006122be602683611701565b91506122c982612262565b604082019050919050565b600060208201905081810360008301526122ed816122b1565b9050919050565b7f496e76616c696420616464726573730000000000000000000000000000000000600082015250565b600061232a600f83611701565b9150612335826122f4565b602082019050919050565b600060208201905081810360008301526123598161231d565b9050919050565b600061236b82611a53565b9050919050565b61237b81612360565b82525050565b60006020820190506123966000830184612372565b92915050565b7f46756e64732063616e206f6e6c792062652077697468647261776e20746f206160008201527f646d696e2c206d73672e73656e646572206f722074782e6f726967696e000000602082015250565b60006123f8603d83611701565b91506124038261239c565b604082019050919050565b60006020820190508181036000830152612427816123eb565b9050919050565b7f496e73756666696369656e742066756e64730000000000000000000000000000600082015250565b6000612464601283611701565b915061246f8261242e565b602082019050919050565b6000602082019050818103600083015261249381612457565b9050919050565b600081905092915050565b50565b60006124b560008361249a565b91506124c0826124a5565b600082019050919050565b60006124d6826124a8565b9150819050919050565b7f5472616e73666572206661696c65642e00000000000000000000000000000000600082015250565b6000612516601083611701565b9150612521826124e0565b602082019050919050565b6000602082019050818103600083015261254581612509565b9050919050565b7f4e487b7100000000000000000000000000000000000000000000000000000000600052601260045260246000fd5b60006125868261181a565b91506125918361181a565b9250826125a1576125a061254c565b5b828204905092915050565b60006040820190506125c16000830185611e28565b81810360208301526125d3818461174d565b90509392505050565b7f536f756c426f756e64205265737472696374696f6e3a206f6e6c792061646d6960008201527f6e2063616e20617070726f766500000000000000000000000000000000000000602082015250565b6000612638602d83611701565b9150612643826125dc565b604082019050919050565b600060208201905081810360008301526126678161262b565b9050919050565b7f45524332303a20617070726f76652066726f6d20746865207a65726f2061646460008201527f7265737300000000000000000000000000000000000000000000000000000000602082015250565b60006126ca602483611701565b91506126d58261266e565b604082019050919050565b600060208201905081810360008301526126f9816126bd565b9050919050565b7f45524332303a20617070726f766520746f20746865207a65726f20616464726560008201527f7373000000000000000000000000000000000000000000000000000000000000602082015250565b600061275c602283611701565b915061276782612700565b604082019050919050565b6000602082019050818103600083015261278b8161274f565b9050919050565b7f536f756c426f756e64205265737472696374696f6e3a206f6e6c792061646d6960008201527f6e2063616e207472616e73666572000000000000000000000000000000000000602082015250565b60006127ee602e83611701565b91506127f982612792565b604082019050919050565b6000602082019050818103600083015261281d816127e1565b9050919050565b7f45524332303a207472616e736665722066726f6d20746865207a65726f20616460008201527f6472657373000000000000000000000000000000000000000000000000000000602082015250565b6000612880602583611701565b915061288b82612824565b604082019050919050565b600060208201905081810360008301526128af81612873565b9050919050565b7f45524332303a207472616e7366657220616d6f756e742065786365656473206260008201527f616c616e63650000000000000000000000000000000000000000000000000000602082015250565b6000612912602683611701565b915061291d826128b6565b604082019050919050565b6000602082019050818103600083015261294181612905565b9050919050565b600061295382611f7a565b91507f8000000000000000000000000000000000000000000000000000000000000000820361298557612984611f17565b5b81600003905091905056fea264697066735822122061a408428361aa5eed4410db49cf4f07e1c46f049fad1320485b065ce57e510b64736f6c63430008110033",
  "immutableReferences": {
    "3338": [
      {
        "length": 32,
        "start": 1653
      }
    ]
  },
  "source": "// SPDX-License-Identifier: AGPL-3.0-only\r\npragma solidity >=0.8.17;\r\n\r\nerror SoulBoundRestriction();\r\n\r\nimport \"./BaseConfig.sol\";\r\n\r\ncontract SBCoin is BaseConfig {\r\n    //EVENTS\r\n    event Transfer(address indexed from, address indexed to, uint256 amount);\r\n    event Approval(\r\n        address indexed owner,\r\n        address indexed spender,\r\n        uint256 amount\r\n    );\r\n    event Burn(address indexed from, uint256 amount);\r\n\r\n    //METADATA STORAGE\r\n    string private _name;\r\n    string private _symbol;\r\n\r\n    uint8 private immutable _decimals;\r\n\r\n    //ERC20 STORAGE\r\n    uint256 private _totalSupply;\r\n\r\n    mapping(address => uint256) private _balances;\r\n\r\n    mapping(address => mapping(address => uint256)) private _allowances;\r\n\r\n    //TIME VALIDATION STORAGE\r\n    mapping(address => mapping(uint256 => int256)) private _timeStamps;\r\n\r\n    //CONSTRUCTOR\r\n    constructor(\r\n        string memory name_,\r\n        string memory symbol_,\r\n        address _configContractAddress\r\n    ) {\r\n        _name = name_; //KnowledgeCoin\r\n        _symbol = symbol_; //NOW\r\n        _decimals = 18;\r\n        _totalSupply = 0;\r\n\r\n        // Add smart contract to contract admin list with the name SBCoin_<coin_name>\r\n        initAdmin(\r\n            _configContractAddress,\r\n            string(abi.encodePacked(\"SBCoin\", \" \", _name))\r\n        );\r\n\r\n        getConfigStorage().setKnowledgeCoinContractAdress(address(this));\r\n    }\r\n\r\n    //ERC20SB LOGIC\r\n    function name() public view returns (string memory) {\r\n        return _name;\r\n    }\r\n\r\n    function symbol() public view returns (string memory) {\r\n        return _symbol;\r\n    }\r\n\r\n    function decimals() public view returns (uint8) {\r\n        return _decimals;\r\n    }\r\n\r\n    function totalSupply() public view returns (uint256) {\r\n        return _totalSupply;\r\n    }\r\n\r\n    function balanceOf(address account) public view returns (uint256) {\r\n        return _balances[account];\r\n    }\r\n\r\n    function transfer(address to, uint256 amount) public returns (bool) {\r\n        _transfer(msg.sender, to, amount);\r\n        return true;\r\n    }\r\n\r\n    function transferFrom(\r\n        address from,\r\n        address to,\r\n        uint256 amount\r\n    ) public returns (bool) {\r\n        address spender = msg.sender;\r\n\r\n        uint256 currentAllowance = allowance(from, spender);\r\n\r\n        if (currentAllowance != type(uint256).max) {\r\n            require(\r\n                currentAllowance >= amount,\r\n                \"ERC20: insufficient allowance\"\r\n            );\r\n            unchecked {\r\n                _approve(from, spender, currentAllowance - amount);\r\n            }\r\n        }\r\n\r\n        _transfer(from, to, amount);\r\n        return true;\r\n    }\r\n\r\n    function approve(address spender, uint256 amount) public returns (bool) {\r\n        _approve(msg.sender, spender, amount);\r\n        return true;\r\n    }\r\n\r\n    function allowance(address owner, address spender)\r\n        public\r\n        view\r\n        returns (uint256)\r\n    {\r\n        return _allowances[owner][spender];\r\n    }\r\n\r\n    //MINT LOGIC\r\n    function mint(address to, uint256 amount) public returns (bool) {\r\n        require(to != address(0), \"ERC20: mint to the zero address\");\r\n        require(\r\n            getConfigStorage().isAdmin(msg.sender),\r\n            \"ERC20: only admin can mint\"\r\n        );\r\n\r\n        _totalSupply += amount;\r\n\r\n        // Cannot overflow because the sum of all user\r\n        // balances can't exceed the max uint256 value.\r\n        unchecked {\r\n            _balances[to] += amount;\r\n        }\r\n\r\n        _timeStamps[to][block.number] = int256(amount);\r\n\r\n        emit Transfer(address(0), to, amount);\r\n\r\n        return true;\r\n    }\r\n\r\n    //TIME VALIDATION LOGIC\r\n    function coinsInBlockNumberRange(\r\n        address account,\r\n        uint256 startBlock,\r\n        uint256 endBlock\r\n    ) public view returns (uint256) {\r\n        int256 amount = 0;\r\n        for (uint256 i = startBlock; i <= endBlock; i++) {\r\n            amount += _timeStamps[account][i];\r\n        }\r\n        return amount > 0 ? uint256(amount) : 0;\r\n    }\r\n\r\n    //INTERNAL LOGIC\r\n\r\n    //UTILITY\r\n\r\n    // Transfer amount of tokens from sender to recipient.\r\n    function _transfer(\r\n        address from,\r\n        address to,\r\n        uint256 amount\r\n    ) internal virtual {\r\n        require(\r\n            getConfigStorage().isAdmin(msg.sender),\r\n            \"SoulBound Restriction: only admin can transfer\"\r\n        );\r\n\r\n        require(from != address(0), \"ERC20: transfer from the zero address\");\r\n\r\n        // Allow transfer to 0x0 address to burn tokens\r\n        // require(to != address(0), \"ERC20: transfer to the zero address\");\r\n\r\n        uint256 fromBalance = _balances[from];\r\n\r\n        require(\r\n            fromBalance >= amount,\r\n            \"ERC20: transfer amount exceeds balance\"\r\n        );\r\n\r\n        // Cannot overflow or underflow because a user's balance\r\n        // will never be larger than the total supply.\r\n        unchecked {\r\n            _balances[from] = fromBalance - amount;\r\n            _balances[to] += amount;\r\n        }\r\n\r\n        _timeStamps[from][block.number] = -int256(amount);\r\n        _timeStamps[to][block.number] = int256(amount);\r\n\r\n        emit Transfer(from, to, amount);\r\n    }\r\n\r\n    // Approve spender to transfer amount of tokens on behalf of owner.\r\n    function _approve(\r\n        address owner,\r\n        address spender,\r\n        uint256 amount\r\n    ) internal virtual {\r\n        require(\r\n            getConfigStorage().isAdmin(msg.sender),\r\n            \"SoulBound Restriction: only admin can approve\"\r\n        );\r\n\r\n        require(owner != address(0), \"ERC20: approve from the zero address\");\r\n        require(spender != address(0), \"ERC20: approve to the zero address\");\r\n\r\n        _allowances[owner][spender] = amount;\r\n        emit Approval(owner, spender, amount);\r\n    }\r\n\r\n    // Convert amount of full coins to amount of tokens.\r\n    function exchangeToFullCoin(uint256 amount) public view returns (uint256) {\r\n        return amount * 10**decimals();\r\n    }\r\n\r\n    // Convert amount of tokens to amount of decimal coins.\r\n    function exchangeToDecimalCoin(uint256 amount)\r\n        public\r\n        view\r\n        returns (uint256)\r\n    {\r\n        return amount / 10**decimals();\r\n    }\r\n\r\n    // Convert amount of tokens to amount of full coins.\r\n    function scaledBalanceOf(address _address) public view returns (uint256) {\r\n        return exchangeToDecimalCoin(_balances[_address]);\r\n    }\r\n\r\n    // Burn amount of tokens from sender.\r\n    function burn(address _address, uint256 _value) public returns (bool) {\r\n        require(\r\n            getConfigStorage().isAdmin(msg.sender),\r\n            \"SoulBound Restriction: only admin can burn\"\r\n        );\r\n\r\n        // Requires that the message sender has enough tokens to burn\r\n        require(_value <= _balances[_address]);\r\n\r\n        _transfer(_address, address(0), _value);\r\n\r\n        // Emits burn events\r\n        emit Burn(_address, _value);\r\n\r\n        // Since you cant actually burn tokens on the blockchain, sending to address 0, which none has the private keys to, removes them from the circulating supply\r\n        return true;\r\n    }\r\n}\r\n",
  "sourcePath": "C:\\Users\\jonas\\Repos\\mtp-blockchain\\smart-contracts\\contracts\\SBCoin.sol",
  "compiler": {
    "name": "solc",
    "version": "0.8.17+commit.8df45f5f.Emscripten.clang"
  },
  "schemaVersion": "3.4.11",
  "updatedAt": "2023-02-01T15:34:30.276Z",
  "devdoc": {
    "kind": "dev",
    "methods": {},
    "version": 1
  },
  "userdoc": {
    "kind": "user",
    "methods": {},
    "version": 1
  }
}