{
  "contractName": "SBCoin",
  "abi": [
    {
      "inputs": [
        {
          "internalType": "string",
          "name": "name_",
          "type": "string"
        },
        {
          "internalType": "string",
          "name": "symbol_",
          "type": "string"
        },
        {
          "internalType": "address",
          "name": "_configContractAddress",
          "type": "address"
        }
      ],
      "stateMutability": "nonpayable",
      "type": "constructor"
    },
    {
      "anonymous": false,
      "inputs": [
        {
          "indexed": true,
          "internalType": "address",
          "name": "owner",
          "type": "address"
        },
        {
          "indexed": true,
          "internalType": "address",
          "name": "spender",
          "type": "address"
        },
        {
          "indexed": false,
          "internalType": "uint256",
          "name": "amount",
          "type": "uint256"
        }
      ],
      "name": "Approval",
      "type": "event"
    },
    {
      "anonymous": false,
      "inputs": [
        {
          "indexed": true,
          "internalType": "address",
          "name": "from",
          "type": "address"
        },
        {
          "indexed": false,
          "internalType": "uint256",
          "name": "amount",
          "type": "uint256"
        }
      ],
      "name": "Burn",
      "type": "event"
    },
    {
      "anonymous": false,
      "inputs": [
        {
          "indexed": true,
          "internalType": "address",
          "name": "from",
          "type": "address"
        },
        {
          "indexed": true,
          "internalType": "address",
          "name": "to",
          "type": "address"
        },
        {
          "indexed": false,
          "internalType": "uint256",
          "name": "amount",
          "type": "uint256"
        }
      ],
      "name": "Transfer",
      "type": "event"
    },
    {
      "inputs": [],
      "name": "getConfigStorage",
      "outputs": [
        {
          "internalType": "contract ConfigStorage",
          "name": "",
          "type": "address"
        }
      ],
      "stateMutability": "view",
      "type": "function",
      "constant": true
    },
    {
      "inputs": [
        {
          "internalType": "address",
          "name": "_configContractAddress",
          "type": "address"
        },
        {
          "internalType": "string",
          "name": "_contractName",
          "type": "string"
        }
      ],
      "name": "initAdmin",
      "outputs": [],
      "stateMutability": "nonpayable",
      "type": "function"
    },
    {
      "inputs": [
        {
          "internalType": "address payable",
          "name": "_to",
          "type": "address"
        },
        {
          "internalType": "uint256",
          "name": "_value",
          "type": "uint256"
        }
      ],
      "name": "withdrawFunds",
      "outputs": [],
      "stateMutability": "payable",
      "type": "function",
      "payable": true
    },
    {
      "inputs": [],
      "name": "name",
      "outputs": [
        {
          "internalType": "string",
          "name": "",
          "type": "string"
        }
      ],
      "stateMutability": "view",
      "type": "function",
      "constant": true
    },
    {
      "inputs": [],
      "name": "symbol",
      "outputs": [
        {
          "internalType": "string",
          "name": "",
          "type": "string"
        }
      ],
      "stateMutability": "view",
      "type": "function",
      "constant": true
    },
    {
      "inputs": [],
      "name": "decimals",
      "outputs": [
        {
          "internalType": "uint8",
          "name": "",
          "type": "uint8"
        }
      ],
      "stateMutability": "view",
      "type": "function",
      "constant": true
    },
    {
      "inputs": [],
      "name": "totalSupply",
      "outputs": [
        {
          "internalType": "uint256",
          "name": "",
          "type": "uint256"
        }
      ],
      "stateMutability": "view",
      "type": "function",
      "constant": true
    },
    {
      "inputs": [
        {
          "internalType": "address",
          "name": "account",
          "type": "address"
        }
      ],
      "name": "balanceOf",
      "outputs": [
        {
          "internalType": "uint256",
          "name": "",
          "type": "uint256"
        }
      ],
      "stateMutability": "view",
      "type": "function",
      "constant": true
    },
    {
      "inputs": [
        {
          "internalType": "address",
          "name": "to",
          "type": "address"
        },
        {
          "internalType": "uint256",
          "name": "amount",
          "type": "uint256"
        }
      ],
      "name": "transfer",
      "outputs": [
        {
          "internalType": "bool",
          "name": "",
          "type": "bool"
        }
      ],
      "stateMutability": "nonpayable",
      "type": "function"
    },
    {
      "inputs": [
        {
          "internalType": "address",
          "name": "from",
          "type": "address"
        },
        {
          "internalType": "address",
          "name": "to",
          "type": "address"
        },
        {
          "internalType": "uint256",
          "name": "amount",
          "type": "uint256"
        }
      ],
      "name": "transferFrom",
      "outputs": [
        {
          "internalType": "bool",
          "name": "",
          "type": "bool"
        }
      ],
      "stateMutability": "nonpayable",
      "type": "function"
    },
    {
      "inputs": [
        {
          "internalType": "address",
          "name": "spender",
          "type": "address"
        },
        {
          "internalType": "uint256",
          "name": "amount",
          "type": "uint256"
        }
      ],
      "name": "approve",
      "outputs": [
        {
          "internalType": "bool",
          "name": "",
          "type": "bool"
        }
      ],
      "stateMutability": "nonpayable",
      "type": "function"
    },
    {
      "inputs": [
        {
          "internalType": "address",
          "name": "owner",
          "type": "address"
        },
        {
          "internalType": "address",
          "name": "spender",
          "type": "address"
        }
      ],
      "name": "allowance",
      "outputs": [
        {
          "internalType": "uint256",
          "name": "",
          "type": "uint256"
        }
      ],
      "stateMutability": "view",
      "type": "function",
      "constant": true
    },
    {
      "inputs": [
        {
          "internalType": "address",
          "name": "to",
          "type": "address"
        },
        {
          "internalType": "uint256",
          "name": "amount",
          "type": "uint256"
        }
      ],
      "name": "mint",
      "outputs": [
        {
          "internalType": "bool",
          "name": "",
          "type": "bool"
        }
      ],
      "stateMutability": "nonpayable",
      "type": "function"
    },
    {
      "inputs": [
        {
          "internalType": "address",
          "name": "account",
          "type": "address"
        },
        {
          "internalType": "uint256",
          "name": "startBlock",
          "type": "uint256"
        },
        {
          "internalType": "uint256",
          "name": "endBlock",
          "type": "uint256"
        }
      ],
      "name": "coinsInBlockNumberRange",
      "outputs": [
        {
          "internalType": "uint256",
          "name": "",
          "type": "uint256"
        }
      ],
      "stateMutability": "view",
      "type": "function",
      "constant": true
    },
    {
      "inputs": [
        {
          "internalType": "uint256",
          "name": "amount",
          "type": "uint256"
        }
      ],
      "name": "exchangeToFullCoin",
      "outputs": [
        {
          "internalType": "uint256",
          "name": "",
          "type": "uint256"
        }
      ],
      "stateMutability": "view",
      "type": "function",
      "constant": true
    },
    {
      "inputs": [
        {
          "internalType": "uint256",
          "name": "amount",
          "type": "uint256"
        }
      ],
      "name": "exchangeToDecimalCoin",
      "outputs": [
        {
          "internalType": "uint256",
          "name": "",
          "type": "uint256"
        }
      ],
      "stateMutability": "view",
      "type": "function",
      "constant": true
    },
    {
      "inputs": [
        {
          "internalType": "address",
          "name": "_address",
          "type": "address"
        }
      ],
      "name": "scaledBalanceOf",
      "outputs": [
        {
          "internalType": "uint256",
          "name": "",
          "type": "uint256"
        }
      ],
      "stateMutability": "view",
      "type": "function",
      "constant": true
    },
    {
      "inputs": [
        {
          "internalType": "address",
          "name": "_address",
          "type": "address"
        },
        {
          "internalType": "uint256",
          "name": "_value",
          "type": "uint256"
        }
      ],
      "name": "burn",
      "outputs": [
        {
          "internalType": "bool",
          "name": "",
          "type": "bool"
        }
      ],
      "stateMutability": "nonpayable",
      "type": "function"
    }
  ],
  "bytecode": "0x60a06040523480156200001157600080fd5b50604051620035ff380380620035ff833981810160405281019062000037919062000418565b8260019081620000489190620006fd565b5081600290816200005a9190620006fd565b50601260ff1660808160ff16815250506000600381905550620000a68160016040516020016200008b91906200091e565b6040516020818303038152906040526200012d60201b60201c565b620000b6620001f760201b60201c565b73ffffffffffffffffffffffffffffffffffffffff166391a10edf306040518263ffffffff1660e01b8152600401620000f0919062000962565b600060405180830381600087803b1580156200010b57600080fd5b505af115801562000120573d6000803e3d6000fd5b5050505050505062000a05565b816000806101000a81548173ffffffffffffffffffffffffffffffffffffffff021916908373ffffffffffffffffffffffffffffffffffffffff16021790555060006200017f620001f760201b60201c565b90508073ffffffffffffffffffffffffffffffffffffffff16637fb99b9330846040518363ffffffff1660e01b8152600401620001be929190620009d1565b600060405180830381600087803b158015620001d957600080fd5b505af1158015620001ee573d6000803e3d6000fd5b50505050505050565b60008060009054906101000a900473ffffffffffffffffffffffffffffffffffffffff16905090565b6000604051905090565b600080fd5b600080fd5b600080fd5b600080fd5b6000601f19601f8301169050919050565b7f4e487b7100000000000000000000000000000000000000000000000000000000600052604160045260246000fd5b62000289826200023e565b810181811067ffffffffffffffff82111715620002ab57620002aa6200024f565b5b80604052505050565b6000620002c062000220565b9050620002ce82826200027e565b919050565b600067ffffffffffffffff821115620002f157620002f06200024f565b5b620002fc826200023e565b9050602081019050919050565b60005b83811015620003295780820151818401526020810190506200030c565b60008484015250505050565b60006200034c6200034684620002d3565b620002b4565b9050828152602081018484840111156200036b576200036a62000239565b5b6200037884828562000309565b509392505050565b600082601f83011262000398576200039762000234565b5b8151620003aa84826020860162000335565b91505092915050565b600073ffffffffffffffffffffffffffffffffffffffff82169050919050565b6000620003e082620003b3565b9050919050565b620003f281620003d3565b8114620003fe57600080fd5b50565b6000815190506200041281620003e7565b92915050565b6000806000606084860312156200043457620004336200022a565b5b600084015167ffffffffffffffff8111156200045557620004546200022f565b5b620004638682870162000380565b935050602084015167ffffffffffffffff8111156200048757620004866200022f565b5b620004958682870162000380565b9250506040620004a88682870162000401565b9150509250925092565b600081519050919050565b7f4e487b7100000000000000000000000000000000000000000000000000000000600052602260045260246000fd5b600060028204905060018216806200050557607f821691505b6020821081036200051b576200051a620004bd565b5b50919050565b60008190508160005260206000209050919050565b60006020601f8301049050919050565b600082821b905092915050565b600060088302620005857fffffffffffffffffffffffffffffffffffffffffffffffffffffffffffffffff8262000546565b62000591868362000546565b95508019841693508086168417925050509392505050565b6000819050919050565b6000819050919050565b6000620005de620005d8620005d284620005a9565b620005b3565b620005a9565b9050919050565b6000819050919050565b620005fa83620005bd565b620006126200060982620005e5565b84845462000553565b825550505050565b600090565b620006296200061a565b62000636818484620005ef565b505050565b5b818110156200065e57620006526000826200061f565b6001810190506200063c565b5050565b601f821115620006ad57620006778162000521565b620006828462000536565b8101602085101562000692578190505b620006aa620006a18562000536565b8301826200063b565b50505b505050565b600082821c905092915050565b6000620006d260001984600802620006b2565b1980831691505092915050565b6000620006ed8383620006bf565b9150826002028217905092915050565b6200070882620004b2565b67ffffffffffffffff8111156200072457620007236200024f565b5b620007308254620004ec565b6200073d82828562000662565b600060209050601f83116001811462000775576000841562000760578287015190505b6200076c8582620006df565b865550620007dc565b601f198416620007858662000521565b60005b82811015620007af5784890151825560018201915060208501945060208101905062000788565b86831015620007cf5784890151620007cb601f891682620006bf565b8355505b6001600288020188555050505b505050505050565b600081905092915050565b7f5342436f696e0000000000000000000000000000000000000000000000000000600082015250565b600062000827600683620007e4565b91506200083482620007ef565b600682019050919050565b7f2000000000000000000000000000000000000000000000000000000000000000600082015250565b600062000877600183620007e4565b915062000884826200083f565b600182019050919050565b600081546200089e81620004ec565b620008aa8186620007e4565b94506001821660008114620008c85760018114620008de5762000915565b60ff198316865281151582028601935062000915565b620008e98562000521565b60005b838110156200090d57815481890152600182019150602081019050620008ec565b838801955050505b50505092915050565b60006200092b8262000818565b9150620009388262000868565b91506200094682846200088f565b915081905092915050565b6200095c81620003d3565b82525050565b600060208201905062000979600083018462000951565b92915050565b600082825260208201905092915050565b60006200099d82620004b2565b620009a981856200097f565b9350620009bb81856020860162000309565b620009c6816200023e565b840191505092915050565b6000604082019050620009e8600083018562000951565b8181036020830152620009fc818462000990565b90509392505050565b608051612bde62000a2160003960006106750152612bde6000f3fe6080604052600436106101095760003560e01c8063516cbbe211610095578063a9059cbb11610064578063a9059cbb146103cd578063c10753291461040a578063dd62ed3e14610426578063df0b42e014610463578063fae45fbe146104a057610109565b8063516cbbe2146102fd57806370a082311461032857806395d89b41146103655780639dc29fac1461039057610109565b806323b872dd116100dc57806323b872dd146101de578063313ce5671461021b57806340c10f191461024657806348cdb55f146102835780634cdca3bd146102c057610109565b806306fdde031461010e578063095ea7b31461013957806318160ddd146101765780631da24f3e146101a1575b600080fd5b34801561011a57600080fd5b506101236104c9565b604051610130919061196f565b60405180910390f35b34801561014557600080fd5b50610160600480360381019061015b9190611a39565b61055b565b60405161016d9190611a94565b60405180910390f35b34801561018257600080fd5b5061018b610572565b6040516101989190611abe565b60405180910390f35b3480156101ad57600080fd5b506101c860048036038101906101c39190611ad9565b61057c565b6040516101d59190611abe565b60405180910390f35b3480156101ea57600080fd5b5061020560048036038101906102009190611b06565b6105cd565b6040516102129190611a94565b60405180910390f35b34801561022757600080fd5b50610230610671565b60405161023d9190611b75565b60405180910390f35b34801561025257600080fd5b5061026d60048036038101906102689190611a39565b610699565b60405161027a9190611a94565b60405180910390f35b34801561028f57600080fd5b506102aa60048036038101906102a59190611b90565b61095a565b6040516102b79190611abe565b60405180910390f35b3480156102cc57600080fd5b506102e760048036038101906102e29190611be3565b610ab2565b6040516102f49190611abe565b60405180910390f35b34801561030957600080fd5b50610312610ada565b60405161031f9190611c6f565b60405180910390f35b34801561033457600080fd5b5061034f600480360381019061034a9190611ad9565b610b03565b60405161035c9190611abe565b60405180910390f35b34801561037157600080fd5b5061037a610b4c565b604051610387919061196f565b60405180910390f35b34801561039c57600080fd5b506103b760048036038101906103b29190611a39565b610bde565b6040516103c49190611a94565b60405180910390f35b3480156103d957600080fd5b506103f460048036038101906103ef9190611a39565b610d50565b6040516104019190611a94565b60405180910390f35b610424600480360381019061041f9190611cc8565b610d67565b005b34801561043257600080fd5b5061044d60048036038101906104489190611d08565b6110b6565b60405161045a9190611abe565b60405180910390f35b34801561046f57600080fd5b5061048a60048036038101906104859190611be3565b61113d565b6040516104979190611abe565b60405180910390f35b3480156104ac57600080fd5b506104c760048036038101906104c29190611e7d565b611165565b005b6060600180546104d890611f08565b80601f016020809104026020016040519081016040528092919081815260200182805461050490611f08565b80156105515780601f1061052657610100808354040283529160200191610551565b820191906000526020600020905b81548152906001019060200180831161053457829003601f168201915b5050505050905090565b6000610568338484611223565b6001905092915050565b6000600354905090565b60006105c6600460008473ffffffffffffffffffffffffffffffffffffffff1673ffffffffffffffffffffffffffffffffffffffff1681526020019081526020016000205461113d565b9050919050565b60008033905060006105df86836110b6565b90507fffffffffffffffffffffffffffffffffffffffffffffffffffffffffffffffff8114610659578381101561064b576040517f08c379a000000000000000000000000000000000000000000000000000000000815260040161064290611f85565b60405180910390fd5b6106588683868403611223565b5b6106648686866114ac565b6001925050509392505050565b60007f0000000000000000000000000000000000000000000000000000000000000000905090565b60008073ffffffffffffffffffffffffffffffffffffffff168373ffffffffffffffffffffffffffffffffffffffff1603610709576040517f08c379a000000000000000000000000000000000000000000000000000000000815260040161070090611ff1565b60405180910390fd5b610711610ada565b73ffffffffffffffffffffffffffffffffffffffff166324d7806c336040518263ffffffff1660e01b81526004016107499190612020565b602060405180830381865afa158015610766573d6000803e3d6000fd5b505050506040513d601f19601f8201168201806040525081019061078a9190612067565b6107c9576040517f08c379a00000000000000000000000000000000000000000000000000000000081526004016107c0906120e0565b60405180910390fd5b81600360008282546107db919061212f565b9250508190555081600460008573ffffffffffffffffffffffffffffffffffffffff1673ffffffffffffffffffffffffffffffffffffffff1681526020019081526020016000206000828254019250508190555081600660008573ffffffffffffffffffffffffffffffffffffffff1673ffffffffffffffffffffffffffffffffffffffff168152602001908152602001600020600043815260200190815260200160002081905550600760008473ffffffffffffffffffffffffffffffffffffffff1673ffffffffffffffffffffffffffffffffffffffff1681526020019081526020016000204390806001815401808255809150506001900390600052602060002001600090919091909150558273ffffffffffffffffffffffffffffffffffffffff16600073ffffffffffffffffffffffffffffffffffffffff167fddf252ad1be2c89b69c2b068fc378daa952ba7f163c4a11628f55a4df523b3ef846040516109489190611abe565b60405180910390a36001905092915050565b6000806000905060005b600760008773ffffffffffffffffffffffffffffffffffffffff1673ffffffffffffffffffffffffffffffffffffffff16815260200190815260200160002080549050811015610a96576000600760008873ffffffffffffffffffffffffffffffffffffffff1673ffffffffffffffffffffffffffffffffffffffff1681526020019081526020016000208281548110610a0157610a00612163565b5b90600052602060002001549050858110158015610a1e5750848111155b15610a8257600660008873ffffffffffffffffffffffffffffffffffffffff1673ffffffffffffffffffffffffffffffffffffffff16815260200190815260200160002060008281526020019081526020016000205483610a7f919061219c565b92505b508080610a8e906121e0565b915050610964565b5060008113610aa6576000610aa8565b805b9150509392505050565b6000610abc610671565b600a610ac8919061235b565b82610ad391906123a6565b9050919050565b60008060009054906101000a900473ffffffffffffffffffffffffffffffffffffffff16905090565b6000600460008373ffffffffffffffffffffffffffffffffffffffff1673ffffffffffffffffffffffffffffffffffffffff168152602001908152602001600020549050919050565b606060028054610b5b90611f08565b80601f0160208091040260200160405190810160405280929190818152602001828054610b8790611f08565b8015610bd45780601f10610ba957610100808354040283529160200191610bd4565b820191906000526020600020905b815481529060010190602001808311610bb757829003601f168201915b5050505050905090565b6000610be8610ada565b73ffffffffffffffffffffffffffffffffffffffff166324d7806c336040518263ffffffff1660e01b8152600401610c209190612020565b602060405180830381865afa158015610c3d573d6000803e3d6000fd5b505050506040513d601f19601f82011682018060405250810190610c619190612067565b610ca0576040517f08c379a0000000000000000000000000000000000000000000000000000000008152600401610c979061245a565b60405180910390fd5b600460008473ffffffffffffffffffffffffffffffffffffffff1673ffffffffffffffffffffffffffffffffffffffff16815260200190815260200160002054821115610cec57600080fd5b610cf8836000846114ac565b8273ffffffffffffffffffffffffffffffffffffffff167fcc16f5dbb4873280815c1ee09dbd06736cffcc184412cf7a71a0fdb75d397ca583604051610d3e9190611abe565b60405180910390a26001905092915050565b6000610d5d3384846114ac565b6001905092915050565b610d6f610ada565b73ffffffffffffffffffffffffffffffffffffffff166324d7806c336040518263ffffffff1660e01b8152600401610da79190612020565b602060405180830381865afa158015610dc4573d6000803e3d6000fd5b505050506040513d601f19601f82011682018060405250810190610de89190612067565b610e27576040517f08c379a0000000000000000000000000000000000000000000000000000000008152600401610e1e906124ec565b60405180910390fd5b600073ffffffffffffffffffffffffffffffffffffffff168273ffffffffffffffffffffffffffffffffffffffff1603610e96576040517f08c379a0000000000000000000000000000000000000000000000000000000008152600401610e8d90612558565b60405180910390fd5b3373ffffffffffffffffffffffffffffffffffffffff168273ffffffffffffffffffffffffffffffffffffffff161480610efb57503273ffffffffffffffffffffffffffffffffffffffff168273ffffffffffffffffffffffffffffffffffffffff16145b80610f835750610f09610ada565b73ffffffffffffffffffffffffffffffffffffffff166324d7806c836040518263ffffffff1660e01b8152600401610f419190612599565b602060405180830381865afa158015610f5e573d6000803e3d6000fd5b505050506040513d601f19601f82011682018060405250810190610f829190612067565b5b610fc2576040517f08c379a0000000000000000000000000000000000000000000000000000000008152600401610fb990612626565b60405180910390fd5b47811015611005576040517f08c379a0000000000000000000000000000000000000000000000000000000008152600401610ffc90612692565b60405180910390fd5b60008273ffffffffffffffffffffffffffffffffffffffff168260405161102b906126e3565b60006040518083038185875af1925050503d8060008114611068576040519150601f19603f3d011682016040523d82523d6000602084013e61106d565b606091505b50509050806110b1576040517f08c379a00000000000000000000000000000000000000000000000000000000081526004016110a890612744565b60405180910390fd5b505050565b6000600560008473ffffffffffffffffffffffffffffffffffffffff1673ffffffffffffffffffffffffffffffffffffffff16815260200190815260200160002060008373ffffffffffffffffffffffffffffffffffffffff1673ffffffffffffffffffffffffffffffffffffffff16815260200190815260200160002054905092915050565b6000611147610671565b600a611153919061235b565b8261115e9190612793565b9050919050565b816000806101000a81548173ffffffffffffffffffffffffffffffffffffffff021916908373ffffffffffffffffffffffffffffffffffffffff16021790555060006111af610ada565b90508073ffffffffffffffffffffffffffffffffffffffff16637fb99b9330846040518363ffffffff1660e01b81526004016111ec9291906127c4565b600060405180830381600087803b15801561120657600080fd5b505af115801561121a573d6000803e3d6000fd5b50505050505050565b61122b610ada565b73ffffffffffffffffffffffffffffffffffffffff166324d7806c336040518263ffffffff1660e01b81526004016112639190612020565b602060405180830381865afa158015611280573d6000803e3d6000fd5b505050506040513d601f19601f820116820180604052508101906112a49190612067565b6112e3576040517f08c379a00000000000000000000000000000000000000000000000000000000081526004016112da90612866565b60405180910390fd5b600073ffffffffffffffffffffffffffffffffffffffff168373ffffffffffffffffffffffffffffffffffffffff1603611352576040517f08c379a0000000000000000000000000000000000000000000000000000000008152600401611349906128f8565b60405180910390fd5b600073ffffffffffffffffffffffffffffffffffffffff168273ffffffffffffffffffffffffffffffffffffffff16036113c1576040517f08c379a00000000000000000000000000000000000000000000000000000000081526004016113b89061298a565b60405180910390fd5b80600560008573ffffffffffffffffffffffffffffffffffffffff1673ffffffffffffffffffffffffffffffffffffffff16815260200190815260200160002060008473ffffffffffffffffffffffffffffffffffffffff1673ffffffffffffffffffffffffffffffffffffffff168152602001908152602001600020819055508173ffffffffffffffffffffffffffffffffffffffff168373ffffffffffffffffffffffffffffffffffffffff167f8c5be1e5ebec7d5bd14f71427d1e84f3dd0314c0f7b2291e5b200ac8c7c3b9258360405161149f9190611abe565b60405180910390a3505050565b6114b4610ada565b73ffffffffffffffffffffffffffffffffffffffff166324d7806c336040518263ffffffff1660e01b81526004016114ec9190612020565b602060405180830381865afa158015611509573d6000803e3d6000fd5b505050506040513d601f19601f8201168201806040525081019061152d9190612067565b61156c576040517f08c379a000000000000000000000000000000000000000000000000000000000815260040161156390612a1c565b60405180910390fd5b600073ffffffffffffffffffffffffffffffffffffffff168373ffffffffffffffffffffffffffffffffffffffff16036115db576040517f08c379a00000000000000000000000000000000000000000000000000000000081526004016115d290612aae565b60405180910390fd5b6000600460008573ffffffffffffffffffffffffffffffffffffffff1673ffffffffffffffffffffffffffffffffffffffff16815260200190815260200160002054905081811015611662576040517f08c379a000000000000000000000000000000000000000000000000000000000815260040161165990612b40565b60405180910390fd5b818103600460008673ffffffffffffffffffffffffffffffffffffffff1673ffffffffffffffffffffffffffffffffffffffff1681526020019081526020016000208190555081600460008573ffffffffffffffffffffffffffffffffffffffff1673ffffffffffffffffffffffffffffffffffffffff16815260200190815260200160002060008282540192505081905550816116ff90612b60565b600660008673ffffffffffffffffffffffffffffffffffffffff1673ffffffffffffffffffffffffffffffffffffffff168152602001908152602001600020600043815260200190815260200160002081905550600760008573ffffffffffffffffffffffffffffffffffffffff1673ffffffffffffffffffffffffffffffffffffffff16815260200190815260200160002043908060018154018082558091505060019003906000526020600020016000909190919091505581600660008573ffffffffffffffffffffffffffffffffffffffff1673ffffffffffffffffffffffffffffffffffffffff168152602001908152602001600020600043815260200190815260200160002081905550600760008473ffffffffffffffffffffffffffffffffffffffff1673ffffffffffffffffffffffffffffffffffffffff1681526020019081526020016000204390806001815401808255809150506001900390600052602060002001600090919091909150558273ffffffffffffffffffffffffffffffffffffffff168473ffffffffffffffffffffffffffffffffffffffff167fddf252ad1be2c89b69c2b068fc378daa952ba7f163c4a11628f55a4df523b3ef846040516118d19190611abe565b60405180910390a350505050565b600081519050919050565b600082825260208201905092915050565b60005b838110156119195780820151818401526020810190506118fe565b60008484015250505050565b6000601f19601f8301169050919050565b6000611941826118df565b61194b81856118ea565b935061195b8185602086016118fb565b61196481611925565b840191505092915050565b600060208201905081810360008301526119898184611936565b905092915050565b6000604051905090565b600080fd5b600080fd5b600073ffffffffffffffffffffffffffffffffffffffff82169050919050565b60006119d0826119a5565b9050919050565b6119e0816119c5565b81146119eb57600080fd5b50565b6000813590506119fd816119d7565b92915050565b6000819050919050565b611a1681611a03565b8114611a2157600080fd5b50565b600081359050611a3381611a0d565b92915050565b60008060408385031215611a5057611a4f61199b565b5b6000611a5e858286016119ee565b9250506020611a6f85828601611a24565b9150509250929050565b60008115159050919050565b611a8e81611a79565b82525050565b6000602082019050611aa96000830184611a85565b92915050565b611ab881611a03565b82525050565b6000602082019050611ad36000830184611aaf565b92915050565b600060208284031215611aef57611aee61199b565b5b6000611afd848285016119ee565b91505092915050565b600080600060608486031215611b1f57611b1e61199b565b5b6000611b2d868287016119ee565b9350506020611b3e868287016119ee565b9250506040611b4f86828701611a24565b9150509250925092565b600060ff82169050919050565b611b6f81611b59565b82525050565b6000602082019050611b8a6000830184611b66565b92915050565b600080600060608486031215611ba957611ba861199b565b5b6000611bb7868287016119ee565b9350506020611bc886828701611a24565b9250506040611bd986828701611a24565b9150509250925092565b600060208284031215611bf957611bf861199b565b5b6000611c0784828501611a24565b91505092915050565b6000819050919050565b6000611c35611c30611c2b846119a5565b611c10565b6119a5565b9050919050565b6000611c4782611c1a565b9050919050565b6000611c5982611c3c565b9050919050565b611c6981611c4e565b82525050565b6000602082019050611c846000830184611c60565b92915050565b6000611c95826119a5565b9050919050565b611ca581611c8a565b8114611cb057600080fd5b50565b600081359050611cc281611c9c565b92915050565b60008060408385031215611cdf57611cde61199b565b5b6000611ced85828601611cb3565b9250506020611cfe85828601611a24565b9150509250929050565b60008060408385031215611d1f57611d1e61199b565b5b6000611d2d858286016119ee565b9250506020611d3e858286016119ee565b9150509250929050565b600080fd5b600080fd5b7f4e487b7100000000000000000000000000000000000000000000000000000000600052604160045260246000fd5b611d8a82611925565b810181811067ffffffffffffffff82111715611da957611da8611d52565b5b80604052505050565b6000611dbc611991565b9050611dc88282611d81565b919050565b600067ffffffffffffffff821115611de857611de7611d52565b5b611df182611925565b9050602081019050919050565b82818337600083830152505050565b6000611e20611e1b84611dcd565b611db2565b905082815260208101848484011115611e3c57611e3b611d4d565b5b611e47848285611dfe565b509392505050565b600082601f830112611e6457611e63611d48565b5b8135611e74848260208601611e0d565b91505092915050565b60008060408385031215611e9457611e9361199b565b5b6000611ea2858286016119ee565b925050602083013567ffffffffffffffff811115611ec357611ec26119a0565b5b611ecf85828601611e4f565b9150509250929050565b7f4e487b7100000000000000000000000000000000000000000000000000000000600052602260045260246000fd5b60006002820490506001821680611f2057607f821691505b602082108103611f3357611f32611ed9565b5b50919050565b7f45524332303a20696e73756666696369656e7420616c6c6f77616e6365000000600082015250565b6000611f6f601d836118ea565b9150611f7a82611f39565b602082019050919050565b60006020820190508181036000830152611f9e81611f62565b9050919050565b7f45524332303a206d696e7420746f20746865207a65726f206164647265737300600082015250565b6000611fdb601f836118ea565b9150611fe682611fa5565b602082019050919050565b6000602082019050818103600083015261200a81611fce565b9050919050565b61201a816119c5565b82525050565b60006020820190506120356000830184612011565b92915050565b61204481611a79565b811461204f57600080fd5b50565b6000815190506120618161203b565b92915050565b60006020828403121561207d5761207c61199b565b5b600061208b84828501612052565b91505092915050565b7f45524332303a206f6e6c792061646d696e2063616e206d696e74000000000000600082015250565b60006120ca601a836118ea565b91506120d582612094565b602082019050919050565b600060208201905081810360008301526120f9816120bd565b9050919050565b7f4e487b7100000000000000000000000000000000000000000000000000000000600052601160045260246000fd5b600061213a82611a03565b915061214583611a03565b925082820190508082111561215d5761215c612100565b5b92915050565b7f4e487b7100000000000000000000000000000000000000000000000000000000600052603260045260246000fd5b6000819050919050565b60006121a782612192565b91506121b283612192565b9250828201905082811215600083121683821260008412151617156121da576121d9612100565b5b92915050565b60006121eb82611a03565b91507fffffffffffffffffffffffffffffffffffffffffffffffffffffffffffffffff820361221d5761221c612100565b5b600182019050919050565b60008160011c9050919050565b6000808291508390505b600185111561227f5780860481111561225b5761225a612100565b5b600185161561226a5780820291505b808102905061227885612228565b945061223f565b94509492505050565b6000826122985760019050612354565b816122a65760009050612354565b81600181146122bc57600281146122c6576122f5565b6001915050612354565b60ff8411156122d8576122d7612100565b5b8360020a9150848211156122ef576122ee612100565b5b50612354565b5060208310610133831016604e8410600b841016171561232a5782820a90508381111561232557612324612100565b5b612354565b6123378484846001612235565b9250905081840481111561234e5761234d612100565b5b81810290505b9392505050565b600061236682611a03565b915061237183611b59565b925061239e7fffffffffffffffffffffffffffffffffffffffffffffffffffffffffffffffff8484612288565b905092915050565b60006123b182611a03565b91506123bc83611a03565b92508282026123ca81611a03565b915082820484148315176123e1576123e0612100565b5b5092915050565b7f536f756c426f756e64205265737472696374696f6e3a206f6e6c792061646d6960008201527f6e2063616e206275726e00000000000000000000000000000000000000000000602082015250565b6000612444602a836118ea565b915061244f826123e8565b604082019050919050565b6000602082019050818103600083015261247381612437565b9050919050565b7f4f6e6c7920636f6e74726163742061646d696e2063616e20776974686472617760008201527f2066756e64730000000000000000000000000000000000000000000000000000602082015250565b60006124d66026836118ea565b91506124e18261247a565b604082019050919050565b60006020820190508181036000830152612505816124c9565b9050919050565b7f496e76616c696420616464726573730000000000000000000000000000000000600082015250565b6000612542600f836118ea565b915061254d8261250c565b602082019050919050565b6000602082019050818103600083015261257181612535565b9050919050565b600061258382611c3c565b9050919050565b61259381612578565b82525050565b60006020820190506125ae600083018461258a565b92915050565b7f46756e64732063616e206f6e6c792062652077697468647261776e20746f206160008201527f646d696e2c206d73672e73656e646572206f722074782e6f726967696e000000602082015250565b6000612610603d836118ea565b915061261b826125b4565b604082019050919050565b6000602082019050818103600083015261263f81612603565b9050919050565b7f496e73756666696369656e742066756e64730000000000000000000000000000600082015250565b600061267c6012836118ea565b915061268782612646565b602082019050919050565b600060208201905081810360008301526126ab8161266f565b9050919050565b600081905092915050565b50565b60006126cd6000836126b2565b91506126d8826126bd565b600082019050919050565b60006126ee826126c0565b9150819050919050565b7f5472616e73666572206661696c65642e00000000000000000000000000000000600082015250565b600061272e6010836118ea565b9150612739826126f8565b602082019050919050565b6000602082019050818103600083015261275d81612721565b9050919050565b7f4e487b7100000000000000000000000000000000000000000000000000000000600052601260045260246000fd5b600061279e82611a03565b91506127a983611a03565b9250826127b9576127b8612764565b5b828204905092915050565b60006040820190506127d96000830185612011565b81810360208301526127eb8184611936565b90509392505050565b7f536f756c426f756e64205265737472696374696f6e3a206f6e6c792061646d6960008201527f6e2063616e20617070726f766500000000000000000000000000000000000000602082015250565b6000612850602d836118ea565b915061285b826127f4565b604082019050919050565b6000602082019050818103600083015261287f81612843565b9050919050565b7f45524332303a20617070726f76652066726f6d20746865207a65726f2061646460008201527f7265737300000000000000000000000000000000000000000000000000000000602082015250565b60006128e26024836118ea565b91506128ed82612886565b604082019050919050565b60006020820190508181036000830152612911816128d5565b9050919050565b7f45524332303a20617070726f766520746f20746865207a65726f20616464726560008201527f7373000000000000000000000000000000000000000000000000000000000000602082015250565b60006129746022836118ea565b915061297f82612918565b604082019050919050565b600060208201905081810360008301526129a381612967565b9050919050565b7f536f756c426f756e64205265737472696374696f6e3a206f6e6c792061646d6960008201527f6e2063616e207472616e73666572000000000000000000000000000000000000602082015250565b6000612a06602e836118ea565b9150612a11826129aa565b604082019050919050565b60006020820190508181036000830152612a35816129f9565b9050919050565b7f45524332303a207472616e736665722066726f6d20746865207a65726f20616460008201527f6472657373000000000000000000000000000000000000000000000000000000602082015250565b6000612a986025836118ea565b9150612aa382612a3c565b604082019050919050565b60006020820190508181036000830152612ac781612a8b565b9050919050565b7f45524332303a207472616e7366657220616d6f756e742065786365656473206260008201527f616c616e63650000000000000000000000000000000000000000000000000000602082015250565b6000612b2a6026836118ea565b9150612b3582612ace565b604082019050919050565b60006020820190508181036000830152612b5981612b1d565b9050919050565b6000612b6b82612192565b91507f80000000000000000000000000000000000000000000000000000000000000008203612b9d57612b9c612100565b5b81600003905091905056fea26469706673582212204a08b682f76e76c96734e026417381265370c54812f5efb87257e607891d3aae64736f6c63430008120033",
  "immutableReferences": {
    "3394": [
      {
        "length": 32,
        "start": 1653
      }
    ]
  },
  "source": "// SPDX-License-Identifier: AGPL-3.0-only\r\npragma solidity >=0.8.17;\r\n\r\nerror SoulBoundRestriction();\r\n\r\nimport \"./BaseConfig.sol\";\r\n\r\ncontract SBCoin is BaseConfig {\r\n    //EVENTS\r\n    event Transfer(address indexed from, address indexed to, uint256 amount);\r\n    event Approval(\r\n        address indexed owner,\r\n        address indexed spender,\r\n        uint256 amount\r\n    );\r\n    event Burn(address indexed from, uint256 amount);\r\n\r\n    //METADATA STORAGE\r\n    string private _name;\r\n    string private _symbol;\r\n\r\n    uint8 private immutable _decimals;\r\n\r\n    //ERC20 STORAGE\r\n    uint256 private _totalSupply;\r\n\r\n    mapping(address => uint256) private _balances;\r\n\r\n    mapping(address => mapping(address => uint256)) private _allowances;\r\n\r\n    //TIME VALIDATION STORAGE\r\n    mapping(address => mapping(uint256 => int256)) private _timeStamps;\r\n    mapping(address => uint256[]) private _usedBlockNumbers;\r\n\r\n    //CONSTRUCTOR\r\n    constructor(\r\n        string memory name_,\r\n        string memory symbol_,\r\n        address _configContractAddress\r\n    ) {\r\n        _name = name_; //KnowledgeCoin\r\n        _symbol = symbol_; //NOW\r\n        _decimals = 18;\r\n        _totalSupply = 0;\r\n\r\n        // Add smart contract to contract admin list with the name SBCoin_<coin_name>\r\n        initAdmin(\r\n            _configContractAddress,\r\n            string(abi.encodePacked(\"SBCoin\", \" \", _name))\r\n        );\r\n\r\n        getConfigStorage().setKnowledgeCoinContractAdress(address(this));\r\n    }\r\n\r\n    //ERC20SB LOGIC\r\n    function name() public view returns (string memory) {\r\n        return _name;\r\n    }\r\n\r\n    function symbol() public view returns (string memory) {\r\n        return _symbol;\r\n    }\r\n\r\n    function decimals() public view returns (uint8) {\r\n        return _decimals;\r\n    }\r\n\r\n    function totalSupply() public view returns (uint256) {\r\n        return _totalSupply;\r\n    }\r\n\r\n    function balanceOf(address account) public view returns (uint256) {\r\n        return _balances[account];\r\n    }\r\n\r\n    function transfer(address to, uint256 amount) public returns (bool) {\r\n        _transfer(msg.sender, to, amount);\r\n        return true;\r\n    }\r\n\r\n    function transferFrom(\r\n        address from,\r\n        address to,\r\n        uint256 amount\r\n    ) public returns (bool) {\r\n        address spender = msg.sender;\r\n\r\n        uint256 currentAllowance = allowance(from, spender);\r\n\r\n        if (currentAllowance != type(uint256).max) {\r\n            require(\r\n                currentAllowance >= amount,\r\n                \"ERC20: insufficient allowance\"\r\n            );\r\n            unchecked {\r\n                _approve(from, spender, currentAllowance - amount);\r\n            }\r\n        }\r\n\r\n        _transfer(from, to, amount);\r\n        return true;\r\n    }\r\n\r\n    function approve(address spender, uint256 amount) public returns (bool) {\r\n        _approve(msg.sender, spender, amount);\r\n        return true;\r\n    }\r\n\r\n    function allowance(address owner, address spender)\r\n        public\r\n        view\r\n        returns (uint256)\r\n    {\r\n        return _allowances[owner][spender];\r\n    }\r\n\r\n    //MINT LOGIC\r\n    function mint(address to, uint256 amount) public returns (bool) {\r\n        require(to != address(0), \"ERC20: mint to the zero address\");\r\n        require(\r\n            getConfigStorage().isAdmin(msg.sender),\r\n            \"ERC20: only admin can mint\"\r\n        );\r\n\r\n        _totalSupply += amount;\r\n\r\n        // Cannot overflow because the sum of all user\r\n        // balances can't exceed the max uint256 value.\r\n        unchecked {\r\n            _balances[to] += amount;\r\n        }\r\n\r\n        _timeStamps[to][block.number] = int256(amount);\r\n        _usedBlockNumbers[to].push(block.number);\r\n\r\n        emit Transfer(address(0), to, amount);\r\n\r\n        return true;\r\n    }\r\n\r\n    //TIME VALIDATION LOGIC\r\n    function coinsInBlockNumberRange(\r\n        address account,\r\n        uint256 startBlock,\r\n        uint256 endBlock\r\n    ) public view returns (uint256) {\r\n        int256 amount = 0;\r\n        \r\n        // loop over _usedBlockNumbers[to] uint array\r\n        for (uint256 i = 0; i < _usedBlockNumbers[account].length; i++) {\r\n            uint blockNumber = _usedBlockNumbers[account][i];\r\n\r\n            if (blockNumber >= startBlock && blockNumber <= endBlock)\r\n            {\r\n                amount += _timeStamps[account][blockNumber];\r\n            }\r\n        }\r\n\r\n        return amount > 0 ? uint256(amount) : 0;\r\n    }\r\n\r\n    //INTERNAL LOGIC\r\n\r\n    //UTILITY\r\n\r\n    // Transfer amount of tokens from sender to recipient.\r\n    function _transfer(\r\n        address from,\r\n        address to,\r\n        uint256 amount\r\n    ) internal virtual {\r\n        require(\r\n            getConfigStorage().isAdmin(msg.sender),\r\n            \"SoulBound Restriction: only admin can transfer\"\r\n        );\r\n\r\n        require(from != address(0), \"ERC20: transfer from the zero address\");\r\n\r\n        // Allow transfer to 0x0 address to burn tokens\r\n        // require(to != address(0), \"ERC20: transfer to the zero address\");\r\n\r\n        uint256 fromBalance = _balances[from];\r\n\r\n        require(\r\n            fromBalance >= amount,\r\n            \"ERC20: transfer amount exceeds balance\"\r\n        );\r\n\r\n        // Cannot overflow or underflow because a user's balance\r\n        // will never be larger than the total supply.\r\n        unchecked {\r\n            _balances[from] = fromBalance - amount;\r\n            _balances[to] += amount;\r\n        }\r\n\r\n        _timeStamps[from][block.number] = -int256(amount);\r\n        _usedBlockNumbers[from].push(block.number);\r\n\r\n        _timeStamps[to][block.number] = int256(amount);\r\n        _usedBlockNumbers[to].push(block.number);\r\n\r\n        emit Transfer(from, to, amount);\r\n    }\r\n\r\n    // Approve spender to transfer amount of tokens on behalf of owner.\r\n    function _approve(\r\n        address owner,\r\n        address spender,\r\n        uint256 amount\r\n    ) internal virtual {\r\n        require(\r\n            getConfigStorage().isAdmin(msg.sender),\r\n            \"SoulBound Restriction: only admin can approve\"\r\n        );\r\n\r\n        require(owner != address(0), \"ERC20: approve from the zero address\");\r\n        require(spender != address(0), \"ERC20: approve to the zero address\");\r\n\r\n        _allowances[owner][spender] = amount;\r\n        emit Approval(owner, spender, amount);\r\n    }\r\n\r\n    // Convert amount of full coins to amount of tokens.\r\n    function exchangeToFullCoin(uint256 amount) public view returns (uint256) {\r\n        return amount * 10**decimals();\r\n    }\r\n\r\n    // Convert amount of tokens to amount of decimal coins.\r\n    function exchangeToDecimalCoin(uint256 amount)\r\n        public\r\n        view\r\n        returns (uint256)\r\n    {\r\n        return amount / 10**decimals();\r\n    }\r\n\r\n    // Convert amount of tokens to amount of full coins.\r\n    function scaledBalanceOf(address _address) public view returns (uint256) {\r\n        return exchangeToDecimalCoin(_balances[_address]);\r\n    }\r\n\r\n    // Burn amount of tokens from sender.\r\n    function burn(address _address, uint256 _value) public returns (bool) {\r\n        require(\r\n            getConfigStorage().isAdmin(msg.sender),\r\n            \"SoulBound Restriction: only admin can burn\"\r\n        );\r\n\r\n        // Requires that the message sender has enough tokens to burn\r\n        require(_value <= _balances[_address]);\r\n\r\n        _transfer(_address, address(0), _value);\r\n\r\n        // Emits burn events\r\n        emit Burn(_address, _value);\r\n\r\n        // Since you cant actually burn tokens on the blockchain, sending to address 0, which none has the private keys to, removes them from the circulating supply\r\n        return true;\r\n    }\r\n}\r\n",
  "sourcePath": "C:\\Users\\jonas\\Repos\\mtp-blockchain\\smart-contracts\\contracts\\SBCoin.sol",
  "compiler": {
    "name": "solc",
    "version": "0.8.18+commit.87f61d96.Emscripten.clang"
  },
  "schemaVersion": "3.4.11",
  "updatedAt": "2023-02-16T19:17:31.942Z",
  "networkType": "ethereum",
  "devdoc": {
    "kind": "dev",
    "methods": {},
    "version": 1
  },
  "userdoc": {
    "kind": "user",
    "methods": {},
    "version": 1
  }
}