{
  "contractName": "TestAssignmentValidator",
  "abi": [
    {
      "inputs": [
        {
          "internalType": "address",
          "name": "admin",
          "type": "address"
        }
      ],
      "name": "addAdmin",
      "outputs": [],
      "stateMutability": "nonpayable",
      "type": "function"
    },
    {
      "inputs": [
        {
          "internalType": "uint256",
          "name": "_index",
          "type": "uint256"
        },
        {
          "internalType": "string",
          "name": "_name",
          "type": "string"
        },
        {
          "internalType": "bool",
          "name": "_result",
          "type": "bool"
        }
      ],
      "name": "appendTestResult",
      "outputs": [],
      "stateMutability": "nonpayable",
      "type": "function"
    },
    {
      "inputs": [
        {
          "internalType": "address",
          "name": "_studentAddress",
          "type": "address"
        },
        {
          "internalType": "address",
          "name": "_contractAddress",
          "type": "address"
        }
      ],
      "name": "checkAssignmentOwner",
      "outputs": [
        {
          "internalType": "bool",
          "name": "",
          "type": "bool"
        }
      ],
      "stateMutability": "view",
      "type": "function"
    },
    {
      "inputs": [
        {
          "internalType": "address",
          "name": "_studentAddress",
          "type": "address"
        },
        {
          "internalType": "address",
          "name": "_contractAddress",
          "type": "address"
        }
      ],
      "name": "createTestHistory",
      "outputs": [
        {
          "internalType": "uint256",
          "name": "",
          "type": "uint256"
        }
      ],
      "stateMutability": "nonpayable",
      "type": "function"
    },
    {
      "inputs": [],
      "name": "getAdmins",
      "outputs": [
        {
          "internalType": "address[]",
          "name": "",
          "type": "address[]"
        }
      ],
      "stateMutability": "view",
      "type": "function"
    },
    {
      "inputs": [],
      "name": "getHistoryCounter",
      "outputs": [
        {
          "internalType": "uint256",
          "name": "",
          "type": "uint256"
        }
      ],
      "stateMutability": "view",
      "type": "function"
    },
    {
      "inputs": [],
      "name": "getLength",
      "outputs": [
        {
          "internalType": "uint256",
          "name": "",
          "type": "uint256"
        }
      ],
      "stateMutability": "view",
      "type": "function"
    },
    {
      "inputs": [
        {
          "internalType": "uint256",
          "name": "_historyIndex",
          "type": "uint256"
        },
        {
          "internalType": "uint256",
          "name": "_testIndex",
          "type": "uint256"
        }
      ],
      "name": "getTestResultByIndex",
      "outputs": [
        {
          "components": [
            {
              "internalType": "string",
              "name": "testName",
              "type": "string"
            },
            {
              "internalType": "bool",
              "name": "testPassed",
              "type": "bool"
            }
          ],
          "internalType": "struct BaseAssignmentValidator.Test",
          "name": "result",
          "type": "tuple"
        }
      ],
      "stateMutability": "view",
      "type": "function"
    },
    {
      "inputs": [
        {
          "internalType": "uint256",
          "name": "_historyIndex",
          "type": "uint256"
        }
      ],
      "name": "getTestResults",
      "outputs": [
        {
          "components": [
            {
              "internalType": "string",
              "name": "testName",
              "type": "string"
            },
            {
              "internalType": "bool",
              "name": "testPassed",
              "type": "bool"
            }
          ],
          "internalType": "struct BaseAssignmentValidator.Test[]",
          "name": "result",
          "type": "tuple[]"
        }
      ],
      "stateMutability": "view",
      "type": "function"
    },
    {
      "inputs": [
        {
          "internalType": "address",
          "name": "possibleAdmin",
          "type": "address"
        }
      ],
      "name": "isAdmin",
      "outputs": [
        {
          "internalType": "bool",
          "name": "",
          "type": "bool"
        }
      ],
      "stateMutability": "view",
      "type": "function"
    },
    {
      "inputs": [
        {
          "internalType": "address",
          "name": "admin",
          "type": "address"
        }
      ],
      "name": "removeAdmin",
      "outputs": [],
      "stateMutability": "nonpayable",
      "type": "function"
    },
    {
      "inputs": [
        {
          "internalType": "address",
          "name": "possibleAdmin",
          "type": "address"
        }
      ],
      "name": "requireAdmin",
      "outputs": [
        {
          "internalType": "bool",
          "name": "",
          "type": "bool"
        }
      ],
      "stateMutability": "view",
      "type": "function"
    },
    {
      "inputs": [
        {
          "internalType": "address",
          "name": "_studentAddress",
          "type": "address"
        },
        {
          "internalType": "address",
          "name": "_contractAddress",
          "type": "address"
        }
      ],
      "name": "submitAssignment",
      "outputs": [],
      "stateMutability": "nonpayable",
      "type": "function"
    },
    {
      "inputs": [
        {
          "internalType": "address",
          "name": "_studentAddress",
          "type": "address"
        },
        {
          "internalType": "address",
          "name": "_contractAddress",
          "type": "address"
        }
      ],
      "name": "validateTestAssignment",
      "outputs": [
        {
          "internalType": "uint256",
          "name": "",
          "type": "uint256"
        }
      ],
      "stateMutability": "nonpayable",
      "type": "function"
    }
  ],
  "bytecode": "0x60806040523480156200001157600080fd5b5062000023336200004260201b60201c565b62000034336200004260201b60201c565b600060018190555062000232565b600015156200005782620000c660201b60201c565b151503620000c3576000819080600181540180825580915050600190039060005260206000200160009091909190916101000a81548173ffffffffffffffffffffffffffffffffffffffff021916908373ffffffffffffffffffffffffffffffffffffffff1602179055505b50565b600080600090505b60008054905081101562000172578273ffffffffffffffffffffffffffffffffffffffff16600082815481106200010a57620001096200017d565b5b9060005260206000200160009054906101000a900473ffffffffffffffffffffffffffffffffffffffff1673ffffffffffffffffffffffffffffffffffffffff16036200015c57600191505062000178565b80806200016990620001e5565b915050620000ce565b60009150505b919050565b7f4e487b7100000000000000000000000000000000000000000000000000000000600052603260045260246000fd5b7f4e487b7100000000000000000000000000000000000000000000000000000000600052601160045260246000fd5b6000819050919050565b6000620001f282620001db565b91507fffffffffffffffffffffffffffffffffffffffffffffffffffffffffffffffff8203620002275762000226620001ac565b5b600182019050919050565b611cf180620002426000396000f3fe608060405234801561001057600080fd5b50600436106100ea5760003560e01c80635c8b13db1161008c578063ab6f490f11610066578063ab6f490f14610281578063be1c766b1461029f578063e0a4bf9c146102bd578063f26a21b1146102ed576100ea565b80635c8b13db146102195780637048027514610249578063a10311ba14610265576100ea565b806331ae450b116100c857806331ae450b1461016b5780633e45b826146101895780634eed8c5d146101b95780635577210a146101e9576100ea565b80631785f53c146100ef57806324d7806c1461010b5780632b8c92721461013b575b600080fd5b61010960048036038101906101049190611074565b610309565b005b61012560048036038101906101209190611074565b6103e3565b60405161013291906110bc565b60405180910390f35b610155600480360381019061015091906110d7565b610491565b6040516101629190611130565b60405180910390f35b61017361055f565b6040516101809190611209565b60405180910390f35b6101a3600480360381019061019e9190611257565b6105ed565b6040516101b09190611422565b60405180910390f35b6101d360048036038101906101ce9190611444565b61070f565b6040516101e091906114c1565b60405180910390f35b61020360048036038101906101fe9190611074565b61080d565b60405161021091906110bc565b60405180910390f35b610233600480360381019061022e91906110d7565b6108f0565b6040516102409190611130565b60405180910390f35b610263600480360381019061025e9190611074565b610bc3565b005b61027f600480360381019061027a9190611644565b610c3e565b005b610289610cf0565b6040516102969190611130565b60405180910390f35b6102a7610cfa565b6040516102b49190611130565b60405180910390f35b6102d760048036038101906102d291906110d7565b610d06565b6040516102e491906110bc565b60405180910390f35b610307600480360381019061030291906110d7565b610dc3565b005b60005b6000805490508110156103df578173ffffffffffffffffffffffffffffffffffffffff1660008281548110610344576103436116b3565b5b9060005260206000200160009054906101000a900473ffffffffffffffffffffffffffffffffffffffff1673ffffffffffffffffffffffffffffffffffffffff16036103cc576000818154811061039e5761039d6116b3565b5b9060005260206000200160006101000a81549073ffffffffffffffffffffffffffffffffffffffff02191690555b80806103d790611711565b91505061030c565b5050565b600080600090505b600080549050811015610486578273ffffffffffffffffffffffffffffffffffffffff1660008281548110610423576104226116b3565b5b9060005260206000200160009054906101000a900473ffffffffffffffffffffffffffffffffffffffff1673ffffffffffffffffffffffffffffffffffffffff160361047357600191505061048c565b808061047e90611711565b9150506103eb565b60009150505b919050565b600080600180546104a29190611759565b9050836002600083815260200190815260200160002060000160006101000a81548173ffffffffffffffffffffffffffffffffffffffff021916908373ffffffffffffffffffffffffffffffffffffffff160217905550826002600083815260200190815260200160002060010160006101000a81548173ffffffffffffffffffffffffffffffffffffffff021916908373ffffffffffffffffffffffffffffffffffffffff160217905550806001819055508091505092915050565b606060008054806020026020016040519081016040528092919081815260200182805480156105e357602002820191906000526020600020905b8160009054906101000a900473ffffffffffffffffffffffffffffffffffffffff1673ffffffffffffffffffffffffffffffffffffffff1681526020019060010190808311610599575b5050505050905090565b606060026000838152602001908152602001600020600201805480602002602001604051908101604052809291908181526020016000905b828210156107045783829060005260206000209060020201604051806040016040529081600082018054610658906117bc565b80601f0160208091040260200160405190810160405280929190818152602001828054610684906117bc565b80156106d15780601f106106a6576101008083540402835291602001916106d1565b820191906000526020600020905b8154815290600101906020018083116106b457829003601f168201915b505050505081526020016001820160009054906101000a900460ff16151515158152505081526020019060010190610625565b505050509050919050565b610717610fe6565b60026000848152602001908152602001600020600201828154811061073f5761073e6116b3565b5b9060005260206000209060020201604051806040016040529081600082018054610768906117bc565b80601f0160208091040260200160405190810160405280929190818152602001828054610794906117bc565b80156107e15780601f106107b6576101008083540402835291602001916107e1565b820191906000526020600020905b8154815290600101906020018083116107c457829003601f168201915b505050505081526020016001820160009054906101000a900460ff161515151581525050905092915050565b600080600090505b6000805490508110156108b0578273ffffffffffffffffffffffffffffffffffffffff166000828154811061084d5761084c6116b3565b5b9060005260206000200160009054906101000a900473ffffffffffffffffffffffffffffffffffffffff1673ffffffffffffffffffffffffffffffffffffffff160361089d5760019150506108eb565b80806108a890611711565b915050610815565b6040517f08c379a00000000000000000000000000000000000000000000000000000000081526004016108e290611896565b60405180910390fd5b919050565b6000806108fd8484610491565b9050600083905061094d826040518060400160405280601c81526020017f497320636f6e74726163742066726f6d207468652073747564656e74000000008152506109488888610d06565b610c3e565b6107ce8173ffffffffffffffffffffffffffffffffffffffff1663a420e5d26040518163ffffffff1660e01b8152600401602060405180830381865afa15801561099b573d6000803e3d6000fd5b505050506040513d601f19601f820116820180604052508101906109bf91906118ec565b03610a0a57610a05826040518060400160405280601d81526020017f746573742069662064656661756c742076616c756520697320313939380000008152506001610c3e565b610a4c565b610a4b826040518060400160405280601d81526020017f746573742069662064656661756c742076616c756520697320313939380000008152506000610c3e565b5b8073ffffffffffffffffffffffffffffffffffffffff16636c2e929c6107e66040518263ffffffff1660e01b8152600401610a879190611928565b600060405180830381600087803b158015610aa157600080fd5b505af1158015610ab5573d6000803e3d6000fd5b505050506107e68173ffffffffffffffffffffffffffffffffffffffff1663a420e5d26040518163ffffffff1660e01b8152600401602060405180830381865afa158015610b07573d6000803e3d6000fd5b505050506040513d601f19601f82011682018060405250810190610b2b91906118ec565b03610b7657610b71826040518060400160405280601a81526020017f74657374206966207365745465737456616c756520776f726b730000000000008152506001610c3e565b610bb8565b610bb7826040518060400160405280601a81526020017f74657374206966207365745465737456616c756520776f726b730000000000008152506000610c3e565b5b819250505092915050565b60001515610bd0826103e3565b151503610c3b576000819080600181540180825580915050600190039060005260206000200160009091909190916101000a81548173ffffffffffffffffffffffffffffffffffffffff021916908373ffffffffffffffffffffffffffffffffffffffff1602179055505b50565b60006040518060400160405280848152602001831515815250905082816000018190525081816020019015159081151581525050600260008581526020019081526020016000206002018190806001815401808255809150506001900390600052602060002090600202016000909190919091506000820151816000019081610cc79190611aef565b5060208201518160010160006101000a81548160ff021916908315150217905550505050505050565b6000600154905090565b60008080549050905090565b6000808290508373ffffffffffffffffffffffffffffffffffffffff168173ffffffffffffffffffffffffffffffffffffffff16638da5cb5b6040518163ffffffff1660e01b8152600401602060405180830381865afa158015610d6e573d6000803e3d6000fd5b505050506040513d601f19601f82011682018060405250810190610d929190611bd6565b73ffffffffffffffffffffffffffffffffffffffff1603610db7576001915050610dbd565b60009150505b92915050565b60011515600360008473ffffffffffffffffffffffffffffffffffffffff1673ffffffffffffffffffffffffffffffffffffffff16815260200190815260200160002060009054906101000a900460ff16151503610e56576040517f08c379a0000000000000000000000000000000000000000000000000000000008152600401610e4d90611c9b565b60405180910390fd5b6000610e6283836108f0565b90506000808060026000858152602001908152602001600020600201805480602002602001604051908101604052809291908181526020016000905b82821015610f7d5783829060005260206000209060020201604051806040016040529081600082018054610ed1906117bc565b80601f0160208091040260200160405190810160405280929190818152602001828054610efd906117bc565b8015610f4a5780601f10610f1f57610100808354040283529160200191610f4a565b820191906000526020600020905b815481529060010190602001808311610f2d57829003601f168201915b505050505081526020016001820160009054906101000a900460ff16151515158152505081526020019060010190610e9e565b505050509050600091505b8051821015610fde5760011515818381518110610fa857610fa76116b3565b5b602002602001015160200151151503610fcb57600183610fc89190611759565b92505b8180610fd690611711565b925050610f88565b505050505050565b6040518060400160405280606081526020016000151581525090565b6000604051905090565b600080fd5b600080fd5b600073ffffffffffffffffffffffffffffffffffffffff82169050919050565b600061104182611016565b9050919050565b61105181611036565b811461105c57600080fd5b50565b60008135905061106e81611048565b92915050565b60006020828403121561108a5761108961100c565b5b60006110988482850161105f565b91505092915050565b60008115159050919050565b6110b6816110a1565b82525050565b60006020820190506110d160008301846110ad565b92915050565b600080604083850312156110ee576110ed61100c565b5b60006110fc8582860161105f565b925050602061110d8582860161105f565b9150509250929050565b6000819050919050565b61112a81611117565b82525050565b60006020820190506111456000830184611121565b92915050565b600081519050919050565b600082825260208201905092915050565b6000819050602082019050919050565b61118081611036565b82525050565b60006111928383611177565b60208301905092915050565b6000602082019050919050565b60006111b68261114b565b6111c08185611156565b93506111cb83611167565b8060005b838110156111fc5781516111e38882611186565b97506111ee8361119e565b9250506001810190506111cf565b5085935050505092915050565b6000602082019050818103600083015261122381846111ab565b905092915050565b61123481611117565b811461123f57600080fd5b50565b6000813590506112518161122b565b92915050565b60006020828403121561126d5761126c61100c565b5b600061127b84828501611242565b91505092915050565b600081519050919050565b600082825260208201905092915050565b6000819050602082019050919050565b600081519050919050565b600082825260208201905092915050565b60005b838110156112ea5780820151818401526020810190506112cf565b60008484015250505050565b6000601f19601f8301169050919050565b6000611312826112b0565b61131c81856112bb565b935061132c8185602086016112cc565b611335816112f6565b840191505092915050565b611349816110a1565b82525050565b6000604083016000830151848203600086015261136c8282611307565b91505060208301516113816020860182611340565b508091505092915050565b6000611398838361134f565b905092915050565b6000602082019050919050565b60006113b882611284565b6113c2818561128f565b9350836020820285016113d4856112a0565b8060005b8581101561141057848403895281516113f1858261138c565b94506113fc836113a0565b925060208a019950506001810190506113d8565b50829750879550505050505092915050565b6000602082019050818103600083015261143c81846113ad565b905092915050565b6000806040838503121561145b5761145a61100c565b5b600061146985828601611242565b925050602061147a85828601611242565b9150509250929050565b600060408301600083015184820360008601526114a18282611307565b91505060208301516114b66020860182611340565b508091505092915050565b600060208201905081810360008301526114db8184611484565b905092915050565b600080fd5b600080fd5b7f4e487b7100000000000000000000000000000000000000000000000000000000600052604160045260246000fd5b611525826112f6565b810181811067ffffffffffffffff82111715611544576115436114ed565b5b80604052505050565b6000611557611002565b9050611563828261151c565b919050565b600067ffffffffffffffff821115611583576115826114ed565b5b61158c826112f6565b9050602081019050919050565b82818337600083830152505050565b60006115bb6115b684611568565b61154d565b9050828152602081018484840111156115d7576115d66114e8565b5b6115e2848285611599565b509392505050565b600082601f8301126115ff576115fe6114e3565b5b813561160f8482602086016115a8565b91505092915050565b611621816110a1565b811461162c57600080fd5b50565b60008135905061163e81611618565b92915050565b60008060006060848603121561165d5761165c61100c565b5b600061166b86828701611242565b935050602084013567ffffffffffffffff81111561168c5761168b611011565b5b611698868287016115ea565b92505060406116a98682870161162f565b9150509250925092565b7f4e487b7100000000000000000000000000000000000000000000000000000000600052603260045260246000fd5b7f4e487b7100000000000000000000000000000000000000000000000000000000600052601160045260246000fd5b600061171c82611117565b91507fffffffffffffffffffffffffffffffffffffffffffffffffffffffffffffffff820361174e5761174d6116e2565b5b600182019050919050565b600061176482611117565b915061176f83611117565b9250828201905080821115611787576117866116e2565b5b92915050565b7f4e487b7100000000000000000000000000000000000000000000000000000000600052602260045260246000fd5b600060028204905060018216806117d457607f821691505b6020821081036117e7576117e661178d565b5b50919050565b600082825260208201905092915050565b7f416464726573732074686174206465706c6f7973207468697320736d6172742060008201527f636f6e7472616374206973206e6f742074686520636f696e626173652061646460208201527f7265737321000000000000000000000000000000000000000000000000000000604082015250565b60006118806045836117ed565b915061188b826117fe565b606082019050919050565b600060208201905081810360008301526118af81611873565b9050919050565b6000819050919050565b6118c9816118b6565b81146118d457600080fd5b50565b6000815190506118e6816118c0565b92915050565b6000602082840312156119025761190161100c565b5b6000611910848285016118d7565b91505092915050565b611922816118b6565b82525050565b600060208201905061193d6000830184611919565b92915050565b60008190508160005260206000209050919050565b60006020601f8301049050919050565b600082821b905092915050565b6000600883026119a57fffffffffffffffffffffffffffffffffffffffffffffffffffffffffffffffff82611968565b6119af8683611968565b95508019841693508086168417925050509392505050565b6000819050919050565b60006119ec6119e76119e284611117565b6119c7565b611117565b9050919050565b6000819050919050565b611a06836119d1565b611a1a611a12826119f3565b848454611975565b825550505050565b600090565b611a2f611a22565b611a3a8184846119fd565b505050565b5b81811015611a5e57611a53600082611a27565b600181019050611a40565b5050565b601f821115611aa357611a7481611943565b611a7d84611958565b81016020851015611a8c578190505b611aa0611a9885611958565b830182611a3f565b50505b505050565b600082821c905092915050565b6000611ac660001984600802611aa8565b1980831691505092915050565b6000611adf8383611ab5565b9150826002028217905092915050565b611af8826112b0565b67ffffffffffffffff811115611b1157611b106114ed565b5b611b1b82546117bc565b611b26828285611a62565b600060209050601f831160018114611b595760008415611b47578287015190505b611b518582611ad3565b865550611bb9565b601f198416611b6786611943565b60005b82811015611b8f57848901518255600182019150602085019450602081019050611b6a565b86831015611bac5784890151611ba8601f891682611ab5565b8355505b6001600288020188555050505b505050505050565b600081519050611bd081611048565b92915050565b600060208284031215611bec57611beb61100c565b5b6000611bfa84828501611bc1565b91505092915050565b7f41737369676e6d656e7420616c7265616479207375626d69747465642120436160008201527f6e6e6f74207375626d6974207468652061737369676e6d656e7420616761696e60208201527f2100000000000000000000000000000000000000000000000000000000000000604082015250565b6000611c856041836117ed565b9150611c9082611c03565b606082019050919050565b60006020820190508181036000830152611cb481611c78565b905091905056fea2646970667358221220a2ac4a741571a3630a0788d0f1871703d174b8c49e705efeb8092e6cb624c56064736f6c63430008110033",
  "immutableReferences": {},
  "source": "// SPDX-License-Identifier: MIT\r\npragma solidity ^0.8.17;\r\n\r\n/**\r\n *  Import a sceleton version of the contract the students need to submit\r\n *  The imported base assignment needs to own the functions which are\r\n *  called by the validator\r\n */\r\nimport \"../contracts/TestAssignmentInterface.sol\";\r\n\r\n// Import the base assignment validator contract\r\nimport \"../contracts/BaseAssignmentValidator.sol\";\r\n\r\n// Give the contract a name and inherit from the base assignment validator\r\ncontract TestAssignmentValidator is BaseAssignmentValidator {\r\n    /**\r\n     * The validateTestAssignment function is inherited from the base assignment validator\r\n     * and needs to be implemented in the child contract.\r\n     *\r\n     * In this function all the necessary tests are executed and the results are returned\r\n     *\r\n     * MARK THE override KEYWORD\r\n     */\r\n    function validateTestAssignment(\r\n        address _studentAddress,\r\n        address _contractAddress\r\n    ) public override(BaseAssignmentValidator) returns (uint256) {\r\n        /**\r\n         *  Create a new history entry in the smart contract\r\n         *\r\n         *  The history entry is used to store the results of the tests.\r\n         *  Always use this index in the further functions.\r\n         */\r\n        uint256 historyIndex = createTestHistory(\r\n            _studentAddress,\r\n            _contractAddress\r\n        );\r\n\r\n        // Call the contract which needs to be tested and store it in the variable assignment_contract\r\n        TestAssignmentInterface assignment_contract = TestAssignmentInterface(\r\n            _contractAddress\r\n        );\r\n\r\n        /*\r\n         *  The following tests are just examples and can be replaced with your own tests\r\n         *\r\n         *  Every test is structured as follows:\r\n         *    ```\r\n         *    appendTestResult(\r\n         *         historyIndex,\r\n         *         \"Is contract from the student\",\r\n         *         checkAssignmentOwner(_studentAddress, _contractAddress)\r\n         *    );\r\n         *    ```\r\n         *    - The first parameter is the history index\r\n         *    - The second parameter is the name of the test\r\n         *    - The third parameter is the result of the test\r\n         */\r\n\r\n        // \"Is contract from the student\"\r\n        appendTestResult(\r\n            historyIndex,\r\n            \"Is contract from the student\",\r\n            checkAssignmentOwner(_studentAddress, _contractAddress)\r\n        );\r\n\r\n        // Test 1 - test if default value is 1998\r\n        if (int256(assignment_contract.getTestValue()) == int256(1998)) {\r\n            appendTestResult(\r\n                historyIndex,\r\n                \"test if default value is 1998\",\r\n                true\r\n            );\r\n        } else {\r\n            appendTestResult(\r\n                historyIndex,\r\n                \"test if default value is 1998\",\r\n                false\r\n            );\r\n        }\r\n\r\n        // Test 2 - test if setTestValue works\r\n        assignment_contract.setTestValue(int256(2022));\r\n\r\n        if (int256(assignment_contract.getTestValue()) == int256(2022)) {\r\n            appendTestResult(historyIndex, \"test if setTestValue works\", true);\r\n        } else {\r\n            appendTestResult(historyIndex, \"test if setTestValue works\", false);\r\n        }\r\n\r\n        // Return the history index\r\n        return historyIndex;\r\n    }\r\n}\r\n",
  "sourcePath": "C:\\Users\\stefa\\www\\mtp-blockchain\\smart-contracts\\contracts\\TestAssignmentValidator.sol",
  "compiler": {
    "name": "solc",
    "version": "0.8.17+commit.8df45f5f.Emscripten.clang"
  },
  "schemaVersion": "3.4.11",
  "updatedAt": "2023-01-04T11:05:09.581Z",
  "devdoc": {
    "kind": "dev",
    "methods": {},
    "version": 1
  },
  "userdoc": {
    "kind": "user",
    "methods": {
      "validateTestAssignment(address,address)": {
        "notice": "The validateTestAssignment function is inherited from the base assignment validator and needs to be implemented in the child contract. In this function all the necessary tests are executed and the results are returned MARK THE override KEYWORD"
      }
    },
    "version": 1
  }
}