{
  "contractName": "TestAssignmentValidator",
  "abi": [
    {
      "inputs": [
        {
          "internalType": "address",
          "name": "_student_address",
          "type": "address"
        },
        {
          "internalType": "address",
          "name": "_contract_address",
          "type": "address"
        }
      ],
      "name": "validateTestAssignment",
      "outputs": [
        {
          "internalType": "bool[]",
          "name": "",
          "type": "bool[]"
        }
      ],
      "stateMutability": "nonpayable",
      "type": "function"
    },
    {
      "inputs": [
        {
          "internalType": "address",
          "name": "_student_address",
          "type": "address"
        },
        {
          "internalType": "address",
          "name": "_contract_address",
          "type": "address"
        }
      ],
      "name": "validateOwner",
      "outputs": [
        {
          "internalType": "bool",
          "name": "",
          "type": "bool"
        }
      ],
      "stateMutability": "view",
      "type": "function",
      "constant": true
    }
  ],
  "bytecode": "0x608060405234801561001057600080fd5b5061070b806100206000396000f3fe608060405234801561001057600080fd5b50600436106100365760003560e01c80635c8b13db1461003b578063d444329f1461006b575b600080fd5b61005560048036038101906100509190610452565b61009b565b604051610062919061055c565b60405180910390f35b61008560048036038101906100809190610452565b610332565b604051610092919061058d565b60405180910390f35b606060008290506000600367ffffffffffffffff8111156100bf576100be6105a8565b5b6040519080825280602002602001820160405280156100ed5781602001602082028036833780820191505090505b5090506100fa8585610332565b8160008151811061010e5761010d6105d7565b5b6020026020010190151590811515815250506107ce8273ffffffffffffffffffffffffffffffffffffffff1663a420e5d26040518163ffffffff1660e01b8152600401602060405180830381865afa15801561016e573d6000803e3d6000fd5b505050506040513d601f19601f82011682018060405250810190610192919061063c565b036101c4576001816001815181106101ad576101ac6105d7565b5b6020026020010190151590811515815250506101ed565b6000816001815181106101da576101d96105d7565b5b6020026020010190151590811515815250505b8173ffffffffffffffffffffffffffffffffffffffff16636c2e929c6107e66040518263ffffffff1660e01b81526004016102289190610678565b600060405180830381600087803b15801561024257600080fd5b505af1158015610256573d6000803e3d6000fd5b505050506107e68273ffffffffffffffffffffffffffffffffffffffff1663a420e5d26040518163ffffffff1660e01b8152600401602060405180830381865afa1580156102a8573d6000803e3d6000fd5b505050506040513d601f19601f820116820180604052508101906102cc919061063c565b036102fe576001816002815181106102e7576102e66105d7565b5b602002602001019015159081151581525050610327565b600081600281518110610314576103136105d7565b5b6020026020010190151590811515815250505b809250505092915050565b6000808290508373ffffffffffffffffffffffffffffffffffffffff168173ffffffffffffffffffffffffffffffffffffffff16638da5cb5b6040518163ffffffff1660e01b8152600401602060405180830381865afa15801561039a573d6000803e3d6000fd5b505050506040513d601f19601f820116820180604052508101906103be91906106a8565b73ffffffffffffffffffffffffffffffffffffffff16036103e35760019150506103e9565b60009150505b92915050565b600080fd5b600073ffffffffffffffffffffffffffffffffffffffff82169050919050565b600061041f826103f4565b9050919050565b61042f81610414565b811461043a57600080fd5b50565b60008135905061044c81610426565b92915050565b60008060408385031215610469576104686103ef565b5b60006104778582860161043d565b92505060206104888582860161043d565b9150509250929050565b600081519050919050565b600082825260208201905092915050565b6000819050602082019050919050565b60008115159050919050565b6104d3816104be565b82525050565b60006104e583836104ca565b60208301905092915050565b6000602082019050919050565b600061050982610492565b610513818561049d565b935061051e836104ae565b8060005b8381101561054f57815161053688826104d9565b9750610541836104f1565b925050600181019050610522565b5085935050505092915050565b6000602082019050818103600083015261057681846104fe565b905092915050565b610587816104be565b82525050565b60006020820190506105a2600083018461057e565b92915050565b7f4e487b7100000000000000000000000000000000000000000000000000000000600052604160045260246000fd5b7f4e487b7100000000000000000000000000000000000000000000000000000000600052603260045260246000fd5b6000819050919050565b61061981610606565b811461062457600080fd5b50565b60008151905061063681610610565b92915050565b600060208284031215610652576106516103ef565b5b600061066084828501610627565b91505092915050565b61067281610606565b82525050565b600060208201905061068d6000830184610669565b92915050565b6000815190506106a281610426565b92915050565b6000602082840312156106be576106bd6103ef565b5b60006106cc84828501610693565b9150509291505056fea2646970667358221220e4a8c9d0127e2c41495d010d64e561df87f06373e8634bd18edfaa9bb709cdee64736f6c63430008110033",
  "immutableReferences": {},
  "source": "// SPDX-License-Identifier: MIT\r\npragma solidity ^0.8.17;\r\n\r\nimport \"../contracts/TestAssignment.sol\";\r\n\r\n/**\r\n * Example assignment validator for testing\r\n */\r\ncontract TestAssignmentValidator {\r\n    function validateTestAssignment(\r\n        address _student_address,\r\n        address _contract_address\r\n    ) public returns (bool[] memory) {\r\n        TestAssignment assignment_contract = TestAssignment(_contract_address);\r\n\r\n        bool[] memory tests = new bool[](3);\r\n\r\n        // Validate Owner\r\n        tests[0] = validateOwner(_student_address, _contract_address);\r\n\r\n        // Test 1 - test if default value is 1998\r\n        if (int256(assignment_contract.getTestValue()) == int256(1998)) {\r\n            tests[1] = true;\r\n        } else {\r\n            tests[1] = false;\r\n        }\r\n\r\n        // Test 2 - test if setTestValue works\r\n        assignment_contract.setTestValue(int256(2022));\r\n\r\n        if (int256(assignment_contract.getTestValue()) == int256(2022)) {\r\n            tests[2] = true;\r\n        } else {\r\n            tests[2] = false;\r\n        }\r\n\r\n        return tests;\r\n    }\r\n\r\n    function validateOwner(address _student_address, address _contract_address)\r\n        public\r\n        view\r\n        returns (bool)\r\n    {\r\n        TestAssignment assignment_contract = TestAssignment(_contract_address);\r\n\r\n        if (assignment_contract.owner() == _student_address) {\r\n            return true;\r\n        } else {\r\n            return false;\r\n        }\r\n    }\r\n}\r\n",
  "sourcePath": "C:\\Users\\Equus\\Documents\\UniProjekte\\mtp-blockchain\\smart-contracts\\contracts\\TestAssignmentValidator.sol",
  "compiler": {
    "name": "solc",
    "version": "0.8.17+commit.8df45f5f.Emscripten.clang"
  },
  "schemaVersion": "3.4.10",
  "updatedAt": "2022-11-15T13:43:17.175Z",
  "networkType": "ethereum",
  "devdoc": {
    "kind": "dev",
    "methods": {},
    "version": 1
  },
  "userdoc": {
    "kind": "user",
    "methods": {},
    "notice": "Example assignment validator for testing",
    "version": 1
  }
}