{
  "contractName": "TestAssignment",
  "abi": [
    {
      "inputs": [],
      "stateMutability": "nonpayable",
      "type": "constructor"
    },
    {
      "inputs": [],
      "name": "owner",
      "outputs": [
        {
          "internalType": "address",
          "name": "",
          "type": "address"
        }
      ],
      "stateMutability": "view",
      "type": "function"
    },
    {
      "inputs": [
        {
          "internalType": "int256",
          "name": "_value",
          "type": "int256"
        }
      ],
      "name": "setTestValue",
      "outputs": [],
      "stateMutability": "nonpayable",
      "type": "function"
    },
    {
      "inputs": [],
      "name": "getTestValue",
      "outputs": [
        {
          "internalType": "int256",
          "name": "",
          "type": "int256"
        }
      ],
      "stateMutability": "view",
      "type": "function"
    }
  ],
  "bytecode": "0x608060405234801561001057600080fd5b50336000806101000a81548173ffffffffffffffffffffffffffffffffffffffff021916908373ffffffffffffffffffffffffffffffffffffffff1602179055506107ce6001819055506101fa806100696000396000f3fe608060405234801561001057600080fd5b50600436106100415760003560e01c80636c2e929c146100465780638da5cb5b14610062578063a420e5d214610080575b600080fd5b610060600480360381019061005b9190610111565b61009e565b005b61006a6100a8565b604051610077919061017f565b60405180910390f35b6100886100cc565b60405161009591906101a9565b60405180910390f35b8060018190555050565b60008054906101000a900473ffffffffffffffffffffffffffffffffffffffff1681565b6000600154905090565b600080fd5b6000819050919050565b6100ee816100db565b81146100f957600080fd5b50565b60008135905061010b816100e5565b92915050565b600060208284031215610127576101266100d6565b5b6000610135848285016100fc565b91505092915050565b600073ffffffffffffffffffffffffffffffffffffffff82169050919050565b60006101698261013e565b9050919050565b6101798161015e565b82525050565b60006020820190506101946000830184610170565b92915050565b6101a3816100db565b82525050565b60006020820190506101be600083018461019a565b9291505056fea2646970667358221220fc51a268e31808ca33897265f2e3755aef9f2d9f3a3b4c2cb26e157094991bee64736f6c63430008110033",
  "immutableReferences": {},
  "source": "// SPDX-License-Identifier: MIT\r\npragma solidity ^0.8.17;\r\n\r\n/**\r\n * Example assignment for testing\r\n */\r\n\r\nimport \"../contracts/TestAssignmentInterface.sol\";\r\n\r\ncontract TestAssignment is TestAssignmentInterface {\r\n    int256 testValue;\r\n\r\n    constructor() {\r\n        testValue = 1998;\r\n    }\r\n\r\n    function setTestValue(int256 _value) public override {\r\n        testValue = _value;\r\n    }\r\n\r\n    function getTestValue() public view override returns (int256) {\r\n        return testValue;\r\n    }\r\n}\r\n",
  "sourcePath": "C:\\Users\\stefa\\www\\mtp-blockchain\\smart-contracts\\contracts\\TestAssignment.sol",
  "compiler": {
    "name": "solc",
    "version": "0.8.17+commit.8df45f5f.Emscripten.clang"
  },
  "schemaVersion": "3.4.11",
  "updatedAt": "2023-01-04T11:05:09.573Z",
  "devdoc": {
    "kind": "dev",
    "methods": {},
    "version": 1
  },
  "userdoc": {
    "kind": "user",
    "methods": {},
    "version": 1
  }
}