{
  "contractName": "TestAssignmentInterface",
  "abi": [
    {
      "inputs": [],
      "name": "owner",
      "outputs": [
        {
          "internalType": "address",
          "name": "",
          "type": "address"
        }
      ],
      "stateMutability": "view",
      "type": "function"
    },
    {
      "inputs": [
        {
          "internalType": "int256",
          "name": "_value",
          "type": "int256"
        }
      ],
      "name": "setTestValue",
      "outputs": [],
      "stateMutability": "nonpayable",
      "type": "function"
    },
    {
      "inputs": [],
      "name": "getTestValue",
      "outputs": [
        {
          "internalType": "int256",
          "name": "",
          "type": "int256"
        }
      ],
      "stateMutability": "view",
      "type": "function"
    }
  ],
  "bytecode": "0x608060405234801561001057600080fd5b50336000806101000a81548173ffffffffffffffffffffffffffffffffffffffff021916908373ffffffffffffffffffffffffffffffffffffffff1602179055506101ee806100606000396000f3fe608060405234801561001057600080fd5b50600436106100415760003560e01c80636c2e929c146100465780638da5cb5b14610062578063a420e5d214610080575b600080fd5b610060600480360381019061005b9190610105565b61009e565b005b61006a6100a1565b6040516100779190610173565b60405180910390f35b6100886100c5565b604051610095919061019d565b60405180910390f35b50565b60008054906101000a900473ffffffffffffffffffffffffffffffffffffffff1681565b600090565b600080fd5b6000819050919050565b6100e2816100cf565b81146100ed57600080fd5b50565b6000813590506100ff816100d9565b92915050565b60006020828403121561011b5761011a6100ca565b5b6000610129848285016100f0565b91505092915050565b600073ffffffffffffffffffffffffffffffffffffffff82169050919050565b600061015d82610132565b9050919050565b61016d81610152565b82525050565b60006020820190506101886000830184610164565b92915050565b610197816100cf565b82525050565b60006020820190506101b2600083018461018e565b9291505056fea2646970667358221220232561cf2a032025189c3d63fa483587fb78b6d51b4b11ed9bcef297f139b90f64736f6c63430008110033",
  "immutableReferences": {},
  "source": "// SPDX-License-Identifier: MIT\r\npragma solidity ^0.8.17;\r\n\r\n/**\r\n * Example assignment interface for testing\r\n */\r\n\r\nimport \"../contracts/BaseAssignment.sol\";\r\n\r\ncontract TestAssignmentInterface is BaseAssignment {\r\n    function setTestValue(int256 _value) public virtual {}\r\n\r\n    function getTestValue() public view virtual returns (int256) {}\r\n}\r\n",
  "sourcePath": "C:\\Users\\stefa\\www\\mtp-blockchain\\smart-contracts\\contracts\\TestAssignmentInterface.sol",
  "compiler": {
    "name": "solc",
    "version": "0.8.17+commit.8df45f5f.Emscripten.clang"
  },
  "schemaVersion": "3.4.11",
  "updatedAt": "2023-01-04T11:05:09.574Z",
  "devdoc": {
    "kind": "dev",
    "methods": {},
    "version": 1
  },
  "userdoc": {
    "kind": "user",
    "methods": {},
    "version": 1
  }
}