{
  "contractName": "Validator3TaskA",
  "abi": [
    {
      "inputs": [
        {
          "internalType": "address",
          "name": "_configContractAddress",
          "type": "address"
        }
      ],
      "stateMutability": "nonpayable",
      "type": "constructor"
    },
    {
      "inputs": [
        {
          "internalType": "string",
          "name": "_prefix",
          "type": "string"
        },
        {
          "internalType": "string",
          "name": "_message",
          "type": "string"
        },
        {
          "internalType": "string",
          "name": "_errorMsg",
          "type": "string"
        }
      ],
      "name": "buildErrorMessage",
      "outputs": [
        {
          "internalType": "string",
          "name": "",
          "type": "string"
        }
      ],
      "stateMutability": "pure",
      "type": "function"
    },
    {
      "inputs": [
        {
          "internalType": "string",
          "name": "_prefix",
          "type": "string"
        },
        {
          "internalType": "string",
          "name": "_message",
          "type": "string"
        },
        {
          "internalType": "string",
          "name": "_expected",
          "type": "string"
        },
        {
          "internalType": "string",
          "name": "_actual",
          "type": "string"
        }
      ],
      "name": "buildErrorMessageExtended",
      "outputs": [
        {
          "internalType": "string",
          "name": "",
          "type": "string"
        }
      ],
      "stateMutability": "pure",
      "type": "function"
    },
    {
      "inputs": [
        {
          "internalType": "string",
          "name": "a",
          "type": "string"
        },
        {
          "internalType": "string",
          "name": "b",
          "type": "string"
        }
      ],
      "name": "compareStrings",
      "outputs": [
        {
          "internalType": "bool",
          "name": "",
          "type": "bool"
        }
      ],
      "stateMutability": "pure",
      "type": "function"
    },
    {
      "inputs": [],
      "name": "getConfigStorage",
      "outputs": [
        {
          "internalType": "contract ConfigStorage",
          "name": "",
          "type": "address"
        }
      ],
      "stateMutability": "view",
      "type": "function"
    },
    {
      "inputs": [
        {
          "internalType": "address",
          "name": "_configContractAddress",
          "type": "address"
        },
        {
          "internalType": "string",
          "name": "_contractName",
          "type": "string"
        }
      ],
      "name": "initAdmin",
      "outputs": [],
      "stateMutability": "nonpayable",
      "type": "function"
    },
    {
      "inputs": [
        {
          "internalType": "address payable",
          "name": "_to",
          "type": "address"
        },
        {
          "internalType": "uint256",
          "name": "_value",
          "type": "uint256"
        }
      ],
      "name": "withdrawFunds",
      "outputs": [],
      "stateMutability": "payable",
      "type": "function"
    },
    {
      "stateMutability": "payable",
      "type": "receive"
    },
    {
      "inputs": [
        {
          "internalType": "address",
          "name": "_contractAddress",
          "type": "address"
        }
      ],
      "name": "initContract",
      "outputs": [],
      "stateMutability": "nonpayable",
      "type": "function"
    },
    {
      "inputs": [],
      "name": "testExerciseA",
      "outputs": [
        {
          "internalType": "string",
          "name": "",
          "type": "string"
        },
        {
          "internalType": "bool",
          "name": "",
          "type": "bool"
        }
      ],
      "stateMutability": "payable",
      "type": "function"
    },
    {
      "inputs": [],
      "name": "testSuccessRun",
      "outputs": [
        {
          "internalType": "string",
          "name": "",
          "type": "string"
        },
        {
          "internalType": "bool",
          "name": "",
          "type": "bool"
        }
      ],
      "stateMutability": "payable",
      "type": "function"
    },
    {
      "inputs": [],
      "name": "testSignatures",
      "outputs": [
        {
          "internalType": "string",
          "name": "",
          "type": "string"
        },
        {
          "internalType": "bool",
          "name": "",
          "type": "bool"
        }
      ],
      "stateMutability": "payable",
      "type": "function"
    }
  ],
  "bytecode": "0x60806040523480156200001157600080fd5b506040516200309b3803806200309b8339818101604052810190620000379190620001c6565b62000062816040518060600160405280602d81526020016200306e602d91396200006960201b60201c565b50620002d7565b816000806101000a81548173ffffffffffffffffffffffffffffffffffffffff021916908373ffffffffffffffffffffffffffffffffffffffff1602179055506000620000bb6200013360201b60201c565b90508073ffffffffffffffffffffffffffffffffffffffff16637fb99b9330846040518363ffffffff1660e01b8152600401620000fa929190620002a3565b600060405180830381600087803b1580156200011557600080fd5b505af11580156200012a573d6000803e3d6000fd5b50505050505050565b60008060009054906101000a900473ffffffffffffffffffffffffffffffffffffffff16905090565b600080fd5b600073ffffffffffffffffffffffffffffffffffffffff82169050919050565b60006200018e8262000161565b9050919050565b620001a08162000181565b8114620001ac57600080fd5b50565b600081519050620001c08162000195565b92915050565b600060208284031215620001df57620001de6200015c565b5b6000620001ef84828501620001af565b91505092915050565b620002038162000181565b82525050565b600081519050919050565b600082825260208201905092915050565b60005b838110156200024557808201518184015260208101905062000228565b60008484015250505050565b6000601f19601f8301169050919050565b60006200026f8262000209565b6200027b818562000214565b93506200028d81856020860162000225565b620002988162000251565b840191505092915050565b6000604082019050620002ba6000830185620001f8565b8181036020830152620002ce818462000262565b90509392505050565b612d8780620002e76000396000f3fe6080604052600436106100955760003560e01c8063c107532911610059578063c1075329146101a2578063cf9d4afa146101be578063cfacdce8146101e7578063f24bce0814610206578063fae45fbe146102255761009c565b80632b518301146100a1578063516cbbe2146100de5780635827a065146101095780639383f55c14610146578063bed34bba146101655761009c565b3661009c57005b600080fd5b3480156100ad57600080fd5b506100c860048036038101906100c39190611a97565b61024e565b6040516100d59190611bbd565b60405180910390f35b3480156100ea57600080fd5b506100f361027d565b6040516101009190611c5e565b60405180910390f35b34801561011557600080fd5b50610130600480360381019061012b9190611c79565b6102a6565b60405161013d9190611bbd565b60405180910390f35b61014e6102d8565b60405161015c929190611d6b565b60405180910390f35b34801561017157600080fd5b5061018c60048036038101906101879190611d9b565b61124d565b6040516101999190611e13565b60405180910390f35b6101bc60048036038101906101b79190611ea2565b6112a6565b005b3480156101ca57600080fd5b506101e560048036038101906101e09190611f20565b6115f5565b005b6101ef611639565b6040516101fd929190611d6b565b60405180910390f35b61020e6116c9565b60405161021c929190611d6b565b60405180910390f35b34801561023157600080fd5b5061024c60048036038101906102479190611f4d565b61187f565b005b60608383836040516020016102659392919061207d565b60405160208183030381529060405290509392505050565b60008060009054906101000a900473ffffffffffffffffffffffffffffffffffffffff16905090565b6060848484846040516020016102bf949392919061215c565b6040516020818303038152906040529050949350505050565b6060600080600160009054906101000a900473ffffffffffffffffffffffffffffffffffffffff1673ffffffffffffffffffffffffffffffffffffffff1663893d20e86040518163ffffffff1660e01b81526004016020604051808303816000875af115801561034c573d6000803e3d6000fd5b505050506040513d601f19601f8201168201806040525081019061037091906121d0565b90506000309050600160009054906101000a900473ffffffffffffffffffffffffffffffffffffffff1673ffffffffffffffffffffffffffffffffffffffff16638b680cc36040518163ffffffff1660e01b8152600401600060405180830381600087803b1580156103e157600080fd5b505af19250505080156103f2575060015b61048f576103fe61220a565b806308c379a003610483575061041261222c565b8061041d5750610485565b6104756040518060400160405280601281526020017f4572726f72202845786572636973652041290000000000000000000000000000815250604051806060016040528060218152602001612ad2602191398361024e565b600094509450505050611249565b505b3d6000803e3d6000fd5b6000600160009054906101000a900473ffffffffffffffffffffffffffffffffffffffff1673ffffffffffffffffffffffffffffffffffffffff1631905060006103e89050600160009054906101000a900473ffffffffffffffffffffffffffffffffffffffff1673ffffffffffffffffffffffffffffffffffffffff1663e1d1882b8286866040518463ffffffff1660e01b81526004016105329291906122cb565b6000604051808303818588803b15801561054b57600080fd5b505af19350505050801561055d575060015b6105fc5761056961220a565b806308c379a0036105f0575061057d61222c565b8061058857506105f2565b6105e06040518060400160405280601281526020017f4572726f72202845786572636973652041290000000000000000000000000000815250604051806060016040528060228152602001612ab0602291398361024e565b6000965096505050505050611249565b505b3d6000803e3d6000fd5b6000600160009054906101000a900473ffffffffffffffffffffffffffffffffffffffff1673ffffffffffffffffffffffffffffffffffffffff1631905081836106469190612323565b81146106cc576106bc6040518060400160405280601281526020017f4572726f72202845786572636973652041290000000000000000000000000000815250604051806060016040528060228152602001612ab0602291396040518060600160405280602b8152602001612cd6602b913961024e565b6000965096505050505050611249565b600160009054906101000a900473ffffffffffffffffffffffffffffffffffffffff1673ffffffffffffffffffffffffffffffffffffffff1663e1d1882b8387876040518463ffffffff1660e01b815260040161072a9291906122cb565b6000604051808303818588803b15801561074357600080fd5b505af193505050508015610755575060015b156107da576107ca6040518060400160405280601281526020017f4572726f72202845786572636973652041290000000000000000000000000000815250604051806060016040528060228152602001612ab0602291396040518060600160405280602a8152602001612d01602a913961024e565b6000965096505050505050611249565b6000600160009054906101000a900473ffffffffffffffffffffffffffffffffffffffff1673ffffffffffffffffffffffffffffffffffffffff166302a569e660006040518263ffffffff1660e01b81526004016108389190612392565b6000604051808303816000875af1158015610857573d6000803e3d6000fd5b505050506040513d6000823e3d601f19601f82011682018060405250810190610880919061244e565b90506000600160009054906101000a900473ffffffffffffffffffffffffffffffffffffffff1673ffffffffffffffffffffffffffffffffffffffff1663c5bacb9660006040518263ffffffff1660e01b81526004016108e09190612392565b6020604051808303816000875af11580156108ff573d6000803e3d6000fd5b505050506040513d601f19601f8201168201806040525081019061092391906124ac565b9050600081036109af5761099d6040518060400160405280601281526020017f4572726f72202845786572636973652041290000000000000000000000000000815250604051806060016040528060268152602001612c0e60269139604051806080016040528060448152602001612a6c6044913961024e565b60009850985050505050505050611249565b6000825103610a3a57610a286040518060400160405280601281526020017f4572726f72202845786572636973652041290000000000000000000000000000815250604051806060016040528060238152602001612a0860239139604051806080016040528060448152602001612a6c6044913961024e565b60009850985050505050505050611249565b83811115610a6e5760006040518060a00160405280607f8152602001612c57607f9139909850985050505050505050611249565b600160009054906101000a900473ffffffffffffffffffffffffffffffffffffffff1673ffffffffffffffffffffffffffffffffffffffff166339c42fe382846040518363ffffffff1660e01b8152600401610acb92919061253d565b602060405180830381865afa925050508015610b0557506040513d601f19601f82011682018060405250810190610b029190612599565b60015b610ba757610b1161220a565b806308c379a003610b9b5750610b2561222c565b80610b305750610b9d565b610b886040518060400160405280601281526020017f4572726f72202845786572636973652041290000000000000000000000000000815250604051806060016040528060278152602001612d2b602791398361024e565b6000995099505050505050505050611249565b505b3d6000803e3d6000fd5b6000151581151503610c3657610c236040518060400160405280601281526020017f4572726f72202845786572636973652041290000000000000000000000000000815250604051806060016040528060278152602001612d2b60279139604051806080016040528060448152602001612a6c6044913961024e565b6000995099505050505050505050611249565b50600160009054906101000a900473ffffffffffffffffffffffffffffffffffffffff1673ffffffffffffffffffffffffffffffffffffffff166339c42fe36b02f2ffc55ae23537cee00000846040518363ffffffff1660e01b8152600401610ca0929190612601565b602060405180830381865afa925050508015610cda57506040513d601f19601f82011682018060405250810190610cd79190612599565b60015b610d7c57610ce661220a565b806308c379a003610d705750610cfa61222c565b80610d055750610d72565b610d5d6040518060400160405280601281526020017f4572726f72202845786572636973652041290000000000000000000000000000815250604051806060016040528060278152602001612d2b602791398361024e565b6000995099505050505050505050611249565b505b3d6000803e3d6000fd5b6001151581151503610e0b57610df86040518060400160405280601281526020017f4572726f72202845786572636973652041290000000000000000000000000000815250604051806060016040528060278152602001612d2b602791396040518060800160405280605d8152602001612bb1605d913961024e565b6000995099505050505050505050611249565b5060008673ffffffffffffffffffffffffffffffffffffffff16319050600160009054906101000a900473ffffffffffffffffffffffffffffffffffffffff1673ffffffffffffffffffffffffffffffffffffffff16630dd703d983856040518363ffffffff1660e01b8152600401610e8592919061253d565b600060405180830381600087803b158015610e9f57600080fd5b505af1925050508015610eb0575060015b610f5357610ebc61220a565b806308c379a003610f475750610ed061222c565b80610edb5750610f49565b610f336040518060400160405280601281526020017f4572726f72202845786572636973652041290000000000000000000000000000815250604051806060016040528060238152602001612c34602391398361024e565b60009a509a50505050505050505050611249565b505b3d6000803e3d6000fd5b60008773ffffffffffffffffffffffffffffffffffffffff163190508282610f7b9190612323565b811461100557610ff16040518060400160405280601281526020017f4572726f72202845786572636973652041290000000000000000000000000000815250604051806060016040528060238152602001612c3460239139604051806060016040528060218152602001612b1c6021913961024e565b60009a509a50505050505050505050611249565b600160009054906101000a900473ffffffffffffffffffffffffffffffffffffffff1673ffffffffffffffffffffffffffffffffffffffff16630dd703d984866040518363ffffffff1660e01b815260040161106292919061253d565b600060405180830381600087803b15801561107c57600080fd5b505af192505050801561108d575060015b156111335761111f6040518060400160405280601281526020017f4572726f72202845786572636973652041290000000000000000000000000000815250604051806060016040528060238152602001612c34602391396040518060400160405280601a81526020017f4368616e6e656c20697320616c726561647920636c6f7365642e00000000000081525061024e565b60009a509a50505050505050505050611249565b828561113f9190612631565b600160009054906101000a900473ffffffffffffffffffffffffffffffffffffffff1673ffffffffffffffffffffffffffffffffffffffff163114611202576111ee6040518060400160405280601281526020017f4572726f72202845786572636973652041290000000000000000000000000000815250604051806060016040528060238152602001612c3460239139604051806080016040528060418152602001612a2b6041913961024e565b60009a509a50505050505050505050611249565b60016040518060400160405280601d81526020017f457865726369736520413a20416c6c207465737473207061737365642e000000815250909a509a505050505050505050505b9091565b6000816040516020016112609190612665565b60405160208183030381529060405280519060200120836040516020016112879190612665565b6040516020818303038152906040528051906020012014905092915050565b6112ae61027d565b73ffffffffffffffffffffffffffffffffffffffff166324d7806c336040518263ffffffff1660e01b81526004016112e6919061267c565b602060405180830381865afa158015611303573d6000803e3d6000fd5b505050506040513d601f19601f820116820180604052508101906113279190612599565b611366576040517f08c379a000000000000000000000000000000000000000000000000000000000815260040161135d90612709565b60405180910390fd5b600073ffffffffffffffffffffffffffffffffffffffff168273ffffffffffffffffffffffffffffffffffffffff16036113d5576040517f08c379a00000000000000000000000000000000000000000000000000000000081526004016113cc90612775565b60405180910390fd5b3373ffffffffffffffffffffffffffffffffffffffff168273ffffffffffffffffffffffffffffffffffffffff16148061143a57503273ffffffffffffffffffffffffffffffffffffffff168273ffffffffffffffffffffffffffffffffffffffff16145b806114c2575061144861027d565b73ffffffffffffffffffffffffffffffffffffffff166324d7806c836040518263ffffffff1660e01b815260040161148091906127b6565b602060405180830381865afa15801561149d573d6000803e3d6000fd5b505050506040513d601f19601f820116820180604052508101906114c19190612599565b5b611501576040517f08c379a00000000000000000000000000000000000000000000000000000000081526004016114f890612843565b60405180910390fd5b47811015611544576040517f08c379a000000000000000000000000000000000000000000000000000000000815260040161153b906128af565b60405180910390fd5b60008273ffffffffffffffffffffffffffffffffffffffff168260405161156a90612900565b60006040518083038185875af1925050503d80600081146115a7576040519150601f19603f3d011682016040523d82523d6000602084013e6115ac565b606091505b50509050806115f0576040517f08c379a00000000000000000000000000000000000000000000000000000000081526004016115e790612961565b60405180910390fd5b505050565b80600160006101000a81548173ffffffffffffffffffffffffffffffffffffffff021916908373ffffffffffffffffffffffffffffffffffffffff16021790555050565b606060008060006116486102d8565b915091508061165f578160009350935050506116c5565b60008061166a6116c9565b91509150806116835781600095509550505050506116c5565b60016040518060400160405280601d81526020017f457865726369736520413a20416c6c207465737473207061737365642e0000008152509095509550505050505b9091565b6060600080600160009054906101000a900473ffffffffffffffffffffffffffffffffffffffff1673ffffffffffffffffffffffffffffffffffffffff166302a569e660006040518263ffffffff1660e01b815260040161172a9190612392565b6000604051808303816000875af1158015611749573d6000803e3d6000fd5b505050506040513d6000823e3d601f19601f82011682018060405250810190611772919061244e565b90506000600160009054906101000a900473ffffffffffffffffffffffffffffffffffffffff1673ffffffffffffffffffffffffffffffffffffffff166302a569e660016040518263ffffffff1660e01b81526004016117d291906129bc565b6000604051808303816000875af11580156117f1573d6000803e3d6000fd5b505050506040513d6000823e3d601f19601f8201168201806040525081019061181a919061244e565b905080805190602001208280519060200120036118585760006040518060a0016040528060748152602001612b3d607491399093509350505061187b565b6001604051806060016040528060298152602001612af360299139909350935050505b9091565b816000806101000a81548173ffffffffffffffffffffffffffffffffffffffff021916908373ffffffffffffffffffffffffffffffffffffffff16021790555060006118c961027d565b90508073ffffffffffffffffffffffffffffffffffffffff16637fb99b9330846040518363ffffffff1660e01b81526004016119069291906129d7565b600060405180830381600087803b15801561192057600080fd5b505af1158015611934573d6000803e3d6000fd5b50505050505050565b6000604051905090565b600080fd5b600080fd5b600080fd5b600080fd5b6000601f19601f8301169050919050565b7f4e487b7100000000000000000000000000000000000000000000000000000000600052604160045260246000fd5b6119a48261195b565b810181811067ffffffffffffffff821117156119c3576119c261196c565b5b80604052505050565b60006119d661193d565b90506119e2828261199b565b919050565b600067ffffffffffffffff821115611a0257611a0161196c565b5b611a0b8261195b565b9050602081019050919050565b82818337600083830152505050565b6000611a3a611a35846119e7565b6119cc565b905082815260208101848484011115611a5657611a55611956565b5b611a61848285611a18565b509392505050565b600082601f830112611a7e57611a7d611951565b5b8135611a8e848260208601611a27565b91505092915050565b600080600060608486031215611ab057611aaf611947565b5b600084013567ffffffffffffffff811115611ace57611acd61194c565b5b611ada86828701611a69565b935050602084013567ffffffffffffffff811115611afb57611afa61194c565b5b611b0786828701611a69565b925050604084013567ffffffffffffffff811115611b2857611b2761194c565b5b611b3486828701611a69565b9150509250925092565b600081519050919050565b600082825260208201905092915050565b60005b83811015611b78578082015181840152602081019050611b5d565b60008484015250505050565b6000611b8f82611b3e565b611b998185611b49565b9350611ba9818560208601611b5a565b611bb28161195b565b840191505092915050565b60006020820190508181036000830152611bd78184611b84565b905092915050565b600073ffffffffffffffffffffffffffffffffffffffff82169050919050565b6000819050919050565b6000611c24611c1f611c1a84611bdf565b611bff565b611bdf565b9050919050565b6000611c3682611c09565b9050919050565b6000611c4882611c2b565b9050919050565b611c5881611c3d565b82525050565b6000602082019050611c736000830184611c4f565b92915050565b60008060008060808587031215611c9357611c92611947565b5b600085013567ffffffffffffffff811115611cb157611cb061194c565b5b611cbd87828801611a69565b945050602085013567ffffffffffffffff811115611cde57611cdd61194c565b5b611cea87828801611a69565b935050604085013567ffffffffffffffff811115611d0b57611d0a61194c565b5b611d1787828801611a69565b925050606085013567ffffffffffffffff811115611d3857611d3761194c565b5b611d4487828801611a69565b91505092959194509250565b60008115159050919050565b611d6581611d50565b82525050565b60006040820190508181036000830152611d858185611b84565b9050611d946020830184611d5c565b9392505050565b60008060408385031215611db257611db1611947565b5b600083013567ffffffffffffffff811115611dd057611dcf61194c565b5b611ddc85828601611a69565b925050602083013567ffffffffffffffff811115611dfd57611dfc61194c565b5b611e0985828601611a69565b9150509250929050565b6000602082019050611e286000830184611d5c565b92915050565b6000611e3982611bdf565b9050919050565b611e4981611e2e565b8114611e5457600080fd5b50565b600081359050611e6681611e40565b92915050565b6000819050919050565b611e7f81611e6c565b8114611e8a57600080fd5b50565b600081359050611e9c81611e76565b92915050565b60008060408385031215611eb957611eb8611947565b5b6000611ec785828601611e57565b9250506020611ed885828601611e8d565b9150509250929050565b6000611eed82611bdf565b9050919050565b611efd81611ee2565b8114611f0857600080fd5b50565b600081359050611f1a81611ef4565b92915050565b600060208284031215611f3657611f35611947565b5b6000611f4484828501611f0b565b91505092915050565b60008060408385031215611f6457611f63611947565b5b6000611f7285828601611f0b565b925050602083013567ffffffffffffffff811115611f9357611f9261194c565b5b611f9f85828601611a69565b9150509250929050565b600081905092915050565b6000611fbf82611b3e565b611fc98185611fa9565b9350611fd9818560208601611b5a565b80840191505092915050565b7f3a20000000000000000000000000000000000000000000000000000000000000600082015250565b600061201b600283611fa9565b915061202682611fe5565b600282019050919050565b7f203e200000000000000000000000000000000000000000000000000000000000600082015250565b6000612067600383611fa9565b915061207282612031565b600382019050919050565b60006120898286611fb4565b91506120948261200e565b91506120a08285611fb4565b91506120ab8261205a565b91506120b78284611fb4565b9150819050949350505050565b7f2045787065637465643a20000000000000000000000000000000000000000000600082015250565b60006120fa600b83611fa9565b9150612105826120c4565b600b82019050919050565b7f2041637475616c3a200000000000000000000000000000000000000000000000600082015250565b6000612146600983611fa9565b915061215182612110565b600982019050919050565b60006121688287611fb4565b91506121738261200e565b915061217f8286611fb4565b915061218a826120ed565b91506121968285611fb4565b91506121a182612139565b91506121ad8284611fb4565b915081905095945050505050565b6000815190506121ca81611ef4565b92915050565b6000602082840312156121e6576121e5611947565b5b60006121f4848285016121bb565b91505092915050565b60008160e01c9050919050565b600060033d11156122295760046000803e6122266000516121fd565b90505b90565b600060443d106122b95761223e61193d565b60043d036004823e80513d602482011167ffffffffffffffff821117156122665750506122b9565b808201805167ffffffffffffffff81111561228457505050506122b9565b80602083010160043d0385018111156122a15750505050506122b9565b6122b08260200185018661199b565b82955050505050505b90565b6122c581611ee2565b82525050565b60006040820190506122e060008301856122bc565b6122ed60208301846122bc565b9392505050565b7f4e487b7100000000000000000000000000000000000000000000000000000000600052601160045260246000fd5b600061232e82611e6c565b915061233983611e6c565b9250828201905080821115612351576123506122f4565b5b92915050565b6000819050919050565b600061237c61237761237284612357565b611bff565b611e6c565b9050919050565b61238c81612361565b82525050565b60006020820190506123a76000830184612383565b92915050565b600067ffffffffffffffff8211156123c8576123c761196c565b5b6123d18261195b565b9050602081019050919050565b60006123f16123ec846123ad565b6119cc565b90508281526020810184848401111561240d5761240c611956565b5b612418848285611b5a565b509392505050565b600082601f83011261243557612434611951565b5b81516124458482602086016123de565b91505092915050565b60006020828403121561246457612463611947565b5b600082015167ffffffffffffffff8111156124825761248161194c565b5b61248e84828501612420565b91505092915050565b6000815190506124a681611e76565b92915050565b6000602082840312156124c2576124c1611947565b5b60006124d084828501612497565b91505092915050565b6124e281611e6c565b82525050565b600081519050919050565b600082825260208201905092915050565b600061250f826124e8565b61251981856124f3565b9350612529818560208601611b5a565b6125328161195b565b840191505092915050565b600060408201905061255260008301856124d9565b81810360208301526125648184612504565b90509392505050565b61257681611d50565b811461258157600080fd5b50565b6000815190506125938161256d565b92915050565b6000602082840312156125af576125ae611947565b5b60006125bd84828501612584565b91505092915050565b6000819050919050565b60006125eb6125e66125e1846125c6565b611bff565b611e6c565b9050919050565b6125fb816125d0565b82525050565b600060408201905061261660008301856125f2565b81810360208301526126288184612504565b90509392505050565b600061263c82611e6c565b915061264783611e6c565b925082820390508181111561265f5761265e6122f4565b5b92915050565b60006126718284611fb4565b915081905092915050565b600060208201905061269160008301846122bc565b92915050565b7f4f6e6c7920636f6e74726163742061646d696e2063616e20776974686472617760008201527f2066756e64730000000000000000000000000000000000000000000000000000602082015250565b60006126f3602683611b49565b91506126fe82612697565b604082019050919050565b60006020820190508181036000830152612722816126e6565b9050919050565b7f496e76616c696420616464726573730000000000000000000000000000000000600082015250565b600061275f600f83611b49565b915061276a82612729565b602082019050919050565b6000602082019050818103600083015261278e81612752565b9050919050565b60006127a082611c2b565b9050919050565b6127b081612795565b82525050565b60006020820190506127cb60008301846127a7565b92915050565b7f46756e64732063616e206f6e6c792062652077697468647261776e20746f206160008201527f646d696e2c206d73672e73656e646572206f722074782e6f726967696e000000602082015250565b600061282d603d83611b49565b9150612838826127d1565b604082019050919050565b6000602082019050818103600083015261285c81612820565b9050919050565b7f496e73756666696369656e742066756e64730000000000000000000000000000600082015250565b6000612899601283611b49565b91506128a482612863565b602082019050919050565b600060208201905081810360008301526128c88161288c565b9050919050565b600081905092915050565b50565b60006128ea6000836128cf565b91506128f5826128da565b600082019050919050565b600061290b826128dd565b9150819050919050565b7f5472616e73666572206661696c65642e00000000000000000000000000000000600082015250565b600061294b601083611b49565b915061295682612915565b602082019050919050565b6000602082019050818103600083015261297a8161293e565b9050919050565b6000819050919050565b60006129a66129a161299c84612981565b611bff565b611e6c565b9050919050565b6129b68161298b565b82525050565b60006020820190506129d160008301846129ad565b92915050565b60006040820190506129ec60008301856122bc565b81810360208301526129fe8184611b84565b9050939250505056fe4572726f722077697468206765745369676e617475726528292066756e6374696f6e2e4c656674206f766572206574686572206973206e6f7420696e206368616e6e656c20636f6e74726163742e2057726f6e67206574686572207472616e73666572215468652073746f726564207369676e6174757265207769746820696e6465783a2030206973206e6f742076616c69642e2045787065637420746f2062652076616c69642e4572726f722077697468206f70656e4368616e6e656c28292066756e6374696f6e2e4572726f72207769746820666f726365526573657428292066756e6374696f6e2e4578657263697365204120285369676e6174757265293a20416c6c207465737473207061737365642e42616c616e6365206f662073656e646572206973206e6f7420636f72726563742e4572726f72202845786572636973652041202d205369676e6174757265293a20546865207369676e61747572657320617265207468652073616d652e20506c65617365206f766572726964652074686520696e64657820302077697468206120646966666572656e74207369676e61747572652e5468652066756e6374696f6e2072657475726e656420747275652c2062757420746865207369676e617475726520696e20636f6d62696e6174696f6e20776974682074686520657468416d6f756e74206973206e6f742076616c69642e4572726f722077697468206765745369676e617475726545746828292066756e6374696f6e2e4572726f72207769746820636c6f73654368616e6e656c28292066756e6374696f6e2e4572726f72202845786572636973652041293a2054686520616d6f756e74206f66206574686572207369676e6564207769746820746865207369676e617475726520697320746f6f20686967682e20506c65617365206f766572726964652074686520696e646578203020776974682061206c6f77657220616d6f756e742e42616c616e6365206f66206368616e6e656c20636f6e7472616374206973206e6f7420636f72726563742e4f6e6c79206f6e65206368616e6e656c2063616e206265206f70656e656e6420617420612074696d652e4572726f722077697468207665726966795061796d656e744d736728292066756e6374696f6e2ea264697066735822122079d851a09705293e7c8facd0424d24efd71795e01984d6fe5324cbd3fb715b9564736f6c63430008120033535332332041737369676e6d656e7420332056616c696461746f7220436f6e7472616374202d205461736b2041",
  "immutableReferences": {},
  "source": "// SPDX-License-Identifier: MIT\r\npragma solidity ^0.8.17;\r\n\r\n// Import the IAssignment3.sol\r\nimport \"./interface/IAssignment3.sol\";\r\n\r\n// Import Helper\r\nimport \"../Helper.sol\";\r\n\r\n// import \"BaseConfig.sol\";\r\nimport \"../BaseConfig.sol\";\r\n\r\ncontract Validator3TaskA is Helper, BaseConfig {\r\n    // assignment contract interface\r\n    IAssignment3 assignmentContract;\r\n\r\n    constructor(address _configContractAddress) {\r\n        initAdmin(\r\n            _configContractAddress,\r\n            \"SS23 Assignment 3 Validator Contract - Task A\"\r\n        );\r\n    }\r\n\r\n    receive() external payable {}\r\n\r\n    // Init contract\r\n    function initContract(address _contractAddress) public {\r\n        // Call the contract interface which needs to be tested and store it in the variable assignmentContract\r\n        assignmentContract = IAssignment3(_contractAddress);\r\n    }\r\n\r\n    /*=============================================\r\n    =                  TASK A                   =\r\n    =============================================*/\r\n\r\n    function testExerciseA() public payable returns (string memory, bool) {\r\n        // TEST 1: full success run\r\n        (string memory test1Message, bool test1Result) = testSuccessRun();\r\n        if (!test1Result) {\r\n            return (test1Message, false);\r\n        }\r\n\r\n        // TEST 3: Signatures are not same\r\n        (string memory test3Message, bool test3Result) = testSignatures();\r\n        if (!test3Result) {\r\n            return (test3Message, false);\r\n        }\r\n\r\n        return (\"Exercise A: All tests passed.\", true);\r\n    }\r\n\r\n    function testSuccessRun() public payable returns (string memory, bool) {\r\n        // Student address\r\n        address studentAddress = assignmentContract.getOwner();\r\n        address validatorAddress = address(this);\r\n\r\n        // Force reset\r\n        try assignmentContract.forceReset() {} catch Error(\r\n            string memory reason\r\n        ) {\r\n            return (\r\n                buildErrorMessage(\r\n                    \"Error (Exercise A)\",\r\n                    \"Error with forceReset() function.\",\r\n                    reason\r\n                ),\r\n                false\r\n            );\r\n        }\r\n\r\n        // get balance of channel contract before\r\n        uint256 balanceBefore = address(assignmentContract).balance;\r\n\r\n        // ETHER DEPOSIT\r\n        uint256 depositAmount = 1000 wei;\r\n\r\n        // Open Channel and set validatorHelper as receiver\r\n        try\r\n            assignmentContract.openChannel{value: depositAmount}(\r\n                studentAddress,\r\n                validatorAddress\r\n            )\r\n        {} catch Error(string memory reason) {\r\n            return (\r\n                buildErrorMessage(\r\n                    \"Error (Exercise A)\",\r\n                    \"Error with openChannel() function.\",\r\n                    reason\r\n                ),\r\n                false\r\n            );\r\n        }\r\n\r\n        // get balance of channel contract after\r\n        uint256 balanceAfter = address(assignmentContract).balance;\r\n\r\n        // Check if balance of channel contract is correct\r\n        if (balanceAfter != balanceBefore + depositAmount) {\r\n            return (\r\n                buildErrorMessage(\r\n                    \"Error (Exercise A)\",\r\n                    \"Error with openChannel() function.\",\r\n                    \"Balance of channel contract is not correct.\"\r\n                ),\r\n                false\r\n            );\r\n        }\r\n\r\n        // Check if a second channel can be openend --> expected to fail\r\n        try\r\n            assignmentContract.openChannel{value: depositAmount}(\r\n                studentAddress,\r\n                validatorAddress\r\n            )\r\n        {\r\n            return (\r\n                buildErrorMessage(\r\n                    \"Error (Exercise A)\",\r\n                    \"Error with openChannel() function.\",\r\n                    \"Only one channel can be openend at a time.\"\r\n                ),\r\n                false\r\n            );\r\n        } catch {}\r\n\r\n        // Validate signed message --> expected success\r\n        bytes memory signature = assignmentContract.getSignature(0);\r\n        uint256 ethAmount = assignmentContract.getSignatureEthAmount(0);\r\n\r\n        if (ethAmount == 0) {\r\n            return (\r\n                buildErrorMessage(\r\n                    \"Error (Exercise A)\",\r\n                    \"Error with getSignatureEth() function.\",\r\n                    \"The stored signature with index: 0 is not valid. Expect to be valid.\"\r\n                ),\r\n                false\r\n            );\r\n        }\r\n\r\n        if (signature.length == 0) {\r\n            return (\r\n                buildErrorMessage(\r\n                    \"Error (Exercise A)\",\r\n                    \"Error with getSignature() function.\",\r\n                    \"The stored signature with index: 0 is not valid. Expect to be valid.\"\r\n                ),\r\n                false\r\n            );\r\n        }\r\n\r\n        // Check if eth Amount is below deposit threshold\r\n        if (ethAmount > depositAmount) {\r\n            return (\r\n                \"Error (Exercise A): The amount of ether signed with the signature is too high. Please override the index 0 with a lower amount.\",\r\n                false\r\n            );\r\n        }\r\n\r\n        // Validate the signature and the amount\r\n\r\n        try assignmentContract.verifyPaymentMsg(ethAmount, signature) returns (\r\n            bool success\r\n        ) {\r\n            if (success == false) {\r\n                return (\r\n                    buildErrorMessage(\r\n                        \"Error (Exercise A)\",\r\n                        \"Error with verifyPaymentMsg() function.\",\r\n                        \"The stored signature with index: 0 is not valid. Expect to be valid.\"\r\n                    ),\r\n                    false\r\n                );\r\n            }\r\n        } catch Error(string memory reason) {\r\n            return (\r\n                buildErrorMessage(\r\n                    \"Error (Exercise A)\",\r\n                    \"Error with verifyPaymentMsg() function.\",\r\n                    reason\r\n                ),\r\n                false\r\n            );\r\n        }\r\n\r\n        // Validate non-sense signed message --> expected to fail\r\n        try\r\n            assignmentContract.verifyPaymentMsg(912737912 ether, signature)\r\n        returns (bool success) {\r\n            if (success == true) {\r\n                return (\r\n                    buildErrorMessage(\r\n                        \"Error (Exercise A)\",\r\n                        \"Error with verifyPaymentMsg() function.\",\r\n                        \"The function returned true, but the signature in combination with the ethAmount is not valid.\"\r\n                    ),\r\n                    false\r\n                );\r\n            }\r\n        } catch Error(string memory reason) {\r\n            return (\r\n                buildErrorMessage(\r\n                    \"Error (Exercise A)\",\r\n                    \"Error with verifyPaymentMsg() function.\",\r\n                    reason\r\n                ),\r\n                false\r\n            );\r\n        }\r\n\r\n        // Balance of sender before\r\n        uint256 balanceSenderBefore = validatorAddress.balance;\r\n\r\n        // Close channel\r\n        try\r\n            assignmentContract.closeChannel(ethAmount, signature)\r\n        {} catch Error(string memory reason) {\r\n            return (\r\n                buildErrorMessage(\r\n                    \"Error (Exercise A)\",\r\n                    \"Error with closeChannel() function.\",\r\n                    reason\r\n                ),\r\n                false\r\n            );\r\n        }\r\n\r\n        // Balance of sender after\r\n        uint256 balanceSenderAfter = validatorAddress.balance;\r\n\r\n        // Check if balance of sender is correct\r\n        if (balanceSenderAfter != balanceSenderBefore + ethAmount) {\r\n            return (\r\n                buildErrorMessage(\r\n                    \"Error (Exercise A)\",\r\n                    \"Error with closeChannel() function.\",\r\n                    \"Balance of sender is not correct.\"\r\n                ),\r\n                false\r\n            );\r\n        }\r\n\r\n        // Try to close channel again --> expected to fail\r\n        try assignmentContract.closeChannel(ethAmount, signature) {\r\n            return (\r\n                buildErrorMessage(\r\n                    \"Error (Exercise A)\",\r\n                    \"Error with closeChannel() function.\",\r\n                    \"Channel is already closed.\"\r\n                ),\r\n                false\r\n            );\r\n        } catch {}\r\n\r\n        // Check that left over ether is still in channel contract\r\n        if (address(assignmentContract).balance != balanceAfter - ethAmount) {\r\n            return (\r\n                buildErrorMessage(\r\n                    \"Error (Exercise A)\",\r\n                    \"Error with closeChannel() function.\",\r\n                    \"Left over ether is not in channel contract. Wrong ether transfer!\"\r\n                ),\r\n                false\r\n            );\r\n        }\r\n\r\n        // return success\r\n        return (\"Exercise A: All tests passed.\", true);\r\n    }\r\n\r\n    function testSignatures() public payable returns (string memory, bool) {\r\n        bytes memory signature0 = assignmentContract.getSignature(0);\r\n        bytes memory signature1 = assignmentContract.getSignature(1);\r\n\r\n        // Check if signatures are not the same\r\n        if (keccak256(signature0) == keccak256(signature1)) {\r\n            return (\r\n                \"Error (Exercise A - Signature): The signatures are the same. Please override the index 0 with a different signature.\",\r\n                false\r\n            );\r\n        }\r\n\r\n        return (\"Exercise A (Signature): All tests passed.\", true);\r\n    }\r\n}\r\n",
  "sourcePath": "C:\\Users\\jonas\\Repos\\mtp-blockchain\\smart-contracts\\contracts\\assignment_3\\Validator3TaskA.sol",
  "compiler": {
    "name": "solc",
    "version": "0.8.18+commit.87f61d96.Emscripten.clang"
  },
  "schemaVersion": "3.4.11",
  "updatedAt": "2023-02-05T15:34:49.155Z",
  "devdoc": {
    "kind": "dev",
    "methods": {},
    "version": 1
  },
  "userdoc": {
    "kind": "user",
    "methods": {},
    "version": 1
  }
}