{
  "contractName": "Validator3",
  "abi": [
    {
      "inputs": [
        {
          "internalType": "address",
          "name": "_configContractAddress",
          "type": "address"
        }
      ],
      "stateMutability": "nonpayable",
      "type": "constructor"
    },
    {
      "inputs": [],
      "name": "_testHistoryCounter",
      "outputs": [
        {
          "internalType": "uint256",
          "name": "",
          "type": "uint256"
        }
      ],
      "stateMutability": "view",
      "type": "function"
    },
    {
      "inputs": [
        {
          "internalType": "address",
          "name": "_helperAddress",
          "type": "address"
        }
      ],
      "name": "addHelperContracts",
      "outputs": [],
      "stateMutability": "nonpayable",
      "type": "function"
    },
    {
      "inputs": [
        {
          "internalType": "string",
          "name": "_name",
          "type": "string"
        },
        {
          "internalType": "bool",
          "name": "_result",
          "type": "bool"
        },
        {
          "internalType": "uint256",
          "name": "_points",
          "type": "uint256"
        }
      ],
      "name": "appendTestResult",
      "outputs": [],
      "stateMutability": "nonpayable",
      "type": "function"
    },
    {
      "inputs": [
        {
          "internalType": "string",
          "name": "_prefix",
          "type": "string"
        },
        {
          "internalType": "string",
          "name": "_message",
          "type": "string"
        },
        {
          "internalType": "string",
          "name": "_errorMsg",
          "type": "string"
        }
      ],
      "name": "buildErrorMessage",
      "outputs": [
        {
          "internalType": "string",
          "name": "",
          "type": "string"
        }
      ],
      "stateMutability": "pure",
      "type": "function"
    },
    {
      "inputs": [
        {
          "internalType": "string",
          "name": "_prefix",
          "type": "string"
        },
        {
          "internalType": "string",
          "name": "_message",
          "type": "string"
        },
        {
          "internalType": "string",
          "name": "_expected",
          "type": "string"
        },
        {
          "internalType": "string",
          "name": "_actual",
          "type": "string"
        }
      ],
      "name": "buildErrorMessageExtended",
      "outputs": [
        {
          "internalType": "string",
          "name": "",
          "type": "string"
        }
      ],
      "stateMutability": "pure",
      "type": "function"
    },
    {
      "inputs": [
        {
          "internalType": "address",
          "name": "_contractAddress",
          "type": "address"
        }
      ],
      "name": "checkAssignmentOwner",
      "outputs": [
        {
          "internalType": "bool",
          "name": "",
          "type": "bool"
        }
      ],
      "stateMutability": "view",
      "type": "function"
    },
    {
      "inputs": [],
      "name": "clearAssignmentInfos",
      "outputs": [],
      "stateMutability": "nonpayable",
      "type": "function"
    },
    {
      "inputs": [
        {
          "internalType": "string",
          "name": "a",
          "type": "string"
        },
        {
          "internalType": "string",
          "name": "b",
          "type": "string"
        }
      ],
      "name": "compareStrings",
      "outputs": [
        {
          "internalType": "bool",
          "name": "",
          "type": "bool"
        }
      ],
      "stateMutability": "pure",
      "type": "function"
    },
    {
      "inputs": [
        {
          "internalType": "address",
          "name": "_contractAddress",
          "type": "address"
        }
      ],
      "name": "createTestHistory",
      "outputs": [
        {
          "internalType": "uint256",
          "name": "",
          "type": "uint256"
        }
      ],
      "stateMutability": "nonpayable",
      "type": "function"
    },
    {
      "inputs": [
        {
          "internalType": "address",
          "name": "_address",
          "type": "address"
        }
      ],
      "name": "getAssignmentCreationBlockNumber",
      "outputs": [
        {
          "internalType": "uint256",
          "name": "",
          "type": "uint256"
        }
      ],
      "stateMutability": "view",
      "type": "function"
    },
    {
      "inputs": [],
      "name": "getAssignmentInfos",
      "outputs": [
        {
          "internalType": "uint256",
          "name": "",
          "type": "uint256"
        },
        {
          "internalType": "uint256",
          "name": "",
          "type": "uint256"
        },
        {
          "internalType": "bool",
          "name": "",
          "type": "bool"
        }
      ],
      "stateMutability": "view",
      "type": "function"
    },
    {
      "inputs": [
        {
          "internalType": "address",
          "name": "_address",
          "type": "address"
        }
      ],
      "name": "getAssignmentOwner",
      "outputs": [
        {
          "internalType": "address",
          "name": "",
          "type": "address"
        }
      ],
      "stateMutability": "view",
      "type": "function"
    },
    {
      "inputs": [],
      "name": "getConfigStorage",
      "outputs": [
        {
          "internalType": "contract ConfigStorage",
          "name": "",
          "type": "address"
        }
      ],
      "stateMutability": "view",
      "type": "function"
    },
    {
      "inputs": [],
      "name": "getHistoryCounter",
      "outputs": [
        {
          "internalType": "uint256",
          "name": "",
          "type": "uint256"
        }
      ],
      "stateMutability": "view",
      "type": "function"
    },
    {
      "inputs": [],
      "name": "getRequiredEther",
      "outputs": [
        {
          "internalType": "uint256",
          "name": "",
          "type": "uint256"
        }
      ],
      "stateMutability": "view",
      "type": "function"
    },
    {
      "inputs": [
        {
          "internalType": "address",
          "name": "_address",
          "type": "address"
        }
      ],
      "name": "getSubmittedAssignment",
      "outputs": [
        {
          "components": [
            {
              "internalType": "uint256",
              "name": "testIndex",
              "type": "uint256"
            },
            {
              "internalType": "address",
              "name": "studentAddress",
              "type": "address"
            },
            {
              "internalType": "address",
              "name": "contractAddress",
              "type": "address"
            },
            {
              "internalType": "uint256",
              "name": "knowledgeCoins",
              "type": "uint256"
            },
            {
              "internalType": "uint256",
              "name": "blockNo",
              "type": "uint256"
            },
            {
              "internalType": "bool",
              "name": "submitted",
              "type": "bool"
            }
          ],
          "internalType": "struct BaseValidator.AssignmentSubmitted",
          "name": "",
          "type": "tuple"
        }
      ],
      "stateMutability": "view",
      "type": "function"
    },
    {
      "inputs": [
        {
          "internalType": "address",
          "name": "_address",
          "type": "address"
        }
      ],
      "name": "getTestHistoryIndexes",
      "outputs": [
        {
          "internalType": "uint256[]",
          "name": "",
          "type": "uint256[]"
        }
      ],
      "stateMutability": "view",
      "type": "function"
    },
    {
      "inputs": [
        {
          "internalType": "uint256",
          "name": "_historyIndex",
          "type": "uint256"
        },
        {
          "internalType": "uint256",
          "name": "_testIndex",
          "type": "uint256"
        }
      ],
      "name": "getTestResultByIndex",
      "outputs": [
        {
          "components": [
            {
              "internalType": "string",
              "name": "testName",
              "type": "string"
            },
            {
              "internalType": "bool",
              "name": "testPassed",
              "type": "bool"
            },
            {
              "internalType": "uint256",
              "name": "points",
              "type": "uint256"
            }
          ],
          "internalType": "struct BaseValidator.Test",
          "name": "result",
          "type": "tuple"
        }
      ],
      "stateMutability": "view",
      "type": "function"
    },
    {
      "inputs": [
        {
          "internalType": "uint256",
          "name": "_historyIndex",
          "type": "uint256"
        }
      ],
      "name": "getTestResults",
      "outputs": [
        {
          "components": [
            {
              "internalType": "string",
              "name": "testName",
              "type": "string"
            },
            {
              "internalType": "bool",
              "name": "testPassed",
              "type": "bool"
            },
            {
              "internalType": "uint256",
              "name": "points",
              "type": "uint256"
            }
          ],
          "internalType": "struct BaseValidator.Test[]",
          "name": "result",
          "type": "tuple[]"
        }
      ],
      "stateMutability": "view",
      "type": "function"
    },
    {
      "inputs": [
        {
          "internalType": "address",
          "name": "_address",
          "type": "address"
        }
      ],
      "name": "hasAssignmentSubmitted",
      "outputs": [
        {
          "internalType": "bool",
          "name": "",
          "type": "bool"
        }
      ],
      "stateMutability": "view",
      "type": "function"
    },
    {
      "inputs": [
        {
          "internalType": "address",
          "name": "_addr",
          "type": "address"
        },
        {
          "internalType": "string",
          "name": "functionName",
          "type": "string"
        },
        {
          "internalType": "uint256",
          "name": "ethValue",
          "type": "uint256"
        }
      ],
      "name": "hasFunction",
      "outputs": [
        {
          "internalType": "bool",
          "name": "",
          "type": "bool"
        }
      ],
      "stateMutability": "payable",
      "type": "function"
    },
    {
      "inputs": [
        {
          "internalType": "address",
          "name": "_configContractAddress",
          "type": "address"
        },
        {
          "internalType": "string",
          "name": "_contractName",
          "type": "string"
        }
      ],
      "name": "initAdmin",
      "outputs": [],
      "stateMutability": "nonpayable",
      "type": "function"
    },
    {
      "inputs": [],
      "name": "isAssignmentLinked",
      "outputs": [
        {
          "internalType": "bool",
          "name": "",
          "type": "bool"
        }
      ],
      "stateMutability": "view",
      "type": "function"
    },
    {
      "inputs": [
        {
          "internalType": "address",
          "name": "_helperAddress",
          "type": "address"
        }
      ],
      "name": "isValidator",
      "outputs": [
        {
          "internalType": "bool",
          "name": "",
          "type": "bool"
        }
      ],
      "stateMutability": "view",
      "type": "function"
    },
    {
      "inputs": [
        {
          "internalType": "address",
          "name": "_address",
          "type": "address"
        }
      ],
      "name": "removeSubmittedAssignment",
      "outputs": [],
      "stateMutability": "nonpayable",
      "type": "function"
    },
    {
      "inputs": [],
      "name": "setAssignmentCreationBlockNumber",
      "outputs": [],
      "stateMutability": "nonpayable",
      "type": "function"
    },
    {
      "inputs": [
        {
          "internalType": "uint256",
          "name": "semesterId",
          "type": "uint256"
        },
        {
          "internalType": "uint256",
          "name": "assignmentId",
          "type": "uint256"
        }
      ],
      "name": "setAssignmentInfos",
      "outputs": [],
      "stateMutability": "nonpayable",
      "type": "function"
    },
    {
      "inputs": [],
      "name": "setAssignmentOwner",
      "outputs": [],
      "stateMutability": "nonpayable",
      "type": "function"
    },
    {
      "inputs": [
        {
          "internalType": "address",
          "name": "_contractAddress",
          "type": "address"
        }
      ],
      "name": "submitAssignment",
      "outputs": [
        {
          "internalType": "uint256",
          "name": "",
          "type": "uint256"
        }
      ],
      "stateMutability": "payable",
      "type": "function"
    },
    {
      "inputs": [
        {
          "internalType": "address",
          "name": "_contractAddress",
          "type": "address"
        }
      ],
      "name": "validateAssignment",
      "outputs": [
        {
          "internalType": "uint256",
          "name": "",
          "type": "uint256"
        }
      ],
      "stateMutability": "payable",
      "type": "function"
    },
    {
      "inputs": [
        {
          "internalType": "address payable",
          "name": "_to",
          "type": "address"
        },
        {
          "internalType": "uint256",
          "name": "_value",
          "type": "uint256"
        }
      ],
      "name": "withdrawFunds",
      "outputs": [],
      "stateMutability": "payable",
      "type": "function"
    },
    {
      "stateMutability": "payable",
      "type": "receive"
    },
    {
      "inputs": [
        {
          "internalType": "address",
          "name": "_contractAddress",
          "type": "address"
        }
      ],
      "name": "test",
      "outputs": [
        {
          "internalType": "uint256",
          "name": "",
          "type": "uint256"
        }
      ],
      "stateMutability": "payable",
      "type": "function"
    }
  ],
  "bytecode": "0x608060405260006006553480156200001657600080fd5b506040516200dbbf3803806200dbbf83398181016040528101906200003c91906200050e565b806040518060600160405280602b81526020016200db94602b9139640165a0bc006200006f83836200029d60201b60201c565b62000080306200036760201b60201c565b80600681905550600060078190555050505080604051620000a1906200047a565b620000ad919062000551565b604051809103906000f080158015620000ca573d6000803e3d6000fd5b50600c60006101000a81548173ffffffffffffffffffffffffffffffffffffffff021916908373ffffffffffffffffffffffffffffffffffffffff160217905550806040516200011a9062000488565b62000126919062000551565b604051809103906000f08015801562000143573d6000803e3d6000fd5b50600d60006101000a81548173ffffffffffffffffffffffffffffffffffffffff021916908373ffffffffffffffffffffffffffffffffffffffff16021790555080604051620001939062000496565b6200019f919062000551565b604051809103906000f080158015620001bc573d6000803e3d6000fd5b50600e60006101000a81548173ffffffffffffffffffffffffffffffffffffffff021916908373ffffffffffffffffffffffffffffffffffffffff16021790555062000230600c60009054906101000a900473ffffffffffffffffffffffffffffffffffffffff166200036760201b60201c565b62000263600d60009054906101000a900473ffffffffffffffffffffffffffffffffffffffff166200036760201b60201c565b62000296600e60009054906101000a900473ffffffffffffffffffffffffffffffffffffffff166200036760201b60201c565b50620006ab565b816000806101000a81548173ffffffffffffffffffffffffffffffffffffffff021916908373ffffffffffffffffffffffffffffffffffffffff1602179055506000620002ef6200045160201b60201c565b90508073ffffffffffffffffffffffffffffffffffffffff16637fb99b9330846040518363ffffffff1660e01b81526004016200032e92919062000608565b600060405180830381600087803b1580156200034957600080fd5b505af11580156200035e573d6000803e3d6000fd5b50505050505050565b620003776200045160201b60201c565b73ffffffffffffffffffffffffffffffffffffffff16635577210a336040518263ffffffff1660e01b8152600401620003b1919062000551565b602060405180830381865afa158015620003cf573d6000803e3d6000fd5b505050506040513d601f19601f82011682018060405250810190620003f5919062000679565b506001600a60008373ffffffffffffffffffffffffffffffffffffffff1673ffffffffffffffffffffffffffffffffffffffff16815260200190815260200160002060006101000a81548160ff02191690831515021790555050565b60008060009054906101000a900473ffffffffffffffffffffffffffffffffffffffff16905090565b61309b8062005a8083390190565b6126688062008b1b83390190565b612a11806200b18383390190565b600080fd5b600073ffffffffffffffffffffffffffffffffffffffff82169050919050565b6000620004d682620004a9565b9050919050565b620004e881620004c9565b8114620004f457600080fd5b50565b6000815190506200050881620004dd565b92915050565b600060208284031215620005275762000526620004a4565b5b60006200053784828501620004f7565b91505092915050565b6200054b81620004c9565b82525050565b600060208201905062000568600083018462000540565b92915050565b600081519050919050565b600082825260208201905092915050565b60005b83811015620005aa5780820151818401526020810190506200058d565b60008484015250505050565b6000601f19601f8301169050919050565b6000620005d4826200056e565b620005e0818562000579565b9350620005f28185602086016200058a565b620005fd81620005b6565b840191505092915050565b60006040820190506200061f600083018562000540565b8181036020830152620006338184620005c7565b90509392505050565b60008115159050919050565b62000653816200063c565b81146200065f57600080fd5b50565b600081519050620006738162000648565b92915050565b600060208284031215620006925762000691620004a4565b5b6000620006a28482850162000662565b91505092915050565b6153c580620006bb6000396000f3fe6080604052600436106101e75760003560e01c8063990fdd4911610102578063c107532911610095578063f274f59611610064578063f274f59614610744578063facd743b1461076d578063fae45fbe146107aa578063fbd5bf4c146107d3576101ee565b8063c1075329146106a4578063c717a434146106c0578063c9b9da95146106fd578063d7dc298114610714576101ee565b8063afbd6ae5116100d1578063afbd6ae5146105ca578063b8e58a2a14610607578063bb29998e14610637578063bed34bba14610667576101ee565b8063990fdd4914610522578063a2574c301461055f578063a69e79b714610588578063ab6f490f1461059f576101ee565b80633e45b8261161017a5780635da15abd116101495780635da15abd1461044f5780635f1d4ea91461047f578063621eb8a7146104a85780636d6fa6d9146104e5576101ee565b80633e45b8261461036d5780634eed8c5d146103aa578063516cbbe2146103e75780635827a06514610412576101ee565b806313a12b44116101b657806313a12b44146102b15780632350e03a146102ee5780632b518301146103195780633c21bf2514610356576101ee565b8063067df42b146101f357806306854c5f1461021c57806308e753ed146102475780630fa56ee414610284576101ee565b366101ee57005b600080fd5b3480156101ff57600080fd5b5061021a6004803603810190610215919061337a565b6107fe565b005b34801561022857600080fd5b50610231610a3d565b60405161023e91906133d5565b60405180910390f35b34801561025357600080fd5b5061026e6004803603810190610269919061344e565b610a54565b60405161027b91906133d5565b60405180910390f35b34801561029057600080fd5b50610299610aad565b6040516102a89392919061348a565b60405180910390f35b3480156102bd57600080fd5b506102d860048036038101906102d3919061344e565b610ad3565b6040516102e591906134c1565b60405180910390f35b3480156102fa57600080fd5b50610303610b1c565b60405161031091906134c1565b60405180910390f35b34801561032557600080fd5b50610340600480360381019061033b9190613622565b610b26565b60405161034d9190613748565b60405180910390f35b34801561036257600080fd5b5061036b610b55565b005b34801561037957600080fd5b50610394600480360381019061038f919061376a565b610c69565b6040516103a19190613911565b60405180910390f35b3480156103b657600080fd5b506103d160048036038101906103cc919061337a565b610e2d565b6040516103de9190613983565b60405180910390f35b3480156103f357600080fd5b506103fc610f26565b6040516104099190613a04565b60405180910390f35b34801561041e57600080fd5b5061043960048036038101906104349190613a1f565b610f4f565b6040516104469190613748565b60405180910390f35b6104696004803603810190610464919061344e565b610f81565b60405161047691906134c1565b60405180910390f35b34801561048b57600080fd5b506104a660048036038101906104a1919061344e565b611591565b005b3480156104b457600080fd5b506104cf60048036038101906104ca919061344e565b61166e565b6040516104dc9190613ba5565b60405180910390f35b3480156104f157600080fd5b5061050c6004803603810190610507919061344e565b611786565b60405161051991906133d5565b60405180910390f35b34801561052e57600080fd5b506105496004803603810190610544919061344e565b6117d6565b60405161055691906134c1565b60405180910390f35b34801561056b57600080fd5b5061058660048036038101906105819190613bf3565b611943565b005b34801561059457600080fd5b5061059d611ac3565b005b3480156105ab57600080fd5b506105b4611b72565b6040516105c191906134c1565b60405180910390f35b3480156105d657600080fd5b506105f160048036038101906105ec919061344e565b611b7c565b6040516105fe9190613c71565b60405180910390f35b610621600480360381019061061c919061344e565b611be5565b60405161062e91906134c1565b60405180910390f35b610651600480360381019061064c919061344e565b611d9f565b60405161065e91906134c1565b60405180910390f35b34801561067357600080fd5b5061068e60048036038101906106899190613c8c565b6125da565b60405161069b91906133d5565b60405180910390f35b6106be60048036038101906106b99190613d42565b612633565b005b3480156106cc57600080fd5b506106e760048036038101906106e2919061344e565b612982565b6040516106f49190613e0c565b60405180910390f35b34801561070957600080fd5b50610712612ac0565b005b61072e60048036038101906107299190613e27565b612b4e565b60405161073b91906133d5565b60405180910390f35b34801561075057600080fd5b5061076b6004803603810190610766919061344e565b612bff565b005b34801561077957600080fd5b50610794600480360381019061078f919061344e565b612ed1565b6040516107a191906133d5565b60405180910390f35b3480156107b657600080fd5b506107d160048036038101906107cc9190613e96565b612f27565b005b3480156107df57600080fd5b506107e8612fe5565b6040516107f591906134c1565b60405180910390f35b610806610f26565b73ffffffffffffffffffffffffffffffffffffffff16635577210a336040518263ffffffff1660e01b815260040161083e9190613c71565b602060405180830381865afa15801561085b573d6000803e3d6000fd5b505050506040513d601f19601f8201168201806040525081019061087f9190613f07565b506001151561088c610f26565b73ffffffffffffffffffffffffffffffffffffffff16633a06068d846040518263ffffffff1660e01b81526004016108c491906134c1565b602060405180830381865afa1580156108e1573d6000803e3d6000fd5b505050506040513d601f19601f820116820180604052508101906109059190613f07565b151514610947576040517f08c379a000000000000000000000000000000000000000000000000000000000815260040161093e90613f80565b60405180910390fd5b60011515610953610f26565b73ffffffffffffffffffffffffffffffffffffffff16637572fa8984846040518363ffffffff1660e01b815260040161098d929190613fa0565b602060405180830381865afa1580156109aa573d6000803e3d6000fd5b505050506040513d601f19601f820116820180604052508101906109ce9190613f07565b151514610a10576040517f08c379a0000000000000000000000000000000000000000000000000000000008152600401610a079061403b565b60405180910390fd5b81600381905550806004819055506001600560006101000a81548160ff0219169083151502179055505050565b6000600560009054906101000a900460ff16905090565b6000600960008373ffffffffffffffffffffffffffffffffffffffff1673ffffffffffffffffffffffffffffffffffffffff16815260200190815260200160002060050160009054906101000a900460ff169050919050565b6000806000600354600454600560009054906101000a900460ff16925092509250909192565b6000600160008373ffffffffffffffffffffffffffffffffffffffff1673ffffffffffffffffffffffffffffffffffffffff168152602001908152602001600020549050919050565b6000600654905090565b6060838383604051602001610b3d9392919061412f565b60405160208183030381529060405290509392505050565b600073ffffffffffffffffffffffffffffffffffffffff16600260003373ffffffffffffffffffffffffffffffffffffffff1673ffffffffffffffffffffffffffffffffffffffff16815260200190815260200160002060009054906101000a900473ffffffffffffffffffffffffffffffffffffffff1673ffffffffffffffffffffffffffffffffffffffff1603610c675732600260003373ffffffffffffffffffffffffffffffffffffffff1673ffffffffffffffffffffffffffffffffffffffff16815260200190815260200160002060006101000a81548173ffffffffffffffffffffffffffffffffffffffff021916908373ffffffffffffffffffffffffffffffffffffffff1602179055505b565b60606000600860008481526020019081526020016000206002015467ffffffffffffffff811115610c9d57610c9c6134f7565b5b604051908082528060200260200182016040528015610cd657816020015b610cc36132a9565b815260200190600190039081610cbb5790505b5090506000600190505b60086000858152602001908152602001600020600201548111610e2357600860008581526020019081526020016000206003016000828152602001908152602001600020604051806060016040529081600082018054610d3f906141a5565b80601f0160208091040260200160405190810160405280929190818152602001828054610d6b906141a5565b8015610db85780601f10610d8d57610100808354040283529160200191610db8565b820191906000526020600020905b815481529060010190602001808311610d9b57829003601f168201915b505050505081526020016001820160009054906101000a900460ff1615151515815260200160028201548152505082600183610df49190614205565b81518110610e0557610e04614239565b5b60200260200101819052508080610e1b90614268565b915050610ce0565b8192505050919050565b610e356132a9565b600860008481526020019081526020016000206003016000838152602001908152602001600020604051806060016040529081600082018054610e77906141a5565b80601f0160208091040260200160405190810160405280929190818152602001828054610ea3906141a5565b8015610ef05780601f10610ec557610100808354040283529160200191610ef0565b820191906000526020600020905b815481529060010190602001808311610ed357829003601f168201915b505050505081526020016001820160009054906101000a900460ff16151515158152602001600282015481525050905092915050565b60008060009054906101000a900473ffffffffffffffffffffffffffffffffffffffff16905090565b606084848484604051602001610f689493929190614348565b6040516020818303038152906040529050949350505050565b600060011515610f8f610a3d565b151514610fd1576040517f08c379a0000000000000000000000000000000000000000000000000000000008152600401610fc89061443f565b60405180910390fd5b60011515600960003373ffffffffffffffffffffffffffffffffffffffff1673ffffffffffffffffffffffffffffffffffffffff16815260200190815260200160002060050160009054906101000a900460ff16151503611067576040517f08c379a000000000000000000000000000000000000000000000000000000000815260040161105e906144f7565b60405180910390fd5b3373ffffffffffffffffffffffffffffffffffffffff168273ffffffffffffffffffffffffffffffffffffffff1663893d20e86040518163ffffffff1660e01b81526004016020604051808303816000875af11580156110cb573d6000803e3d6000fd5b505050506040513d601f19601f820116820180604052508101906110ef919061452c565b73ffffffffffffffffffffffffffffffffffffffff1614611145576040517f08c379a000000000000000000000000000000000000000000000000000000000815260040161113c906145f1565b60405180910390fd5b6001151561115283612feb565b151514611194576040517f08c379a000000000000000000000000000000000000000000000000000000000815260040161118b906146a9565b60405180910390fd5b600115156111a061314f565b1515146111e2576040517f08c379a00000000000000000000000000000000000000000000000000000000081526004016111d990614761565b60405180910390fd5b60006111ed83611be5565b9050600080600190505b600860008481526020019081526020016000206002015481116112a3576001151560086000858152602001908152602001600020600301600083815260200190815260200160002060010160009054906101000a900460ff1615150361129057600860008481526020019081526020016000206003016000828152602001908152602001600020600201548261128d9190614781565b91505b808061129b90614268565b9150506111f7565b60006112ad610f26565b73ffffffffffffffffffffffffffffffffffffffff1663f67917796040518163ffffffff1660e01b8152600401602060405180830381865afa1580156112f7573d6000803e3d6000fd5b505050506040513d601f19601f8201168201806040525081019061131b919061452c565b905060008173ffffffffffffffffffffffffffffffffffffffff16634cdca3bd856040518263ffffffff1660e01b815260040161135891906134c1565b602060405180830381865afa158015611375573d6000803e3d6000fd5b505050506040513d601f19601f8201168201806040525081019061139991906147ca565b90508173ffffffffffffffffffffffffffffffffffffffff166340c10f1933836040518363ffffffff1660e01b81526004016113d69291906147f7565b6020604051808303816000875af11580156113f5573d6000803e3d6000fd5b505050506040513d601f19601f820116820180604052508101906114199190613f07565b506040518060c001604052808681526020013373ffffffffffffffffffffffffffffffffffffffff1681526020018873ffffffffffffffffffffffffffffffffffffffff16815260200185815260200143815260200160011515815250600960003373ffffffffffffffffffffffffffffffffffffffff1673ffffffffffffffffffffffffffffffffffffffff1681526020019081526020016000206000820151816000015560208201518160010160006101000a81548173ffffffffffffffffffffffffffffffffffffffff021916908373ffffffffffffffffffffffffffffffffffffffff16021790555060408201518160020160006101000a81548173ffffffffffffffffffffffffffffffffffffffff021916908373ffffffffffffffffffffffffffffffffffffffff160217905550606082015181600301556080820151816004015560a08201518160050160006101000a81548160ff0219169083151502179055509050508495505050505050919050565b611599610f26565b73ffffffffffffffffffffffffffffffffffffffff16635577210a336040518263ffffffff1660e01b81526004016115d19190613c71565b602060405180830381865afa1580156115ee573d6000803e3d6000fd5b505050506040513d601f19601f820116820180604052508101906116129190613f07565b506001600a60008373ffffffffffffffffffffffffffffffffffffffff1673ffffffffffffffffffffffffffffffffffffffff16815260200190815260200160002060006101000a81548160ff02191690831515021790555050565b6060600060075467ffffffffffffffff81111561168e5761168d6134f7565b5b6040519080825280602002602001820160405280156116bc5781602001602082028036833780820191505090505b509050600080600091505b600754821161177b578473ffffffffffffffffffffffffffffffffffffffff166008600084815260200190815260200160002060000160009054906101000a900473ffffffffffffffffffffffffffffffffffffffff1673ffffffffffffffffffffffffffffffffffffffff1603611768578183828151811061174d5761174c614239565b5b602002602001018181525050808061176490614268565b9150505b818061177390614268565b9250506116c7565b829350505050919050565b60003373ffffffffffffffffffffffffffffffffffffffff166117a883611b7c565b73ffffffffffffffffffffffffffffffffffffffff16036117cc57600190506117d1565b600090505b919050565b60006117e0610f26565b73ffffffffffffffffffffffffffffffffffffffff16635577210a306040518263ffffffff1660e01b81526004016118189190613c71565b602060405180830381865afa158015611835573d6000803e3d6000fd5b505050506040513d601f19601f820116820180604052508101906118599190613f07565b506000600160075461186b9190614781565b9050336008600083815260200190815260200160002060000160006101000a81548173ffffffffffffffffffffffffffffffffffffffff021916908373ffffffffffffffffffffffffffffffffffffffff160217905550826008600083815260200190815260200160002060010160006101000a81548173ffffffffffffffffffffffffffffffffffffffff021916908373ffffffffffffffffffffffffffffffffffffffff160217905550600060086000838152602001908152602001600020600201819055508060078190555080915050919050565b61194b610f26565b73ffffffffffffffffffffffffffffffffffffffff16635577210a306040518263ffffffff1660e01b81526004016119839190613c71565b602060405180830381865afa1580156119a0573d6000803e3d6000fd5b505050506040513d601f19601f820116820180604052508101906119c49190613f07565b5060006001600860006007548152602001908152602001600020600201546119ec9190614781565b905060006040518060600160405280868152602001851515815260200184815250905084816000018190525083816020019015159081151581525050828160400181815250508060086000600754815260200190815260200160002060030160008481526020019081526020016000206000820151816000019081611a7191906149c2565b5060208201518160010160006101000a81548160ff0219169083151502179055506040820151816002015590505081600860006007548152602001908152602001600020600201819055505050505050565b611acb610f26565b73ffffffffffffffffffffffffffffffffffffffff16635577210a336040518263ffffffff1660e01b8152600401611b039190613c71565b602060405180830381865afa158015611b20573d6000803e3d6000fd5b505050506040513d601f19601f82011682018060405250810190611b449190613f07565b50600060038190555060006004819055506000600560006101000a81548160ff021916908315150217905550565b6000600754905090565b6000600260008373ffffffffffffffffffffffffffffffffffffffff1673ffffffffffffffffffffffffffffffffffffffff16815260200190815260200160002060009054906101000a900473ffffffffffffffffffffffffffffffffffffffff169050919050565b600060011515611bf3610a3d565b151514611c35576040517f08c379a0000000000000000000000000000000000000000000000000000000008152600401611c2c90614b2c565b60405180910390fd5b3273ffffffffffffffffffffffffffffffffffffffff16611c5583611b7c565b73ffffffffffffffffffffffffffffffffffffffff161480611cfb575060011515611c7e610f26565b73ffffffffffffffffffffffffffffffffffffffff166324d7806c336040518263ffffffff1660e01b8152600401611cb69190613c71565b602060405180830381865afa158015611cd3573d6000803e3d6000fd5b505050506040513d601f19601f82011682018060405250810190611cf79190613f07565b1515145b611d3a576040517f08c379a0000000000000000000000000000000000000000000000000000000008152600401611d3190614be4565b60405180910390fd5b60011515611d4783612feb565b151514611d89576040517f08c379a0000000000000000000000000000000000000000000000000000000008152600401611d80906146a9565b60405180910390fd5b6000611d9483611d9f565b905080915050919050565b600080611dab836117d6565b905082600b60006101000a81548173ffffffffffffffffffffffffffffffffffffffff021916908373ffffffffffffffffffffffffffffffffffffffff160217905550600c60009054906101000a900473ffffffffffffffffffffffffffffffffffffffff1673ffffffffffffffffffffffffffffffffffffffff1663cf9d4afa846040518263ffffffff1660e01b8152600401611e499190613c71565b600060405180830381600087803b158015611e6357600080fd5b505af1158015611e77573d6000803e3d6000fd5b50505050611ee1600c60009054906101000a900473ffffffffffffffffffffffffffffffffffffffff166040518060400160405280600f81526020017f7465737445786572636973654128290000000000000000000000000000000000815250633b9aca00612b4e565b1561206a57600c60009054906101000a900473ffffffffffffffffffffffffffffffffffffffff1673ffffffffffffffffffffffffffffffffffffffff1663cfacdce8633b9aca006040518263ffffffff1660e01b815260040160006040518083038185885af193505050508015611f7c57506040513d6000823e3d601f19601f82011682018060405250810190611f799190614c74565b60015b61203e57611f88614cdd565b806308c379a00361202d5750611f9c614cff565b80611fa7575061202f565b61202761201f6040518060400160405280601281526020017f4572726f722028457865726369736520412900000000000000000000000000008152506040518060400160405280601f81526020017f4572726f72207769746820746573747320696e20457865726369736520412e0081525084610b26565b600080611943565b50612039565b505b3d6000803e3d6000fd5b612065565b80156120555761205082826007611943565b612062565b61206182600080611943565b5b50505b61208f565b61208e6040518060a001604052806062815260200161532e60629139600080611943565b5b600d60009054906101000a900473ffffffffffffffffffffffffffffffffffffffff1673ffffffffffffffffffffffffffffffffffffffff1663cf9d4afa846040518263ffffffff1660e01b81526004016120ea9190613c71565b600060405180830381600087803b15801561210457600080fd5b505af1158015612118573d6000803e3d6000fd5b50505050612182600d60009054906101000a900473ffffffffffffffffffffffffffffffffffffffff166040518060400160405280600f81526020017f7465737445786572636973654228290000000000000000000000000000000000815250633b9aca00612b4e565b1561230b57600d60009054906101000a900473ffffffffffffffffffffffffffffffffffffffff1673ffffffffffffffffffffffffffffffffffffffff16631ccb0c12633b9aca006040518263ffffffff1660e01b815260040160006040518083038185885af19350505050801561221d57506040513d6000823e3d601f19601f8201168201806040525081019061221a9190614c74565b60015b6122df57612229614cdd565b806308c379a0036122ce575061223d614cff565b8061224857506122d0565b6122c86122c06040518060400160405280601281526020017f4572726f722028457865726369736520422900000000000000000000000000008152506040518060400160405280601f81526020017f4572726f72207769746820746573747320696e20457865726369736520422e0081525084610b26565b600080611943565b506122da565b505b3d6000803e3d6000fd5b612306565b80156122f6576122f182826002611943565b612303565b61230282600080611943565b5b50505b612330565b61232f6040518060a00160405280606281526020016152cc60629139600080611943565b5b600e60009054906101000a900473ffffffffffffffffffffffffffffffffffffffff1673ffffffffffffffffffffffffffffffffffffffff1663cf9d4afa846040518263ffffffff1660e01b815260040161238b9190613c71565b600060405180830381600087803b1580156123a557600080fd5b505af11580156123b9573d6000803e3d6000fd5b50505050612423600e60009054906101000a900473ffffffffffffffffffffffffffffffffffffffff166040518060400160405280600f81526020017f7465737445786572636973654328290000000000000000000000000000000000815250633b9aca00612b4e565b156125ac57600e60009054906101000a900473ffffffffffffffffffffffffffffffffffffffff1673ffffffffffffffffffffffffffffffffffffffff16639a304b09633b9aca006040518263ffffffff1660e01b815260040160006040518083038185885af1935050505080156124be57506040513d6000823e3d601f19601f820116820180604052508101906124bb9190614c74565b60015b612580576124ca614cdd565b806308c379a00361256f57506124de614cff565b806124e95750612571565b6125696125616040518060400160405280601281526020017f4572726f722028457865726369736520432900000000000000000000000000008152506040518060400160405280601f81526020017f4572726f72207769746820746573747320696e20457865726369736520432e0081525084610b26565b600080611943565b5061257b565b505b3d6000803e3d6000fd5b6125a7565b80156125975761259282826003611943565b6125a4565b6125a382600080611943565b5b50505b6125d1565b6125d06040518060a001604052806062815260200161526a60629139600080611943565b5b80915050919050565b6000816040516020016125ed9190614d8f565b60405160208183030381529060405280519060200120836040516020016126149190614d8f565b6040516020818303038152906040528051906020012014905092915050565b61263b610f26565b73ffffffffffffffffffffffffffffffffffffffff166324d7806c336040518263ffffffff1660e01b81526004016126739190613c71565b602060405180830381865afa158015612690573d6000803e3d6000fd5b505050506040513d601f19601f820116820180604052508101906126b49190613f07565b6126f3576040517f08c379a00000000000000000000000000000000000000000000000000000000081526004016126ea90614e18565b60405180910390fd5b600073ffffffffffffffffffffffffffffffffffffffff168273ffffffffffffffffffffffffffffffffffffffff1603612762576040517f08c379a000000000000000000000000000000000000000000000000000000000815260040161275990614e84565b60405180910390fd5b3373ffffffffffffffffffffffffffffffffffffffff168273ffffffffffffffffffffffffffffffffffffffff1614806127c757503273ffffffffffffffffffffffffffffffffffffffff168273ffffffffffffffffffffffffffffffffffffffff16145b8061284f57506127d5610f26565b73ffffffffffffffffffffffffffffffffffffffff166324d7806c836040518263ffffffff1660e01b815260040161280d9190614ec5565b602060405180830381865afa15801561282a573d6000803e3d6000fd5b505050506040513d601f19601f8201168201806040525081019061284e9190613f07565b5b61288e576040517f08c379a000000000000000000000000000000000000000000000000000000000815260040161288590614f52565b60405180910390fd5b478110156128d1576040517f08c379a00000000000000000000000000000000000000000000000000000000081526004016128c890614fbe565b60405180910390fd5b60008273ffffffffffffffffffffffffffffffffffffffff16826040516128f79061500f565b60006040518083038185875af1925050503d8060008114612934576040519150601f19603f3d011682016040523d82523d6000602084013e612939565b606091505b505090508061297d576040517f08c379a000000000000000000000000000000000000000000000000000000000815260040161297490615070565b60405180910390fd5b505050565b61298a6132cc565b600960008373ffffffffffffffffffffffffffffffffffffffff1673ffffffffffffffffffffffffffffffffffffffff1681526020019081526020016000206040518060c0016040529081600082015481526020016001820160009054906101000a900473ffffffffffffffffffffffffffffffffffffffff1673ffffffffffffffffffffffffffffffffffffffff1673ffffffffffffffffffffffffffffffffffffffff1681526020016002820160009054906101000a900473ffffffffffffffffffffffffffffffffffffffff1673ffffffffffffffffffffffffffffffffffffffff1673ffffffffffffffffffffffffffffffffffffffff16815260200160038201548152602001600482015481526020016005820160009054906101000a900460ff1615151515815250509050919050565b6000600160003373ffffffffffffffffffffffffffffffffffffffff1673ffffffffffffffffffffffffffffffffffffffff1681526020019081526020016000205403612b4c5743600160003373ffffffffffffffffffffffffffffffffffffffff1673ffffffffffffffffffffffffffffffffffffffff168152602001908152602001600020819055505b565b60008083604051602001612b629190614d8f565b60405160208183030381529060405280519060200120905060008082604051602401604051602081830303815290604052907bffffffffffffffffffffffffffffffffffffffffffffffffffffffff19166020820180517bffffffffffffffffffffffffffffffffffffffffffffffffffffffff83818316178352505050509050600080825160208401888b5af191508193505050509392505050565b612c07610f26565b73ffffffffffffffffffffffffffffffffffffffff16635577210a826040518263ffffffff1660e01b8152600401612c3f9190613c71565b602060405180830381865afa158015612c5c573d6000803e3d6000fd5b505050506040513d601f19601f82011682018060405250810190612c809190613f07565b5060011515612c8e82610a54565b151514612cd0576040517f08c379a0000000000000000000000000000000000000000000000000000000008152600401612cc790615102565b60405180910390fd5b6000600960008373ffffffffffffffffffffffffffffffffffffffff1673ffffffffffffffffffffffffffffffffffffffff1681526020019081526020016000206003015490506000612d21610f26565b73ffffffffffffffffffffffffffffffffffffffff1663f67917796040518163ffffffff1660e01b8152600401602060405180830381865afa158015612d6b573d6000803e3d6000fd5b505050506040513d601f19601f82011682018060405250810190612d8f919061452c565b90508073ffffffffffffffffffffffffffffffffffffffff16639dc29fac84846040518363ffffffff1660e01b8152600401612dcc9291906147f7565b6020604051808303816000875af1158015612deb573d6000803e3d6000fd5b505050506040513d601f19601f82011682018060405250810190612e0f9190613f07565b50600960008473ffffffffffffffffffffffffffffffffffffffff1673ffffffffffffffffffffffffffffffffffffffff1681526020019081526020016000206000808201600090556001820160006101000a81549073ffffffffffffffffffffffffffffffffffffffff02191690556002820160006101000a81549073ffffffffffffffffffffffffffffffffffffffff0219169055600382016000905560048201600090556005820160006101000a81549060ff02191690555050505050565b6000600a60008373ffffffffffffffffffffffffffffffffffffffff1673ffffffffffffffffffffffffffffffffffffffff16815260200190815260200160002060009054906101000a900460ff169050919050565b816000806101000a81548173ffffffffffffffffffffffffffffffffffffffff021916908373ffffffffffffffffffffffffffffffffffffffff1602179055506000612f71610f26565b90508073ffffffffffffffffffffffffffffffffffffffff16637fb99b9330846040518363ffffffff1660e01b8152600401612fae929190615122565b600060405180830381600087803b158015612fc857600080fd5b505af1158015612fdc573d6000803e3d6000fd5b50505050505050565b60075481565b600080612ff783610ad3565b90506000613003610f26565b73ffffffffffffffffffffffffffffffffffffffff1663e07b04946003546004546040518363ffffffff1660e01b8152600401613041929190613fa0565b600060405180830381865afa15801561305e573d6000803e3d6000fd5b505050506040513d6000823e3d601f19601f820116820180604052508101906130879190615220565b6060015190506000613097610f26565b73ffffffffffffffffffffffffffffffffffffffff1663e07b04946003546004546040518363ffffffff1660e01b81526004016130d5929190613fa0565b600060405180830381865afa1580156130f2573d6000803e3d6000fd5b505050506040513d6000823e3d601f19601f8201168201806040525081019061311b9190615220565b6080015190508183101580156131315750808311155b15613142576001935050505061314a565b600093505050505b919050565b600080439050600061315f610f26565b73ffffffffffffffffffffffffffffffffffffffff1663e07b04946003546004546040518363ffffffff1660e01b815260040161319d929190613fa0565b600060405180830381865afa1580156131ba573d6000803e3d6000fd5b505050506040513d6000823e3d601f19601f820116820180604052508101906131e39190615220565b60600151905060006131f3610f26565b73ffffffffffffffffffffffffffffffffffffffff1663e07b04946003546004546040518363ffffffff1660e01b8152600401613231929190613fa0565b600060405180830381865afa15801561324e573d6000803e3d6000fd5b505050506040513d6000823e3d601f19601f820116820180604052508101906132779190615220565b60800151905081831015801561328d5750808311155b1561329e57600193505050506132a6565b600093505050505b90565b604051806060016040528060608152602001600015158152602001600081525090565b6040518060c0016040528060008152602001600073ffffffffffffffffffffffffffffffffffffffff168152602001600073ffffffffffffffffffffffffffffffffffffffff16815260200160008152602001600081526020016000151581525090565b6000604051905090565b600080fd5b600080fd5b6000819050919050565b61335781613344565b811461336257600080fd5b50565b6000813590506133748161334e565b92915050565b600080604083850312156133915761339061333a565b5b600061339f85828601613365565b92505060206133b085828601613365565b9150509250929050565b60008115159050919050565b6133cf816133ba565b82525050565b60006020820190506133ea60008301846133c6565b92915050565b600073ffffffffffffffffffffffffffffffffffffffff82169050919050565b600061341b826133f0565b9050919050565b61342b81613410565b811461343657600080fd5b50565b60008135905061344881613422565b92915050565b6000602082840312156134645761346361333a565b5b600061347284828501613439565b91505092915050565b61348481613344565b82525050565b600060608201905061349f600083018661347b565b6134ac602083018561347b565b6134b960408301846133c6565b949350505050565b60006020820190506134d6600083018461347b565b92915050565b600080fd5b600080fd5b6000601f19601f8301169050919050565b7f4e487b7100000000000000000000000000000000000000000000000000000000600052604160045260246000fd5b61352f826134e6565b810181811067ffffffffffffffff8211171561354e5761354d6134f7565b5b80604052505050565b6000613561613330565b905061356d8282613526565b919050565b600067ffffffffffffffff82111561358d5761358c6134f7565b5b613596826134e6565b9050602081019050919050565b82818337600083830152505050565b60006135c56135c084613572565b613557565b9050828152602081018484840111156135e1576135e06134e1565b5b6135ec8482856135a3565b509392505050565b600082601f830112613609576136086134dc565b5b81356136198482602086016135b2565b91505092915050565b60008060006060848603121561363b5761363a61333a565b5b600084013567ffffffffffffffff8111156136595761365861333f565b5b613665868287016135f4565b935050602084013567ffffffffffffffff8111156136865761368561333f565b5b613692868287016135f4565b925050604084013567ffffffffffffffff8111156136b3576136b261333f565b5b6136bf868287016135f4565b9150509250925092565b600081519050919050565b600082825260208201905092915050565b60005b838110156137035780820151818401526020810190506136e8565b60008484015250505050565b600061371a826136c9565b61372481856136d4565b93506137348185602086016136e5565b61373d816134e6565b840191505092915050565b60006020820190508181036000830152613762818461370f565b905092915050565b6000602082840312156137805761377f61333a565b5b600061378e84828501613365565b91505092915050565b600081519050919050565b600082825260208201905092915050565b6000819050602082019050919050565b600082825260208201905092915050565b60006137df826136c9565b6137e981856137c3565b93506137f98185602086016136e5565b613802816134e6565b840191505092915050565b613816816133ba565b82525050565b61382581613344565b82525050565b6000606083016000830151848203600086015261384882826137d4565b915050602083015161385d602086018261380d565b506040830151613870604086018261381c565b508091505092915050565b6000613887838361382b565b905092915050565b6000602082019050919050565b60006138a782613797565b6138b181856137a2565b9350836020820285016138c3856137b3565b8060005b858110156138ff57848403895281516138e0858261387b565b94506138eb8361388f565b925060208a019950506001810190506138c7565b50829750879550505050505092915050565b6000602082019050818103600083015261392b818461389c565b905092915050565b6000606083016000830151848203600086015261395082826137d4565b9150506020830151613965602086018261380d565b506040830151613978604086018261381c565b508091505092915050565b6000602082019050818103600083015261399d8184613933565b905092915050565b6000819050919050565b60006139ca6139c56139c0846133f0565b6139a5565b6133f0565b9050919050565b60006139dc826139af565b9050919050565b60006139ee826139d1565b9050919050565b6139fe816139e3565b82525050565b6000602082019050613a1960008301846139f5565b92915050565b60008060008060808587031215613a3957613a3861333a565b5b600085013567ffffffffffffffff811115613a5757613a5661333f565b5b613a63878288016135f4565b945050602085013567ffffffffffffffff811115613a8457613a8361333f565b5b613a90878288016135f4565b935050604085013567ffffffffffffffff811115613ab157613ab061333f565b5b613abd878288016135f4565b925050606085013567ffffffffffffffff811115613ade57613add61333f565b5b613aea878288016135f4565b91505092959194509250565b600081519050919050565b600082825260208201905092915050565b6000819050602082019050919050565b6000613b2e838361381c565b60208301905092915050565b6000602082019050919050565b6000613b5282613af6565b613b5c8185613b01565b9350613b6783613b12565b8060005b83811015613b98578151613b7f8882613b22565b9750613b8a83613b3a565b925050600181019050613b6b565b5085935050505092915050565b60006020820190508181036000830152613bbf8184613b47565b905092915050565b613bd0816133ba565b8114613bdb57600080fd5b50565b600081359050613bed81613bc7565b92915050565b600080600060608486031215613c0c57613c0b61333a565b5b600084013567ffffffffffffffff811115613c2a57613c2961333f565b5b613c36868287016135f4565b9350506020613c4786828701613bde565b9250506040613c5886828701613365565b9150509250925092565b613c6b81613410565b82525050565b6000602082019050613c866000830184613c62565b92915050565b60008060408385031215613ca357613ca261333a565b5b600083013567ffffffffffffffff811115613cc157613cc061333f565b5b613ccd858286016135f4565b925050602083013567ffffffffffffffff811115613cee57613ced61333f565b5b613cfa858286016135f4565b9150509250929050565b6000613d0f826133f0565b9050919050565b613d1f81613d04565b8114613d2a57600080fd5b50565b600081359050613d3c81613d16565b92915050565b60008060408385031215613d5957613d5861333a565b5b6000613d6785828601613d2d565b9250506020613d7885828601613365565b9150509250929050565b613d8b81613410565b82525050565b60c082016000820151613da7600085018261381c565b506020820151613dba6020850182613d82565b506040820151613dcd6040850182613d82565b506060820151613de0606085018261381c565b506080820151613df3608085018261381c565b5060a0820151613e0660a085018261380d565b50505050565b600060c082019050613e216000830184613d91565b92915050565b600080600060608486031215613e4057613e3f61333a565b5b6000613e4e86828701613439565b935050602084013567ffffffffffffffff811115613e6f57613e6e61333f565b5b613e7b868287016135f4565b9250506040613e8c86828701613365565b9150509250925092565b60008060408385031215613ead57613eac61333a565b5b6000613ebb85828601613439565b925050602083013567ffffffffffffffff811115613edc57613edb61333f565b5b613ee8858286016135f4565b9150509250929050565b600081519050613f0181613bc7565b92915050565b600060208284031215613f1d57613f1c61333a565b5b6000613f2b84828501613ef2565b91505092915050565b7f53656d657374657220696420646f6573206e6f74206578697374210000000000600082015250565b6000613f6a601b836136d4565b9150613f7582613f34565b602082019050919050565b60006020820190508181036000830152613f9981613f5d565b9050919050565b6000604082019050613fb5600083018561347b565b613fc2602083018461347b565b9392505050565b7f41737369676e6d656e7420696420666f72207468652073656d6573746572206460008201527f6f6573206e6f7420657869737421000000000000000000000000000000000000602082015250565b6000614025602e836136d4565b915061403082613fc9565b604082019050919050565b6000602082019050818103600083015261405481614018565b9050919050565b600081905092915050565b6000614071826136c9565b61407b818561405b565b935061408b8185602086016136e5565b80840191505092915050565b7f3a20000000000000000000000000000000000000000000000000000000000000600082015250565b60006140cd60028361405b565b91506140d882614097565b600282019050919050565b7f203e200000000000000000000000000000000000000000000000000000000000600082015250565b600061411960038361405b565b9150614124826140e3565b600382019050919050565b600061413b8286614066565b9150614146826140c0565b91506141528285614066565b915061415d8261410c565b91506141698284614066565b9150819050949350505050565b7f4e487b7100000000000000000000000000000000000000000000000000000000600052602260045260246000fd5b600060028204905060018216806141bd57607f821691505b6020821081036141d0576141cf614176565b5b50919050565b7f4e487b7100000000000000000000000000000000000000000000000000000000600052601160045260246000fd5b600061421082613344565b915061421b83613344565b9250828203905081811115614233576142326141d6565b5b92915050565b7f4e487b7100000000000000000000000000000000000000000000000000000000600052603260045260246000fd5b600061427382613344565b91507fffffffffffffffffffffffffffffffffffffffffffffffffffffffffffffffff82036142a5576142a46141d6565b5b600182019050919050565b7f2045787065637465643a20000000000000000000000000000000000000000000600082015250565b60006142e6600b8361405b565b91506142f1826142b0565b600b82019050919050565b7f2041637475616c3a200000000000000000000000000000000000000000000000600082015250565b600061433260098361405b565b915061433d826142fc565b600982019050919050565b60006143548287614066565b915061435f826140c0565b915061436b8286614066565b9150614376826142d9565b91506143828285614066565b915061438d82614325565b91506143998284614066565b915081905095945050505050565b7f41737369676e6d656e74204572726f723a2041737369676e6d656e742069732060008201527f6e6f74206c696e6b656420746f20612073656d65737465722120506c6561736560208201527f20636f6e74616374207468652041646d696e2061736170210000000000000000604082015250565b60006144296058836136d4565b9150614434826143a7565b606082019050919050565b600060208201905081810360008301526144588161441c565b9050919050565b7f41737369676e6d656e74204572726f723a2041737369676e6d656e7420616c7260008201527f65616479207375626d6974746564212043616e6e6f74207375626d697420746860208201527f652061737369676e6d656e7420616761696e2100000000000000000000000000604082015250565b60006144e16053836136d4565b91506144ec8261445f565b606082019050919050565b60006020820190508181036000830152614510816144d4565b9050919050565b60008151905061452681613422565b92915050565b6000602082840312156145425761454161333a565b5b600061455084828501614517565b91505092915050565b7f41737369676e6d656e74204572726f723a204f6e6c7920746865206f776e657260008201527f206f662074686520636f6e74726163742063616e207375626d6974207468697360208201527f2061737369676e6d656e74210000000000000000000000000000000000000000604082015250565b60006145db604c836136d4565b91506145e682614559565b606082019050919050565b6000602082019050818103600083015261460a816145ce565b9050919050565b7f41737369676e6d656e74204572726f723a2041737369676e6d656e74206e6f7460008201527f206465706c6f79656420696e207468652072657175697265642061737369676e60208201527f6d656e7420626c6f636b2072616e676521000000000000000000000000000000604082015250565b60006146936051836136d4565b915061469e82614611565b606082019050919050565b600060208201905081810360008301526146c281614686565b9050919050565b7f41737369676e6d656e74204572726f723a2041737369676e6d656e74206e6f7460008201527f207375626d697474656420696e2074686520726571756972656420617373696760208201527f6e6d656e7420626c6f636b2072616e6765210000000000000000000000000000604082015250565b600061474b6052836136d4565b9150614756826146c9565b606082019050919050565b6000602082019050818103600083015261477a8161473e565b9050919050565b600061478c82613344565b915061479783613344565b92508282019050808211156147af576147ae6141d6565b5b92915050565b6000815190506147c48161334e565b92915050565b6000602082840312156147e0576147df61333a565b5b60006147ee848285016147b5565b91505092915050565b600060408201905061480c6000830185613c62565b614819602083018461347b565b9392505050565b60008190508160005260206000209050919050565b60006020601f8301049050919050565b600082821b905092915050565b6000600883026148827fffffffffffffffffffffffffffffffffffffffffffffffffffffffffffffffff82614845565b61488c8683614845565b95508019841693508086168417925050509392505050565b60006148bf6148ba6148b584613344565b6139a5565b613344565b9050919050565b6000819050919050565b6148d9836148a4565b6148ed6148e5826148c6565b848454614852565b825550505050565b600090565b6149026148f5565b61490d8184846148d0565b505050565b5b81811015614931576149266000826148fa565b600181019050614913565b5050565b601f8211156149765761494781614820565b61495084614835565b8101602085101561495f578190505b61497361496b85614835565b830182614912565b50505b505050565b600082821c905092915050565b60006149996000198460080261497b565b1980831691505092915050565b60006149b28383614988565b9150826002028217905092915050565b6149cb826136c9565b67ffffffffffffffff8111156149e4576149e36134f7565b5b6149ee82546141a5565b6149f9828285614935565b600060209050601f831160018114614a2c5760008415614a1a578287015190505b614a2485826149a6565b865550614a8c565b601f198416614a3a86614820565b60005b82811015614a6257848901518255600182019150602085019450602081019050614a3d565b86831015614a7f5784890151614a7b601f891682614988565b8355505b6001600288020188555050505b505050505050565b7f41737369676e6d656e74204572726f723a2041737369676e6d656e742069732060008201527f6e6f74206c696e6b656420746f20612073656d65737465722120506c6561736560208201527f20636f6e747261637420616e2041646d696e2061736170210000000000000000604082015250565b6000614b166058836136d4565b9150614b2182614a94565b606082019050919050565b60006020820190508181036000830152614b4581614b09565b9050919050565b7f41737369676e6d656e74204572726f723a204f6e6c7920746865206f776e657260008201527f206f662074686520636f6e7472616374206f7220616e2061646d696e2063616e60208201527f2076616c696461746520746869732061737369676e6d656e7421000000000000604082015250565b6000614bce605a836136d4565b9150614bd982614b4c565b606082019050919050565b60006020820190508181036000830152614bfd81614bc1565b9050919050565b6000614c17614c1284613572565b613557565b905082815260208101848484011115614c3357614c326134e1565b5b614c3e8482856136e5565b509392505050565b600082601f830112614c5b57614c5a6134dc565b5b8151614c6b848260208601614c04565b91505092915050565b60008060408385031215614c8b57614c8a61333a565b5b600083015167ffffffffffffffff811115614ca957614ca861333f565b5b614cb585828601614c46565b9250506020614cc685828601613ef2565b9150509250929050565b60008160e01c9050919050565b600060033d1115614cfc5760046000803e614cf9600051614cd0565b90505b90565b600060443d10614d8c57614d11613330565b60043d036004823e80513d602482011167ffffffffffffffff82111715614d39575050614d8c565b808201805167ffffffffffffffff811115614d575750505050614d8c565b80602083010160043d038501811115614d74575050505050614d8c565b614d8382602001850186613526565b82955050505050505b90565b6000614d9b8284614066565b915081905092915050565b7f4f6e6c7920636f6e74726163742061646d696e2063616e20776974686472617760008201527f2066756e64730000000000000000000000000000000000000000000000000000602082015250565b6000614e026026836136d4565b9150614e0d82614da6565b604082019050919050565b60006020820190508181036000830152614e3181614df5565b9050919050565b7f496e76616c696420616464726573730000000000000000000000000000000000600082015250565b6000614e6e600f836136d4565b9150614e7982614e38565b602082019050919050565b60006020820190508181036000830152614e9d81614e61565b9050919050565b6000614eaf826139d1565b9050919050565b614ebf81614ea4565b82525050565b6000602082019050614eda6000830184614eb6565b92915050565b7f46756e64732063616e206f6e6c792062652077697468647261776e20746f206160008201527f646d696e2c206d73672e73656e646572206f722074782e6f726967696e000000602082015250565b6000614f3c603d836136d4565b9150614f4782614ee0565b604082019050919050565b60006020820190508181036000830152614f6b81614f2f565b9050919050565b7f496e73756666696369656e742066756e64730000000000000000000000000000600082015250565b6000614fa86012836136d4565b9150614fb382614f72565b602082019050919050565b60006020820190508181036000830152614fd781614f9b565b9050919050565b600081905092915050565b50565b6000614ff9600083614fde565b915061500482614fe9565b600082019050919050565b600061501a82614fec565b9150819050919050565b7f5472616e73666572206661696c65642e00000000000000000000000000000000600082015250565b600061505a6010836136d4565b915061506582615024565b602082019050919050565b600060208201905081810360008301526150898161504d565b9050919050565b7f41737369676e6d656e74206e65656420746f206265206669727374207375626d60008201527f69747465642c20746f2062652072656d6f766564210000000000000000000000602082015250565b60006150ec6035836136d4565b91506150f782615090565b604082019050919050565b6000602082019050818103600083015261511b816150df565b9050919050565b60006040820190506151376000830185613c62565b8181036020830152615149818461370f565b90509392505050565b600080fd5b600080fd5b600060a0828403121561517257615171615152565b5b61517c60a0613557565b9050600082015167ffffffffffffffff81111561519c5761519b615157565b5b6151a884828501614c46565b600083015250602082015167ffffffffffffffff8111156151cc576151cb615157565b5b6151d884828501614c46565b60208301525060406151ec84828501614517565b6040830152506060615200848285016147b5565b6060830152506080615214848285016147b5565b60808301525092915050565b6000602082840312156152365761523561333a565b5b600082015167ffffffffffffffff8111156152545761525361333f565b5b6152608482850161515c565b9150509291505056fe457865726369736520433a20536f6d65206f66207468652072657175697265642066756e6374696f6e7320617265206e6f7420636f72726563746c7920696d706c656d656e7465642e2056616c69646174696f6e206e6f7420706f737369626c6521457865726369736520423a20536f6d65206f66207468652072657175697265642066756e6374696f6e7320617265206e6f7420636f72726563746c7920696d706c656d656e7465642e2056616c69646174696f6e206e6f7420706f737369626c6521457865726369736520413a20536f6d65206f66207468652072657175697265642066756e6374696f6e7320617265206e6f7420636f72726563746c7920696d706c656d656e7465642e2056616c69646174696f6e206e6f7420706f737369626c6521a26469706673582212205975e27d08c7a7fe3244e4873db5ec4d532eda64f99d946f13832cf63559dbcc64736f6c6343000811003360806040523480156200001157600080fd5b506040516200309b3803806200309b8339818101604052810190620000379190620001c6565b62000062816040518060600160405280602d81526020016200306e602d91396200006960201b60201c565b50620002d7565b816000806101000a81548173ffffffffffffffffffffffffffffffffffffffff021916908373ffffffffffffffffffffffffffffffffffffffff1602179055506000620000bb6200013360201b60201c565b90508073ffffffffffffffffffffffffffffffffffffffff16637fb99b9330846040518363ffffffff1660e01b8152600401620000fa929190620002a3565b600060405180830381600087803b1580156200011557600080fd5b505af11580156200012a573d6000803e3d6000fd5b50505050505050565b60008060009054906101000a900473ffffffffffffffffffffffffffffffffffffffff16905090565b600080fd5b600073ffffffffffffffffffffffffffffffffffffffff82169050919050565b60006200018e8262000161565b9050919050565b620001a08162000181565b8114620001ac57600080fd5b50565b600081519050620001c08162000195565b92915050565b600060208284031215620001df57620001de6200015c565b5b6000620001ef84828501620001af565b91505092915050565b620002038162000181565b82525050565b600081519050919050565b600082825260208201905092915050565b60005b838110156200024557808201518184015260208101905062000228565b60008484015250505050565b6000601f19601f8301169050919050565b60006200026f8262000209565b6200027b818562000214565b93506200028d81856020860162000225565b620002988162000251565b840191505092915050565b6000604082019050620002ba6000830185620001f8565b8181036020830152620002ce818462000262565b90509392505050565b612d8780620002e76000396000f3fe6080604052600436106100955760003560e01c8063c107532911610059578063c1075329146101a2578063cf9d4afa146101be578063cfacdce8146101e7578063f24bce0814610206578063fae45fbe146102255761009c565b80632b518301146100a1578063516cbbe2146100de5780635827a065146101095780639383f55c14610146578063bed34bba146101655761009c565b3661009c57005b600080fd5b3480156100ad57600080fd5b506100c860048036038101906100c39190611a97565b61024e565b6040516100d59190611bbd565b60405180910390f35b3480156100ea57600080fd5b506100f361027d565b6040516101009190611c5e565b60405180910390f35b34801561011557600080fd5b50610130600480360381019061012b9190611c79565b6102a6565b60405161013d9190611bbd565b60405180910390f35b61014e6102d8565b60405161015c929190611d6b565b60405180910390f35b34801561017157600080fd5b5061018c60048036038101906101879190611d9b565b61124d565b6040516101999190611e13565b60405180910390f35b6101bc60048036038101906101b79190611ea2565b6112a6565b005b3480156101ca57600080fd5b506101e560048036038101906101e09190611f20565b6115f5565b005b6101ef611639565b6040516101fd929190611d6b565b60405180910390f35b61020e6116c9565b60405161021c929190611d6b565b60405180910390f35b34801561023157600080fd5b5061024c60048036038101906102479190611f4d565b61187f565b005b60608383836040516020016102659392919061207d565b60405160208183030381529060405290509392505050565b60008060009054906101000a900473ffffffffffffffffffffffffffffffffffffffff16905090565b6060848484846040516020016102bf949392919061215c565b6040516020818303038152906040529050949350505050565b6060600080600160009054906101000a900473ffffffffffffffffffffffffffffffffffffffff1673ffffffffffffffffffffffffffffffffffffffff1663893d20e86040518163ffffffff1660e01b81526004016020604051808303816000875af115801561034c573d6000803e3d6000fd5b505050506040513d601f19601f8201168201806040525081019061037091906121d0565b90506000309050600160009054906101000a900473ffffffffffffffffffffffffffffffffffffffff1673ffffffffffffffffffffffffffffffffffffffff16638b680cc36040518163ffffffff1660e01b8152600401600060405180830381600087803b1580156103e157600080fd5b505af19250505080156103f2575060015b61048f576103fe61220a565b806308c379a003610483575061041261222c565b8061041d5750610485565b6104756040518060400160405280601281526020017f4572726f72202845786572636973652041290000000000000000000000000000815250604051806060016040528060218152602001612ad2602191398361024e565b600094509450505050611249565b505b3d6000803e3d6000fd5b6000600160009054906101000a900473ffffffffffffffffffffffffffffffffffffffff1673ffffffffffffffffffffffffffffffffffffffff1631905060006103e89050600160009054906101000a900473ffffffffffffffffffffffffffffffffffffffff1673ffffffffffffffffffffffffffffffffffffffff1663e1d1882b8286866040518463ffffffff1660e01b81526004016105329291906122cb565b6000604051808303818588803b15801561054b57600080fd5b505af19350505050801561055d575060015b6105fc5761056961220a565b806308c379a0036105f0575061057d61222c565b8061058857506105f2565b6105e06040518060400160405280601281526020017f4572726f72202845786572636973652041290000000000000000000000000000815250604051806060016040528060228152602001612ab0602291398361024e565b6000965096505050505050611249565b505b3d6000803e3d6000fd5b6000600160009054906101000a900473ffffffffffffffffffffffffffffffffffffffff1673ffffffffffffffffffffffffffffffffffffffff1631905081836106469190612323565b81146106cc576106bc6040518060400160405280601281526020017f4572726f72202845786572636973652041290000000000000000000000000000815250604051806060016040528060228152602001612ab0602291396040518060600160405280602b8152602001612cd6602b913961024e565b6000965096505050505050611249565b600160009054906101000a900473ffffffffffffffffffffffffffffffffffffffff1673ffffffffffffffffffffffffffffffffffffffff1663e1d1882b8387876040518463ffffffff1660e01b815260040161072a9291906122cb565b6000604051808303818588803b15801561074357600080fd5b505af193505050508015610755575060015b156107da576107ca6040518060400160405280601281526020017f4572726f72202845786572636973652041290000000000000000000000000000815250604051806060016040528060228152602001612ab0602291396040518060600160405280602a8152602001612d01602a913961024e565b6000965096505050505050611249565b6000600160009054906101000a900473ffffffffffffffffffffffffffffffffffffffff1673ffffffffffffffffffffffffffffffffffffffff166302a569e660006040518263ffffffff1660e01b81526004016108389190612392565b6000604051808303816000875af1158015610857573d6000803e3d6000fd5b505050506040513d6000823e3d601f19601f82011682018060405250810190610880919061244e565b90506000600160009054906101000a900473ffffffffffffffffffffffffffffffffffffffff1673ffffffffffffffffffffffffffffffffffffffff1663c5bacb9660006040518263ffffffff1660e01b81526004016108e09190612392565b6020604051808303816000875af11580156108ff573d6000803e3d6000fd5b505050506040513d601f19601f8201168201806040525081019061092391906124ac565b9050600081036109af5761099d6040518060400160405280601281526020017f4572726f72202845786572636973652041290000000000000000000000000000815250604051806060016040528060268152602001612c0e60269139604051806080016040528060448152602001612a6c6044913961024e565b60009850985050505050505050611249565b6000825103610a3a57610a286040518060400160405280601281526020017f4572726f72202845786572636973652041290000000000000000000000000000815250604051806060016040528060238152602001612a0860239139604051806080016040528060448152602001612a6c6044913961024e565b60009850985050505050505050611249565b83811115610a6e5760006040518060a00160405280607f8152602001612c57607f9139909850985050505050505050611249565b600160009054906101000a900473ffffffffffffffffffffffffffffffffffffffff1673ffffffffffffffffffffffffffffffffffffffff166339c42fe382846040518363ffffffff1660e01b8152600401610acb92919061253d565b602060405180830381865afa925050508015610b0557506040513d601f19601f82011682018060405250810190610b029190612599565b60015b610ba757610b1161220a565b806308c379a003610b9b5750610b2561222c565b80610b305750610b9d565b610b886040518060400160405280601281526020017f4572726f72202845786572636973652041290000000000000000000000000000815250604051806060016040528060278152602001612d2b602791398361024e565b6000995099505050505050505050611249565b505b3d6000803e3d6000fd5b6000151581151503610c3657610c236040518060400160405280601281526020017f4572726f72202845786572636973652041290000000000000000000000000000815250604051806060016040528060278152602001612d2b60279139604051806080016040528060448152602001612a6c6044913961024e565b6000995099505050505050505050611249565b50600160009054906101000a900473ffffffffffffffffffffffffffffffffffffffff1673ffffffffffffffffffffffffffffffffffffffff166339c42fe36b02f2ffc55ae23537cee00000846040518363ffffffff1660e01b8152600401610ca0929190612601565b602060405180830381865afa925050508015610cda57506040513d601f19601f82011682018060405250810190610cd79190612599565b60015b610d7c57610ce661220a565b806308c379a003610d705750610cfa61222c565b80610d055750610d72565b610d5d6040518060400160405280601281526020017f4572726f72202845786572636973652041290000000000000000000000000000815250604051806060016040528060278152602001612d2b602791398361024e565b6000995099505050505050505050611249565b505b3d6000803e3d6000fd5b6001151581151503610e0b57610df86040518060400160405280601281526020017f4572726f72202845786572636973652041290000000000000000000000000000815250604051806060016040528060278152602001612d2b602791396040518060800160405280605d8152602001612bb1605d913961024e565b6000995099505050505050505050611249565b5060008673ffffffffffffffffffffffffffffffffffffffff16319050600160009054906101000a900473ffffffffffffffffffffffffffffffffffffffff1673ffffffffffffffffffffffffffffffffffffffff16630dd703d983856040518363ffffffff1660e01b8152600401610e8592919061253d565b600060405180830381600087803b158015610e9f57600080fd5b505af1925050508015610eb0575060015b610f5357610ebc61220a565b806308c379a003610f475750610ed061222c565b80610edb5750610f49565b610f336040518060400160405280601281526020017f4572726f72202845786572636973652041290000000000000000000000000000815250604051806060016040528060238152602001612c34602391398361024e565b60009a509a50505050505050505050611249565b505b3d6000803e3d6000fd5b60008773ffffffffffffffffffffffffffffffffffffffff163190508282610f7b9190612323565b811461100557610ff16040518060400160405280601281526020017f4572726f72202845786572636973652041290000000000000000000000000000815250604051806060016040528060238152602001612c3460239139604051806060016040528060218152602001612b1c6021913961024e565b60009a509a50505050505050505050611249565b600160009054906101000a900473ffffffffffffffffffffffffffffffffffffffff1673ffffffffffffffffffffffffffffffffffffffff16630dd703d984866040518363ffffffff1660e01b815260040161106292919061253d565b600060405180830381600087803b15801561107c57600080fd5b505af192505050801561108d575060015b156111335761111f6040518060400160405280601281526020017f4572726f72202845786572636973652041290000000000000000000000000000815250604051806060016040528060238152602001612c34602391396040518060400160405280601a81526020017f4368616e6e656c20697320616c726561647920636c6f7365642e00000000000081525061024e565b60009a509a50505050505050505050611249565b828561113f9190612631565b600160009054906101000a900473ffffffffffffffffffffffffffffffffffffffff1673ffffffffffffffffffffffffffffffffffffffff163114611202576111ee6040518060400160405280601281526020017f4572726f72202845786572636973652041290000000000000000000000000000815250604051806060016040528060238152602001612c3460239139604051806080016040528060418152602001612a2b6041913961024e565b60009a509a50505050505050505050611249565b60016040518060400160405280601d81526020017f457865726369736520413a20416c6c207465737473207061737365642e000000815250909a509a505050505050505050505b9091565b6000816040516020016112609190612665565b60405160208183030381529060405280519060200120836040516020016112879190612665565b6040516020818303038152906040528051906020012014905092915050565b6112ae61027d565b73ffffffffffffffffffffffffffffffffffffffff166324d7806c336040518263ffffffff1660e01b81526004016112e6919061267c565b602060405180830381865afa158015611303573d6000803e3d6000fd5b505050506040513d601f19601f820116820180604052508101906113279190612599565b611366576040517f08c379a000000000000000000000000000000000000000000000000000000000815260040161135d90612709565b60405180910390fd5b600073ffffffffffffffffffffffffffffffffffffffff168273ffffffffffffffffffffffffffffffffffffffff16036113d5576040517f08c379a00000000000000000000000000000000000000000000000000000000081526004016113cc90612775565b60405180910390fd5b3373ffffffffffffffffffffffffffffffffffffffff168273ffffffffffffffffffffffffffffffffffffffff16148061143a57503273ffffffffffffffffffffffffffffffffffffffff168273ffffffffffffffffffffffffffffffffffffffff16145b806114c2575061144861027d565b73ffffffffffffffffffffffffffffffffffffffff166324d7806c836040518263ffffffff1660e01b815260040161148091906127b6565b602060405180830381865afa15801561149d573d6000803e3d6000fd5b505050506040513d601f19601f820116820180604052508101906114c19190612599565b5b611501576040517f08c379a00000000000000000000000000000000000000000000000000000000081526004016114f890612843565b60405180910390fd5b47811015611544576040517f08c379a000000000000000000000000000000000000000000000000000000000815260040161153b906128af565b60405180910390fd5b60008273ffffffffffffffffffffffffffffffffffffffff168260405161156a90612900565b60006040518083038185875af1925050503d80600081146115a7576040519150601f19603f3d011682016040523d82523d6000602084013e6115ac565b606091505b50509050806115f0576040517f08c379a00000000000000000000000000000000000000000000000000000000081526004016115e790612961565b60405180910390fd5b505050565b80600160006101000a81548173ffffffffffffffffffffffffffffffffffffffff021916908373ffffffffffffffffffffffffffffffffffffffff16021790555050565b606060008060006116486102d8565b915091508061165f578160009350935050506116c5565b60008061166a6116c9565b91509150806116835781600095509550505050506116c5565b60016040518060400160405280601d81526020017f457865726369736520413a20416c6c207465737473207061737365642e0000008152509095509550505050505b9091565b6060600080600160009054906101000a900473ffffffffffffffffffffffffffffffffffffffff1673ffffffffffffffffffffffffffffffffffffffff166302a569e660006040518263ffffffff1660e01b815260040161172a9190612392565b6000604051808303816000875af1158015611749573d6000803e3d6000fd5b505050506040513d6000823e3d601f19601f82011682018060405250810190611772919061244e565b90506000600160009054906101000a900473ffffffffffffffffffffffffffffffffffffffff1673ffffffffffffffffffffffffffffffffffffffff166302a569e660016040518263ffffffff1660e01b81526004016117d291906129bc565b6000604051808303816000875af11580156117f1573d6000803e3d6000fd5b505050506040513d6000823e3d601f19601f8201168201806040525081019061181a919061244e565b905080805190602001208280519060200120036118585760006040518060a0016040528060748152602001612b3d607491399093509350505061187b565b6001604051806060016040528060298152602001612af360299139909350935050505b9091565b816000806101000a81548173ffffffffffffffffffffffffffffffffffffffff021916908373ffffffffffffffffffffffffffffffffffffffff16021790555060006118c961027d565b90508073ffffffffffffffffffffffffffffffffffffffff16637fb99b9330846040518363ffffffff1660e01b81526004016119069291906129d7565b600060405180830381600087803b15801561192057600080fd5b505af1158015611934573d6000803e3d6000fd5b50505050505050565b6000604051905090565b600080fd5b600080fd5b600080fd5b600080fd5b6000601f19601f8301169050919050565b7f4e487b7100000000000000000000000000000000000000000000000000000000600052604160045260246000fd5b6119a48261195b565b810181811067ffffffffffffffff821117156119c3576119c261196c565b5b80604052505050565b60006119d661193d565b90506119e2828261199b565b919050565b600067ffffffffffffffff821115611a0257611a0161196c565b5b611a0b8261195b565b9050602081019050919050565b82818337600083830152505050565b6000611a3a611a35846119e7565b6119cc565b905082815260208101848484011115611a5657611a55611956565b5b611a61848285611a18565b509392505050565b600082601f830112611a7e57611a7d611951565b5b8135611a8e848260208601611a27565b91505092915050565b600080600060608486031215611ab057611aaf611947565b5b600084013567ffffffffffffffff811115611ace57611acd61194c565b5b611ada86828701611a69565b935050602084013567ffffffffffffffff811115611afb57611afa61194c565b5b611b0786828701611a69565b925050604084013567ffffffffffffffff811115611b2857611b2761194c565b5b611b3486828701611a69565b9150509250925092565b600081519050919050565b600082825260208201905092915050565b60005b83811015611b78578082015181840152602081019050611b5d565b60008484015250505050565b6000611b8f82611b3e565b611b998185611b49565b9350611ba9818560208601611b5a565b611bb28161195b565b840191505092915050565b60006020820190508181036000830152611bd78184611b84565b905092915050565b600073ffffffffffffffffffffffffffffffffffffffff82169050919050565b6000819050919050565b6000611c24611c1f611c1a84611bdf565b611bff565b611bdf565b9050919050565b6000611c3682611c09565b9050919050565b6000611c4882611c2b565b9050919050565b611c5881611c3d565b82525050565b6000602082019050611c736000830184611c4f565b92915050565b60008060008060808587031215611c9357611c92611947565b5b600085013567ffffffffffffffff811115611cb157611cb061194c565b5b611cbd87828801611a69565b945050602085013567ffffffffffffffff811115611cde57611cdd61194c565b5b611cea87828801611a69565b935050604085013567ffffffffffffffff811115611d0b57611d0a61194c565b5b611d1787828801611a69565b925050606085013567ffffffffffffffff811115611d3857611d3761194c565b5b611d4487828801611a69565b91505092959194509250565b60008115159050919050565b611d6581611d50565b82525050565b60006040820190508181036000830152611d858185611b84565b9050611d946020830184611d5c565b9392505050565b60008060408385031215611db257611db1611947565b5b600083013567ffffffffffffffff811115611dd057611dcf61194c565b5b611ddc85828601611a69565b925050602083013567ffffffffffffffff811115611dfd57611dfc61194c565b5b611e0985828601611a69565b9150509250929050565b6000602082019050611e286000830184611d5c565b92915050565b6000611e3982611bdf565b9050919050565b611e4981611e2e565b8114611e5457600080fd5b50565b600081359050611e6681611e40565b92915050565b6000819050919050565b611e7f81611e6c565b8114611e8a57600080fd5b50565b600081359050611e9c81611e76565b92915050565b60008060408385031215611eb957611eb8611947565b5b6000611ec785828601611e57565b9250506020611ed885828601611e8d565b9150509250929050565b6000611eed82611bdf565b9050919050565b611efd81611ee2565b8114611f0857600080fd5b50565b600081359050611f1a81611ef4565b92915050565b600060208284031215611f3657611f35611947565b5b6000611f4484828501611f0b565b91505092915050565b60008060408385031215611f6457611f63611947565b5b6000611f7285828601611f0b565b925050602083013567ffffffffffffffff811115611f9357611f9261194c565b5b611f9f85828601611a69565b9150509250929050565b600081905092915050565b6000611fbf82611b3e565b611fc98185611fa9565b9350611fd9818560208601611b5a565b80840191505092915050565b7f3a20000000000000000000000000000000000000000000000000000000000000600082015250565b600061201b600283611fa9565b915061202682611fe5565b600282019050919050565b7f203e200000000000000000000000000000000000000000000000000000000000600082015250565b6000612067600383611fa9565b915061207282612031565b600382019050919050565b60006120898286611fb4565b91506120948261200e565b91506120a08285611fb4565b91506120ab8261205a565b91506120b78284611fb4565b9150819050949350505050565b7f2045787065637465643a20000000000000000000000000000000000000000000600082015250565b60006120fa600b83611fa9565b9150612105826120c4565b600b82019050919050565b7f2041637475616c3a200000000000000000000000000000000000000000000000600082015250565b6000612146600983611fa9565b915061215182612110565b600982019050919050565b60006121688287611fb4565b91506121738261200e565b915061217f8286611fb4565b915061218a826120ed565b91506121968285611fb4565b91506121a182612139565b91506121ad8284611fb4565b915081905095945050505050565b6000815190506121ca81611ef4565b92915050565b6000602082840312156121e6576121e5611947565b5b60006121f4848285016121bb565b91505092915050565b60008160e01c9050919050565b600060033d11156122295760046000803e6122266000516121fd565b90505b90565b600060443d106122b95761223e61193d565b60043d036004823e80513d602482011167ffffffffffffffff821117156122665750506122b9565b808201805167ffffffffffffffff81111561228457505050506122b9565b80602083010160043d0385018111156122a15750505050506122b9565b6122b08260200185018661199b565b82955050505050505b90565b6122c581611ee2565b82525050565b60006040820190506122e060008301856122bc565b6122ed60208301846122bc565b9392505050565b7f4e487b7100000000000000000000000000000000000000000000000000000000600052601160045260246000fd5b600061232e82611e6c565b915061233983611e6c565b9250828201905080821115612351576123506122f4565b5b92915050565b6000819050919050565b600061237c61237761237284612357565b611bff565b611e6c565b9050919050565b61238c81612361565b82525050565b60006020820190506123a76000830184612383565b92915050565b600067ffffffffffffffff8211156123c8576123c761196c565b5b6123d18261195b565b9050602081019050919050565b60006123f16123ec846123ad565b6119cc565b90508281526020810184848401111561240d5761240c611956565b5b612418848285611b5a565b509392505050565b600082601f83011261243557612434611951565b5b81516124458482602086016123de565b91505092915050565b60006020828403121561246457612463611947565b5b600082015167ffffffffffffffff8111156124825761248161194c565b5b61248e84828501612420565b91505092915050565b6000815190506124a681611e76565b92915050565b6000602082840312156124c2576124c1611947565b5b60006124d084828501612497565b91505092915050565b6124e281611e6c565b82525050565b600081519050919050565b600082825260208201905092915050565b600061250f826124e8565b61251981856124f3565b9350612529818560208601611b5a565b6125328161195b565b840191505092915050565b600060408201905061255260008301856124d9565b81810360208301526125648184612504565b90509392505050565b61257681611d50565b811461258157600080fd5b50565b6000815190506125938161256d565b92915050565b6000602082840312156125af576125ae611947565b5b60006125bd84828501612584565b91505092915050565b6000819050919050565b60006125eb6125e66125e1846125c6565b611bff565b611e6c565b9050919050565b6125fb816125d0565b82525050565b600060408201905061261660008301856125f2565b81810360208301526126288184612504565b90509392505050565b600061263c82611e6c565b915061264783611e6c565b925082820390508181111561265f5761265e6122f4565b5b92915050565b60006126718284611fb4565b915081905092915050565b600060208201905061269160008301846122bc565b92915050565b7f4f6e6c7920636f6e74726163742061646d696e2063616e20776974686472617760008201527f2066756e64730000000000000000000000000000000000000000000000000000602082015250565b60006126f3602683611b49565b91506126fe82612697565b604082019050919050565b60006020820190508181036000830152612722816126e6565b9050919050565b7f496e76616c696420616464726573730000000000000000000000000000000000600082015250565b600061275f600f83611b49565b915061276a82612729565b602082019050919050565b6000602082019050818103600083015261278e81612752565b9050919050565b60006127a082611c2b565b9050919050565b6127b081612795565b82525050565b60006020820190506127cb60008301846127a7565b92915050565b7f46756e64732063616e206f6e6c792062652077697468647261776e20746f206160008201527f646d696e2c206d73672e73656e646572206f722074782e6f726967696e000000602082015250565b600061282d603d83611b49565b9150612838826127d1565b604082019050919050565b6000602082019050818103600083015261285c81612820565b9050919050565b7f496e73756666696369656e742066756e64730000000000000000000000000000600082015250565b6000612899601283611b49565b91506128a482612863565b602082019050919050565b600060208201905081810360008301526128c88161288c565b9050919050565b600081905092915050565b50565b60006128ea6000836128cf565b91506128f5826128da565b600082019050919050565b600061290b826128dd565b9150819050919050565b7f5472616e73666572206661696c65642e00000000000000000000000000000000600082015250565b600061294b601083611b49565b915061295682612915565b602082019050919050565b6000602082019050818103600083015261297a8161293e565b9050919050565b6000819050919050565b60006129a66129a161299c84612981565b611bff565b611e6c565b9050919050565b6129b68161298b565b82525050565b60006020820190506129d160008301846129ad565b92915050565b60006040820190506129ec60008301856122bc565b81810360208301526129fe8184611b84565b9050939250505056fe4572726f722077697468206765745369676e617475726528292066756e6374696f6e2e4c656674206f766572206574686572206973206e6f7420696e206368616e6e656c20636f6e74726163742e2057726f6e67206574686572207472616e73666572215468652073746f726564207369676e6174757265207769746820696e6465783a2030206973206e6f742076616c69642e2045787065637420746f2062652076616c69642e4572726f722077697468206f70656e4368616e6e656c28292066756e6374696f6e2e4572726f72207769746820666f726365526573657428292066756e6374696f6e2e4578657263697365204120285369676e6174757265293a20416c6c207465737473207061737365642e42616c616e6365206f662073656e646572206973206e6f7420636f72726563742e4572726f72202845786572636973652041202d205369676e6174757265293a20546865207369676e61747572657320617265207468652073616d652e20506c65617365206f766572726964652074686520696e64657820302077697468206120646966666572656e74207369676e61747572652e5468652066756e6374696f6e2072657475726e656420747275652c2062757420746865207369676e617475726520696e20636f6d62696e6174696f6e20776974682074686520657468416d6f756e74206973206e6f742076616c69642e4572726f722077697468206765745369676e617475726545746828292066756e6374696f6e2e4572726f72207769746820636c6f73654368616e6e656c28292066756e6374696f6e2e4572726f72202845786572636973652041293a2054686520616d6f756e74206f66206574686572207369676e6564207769746820746865207369676e617475726520697320746f6f20686967682e20506c65617365206f766572726964652074686520696e646578203020776974682061206c6f77657220616d6f756e742e42616c616e6365206f66206368616e6e656c20636f6e7472616374206973206e6f7420636f72726563742e4f6e6c79206f6e65206368616e6e656c2063616e206265206f70656e656e6420617420612074696d652e4572726f722077697468207665726966795061796d656e744d736728292066756e6374696f6e2ea2646970667358221220df5aed38b832fec761f2d6e507d263c045cd5e6255c03e097bc009d0c4673b6f64736f6c63430008110033535332332041737369676e6d656e7420332056616c696461746f7220436f6e7472616374202d205461736b204160806040523480156200001157600080fd5b5060405162002668380380620026688339818101604052810190620000379190620001c6565b62000062816040518060600160405280602d81526020016200263b602d91396200006960201b60201c565b50620002d7565b816000806101000a81548173ffffffffffffffffffffffffffffffffffffffff021916908373ffffffffffffffffffffffffffffffffffffffff1602179055506000620000bb6200013360201b60201c565b90508073ffffffffffffffffffffffffffffffffffffffff16637fb99b9330846040518363ffffffff1660e01b8152600401620000fa929190620002a3565b600060405180830381600087803b1580156200011557600080fd5b505af11580156200012a573d6000803e3d6000fd5b50505050505050565b60008060009054906101000a900473ffffffffffffffffffffffffffffffffffffffff16905090565b600080fd5b600073ffffffffffffffffffffffffffffffffffffffff82169050919050565b60006200018e8262000161565b9050919050565b620001a08162000181565b8114620001ac57600080fd5b50565b600081519050620001c08162000195565b92915050565b600060208284031215620001df57620001de6200015c565b5b6000620001ef84828501620001af565b91505092915050565b620002038162000181565b82525050565b600081519050919050565b600082825260208201905092915050565b60005b838110156200024557808201518184015260208101905062000228565b60008484015250505050565b6000601f19601f8301169050919050565b60006200026f8262000209565b6200027b818562000214565b93506200028d81856020860162000225565b620002988162000251565b840191505092915050565b6000604082019050620002ba6000830185620001f8565b8181036020830152620002ce818462000262565b90509392505050565b61235480620002e76000396000f3fe6080604052600436106100955760003560e01c80637d90c185116100595780637d90c18514610184578063bed34bba146101a3578063c1075329146101e0578063cf9d4afa146101fc578063fae45fbe146102255761009c565b80631ccb0c12146100a15780632b518301146100c05780634c83f277146100fd578063516cbbe21461011c5780635827a065146101475761009c565b3661009c57005b600080fd5b6100a961024e565b6040516100b79291906112a4565b60405180910390f35b3480156100cc57600080fd5b506100e760048036038101906100e2919061141d565b6102de565b6040516100f491906114c4565b60405180910390f35b61010561030d565b6040516101139291906112a4565b60405180910390f35b34801561012857600080fd5b50610131610699565b60405161013e9190611565565b60405180910390f35b34801561015357600080fd5b5061016e60048036038101906101699190611580565b6106c2565b60405161017b91906114c4565b60405180910390f35b61018c6106f4565b60405161019a9291906112a4565b60405180910390f35b3480156101af57600080fd5b506101ca60048036038101906101c59190611657565b610d4f565b6040516101d791906116cf565b60405180910390f35b6101fa60048036038101906101f5919061175e565b610da8565b005b34801561020857600080fd5b50610223600480360381019061021e91906117dc565b6110f7565b005b34801561023157600080fd5b5061024c60048036038101906102479190611809565b61113b565b005b6060600080600061025d61030d565b9150915080610274578160009350935050506102da565b60008061027f6106f4565b91509150806102985781600095509550505050506102da565b60016040518060400160405280601d81526020017f457865726369736520423a20416c6c207465737473207061737365642e0000008152509095509550505050505b9091565b60608383836040516020016102f593929190611939565b60405160208183030381529060405290509392505050565b6060600080600160009054906101000a900473ffffffffffffffffffffffffffffffffffffffff1673ffffffffffffffffffffffffffffffffffffffff1663893d20e86040518163ffffffff1660e01b81526004016020604051808303816000875af1158015610381573d6000803e3d6000fd5b505050506040513d601f19601f820116820180604052508101906103a59190611995565b90506000309050600160009054906101000a900473ffffffffffffffffffffffffffffffffffffffff1673ffffffffffffffffffffffffffffffffffffffff16638b680cc36040518163ffffffff1660e01b8152600401600060405180830381600087803b15801561041657600080fd5b505af1925050508015610427575060015b6104a7576104336119cf565b806308c379a00361049b57506104476119f1565b80610452575061049d565b61048d604051806060016040528060268152602001612216602691396040518060600160405280602181526020016121f560219139836102de565b600094509450505050610695565b505b3d6000803e3d6000fd5b60006103e89050600160009054906101000a900473ffffffffffffffffffffffffffffffffffffffff1673ffffffffffffffffffffffffffffffffffffffff1663e1d1882b8285856040518463ffffffff1660e01b815260040161050c929190611a90565b6000604051808303818588803b15801561052557600080fd5b505af193505050508015610537575060015b6105b8576105436119cf565b806308c379a0036105ac57506105576119f1565b8061056257506105ae565b61059d604051806060016040528060268152602001612216602691396040518060600160405280602281526020016121af60229139836102de565b60009550955050505050610695565b505b3d6000803e3d6000fd5b600160009054906101000a900473ffffffffffffffffffffffffffffffffffffffff1673ffffffffffffffffffffffffffffffffffffffff16631ee01d01828585600a6040518563ffffffff1660e01b815260040161061993929190611af4565b6000604051808303818588803b15801561063257600080fd5b505af193505050508015610644575060015b156106715760006040518060a001604052806075815260200161213a607591399094509450505050610695565b60016040518060600160405280603181526020016122656031913990945094505050505b9091565b60008060009054906101000a900473ffffffffffffffffffffffffffffffffffffffff16905090565b6060848484846040516020016106db9493929190611bc3565b6040516020818303038152906040529050949350505050565b6060600080600160009054906101000a900473ffffffffffffffffffffffffffffffffffffffff1673ffffffffffffffffffffffffffffffffffffffff1663893d20e86040518163ffffffff1660e01b81526004016020604051808303816000875af1158015610768573d6000803e3d6000fd5b505050506040513d601f19601f8201168201806040525081019061078c9190611995565b90506000309050600160009054906101000a900473ffffffffffffffffffffffffffffffffffffffff1673ffffffffffffffffffffffffffffffffffffffff16638b680cc36040518163ffffffff1660e01b8152600401600060405180830381600087803b1580156107fd57600080fd5b505af192505050801561080e575060015b6108ab5761081a6119cf565b806308c379a00361089f575061082e6119f1565b8061083957506108a1565b6108916040518060400160405280601c81526020017f4572726f72202845786572636973652042202d2074696d656f757429000000008152506040518060600160405280602181526020016121f560219139836102de565b600094509450505050610d4b565b505b3d6000803e3d6000fd5b600160009054906101000a900473ffffffffffffffffffffffffffffffffffffffff1673ffffffffffffffffffffffffffffffffffffffff1663a8c3c8506103e86040518263ffffffff1660e01b81526004016109089190611c5d565b600060405180830381600087803b15801561092257600080fd5b505af1158015610936573d6000803e3d6000fd5b5050505060006103e89050600160009054906101000a900473ffffffffffffffffffffffffffffffffffffffff1673ffffffffffffffffffffffffffffffffffffffff16631ee01d0182858560016040518563ffffffff1660e01b81526004016109a293929190611cb3565b6000604051808303818588803b1580156109bb57600080fd5b505af1935050505080156109cd575060015b610a6b576109d96119cf565b806308c379a003610a5f57506109ed6119f1565b806109f85750610a61565b610a506040518060400160405280601c81526020017f4572726f72202845786572636973652042202d2074696d656f7574290000000081525060405180606001604052806029815260200161223c60299139836102de565b60009550955050505050610d4b565b505b3d6000803e3d6000fd5b600160009054906101000a900473ffffffffffffffffffffffffffffffffffffffff1673ffffffffffffffffffffffffffffffffffffffff16631184327e6040518163ffffffff1660e01b8152600401600060405180830381600087803b158015610ad557600080fd5b505af1925050508015610ae6575060015b15610b135760006040518060a00160405280606281526020016122bd606291399094509450505050610d4b565b600160009054906101000a900473ffffffffffffffffffffffffffffffffffffffff1673ffffffffffffffffffffffffffffffffffffffff1663a8c3c8506103ed6040518263ffffffff1660e01b8152600401610b709190611d25565b600060405180830381600087803b158015610b8a57600080fd5b505af1158015610b9e573d6000803e3d6000fd5b5050505060008273ffffffffffffffffffffffffffffffffffffffff16319050600160009054906101000a900473ffffffffffffffffffffffffffffffffffffffff1673ffffffffffffffffffffffffffffffffffffffff16631184327e6040518163ffffffff1660e01b8152600401600060405180830381600087803b158015610c2857600080fd5b505af1925050508015610c39575060015b610cd857610c456119cf565b806308c379a003610ccc5750610c596119f1565b80610c645750610cce565b610cbc6040518060400160405280601c81526020017f4572726f72202845786572636973652042202d2074696d656f757429000000008152506040518060600160405280602481526020016121d160249139836102de565b6000965096505050505050610d4b565b505b3d6000803e3d6000fd5b60008373ffffffffffffffffffffffffffffffffffffffff16319050808210610d255760006040518060800160405280605481526020016120e66054913990965096505050505050610d4b565b600160405180606001604052806027815260200161229660279139909650965050505050505b9091565b600081604051602001610d629190611d40565b6040516020818303038152906040528051906020012083604051602001610d899190611d40565b6040516020818303038152906040528051906020012014905092915050565b610db0610699565b73ffffffffffffffffffffffffffffffffffffffff166324d7806c336040518263ffffffff1660e01b8152600401610de89190611d57565b602060405180830381865afa158015610e05573d6000803e3d6000fd5b505050506040513d601f19601f82011682018060405250810190610e299190611d9e565b610e68576040517f08c379a0000000000000000000000000000000000000000000000000000000008152600401610e5f90611e3d565b60405180910390fd5b600073ffffffffffffffffffffffffffffffffffffffff168273ffffffffffffffffffffffffffffffffffffffff1603610ed7576040517f08c379a0000000000000000000000000000000000000000000000000000000008152600401610ece90611ea9565b60405180910390fd5b3373ffffffffffffffffffffffffffffffffffffffff168273ffffffffffffffffffffffffffffffffffffffff161480610f3c57503273ffffffffffffffffffffffffffffffffffffffff168273ffffffffffffffffffffffffffffffffffffffff16145b80610fc45750610f4a610699565b73ffffffffffffffffffffffffffffffffffffffff166324d7806c836040518263ffffffff1660e01b8152600401610f829190611eea565b602060405180830381865afa158015610f9f573d6000803e3d6000fd5b505050506040513d601f19601f82011682018060405250810190610fc39190611d9e565b5b611003576040517f08c379a0000000000000000000000000000000000000000000000000000000008152600401610ffa90611f77565b60405180910390fd5b47811015611046576040517f08c379a000000000000000000000000000000000000000000000000000000000815260040161103d90611fe3565b60405180910390fd5b60008273ffffffffffffffffffffffffffffffffffffffff168260405161106c90612034565b60006040518083038185875af1925050503d80600081146110a9576040519150601f19603f3d011682016040523d82523d6000602084013e6110ae565b606091505b50509050806110f2576040517f08c379a00000000000000000000000000000000000000000000000000000000081526004016110e990612095565b60405180910390fd5b505050565b80600160006101000a81548173ffffffffffffffffffffffffffffffffffffffff021916908373ffffffffffffffffffffffffffffffffffffffff16021790555050565b816000806101000a81548173ffffffffffffffffffffffffffffffffffffffff021916908373ffffffffffffffffffffffffffffffffffffffff1602179055506000611185610699565b90508073ffffffffffffffffffffffffffffffffffffffff16637fb99b9330846040518363ffffffff1660e01b81526004016111c29291906120b5565b600060405180830381600087803b1580156111dc57600080fd5b505af11580156111f0573d6000803e3d6000fd5b50505050505050565b600081519050919050565b600082825260208201905092915050565b60005b83811015611233578082015181840152602081019050611218565b60008484015250505050565b6000601f19601f8301169050919050565b600061125b826111f9565b6112658185611204565b9350611275818560208601611215565b61127e8161123f565b840191505092915050565b60008115159050919050565b61129e81611289565b82525050565b600060408201905081810360008301526112be8185611250565b90506112cd6020830184611295565b9392505050565b6000604051905090565b600080fd5b600080fd5b600080fd5b600080fd5b7f4e487b7100000000000000000000000000000000000000000000000000000000600052604160045260246000fd5b61132a8261123f565b810181811067ffffffffffffffff82111715611349576113486112f2565b5b80604052505050565b600061135c6112d4565b90506113688282611321565b919050565b600067ffffffffffffffff821115611388576113876112f2565b5b6113918261123f565b9050602081019050919050565b82818337600083830152505050565b60006113c06113bb8461136d565b611352565b9050828152602081018484840111156113dc576113db6112ed565b5b6113e784828561139e565b509392505050565b600082601f830112611404576114036112e8565b5b81356114148482602086016113ad565b91505092915050565b600080600060608486031215611436576114356112de565b5b600084013567ffffffffffffffff811115611454576114536112e3565b5b611460868287016113ef565b935050602084013567ffffffffffffffff811115611481576114806112e3565b5b61148d868287016113ef565b925050604084013567ffffffffffffffff8111156114ae576114ad6112e3565b5b6114ba868287016113ef565b9150509250925092565b600060208201905081810360008301526114de8184611250565b905092915050565b600073ffffffffffffffffffffffffffffffffffffffff82169050919050565b6000819050919050565b600061152b611526611521846114e6565b611506565b6114e6565b9050919050565b600061153d82611510565b9050919050565b600061154f82611532565b9050919050565b61155f81611544565b82525050565b600060208201905061157a6000830184611556565b92915050565b6000806000806080858703121561159a576115996112de565b5b600085013567ffffffffffffffff8111156115b8576115b76112e3565b5b6115c4878288016113ef565b945050602085013567ffffffffffffffff8111156115e5576115e46112e3565b5b6115f1878288016113ef565b935050604085013567ffffffffffffffff811115611612576116116112e3565b5b61161e878288016113ef565b925050606085013567ffffffffffffffff81111561163f5761163e6112e3565b5b61164b878288016113ef565b91505092959194509250565b6000806040838503121561166e5761166d6112de565b5b600083013567ffffffffffffffff81111561168c5761168b6112e3565b5b611698858286016113ef565b925050602083013567ffffffffffffffff8111156116b9576116b86112e3565b5b6116c5858286016113ef565b9150509250929050565b60006020820190506116e46000830184611295565b92915050565b60006116f5826114e6565b9050919050565b611705816116ea565b811461171057600080fd5b50565b600081359050611722816116fc565b92915050565b6000819050919050565b61173b81611728565b811461174657600080fd5b50565b60008135905061175881611732565b92915050565b60008060408385031215611775576117746112de565b5b600061178385828601611713565b925050602061179485828601611749565b9150509250929050565b60006117a9826114e6565b9050919050565b6117b98161179e565b81146117c457600080fd5b50565b6000813590506117d6816117b0565b92915050565b6000602082840312156117f2576117f16112de565b5b6000611800848285016117c7565b91505092915050565b600080604083850312156118205761181f6112de565b5b600061182e858286016117c7565b925050602083013567ffffffffffffffff81111561184f5761184e6112e3565b5b61185b858286016113ef565b9150509250929050565b600081905092915050565b600061187b826111f9565b6118858185611865565b9350611895818560208601611215565b80840191505092915050565b7f3a20000000000000000000000000000000000000000000000000000000000000600082015250565b60006118d7600283611865565b91506118e2826118a1565b600282019050919050565b7f203e200000000000000000000000000000000000000000000000000000000000600082015250565b6000611923600383611865565b915061192e826118ed565b600382019050919050565b60006119458286611870565b9150611950826118ca565b915061195c8285611870565b915061196782611916565b91506119738284611870565b9150819050949350505050565b60008151905061198f816117b0565b92915050565b6000602082840312156119ab576119aa6112de565b5b60006119b984828501611980565b91505092915050565b60008160e01c9050919050565b600060033d11156119ee5760046000803e6119eb6000516119c2565b90505b90565b600060443d10611a7e57611a036112d4565b60043d036004823e80513d602482011167ffffffffffffffff82111715611a2b575050611a7e565b808201805167ffffffffffffffff811115611a495750505050611a7e565b80602083010160043d038501811115611a66575050505050611a7e565b611a7582602001850186611321565b82955050505050505b90565b611a8a8161179e565b82525050565b6000604082019050611aa56000830185611a81565b611ab26020830184611a81565b9392505050565b6000819050919050565b6000611ade611ad9611ad484611ab9565b611506565b611728565b9050919050565b611aee81611ac3565b82525050565b6000606082019050611b096000830186611a81565b611b166020830185611a81565b611b236040830184611ae5565b949350505050565b7f2045787065637465643a20000000000000000000000000000000000000000000600082015250565b6000611b61600b83611865565b9150611b6c82611b2b565b600b82019050919050565b7f2041637475616c3a200000000000000000000000000000000000000000000000600082015250565b6000611bad600983611865565b9150611bb882611b77565b600982019050919050565b6000611bcf8287611870565b9150611bda826118ca565b9150611be68286611870565b9150611bf182611b54565b9150611bfd8285611870565b9150611c0882611ba0565b9150611c148284611870565b915081905095945050505050565b6000819050919050565b6000611c47611c42611c3d84611c22565b611506565b611728565b9050919050565b611c5781611c2c565b82525050565b6000602082019050611c726000830184611c4e565b92915050565b6000819050919050565b6000611c9d611c98611c9384611c78565b611506565b611728565b9050919050565b611cad81611c82565b82525050565b6000606082019050611cc86000830186611a81565b611cd56020830185611a81565b611ce26040830184611ca4565b949350505050565b6000819050919050565b6000611d0f611d0a611d0584611cea565b611506565b611728565b9050919050565b611d1f81611cf4565b82525050565b6000602082019050611d3a6000830184611d16565b92915050565b6000611d4c8284611870565b915081905092915050565b6000602082019050611d6c6000830184611a81565b92915050565b611d7b81611289565b8114611d8657600080fd5b50565b600081519050611d9881611d72565b92915050565b600060208284031215611db457611db36112de565b5b6000611dc284828501611d89565b91505092915050565b7f4f6e6c7920636f6e74726163742061646d696e2063616e20776974686472617760008201527f2066756e64730000000000000000000000000000000000000000000000000000602082015250565b6000611e27602683611204565b9150611e3282611dcb565b604082019050919050565b60006020820190508181036000830152611e5681611e1a565b9050919050565b7f496e76616c696420616464726573730000000000000000000000000000000000600082015250565b6000611e93600f83611204565b9150611e9e82611e5d565b602082019050919050565b60006020820190508181036000830152611ec281611e86565b9050919050565b6000611ed482611532565b9050919050565b611ee481611ec9565b82525050565b6000602082019050611eff6000830184611edb565b92915050565b7f46756e64732063616e206f6e6c792062652077697468647261776e20746f206160008201527f646d696e2c206d73672e73656e646572206f722074782e6f726967696e000000602082015250565b6000611f61603d83611204565b9150611f6c82611f05565b604082019050919050565b60006020820190508181036000830152611f9081611f54565b9050919050565b7f496e73756666696369656e742066756e64730000000000000000000000000000600082015250565b6000611fcd601283611204565b9150611fd882611f97565b602082019050919050565b60006020820190508181036000830152611ffc81611fc0565b9050919050565b600081905092915050565b50565b600061201e600083612003565b91506120298261200e565b600082019050919050565b600061203f82612011565b9150819050919050565b7f5472616e73666572206661696c65642e00000000000000000000000000000000600082015250565b600061207f601083611204565b915061208a82612049565b602082019050919050565b600060208201905081810360008301526120ae81612072565b9050919050565b60006040820190506120ca6000830185611a81565b81810360208301526120dc8184611250565b9050939250505056fe4572726f72202845786572636973652042202d2074696d656f7574293a206578706972654368616e6e656c28292073686f756c6420696e637265617365207468652076616c696461746f722062616c616e63652e4572726f72202845786572636973652042202d2074776f206f70656e206368616e6e656c73293a206f70656e4368616e6e656c54696d656428292073686f756c64206661696c2c2062656361757365206120276e6f726d616c27206368616e6e656c20697320616c7265616479206f70656e65642e4572726f722077697468206f70656e4368616e6e656c28292066756e6374696f6e2e4572726f722077697468206578706972654368616e6e656c28292066756e6374696f6e2e4572726f72207769746820666f726365526573657428292066756e6374696f6e2e4572726f72202845786572636973652042202d2074776f206f70656e206368616e6e656c73294572726f722077697468206f70656e4368616e6e656c54696d656f757428292066756e6374696f6e2e45786572636973652042202874776f206f70656e206368616e6e656c73293a20416c6c207465737473207061737365642e45786572636973652042202874696d656f7574293a20416c6c207465737473207061737365642e4572726f72202845786572636973652042202d2074696d656f7574293a206578706972654368616e6e656c28292073686f756c64206661696c2c206265636175736520746865206368616e6e656c206973206e6f742065787069726564207965742ea26469706673582212207f6388040daa306d01570340172a2b0736be0c1e06055074af84382d358af74664736f6c63430008110033535332332041737369676e6d656e7420332056616c696461746f7220436f6e7472616374202d205461736b204260806040523480156200001157600080fd5b5060405162002a1138038062002a118339818101604052810190620000379190620001c6565b62000062816040518060600160405280602d8152602001620029e4602d91396200006960201b60201c565b50620002d7565b816000806101000a81548173ffffffffffffffffffffffffffffffffffffffff021916908373ffffffffffffffffffffffffffffffffffffffff1602179055506000620000bb6200013360201b60201c565b90508073ffffffffffffffffffffffffffffffffffffffff16637fb99b9330846040518363ffffffff1660e01b8152600401620000fa929190620002a3565b600060405180830381600087803b1580156200011557600080fd5b505af11580156200012a573d6000803e3d6000fd5b50505050505050565b60008060009054906101000a900473ffffffffffffffffffffffffffffffffffffffff16905090565b600080fd5b600073ffffffffffffffffffffffffffffffffffffffff82169050919050565b60006200018e8262000161565b9050919050565b620001a08162000181565b8114620001ac57600080fd5b50565b600081519050620001c08162000195565b92915050565b600060208284031215620001df57620001de6200015c565b5b6000620001ef84828501620001af565b91505092915050565b620002038162000181565b82525050565b600081519050919050565b600082825260208201905092915050565b60005b838110156200024557808201518184015260208101905062000228565b60008484015250505050565b6000601f19601f8301169050919050565b60006200026f8262000209565b6200027b818562000214565b93506200028d81856020860162000225565b620002988162000251565b840191505092915050565b6000604082019050620002ba6000830185620001f8565b8181036020830152620002ce818462000262565b90509392505050565b6126fd80620002e76000396000f3fe60806040526004361061008a5760003560e01c80639a304b09116100595780639a304b0914610587578063bed34bba146105a6578063c1075329146105e3578063cf9d4afa146105ff578063fae45fbe14610628576102a9565b80632b518301146104c3578063516cbbe2146105005780635827a0651461052b5780636f2db99c14610568576102a9565b366102a9576064600160009054906101000a900473ffffffffffffffffffffffffffffffffffffffff1673ffffffffffffffffffffffffffffffffffffffff1631106102a7576000600160009054906101000a900473ffffffffffffffffffffffffffffffffffffffff1673ffffffffffffffffffffffffffffffffffffffff166302a569e660016040518263ffffffff1660e01b815260040161012e919061150c565b6000604051808303816000875af115801561014d573d6000803e3d6000fd5b505050506040513d6000823e3d601f19601f82011682018060405250810190610176919061169c565b90506000600160009054906101000a900473ffffffffffffffffffffffffffffffffffffffff1673ffffffffffffffffffffffffffffffffffffffff1663c5bacb9660016040518263ffffffff1660e01b81526004016101d6919061150c565b6020604051808303816000875af11580156101f5573d6000803e3d6000fd5b505050506040513d601f19601f820116820180604052508101906102199190611711565b9050600160009054906101000a900473ffffffffffffffffffffffffffffffffffffffff1673ffffffffffffffffffffffffffffffffffffffff16633c25667a82846040518363ffffffff1660e01b81526004016102789291906117a2565b600060405180830381600087803b15801561029257600080fd5b505af19250505080156102a3575060015b5050505b005b6064600160009054906101000a900473ffffffffffffffffffffffffffffffffffffffff1673ffffffffffffffffffffffffffffffffffffffff1631106104c1576000600160009054906101000a900473ffffffffffffffffffffffffffffffffffffffff1673ffffffffffffffffffffffffffffffffffffffff166302a569e660016040518263ffffffff1660e01b8152600401610348919061150c565b6000604051808303816000875af1158015610367573d6000803e3d6000fd5b505050506040513d6000823e3d601f19601f82011682018060405250810190610390919061169c565b90506000600160009054906101000a900473ffffffffffffffffffffffffffffffffffffffff1673ffffffffffffffffffffffffffffffffffffffff1663c5bacb9660016040518263ffffffff1660e01b81526004016103f0919061150c565b6020604051808303816000875af115801561040f573d6000803e3d6000fd5b505050506040513d601f19601f820116820180604052508101906104339190611711565b9050600160009054906101000a900473ffffffffffffffffffffffffffffffffffffffff1673ffffffffffffffffffffffffffffffffffffffff16633c25667a82846040518363ffffffff1660e01b81526004016104929291906117a2565b600060405180830381600087803b1580156104ac57600080fd5b505af19250505080156104bd575060015b5050505b005b3480156104cf57600080fd5b506104ea60048036038101906104e59190611882565b610651565b6040516104f7919061197e565b60405180910390f35b34801561050c57600080fd5b50610515610680565b6040516105229190611a15565b60405180910390f35b34801561053757600080fd5b50610552600480360381019061054d9190611a30565b6106a9565b60405161055f919061197e565b60405180910390f35b6105706106db565b60405161057e929190611b22565b60405180910390f35b61058f610fa9565b60405161059d929190611b22565b60405180910390f35b3480156105b257600080fd5b506105cd60048036038101906105c89190611b52565b611013565b6040516105da9190611bca565b60405180910390f35b6105fd60048036038101906105f89190611c38565b61106c565b005b34801561060b57600080fd5b5061062660048036038101906106219190611cb6565b6113bb565b005b34801561063457600080fd5b5061064f600480360381019061064a9190611ce3565b6113ff565b005b606083838360405160200161066893929190611e13565b60405160208183030381529060405290509392505050565b60008060009054906101000a900473ffffffffffffffffffffffffffffffffffffffff16905090565b6060848484846040516020016106c29493929190611ef2565b6040516020818303038152906040529050949350505050565b6060600080600160009054906101000a900473ffffffffffffffffffffffffffffffffffffffff1673ffffffffffffffffffffffffffffffffffffffff1663893d20e86040518163ffffffff1660e01b81526004016020604051808303816000875af115801561074f573d6000803e3d6000fd5b505050506040513d601f19601f820116820180604052508101906107739190611f66565b90506000309050600160009054906101000a900473ffffffffffffffffffffffffffffffffffffffff1673ffffffffffffffffffffffffffffffffffffffff16638b680cc36040518163ffffffff1660e01b8152600401600060405180830381600087803b1580156107e457600080fd5b505af19250505080156107f5575060015b61087557610801611fa0565b806308c379a0036108695750610815611fc2565b80610820575061086b565b61085b60405180606001604052806026815260200161267b602691396040518060600160405280602181526020016125266021913983610651565b600094509450505050610fa5565b505b3d6000803e3d6000fd5b60006103e89050600160009054906101000a900473ffffffffffffffffffffffffffffffffffffffff1673ffffffffffffffffffffffffffffffffffffffff1663e1d1882b8285856040518463ffffffff1660e01b81526004016108da929190612061565b6000604051808303818588803b1580156108f357600080fd5b505af193505050508015610905575060015b61098657610911611fa0565b806308c379a00361097a5750610925611fc2565b80610930575061097c565b61096b60405180606001604052806026815260200161267b602691396040518060600160405280602981526020016126006029913983610651565b60009550955050505050610fa5565b505b3d6000803e3d6000fd5b6000600160009054906101000a900473ffffffffffffffffffffffffffffffffffffffff1673ffffffffffffffffffffffffffffffffffffffff166302a569e660016040518263ffffffff1660e01b81526004016109e4919061150c565b6000604051808303816000875af1158015610a03573d6000803e3d6000fd5b505050506040513d6000823e3d601f19601f82011682018060405250810190610a2c919061169c565b90506000600160009054906101000a900473ffffffffffffffffffffffffffffffffffffffff1673ffffffffffffffffffffffffffffffffffffffff1663c5bacb9660016040518263ffffffff1660e01b8152600401610a8c919061150c565b6020604051808303816000875af1158015610aab573d6000803e3d6000fd5b505050506040513d601f19601f82011682018060405250810190610acf9190611711565b905060008103610b5957610b496040518060400160405280601281526020017f4572726f722028457865726369736520412900000000000000000000000000008152506040518060600160405280602c81526020016124fa602c91396040518060800160405280604481526020016124b660449139610651565b6000965096505050505050610fa5565b6000825103610be257610bd26040518060400160405280601281526020017f4572726f72202845786572636973652041290000000000000000000000000000815250604051806060016040528060238152602001612493602391396040518060800160405280604481526020016124b660449139610651565b6000965096505050505050610fa5565b60648114610c4d57610c3d60405180606001604052806026815260200161267b602691396040518060600160405280602481526020016125dc6024913960405180606001604052806021815260200161265a60219139610651565b6000965096505050505050610fa5565b600160009054906101000a900473ffffffffffffffffffffffffffffffffffffffff1673ffffffffffffffffffffffffffffffffffffffff166339c42fe382846040518363ffffffff1660e01b8152600401610caa9291906117a2565b602060405180830381865afa925050508015610ce457506040513d601f19601f82011682018060405250810190610ce191906120b6565b60015b610d6757610cf0611fa0565b806308c379a003610d5b5750610d04611fc2565b80610d0f5750610d5d565b610d4a60405180606001604052806026815260200161267b602691396040518060600160405280602781526020016126a16027913983610651565b600097509750505050505050610fa5565b505b3d6000803e3d6000fd5b80610ded57610ddc60405180606001604052806026815260200161267b602691396040518060600160405280602481526020016125dc602491396040518060400160405280601e81526020017f546865207369676e61747572652073686f756c642062652076616c69642e0000815250610651565b600097509750505050505050610fa5565b506000479050600160009054906101000a900473ffffffffffffffffffffffffffffffffffffffff1673ffffffffffffffffffffffffffffffffffffffff16633c25667a83856040518363ffffffff1660e01b8152600401610e509291906117a2565b600060405180830381600087803b158015610e6a57600080fd5b505af1925050508015610e7b575060015b610eff57610e87611fa0565b806308c379a003610ef35750610e9b611fc2565b80610ea65750610ef5565b610ee160405180606001604052806026815260200161267b602691396040518060600160405280602f8152602001612547602f913983610651565b60009850985050505050505050610fa5565b505b3d6000803e3d6000fd5b6000479050606482610f119190612112565b811115610f7d57610f6b60405180606001604052806026815260200161267b602691396040518060600160405280602f8152602001612547602f91396040518060a001604052806066815260200161257660669139610651565b60009850985050505050505050610fa5565b6001604051806060016040528060318152602001612629603191399098509850505050505050505b9091565b60606000806000610fb86106db565b9150915080610fcf5781600093509350505061100f565b60016040518060400160405280601d81526020017f457865726369736520433a20416c6c207465737473207061737365642e000000815250909350935050505b9091565b6000816040516020016110269190612146565b604051602081830303815290604052805190602001208360405160200161104d9190612146565b6040516020818303038152906040528051906020012014905092915050565b611074610680565b73ffffffffffffffffffffffffffffffffffffffff166324d7806c336040518263ffffffff1660e01b81526004016110ac919061215d565b602060405180830381865afa1580156110c9573d6000803e3d6000fd5b505050506040513d601f19601f820116820180604052508101906110ed91906120b6565b61112c576040517f08c379a0000000000000000000000000000000000000000000000000000000008152600401611123906121ea565b60405180910390fd5b600073ffffffffffffffffffffffffffffffffffffffff168273ffffffffffffffffffffffffffffffffffffffff160361119b576040517f08c379a000000000000000000000000000000000000000000000000000000000815260040161119290612256565b60405180910390fd5b3373ffffffffffffffffffffffffffffffffffffffff168273ffffffffffffffffffffffffffffffffffffffff16148061120057503273ffffffffffffffffffffffffffffffffffffffff168273ffffffffffffffffffffffffffffffffffffffff16145b80611288575061120e610680565b73ffffffffffffffffffffffffffffffffffffffff166324d7806c836040518263ffffffff1660e01b81526004016112469190612297565b602060405180830381865afa158015611263573d6000803e3d6000fd5b505050506040513d601f19601f8201168201806040525081019061128791906120b6565b5b6112c7576040517f08c379a00000000000000000000000000000000000000000000000000000000081526004016112be90612324565b60405180910390fd5b4781101561130a576040517f08c379a000000000000000000000000000000000000000000000000000000000815260040161130190612390565b60405180910390fd5b60008273ffffffffffffffffffffffffffffffffffffffff1682604051611330906123e1565b60006040518083038185875af1925050503d806000811461136d576040519150601f19603f3d011682016040523d82523d6000602084013e611372565b606091505b50509050806113b6576040517f08c379a00000000000000000000000000000000000000000000000000000000081526004016113ad90612442565b60405180910390fd5b505050565b80600160006101000a81548173ffffffffffffffffffffffffffffffffffffffff021916908373ffffffffffffffffffffffffffffffffffffffff16021790555050565b816000806101000a81548173ffffffffffffffffffffffffffffffffffffffff021916908373ffffffffffffffffffffffffffffffffffffffff1602179055506000611449610680565b90508073ffffffffffffffffffffffffffffffffffffffff16637fb99b9330846040518363ffffffff1660e01b8152600401611486929190612462565b600060405180830381600087803b1580156114a057600080fd5b505af11580156114b4573d6000803e3d6000fd5b50505050505050565b6000819050919050565b6000819050919050565b6000819050919050565b60006114f66114f16114ec846114bd565b6114d1565b6114c7565b9050919050565b611506816114db565b82525050565b600060208201905061152160008301846114fd565b92915050565b6000604051905090565b600080fd5b600080fd5b600080fd5b600080fd5b6000601f19601f8301169050919050565b7f4e487b7100000000000000000000000000000000000000000000000000000000600052604160045260246000fd5b61158e82611545565b810181811067ffffffffffffffff821117156115ad576115ac611556565b5b80604052505050565b60006115c0611527565b90506115cc8282611585565b919050565b600067ffffffffffffffff8211156115ec576115eb611556565b5b6115f582611545565b9050602081019050919050565b60005b83811015611620578082015181840152602081019050611605565b60008484015250505050565b600061163f61163a846115d1565b6115b6565b90508281526020810184848401111561165b5761165a611540565b5b611666848285611602565b509392505050565b600082601f8301126116835761168261153b565b5b815161169384826020860161162c565b91505092915050565b6000602082840312156116b2576116b1611531565b5b600082015167ffffffffffffffff8111156116d0576116cf611536565b5b6116dc8482850161166e565b91505092915050565b6116ee816114c7565b81146116f957600080fd5b50565b60008151905061170b816116e5565b92915050565b60006020828403121561172757611726611531565b5b6000611735848285016116fc565b91505092915050565b611747816114c7565b82525050565b600081519050919050565b600082825260208201905092915050565b60006117748261174d565b61177e8185611758565b935061178e818560208601611602565b61179781611545565b840191505092915050565b60006040820190506117b7600083018561173e565b81810360208301526117c98184611769565b90509392505050565b600067ffffffffffffffff8211156117ed576117ec611556565b5b6117f682611545565b9050602081019050919050565b82818337600083830152505050565b6000611825611820846117d2565b6115b6565b90508281526020810184848401111561184157611840611540565b5b61184c848285611803565b509392505050565b600082601f8301126118695761186861153b565b5b8135611879848260208601611812565b91505092915050565b60008060006060848603121561189b5761189a611531565b5b600084013567ffffffffffffffff8111156118b9576118b8611536565b5b6118c586828701611854565b935050602084013567ffffffffffffffff8111156118e6576118e5611536565b5b6118f286828701611854565b925050604084013567ffffffffffffffff81111561191357611912611536565b5b61191f86828701611854565b9150509250925092565b600081519050919050565b600082825260208201905092915050565b600061195082611929565b61195a8185611934565b935061196a818560208601611602565b61197381611545565b840191505092915050565b600060208201905081810360008301526119988184611945565b905092915050565b600073ffffffffffffffffffffffffffffffffffffffff82169050919050565b60006119db6119d66119d1846119a0565b6114d1565b6119a0565b9050919050565b60006119ed826119c0565b9050919050565b60006119ff826119e2565b9050919050565b611a0f816119f4565b82525050565b6000602082019050611a2a6000830184611a06565b92915050565b60008060008060808587031215611a4a57611a49611531565b5b600085013567ffffffffffffffff811115611a6857611a67611536565b5b611a7487828801611854565b945050602085013567ffffffffffffffff811115611a9557611a94611536565b5b611aa187828801611854565b935050604085013567ffffffffffffffff811115611ac257611ac1611536565b5b611ace87828801611854565b925050606085013567ffffffffffffffff811115611aef57611aee611536565b5b611afb87828801611854565b91505092959194509250565b60008115159050919050565b611b1c81611b07565b82525050565b60006040820190508181036000830152611b3c8185611945565b9050611b4b6020830184611b13565b9392505050565b60008060408385031215611b6957611b68611531565b5b600083013567ffffffffffffffff811115611b8757611b86611536565b5b611b9385828601611854565b925050602083013567ffffffffffffffff811115611bb457611bb3611536565b5b611bc085828601611854565b9150509250929050565b6000602082019050611bdf6000830184611b13565b92915050565b6000611bf0826119a0565b9050919050565b611c0081611be5565b8114611c0b57600080fd5b50565b600081359050611c1d81611bf7565b92915050565b600081359050611c32816116e5565b92915050565b60008060408385031215611c4f57611c4e611531565b5b6000611c5d85828601611c0e565b9250506020611c6e85828601611c23565b9150509250929050565b6000611c83826119a0565b9050919050565b611c9381611c78565b8114611c9e57600080fd5b50565b600081359050611cb081611c8a565b92915050565b600060208284031215611ccc57611ccb611531565b5b6000611cda84828501611ca1565b91505092915050565b60008060408385031215611cfa57611cf9611531565b5b6000611d0885828601611ca1565b925050602083013567ffffffffffffffff811115611d2957611d28611536565b5b611d3585828601611854565b9150509250929050565b600081905092915050565b6000611d5582611929565b611d5f8185611d3f565b9350611d6f818560208601611602565b80840191505092915050565b7f3a20000000000000000000000000000000000000000000000000000000000000600082015250565b6000611db1600283611d3f565b9150611dbc82611d7b565b600282019050919050565b7f203e200000000000000000000000000000000000000000000000000000000000600082015250565b6000611dfd600383611d3f565b9150611e0882611dc7565b600382019050919050565b6000611e1f8286611d4a565b9150611e2a82611da4565b9150611e368285611d4a565b9150611e4182611df0565b9150611e4d8284611d4a565b9150819050949350505050565b7f2045787065637465643a20000000000000000000000000000000000000000000600082015250565b6000611e90600b83611d3f565b9150611e9b82611e5a565b600b82019050919050565b7f2041637475616c3a200000000000000000000000000000000000000000000000600082015250565b6000611edc600983611d3f565b9150611ee782611ea6565b600982019050919050565b6000611efe8287611d4a565b9150611f0982611da4565b9150611f158286611d4a565b9150611f2082611e83565b9150611f2c8285611d4a565b9150611f3782611ecf565b9150611f438284611d4a565b915081905095945050505050565b600081519050611f6081611c8a565b92915050565b600060208284031215611f7c57611f7b611531565b5b6000611f8a84828501611f51565b91505092915050565b60008160e01c9050919050565b600060033d1115611fbf5760046000803e611fbc600051611f93565b90505b90565b600060443d1061204f57611fd4611527565b60043d036004823e80513d602482011167ffffffffffffffff82111715611ffc57505061204f565b808201805167ffffffffffffffff81111561201a575050505061204f565b80602083010160043d03850181111561203757505050505061204f565b61204682602001850186611585565b82955050505050505b90565b61205b81611c78565b82525050565b60006040820190506120766000830185612052565b6120836020830184612052565b9392505050565b61209381611b07565b811461209e57600080fd5b50565b6000815190506120b08161208a565b92915050565b6000602082840312156120cc576120cb611531565b5b60006120da848285016120a1565b91505092915050565b7f4e487b7100000000000000000000000000000000000000000000000000000000600052601160045260246000fd5b600061211d826114c7565b9150612128836114c7565b92508282019050808211156121405761213f6120e3565b5b92915050565b60006121528284611d4a565b915081905092915050565b60006020820190506121726000830184612052565b92915050565b7f4f6e6c7920636f6e74726163742061646d696e2063616e20776974686472617760008201527f2066756e64730000000000000000000000000000000000000000000000000000602082015250565b60006121d4602683611934565b91506121df82612178565b604082019050919050565b60006020820190508181036000830152612203816121c7565b9050919050565b7f496e76616c696420616464726573730000000000000000000000000000000000600082015250565b6000612240600f83611934565b915061224b8261220a565b602082019050919050565b6000602082019050818103600083015261226f81612233565b9050919050565b6000612281826119e2565b9050919050565b61229181612276565b82525050565b60006020820190506122ac6000830184612288565b92915050565b7f46756e64732063616e206f6e6c792062652077697468647261776e20746f206160008201527f646d696e2c206d73672e73656e646572206f722074782e6f726967696e000000602082015250565b600061230e603d83611934565b9150612319826122b2565b604082019050919050565b6000602082019050818103600083015261233d81612301565b9050919050565b7f496e73756666696369656e742066756e64730000000000000000000000000000600082015250565b600061237a601283611934565b915061238582612344565b602082019050919050565b600060208201905081810360008301526123a98161236d565b9050919050565b600081905092915050565b50565b60006123cb6000836123b0565b91506123d6826123bb565b600082019050919050565b60006123ec826123be565b9150819050919050565b7f5472616e73666572206661696c65642e00000000000000000000000000000000600082015250565b600061242c601083611934565b9150612437826123f6565b602082019050919050565b6000602082019050818103600083015261245b8161241f565b9050919050565b60006040820190506124776000830185612052565b81810360208301526124898184611945565b9050939250505056fe4572726f722077697468206765745369676e617475726528292066756e6374696f6e2e5468652073746f726564207369676e6174757265207769746820696e6465783a2030206973206e6f742076616c69642e2045787065637420746f2062652076616c69642e4572726f722077697468206765745369676e6174757265457468416d6f756e7428292066756e6374696f6e2e4572726f72207769746820666f726365526573657428292066756e6374696f6e2e4572726f72207769746820636c6f73654368616e6e656c4e6f5265656e7472616e637928292066756e6374696f6e2e5468652062616c616e63652073686f756c6420626520696e6372656173656420627920313030207765692e20496620696e63726561736564206d6f72652c207468652061747461636b20776173207375636365737366756c2e205461736b206661696c6564214572726f722077697468207361766564207369676e6174757265207769746820696420314572726f722077697468206f70656e4368616e6e656c54696d656f757428292066756e6374696f6e2e4578657263697365204320287265656e7472616e63792061747461636b293a20416c6c207465737473207061737365642e5468652065746820616d6f756e742073686f756c6420626520313030207765692e4572726f72202845786572636973652043202d207265656e7472616e63792061747461636b294572726f722077697468207665726966795061796d656e744d736728292066756e6374696f6e2ea264697066735822122079e44a048e5a06bf5e76247faaf5894f9e1e8350af1696530b8ef085bf87204764736f6c63430008110033535332332041737369676e6d656e7420332056616c696461746f7220436f6e7472616374202d205461736b2043535332332041737369676e6d656e7420332056616c696461746f7220436f6e7472616374202d2042617365",
  "immutableReferences": {},
  "source": "// SPDX-License-Identifier: MIT\r\npragma solidity ^0.8.17;\r\n\r\n// Import the IAssignment3.sol\r\nimport \"./interface/IAssignment3.sol\";\r\n\r\n// Import the base assignment validator contract\r\nimport \"../BaseValidator.sol\";\r\n\r\n// Import Task A, B, C and E Conctract\r\nimport \"./Validator3TaskA.sol\";\r\nimport \"./Validator3TaskB.sol\";\r\nimport \"./Validator3TaskC.sol\";\r\n\r\n// Give the contract a name and inherit from the base assignment validator\r\ncontract Validator3 is BaseValidator {\r\n    // Contract to validate\r\n    IAssignment3 assignmentContract;\r\n\r\n    // Task A, B, C and E\r\n    Validator3TaskA validatorTaskA;\r\n    Validator3TaskB validatorTaskB;\r\n    Validator3TaskC validatorTaskC;\r\n\r\n    constructor(address _configContractAddress)\r\n        BaseValidator(\r\n            _configContractAddress,\r\n            \"SS23 Assignment 3 Validator Contract - Base\",\r\n            6 gwei\r\n        )\r\n    {\r\n        // Task A, B, C and E\r\n        validatorTaskA = new Validator3TaskA(_configContractAddress);\r\n        validatorTaskB = new Validator3TaskB(_configContractAddress);\r\n        validatorTaskC = new Validator3TaskC(_configContractAddress);\r\n\r\n        // Assign contracts to the list of helper contracts\r\n        addHelperContracts(address(validatorTaskA));\r\n        addHelperContracts(address(validatorTaskB));\r\n        addHelperContracts(address(validatorTaskC));\r\n    }\r\n\r\n    // Fallback function to make sure the contract can receive ether\r\n    receive() external payable {}\r\n\r\n    // Test the assignment\r\n    function test(address _contractAddress)\r\n        public\r\n        payable\r\n        override(BaseValidator)\r\n        returns (uint256)\r\n    {\r\n        /**\r\n         *  Create a new history entry in the smart contract\r\n         *\r\n         *  The history entry is used to store the results of the tests.\r\n         *  Always use this index in the further functions.\r\n         */\r\n        uint256 testId = createTestHistory(_contractAddress);\r\n\r\n        // Call the contract interface which needs to be tested and store it in the variable assignmentContract\r\n        assignmentContract = IAssignment3(_contractAddress);\r\n\r\n        /*----------  EXERCISE A  ----------*/\r\n\r\n        // Init Task A Contract\r\n        validatorTaskA.initContract(_contractAddress);\r\n\r\n        if (hasFunction(address(validatorTaskA), \"testExerciseA()\", 1 gwei)) {\r\n            // Run tests\r\n            try validatorTaskA.testExerciseA{value: 1 gwei}() returns (\r\n                string memory messageA,\r\n                bool resultA\r\n            ) {\r\n                if (resultA) {\r\n                    // Add the result to the history\r\n                    appendTestResult(messageA, resultA, 7);\r\n                } else {\r\n                    // Add the result to the history\r\n                    appendTestResult(messageA, false, 0);\r\n                }\r\n            } catch Error(string memory reason) {\r\n                appendTestResult(\r\n                    buildErrorMessage(\r\n                        \"Error (Exercise A)\",\r\n                        \"Error with tests in Exercise A.\",\r\n                        reason\r\n                    ),\r\n                    false,\r\n                    0\r\n                );\r\n            }\r\n        } else {\r\n            appendTestResult(\r\n                \"Exercise A: Some of the required functions are not correctly implemented. Validation not possible!\",\r\n                false,\r\n                0\r\n            );\r\n        }\r\n\r\n        /*----------  EXERCISE B  ----------*/\r\n\r\n        // Init Task A Contract\r\n        validatorTaskB.initContract(_contractAddress);\r\n\r\n        if (hasFunction(address(validatorTaskB), \"testExerciseB()\", 1 gwei)) {\r\n            // Run tests\r\n            try validatorTaskB.testExerciseB{value: 1 gwei}() returns (\r\n                string memory messageB,\r\n                bool resultB\r\n            ) {\r\n                if (resultB) {\r\n                    // Add the result to the history\r\n                    appendTestResult(messageB, resultB, 2);\r\n                } else {\r\n                    // Add the result to the history\r\n                    appendTestResult(messageB, false, 0);\r\n                }\r\n            } catch Error(string memory reason) {\r\n                appendTestResult(\r\n                    buildErrorMessage(\r\n                        \"Error (Exercise B)\",\r\n                        \"Error with tests in Exercise B.\",\r\n                        reason\r\n                    ),\r\n                    false,\r\n                    0\r\n                );\r\n            }\r\n        } else {\r\n            appendTestResult(\r\n                \"Exercise B: Some of the required functions are not correctly implemented. Validation not possible!\",\r\n                false,\r\n                0\r\n            );\r\n        }\r\n\r\n        /*----------  EXERCISE C  ----------*/\r\n\r\n        validatorTaskC.initContract(_contractAddress);\r\n\r\n        if (hasFunction(address(validatorTaskC), \"testExerciseC()\", 1 gwei)) {\r\n            try validatorTaskC.testExerciseC{value: 1 gwei}() returns (\r\n                string memory messageC,\r\n                bool resultC\r\n            ) {\r\n                if (resultC) {\r\n                    // Add the result to the history\r\n                    appendTestResult(messageC, resultC, 3);\r\n                } else {\r\n                    // Add the result to the history\r\n                    appendTestResult(messageC, false, 0);\r\n                }\r\n            } catch Error(string memory reason) {\r\n                appendTestResult(\r\n                    buildErrorMessage(\r\n                        \"Error (Exercise C)\",\r\n                        \"Error with tests in Exercise C.\",\r\n                        reason\r\n                    ),\r\n                    false,\r\n                    0\r\n                );\r\n            }\r\n        } else {\r\n            appendTestResult(\r\n                \"Exercise C: Some of the required functions are not correctly implemented. Validation not possible!\",\r\n                false,\r\n                0\r\n            );\r\n        }\r\n\r\n        // Return the history index\r\n        return testId;\r\n    }\r\n}\r\n",
  "sourcePath": "C:\\Users\\jonas\\Repos\\mtp-blockchain\\smart-contracts\\contracts\\assignment_3\\Validator3.sol",
  "compiler": {
    "name": "solc",
    "version": "0.8.17+commit.8df45f5f.Emscripten.clang"
  },
  "schemaVersion": "3.4.11",
  "updatedAt": "2023-02-01T15:34:30.402Z",
  "devdoc": {
    "kind": "dev",
    "methods": {
      "getSubmittedAssignment(address)": {
        "params": {
          "_address": "Student address"
        },
        "returns": {
          "_0": "AssignmentSubmitted"
        }
      },
      "getTestHistoryIndexes(address)": {
        "params": {
          "_address": "Student address"
        },
        "returns": {
          "_0": "testIndexes Array of test history indexes"
        }
      },
      "hasAssignmentSubmitted(address)": {
        "params": {
          "_address": "Student address"
        },
        "returns": {
          "_0": "bool"
        }
      },
      "removeSubmittedAssignment(address)": {
        "params": {
          "_address": "Student address"
        }
      },
      "setAssignmentInfos(uint256,uint256)": {
        "params": {
          "assignmentId": "Assignment id",
          "semesterId": "Semester id"
        }
      }
    },
    "version": 1
  },
  "userdoc": {
    "kind": "user",
    "methods": {
      "clearAssignmentInfos()": {
        "notice": "Clear assignment infos"
      },
      "getAssignmentInfos()": {
        "notice": "Get assignment infos"
      },
      "getHistoryCounter()": {
        "notice": "Get test history counter"
      },
      "getRequiredEther()": {
        "notice": "Get required ether This amount of ether is required to submit or test an assignment"
      },
      "getSubmittedAssignment(address)": {
        "notice": "Get submitted assignment for address"
      },
      "getTestHistoryIndexes(address)": {
        "notice": "Get all test history indexes for a student MARK: The array has a fixed size, ignore all number besides 0"
      },
      "hasAssignmentSubmitted(address)": {
        "notice": "Check if assignment is submitted"
      },
      "isAssignmentLinked()": {
        "notice": "Check if assignment is linked to config storage"
      },
      "removeSubmittedAssignment(address)": {
        "notice": "Remove submitted assignment"
      },
      "setAssignmentCreationBlockNumber()": {
        "notice": "Set block number of contract creation"
      },
      "setAssignmentInfos(uint256,uint256)": {
        "notice": "Set assignment infos"
      },
      "setAssignmentOwner()": {
        "notice": "Set admin address"
      }
    },
    "version": 1
  }
}