{
  "contractName": "Validator4TaskA",
  "abi": [
    {
      "inputs": [
        {
          "internalType": "address",
          "name": "_configContractAddress",
          "type": "address"
        }
      ],
      "stateMutability": "nonpayable",
      "type": "constructor"
    },
    {
      "inputs": [
        {
          "internalType": "string",
          "name": "_prefix",
          "type": "string"
        },
        {
          "internalType": "string",
          "name": "_message",
          "type": "string"
        },
        {
          "internalType": "string",
          "name": "_errorMsg",
          "type": "string"
        }
      ],
      "name": "buildErrorMessage",
      "outputs": [
        {
          "internalType": "string",
          "name": "",
          "type": "string"
        }
      ],
      "stateMutability": "pure",
      "type": "function"
    },
    {
      "inputs": [
        {
          "internalType": "string",
          "name": "_prefix",
          "type": "string"
        },
        {
          "internalType": "string",
          "name": "_message",
          "type": "string"
        },
        {
          "internalType": "string",
          "name": "_expected",
          "type": "string"
        },
        {
          "internalType": "string",
          "name": "_actual",
          "type": "string"
        }
      ],
      "name": "buildErrorMessageExtended",
      "outputs": [
        {
          "internalType": "string",
          "name": "",
          "type": "string"
        }
      ],
      "stateMutability": "pure",
      "type": "function"
    },
    {
      "inputs": [
        {
          "internalType": "string",
          "name": "a",
          "type": "string"
        },
        {
          "internalType": "string",
          "name": "b",
          "type": "string"
        }
      ],
      "name": "compareStrings",
      "outputs": [
        {
          "internalType": "bool",
          "name": "",
          "type": "bool"
        }
      ],
      "stateMutability": "pure",
      "type": "function"
    },
    {
      "inputs": [],
      "name": "getConfigStorage",
      "outputs": [
        {
          "internalType": "contract ConfigStorage",
          "name": "",
          "type": "address"
        }
      ],
      "stateMutability": "view",
      "type": "function"
    },
    {
      "inputs": [
        {
          "internalType": "address",
          "name": "_configContractAddress",
          "type": "address"
        },
        {
          "internalType": "string",
          "name": "_contractName",
          "type": "string"
        }
      ],
      "name": "initAdmin",
      "outputs": [],
      "stateMutability": "nonpayable",
      "type": "function"
    },
    {
      "inputs": [
        {
          "internalType": "address payable",
          "name": "_to",
          "type": "address"
        },
        {
          "internalType": "uint256",
          "name": "_value",
          "type": "uint256"
        }
      ],
      "name": "withdrawFunds",
      "outputs": [],
      "stateMutability": "payable",
      "type": "function"
    },
    {
      "stateMutability": "payable",
      "type": "receive"
    },
    {
      "inputs": [
        {
          "internalType": "address",
          "name": "_contractAddress",
          "type": "address"
        }
      ],
      "name": "initContract",
      "outputs": [],
      "stateMutability": "nonpayable",
      "type": "function"
    },
    {
      "inputs": [],
      "name": "testExerciseA",
      "outputs": [
        {
          "internalType": "string",
          "name": "",
          "type": "string"
        },
        {
          "internalType": "bool",
          "name": "",
          "type": "bool"
        }
      ],
      "stateMutability": "payable",
      "type": "function"
    }
  ],
  "bytecode": "0x60806040523480156200001157600080fd5b5060405162001cf938038062001cf98339818101604052810190620000379190620001c6565b62000062816040518060600160405280602d815260200162001ccc602d91396200006960201b60201c565b50620002d7565b816000806101000a81548173ffffffffffffffffffffffffffffffffffffffff021916908373ffffffffffffffffffffffffffffffffffffffff1602179055506000620000bb6200013360201b60201c565b90508073ffffffffffffffffffffffffffffffffffffffff16637fb99b9330846040518363ffffffff1660e01b8152600401620000fa929190620002a3565b600060405180830381600087803b1580156200011557600080fd5b505af11580156200012a573d6000803e3d6000fd5b50505050505050565b60008060009054906101000a900473ffffffffffffffffffffffffffffffffffffffff16905090565b600080fd5b600073ffffffffffffffffffffffffffffffffffffffff82169050919050565b60006200018e8262000161565b9050919050565b620001a08162000181565b8114620001ac57600080fd5b50565b600081519050620001c08162000195565b92915050565b600060208284031215620001df57620001de6200015c565b5b6000620001ef84828501620001af565b91505092915050565b620002038162000181565b82525050565b600081519050919050565b600082825260208201905092915050565b60005b838110156200024557808201518184015260208101905062000228565b60008484015250505050565b6000601f19601f8301169050919050565b60006200026f8262000209565b6200027b818562000214565b93506200028d81856020860162000225565b620002988162000251565b840191505092915050565b6000604082019050620002ba6000830185620001f8565b8181036020830152620002ce818462000262565b90509392505050565b6119e580620002e76000396000f3fe60806040526004361061007f5760003560e01c8063c10753291161004e578063c10753291461016d578063cf9d4afa14610189578063cfacdce8146101b2578063fae45fbe146101d157610086565b80632b5183011461008b578063516cbbe2146100c85780635827a065146100f3578063bed34bba1461013057610086565b3661008657005b600080fd5b34801561009757600080fd5b506100b260048036038101906100ad9190610c7e565b6101fa565b6040516100bf9190610da4565b60405180910390f35b3480156100d457600080fd5b506100dd610229565b6040516100ea9190610e45565b60405180910390f35b3480156100ff57600080fd5b5061011a60048036038101906101159190610e60565b610252565b6040516101279190610da4565b60405180910390f35b34801561013c57600080fd5b5061015760048036038101906101529190610f37565b610284565b6040516101649190610fca565b60405180910390f35b61018760048036038101906101829190611059565b6102dd565b005b34801561019557600080fd5b506101b060048036038101906101ab91906110d7565b61062c565b005b6101ba6106b1565b6040516101c8929190611104565b60405180910390f35b3480156101dd57600080fd5b506101f860048036038101906101f39190611134565b610a66565b005b606083838360405160200161021193929190611264565b60405160208183030381529060405290509392505050565b60008060009054906101000a900473ffffffffffffffffffffffffffffffffffffffff16905090565b60608484848460405160200161026b9493929190611343565b6040516020818303038152906040529050949350505050565b60008160405160200161029791906113a2565b60405160208183030381529060405280519060200120836040516020016102be91906113a2565b6040516020818303038152906040528051906020012014905092915050565b6102e5610229565b73ffffffffffffffffffffffffffffffffffffffff166324d7806c336040518263ffffffff1660e01b815260040161031d91906113c8565b602060405180830381865afa15801561033a573d6000803e3d6000fd5b505050506040513d601f19601f8201168201806040525081019061035e919061140f565b61039d576040517f08c379a0000000000000000000000000000000000000000000000000000000008152600401610394906114ae565b60405180910390fd5b600073ffffffffffffffffffffffffffffffffffffffff168273ffffffffffffffffffffffffffffffffffffffff160361040c576040517f08c379a00000000000000000000000000000000000000000000000000000000081526004016104039061151a565b60405180910390fd5b3373ffffffffffffffffffffffffffffffffffffffff168273ffffffffffffffffffffffffffffffffffffffff16148061047157503273ffffffffffffffffffffffffffffffffffffffff168273ffffffffffffffffffffffffffffffffffffffff16145b806104f9575061047f610229565b73ffffffffffffffffffffffffffffffffffffffff166324d7806c836040518263ffffffff1660e01b81526004016104b7919061155b565b602060405180830381865afa1580156104d4573d6000803e3d6000fd5b505050506040513d601f19601f820116820180604052508101906104f8919061140f565b5b610538576040517f08c379a000000000000000000000000000000000000000000000000000000000815260040161052f906115e8565b60405180910390fd5b4781101561057b576040517f08c379a000000000000000000000000000000000000000000000000000000000815260040161057290611654565b60405180910390fd5b60008273ffffffffffffffffffffffffffffffffffffffff16826040516105a1906116a5565b60006040518083038185875af1925050503d80600081146105de576040519150601f19603f3d011682016040523d82523d6000602084013e6105e3565b606091505b5050905080610627576040517f08c379a000000000000000000000000000000000000000000000000000000000815260040161061e90611706565b60405180910390fd5b505050565b80600160006101000a81548173ffffffffffffffffffffffffffffffffffffffff021916908373ffffffffffffffffffffffffffffffffffffffff16021790555030600260006101000a81548173ffffffffffffffffffffffffffffffffffffffff021916908373ffffffffffffffffffffffffffffffffffffffff16021790555050565b6060600080600090506000600160009054906101000a900473ffffffffffffffffffffffffffffffffffffffff1673ffffffffffffffffffffffffffffffffffffffff166310fe9ae86040518163ffffffff1660e01b8152600401602060405180830381865afa92505050801561074657506040513d601f19601f82011682018060405250810190610743919061173b565b60015b6107715760006040518060600160405280603c8152602001611974603c913990935093505050610a62565b80915050600073ffffffffffffffffffffffffffffffffffffffff168173ffffffffffffffffffffffffffffffffffffffff16036107d05760006040518060600160405280603581526020016118ef6035913990935093505050610a62565b60008173ffffffffffffffffffffffffffffffffffffffff166370a08231600260009054906101000a900473ffffffffffffffffffffffffffffffffffffffff166040518263ffffffff1660e01b815260040161082d91906113c8565b602060405180830381865afa15801561084a573d6000803e3d6000fd5b505050506040513d601f19601f8201168201806040525081019061086e919061177d565b905060006509184e72a00090508273ffffffffffffffffffffffffffffffffffffffff166340c10f19600260009054906101000a900473ffffffffffffffffffffffffffffffffffffffff16836040518363ffffffff1660e01b81526004016108d89291906117b9565b600060405180830381600087803b1580156108f257600080fd5b505af1925050508015610903575060015b6109305760006040518060600160405280603181526020016118be60319139909550955050505050610a62565b60008373ffffffffffffffffffffffffffffffffffffffff166370a08231600260009054906101000a900473ffffffffffffffffffffffffffffffffffffffff166040518263ffffffff1660e01b815260040161098d91906113c8565b602060405180830381865afa1580156109aa573d6000803e3d6000fd5b505050506040513d601f19601f820116820180604052508101906109ce919061177d565b90508183826109dd9190611811565b036109f55784806109ed90611845565b955050610a1f565b60006040518060800160405280605081526020016119246050913990965096505050505050610a62565b5060016040518060400160405280601d81526020017f457865726369736520413a20416c6c20746573747320706173736564210000008152509095509550505050505b9091565b816000806101000a81548173ffffffffffffffffffffffffffffffffffffffff021916908373ffffffffffffffffffffffffffffffffffffffff1602179055506000610ab0610229565b90508073ffffffffffffffffffffffffffffffffffffffff16637fb99b9330846040518363ffffffff1660e01b8152600401610aed92919061188d565b600060405180830381600087803b158015610b0757600080fd5b505af1158015610b1b573d6000803e3d6000fd5b50505050505050565b6000604051905090565b600080fd5b600080fd5b600080fd5b600080fd5b6000601f19601f8301169050919050565b7f4e487b7100000000000000000000000000000000000000000000000000000000600052604160045260246000fd5b610b8b82610b42565b810181811067ffffffffffffffff82111715610baa57610ba9610b53565b5b80604052505050565b6000610bbd610b24565b9050610bc98282610b82565b919050565b600067ffffffffffffffff821115610be957610be8610b53565b5b610bf282610b42565b9050602081019050919050565b82818337600083830152505050565b6000610c21610c1c84610bce565b610bb3565b905082815260208101848484011115610c3d57610c3c610b3d565b5b610c48848285610bff565b509392505050565b600082601f830112610c6557610c64610b38565b5b8135610c75848260208601610c0e565b91505092915050565b600080600060608486031215610c9757610c96610b2e565b5b600084013567ffffffffffffffff811115610cb557610cb4610b33565b5b610cc186828701610c50565b935050602084013567ffffffffffffffff811115610ce257610ce1610b33565b5b610cee86828701610c50565b925050604084013567ffffffffffffffff811115610d0f57610d0e610b33565b5b610d1b86828701610c50565b9150509250925092565b600081519050919050565b600082825260208201905092915050565b60005b83811015610d5f578082015181840152602081019050610d44565b60008484015250505050565b6000610d7682610d25565b610d808185610d30565b9350610d90818560208601610d41565b610d9981610b42565b840191505092915050565b60006020820190508181036000830152610dbe8184610d6b565b905092915050565b600073ffffffffffffffffffffffffffffffffffffffff82169050919050565b6000819050919050565b6000610e0b610e06610e0184610dc6565b610de6565b610dc6565b9050919050565b6000610e1d82610df0565b9050919050565b6000610e2f82610e12565b9050919050565b610e3f81610e24565b82525050565b6000602082019050610e5a6000830184610e36565b92915050565b60008060008060808587031215610e7a57610e79610b2e565b5b600085013567ffffffffffffffff811115610e9857610e97610b33565b5b610ea487828801610c50565b945050602085013567ffffffffffffffff811115610ec557610ec4610b33565b5b610ed187828801610c50565b935050604085013567ffffffffffffffff811115610ef257610ef1610b33565b5b610efe87828801610c50565b925050606085013567ffffffffffffffff811115610f1f57610f1e610b33565b5b610f2b87828801610c50565b91505092959194509250565b60008060408385031215610f4e57610f4d610b2e565b5b600083013567ffffffffffffffff811115610f6c57610f6b610b33565b5b610f7885828601610c50565b925050602083013567ffffffffffffffff811115610f9957610f98610b33565b5b610fa585828601610c50565b9150509250929050565b60008115159050919050565b610fc481610faf565b82525050565b6000602082019050610fdf6000830184610fbb565b92915050565b6000610ff082610dc6565b9050919050565b61100081610fe5565b811461100b57600080fd5b50565b60008135905061101d81610ff7565b92915050565b6000819050919050565b61103681611023565b811461104157600080fd5b50565b6000813590506110538161102d565b92915050565b600080604083850312156110705761106f610b2e565b5b600061107e8582860161100e565b925050602061108f85828601611044565b9150509250929050565b60006110a482610dc6565b9050919050565b6110b481611099565b81146110bf57600080fd5b50565b6000813590506110d1816110ab565b92915050565b6000602082840312156110ed576110ec610b2e565b5b60006110fb848285016110c2565b91505092915050565b6000604082019050818103600083015261111e8185610d6b565b905061112d6020830184610fbb565b9392505050565b6000806040838503121561114b5761114a610b2e565b5b6000611159858286016110c2565b925050602083013567ffffffffffffffff81111561117a57611179610b33565b5b61118685828601610c50565b9150509250929050565b600081905092915050565b60006111a682610d25565b6111b08185611190565b93506111c0818560208601610d41565b80840191505092915050565b7f3a20000000000000000000000000000000000000000000000000000000000000600082015250565b6000611202600283611190565b915061120d826111cc565b600282019050919050565b7f203e200000000000000000000000000000000000000000000000000000000000600082015250565b600061124e600383611190565b915061125982611218565b600382019050919050565b6000611270828661119b565b915061127b826111f5565b9150611287828561119b565b915061129282611241565b915061129e828461119b565b9150819050949350505050565b7f2045787065637465643a20000000000000000000000000000000000000000000600082015250565b60006112e1600b83611190565b91506112ec826112ab565b600b82019050919050565b7f2041637475616c3a200000000000000000000000000000000000000000000000600082015250565b600061132d600983611190565b9150611338826112f7565b600982019050919050565b600061134f828761119b565b915061135a826111f5565b9150611366828661119b565b9150611371826112d4565b915061137d828561119b565b915061138882611320565b9150611394828461119b565b915081905095945050505050565b60006113ae828461119b565b915081905092915050565b6113c281611099565b82525050565b60006020820190506113dd60008301846113b9565b92915050565b6113ec81610faf565b81146113f757600080fd5b50565b600081519050611409816113e3565b92915050565b60006020828403121561142557611424610b2e565b5b6000611433848285016113fa565b91505092915050565b7f4f6e6c7920636f6e74726163742061646d696e2063616e20776974686472617760008201527f2066756e64730000000000000000000000000000000000000000000000000000602082015250565b6000611498602683610d30565b91506114a38261143c565b604082019050919050565b600060208201905081810360008301526114c78161148b565b9050919050565b7f496e76616c696420616464726573730000000000000000000000000000000000600082015250565b6000611504600f83610d30565b915061150f826114ce565b602082019050919050565b60006020820190508181036000830152611533816114f7565b9050919050565b600061154582610e12565b9050919050565b6115558161153a565b82525050565b6000602082019050611570600083018461154c565b92915050565b7f46756e64732063616e206f6e6c792062652077697468647261776e20746f206160008201527f646d696e2c206d73672e73656e646572206f722074782e6f726967696e000000602082015250565b60006115d2603d83610d30565b91506115dd82611576565b604082019050919050565b60006020820190508181036000830152611601816115c5565b9050919050565b7f496e73756666696369656e742066756e64730000000000000000000000000000600082015250565b600061163e601283610d30565b915061164982611608565b602082019050919050565b6000602082019050818103600083015261166d81611631565b9050919050565b600081905092915050565b50565b600061168f600083611674565b915061169a8261167f565b600082019050919050565b60006116b082611682565b9150819050919050565b7f5472616e73666572206661696c65642e00000000000000000000000000000000600082015250565b60006116f0601083610d30565b91506116fb826116ba565b602082019050919050565b6000602082019050818103600083015261171f816116e3565b9050919050565b600081519050611735816110ab565b92915050565b60006020828403121561175157611750610b2e565b5b600061175f84828501611726565b91505092915050565b6000815190506117778161102d565b92915050565b60006020828403121561179357611792610b2e565b5b60006117a184828501611768565b91505092915050565b6117b381611023565b82525050565b60006040820190506117ce60008301856113b9565b6117db60208301846117aa565b9392505050565b7f4e487b7100000000000000000000000000000000000000000000000000000000600052601160045260246000fd5b600061181c82611023565b915061182783611023565b925082820390508181111561183f5761183e6117e2565b5b92915050565b600061185082611023565b91507fffffffffffffffffffffffffffffffffffffffffffffffffffffffffffffffff8203611882576118816117e2565b5b600182019050919050565b60006040820190506118a260008301856113b9565b81810360208301526118b48184610d6b565b9050939250505056fe4572726f72202845786572636973652041293a204572726f72207769746820746865206d696e742066756e6374696f6e214572726f72202845786572636973652041293a2054686520746f6b656e2061646472657373206973206e6f7420636f7272656374214572726f72202845786572636973652041293a2054686520746f6b656e2062616c616e636520666f72207468652076616c696461746f7220636f6e7472616374206973206e6f7420636f7272656374214572726f72202845786572636973652041293a204572726f7220776974682074686520676574546f6b656e416464726573732066756e6374696f6e21a2646970667358221220bb4da3f18f287288eb148412166d3b76c806fc9b89d5132d5fa3027368acd13464736f6c63430008130033535332332041737369676e6d656e7420342056616c696461746f7220436f6e7472616374202d205461736b2041",
  "immutableReferences": {},
  "source": "// SPDX-License-Identifier: MIT\r\npragma solidity ^0.8.17;\r\n\r\n// Import IERC20.sol\r\nimport \"../../node_modules/@openzeppelin/contracts/token/ERC20/IERC20.sol\";\r\n\r\n// Import the IAssignment4.sol\r\nimport \"./interface/IAssignment4.sol\";\r\n\r\n// Import coin interface\r\nimport \"./interface/IAssignment4Coin.sol\";\r\n\r\n// Import Helper\r\nimport \"../Helper.sol\";\r\n\r\n// import \"BaseConfig.sol\";\r\nimport \"../BaseConfig.sol\";\r\n\r\ncontract Validator4TaskA is Helper, BaseConfig {\r\n    // assignment contract interface\r\n    IAssignment4 assignmentContract;\r\n\r\n    // Address of the validator contract for task A\r\n    address validatorAddress;\r\n\r\n    constructor(address _configContractAddress) {\r\n        initAdmin(\r\n            _configContractAddress,\r\n            \"SS23 Assignment 4 Validator Contract - Task A\"\r\n        );\r\n    }\r\n\r\n    receive() external payable {}\r\n\r\n    // Init contract\r\n    function initContract(address _contractAddress) public {\r\n        // Call the contract interface which needs to be tested and store it in the variable assignmentContract\r\n        assignmentContract = IAssignment4(_contractAddress);\r\n\r\n        validatorAddress = address(this);\r\n    }\r\n\r\n    /**\r\n     * TEST EXERCISE A\r\n     *\r\n     * - test getTokenAddress function\r\n     * - test mint function\r\n     */\r\n    function testExerciseA() public payable returns (string memory, bool) {\r\n        /*----------  EXERCISE A  ----------*/\r\n\r\n        uint256 testCounter = 0;\r\n\r\n        address tokenAddress = address(0);\r\n\r\n        try assignmentContract.getTokenAddress() returns (\r\n            address _tokenAddress\r\n        ) {\r\n            tokenAddress = _tokenAddress;\r\n        } catch {\r\n            return (\r\n                \"Error (Exercise A): Error with the getTokenAddress function!\",\r\n                false\r\n            );\r\n        }\r\n\r\n        if (tokenAddress == address(0)) {\r\n            return (\r\n                \"Error (Exercise A): The token address is not correct!\",\r\n                false\r\n            );\r\n        }\r\n\r\n        uint256 tokenBalanceBeforeTaskB = IERC20(tokenAddress).balanceOf(\r\n            validatorAddress\r\n        );\r\n\r\n        uint256 amount = 10000 gwei;\r\n\r\n        try IAssignment4Coin(tokenAddress).mint(validatorAddress, amount) {\r\n            uint256 tokenBalanceAfterTaskB = IERC20(tokenAddress).balanceOf(\r\n                validatorAddress\r\n            );\r\n\r\n            if (tokenBalanceAfterTaskB - tokenBalanceBeforeTaskB == amount) {\r\n                testCounter++;\r\n            } else {\r\n                return (\r\n                    \"Error (Exercise A): The token balance for the validator contract is not correct!\",\r\n                    false\r\n                );\r\n            }\r\n        } catch {\r\n            return (\"Error (Exercise A): Error with the mint function!\", false);\r\n        }\r\n\r\n        return (\"Exercise A: All tests passed!\", true);\r\n    }\r\n}\r\n",
  "sourcePath": "C:\\Users\\stefa\\www\\mtp-blockchain\\smart-contracts\\contracts\\assignment_4\\Validator4TaskA.sol",
  "compiler": {
    "name": "solc",
    "version": "0.8.19+commit.7dd6d404.Emscripten.clang"
  },
  "schemaVersion": "3.4.11",
  "updatedAt": "2023-02-24T09:41:35.202Z",
  "devdoc": {
    "kind": "dev",
    "methods": {},
    "version": 1
  },
  "userdoc": {
    "kind": "user",
    "methods": {
      "testExerciseA()": {
        "notice": "TEST EXERCISE A - test getTokenAddress function - test mint function"
      }
    },
    "version": 1
  }
}