{
  "contractName": "Validator4TaskD",
  "abi": [
    {
      "inputs": [
        {
          "internalType": "address",
          "name": "_configContractAddress",
          "type": "address"
        }
      ],
      "stateMutability": "nonpayable",
      "type": "constructor"
    },
    {
      "inputs": [
        {
          "internalType": "string",
          "name": "_prefix",
          "type": "string"
        },
        {
          "internalType": "string",
          "name": "_message",
          "type": "string"
        },
        {
          "internalType": "string",
          "name": "_errorMsg",
          "type": "string"
        }
      ],
      "name": "buildErrorMessage",
      "outputs": [
        {
          "internalType": "string",
          "name": "",
          "type": "string"
        }
      ],
      "stateMutability": "pure",
      "type": "function"
    },
    {
      "inputs": [
        {
          "internalType": "string",
          "name": "_prefix",
          "type": "string"
        },
        {
          "internalType": "string",
          "name": "_message",
          "type": "string"
        },
        {
          "internalType": "string",
          "name": "_expected",
          "type": "string"
        },
        {
          "internalType": "string",
          "name": "_actual",
          "type": "string"
        }
      ],
      "name": "buildErrorMessageExtended",
      "outputs": [
        {
          "internalType": "string",
          "name": "",
          "type": "string"
        }
      ],
      "stateMutability": "pure",
      "type": "function"
    },
    {
      "inputs": [
        {
          "internalType": "string",
          "name": "a",
          "type": "string"
        },
        {
          "internalType": "string",
          "name": "b",
          "type": "string"
        }
      ],
      "name": "compareStrings",
      "outputs": [
        {
          "internalType": "bool",
          "name": "",
          "type": "bool"
        }
      ],
      "stateMutability": "pure",
      "type": "function"
    },
    {
      "inputs": [],
      "name": "getConfigStorage",
      "outputs": [
        {
          "internalType": "contract ConfigStorage",
          "name": "",
          "type": "address"
        }
      ],
      "stateMutability": "view",
      "type": "function"
    },
    {
      "inputs": [
        {
          "internalType": "address",
          "name": "_configContractAddress",
          "type": "address"
        },
        {
          "internalType": "string",
          "name": "_contractName",
          "type": "string"
        }
      ],
      "name": "initAdmin",
      "outputs": [],
      "stateMutability": "nonpayable",
      "type": "function"
    },
    {
      "inputs": [
        {
          "internalType": "address payable",
          "name": "_to",
          "type": "address"
        },
        {
          "internalType": "uint256",
          "name": "_value",
          "type": "uint256"
        }
      ],
      "name": "withdrawFunds",
      "outputs": [],
      "stateMutability": "payable",
      "type": "function"
    },
    {
      "stateMutability": "payable",
      "type": "receive"
    },
    {
      "inputs": [
        {
          "internalType": "address",
          "name": "_contractAddress",
          "type": "address"
        },
        {
          "internalType": "address",
          "name": "_registryAddress",
          "type": "address"
        },
        {
          "internalType": "address",
          "name": "_testToken",
          "type": "address"
        }
      ],
      "name": "initContract",
      "outputs": [],
      "stateMutability": "nonpayable",
      "type": "function"
    },
    {
      "inputs": [],
      "name": "testExerciseD",
      "outputs": [
        {
          "internalType": "string",
          "name": "",
          "type": "string"
        },
        {
          "internalType": "bool",
          "name": "",
          "type": "bool"
        }
      ],
      "stateMutability": "payable",
      "type": "function"
    },
    {
      "inputs": [
        {
          "internalType": "address",
          "name": "tokenAddress",
          "type": "address"
        }
      ],
      "name": "getReserve",
      "outputs": [
        {
          "internalType": "uint256",
          "name": "",
          "type": "uint256"
        }
      ],
      "stateMutability": "view",
      "type": "function"
    }
  ],
  "bytecode": "0x60806040523480156200001157600080fd5b5060405162002880380380620028808339818101604052810190620000379190620001c6565b62000062816040518060600160405280602d815260200162002853602d91396200006960201b60201c565b50620002d7565b816000806101000a81548173ffffffffffffffffffffffffffffffffffffffff021916908373ffffffffffffffffffffffffffffffffffffffff1602179055506000620000bb6200013360201b60201c565b90508073ffffffffffffffffffffffffffffffffffffffff16637fb99b9330846040518363ffffffff1660e01b8152600401620000fa929190620002a3565b600060405180830381600087803b1580156200011557600080fd5b505af11580156200012a573d6000803e3d6000fd5b50505050505050565b60008060009054906101000a900473ffffffffffffffffffffffffffffffffffffffff16905090565b600080fd5b600073ffffffffffffffffffffffffffffffffffffffff82169050919050565b60006200018e8262000161565b9050919050565b620001a08162000181565b8114620001ac57600080fd5b50565b600081519050620001c08162000195565b92915050565b600060208284031215620001df57620001de6200015c565b5b6000620001ef84828501620001af565b91505092915050565b620002038162000181565b82525050565b600081519050919050565b600082825260208201905092915050565b60005b838110156200024557808201518184015260208101905062000228565b60008484015250505050565b6000601f19601f8301169050919050565b60006200026f8262000209565b6200027b818562000214565b93506200028d81856020860162000225565b620002988162000251565b840191505092915050565b6000604082019050620002ba6000830185620001f8565b8181036020830152620002ce818462000262565b90509392505050565b61256c80620002e76000396000f3fe60806040526004361061008a5760003560e01c80639b1bb323116100595780639b1bb3231461015a578063bed34bba14610183578063c1075329146101c0578063c9a396e9146101dc578063fae45fbe1461021957610091565b80632b51830114610096578063516cbbe2146100d35780635827a065146100fe5780636fceee2b1461013b57610091565b3661009157005b600080fd5b3480156100a257600080fd5b506100bd60048036038101906100b89190611468565b610242565b6040516100ca919061158e565b60405180910390f35b3480156100df57600080fd5b506100e8610271565b6040516100f5919061162f565b60405180910390f35b34801561010a57600080fd5b506101256004803603810190610120919061164a565b61029a565b604051610132919061158e565b60405180910390f35b6101436102cc565b60405161015192919061173c565b60405180910390f35b34801561016657600080fd5b50610181600480360381019061017c91906117aa565b610c61565b005b34801561018f57600080fd5b506101aa60048036038101906101a591906117fd565b610d6a565b6040516101b79190611875565b60405180910390f35b6101da60048036038101906101d59190611904565b610dc3565b005b3480156101e857600080fd5b5061020360048036038101906101fe9190611944565b611112565b6040516102109190611980565b60405180910390f35b34801561022557600080fd5b50610240600480360381019061023b919061199b565b6111b7565b005b606083838360405160200161025993929190611acb565b60405160208183030381529060405290509392505050565b60008060009054906101000a900473ffffffffffffffffffffffffffffffffffffffff16905090565b6060848484846040516020016102b39493929190611baa565b6040516020818303038152906040529050949350505050565b60606000803090506000600260009054906101000a900473ffffffffffffffffffffffffffffffffffffffff1673ffffffffffffffffffffffffffffffffffffffff166306f2bf62600360009054906101000a900473ffffffffffffffffffffffffffffffffffffffff166040518263ffffffff1660e01b81526004016103539190611c18565b602060405180830381865afa158015610370573d6000803e3d6000fd5b505050506040513d601f19601f820116820180604052508101906103949190611c48565b90506000600160009054906101000a900473ffffffffffffffffffffffffffffffffffffffff1673ffffffffffffffffffffffffffffffffffffffff166310fe9ae86040518163ffffffff1660e01b8152600401602060405180830381865afa158015610405573d6000803e3d6000fd5b505050506040513d601f19601f820116820180604052508101906104299190611c48565b90506000600360009054906101000a900473ffffffffffffffffffffffffffffffffffffffff169050600083905060008373ffffffffffffffffffffffffffffffffffffffff166370a08231876040518263ffffffff1660e01b81526004016104929190611c18565b602060405180830381865afa1580156104af573d6000803e3d6000fd5b505050506040513d601f19601f820116820180604052508101906104d39190611c8a565b905060008373ffffffffffffffffffffffffffffffffffffffff166370a08231886040518263ffffffff1660e01b81526004016105109190611c18565b602060405180830381865afa15801561052d573d6000803e3d6000fd5b505050506040513d601f19601f820116820180604052508101906105519190611c8a565b9050600064174876e80090508573ffffffffffffffffffffffffffffffffffffffff166340c10f198964e8d4a510006040518363ffffffff1660e01b815260040161059d929190611cf2565b600060405180830381600087803b1580156105b757600080fd5b505af11580156105cb573d6000803e3d6000fd5b505050508473ffffffffffffffffffffffffffffffffffffffff166340c10f198964e8d4a510006040518363ffffffff1660e01b815260040161060f929190611cf2565b600060405180830381600087803b15801561062957600080fd5b505af115801561063d573d6000803e3d6000fd5b5050505060006106c16402540be40080600160009054906101000a900473ffffffffffffffffffffffffffffffffffffffff1673ffffffffffffffffffffffffffffffffffffffff16316106919190611d4a565b6106bc600360009054906101000a900473ffffffffffffffffffffffffffffffffffffffff16611112565b611275565b90508673ffffffffffffffffffffffffffffffffffffffff1663095ea7b3600160009054906101000a900473ffffffffffffffffffffffffffffffffffffffff1664e8d4a510006040518363ffffffff1660e01b8152600401610725929190611cf2565b6020604051808303816000875af1158015610744573d6000803e3d6000fd5b505050506040513d601f19601f820116820180604052508101906107689190611daa565b508573ffffffffffffffffffffffffffffffffffffffff1663095ea7b3600160009054906101000a900473ffffffffffffffffffffffffffffffffffffffff1664e8d4a510006040518363ffffffff1660e01b81526004016107cb929190611cf2565b6020604051808303816000875af11580156107ea573d6000803e3d6000fd5b505050506040513d601f19601f8201168201806040525081019061080e9190611daa565b508573ffffffffffffffffffffffffffffffffffffffff1663095ea7b38664e8d4a510006040518363ffffffff1660e01b815260040161084f929190611cf2565b6020604051808303816000875af115801561086e573d6000803e3d6000fd5b505050506040513d601f19601f820116820180604052508101906108929190611daa565b508473ffffffffffffffffffffffffffffffffffffffff166351c6590a6402540be400642e90edd0006040518363ffffffff1660e01b81526004016108d79190611e12565b60206040518083038185885af19350505050801561091357506040513d601f19601f820116820180604052508101906109109190611c8a565b60015b61097f5761091f611e3a565b806308c379a0036109735750610933611e5c565b8061093e5750610975565b8060405160200161094f9190611f5e565b60405160208183030381529060405260009b509b5050505050505050505050610c5d565b505b3d6000803e3d6000fd5b50600160009054906101000a900473ffffffffffffffffffffffffffffffffffffffff1673ffffffffffffffffffffffffffffffffffffffff1663f7a7e32464174876e800846001856109d29190611f80565b600360009054906101000a900473ffffffffffffffffffffffffffffffffffffffff166040518563ffffffff1660e01b8152600401610a1393929190611fb4565b6000604051808303818588803b158015610a2c57600080fd5b505af193505050508015610a3e575060015b610aaa57610a4a611e3a565b806308c379a003610a9e5750610a5e611e5c565b80610a695750610aa0565b80604051602001610a7a919061205d565b60405160208183030381529060405260009b509b5050505050505050505050610c5d565b505b3d6000803e3d6000fd5b60008773ffffffffffffffffffffffffffffffffffffffff166370a082318b6040518263ffffffff1660e01b8152600401610ae59190611c18565b602060405180830381865afa158015610b02573d6000803e3d6000fd5b505050506040513d601f19601f82011682018060405250810190610b269190611c8a565b905060008773ffffffffffffffffffffffffffffffffffffffff166370a082318c6040518263ffffffff1660e01b8152600401610b639190611c18565b602060405180830381865afa158015610b80573d6000803e3d6000fd5b505050506040513d601f19601f82011682018060405250810190610ba49190611c8a565b9050858211610bdd5760006040518060600160405280603e81526020016124f9603e9139909c509c505050505050505050505050610c5d565b848111610c145760006040518060600160405280603a81526020016124bf603a9139909c509c505050505050505050505050610c5d565b505060016040518060400160405280601d81526020017f457865726369736520443a20416c6c2074657374732070617373656421000000815250909a509a505050505050505050505b9091565b82600160006101000a81548173ffffffffffffffffffffffffffffffffffffffff021916908373ffffffffffffffffffffffffffffffffffffffff16021790555081600260006101000a81548173ffffffffffffffffffffffffffffffffffffffff021916908373ffffffffffffffffffffffffffffffffffffffff16021790555080600360006101000a81548173ffffffffffffffffffffffffffffffffffffffff021916908373ffffffffffffffffffffffffffffffffffffffff16021790555082600460006101000a81548173ffffffffffffffffffffffffffffffffffffffff021916908373ffffffffffffffffffffffffffffffffffffffff160217905550505050565b600081604051602001610d7d919061207f565b6040516020818303038152906040528051906020012083604051602001610da4919061207f565b6040516020818303038152906040528051906020012014905092915050565b610dcb610271565b73ffffffffffffffffffffffffffffffffffffffff166324d7806c336040518263ffffffff1660e01b8152600401610e039190611c18565b602060405180830381865afa158015610e20573d6000803e3d6000fd5b505050506040513d601f19601f82011682018060405250810190610e449190611daa565b610e83576040517f08c379a0000000000000000000000000000000000000000000000000000000008152600401610e7a90612108565b60405180910390fd5b600073ffffffffffffffffffffffffffffffffffffffff168273ffffffffffffffffffffffffffffffffffffffff1603610ef2576040517f08c379a0000000000000000000000000000000000000000000000000000000008152600401610ee990612174565b60405180910390fd5b3373ffffffffffffffffffffffffffffffffffffffff168273ffffffffffffffffffffffffffffffffffffffff161480610f5757503273ffffffffffffffffffffffffffffffffffffffff168273ffffffffffffffffffffffffffffffffffffffff16145b80610fdf5750610f65610271565b73ffffffffffffffffffffffffffffffffffffffff166324d7806c836040518263ffffffff1660e01b8152600401610f9d91906121b5565b602060405180830381865afa158015610fba573d6000803e3d6000fd5b505050506040513d601f19601f82011682018060405250810190610fde9190611daa565b5b61101e576040517f08c379a000000000000000000000000000000000000000000000000000000000815260040161101590612242565b60405180910390fd5b47811015611061576040517f08c379a0000000000000000000000000000000000000000000000000000000008152600401611058906122ae565b60405180910390fd5b60008273ffffffffffffffffffffffffffffffffffffffff1682604051611087906122ff565b60006040518083038185875af1925050503d80600081146110c4576040519150601f19603f3d011682016040523d82523d6000602084013e6110c9565b606091505b505090508061110d576040517f08c379a000000000000000000000000000000000000000000000000000000000815260040161110490612360565b60405180910390fd5b505050565b60008173ffffffffffffffffffffffffffffffffffffffff166370a08231600460009054906101000a900473ffffffffffffffffffffffffffffffffffffffff166040518263ffffffff1660e01b815260040161116f9190611c18565b602060405180830381865afa15801561118c573d6000803e3d6000fd5b505050506040513d601f19601f820116820180604052508101906111b09190611c8a565b9050919050565b816000806101000a81548173ffffffffffffffffffffffffffffffffffffffff021916908373ffffffffffffffffffffffffffffffffffffffff1602179055506000611201610271565b90508073ffffffffffffffffffffffffffffffffffffffff16637fb99b9330846040518363ffffffff1660e01b815260040161123e929190612380565b600060405180830381600087803b15801561125857600080fd5b505af115801561126c573d6000803e3d6000fd5b50505050505050565b60008060638561128591906123b0565b90506000838261129591906123b0565b90506000826064876112a791906123b0565b6112b19190611f80565b9050600081116112f6576040517f08c379a00000000000000000000000000000000000000000000000000000000081526004016112ed9061243e565b60405180910390fd5b8082611302919061248d565b93505050509392505050565b6000604051905090565b600080fd5b600080fd5b600080fd5b600080fd5b6000601f19601f8301169050919050565b7f4e487b7100000000000000000000000000000000000000000000000000000000600052604160045260246000fd5b6113758261132c565b810181811067ffffffffffffffff821117156113945761139361133d565b5b80604052505050565b60006113a761130e565b90506113b3828261136c565b919050565b600067ffffffffffffffff8211156113d3576113d261133d565b5b6113dc8261132c565b9050602081019050919050565b82818337600083830152505050565b600061140b611406846113b8565b61139d565b90508281526020810184848401111561142757611426611327565b5b6114328482856113e9565b509392505050565b600082601f83011261144f5761144e611322565b5b813561145f8482602086016113f8565b91505092915050565b60008060006060848603121561148157611480611318565b5b600084013567ffffffffffffffff81111561149f5761149e61131d565b5b6114ab8682870161143a565b935050602084013567ffffffffffffffff8111156114cc576114cb61131d565b5b6114d88682870161143a565b925050604084013567ffffffffffffffff8111156114f9576114f861131d565b5b6115058682870161143a565b9150509250925092565b600081519050919050565b600082825260208201905092915050565b60005b8381101561154957808201518184015260208101905061152e565b60008484015250505050565b60006115608261150f565b61156a818561151a565b935061157a81856020860161152b565b6115838161132c565b840191505092915050565b600060208201905081810360008301526115a88184611555565b905092915050565b600073ffffffffffffffffffffffffffffffffffffffff82169050919050565b6000819050919050565b60006115f56115f06115eb846115b0565b6115d0565b6115b0565b9050919050565b6000611607826115da565b9050919050565b6000611619826115fc565b9050919050565b6116298161160e565b82525050565b60006020820190506116446000830184611620565b92915050565b6000806000806080858703121561166457611663611318565b5b600085013567ffffffffffffffff8111156116825761168161131d565b5b61168e8782880161143a565b945050602085013567ffffffffffffffff8111156116af576116ae61131d565b5b6116bb8782880161143a565b935050604085013567ffffffffffffffff8111156116dc576116db61131d565b5b6116e88782880161143a565b925050606085013567ffffffffffffffff8111156117095761170861131d565b5b6117158782880161143a565b91505092959194509250565b60008115159050919050565b61173681611721565b82525050565b600060408201905081810360008301526117568185611555565b9050611765602083018461172d565b9392505050565b6000611777826115b0565b9050919050565b6117878161176c565b811461179257600080fd5b50565b6000813590506117a48161177e565b92915050565b6000806000606084860312156117c3576117c2611318565b5b60006117d186828701611795565b93505060206117e286828701611795565b92505060406117f386828701611795565b9150509250925092565b6000806040838503121561181457611813611318565b5b600083013567ffffffffffffffff8111156118325761183161131d565b5b61183e8582860161143a565b925050602083013567ffffffffffffffff81111561185f5761185e61131d565b5b61186b8582860161143a565b9150509250929050565b600060208201905061188a600083018461172d565b92915050565b600061189b826115b0565b9050919050565b6118ab81611890565b81146118b657600080fd5b50565b6000813590506118c8816118a2565b92915050565b6000819050919050565b6118e1816118ce565b81146118ec57600080fd5b50565b6000813590506118fe816118d8565b92915050565b6000806040838503121561191b5761191a611318565b5b6000611929858286016118b9565b925050602061193a858286016118ef565b9150509250929050565b60006020828403121561195a57611959611318565b5b600061196884828501611795565b91505092915050565b61197a816118ce565b82525050565b60006020820190506119956000830184611971565b92915050565b600080604083850312156119b2576119b1611318565b5b60006119c085828601611795565b925050602083013567ffffffffffffffff8111156119e1576119e061131d565b5b6119ed8582860161143a565b9150509250929050565b600081905092915050565b6000611a0d8261150f565b611a1781856119f7565b9350611a2781856020860161152b565b80840191505092915050565b7f3a20000000000000000000000000000000000000000000000000000000000000600082015250565b6000611a696002836119f7565b9150611a7482611a33565b600282019050919050565b7f203e200000000000000000000000000000000000000000000000000000000000600082015250565b6000611ab56003836119f7565b9150611ac082611a7f565b600382019050919050565b6000611ad78286611a02565b9150611ae282611a5c565b9150611aee8285611a02565b9150611af982611aa8565b9150611b058284611a02565b9150819050949350505050565b7f2045787065637465643a20000000000000000000000000000000000000000000600082015250565b6000611b48600b836119f7565b9150611b5382611b12565b600b82019050919050565b7f2041637475616c3a200000000000000000000000000000000000000000000000600082015250565b6000611b946009836119f7565b9150611b9f82611b5e565b600982019050919050565b6000611bb68287611a02565b9150611bc182611a5c565b9150611bcd8286611a02565b9150611bd882611b3b565b9150611be48285611a02565b9150611bef82611b87565b9150611bfb8284611a02565b915081905095945050505050565b611c128161176c565b82525050565b6000602082019050611c2d6000830184611c09565b92915050565b600081519050611c428161177e565b92915050565b600060208284031215611c5e57611c5d611318565b5b6000611c6c84828501611c33565b91505092915050565b600081519050611c84816118d8565b92915050565b600060208284031215611ca057611c9f611318565b5b6000611cae84828501611c75565b91505092915050565b6000819050919050565b6000611cdc611cd7611cd284611cb7565b6115d0565b6118ce565b9050919050565b611cec81611cc1565b82525050565b6000604082019050611d076000830185611c09565b611d146020830184611ce3565b9392505050565b7f4e487b7100000000000000000000000000000000000000000000000000000000600052601160045260246000fd5b6000611d55826118ce565b9150611d60836118ce565b9250828203905081811115611d7857611d77611d1b565b5b92915050565b611d8781611721565b8114611d9257600080fd5b50565b600081519050611da481611d7e565b92915050565b600060208284031215611dc057611dbf611318565b5b6000611dce84828501611d95565b91505092915050565b6000819050919050565b6000611dfc611df7611df284611dd7565b6115d0565b6118ce565b9050919050565b611e0c81611de1565b82525050565b6000602082019050611e276000830184611e03565b92915050565b60008160e01c9050919050565b600060033d1115611e595760046000803e611e56600051611e2d565b90505b90565b600060443d10611ee957611e6e61130e565b60043d036004823e80513d602482011167ffffffffffffffff82111715611e96575050611ee9565b808201805167ffffffffffffffff811115611eb45750505050611ee9565b80602083010160043d038501811115611ed1575050505050611ee9565b611ee08260200185018661136c565b82955050505050505b90565b7f4572726f72202845786572636973652044293a206164644c697175696469747960008201527f2070726f626c656d202d20000000000000000000000000000000000000000000602082015250565b6000611f48602b836119f7565b9150611f5382611eec565b602b82019050919050565b6000611f6982611f3b565b9150611f758284611a02565b915081905092915050565b6000611f8b826118ce565b9150611f96836118ce565b9250828201905080821115611fae57611fad611d1b565b5b92915050565b6000606082019050611fc96000830186611971565b611fd66020830185611971565b611fe36040830184611c09565b949350505050565b7f4572726f72202845786572636973652044293a20544f4b454e20544f20544f4b60008201527f454e202d20000000000000000000000000000000000000000000000000000000602082015250565b60006120476025836119f7565b915061205282611feb565b602582019050919050565b60006120688261203a565b91506120748284611a02565b915081905092915050565b600061208b8284611a02565b915081905092915050565b7f4f6e6c7920636f6e74726163742061646d696e2063616e20776974686472617760008201527f2066756e64730000000000000000000000000000000000000000000000000000602082015250565b60006120f260268361151a565b91506120fd82612096565b604082019050919050565b60006020820190508181036000830152612121816120e5565b9050919050565b7f496e76616c696420616464726573730000000000000000000000000000000000600082015250565b600061215e600f8361151a565b915061216982612128565b602082019050919050565b6000602082019050818103600083015261218d81612151565b9050919050565b600061219f826115fc565b9050919050565b6121af81612194565b82525050565b60006020820190506121ca60008301846121a6565b92915050565b7f46756e64732063616e206f6e6c792062652077697468647261776e20746f206160008201527f646d696e2c206d73672e73656e646572206f722074782e6f726967696e000000602082015250565b600061222c603d8361151a565b9150612237826121d0565b604082019050919050565b6000602082019050818103600083015261225b8161221f565b9050919050565b7f496e73756666696369656e742066756e64730000000000000000000000000000600082015250565b600061229860128361151a565b91506122a382612262565b602082019050919050565b600060208201905081810360008301526122c78161228b565b9050919050565b600081905092915050565b50565b60006122e96000836122ce565b91506122f4826122d9565b600082019050919050565b600061230a826122dc565b9150819050919050565b7f5472616e73666572206661696c65642e00000000000000000000000000000000600082015250565b600061234a60108361151a565b915061235582612314565b602082019050919050565b600060208201905081810360008301526123798161233d565b9050919050565b60006040820190506123956000830185611c09565b81810360208301526123a78184611555565b90509392505050565b60006123bb826118ce565b91506123c6836118ce565b92508282026123d4816118ce565b915082820484148315176123eb576123ea611d1b565b5b5092915050565b7f4552525f5a45524f5f44454e4f4d494e41544f52000000000000000000000000600082015250565b600061242860148361151a565b9150612433826123f2565b602082019050919050565b600060208201905081810360008301526124578161241b565b9050919050565b7f4e487b7100000000000000000000000000000000000000000000000000000000600052601260045260246000fd5b6000612498826118ce565b91506124a3836118ce565b9250826124b3576124b261245e565b5b82820490509291505056fe4572726f72202845786572636973652044293a20546865207465737420746f6b656e2062616c616e6365206973206e6f7420636f7272656374214572726f72202845786572636973652044293a205468652065786368616e676520746f6b656e2062616c616e6365206973206e6f7420636f727265637421a26469706673582212205bc79697e86f1fecf775ef9beb4b5f5454e4954e6219ecad8dea3b65de1e0fb064736f6c63430008120033535332332041737369676e6d656e7420342056616c696461746f7220436f6e7472616374202d205461736b2044",
  "immutableReferences": {},
  "source": "// SPDX-License-Identifier: MIT\r\npragma solidity ^0.8.17;\r\n\r\n// Import the IAssignment4.sol\r\nimport \"./interface/IAssignment4.sol\";\r\n\r\n// Import the coin interface\r\nimport \"./interface/IAssignment4Coin.sol\";\r\n\r\n// Import the registry to use as interface\r\nimport \"./helper/Assignment4Registry.sol\";\r\n\r\n// Import Helper\r\nimport \"../Helper.sol\";\r\n\r\n// import \"BaseConfig.sol\";\r\nimport \"../BaseConfig.sol\";\r\n\r\ncontract Validator4TaskD is Helper, BaseConfig {\r\n    // assignment contract interface\r\n    IAssignment4 assignmentContract;\r\n\r\n    // Address of registry contract\r\n    address registryAddress;\r\n\r\n    // Address of test token contract\r\n    address tokenTestAddress;\r\n\r\n    // Address of exchange contract/ student contract\r\n    address exchangeAddress;\r\n\r\n    constructor(address _configContractAddress) {\r\n        initAdmin(\r\n            _configContractAddress,\r\n            \"SS23 Assignment 4 Validator Contract - Task D\"\r\n        );\r\n    }\r\n\r\n    receive() external payable {}\r\n\r\n    // Init contract\r\n    function initContract(\r\n        address _contractAddress,\r\n        address _registryAddress,\r\n        address _testToken\r\n    ) public {\r\n        // Call the contract interface which needs to be tested and store it in the variable assignmentContract\r\n        assignmentContract = IAssignment4(_contractAddress);\r\n\r\n        // Set registry address\r\n        registryAddress = _registryAddress;\r\n\r\n        // Set test token address\r\n        tokenTestAddress = _testToken;\r\n\r\n        // Set exchange address\r\n\r\n        exchangeAddress = _contractAddress;\r\n    }\r\n\r\n    /**\r\n     * TEST EXERCISE D\r\n     *\r\n     * - test tokenToTokenSwap function\r\n     */\r\n    function testExerciseD() public payable returns (string memory, bool) {\r\n        /*----------  EXERCISE D  ----------*/\r\n\r\n        address validatorAddress = address(this);\r\n        address exchange2Address = Assignment4Registry(registryAddress)\r\n            .getExchange(tokenTestAddress);\r\n\r\n        IAssignment4Coin tokenStudent = IAssignment4Coin(\r\n            assignmentContract.getTokenAddress()\r\n        );\r\n\r\n        IAssignment4Coin tokenTest = IAssignment4Coin(tokenTestAddress);\r\n\r\n        IAssignment4 exchangeTest = IAssignment4(exchange2Address);\r\n\r\n        // SWAP TOKENS\r\n\r\n        // Collect balance before\r\n\r\n        // Get student token before\r\n        uint256 tokenStudentBalanceBefore = tokenStudent.balanceOf(\r\n            validatorAddress\r\n        );\r\n\r\n        // Get test token before\r\n        uint256 tokenTestBalanceBefore = tokenTest.balanceOf(validatorAddress);\r\n\r\n        // SWAP\r\n\r\n        uint256 tokensSold = 100 gwei;\r\n\r\n        // Mint tokens for the validator\r\n        tokenStudent.mint(validatorAddress, 1000 gwei);\r\n        tokenTest.mint(validatorAddress, 1000 gwei);\r\n\r\n        // Calculate eth amount\r\n        uint256 tokensBought = getAmount(\r\n            10 gwei,\r\n            address(assignmentContract).balance - 10 gwei,\r\n            getReserve(tokenTestAddress)\r\n        );\r\n\r\n        // Set Allowance\r\n        tokenStudent.approve(address(assignmentContract), 1000 gwei);\r\n        tokenTest.approve(address(assignmentContract), 1000 gwei);\r\n        tokenTest.approve(address(exchangeTest), 1000 gwei);\r\n\r\n        try exchangeTest.addLiquidity{value: 10 gwei}(200 gwei) {} catch Error(\r\n            string memory _reason\r\n        ) {\r\n            return (\r\n                string(\r\n                    abi.encodePacked(\r\n                        \"Error (Exercise D): addLiquidity problem - \",\r\n                        _reason\r\n                    )\r\n                ),\r\n                false\r\n            );\r\n        }\r\n\r\n        try\r\n            assignmentContract.tokenToTokenSwap{value: 100 gwei}(\r\n                tokensSold,\r\n                tokensBought + 1,\r\n                tokenTestAddress\r\n            )\r\n        {\r\n            // Get student token after\r\n            uint256 tokenStudentBalanceAfter = tokenStudent.balanceOf(\r\n                validatorAddress\r\n            );\r\n\r\n            // Get test token after\r\n            uint256 tokenTestBalanceAfter = tokenTest.balanceOf(\r\n                validatorAddress\r\n            );\r\n\r\n            if (tokenStudentBalanceAfter <= tokenStudentBalanceBefore) {\r\n                return (\r\n                    \"Error (Exercise D): The exchange token balance is not correct!\",\r\n                    false\r\n                );\r\n            }\r\n\r\n            if (tokenTestBalanceAfter <= tokenTestBalanceBefore) {\r\n                return (\r\n                    \"Error (Exercise D): The test token balance is not correct!\",\r\n                    false\r\n                );\r\n            }\r\n        } catch Error(string memory _reason) {\r\n            return (\r\n                string(\r\n                    abi.encodePacked(\r\n                        \"Error (Exercise D): TOKEN TO TOKEN - \",\r\n                        _reason\r\n                    )\r\n                ),\r\n                false\r\n            );\r\n        }\r\n\r\n        return (\"Exercise D: All tests passed!\", true);\r\n    }\r\n\r\n    /*=============================================\r\n    =                    HELPER                  =\r\n    =============================================*/\r\n\r\n    function getReserve(address tokenAddress) public view returns (uint256) {\r\n        return IERC20(tokenAddress).balanceOf(exchangeAddress);\r\n    }\r\n\r\n    function getAmount(\r\n        uint256 inputAmount,\r\n        uint256 inputReserve,\r\n        uint256 outputReserve\r\n    ) private pure returns (uint256) {\r\n        uint256 inputAmountWithFee = inputAmount * 99;\r\n        uint256 numerator = inputAmountWithFee * outputReserve;\r\n        uint256 denominator = (inputReserve * 100) + inputAmountWithFee;\r\n\r\n        // return (inputAmount * outputReserve) / (inputReserve + inputAmount);\r\n\r\n        require(denominator > 0, \"ERR_ZERO_DENOMINATOR\");\r\n        return numerator / denominator;\r\n    }\r\n\r\n    /*=====          End of HELPER        ======*/\r\n}\r\n",
  "sourcePath": "C:\\Users\\jonas\\Repos\\mtp-blockchain\\smart-contracts\\contracts\\assignment_4\\Validator4TaskD.sol",
  "compiler": {
    "name": "solc",
    "version": "0.8.18+commit.87f61d96.Emscripten.clang"
  },
  "schemaVersion": "3.4.11",
  "updatedAt": "2023-02-05T15:34:49.207Z",
  "devdoc": {
    "kind": "dev",
    "methods": {},
    "version": 1
  },
  "userdoc": {
    "kind": "user",
    "methods": {
      "testExerciseD()": {
        "notice": "TEST EXERCISE D - test tokenToTokenSwap function"
      }
    },
    "version": 1
  }
}