{
  "contractName": "Validator1TaskB",
  "abi": [
    {
      "inputs": [
        {
          "internalType": "address",
          "name": "_configContractAddress",
          "type": "address"
        }
      ],
      "stateMutability": "nonpayable",
      "type": "constructor"
    },
    {
      "inputs": [
        {
          "internalType": "string",
          "name": "_prefix",
          "type": "string"
        },
        {
          "internalType": "string",
          "name": "_message",
          "type": "string"
        },
        {
          "internalType": "string",
          "name": "_errorMsg",
          "type": "string"
        }
      ],
      "name": "buildErrorMessage",
      "outputs": [
        {
          "internalType": "string",
          "name": "",
          "type": "string"
        }
      ],
      "stateMutability": "pure",
      "type": "function"
    },
    {
      "inputs": [
        {
          "internalType": "string",
          "name": "_prefix",
          "type": "string"
        },
        {
          "internalType": "string",
          "name": "_message",
          "type": "string"
        },
        {
          "internalType": "string",
          "name": "_expected",
          "type": "string"
        },
        {
          "internalType": "string",
          "name": "_actual",
          "type": "string"
        }
      ],
      "name": "buildErrorMessageExtended",
      "outputs": [
        {
          "internalType": "string",
          "name": "",
          "type": "string"
        }
      ],
      "stateMutability": "pure",
      "type": "function"
    },
    {
      "inputs": [
        {
          "internalType": "string",
          "name": "a",
          "type": "string"
        },
        {
          "internalType": "string",
          "name": "b",
          "type": "string"
        }
      ],
      "name": "compareStrings",
      "outputs": [
        {
          "internalType": "bool",
          "name": "",
          "type": "bool"
        }
      ],
      "stateMutability": "pure",
      "type": "function"
    },
    {
      "inputs": [],
      "name": "getConfigStorage",
      "outputs": [
        {
          "internalType": "contract ConfigStorage",
          "name": "",
          "type": "address"
        }
      ],
      "stateMutability": "view",
      "type": "function"
    },
    {
      "inputs": [
        {
          "internalType": "address",
          "name": "_configContractAddress",
          "type": "address"
        },
        {
          "internalType": "string",
          "name": "_contractName",
          "type": "string"
        }
      ],
      "name": "initAdmin",
      "outputs": [],
      "stateMutability": "nonpayable",
      "type": "function"
    },
    {
      "inputs": [
        {
          "internalType": "address payable",
          "name": "_to",
          "type": "address"
        },
        {
          "internalType": "uint256",
          "name": "_value",
          "type": "uint256"
        }
      ],
      "name": "withdrawFunds",
      "outputs": [],
      "stateMutability": "payable",
      "type": "function"
    },
    {
      "stateMutability": "payable",
      "type": "receive"
    },
    {
      "inputs": [
        {
          "internalType": "address",
          "name": "_contractAddress",
          "type": "address"
        },
        {
          "internalType": "address",
          "name": "_validator1HelperAddress",
          "type": "address"
        }
      ],
      "name": "initContract",
      "outputs": [],
      "stateMutability": "nonpayable",
      "type": "function"
    },
    {
      "inputs": [],
      "name": "testExerciseB",
      "outputs": [
        {
          "internalType": "string",
          "name": "",
          "type": "string"
        },
        {
          "internalType": "bool",
          "name": "",
          "type": "bool"
        }
      ],
      "stateMutability": "payable",
      "type": "function"
    },
    {
      "inputs": [
        {
          "internalType": "uint256",
          "name": "tokenId",
          "type": "uint256"
        },
        {
          "internalType": "string",
          "name": "IPFSHash",
          "type": "string"
        },
        {
          "internalType": "address",
          "name": "by",
          "type": "address"
        },
        {
          "internalType": "address",
          "name": "newOwner",
          "type": "address"
        }
      ],
      "name": "getTokenURI",
      "outputs": [
        {
          "internalType": "string",
          "name": "",
          "type": "string"
        }
      ],
      "stateMutability": "pure",
      "type": "function"
    },
    {
      "inputs": [
        {
          "internalType": "string",
          "name": "str1",
          "type": "string"
        },
        {
          "internalType": "string",
          "name": "str2",
          "type": "string"
        }
      ],
      "name": "compare",
      "outputs": [
        {
          "internalType": "bool",
          "name": "",
          "type": "bool"
        }
      ],
      "stateMutability": "pure",
      "type": "function"
    }
  ],
  "bytecode": "0x60806040523480156200001157600080fd5b5060405162002760380380620027608339818101604052810190620000379190620001c6565b62000062816040518060600160405280602d815260200162002733602d91396200006960201b60201c565b50620002d7565b816000806101000a81548173ffffffffffffffffffffffffffffffffffffffff021916908373ffffffffffffffffffffffffffffffffffffffff1602179055506000620000bb6200013360201b60201c565b90508073ffffffffffffffffffffffffffffffffffffffff16637fb99b9330846040518363ffffffff1660e01b8152600401620000fa929190620002a3565b600060405180830381600087803b1580156200011557600080fd5b505af11580156200012a573d6000803e3d6000fd5b50505050505050565b60008060009054906101000a900473ffffffffffffffffffffffffffffffffffffffff16905090565b600080fd5b600073ffffffffffffffffffffffffffffffffffffffff82169050919050565b60006200018e8262000161565b9050919050565b620001a08162000181565b8114620001ac57600080fd5b50565b600081519050620001c08162000195565b92915050565b600060208284031215620001df57620001de6200015c565b5b6000620001ef84828501620001af565b91505092915050565b620002038162000181565b82525050565b600081519050919050565b600082825260208201905092915050565b60005b838110156200024557808201518184015260208101905062000228565b60008484015250505050565b6000601f19601f8301169050919050565b60006200026f8262000209565b6200027b818562000214565b93506200028d81856020860162000225565b620002988162000251565b840191505092915050565b6000604082019050620002ba6000830185620001f8565b8181036020830152620002ce818462000262565b90509392505050565b61244c80620002e76000396000f3fe6080604052600436106100955760003560e01c8063516cbbe211610059578063516cbbe2146101a05780635827a065146101cb578063bed34bba14610208578063c107532914610245578063fae45fbe146102615761009c565b80631ccb0c12146100a157806325ba0f51146100c05780632b518301146100e95780633a96fdd7146101265780634c0bb46c146101635761009c565b3661009c57005b600080fd5b6100a961028a565b6040516100b7929190611033565b60405180910390f35b3480156100cc57600080fd5b506100e760048036038101906100e291906110d5565b6105ce565b005b3480156100f557600080fd5b50610110600480360381019061010b919061124a565b610654565b60405161011d91906112f1565b60405180910390f35b34801561013257600080fd5b5061014d60048036038101906101489190611313565b610683565b60405161015a919061138b565b60405180910390f35b34801561016f57600080fd5b5061018a600480360381019061018591906113dc565b6106dc565b60405161019791906112f1565b60405180910390f35b3480156101ac57600080fd5b506101b5610743565b6040516101c291906114be565b60405180910390f35b3480156101d757600080fd5b506101f260048036038101906101ed91906114d9565b61076c565b6040516101ff91906112f1565b60405180910390f35b34801561021457600080fd5b5061022f600480360381019061022a9190611313565b61079e565b60405161023c919061138b565b60405180910390f35b61025f600480360381019061025a91906115ee565b6107f7565b005b34801561026d57600080fd5b506102886004803603810190610283919061162e565b610b46565b005b60606000600160009054906101000a900473ffffffffffffffffffffffffffffffffffffffff1673ffffffffffffffffffffffffffffffffffffffff16636a627842662386f26fc10000336040518363ffffffff1660e01b81526004016102f19190611699565b60206040518083038185885af19350505050801561032d57506040513d601f19601f8201168201806040525081019061032a91906116c9565b60015b61035657600060405180606001604052806031815260200161237f6031913990915091506105ca565b60008111156105a8576000600160009054906101000a900473ffffffffffffffffffffffffffffffffffffffff1673ffffffffffffffffffffffffffffffffffffffff1663c87b56dd836040518263ffffffff1660e01b81526004016103bc9190611705565b600060405180830381865afa1580156103d9573d6000803e3d6000fd5b505050506040513d6000823e3d601f19601f820116820180604052508101906104029190611790565b9050600061053983600160009054906101000a900473ffffffffffffffffffffffffffffffffffffffff1673ffffffffffffffffffffffffffffffffffffffff166320b28ade6040518163ffffffff1660e01b8152600401600060405180830381865afa158015610477573d6000803e3d6000fd5b505050506040513d6000823e3d601f19601f820116820180604052508101906104a09190611790565b600160009054906101000a900473ffffffffffffffffffffffffffffffffffffffff1673ffffffffffffffffffffffffffffffffffffffff1663893d20e86040518163ffffffff1660e01b81526004016020604051808303816000875af115801561050f573d6000803e3d6000fd5b505050506040513d601f19601f8201168201806040525081019061053391906117ee565b336106dc565b9050600115156105498383610683565b1515036105785760016040518060600160405280602781526020016123f06027913990945094505050506105ca565b818160405160200161058b929190611915565b6040516020818303038152906040526000945094505050506105ca565b600060405180606001604052806031815260200161237f603191399092509250505b9091565b81600160006101000a81548173ffffffffffffffffffffffffffffffffffffffff021916908373ffffffffffffffffffffffffffffffffffffffff16021790555080600260006101000a81548173ffffffffffffffffffffffffffffffffffffffff021916908373ffffffffffffffffffffffffffffffffffffffff1602179055505050565b606083838360405160200161066b939291906119e7565b60405160208183030381529060405290509392505050565b6000816040516020016106969190611a2e565b60405160208183030381529060405280519060200120836040516020016106bd9190611a2e565b6040516020818303038152906040528051906020012014905092915050565b606060006106e986610c04565b8585856040516020016106ff9493929190611ced565b604051602081830303815290604052905061071981610cd2565b6040516020016107299190611ded565b604051602081830303815290604052915050949350505050565b60008060009054906101000a900473ffffffffffffffffffffffffffffffffffffffff16905090565b6060848484846040516020016107859493929190611ea7565b6040516020818303038152906040529050949350505050565b6000816040516020016107b19190611a2e565b60405160208183030381529060405280519060200120836040516020016107d89190611a2e565b6040516020818303038152906040528051906020012014905092915050565b6107ff610743565b73ffffffffffffffffffffffffffffffffffffffff166324d7806c336040518263ffffffff1660e01b81526004016108379190611699565b602060405180830381865afa158015610854573d6000803e3d6000fd5b505050506040513d601f19601f820116820180604052508101906108789190611f32565b6108b7576040517f08c379a00000000000000000000000000000000000000000000000000000000081526004016108ae90611fd1565b60405180910390fd5b600073ffffffffffffffffffffffffffffffffffffffff168273ffffffffffffffffffffffffffffffffffffffff1603610926576040517f08c379a000000000000000000000000000000000000000000000000000000000815260040161091d9061203d565b60405180910390fd5b3373ffffffffffffffffffffffffffffffffffffffff168273ffffffffffffffffffffffffffffffffffffffff16148061098b57503273ffffffffffffffffffffffffffffffffffffffff168273ffffffffffffffffffffffffffffffffffffffff16145b80610a135750610999610743565b73ffffffffffffffffffffffffffffffffffffffff166324d7806c836040518263ffffffff1660e01b81526004016109d1919061207e565b602060405180830381865afa1580156109ee573d6000803e3d6000fd5b505050506040513d601f19601f82011682018060405250810190610a129190611f32565b5b610a52576040517f08c379a0000000000000000000000000000000000000000000000000000000008152600401610a499061210b565b60405180910390fd5b47811015610a95576040517f08c379a0000000000000000000000000000000000000000000000000000000008152600401610a8c90612177565b60405180910390fd5b60008273ffffffffffffffffffffffffffffffffffffffff1682604051610abb906121c8565b60006040518083038185875af1925050503d8060008114610af8576040519150601f19603f3d011682016040523d82523d6000602084013e610afd565b606091505b5050905080610b41576040517f08c379a0000000000000000000000000000000000000000000000000000000008152600401610b3890612229565b60405180910390fd5b505050565b816000806101000a81548173ffffffffffffffffffffffffffffffffffffffff021916908373ffffffffffffffffffffffffffffffffffffffff1602179055506000610b90610743565b90508073ffffffffffffffffffffffffffffffffffffffff16637fb99b9330846040518363ffffffff1660e01b8152600401610bcd929190612249565b600060405180830381600087803b158015610be757600080fd5b505af1158015610bfb573d6000803e3d6000fd5b50505050505050565b606060006001610c1384610e35565b01905060008167ffffffffffffffff811115610c3257610c3161111f565b5b6040519080825280601f01601f191660200182016040528015610c645781602001600182028036833780820191505090505b509050600082602001820190505b600115610cc7578080600190039150507f3031323334353637383961626364656600000000000000000000000000000000600a86061a8153600a8581610cbb57610cba612279565b5b04945060008503610c72575b819350505050919050565b60606000825103610cf457604051806020016040528060008152509050610e30565b60006040518060600160405280604081526020016123b06040913990506000600360028551610d2391906122d7565b610d2d919061230b565b6004610d39919061233c565b67ffffffffffffffff811115610d5257610d5161111f565b5b6040519080825280601f01601f191660200182016040528015610d845781602001600182028036833780820191505090505b509050600182016020820185865187015b80821015610df0576003820191508151603f8160121c168501518453600184019350603f81600c1c168501518453600184019350603f8160061c168501518453600184019350603f8116850151845360018401935050610d95565b5050600386510660018114610e0c5760028114610e1f57610e27565b603d6001830353603d6002830353610e27565b603d60018303535b50505080925050505b919050565b600080600090507a184f03e93ff9f4daa797ed6e38ed64bf6a1f0100000000000000008310610e93577a184f03e93ff9f4daa797ed6e38ed64bf6a1f0100000000000000008381610e8957610e88612279565b5b0492506040810190505b6d04ee2d6d415b85acef81000000008310610ed0576d04ee2d6d415b85acef81000000008381610ec657610ec5612279565b5b0492506020810190505b662386f26fc100008310610eff57662386f26fc100008381610ef557610ef4612279565b5b0492506010810190505b6305f5e1008310610f28576305f5e1008381610f1e57610f1d612279565b5b0492506008810190505b6127108310610f4d576127108381610f4357610f42612279565b5b0492506004810190505b60648310610f705760648381610f6657610f65612279565b5b0492506002810190505b600a8310610f7f576001810190505b80915050919050565b600081519050919050565b600082825260208201905092915050565b60005b83811015610fc2578082015181840152602081019050610fa7565b60008484015250505050565b6000601f19601f8301169050919050565b6000610fea82610f88565b610ff48185610f93565b9350611004818560208601610fa4565b61100d81610fce565b840191505092915050565b60008115159050919050565b61102d81611018565b82525050565b6000604082019050818103600083015261104d8185610fdf565b905061105c6020830184611024565b9392505050565b6000604051905090565b600080fd5b600080fd5b600073ffffffffffffffffffffffffffffffffffffffff82169050919050565b60006110a282611077565b9050919050565b6110b281611097565b81146110bd57600080fd5b50565b6000813590506110cf816110a9565b92915050565b600080604083850312156110ec576110eb61106d565b5b60006110fa858286016110c0565b925050602061110b858286016110c0565b9150509250929050565b600080fd5b600080fd5b7f4e487b7100000000000000000000000000000000000000000000000000000000600052604160045260246000fd5b61115782610fce565b810181811067ffffffffffffffff821117156111765761117561111f565b5b80604052505050565b6000611189611063565b9050611195828261114e565b919050565b600067ffffffffffffffff8211156111b5576111b461111f565b5b6111be82610fce565b9050602081019050919050565b82818337600083830152505050565b60006111ed6111e88461119a565b61117f565b9050828152602081018484840111156112095761120861111a565b5b6112148482856111cb565b509392505050565b600082601f83011261123157611230611115565b5b81356112418482602086016111da565b91505092915050565b6000806000606084860312156112635761126261106d565b5b600084013567ffffffffffffffff81111561128157611280611072565b5b61128d8682870161121c565b935050602084013567ffffffffffffffff8111156112ae576112ad611072565b5b6112ba8682870161121c565b925050604084013567ffffffffffffffff8111156112db576112da611072565b5b6112e78682870161121c565b9150509250925092565b6000602082019050818103600083015261130b8184610fdf565b905092915050565b6000806040838503121561132a5761132961106d565b5b600083013567ffffffffffffffff81111561134857611347611072565b5b6113548582860161121c565b925050602083013567ffffffffffffffff81111561137557611374611072565b5b6113818582860161121c565b9150509250929050565b60006020820190506113a06000830184611024565b92915050565b6000819050919050565b6113b9816113a6565b81146113c457600080fd5b50565b6000813590506113d6816113b0565b92915050565b600080600080608085870312156113f6576113f561106d565b5b6000611404878288016113c7565b945050602085013567ffffffffffffffff81111561142557611424611072565b5b6114318782880161121c565b9350506040611442878288016110c0565b9250506060611453878288016110c0565b91505092959194509250565b6000819050919050565b600061148461147f61147a84611077565b61145f565b611077565b9050919050565b600061149682611469565b9050919050565b60006114a88261148b565b9050919050565b6114b88161149d565b82525050565b60006020820190506114d360008301846114af565b92915050565b600080600080608085870312156114f3576114f261106d565b5b600085013567ffffffffffffffff81111561151157611510611072565b5b61151d8782880161121c565b945050602085013567ffffffffffffffff81111561153e5761153d611072565b5b61154a8782880161121c565b935050604085013567ffffffffffffffff81111561156b5761156a611072565b5b6115778782880161121c565b925050606085013567ffffffffffffffff81111561159857611597611072565b5b6115a48782880161121c565b91505092959194509250565b60006115bb82611077565b9050919050565b6115cb816115b0565b81146115d657600080fd5b50565b6000813590506115e8816115c2565b92915050565b600080604083850312156116055761160461106d565b5b6000611613858286016115d9565b9250506020611624858286016113c7565b9150509250929050565b600080604083850312156116455761164461106d565b5b6000611653858286016110c0565b925050602083013567ffffffffffffffff81111561167457611673611072565b5b6116808582860161121c565b9150509250929050565b61169381611097565b82525050565b60006020820190506116ae600083018461168a565b92915050565b6000815190506116c3816113b0565b92915050565b6000602082840312156116df576116de61106d565b5b60006116ed848285016116b4565b91505092915050565b6116ff816113a6565b82525050565b600060208201905061171a60008301846116f6565b92915050565b600061173361172e8461119a565b61117f565b90508281526020810184848401111561174f5761174e61111a565b5b61175a848285610fa4565b509392505050565b600082601f83011261177757611776611115565b5b8151611787848260208601611720565b91505092915050565b6000602082840312156117a6576117a561106d565b5b600082015167ffffffffffffffff8111156117c4576117c3611072565b5b6117d084828501611762565b91505092915050565b6000815190506117e8816110a9565b92915050565b6000602082840312156118045761180361106d565b5b6000611812848285016117d9565b91505092915050565b600081905092915050565b7f4572726f72202845786572636973652042293a20546f6b656e555249206e6f7460008201527f20636f727265637420676f743a20000000000000000000000000000000000000602082015250565b6000611882602e8361181b565b915061188d82611826565b602e82019050919050565b60006118a382610f88565b6118ad818561181b565b93506118bd818560208601610fa4565b80840191505092915050565b7f2065787065637465643a20000000000000000000000000000000000000000000600082015250565b60006118ff600b8361181b565b915061190a826118c9565b600b82019050919050565b600061192082611875565b915061192c8285611898565b9150611937826118f2565b91506119438284611898565b91508190509392505050565b7f3a20000000000000000000000000000000000000000000000000000000000000600082015250565b600061198560028361181b565b91506119908261194f565b600282019050919050565b7f203e200000000000000000000000000000000000000000000000000000000000600082015250565b60006119d160038361181b565b91506119dc8261199b565b600382019050919050565b60006119f38286611898565b91506119fe82611978565b9150611a0a8285611898565b9150611a15826119c4565b9150611a218284611898565b9150819050949350505050565b6000611a3a8284611898565b915081905092915050565b7f7b00000000000000000000000000000000000000000000000000000000000000600082015250565b6000611a7b60018361181b565b9150611a8682611a45565b600182019050919050565b7f226e616d65223a20224d792062656175746966756c20617274776f726b202300600082015250565b6000611ac7601f8361181b565b9150611ad282611a91565b601f82019050919050565b7f2200000000000000000000000000000000000000000000000000000000000000600082015250565b6000611b1360018361181b565b9150611b1e82611add565b600182019050919050565b7f2268617368223a20220000000000000000000000000000000000000000000000600082015250565b6000611b5f60098361181b565b9150611b6a82611b29565b600982019050919050565b7f222c000000000000000000000000000000000000000000000000000000000000600082015250565b6000611bab60028361181b565b9150611bb682611b75565b600282019050919050565b7f226279223a202200000000000000000000000000000000000000000000000000600082015250565b6000611bf760078361181b565b9150611c0282611bc1565b600782019050919050565b60008160601b9050919050565b6000611c2582611c0d565b9050919050565b6000611c3782611c1a565b9050919050565b611c4f611c4a82611097565b611c2c565b82525050565b7f226e65775f6f776e6572223a2022000000000000000000000000000000000000600082015250565b6000611c8b600e8361181b565b9150611c9682611c55565b600e82019050919050565b7f7d00000000000000000000000000000000000000000000000000000000000000600082015250565b6000611cd760018361181b565b9150611ce282611ca1565b600182019050919050565b6000611cf882611a6e565b9150611d0382611aba565b9150611d0f8287611898565b9150611d1a82611b06565b9150611d2582611b52565b9150611d318286611898565b9150611d3c82611b9e565b9150611d4782611bea565b9150611d538285611c3e565b601482019150611d6282611b9e565b9150611d6d82611c7e565b9150611d798284611c3e565b601482019150611d8882611b06565b9150611d9382611cca565b915081905095945050505050565b7f646174613a6170706c69636174696f6e2f6a736f6e3b6261736536342c000000600082015250565b6000611dd7601d8361181b565b9150611de282611da1565b601d82019050919050565b6000611df882611dca565b9150611e048284611898565b915081905092915050565b7f2045787065637465643a20000000000000000000000000000000000000000000600082015250565b6000611e45600b8361181b565b9150611e5082611e0f565b600b82019050919050565b7f2041637475616c3a200000000000000000000000000000000000000000000000600082015250565b6000611e9160098361181b565b9150611e9c82611e5b565b600982019050919050565b6000611eb38287611898565b9150611ebe82611978565b9150611eca8286611898565b9150611ed582611e38565b9150611ee18285611898565b9150611eec82611e84565b9150611ef88284611898565b915081905095945050505050565b611f0f81611018565b8114611f1a57600080fd5b50565b600081519050611f2c81611f06565b92915050565b600060208284031215611f4857611f4761106d565b5b6000611f5684828501611f1d565b91505092915050565b7f4f6e6c7920636f6e74726163742061646d696e2063616e20776974686472617760008201527f2066756e64730000000000000000000000000000000000000000000000000000602082015250565b6000611fbb602683610f93565b9150611fc682611f5f565b604082019050919050565b60006020820190508181036000830152611fea81611fae565b9050919050565b7f496e76616c696420616464726573730000000000000000000000000000000000600082015250565b6000612027600f83610f93565b915061203282611ff1565b602082019050919050565b600060208201905081810360008301526120568161201a565b9050919050565b60006120688261148b565b9050919050565b6120788161205d565b82525050565b6000602082019050612093600083018461206f565b92915050565b7f46756e64732063616e206f6e6c792062652077697468647261776e20746f206160008201527f646d696e2c206d73672e73656e646572206f722074782e6f726967696e000000602082015250565b60006120f5603d83610f93565b915061210082612099565b604082019050919050565b60006020820190508181036000830152612124816120e8565b9050919050565b7f496e73756666696369656e742066756e64730000000000000000000000000000600082015250565b6000612161601283610f93565b915061216c8261212b565b602082019050919050565b6000602082019050818103600083015261219081612154565b9050919050565b600081905092915050565b50565b60006121b2600083612197565b91506121bd826121a2565b600082019050919050565b60006121d3826121a5565b9150819050919050565b7f5472616e73666572206661696c65642e00000000000000000000000000000000600082015250565b6000612213601083610f93565b915061221e826121dd565b602082019050919050565b6000602082019050818103600083015261224281612206565b9050919050565b600060408201905061225e600083018561168a565b81810360208301526122708184610fdf565b90509392505050565b7f4e487b7100000000000000000000000000000000000000000000000000000000600052601260045260246000fd5b7f4e487b7100000000000000000000000000000000000000000000000000000000600052601160045260246000fd5b60006122e2826113a6565b91506122ed836113a6565b9250828201905080821115612305576123046122a8565b5b92915050565b6000612316826113a6565b9150612321836113a6565b92508261233157612330612279565b5b828204905092915050565b6000612347826113a6565b9150612352836113a6565b9250828202612360816113a6565b91508282048414831517612377576123766122a8565b5b509291505056fe4572726f72202845786572636973652042293a204572726f72207769746820746865206d696e742066756e6374696f6e214142434445464748494a4b4c4d4e4f505152535455565758595a6162636465666768696a6b6c6d6e6f707172737475767778797a303132333435363738392b2f506173736564202845786572636973652042293a20457865726369736520422070617373656421a2646970667358221220af1a9a99c89dffcce8f3f99e0b9120956c4fc970130714039c74331024f7d20364736f6c63430008120033535332332041737369676e6d656e7420312056616c696461746f7220436f6e7472616374202d205461736b2042",
  "immutableReferences": {},
  "source": "// SPDX-License-Identifier: MIT\r\npragma solidity ^0.8.17;\r\n\r\n// Import the IAssignment1.sol\r\nimport \"./interface/IAssignment1.sol\";\r\n\r\nimport \"../../node_modules/@openzeppelin/contracts/utils/Base64.sol\";\r\nimport \"../../node_modules/@openzeppelin/contracts/utils/Strings.sol\";\r\n\r\n// Import Helper\r\nimport \"../Helper.sol\";\r\n\r\n// Import the assignment validator extend contract\r\nimport \"./Validator1Helper.sol\";\r\n\r\n// import \"BaseConfig.sol\";\r\nimport \"../BaseConfig.sol\";\r\n\r\n// Give the contract a name and inherit from the base assignment validator\r\ncontract Validator1TaskB is Helper, BaseConfig {\r\n    using Strings for uint256;\r\n\r\n    // assignment contract interface\r\n    IAssignment1 assignmentContract;\r\n    Validator1Helper validator1Helper;\r\n\r\n    constructor(address _configContractAddress) {\r\n        initAdmin(\r\n            _configContractAddress,\r\n            \"SS23 Assignment 1 Validator Contract - Task B\"\r\n        );\r\n    }\r\n\r\n    receive() external payable {}\r\n\r\n    // Init contract\r\n    function initContract(\r\n        address _contractAddress,\r\n        address _validator1HelperAddress\r\n    ) public {\r\n        // Call the contract interface which needs to be tested and store it in the variable assignmentContract\r\n        assignmentContract = IAssignment1(_contractAddress);\r\n        validator1Helper = Validator1Helper(payable(_validator1HelperAddress));\r\n    }\r\n\r\n    function testExerciseB() public payable returns (string memory, bool) {\r\n        /*----------  EXERCISE B  ----------*/\r\n\r\n        // mint a nft and send to _address and pay 0.01 ether\r\n        try assignmentContract.mint{value: 0.01 ether}(msg.sender) returns (\r\n            uint256 id_b\r\n        ) {\r\n            if (id_b > 0) {\r\n                string memory tokenURI = assignmentContract.tokenURI(id_b);\r\n                string memory expectedTokenURI = getTokenURI(\r\n                    id_b,\r\n                    assignmentContract.getIPFSHash(),\r\n                    assignmentContract.getOwner(),\r\n                    msg.sender\r\n                );\r\n\r\n                // Check if tokenURI equals to expectedTokenURI\r\n                if (compare(tokenURI, expectedTokenURI) == true) {\r\n                    return (\"Passed (Exercise B): Exercise B passed!\", true);\r\n                } else {\r\n                    return (\r\n                        string(\r\n                            abi.encodePacked(\r\n                                \"Error (Exercise B): TokenURI not correct got: \",\r\n                                tokenURI,\r\n                                \" expected: \",\r\n                                expectedTokenURI\r\n                            )\r\n                        ),\r\n                        false\r\n                    );\r\n                }\r\n            } else {\r\n                return (\r\n                    \"Error (Exercise B): Error with the mint function!\",\r\n                    false\r\n                );\r\n            }\r\n        } catch {\r\n            // If an error occurs, mark test as failed\r\n            return (\"Error (Exercise B): Error with the mint function!\", false);\r\n        }\r\n    }\r\n\r\n    /*=============================================\r\n    =            HELPER            =\r\n    =============================================*/\r\n\r\n    function getTokenURI(\r\n        uint256 tokenId,\r\n        string memory IPFSHash,\r\n        address by,\r\n        address newOwner\r\n    ) public pure returns (string memory) {\r\n        // Build dataURI\r\n        bytes memory dataURI = abi.encodePacked(\r\n            \"{\",\r\n            '\"name\": \"My beautiful artwork #',\r\n            tokenId.toString(),\r\n            '\"', // Name of NFT with id\r\n            '\"hash\": \"',\r\n            IPFSHash,\r\n            '\",', // Define hash of your artwork from IPFS\r\n            '\"by\": \"',\r\n            by,\r\n            '\",', // Address of creator\r\n            '\"new_owner\": \"',\r\n            newOwner,\r\n            '\"', // Address of new owner\r\n            \"}\"\r\n        );\r\n\r\n        // Encode dataURI using base64 and return\r\n        return\r\n            string(\r\n                abi.encodePacked(\r\n                    \"data:application/json;base64,\",\r\n                    Base64.encode(dataURI)\r\n                )\r\n            );\r\n    }\r\n\r\n    function compare(string memory str1, string memory str2)\r\n        public\r\n        pure\r\n        returns (bool)\r\n    {\r\n        return\r\n            keccak256(abi.encodePacked(str1)) ==\r\n            keccak256(abi.encodePacked(str2));\r\n    }\r\n\r\n    /*=====  End of HELPER  ======*/\r\n}\r\n",
  "sourcePath": "C:\\Users\\jonas\\Repos\\mtp-blockchain\\smart-contracts\\contracts\\assignment_1\\Validator1TaskB.sol",
  "compiler": {
    "name": "solc",
    "version": "0.8.18+commit.87f61d96.Emscripten.clang"
  },
  "schemaVersion": "3.4.11",
  "updatedAt": "2023-02-16T19:17:23.715Z",
  "devdoc": {
    "kind": "dev",
    "methods": {},
    "version": 1
  },
  "userdoc": {
    "kind": "user",
    "methods": {},
    "version": 1
  }
}