{
  "contractName": "Validator4",
  "abi": [
    {
      "inputs": [
        {
          "internalType": "address",
          "name": "_configContractAddress",
          "type": "address"
        }
      ],
      "stateMutability": "payable",
      "type": "constructor",
      "payable": true
    },
    {
      "inputs": [],
      "name": "_testHistoryCounter",
      "outputs": [
        {
          "internalType": "uint256",
          "name": "",
          "type": "uint256"
        }
      ],
      "stateMutability": "view",
      "type": "function",
      "constant": true
    },
    {
      "inputs": [
        {
          "internalType": "address",
          "name": "_helperAddress",
          "type": "address"
        }
      ],
      "name": "addHelperContracts",
      "outputs": [],
      "stateMutability": "nonpayable",
      "type": "function"
    },
    {
      "inputs": [
        {
          "internalType": "string",
          "name": "_name",
          "type": "string"
        },
        {
          "internalType": "bool",
          "name": "_result",
          "type": "bool"
        },
        {
          "internalType": "uint256",
          "name": "_points",
          "type": "uint256"
        }
      ],
      "name": "appendTestResult",
      "outputs": [],
      "stateMutability": "nonpayable",
      "type": "function"
    },
    {
      "inputs": [
        {
          "internalType": "string",
          "name": "_prefix",
          "type": "string"
        },
        {
          "internalType": "string",
          "name": "_message",
          "type": "string"
        },
        {
          "internalType": "string",
          "name": "_errorMsg",
          "type": "string"
        }
      ],
      "name": "buildErrorMessage",
      "outputs": [
        {
          "internalType": "string",
          "name": "",
          "type": "string"
        }
      ],
      "stateMutability": "pure",
      "type": "function",
      "constant": true
    },
    {
      "inputs": [
        {
          "internalType": "string",
          "name": "_prefix",
          "type": "string"
        },
        {
          "internalType": "string",
          "name": "_message",
          "type": "string"
        },
        {
          "internalType": "string",
          "name": "_expected",
          "type": "string"
        },
        {
          "internalType": "string",
          "name": "_actual",
          "type": "string"
        }
      ],
      "name": "buildErrorMessageExtended",
      "outputs": [
        {
          "internalType": "string",
          "name": "",
          "type": "string"
        }
      ],
      "stateMutability": "pure",
      "type": "function",
      "constant": true
    },
    {
      "inputs": [
        {
          "internalType": "address",
          "name": "_contractAddress",
          "type": "address"
        }
      ],
      "name": "checkAssignmentOwner",
      "outputs": [
        {
          "internalType": "bool",
          "name": "",
          "type": "bool"
        }
      ],
      "stateMutability": "view",
      "type": "function",
      "constant": true
    },
    {
      "inputs": [],
      "name": "clearAssignmentInfos",
      "outputs": [],
      "stateMutability": "nonpayable",
      "type": "function"
    },
    {
      "inputs": [
        {
          "internalType": "string",
          "name": "a",
          "type": "string"
        },
        {
          "internalType": "string",
          "name": "b",
          "type": "string"
        }
      ],
      "name": "compareStrings",
      "outputs": [
        {
          "internalType": "bool",
          "name": "",
          "type": "bool"
        }
      ],
      "stateMutability": "pure",
      "type": "function",
      "constant": true
    },
    {
      "inputs": [
        {
          "internalType": "address",
          "name": "_contractAddress",
          "type": "address"
        }
      ],
      "name": "createTestHistory",
      "outputs": [
        {
          "internalType": "uint256",
          "name": "",
          "type": "uint256"
        }
      ],
      "stateMutability": "nonpayable",
      "type": "function"
    },
    {
      "inputs": [
        {
          "internalType": "address",
          "name": "_address",
          "type": "address"
        }
      ],
      "name": "getAssignmentCreationBlockNumber",
      "outputs": [
        {
          "internalType": "uint256",
          "name": "",
          "type": "uint256"
        }
      ],
      "stateMutability": "view",
      "type": "function",
      "constant": true
    },
    {
      "inputs": [],
      "name": "getAssignmentInfos",
      "outputs": [
        {
          "internalType": "uint256",
          "name": "",
          "type": "uint256"
        },
        {
          "internalType": "uint256",
          "name": "",
          "type": "uint256"
        },
        {
          "internalType": "bool",
          "name": "",
          "type": "bool"
        }
      ],
      "stateMutability": "view",
      "type": "function",
      "constant": true
    },
    {
      "inputs": [
        {
          "internalType": "address",
          "name": "_address",
          "type": "address"
        }
      ],
      "name": "getAssignmentOwner",
      "outputs": [
        {
          "internalType": "address",
          "name": "",
          "type": "address"
        }
      ],
      "stateMutability": "view",
      "type": "function",
      "constant": true
    },
    {
      "inputs": [],
      "name": "getConfigStorage",
      "outputs": [
        {
          "internalType": "contract ConfigStorage",
          "name": "",
          "type": "address"
        }
      ],
      "stateMutability": "view",
      "type": "function",
      "constant": true
    },
    {
      "inputs": [],
      "name": "getHistoryCounter",
      "outputs": [
        {
          "internalType": "uint256",
          "name": "",
          "type": "uint256"
        }
      ],
      "stateMutability": "view",
      "type": "function",
      "constant": true
    },
    {
      "inputs": [],
      "name": "getRequiredEther",
      "outputs": [
        {
          "internalType": "uint256",
          "name": "",
          "type": "uint256"
        }
      ],
      "stateMutability": "view",
      "type": "function",
      "constant": true
    },
    {
      "inputs": [
        {
          "internalType": "address",
          "name": "_address",
          "type": "address"
        }
      ],
      "name": "getSubmittedAssignment",
      "outputs": [
        {
          "components": [
            {
              "internalType": "uint256",
              "name": "testIndex",
              "type": "uint256"
            },
            {
              "internalType": "address",
              "name": "studentAddress",
              "type": "address"
            },
            {
              "internalType": "address",
              "name": "contractAddress",
              "type": "address"
            },
            {
              "internalType": "uint256",
              "name": "knowledgeCoins",
              "type": "uint256"
            },
            {
              "internalType": "uint256",
              "name": "blockNo",
              "type": "uint256"
            },
            {
              "internalType": "bool",
              "name": "submitted",
              "type": "bool"
            },
            {
              "internalType": "bool",
              "name": "lateSubmission",
              "type": "bool"
            }
          ],
          "internalType": "struct BaseValidator.AssignmentSubmitted",
          "name": "",
          "type": "tuple"
        }
      ],
      "stateMutability": "view",
      "type": "function",
      "constant": true
    },
    {
      "inputs": [
        {
          "internalType": "address",
          "name": "_address",
          "type": "address"
        }
      ],
      "name": "getTestHistoryIndexes",
      "outputs": [
        {
          "internalType": "uint256[]",
          "name": "",
          "type": "uint256[]"
        }
      ],
      "stateMutability": "view",
      "type": "function",
      "constant": true
    },
    {
      "inputs": [
        {
          "internalType": "uint256",
          "name": "_historyIndex",
          "type": "uint256"
        },
        {
          "internalType": "uint256",
          "name": "_testIndex",
          "type": "uint256"
        }
      ],
      "name": "getTestResultByIndex",
      "outputs": [
        {
          "components": [
            {
              "internalType": "string",
              "name": "testName",
              "type": "string"
            },
            {
              "internalType": "bool",
              "name": "testPassed",
              "type": "bool"
            },
            {
              "internalType": "uint256",
              "name": "points",
              "type": "uint256"
            }
          ],
          "internalType": "struct BaseValidator.Test",
          "name": "result",
          "type": "tuple"
        }
      ],
      "stateMutability": "view",
      "type": "function",
      "constant": true
    },
    {
      "inputs": [
        {
          "internalType": "uint256",
          "name": "_historyIndex",
          "type": "uint256"
        }
      ],
      "name": "getTestResults",
      "outputs": [
        {
          "components": [
            {
              "internalType": "string",
              "name": "testName",
              "type": "string"
            },
            {
              "internalType": "bool",
              "name": "testPassed",
              "type": "bool"
            },
            {
              "internalType": "uint256",
              "name": "points",
              "type": "uint256"
            }
          ],
          "internalType": "struct BaseValidator.Test[]",
          "name": "result",
          "type": "tuple[]"
        }
      ],
      "stateMutability": "view",
      "type": "function",
      "constant": true
    },
    {
      "inputs": [
        {
          "internalType": "address",
          "name": "_address",
          "type": "address"
        }
      ],
      "name": "hasAssignmentSubmitted",
      "outputs": [
        {
          "internalType": "bool",
          "name": "",
          "type": "bool"
        }
      ],
      "stateMutability": "view",
      "type": "function",
      "constant": true
    },
    {
      "inputs": [
        {
          "internalType": "address",
          "name": "_addr",
          "type": "address"
        },
        {
          "internalType": "string",
          "name": "functionName",
          "type": "string"
        },
        {
          "internalType": "uint256",
          "name": "ethValue",
          "type": "uint256"
        }
      ],
      "name": "hasFunction",
      "outputs": [
        {
          "internalType": "bool",
          "name": "",
          "type": "bool"
        }
      ],
      "stateMutability": "payable",
      "type": "function",
      "payable": true
    },
    {
      "inputs": [
        {
          "internalType": "address",
          "name": "_configContractAddress",
          "type": "address"
        },
        {
          "internalType": "string",
          "name": "_contractName",
          "type": "string"
        }
      ],
      "name": "initAdmin",
      "outputs": [],
      "stateMutability": "nonpayable",
      "type": "function"
    },
    {
      "inputs": [],
      "name": "isAssignmentLinked",
      "outputs": [
        {
          "internalType": "bool",
          "name": "",
          "type": "bool"
        }
      ],
      "stateMutability": "view",
      "type": "function",
      "constant": true
    },
    {
      "inputs": [
        {
          "internalType": "address",
          "name": "_helperAddress",
          "type": "address"
        }
      ],
      "name": "isValidator",
      "outputs": [
        {
          "internalType": "bool",
          "name": "",
          "type": "bool"
        }
      ],
      "stateMutability": "view",
      "type": "function",
      "constant": true
    },
    {
      "inputs": [
        {
          "internalType": "address",
          "name": "_address",
          "type": "address"
        }
      ],
      "name": "removeSubmittedAssignment",
      "outputs": [],
      "stateMutability": "nonpayable",
      "type": "function"
    },
    {
      "inputs": [],
      "name": "setAssignmentCreationBlockNumber",
      "outputs": [],
      "stateMutability": "nonpayable",
      "type": "function"
    },
    {
      "inputs": [
        {
          "internalType": "uint256",
          "name": "semesterId",
          "type": "uint256"
        },
        {
          "internalType": "uint256",
          "name": "assignmentId",
          "type": "uint256"
        }
      ],
      "name": "setAssignmentInfos",
      "outputs": [],
      "stateMutability": "nonpayable",
      "type": "function"
    },
    {
      "inputs": [],
      "name": "setAssignmentOwner",
      "outputs": [],
      "stateMutability": "nonpayable",
      "type": "function"
    },
    {
      "inputs": [
        {
          "internalType": "address",
          "name": "_contractAddress",
          "type": "address"
        }
      ],
      "name": "submitAssignment",
      "outputs": [
        {
          "internalType": "uint256",
          "name": "",
          "type": "uint256"
        }
      ],
      "stateMutability": "payable",
      "type": "function",
      "payable": true
    },
    {
      "inputs": [
        {
          "internalType": "address",
          "name": "_contractAddress",
          "type": "address"
        }
      ],
      "name": "validateAssignment",
      "outputs": [
        {
          "internalType": "uint256",
          "name": "",
          "type": "uint256"
        }
      ],
      "stateMutability": "payable",
      "type": "function",
      "payable": true
    },
    {
      "inputs": [
        {
          "internalType": "address payable",
          "name": "_to",
          "type": "address"
        },
        {
          "internalType": "uint256",
          "name": "_value",
          "type": "uint256"
        }
      ],
      "name": "withdrawFunds",
      "outputs": [],
      "stateMutability": "payable",
      "type": "function",
      "payable": true
    },
    {
      "stateMutability": "payable",
      "type": "receive",
      "payable": true
    },
    {
      "inputs": [
        {
          "internalType": "address",
          "name": "_contractAddress",
          "type": "address"
        }
      ],
      "name": "test",
      "outputs": [
        {
          "internalType": "uint256",
          "name": "",
          "type": "uint256"
        }
      ],
      "stateMutability": "payable",
      "type": "function",
      "payable": true
    },
    {
      "inputs": [],
      "name": "donateEther",
      "outputs": [
        {
          "internalType": "bool",
          "name": "",
          "type": "bool"
        }
      ],
      "stateMutability": "payable",
      "type": "function",
      "payable": true
    }
  ],
  "bytecode": "0x60806040526000600655611c2060075561a8c060085560405162017ddc38038062017ddc83398181016040528101906200003a91906200078b565b806040518060600160405280602b815260200162017db1602b91396512309ce540006200006e8383620004f060201b60201c565b6200007f30620005ba60201b60201c565b80600681905550600060098190555050505080604051620000a090620006cd565b620000ac9190620007ce565b604051809103906000f080158015620000c9573d6000803e3d6000fd5b50600e60006101000a81548173ffffffffffffffffffffffffffffffffffffffff021916908373ffffffffffffffffffffffffffffffffffffffff160217905550806040516200011990620006db565b620001259190620007ce565b604051809103906000f08015801562000142573d6000803e3d6000fd5b50600f60006101000a81548173ffffffffffffffffffffffffffffffffffffffff021916908373ffffffffffffffffffffffffffffffffffffffff160217905550806040516200019290620006e9565b6200019e9190620007ce565b604051809103906000f080158015620001bb573d6000803e3d6000fd5b50601060006101000a81548173ffffffffffffffffffffffffffffffffffffffff021916908373ffffffffffffffffffffffffffffffffffffffff1602179055506200022f600e60009054906101000a900473ffffffffffffffffffffffffffffffffffffffff16620005ba60201b60201c565b62000262600f60009054906101000a900473ffffffffffffffffffffffffffffffffffffffff16620005ba60201b60201c565b62000295601060009054906101000a900473ffffffffffffffffffffffffffffffffffffffff16620005ba60201b60201c565b80604051620002a490620006f7565b620002b091906200089c565b604051809103906000f080158015620002cd573d6000803e3d6000fd5b50601260006101000a81548173ffffffffffffffffffffffffffffffffffffffff021916908373ffffffffffffffffffffffffffffffffffffffff16021790555062000341601260009054906101000a900473ffffffffffffffffffffffffffffffffffffffff16620005ba60201b60201c565b6501d1a94a2000601260009054906101000a900473ffffffffffffffffffffffffffffffffffffffff16826040516200037a9062000705565b62000387929190620008e3565b6040518091039082f0905080158015620003a5573d6000803e3d6000fd5b50601360006101000a81548173ffffffffffffffffffffffffffffffffffffffff021916908373ffffffffffffffffffffffffffffffffffffffff16021790555062000419601360009054906101000a900473ffffffffffffffffffffffffffffffffffffffff16620005ba60201b60201c565b80601360009054906101000a900473ffffffffffffffffffffffffffffffffffffffff166040516200044b9062000713565b62000458929190620008e3565b604051809103906000f08015801562000475573d6000803e3d6000fd5b50601160006101000a81548173ffffffffffffffffffffffffffffffffffffffff021916908373ffffffffffffffffffffffffffffffffffffffff160217905550620004e9601160009054906101000a900473ffffffffffffffffffffffffffffffffffffffff16620005ba60201b60201c565b5062000a3c565b816000806101000a81548173ffffffffffffffffffffffffffffffffffffffff021916908373ffffffffffffffffffffffffffffffffffffffff160217905550600062000542620006a460201b60201c565b90508073ffffffffffffffffffffffffffffffffffffffff16637fb99b9330846040518363ffffffff1660e01b81526004016200058192919062000999565b600060405180830381600087803b1580156200059c57600080fd5b505af1158015620005b1573d6000803e3d6000fd5b50505050505050565b620005ca620006a460201b60201c565b73ffffffffffffffffffffffffffffffffffffffff16635577210a336040518263ffffffff1660e01b8152600401620006049190620007ce565b602060405180830381865afa15801562000622573d6000803e3d6000fd5b505050506040513d601f19601f8201168201806040525081019062000648919062000a0a565b506001600c60008373ffffffffffffffffffffffffffffffffffffffff1673ffffffffffffffffffffffffffffffffffffffff16815260200190815260200160002060006101000a81548160ff02191690831515021790555050565b60008060009054906101000a900473ffffffffffffffffffffffffffffffffffffffff16905090565b611cf98062005f6a83390190565b61512c8062007c6383390190565b612880806200cd8f83390190565b612943806200f60f83390190565b6143fa8062011f5283390190565b611a65806201634c83390190565b600080fd5b600073ffffffffffffffffffffffffffffffffffffffff82169050919050565b6000620007538262000726565b9050919050565b620007658162000746565b81146200077157600080fd5b50565b60008151905062000785816200075a565b92915050565b600060208284031215620007a457620007a362000721565b5b6000620007b48482850162000774565b91505092915050565b620007c88162000746565b82525050565b6000602082019050620007e56000830184620007bd565b92915050565b600082825260208201905092915050565b7f5353323320436f696e202d2041737369676e6d656e7420320000000000000000600082015250565b600062000834601883620007eb565b91506200084182620007fc565b602082019050919050565b7f5353323300000000000000000000000000000000000000000000000000000000600082015250565b600062000884600483620007eb565b915062000891826200084c565b602082019050919050565b60006060820190508181036000830152620008b78162000825565b90508181036020830152620008cc8162000875565b9050620008dd6040830184620007bd565b92915050565b6000604082019050620008fa6000830185620007bd565b620009096020830184620007bd565b9392505050565b600081519050919050565b60005b838110156200093b5780820151818401526020810190506200091e565b60008484015250505050565b6000601f19601f8301169050919050565b6000620009658262000910565b620009718185620007eb565b9350620009838185602086016200091b565b6200098e8162000947565b840191505092915050565b6000604082019050620009b06000830185620007bd565b8181036020830152620009c4818462000958565b90509392505050565b60008115159050919050565b620009e481620009cd565b8114620009f057600080fd5b50565b60008151905062000a0481620009d9565b92915050565b60006020828403121562000a235762000a2262000721565b5b600062000a3384828501620009f3565b91505092915050565b61551e8062000a4c6000396000f3fe6080604052600436106101f25760003560e01c8063863451dd1161010d578063bed34bba116100a0578063d7dc29811161006f578063d7dc29811461073d578063f274f5961461076d578063facd743b14610796578063fae45fbe146107d3578063fbd5bf4c146107fc576101f9565b8063bed34bba14610690578063c1075329146106cd578063c717a434146106e9578063c9b9da9514610726576101f9565b8063ab6f490f116100dc578063ab6f490f146105c8578063afbd6ae5146105f3578063b8e58a2a14610630578063bb29998e14610660576101f9565b8063863451dd1461052d578063990fdd491461054b578063a2574c3014610588578063a69e79b7146105b1576101f9565b80633e45b826116101855780635da15abd116101545780635da15abd1461045a5780635f1d4ea91461048a578063621eb8a7146104b35780636d6fa6d9146104f0576101f9565b80633e45b826146103785780634eed8c5d146103b5578063516cbbe2146103f25780635827a0651461041d576101f9565b806313a12b44116101c157806313a12b44146102bc5780632350e03a146102f95780632b518301146103245780633c21bf2514610361576101f9565b8063067df42b146101fe57806306854c5f1461022757806308e753ed146102525780630fa56ee41461028f576101f9565b366101f957005b600080fd5b34801561020a57600080fd5b50610225600480360381019061022091906134a6565b610827565b005b34801561023357600080fd5b5061023c610a66565b6040516102499190613501565b60405180910390f35b34801561025e57600080fd5b506102796004803603810190610274919061357a565b610a7d565b6040516102869190613501565b60405180910390f35b34801561029b57600080fd5b506102a4610ad6565b6040516102b3939291906135b6565b60405180910390f35b3480156102c857600080fd5b506102e360048036038101906102de919061357a565b610afc565b6040516102f091906135ed565b60405180910390f35b34801561030557600080fd5b5061030e610b45565b60405161031b91906135ed565b60405180910390f35b34801561033057600080fd5b5061034b6004803603810190610346919061374e565b610b4f565b6040516103589190613874565b60405180910390f35b34801561036d57600080fd5b50610376610b7e565b005b34801561038457600080fd5b5061039f600480360381019061039a9190613896565b610c92565b6040516103ac9190613a3d565b60405180910390f35b3480156103c157600080fd5b506103dc60048036038101906103d791906134a6565b610e56565b6040516103e99190613aaf565b60405180910390f35b3480156103fe57600080fd5b50610407610f4f565b6040516104149190613b30565b60405180910390f35b34801561042957600080fd5b50610444600480360381019061043f9190613b4b565b610f78565b6040516104519190613874565b60405180910390f35b610474600480360381019061046f919061357a565b610faa565b60405161048191906135ed565b60405180910390f35b34801561049657600080fd5b506104b160048036038101906104ac919061357a565b6116c9565b005b3480156104bf57600080fd5b506104da60048036038101906104d5919061357a565b6117a6565b6040516104e79190613cd1565b60405180910390f35b3480156104fc57600080fd5b506105176004803603810190610512919061357a565b6118be565b6040516105249190613501565b60405180910390f35b61053561190e565b6040516105429190613501565b60405180910390f35b34801561055757600080fd5b50610572600480360381019061056d919061357a565b6119ef565b60405161057f91906135ed565b60405180910390f35b34801561059457600080fd5b506105af60048036038101906105aa9190613d1f565b611b5c565b005b3480156105bd57600080fd5b506105c6611cdc565b005b3480156105d457600080fd5b506105dd611d8b565b6040516105ea91906135ed565b60405180910390f35b3480156105ff57600080fd5b5061061a6004803603810190610615919061357a565b611d95565b6040516106279190613d9d565b60405180910390f35b61064a6004803603810190610645919061357a565b611dfe565b60405161065791906135ed565b60405180910390f35b61067a6004803603810190610675919061357a565b611fb8565b60405161068791906135ed565b60405180910390f35b34801561069c57600080fd5b506106b760048036038101906106b29190613db8565b6126b4565b6040516106c49190613501565b60405180910390f35b6106e760048036038101906106e29190613e6e565b61270d565b005b3480156106f557600080fd5b50610710600480360381019061070b919061357a565b612a5c565b60405161071d9190613f4b565b60405180910390f35b34801561073257600080fd5b5061073b612bb5565b005b61075760048036038101906107529190613f66565b612c43565b6040516107649190613501565b60405180910390f35b34801561077957600080fd5b50610794600480360381019061078f919061357a565b612cf4565b005b3480156107a257600080fd5b506107bd60048036038101906107b8919061357a565b612fda565b6040516107ca9190613501565b60405180910390f35b3480156107df57600080fd5b506107fa60048036038101906107f59190613fd5565b613030565b005b34801561080857600080fd5b506108116130ee565b60405161081e91906135ed565b60405180910390f35b61082f610f4f565b73ffffffffffffffffffffffffffffffffffffffff16635577210a336040518263ffffffff1660e01b81526004016108679190613d9d565b602060405180830381865afa158015610884573d6000803e3d6000fd5b505050506040513d601f19601f820116820180604052508101906108a89190614046565b50600115156108b5610f4f565b73ffffffffffffffffffffffffffffffffffffffff16633a06068d846040518263ffffffff1660e01b81526004016108ed91906135ed565b602060405180830381865afa15801561090a573d6000803e3d6000fd5b505050506040513d601f19601f8201168201806040525081019061092e9190614046565b151514610970576040517f08c379a0000000000000000000000000000000000000000000000000000000008152600401610967906140bf565b60405180910390fd5b6001151561097c610f4f565b73ffffffffffffffffffffffffffffffffffffffff16637572fa8984846040518363ffffffff1660e01b81526004016109b69291906140df565b602060405180830381865afa1580156109d3573d6000803e3d6000fd5b505050506040513d601f19601f820116820180604052508101906109f79190614046565b151514610a39576040517f08c379a0000000000000000000000000000000000000000000000000000000008152600401610a309061417a565b60405180910390fd5b81600381905550806004819055506001600560006101000a81548160ff0219169083151502179055505050565b6000600560009054906101000a900460ff16905090565b6000600b60008373ffffffffffffffffffffffffffffffffffffffff1673ffffffffffffffffffffffffffffffffffffffff16815260200190815260200160002060050160009054906101000a900460ff169050919050565b6000806000600354600454600560009054906101000a900460ff16925092509250909192565b6000600160008373ffffffffffffffffffffffffffffffffffffffff1673ffffffffffffffffffffffffffffffffffffffff168152602001908152602001600020549050919050565b6000600654905090565b6060838383604051602001610b669392919061426e565b60405160208183030381529060405290509392505050565b600073ffffffffffffffffffffffffffffffffffffffff16600260003373ffffffffffffffffffffffffffffffffffffffff1673ffffffffffffffffffffffffffffffffffffffff16815260200190815260200160002060009054906101000a900473ffffffffffffffffffffffffffffffffffffffff1673ffffffffffffffffffffffffffffffffffffffff1603610c905732600260003373ffffffffffffffffffffffffffffffffffffffff1673ffffffffffffffffffffffffffffffffffffffff16815260200190815260200160002060006101000a81548173ffffffffffffffffffffffffffffffffffffffff021916908373ffffffffffffffffffffffffffffffffffffffff1602179055505b565b60606000600a60008481526020019081526020016000206002015467ffffffffffffffff811115610cc657610cc5613623565b5b604051908082528060200260200182016040528015610cff57816020015b610cec6133cc565b815260200190600190039081610ce45790505b5090506000600190505b600a6000858152602001908152602001600020600201548111610e4c57600a60008581526020019081526020016000206003016000828152602001908152602001600020604051806060016040529081600082018054610d68906142e4565b80601f0160208091040260200160405190810160405280929190818152602001828054610d94906142e4565b8015610de15780601f10610db657610100808354040283529160200191610de1565b820191906000526020600020905b815481529060010190602001808311610dc457829003601f168201915b505050505081526020016001820160009054906101000a900460ff1615151515815260200160028201548152505082600183610e1d9190614344565b81518110610e2e57610e2d614378565b5b60200260200101819052508080610e44906143a7565b915050610d09565b8192505050919050565b610e5e6133cc565b600a60008481526020019081526020016000206003016000838152602001908152602001600020604051806060016040529081600082018054610ea0906142e4565b80601f0160208091040260200160405190810160405280929190818152602001828054610ecc906142e4565b8015610f195780601f10610eee57610100808354040283529160200191610f19565b820191906000526020600020905b815481529060010190602001808311610efc57829003601f168201915b505050505081526020016001820160009054906101000a900460ff16151515158152602001600282015481525050905092915050565b60008060009054906101000a900473ffffffffffffffffffffffffffffffffffffffff16905090565b606084848484604051602001610f919493929190614487565b6040516020818303038152906040529050949350505050565b600060011515610fb8610a66565b151514610ffa576040517f08c379a0000000000000000000000000000000000000000000000000000000008152600401610ff19061457e565b60405180910390fd5b60011515600b60003373ffffffffffffffffffffffffffffffffffffffff1673ffffffffffffffffffffffffffffffffffffffff16815260200190815260200160002060050160009054906101000a900460ff16151503611090576040517f08c379a000000000000000000000000000000000000000000000000000000000815260040161108790614636565b60405180910390fd5b3373ffffffffffffffffffffffffffffffffffffffff168273ffffffffffffffffffffffffffffffffffffffff1663893d20e86040518163ffffffff1660e01b81526004016020604051808303816000875af11580156110f4573d6000803e3d6000fd5b505050506040513d601f19601f82011682018060405250810190611118919061466b565b73ffffffffffffffffffffffffffffffffffffffff161461116e576040517f08c379a000000000000000000000000000000000000000000000000000000000815260040161116590614730565b60405180910390fd5b6001151561117b836130f4565b1515146111bd576040517f08c379a00000000000000000000000000000000000000000000000000000000081526004016111b4906147e8565b60405180910390fd5b600115156111c9613265565b15151461120b576040517f08c379a0000000000000000000000000000000000000000000000000000000008152600401611202906148a0565b60405180910390fd5b600061121683611dfe565b9050600080600190505b600a60008481526020019081526020016000206002015481116112cc5760011515600a6000858152602001908152602001600020600301600083815260200190815260200160002060010160009054906101000a900460ff161515036112b957600a6000848152602001908152602001600020600301600082815260200190815260200160002060020154826112b691906148c0565b91505b80806112c4906143a7565b915050611220565b60006112d6610f4f565b73ffffffffffffffffffffffffffffffffffffffff1663e07b04946003546004546040518363ffffffff1660e01b81526004016113149291906140df565b600060405180830381865afa158015611331573d6000803e3d6000fd5b505050506040513d6000823e3d601f19601f8201168201806040525081019061135a9190614a47565b60800151905060006007548261137091906148c0565b431015801561138c57506008548261138891906148c0565b4311155b156113b15760646055856113a09190614a90565b6113aa9190614b01565b9350600190505b60006113bb610f4f565b73ffffffffffffffffffffffffffffffffffffffff1663f67917796040518163ffffffff1660e01b8152600401602060405180830381865afa158015611405573d6000803e3d6000fd5b505050506040513d601f19601f82011682018060405250810190611429919061466b565b905060008173ffffffffffffffffffffffffffffffffffffffff16634cdca3bd876040518263ffffffff1660e01b815260040161146691906135ed565b602060405180830381865afa158015611483573d6000803e3d6000fd5b505050506040513d601f19601f820116820180604052508101906114a79190614b32565b90508173ffffffffffffffffffffffffffffffffffffffff166340c10f1933836040518363ffffffff1660e01b81526004016114e4929190614b5f565b6020604051808303816000875af1158015611503573d6000803e3d6000fd5b505050506040513d601f19601f820116820180604052508101906115279190614046565b506040518060e001604052808881526020013373ffffffffffffffffffffffffffffffffffffffff1681526020018a73ffffffffffffffffffffffffffffffffffffffff168152602001878152602001438152602001600115158152602001841515815250600b60003373ffffffffffffffffffffffffffffffffffffffff1673ffffffffffffffffffffffffffffffffffffffff1681526020019081526020016000206000820151816000015560208201518160010160006101000a81548173ffffffffffffffffffffffffffffffffffffffff021916908373ffffffffffffffffffffffffffffffffffffffff16021790555060408201518160020160006101000a81548173ffffffffffffffffffffffffffffffffffffffff021916908373ffffffffffffffffffffffffffffffffffffffff160217905550606082015181600301556080820151816004015560a08201518160050160006101000a81548160ff02191690831515021790555060c08201518160050160016101000a81548160ff02191690831515021790555090505086975050505050505050919050565b6116d1610f4f565b73ffffffffffffffffffffffffffffffffffffffff16635577210a336040518263ffffffff1660e01b81526004016117099190613d9d565b602060405180830381865afa158015611726573d6000803e3d6000fd5b505050506040513d601f19601f8201168201806040525081019061174a9190614046565b506001600c60008373ffffffffffffffffffffffffffffffffffffffff1673ffffffffffffffffffffffffffffffffffffffff16815260200190815260200160002060006101000a81548160ff02191690831515021790555050565b6060600060095467ffffffffffffffff8111156117c6576117c5613623565b5b6040519080825280602002602001820160405280156117f45781602001602082028036833780820191505090505b509050600080600091505b60095482116118b3578473ffffffffffffffffffffffffffffffffffffffff16600a600084815260200190815260200160002060000160009054906101000a900473ffffffffffffffffffffffffffffffffffffffff1673ffffffffffffffffffffffffffffffffffffffff16036118a0578183828151811061188557611884614378565b5b602002602001018181525050808061189c906143a7565b9150505b81806118ab906143a7565b9250506117ff565b829350505050919050565b60003373ffffffffffffffffffffffffffffffffffffffff166118e083611d95565b73ffffffffffffffffffffffffffffffffffffffff16036119045760019050611909565b600090505b919050565b600080600d60009054906101000a900473ffffffffffffffffffffffffffffffffffffffff1673ffffffffffffffffffffffffffffffffffffffff1631036119e757600d60009054906101000a900473ffffffffffffffffffffffffffffffffffffffff1673ffffffffffffffffffffffffffffffffffffffff1663863451dd64174876e8006040518263ffffffff1660e01b81526004016000604051808303818588803b1580156119bf57600080fd5b505af1935050505080156119d1575060015b6119de57600090506119ec565b600190506119ec565b600190505b90565b60006119f9610f4f565b73ffffffffffffffffffffffffffffffffffffffff16635577210a306040518263ffffffff1660e01b8152600401611a319190613d9d565b602060405180830381865afa158015611a4e573d6000803e3d6000fd5b505050506040513d601f19601f82011682018060405250810190611a729190614046565b5060006001600954611a8491906148c0565b905033600a600083815260200190815260200160002060000160006101000a81548173ffffffffffffffffffffffffffffffffffffffff021916908373ffffffffffffffffffffffffffffffffffffffff16021790555082600a600083815260200190815260200160002060010160006101000a81548173ffffffffffffffffffffffffffffffffffffffff021916908373ffffffffffffffffffffffffffffffffffffffff1602179055506000600a6000838152602001908152602001600020600201819055508060098190555080915050919050565b611b64610f4f565b73ffffffffffffffffffffffffffffffffffffffff16635577210a306040518263ffffffff1660e01b8152600401611b9c9190613d9d565b602060405180830381865afa158015611bb9573d6000803e3d6000fd5b505050506040513d601f19601f82011682018060405250810190611bdd9190614046565b5060006001600a6000600954815260200190815260200160002060020154611c0591906148c0565b9050600060405180606001604052808681526020018515158152602001848152509050848160000181905250838160200190151590811515815250508281604001818152505080600a6000600954815260200190815260200160002060030160008481526020019081526020016000206000820151816000019081611c8a9190614d2a565b5060208201518160010160006101000a81548160ff0219169083151502179055506040820151816002015590505081600a60006009548152602001908152602001600020600201819055505050505050565b611ce4610f4f565b73ffffffffffffffffffffffffffffffffffffffff16635577210a336040518263ffffffff1660e01b8152600401611d1c9190613d9d565b602060405180830381865afa158015611d39573d6000803e3d6000fd5b505050506040513d601f19601f82011682018060405250810190611d5d9190614046565b50600060038190555060006004819055506000600560006101000a81548160ff021916908315150217905550565b6000600954905090565b6000600260008373ffffffffffffffffffffffffffffffffffffffff1673ffffffffffffffffffffffffffffffffffffffff16815260200190815260200160002060009054906101000a900473ffffffffffffffffffffffffffffffffffffffff169050919050565b600060011515611e0c610a66565b151514611e4e576040517f08c379a0000000000000000000000000000000000000000000000000000000008152600401611e4590614e94565b60405180910390fd5b3273ffffffffffffffffffffffffffffffffffffffff16611e6e83611d95565b73ffffffffffffffffffffffffffffffffffffffff161480611f14575060011515611e97610f4f565b73ffffffffffffffffffffffffffffffffffffffff166324d7806c336040518263ffffffff1660e01b8152600401611ecf9190613d9d565b602060405180830381865afa158015611eec573d6000803e3d6000fd5b505050506040513d601f19601f82011682018060405250810190611f109190614046565b1515145b611f53576040517f08c379a0000000000000000000000000000000000000000000000000000000008152600401611f4a90614f4c565b60405180910390fd5b60011515611f60836130f4565b151514611fa2576040517f08c379a0000000000000000000000000000000000000000000000000000000008152600401611f99906147e8565b60405180910390fd5b6000611fad83611fb8565b905080915050919050565b600080611fc4836119ef565b905082600d60006101000a81548173ffffffffffffffffffffffffffffffffffffffff021916908373ffffffffffffffffffffffffffffffffffffffff16021790555061200f61190e565b61205d576120546040518060400160405280602081526020017f4572726f72207769746820646f6e6174652065746865722066756e6374696f6e815250600080611b5c565b809150506126af565b600e60009054906101000a900473ffffffffffffffffffffffffffffffffffffffff1673ffffffffffffffffffffffffffffffffffffffff1663cf9d4afa846040518263ffffffff1660e01b81526004016120b89190613d9d565b600060405180830381600087803b1580156120d257600080fd5b505af11580156120e6573d6000803e3d6000fd5b5050505061214d600e60009054906101000a900473ffffffffffffffffffffffffffffffffffffffff166040518060400160405280600f81526020017f74657374457865726369736541282900000000000000000000000000000000008152506000612c43565b1561221e57600080600e60009054906101000a900473ffffffffffffffffffffffffffffffffffffffff1673ffffffffffffffffffffffffffffffffffffffff1663cfacdce860006040518263ffffffff1660e01b815260040160006040518083038185885af11580156121c5573d6000803e3d6000fd5b50505050506040513d6000823e3d601f19601f820116820180604052508101906121ef9190614f6c565b91509150801561220a5761220582600180611b5c565b612217565b61221682600080611b5c565b5b5050612243565b6122426040518060a001604052806062815260200161548760629139600080611b5c565b5b600f60009054906101000a900473ffffffffffffffffffffffffffffffffffffffff1673ffffffffffffffffffffffffffffffffffffffff1663cf9d4afa846040518263ffffffff1660e01b815260040161229e9190613d9d565b600060405180830381600087803b1580156122b857600080fd5b505af11580156122cc573d6000803e3d6000fd5b50505050612337600f60009054906101000a900473ffffffffffffffffffffffffffffffffffffffff166040518060400160405280600f81526020017f746573744578657263697365422829000000000000000000000000000000000081525064e8d4a51000612c43565b1561240d57600080600f60009054906101000a900473ffffffffffffffffffffffffffffffffffffffff1673ffffffffffffffffffffffffffffffffffffffff16631ccb0c1264e8d4a510006040518263ffffffff1660e01b815260040160006040518083038185885af11580156123b3573d6000803e3d6000fd5b50505050506040513d6000823e3d601f19601f820116820180604052508101906123dd9190614f6c565b9150915080156123f9576123f48260016008611b5c565b612406565b61240582600080611b5c565b5b5050612432565b6124316040518060a00160405280606281526020016153c360629139600080611b5c565b5b6124736040518060400160405280601d81526020017f457865726369736520433a20416c6c207465737473207061737365642e000000815250600180611b5c565b601060009054906101000a900473ffffffffffffffffffffffffffffffffffffffff1673ffffffffffffffffffffffffffffffffffffffff16639b1bb32384601160009054906101000a900473ffffffffffffffffffffffffffffffffffffffff16601260009054906101000a900473ffffffffffffffffffffffffffffffffffffffff166040518463ffffffff1660e01b815260040161251693929190614fc8565b600060405180830381600087803b15801561253057600080fd5b505af1158015612544573d6000803e3d6000fd5b505050506125af601060009054906101000a900473ffffffffffffffffffffffffffffffffffffffff166040518060400160405280600f81526020017f7465737445786572636973654428290000000000000000000000000000000000815250642e90edd000612c43565b1561268557600080601060009054906101000a900473ffffffffffffffffffffffffffffffffffffffff1673ffffffffffffffffffffffffffffffffffffffff16636fceee2b642e90edd0006040518263ffffffff1660e01b815260040160006040518083038185885af115801561262b573d6000803e3d6000fd5b50505050506040513d6000823e3d601f19601f820116820180604052508101906126559190614f6c565b9150915080156126715761266c8260016005611b5c565b61267e565b61267d82600080611b5c565b5b50506126aa565b6126a96040518060a001604052806062815260200161542560629139600080611b5c565b5b809150505b919050565b6000816040516020016126c79190614fff565b60405160208183030381529060405280519060200120836040516020016126ee9190614fff565b6040516020818303038152906040528051906020012014905092915050565b612715610f4f565b73ffffffffffffffffffffffffffffffffffffffff166324d7806c336040518263ffffffff1660e01b815260040161274d9190613d9d565b602060405180830381865afa15801561276a573d6000803e3d6000fd5b505050506040513d601f19601f8201168201806040525081019061278e9190614046565b6127cd576040517f08c379a00000000000000000000000000000000000000000000000000000000081526004016127c490615088565b60405180910390fd5b600073ffffffffffffffffffffffffffffffffffffffff168273ffffffffffffffffffffffffffffffffffffffff160361283c576040517f08c379a0000000000000000000000000000000000000000000000000000000008152600401612833906150f4565b60405180910390fd5b3373ffffffffffffffffffffffffffffffffffffffff168273ffffffffffffffffffffffffffffffffffffffff1614806128a157503273ffffffffffffffffffffffffffffffffffffffff168273ffffffffffffffffffffffffffffffffffffffff16145b8061292957506128af610f4f565b73ffffffffffffffffffffffffffffffffffffffff166324d7806c836040518263ffffffff1660e01b81526004016128e79190615135565b602060405180830381865afa158015612904573d6000803e3d6000fd5b505050506040513d601f19601f820116820180604052508101906129289190614046565b5b612968576040517f08c379a000000000000000000000000000000000000000000000000000000000815260040161295f906151c2565b60405180910390fd5b478110156129ab576040517f08c379a00000000000000000000000000000000000000000000000000000000081526004016129a29061522e565b60405180910390fd5b60008273ffffffffffffffffffffffffffffffffffffffff16826040516129d19061527f565b60006040518083038185875af1925050503d8060008114612a0e576040519150601f19603f3d011682016040523d82523d6000602084013e612a13565b606091505b5050905080612a57576040517f08c379a0000000000000000000000000000000000000000000000000000000008152600401612a4e906152e0565b60405180910390fd5b505050565b612a646133ef565b600b60008373ffffffffffffffffffffffffffffffffffffffff1673ffffffffffffffffffffffffffffffffffffffff1681526020019081526020016000206040518060e0016040529081600082015481526020016001820160009054906101000a900473ffffffffffffffffffffffffffffffffffffffff1673ffffffffffffffffffffffffffffffffffffffff1673ffffffffffffffffffffffffffffffffffffffff1681526020016002820160009054906101000a900473ffffffffffffffffffffffffffffffffffffffff1673ffffffffffffffffffffffffffffffffffffffff1673ffffffffffffffffffffffffffffffffffffffff16815260200160038201548152602001600482015481526020016005820160009054906101000a900460ff161515151581526020016005820160019054906101000a900460ff1615151515815250509050919050565b6000600160003373ffffffffffffffffffffffffffffffffffffffff1673ffffffffffffffffffffffffffffffffffffffff1681526020019081526020016000205403612c415743600160003373ffffffffffffffffffffffffffffffffffffffff1673ffffffffffffffffffffffffffffffffffffffff168152602001908152602001600020819055505b565b60008083604051602001612c579190614fff565b60405160208183030381529060405280519060200120905060008082604051602401604051602081830303815290604052907bffffffffffffffffffffffffffffffffffffffffffffffffffffffff19166020820180517bffffffffffffffffffffffffffffffffffffffffffffffffffffffff83818316178352505050509050600080825160208401888b5af191508193505050509392505050565b612cfc610f4f565b73ffffffffffffffffffffffffffffffffffffffff16635577210a826040518263ffffffff1660e01b8152600401612d349190613d9d565b602060405180830381865afa158015612d51573d6000803e3d6000fd5b505050506040513d601f19601f82011682018060405250810190612d759190614046565b5060011515612d8382610a7d565b151514612dc5576040517f08c379a0000000000000000000000000000000000000000000000000000000008152600401612dbc90615372565b60405180910390fd5b6000600b60008373ffffffffffffffffffffffffffffffffffffffff1673ffffffffffffffffffffffffffffffffffffffff1681526020019081526020016000206003015490506000612e16610f4f565b73ffffffffffffffffffffffffffffffffffffffff1663f67917796040518163ffffffff1660e01b8152600401602060405180830381865afa158015612e60573d6000803e3d6000fd5b505050506040513d601f19601f82011682018060405250810190612e84919061466b565b90508073ffffffffffffffffffffffffffffffffffffffff16639dc29fac84846040518363ffffffff1660e01b8152600401612ec1929190614b5f565b6020604051808303816000875af1158015612ee0573d6000803e3d6000fd5b505050506040513d601f19601f82011682018060405250810190612f049190614046565b50600b60008473ffffffffffffffffffffffffffffffffffffffff1673ffffffffffffffffffffffffffffffffffffffff1681526020019081526020016000206000808201600090556001820160006101000a81549073ffffffffffffffffffffffffffffffffffffffff02191690556002820160006101000a81549073ffffffffffffffffffffffffffffffffffffffff0219169055600382016000905560048201600090556005820160006101000a81549060ff02191690556005820160016101000a81549060ff02191690555050505050565b6000600c60008373ffffffffffffffffffffffffffffffffffffffff1673ffffffffffffffffffffffffffffffffffffffff16815260200190815260200160002060009054906101000a900460ff169050919050565b816000806101000a81548173ffffffffffffffffffffffffffffffffffffffff021916908373ffffffffffffffffffffffffffffffffffffffff160217905550600061307a610f4f565b90508073ffffffffffffffffffffffffffffffffffffffff16637fb99b9330846040518363ffffffff1660e01b81526004016130b7929190615392565b600060405180830381600087803b1580156130d157600080fd5b505af11580156130e5573d6000803e3d6000fd5b50505050505050565b60095481565b60008061310083610afc565b9050600061310c610f4f565b73ffffffffffffffffffffffffffffffffffffffff1663e07b04946003546004546040518363ffffffff1660e01b815260040161314a9291906140df565b600060405180830381865afa158015613167573d6000803e3d6000fd5b505050506040513d6000823e3d601f19601f820116820180604052508101906131909190614a47565b60600151905060006131a0610f4f565b73ffffffffffffffffffffffffffffffffffffffff1663e07b04946003546004546040518363ffffffff1660e01b81526004016131de9291906140df565b600060405180830381865afa1580156131fb573d6000803e3d6000fd5b505050506040513d6000823e3d601f19601f820116820180604052508101906132249190614a47565b60800151905081831015801561324757506008548161324391906148c0565b8311155b156132585760019350505050613260565b600093505050505b919050565b6000804390506000613275610f4f565b73ffffffffffffffffffffffffffffffffffffffff1663e07b04946003546004546040518363ffffffff1660e01b81526004016132b39291906140df565b600060405180830381865afa1580156132d0573d6000803e3d6000fd5b505050506040513d6000823e3d601f19601f820116820180604052508101906132f99190614a47565b6060015190506000613309610f4f565b73ffffffffffffffffffffffffffffffffffffffff1663e07b04946003546004546040518363ffffffff1660e01b81526004016133479291906140df565b600060405180830381865afa158015613364573d6000803e3d6000fd5b505050506040513d6000823e3d601f19601f8201168201806040525081019061338d9190614a47565b6080015190508183101580156133b05750600854816133ac91906148c0565b8311155b156133c157600193505050506133c9565b600093505050505b90565b604051806060016040528060608152602001600015158152602001600081525090565b6040518060e0016040528060008152602001600073ffffffffffffffffffffffffffffffffffffffff168152602001600073ffffffffffffffffffffffffffffffffffffffff16815260200160008152602001600081526020016000151581526020016000151581525090565b6000604051905090565b600080fd5b600080fd5b6000819050919050565b61348381613470565b811461348e57600080fd5b50565b6000813590506134a08161347a565b92915050565b600080604083850312156134bd576134bc613466565b5b60006134cb85828601613491565b92505060206134dc85828601613491565b9150509250929050565b60008115159050919050565b6134fb816134e6565b82525050565b600060208201905061351660008301846134f2565b92915050565b600073ffffffffffffffffffffffffffffffffffffffff82169050919050565b60006135478261351c565b9050919050565b6135578161353c565b811461356257600080fd5b50565b6000813590506135748161354e565b92915050565b6000602082840312156135905761358f613466565b5b600061359e84828501613565565b91505092915050565b6135b081613470565b82525050565b60006060820190506135cb60008301866135a7565b6135d860208301856135a7565b6135e560408301846134f2565b949350505050565b600060208201905061360260008301846135a7565b92915050565b600080fd5b600080fd5b6000601f19601f8301169050919050565b7f4e487b7100000000000000000000000000000000000000000000000000000000600052604160045260246000fd5b61365b82613612565b810181811067ffffffffffffffff8211171561367a57613679613623565b5b80604052505050565b600061368d61345c565b90506136998282613652565b919050565b600067ffffffffffffffff8211156136b9576136b8613623565b5b6136c282613612565b9050602081019050919050565b82818337600083830152505050565b60006136f16136ec8461369e565b613683565b90508281526020810184848401111561370d5761370c61360d565b5b6137188482856136cf565b509392505050565b600082601f83011261373557613734613608565b5b81356137458482602086016136de565b91505092915050565b60008060006060848603121561376757613766613466565b5b600084013567ffffffffffffffff8111156137855761378461346b565b5b61379186828701613720565b935050602084013567ffffffffffffffff8111156137b2576137b161346b565b5b6137be86828701613720565b925050604084013567ffffffffffffffff8111156137df576137de61346b565b5b6137eb86828701613720565b9150509250925092565b600081519050919050565b600082825260208201905092915050565b60005b8381101561382f578082015181840152602081019050613814565b60008484015250505050565b6000613846826137f5565b6138508185613800565b9350613860818560208601613811565b61386981613612565b840191505092915050565b6000602082019050818103600083015261388e818461383b565b905092915050565b6000602082840312156138ac576138ab613466565b5b60006138ba84828501613491565b91505092915050565b600081519050919050565b600082825260208201905092915050565b6000819050602082019050919050565b600082825260208201905092915050565b600061390b826137f5565b61391581856138ef565b9350613925818560208601613811565b61392e81613612565b840191505092915050565b613942816134e6565b82525050565b61395181613470565b82525050565b600060608301600083015184820360008601526139748282613900565b91505060208301516139896020860182613939565b50604083015161399c6040860182613948565b508091505092915050565b60006139b38383613957565b905092915050565b6000602082019050919050565b60006139d3826138c3565b6139dd81856138ce565b9350836020820285016139ef856138df565b8060005b85811015613a2b5784840389528151613a0c85826139a7565b9450613a17836139bb565b925060208a019950506001810190506139f3565b50829750879550505050505092915050565b60006020820190508181036000830152613a5781846139c8565b905092915050565b60006060830160008301518482036000860152613a7c8282613900565b9150506020830151613a916020860182613939565b506040830151613aa46040860182613948565b508091505092915050565b60006020820190508181036000830152613ac98184613a5f565b905092915050565b6000819050919050565b6000613af6613af1613aec8461351c565b613ad1565b61351c565b9050919050565b6000613b0882613adb565b9050919050565b6000613b1a82613afd565b9050919050565b613b2a81613b0f565b82525050565b6000602082019050613b456000830184613b21565b92915050565b60008060008060808587031215613b6557613b64613466565b5b600085013567ffffffffffffffff811115613b8357613b8261346b565b5b613b8f87828801613720565b945050602085013567ffffffffffffffff811115613bb057613baf61346b565b5b613bbc87828801613720565b935050604085013567ffffffffffffffff811115613bdd57613bdc61346b565b5b613be987828801613720565b925050606085013567ffffffffffffffff811115613c0a57613c0961346b565b5b613c1687828801613720565b91505092959194509250565b600081519050919050565b600082825260208201905092915050565b6000819050602082019050919050565b6000613c5a8383613948565b60208301905092915050565b6000602082019050919050565b6000613c7e82613c22565b613c888185613c2d565b9350613c9383613c3e565b8060005b83811015613cc4578151613cab8882613c4e565b9750613cb683613c66565b925050600181019050613c97565b5085935050505092915050565b60006020820190508181036000830152613ceb8184613c73565b905092915050565b613cfc816134e6565b8114613d0757600080fd5b50565b600081359050613d1981613cf3565b92915050565b600080600060608486031215613d3857613d37613466565b5b600084013567ffffffffffffffff811115613d5657613d5561346b565b5b613d6286828701613720565b9350506020613d7386828701613d0a565b9250506040613d8486828701613491565b9150509250925092565b613d978161353c565b82525050565b6000602082019050613db26000830184613d8e565b92915050565b60008060408385031215613dcf57613dce613466565b5b600083013567ffffffffffffffff811115613ded57613dec61346b565b5b613df985828601613720565b925050602083013567ffffffffffffffff811115613e1a57613e1961346b565b5b613e2685828601613720565b9150509250929050565b6000613e3b8261351c565b9050919050565b613e4b81613e30565b8114613e5657600080fd5b50565b600081359050613e6881613e42565b92915050565b60008060408385031215613e8557613e84613466565b5b6000613e9385828601613e59565b9250506020613ea485828601613491565b9150509250929050565b613eb78161353c565b82525050565b60e082016000820151613ed36000850182613948565b506020820151613ee66020850182613eae565b506040820151613ef96040850182613eae565b506060820151613f0c6060850182613948565b506080820151613f1f6080850182613948565b5060a0820151613f3260a0850182613939565b5060c0820151613f4560c0850182613939565b50505050565b600060e082019050613f606000830184613ebd565b92915050565b600080600060608486031215613f7f57613f7e613466565b5b6000613f8d86828701613565565b935050602084013567ffffffffffffffff811115613fae57613fad61346b565b5b613fba86828701613720565b9250506040613fcb86828701613491565b9150509250925092565b60008060408385031215613fec57613feb613466565b5b6000613ffa85828601613565565b925050602083013567ffffffffffffffff81111561401b5761401a61346b565b5b61402785828601613720565b9150509250929050565b60008151905061404081613cf3565b92915050565b60006020828403121561405c5761405b613466565b5b600061406a84828501614031565b91505092915050565b7f53656d657374657220696420646f6573206e6f74206578697374210000000000600082015250565b60006140a9601b83613800565b91506140b482614073565b602082019050919050565b600060208201905081810360008301526140d88161409c565b9050919050565b60006040820190506140f460008301856135a7565b61410160208301846135a7565b9392505050565b7f41737369676e6d656e7420696420666f72207468652073656d6573746572206460008201527f6f6573206e6f7420657869737421000000000000000000000000000000000000602082015250565b6000614164602e83613800565b915061416f82614108565b604082019050919050565b6000602082019050818103600083015261419381614157565b9050919050565b600081905092915050565b60006141b0826137f5565b6141ba818561419a565b93506141ca818560208601613811565b80840191505092915050565b7f3a20000000000000000000000000000000000000000000000000000000000000600082015250565b600061420c60028361419a565b9150614217826141d6565b600282019050919050565b7f203e200000000000000000000000000000000000000000000000000000000000600082015250565b600061425860038361419a565b915061426382614222565b600382019050919050565b600061427a82866141a5565b9150614285826141ff565b915061429182856141a5565b915061429c8261424b565b91506142a882846141a5565b9150819050949350505050565b7f4e487b7100000000000000000000000000000000000000000000000000000000600052602260045260246000fd5b600060028204905060018216806142fc57607f821691505b60208210810361430f5761430e6142b5565b5b50919050565b7f4e487b7100000000000000000000000000000000000000000000000000000000600052601160045260246000fd5b600061434f82613470565b915061435a83613470565b925082820390508181111561437257614371614315565b5b92915050565b7f4e487b7100000000000000000000000000000000000000000000000000000000600052603260045260246000fd5b60006143b282613470565b91507fffffffffffffffffffffffffffffffffffffffffffffffffffffffffffffffff82036143e4576143e3614315565b5b600182019050919050565b7f2045787065637465643a20000000000000000000000000000000000000000000600082015250565b6000614425600b8361419a565b9150614430826143ef565b600b82019050919050565b7f2041637475616c3a200000000000000000000000000000000000000000000000600082015250565b600061447160098361419a565b915061447c8261443b565b600982019050919050565b600061449382876141a5565b915061449e826141ff565b91506144aa82866141a5565b91506144b582614418565b91506144c182856141a5565b91506144cc82614464565b91506144d882846141a5565b915081905095945050505050565b7f41737369676e6d656e74204572726f723a2041737369676e6d656e742069732060008201527f6e6f74206c696e6b656420746f20612073656d65737465722120506c6561736560208201527f20636f6e74616374207468652041646d696e2061736170210000000000000000604082015250565b6000614568605883613800565b9150614573826144e6565b606082019050919050565b600060208201905081810360008301526145978161455b565b9050919050565b7f41737369676e6d656e74204572726f723a2041737369676e6d656e7420616c7260008201527f65616479207375626d6974746564212043616e6e6f74207375626d697420746860208201527f652061737369676e6d656e7420616761696e2100000000000000000000000000604082015250565b6000614620605383613800565b915061462b8261459e565b606082019050919050565b6000602082019050818103600083015261464f81614613565b9050919050565b6000815190506146658161354e565b92915050565b60006020828403121561468157614680613466565b5b600061468f84828501614656565b91505092915050565b7f41737369676e6d656e74204572726f723a204f6e6c7920746865206f776e657260008201527f206f662074686520636f6e74726163742063616e207375626d6974207468697360208201527f2061737369676e6d656e74210000000000000000000000000000000000000000604082015250565b600061471a604c83613800565b915061472582614698565b606082019050919050565b600060208201905081810360008301526147498161470d565b9050919050565b7f41737369676e6d656e74204572726f723a2041737369676e6d656e74206e6f7460008201527f206465706c6f79656420696e207468652072657175697265642061737369676e60208201527f6d656e7420626c6f636b2072616e676521000000000000000000000000000000604082015250565b60006147d2605183613800565b91506147dd82614750565b606082019050919050565b60006020820190508181036000830152614801816147c5565b9050919050565b7f41737369676e6d656e74204572726f723a2041737369676e6d656e74206e6f7460008201527f207375626d697474656420696e2074686520726571756972656420617373696760208201527f6e6d656e7420626c6f636b2072616e6765210000000000000000000000000000604082015250565b600061488a605283613800565b915061489582614808565b606082019050919050565b600060208201905081810360008301526148b98161487d565b9050919050565b60006148cb82613470565b91506148d683613470565b92508282019050808211156148ee576148ed614315565b5b92915050565b600080fd5b600080fd5b600061491161490c8461369e565b613683565b90508281526020810184848401111561492d5761492c61360d565b5b614938848285613811565b509392505050565b600082601f83011261495557614954613608565b5b81516149658482602086016148fe565b91505092915050565b60008151905061497d8161347a565b92915050565b600060a08284031215614999576149986148f4565b5b6149a360a0613683565b9050600082015167ffffffffffffffff8111156149c3576149c26148f9565b5b6149cf84828501614940565b600083015250602082015167ffffffffffffffff8111156149f3576149f26148f9565b5b6149ff84828501614940565b6020830152506040614a1384828501614656565b6040830152506060614a278482850161496e565b6060830152506080614a3b8482850161496e565b60808301525092915050565b600060208284031215614a5d57614a5c613466565b5b600082015167ffffffffffffffff811115614a7b57614a7a61346b565b5b614a8784828501614983565b91505092915050565b6000614a9b82613470565b9150614aa683613470565b9250828202614ab481613470565b91508282048414831517614acb57614aca614315565b5b5092915050565b7f4e487b7100000000000000000000000000000000000000000000000000000000600052601260045260246000fd5b6000614b0c82613470565b9150614b1783613470565b925082614b2757614b26614ad2565b5b828204905092915050565b600060208284031215614b4857614b47613466565b5b6000614b568482850161496e565b91505092915050565b6000604082019050614b746000830185613d8e565b614b8160208301846135a7565b9392505050565b60008190508160005260206000209050919050565b60006020601f8301049050919050565b600082821b905092915050565b600060088302614bea7fffffffffffffffffffffffffffffffffffffffffffffffffffffffffffffffff82614bad565b614bf48683614bad565b95508019841693508086168417925050509392505050565b6000614c27614c22614c1d84613470565b613ad1565b613470565b9050919050565b6000819050919050565b614c4183614c0c565b614c55614c4d82614c2e565b848454614bba565b825550505050565b600090565b614c6a614c5d565b614c75818484614c38565b505050565b5b81811015614c9957614c8e600082614c62565b600181019050614c7b565b5050565b601f821115614cde57614caf81614b88565b614cb884614b9d565b81016020851015614cc7578190505b614cdb614cd385614b9d565b830182614c7a565b50505b505050565b600082821c905092915050565b6000614d0160001984600802614ce3565b1980831691505092915050565b6000614d1a8383614cf0565b9150826002028217905092915050565b614d33826137f5565b67ffffffffffffffff811115614d4c57614d4b613623565b5b614d5682546142e4565b614d61828285614c9d565b600060209050601f831160018114614d945760008415614d82578287015190505b614d8c8582614d0e565b865550614df4565b601f198416614da286614b88565b60005b82811015614dca57848901518255600182019150602085019450602081019050614da5565b86831015614de75784890151614de3601f891682614cf0565b8355505b6001600288020188555050505b505050505050565b7f41737369676e6d656e74204572726f723a2041737369676e6d656e742069732060008201527f6e6f74206c696e6b656420746f20612073656d65737465722120506c6561736560208201527f20636f6e747261637420616e2041646d696e2061736170210000000000000000604082015250565b6000614e7e605883613800565b9150614e8982614dfc565b606082019050919050565b60006020820190508181036000830152614ead81614e71565b9050919050565b7f41737369676e6d656e74204572726f723a204f6e6c7920746865206f776e657260008201527f206f662074686520636f6e7472616374206f7220616e2061646d696e2063616e60208201527f2076616c696461746520746869732061737369676e6d656e7421000000000000604082015250565b6000614f36605a83613800565b9150614f4182614eb4565b606082019050919050565b60006020820190508181036000830152614f6581614f29565b9050919050565b60008060408385031215614f8357614f82613466565b5b600083015167ffffffffffffffff811115614fa157614fa061346b565b5b614fad85828601614940565b9250506020614fbe85828601614031565b9150509250929050565b6000606082019050614fdd6000830186613d8e565b614fea6020830185613d8e565b614ff76040830184613d8e565b949350505050565b600061500b82846141a5565b915081905092915050565b7f4f6e6c7920636f6e74726163742061646d696e2063616e20776974686472617760008201527f2066756e64730000000000000000000000000000000000000000000000000000602082015250565b6000615072602683613800565b915061507d82615016565b604082019050919050565b600060208201905081810360008301526150a181615065565b9050919050565b7f496e76616c696420616464726573730000000000000000000000000000000000600082015250565b60006150de600f83613800565b91506150e9826150a8565b602082019050919050565b6000602082019050818103600083015261510d816150d1565b9050919050565b600061511f82613afd565b9050919050565b61512f81615114565b82525050565b600060208201905061514a6000830184615126565b92915050565b7f46756e64732063616e206f6e6c792062652077697468647261776e20746f206160008201527f646d696e2c206d73672e73656e646572206f722074782e6f726967696e000000602082015250565b60006151ac603d83613800565b91506151b782615150565b604082019050919050565b600060208201905081810360008301526151db8161519f565b9050919050565b7f496e73756666696369656e742066756e64730000000000000000000000000000600082015250565b6000615218601283613800565b9150615223826151e2565b602082019050919050565b600060208201905081810360008301526152478161520b565b9050919050565b600081905092915050565b50565b600061526960008361524e565b915061527482615259565b600082019050919050565b600061528a8261525c565b9150819050919050565b7f5472616e73666572206661696c65642e00000000000000000000000000000000600082015250565b60006152ca601083613800565b91506152d582615294565b602082019050919050565b600060208201905081810360008301526152f9816152bd565b9050919050565b7f41737369676e6d656e74206e65656420746f206265206669727374207375626d60008201527f69747465642c20746f2062652072656d6f766564210000000000000000000000602082015250565b600061535c603583613800565b915061536782615300565b604082019050919050565b6000602082019050818103600083015261538b8161534f565b9050919050565b60006040820190506153a76000830185613d8e565b81810360208301526153b9818461383b565b9050939250505056fe457865726369736520423a20536f6d65206f66207468652072657175697265642066756e6374696f6e7320617265206e6f7420636f72726563746c7920696d706c656d656e7465642e2056616c69646174696f6e206e6f7420706f737369626c6521457865726369736520443a20536f6d65206f66207468652072657175697265642066756e6374696f6e7320617265206e6f7420636f72726563746c7920696d706c656d656e7465642e2056616c69646174696f6e206e6f7420706f737369626c6521457865726369736520413a20536f6d65206f66207468652072657175697265642066756e6374696f6e7320617265206e6f7420636f72726563746c7920696d706c656d656e7465642e2056616c69646174696f6e206e6f7420706f737369626c6521a2646970667358221220fd3a3a9487cb4f04be8dd8bb2dea7717eef2621dfb3254a55924c10f33764b2f64736f6c6343000812003360806040523480156200001157600080fd5b5060405162001cf938038062001cf98339818101604052810190620000379190620001c6565b62000062816040518060600160405280602d815260200162001ccc602d91396200006960201b60201c565b50620002d7565b816000806101000a81548173ffffffffffffffffffffffffffffffffffffffff021916908373ffffffffffffffffffffffffffffffffffffffff1602179055506000620000bb6200013360201b60201c565b90508073ffffffffffffffffffffffffffffffffffffffff16637fb99b9330846040518363ffffffff1660e01b8152600401620000fa929190620002a3565b600060405180830381600087803b1580156200011557600080fd5b505af11580156200012a573d6000803e3d6000fd5b50505050505050565b60008060009054906101000a900473ffffffffffffffffffffffffffffffffffffffff16905090565b600080fd5b600073ffffffffffffffffffffffffffffffffffffffff82169050919050565b60006200018e8262000161565b9050919050565b620001a08162000181565b8114620001ac57600080fd5b50565b600081519050620001c08162000195565b92915050565b600060208284031215620001df57620001de6200015c565b5b6000620001ef84828501620001af565b91505092915050565b620002038162000181565b82525050565b600081519050919050565b600082825260208201905092915050565b60005b838110156200024557808201518184015260208101905062000228565b60008484015250505050565b6000601f19601f8301169050919050565b60006200026f8262000209565b6200027b818562000214565b93506200028d81856020860162000225565b620002988162000251565b840191505092915050565b6000604082019050620002ba6000830185620001f8565b8181036020830152620002ce818462000262565b90509392505050565b6119e580620002e76000396000f3fe60806040526004361061007f5760003560e01c8063c10753291161004e578063c10753291461016d578063cf9d4afa14610189578063cfacdce8146101b2578063fae45fbe146101d157610086565b80632b5183011461008b578063516cbbe2146100c85780635827a065146100f3578063bed34bba1461013057610086565b3661008657005b600080fd5b34801561009757600080fd5b506100b260048036038101906100ad9190610c7e565b6101fa565b6040516100bf9190610da4565b60405180910390f35b3480156100d457600080fd5b506100dd610229565b6040516100ea9190610e45565b60405180910390f35b3480156100ff57600080fd5b5061011a60048036038101906101159190610e60565b610252565b6040516101279190610da4565b60405180910390f35b34801561013c57600080fd5b5061015760048036038101906101529190610f37565b610284565b6040516101649190610fca565b60405180910390f35b61018760048036038101906101829190611059565b6102dd565b005b34801561019557600080fd5b506101b060048036038101906101ab91906110d7565b61062c565b005b6101ba6106b1565b6040516101c8929190611104565b60405180910390f35b3480156101dd57600080fd5b506101f860048036038101906101f39190611134565b610a66565b005b606083838360405160200161021193929190611264565b60405160208183030381529060405290509392505050565b60008060009054906101000a900473ffffffffffffffffffffffffffffffffffffffff16905090565b60608484848460405160200161026b9493929190611343565b6040516020818303038152906040529050949350505050565b60008160405160200161029791906113a2565b60405160208183030381529060405280519060200120836040516020016102be91906113a2565b6040516020818303038152906040528051906020012014905092915050565b6102e5610229565b73ffffffffffffffffffffffffffffffffffffffff166324d7806c336040518263ffffffff1660e01b815260040161031d91906113c8565b602060405180830381865afa15801561033a573d6000803e3d6000fd5b505050506040513d601f19601f8201168201806040525081019061035e919061140f565b61039d576040517f08c379a0000000000000000000000000000000000000000000000000000000008152600401610394906114ae565b60405180910390fd5b600073ffffffffffffffffffffffffffffffffffffffff168273ffffffffffffffffffffffffffffffffffffffff160361040c576040517f08c379a00000000000000000000000000000000000000000000000000000000081526004016104039061151a565b60405180910390fd5b3373ffffffffffffffffffffffffffffffffffffffff168273ffffffffffffffffffffffffffffffffffffffff16148061047157503273ffffffffffffffffffffffffffffffffffffffff168273ffffffffffffffffffffffffffffffffffffffff16145b806104f9575061047f610229565b73ffffffffffffffffffffffffffffffffffffffff166324d7806c836040518263ffffffff1660e01b81526004016104b7919061155b565b602060405180830381865afa1580156104d4573d6000803e3d6000fd5b505050506040513d601f19601f820116820180604052508101906104f8919061140f565b5b610538576040517f08c379a000000000000000000000000000000000000000000000000000000000815260040161052f906115e8565b60405180910390fd5b4781101561057b576040517f08c379a000000000000000000000000000000000000000000000000000000000815260040161057290611654565b60405180910390fd5b60008273ffffffffffffffffffffffffffffffffffffffff16826040516105a1906116a5565b60006040518083038185875af1925050503d80600081146105de576040519150601f19603f3d011682016040523d82523d6000602084013e6105e3565b606091505b5050905080610627576040517f08c379a000000000000000000000000000000000000000000000000000000000815260040161061e90611706565b60405180910390fd5b505050565b80600160006101000a81548173ffffffffffffffffffffffffffffffffffffffff021916908373ffffffffffffffffffffffffffffffffffffffff16021790555030600260006101000a81548173ffffffffffffffffffffffffffffffffffffffff021916908373ffffffffffffffffffffffffffffffffffffffff16021790555050565b6060600080600090506000600160009054906101000a900473ffffffffffffffffffffffffffffffffffffffff1673ffffffffffffffffffffffffffffffffffffffff166310fe9ae86040518163ffffffff1660e01b8152600401602060405180830381865afa92505050801561074657506040513d601f19601f82011682018060405250810190610743919061173b565b60015b6107715760006040518060600160405280603c8152602001611974603c913990935093505050610a62565b80915050600073ffffffffffffffffffffffffffffffffffffffff168173ffffffffffffffffffffffffffffffffffffffff16036107d05760006040518060600160405280603581526020016118ef6035913990935093505050610a62565b60008173ffffffffffffffffffffffffffffffffffffffff166370a08231600260009054906101000a900473ffffffffffffffffffffffffffffffffffffffff166040518263ffffffff1660e01b815260040161082d91906113c8565b602060405180830381865afa15801561084a573d6000803e3d6000fd5b505050506040513d601f19601f8201168201806040525081019061086e919061177d565b905060006509184e72a00090508273ffffffffffffffffffffffffffffffffffffffff166340c10f19600260009054906101000a900473ffffffffffffffffffffffffffffffffffffffff16836040518363ffffffff1660e01b81526004016108d89291906117b9565b600060405180830381600087803b1580156108f257600080fd5b505af1925050508015610903575060015b6109305760006040518060600160405280603181526020016118be60319139909550955050505050610a62565b60008373ffffffffffffffffffffffffffffffffffffffff166370a08231600260009054906101000a900473ffffffffffffffffffffffffffffffffffffffff166040518263ffffffff1660e01b815260040161098d91906113c8565b602060405180830381865afa1580156109aa573d6000803e3d6000fd5b505050506040513d601f19601f820116820180604052508101906109ce919061177d565b90508183826109dd9190611811565b036109f55784806109ed90611845565b955050610a1f565b60006040518060800160405280605081526020016119246050913990965096505050505050610a62565b5060016040518060400160405280601d81526020017f457865726369736520413a20416c6c20746573747320706173736564210000008152509095509550505050505b9091565b816000806101000a81548173ffffffffffffffffffffffffffffffffffffffff021916908373ffffffffffffffffffffffffffffffffffffffff1602179055506000610ab0610229565b90508073ffffffffffffffffffffffffffffffffffffffff16637fb99b9330846040518363ffffffff1660e01b8152600401610aed92919061188d565b600060405180830381600087803b158015610b0757600080fd5b505af1158015610b1b573d6000803e3d6000fd5b50505050505050565b6000604051905090565b600080fd5b600080fd5b600080fd5b600080fd5b6000601f19601f8301169050919050565b7f4e487b7100000000000000000000000000000000000000000000000000000000600052604160045260246000fd5b610b8b82610b42565b810181811067ffffffffffffffff82111715610baa57610ba9610b53565b5b80604052505050565b6000610bbd610b24565b9050610bc98282610b82565b919050565b600067ffffffffffffffff821115610be957610be8610b53565b5b610bf282610b42565b9050602081019050919050565b82818337600083830152505050565b6000610c21610c1c84610bce565b610bb3565b905082815260208101848484011115610c3d57610c3c610b3d565b5b610c48848285610bff565b509392505050565b600082601f830112610c6557610c64610b38565b5b8135610c75848260208601610c0e565b91505092915050565b600080600060608486031215610c9757610c96610b2e565b5b600084013567ffffffffffffffff811115610cb557610cb4610b33565b5b610cc186828701610c50565b935050602084013567ffffffffffffffff811115610ce257610ce1610b33565b5b610cee86828701610c50565b925050604084013567ffffffffffffffff811115610d0f57610d0e610b33565b5b610d1b86828701610c50565b9150509250925092565b600081519050919050565b600082825260208201905092915050565b60005b83811015610d5f578082015181840152602081019050610d44565b60008484015250505050565b6000610d7682610d25565b610d808185610d30565b9350610d90818560208601610d41565b610d9981610b42565b840191505092915050565b60006020820190508181036000830152610dbe8184610d6b565b905092915050565b600073ffffffffffffffffffffffffffffffffffffffff82169050919050565b6000819050919050565b6000610e0b610e06610e0184610dc6565b610de6565b610dc6565b9050919050565b6000610e1d82610df0565b9050919050565b6000610e2f82610e12565b9050919050565b610e3f81610e24565b82525050565b6000602082019050610e5a6000830184610e36565b92915050565b60008060008060808587031215610e7a57610e79610b2e565b5b600085013567ffffffffffffffff811115610e9857610e97610b33565b5b610ea487828801610c50565b945050602085013567ffffffffffffffff811115610ec557610ec4610b33565b5b610ed187828801610c50565b935050604085013567ffffffffffffffff811115610ef257610ef1610b33565b5b610efe87828801610c50565b925050606085013567ffffffffffffffff811115610f1f57610f1e610b33565b5b610f2b87828801610c50565b91505092959194509250565b60008060408385031215610f4e57610f4d610b2e565b5b600083013567ffffffffffffffff811115610f6c57610f6b610b33565b5b610f7885828601610c50565b925050602083013567ffffffffffffffff811115610f9957610f98610b33565b5b610fa585828601610c50565b9150509250929050565b60008115159050919050565b610fc481610faf565b82525050565b6000602082019050610fdf6000830184610fbb565b92915050565b6000610ff082610dc6565b9050919050565b61100081610fe5565b811461100b57600080fd5b50565b60008135905061101d81610ff7565b92915050565b6000819050919050565b61103681611023565b811461104157600080fd5b50565b6000813590506110538161102d565b92915050565b600080604083850312156110705761106f610b2e565b5b600061107e8582860161100e565b925050602061108f85828601611044565b9150509250929050565b60006110a482610dc6565b9050919050565b6110b481611099565b81146110bf57600080fd5b50565b6000813590506110d1816110ab565b92915050565b6000602082840312156110ed576110ec610b2e565b5b60006110fb848285016110c2565b91505092915050565b6000604082019050818103600083015261111e8185610d6b565b905061112d6020830184610fbb565b9392505050565b6000806040838503121561114b5761114a610b2e565b5b6000611159858286016110c2565b925050602083013567ffffffffffffffff81111561117a57611179610b33565b5b61118685828601610c50565b9150509250929050565b600081905092915050565b60006111a682610d25565b6111b08185611190565b93506111c0818560208601610d41565b80840191505092915050565b7f3a20000000000000000000000000000000000000000000000000000000000000600082015250565b6000611202600283611190565b915061120d826111cc565b600282019050919050565b7f203e200000000000000000000000000000000000000000000000000000000000600082015250565b600061124e600383611190565b915061125982611218565b600382019050919050565b6000611270828661119b565b915061127b826111f5565b9150611287828561119b565b915061129282611241565b915061129e828461119b565b9150819050949350505050565b7f2045787065637465643a20000000000000000000000000000000000000000000600082015250565b60006112e1600b83611190565b91506112ec826112ab565b600b82019050919050565b7f2041637475616c3a200000000000000000000000000000000000000000000000600082015250565b600061132d600983611190565b9150611338826112f7565b600982019050919050565b600061134f828761119b565b915061135a826111f5565b9150611366828661119b565b9150611371826112d4565b915061137d828561119b565b915061138882611320565b9150611394828461119b565b915081905095945050505050565b60006113ae828461119b565b915081905092915050565b6113c281611099565b82525050565b60006020820190506113dd60008301846113b9565b92915050565b6113ec81610faf565b81146113f757600080fd5b50565b600081519050611409816113e3565b92915050565b60006020828403121561142557611424610b2e565b5b6000611433848285016113fa565b91505092915050565b7f4f6e6c7920636f6e74726163742061646d696e2063616e20776974686472617760008201527f2066756e64730000000000000000000000000000000000000000000000000000602082015250565b6000611498602683610d30565b91506114a38261143c565b604082019050919050565b600060208201905081810360008301526114c78161148b565b9050919050565b7f496e76616c696420616464726573730000000000000000000000000000000000600082015250565b6000611504600f83610d30565b915061150f826114ce565b602082019050919050565b60006020820190508181036000830152611533816114f7565b9050919050565b600061154582610e12565b9050919050565b6115558161153a565b82525050565b6000602082019050611570600083018461154c565b92915050565b7f46756e64732063616e206f6e6c792062652077697468647261776e20746f206160008201527f646d696e2c206d73672e73656e646572206f722074782e6f726967696e000000602082015250565b60006115d2603d83610d30565b91506115dd82611576565b604082019050919050565b60006020820190508181036000830152611601816115c5565b9050919050565b7f496e73756666696369656e742066756e64730000000000000000000000000000600082015250565b600061163e601283610d30565b915061164982611608565b602082019050919050565b6000602082019050818103600083015261166d81611631565b9050919050565b600081905092915050565b50565b600061168f600083611674565b915061169a8261167f565b600082019050919050565b60006116b082611682565b9150819050919050565b7f5472616e73666572206661696c65642e00000000000000000000000000000000600082015250565b60006116f0601083610d30565b91506116fb826116ba565b602082019050919050565b6000602082019050818103600083015261171f816116e3565b9050919050565b600081519050611735816110ab565b92915050565b60006020828403121561175157611750610b2e565b5b600061175f84828501611726565b91505092915050565b6000815190506117778161102d565b92915050565b60006020828403121561179357611792610b2e565b5b60006117a184828501611768565b91505092915050565b6117b381611023565b82525050565b60006040820190506117ce60008301856113b9565b6117db60208301846117aa565b9392505050565b7f4e487b7100000000000000000000000000000000000000000000000000000000600052601160045260246000fd5b600061181c82611023565b915061182783611023565b925082820390508181111561183f5761183e6117e2565b5b92915050565b600061185082611023565b91507fffffffffffffffffffffffffffffffffffffffffffffffffffffffffffffffff8203611882576118816117e2565b5b600182019050919050565b60006040820190506118a260008301856113b9565b81810360208301526118b48184610d6b565b9050939250505056fe4572726f72202845786572636973652041293a204572726f72207769746820746865206d696e742066756e6374696f6e214572726f72202845786572636973652041293a2054686520746f6b656e2061646472657373206973206e6f7420636f7272656374214572726f72202845786572636973652041293a2054686520746f6b656e2062616c616e636520666f72207468652076616c696461746f7220636f6e7472616374206973206e6f7420636f7272656374214572726f72202845786572636973652041293a204572726f7220776974682074686520676574546f6b656e416464726573732066756e6374696f6e21a2646970667358221220d7713e9ed2dbba654682a9dcf27d419428061e9e4903221d82a5d21e607820c264736f6c63430008120033535332332041737369676e6d656e7420342056616c696461746f7220436f6e7472616374202d205461736b204160806040523480156200001157600080fd5b506040516200512c3803806200512c8339818101604052810190620000379190620001c6565b62000062816040518060600160405280602d8152602001620050ff602d91396200006960201b60201c565b50620002d7565b816000806101000a81548173ffffffffffffffffffffffffffffffffffffffff021916908373ffffffffffffffffffffffffffffffffffffffff1602179055506000620000bb6200013360201b60201c565b90508073ffffffffffffffffffffffffffffffffffffffff16637fb99b9330846040518363ffffffff1660e01b8152600401620000fa929190620002a3565b600060405180830381600087803b1580156200011557600080fd5b505af11580156200012a573d6000803e3d6000fd5b50505050505050565b60008060009054906101000a900473ffffffffffffffffffffffffffffffffffffffff16905090565b600080fd5b600073ffffffffffffffffffffffffffffffffffffffff82169050919050565b60006200018e8262000161565b9050919050565b620001a08162000181565b8114620001ac57600080fd5b50565b600081519050620001c08162000195565b92915050565b600060208284031215620001df57620001de6200015c565b5b6000620001ef84828501620001af565b91505092915050565b620002038162000181565b82525050565b600081519050919050565b600082825260208201905092915050565b60005b838110156200024557808201518184015260208101905062000228565b60008484015250505050565b6000601f19601f8301169050919050565b60006200026f8262000209565b6200027b818562000214565b93506200028d81856020860162000225565b620002988162000251565b840191505092915050565b6000604082019050620002ba6000830185620001f8565b8181036020830152620002ce818462000262565b90509392505050565b614e1880620002e76000396000f3fe6080604052600436106100ec5760003560e01c80639207c6c51161008a578063c9a396e911610059578063c9a396e91461030a578063cf9d4afa14610347578063dae1866b14610370578063fae45fbe146103a1576100f3565b80639207c6c51461024f578063b7cb1c2914610280578063bed34bba146102b1578063c1075329146102ee576100f3565b8063516cbbe2116100c6578063516cbbe2146101855780635827a065146101b05780635df1d7c6146101ed57806385a243a61461021e576100f3565b80630eece02b146100f85780631ccb0c12146101295780632b51830114610148576100f3565b366100f357005b600080fd5b610112600480360381019061010d9190613195565b6103ca565b60405161012092919061326d565b60405180910390f35b610131610c18565b60405161013f92919061326d565b60405180910390f35b34801561015457600080fd5b5061016f600480360381019061016a91906133d2565b610e78565b60405161017c9190613479565b60405180910390f35b34801561019157600080fd5b5061019a610ea7565b6040516101a791906134fa565b60405180910390f35b3480156101bc57600080fd5b506101d760048036038101906101d29190613515565b610ed0565b6040516101e49190613479565b60405180910390f35b61020760048036038101906102029190613195565b610f02565b60405161021592919061326d565b60405180910390f35b61023860048036038101906102339190613195565b61154b565b60405161024692919061326d565b60405180910390f35b61026960048036038101906102649190613195565b6116fc565b60405161027792919061326d565b60405180910390f35b61029a60048036038101906102959190613195565b611adc565b6040516102a892919061326d565b60405180910390f35b3480156102bd57600080fd5b506102d860048036038101906102d391906135ec565b6126ed565b6040516102e59190613664565b60405180910390f35b610308600480360381019061030391906136f3565b612746565b005b34801561031657600080fd5b50610331600480360381019061032c9190613195565b612a95565b60405161033e9190613742565b60405180910390f35b34801561035357600080fd5b5061036e60048036038101906103699190613195565b612b3a565b005b61038a60048036038101906103859190613195565b612c00565b60405161039892919061326d565b60405180910390f35b3480156103ad57600080fd5b506103c860048036038101906103c3919061375d565b612dab565b005b606060008273ffffffffffffffffffffffffffffffffffffffff166340c10f19600260009054906101000a900473ffffffffffffffffffffffffffffffffffffffff1660646040518363ffffffff1660e01b815260040161042c929190613803565b600060405180830381600087803b15801561044657600080fd5b505af115801561045a573d6000803e3d6000fd5b505050508273ffffffffffffffffffffffffffffffffffffffff1663095ea7b3600360009054906101000a900473ffffffffffffffffffffffffffffffffffffffff1660646040518363ffffffff1660e01b81526004016104bc929190613803565b6020604051808303816000875af11580156104db573d6000803e3d6000fd5b505050506040513d601f19601f820116820180604052508101906104ff9190613858565b50600160009054906101000a900473ffffffffffffffffffffffffffffffffffffffff1673ffffffffffffffffffffffffffffffffffffffff166351c6590a6064806040518363ffffffff1660e01b815260040161055d9190613885565b60206040518083038185885af115801561057b573d6000803e3d6000fd5b50505050506040513d601f19601f820116820180604052508101906105a091906138b5565b506000600190506000600160009054906101000a900473ffffffffffffffffffffffffffffffffffffffff1673ffffffffffffffffffffffffffffffffffffffff166370a08231600260009054906101000a900473ffffffffffffffffffffffffffffffffffffffff166040518263ffffffff1660e01b815260040161062691906138e2565b602060405180830381865afa158015610643573d6000803e3d6000fd5b505050506040513d601f19601f8201168201806040525081019061066791906138b5565b90506000600160009054906101000a900473ffffffffffffffffffffffffffffffffffffffff1673ffffffffffffffffffffffffffffffffffffffff166318160ddd6040518163ffffffff1660e01b8152600401602060405180830381865afa1580156106d8573d6000803e3d6000fd5b505050506040513d601f19601f820116820180604052508101906106fc91906138b5565b90506000810361072e5760006040518060800160405280605581526020016149f8605591399094509450505050610c13565b60008184600360009054906101000a900473ffffffffffffffffffffffffffffffffffffffff1673ffffffffffffffffffffffffffffffffffffffff1631610776919061392c565b610780919061399d565b90506000828561078f8a612a95565b610799919061392c565b6107a3919061399d565b90506000600260009054906101000a900473ffffffffffffffffffffffffffffffffffffffff1673ffffffffffffffffffffffffffffffffffffffff1631905060008973ffffffffffffffffffffffffffffffffffffffff166370a08231600260009054906101000a900473ffffffffffffffffffffffffffffffffffffffff166040518263ffffffff1660e01b815260040161084091906138e2565b602060405180830381865afa15801561085d573d6000803e3d6000fd5b505050506040513d601f19601f8201168201806040525081019061088191906138b5565b9050600160009054906101000a900473ffffffffffffffffffffffffffffffffffffffff1673ffffffffffffffffffffffffffffffffffffffff16639c8f9f23886040518263ffffffff1660e01b81526004016108de9190613742565b60408051808303816000875af192505050801561091957506040513d601f19601f8201168201806040525081019061091691906139ce565b60015b61098357610925613a1b565b806308c379a0036109775750610939613a3d565b806109445750610979565b806040516020016109559190613ba1565b6040516020818303038152906040526000995099505050505050505050610c13565b505b3d6000803e3d6000fd5b50506000600260009054906101000a900473ffffffffffffffffffffffffffffffffffffffff1673ffffffffffffffffffffffffffffffffffffffff1631905060008b73ffffffffffffffffffffffffffffffffffffffff166370a08231600260009054906101000a900473ffffffffffffffffffffffffffffffffffffffff166040518263ffffffff1660e01b8152600401610a2091906138e2565b602060405180830381865afa158015610a3d573d6000803e3d6000fd5b505050506040513d601f19601f82011682018060405250810190610a6191906138b5565b90506000600160009054906101000a900473ffffffffffffffffffffffffffffffffffffffff1673ffffffffffffffffffffffffffffffffffffffff166370a08231600260009054906101000a900473ffffffffffffffffffffffffffffffffffffffff166040518263ffffffff1660e01b8152600401610ae291906138e2565b602060405180830381865afa158015610aff573d6000803e3d6000fd5b505050506040513d601f19601f82011682018060405250810190610b2391906138b5565b9050808a8a610b329190613bc3565b14610b665760006040518060800160405280605a8152602001614a4d605a9139909b509b5050505050505050505050610c13565b828786610b739190613bf7565b14610ba7576000604051806080016040528060458152602001614c4960459139909b509b5050505050505050505050610c13565b818685610bb49190613bf7565b14610be857600060405180608001604052806047815260200161473f60479139909b509b5050505050505050505050610c13565b5050506001604051806060016040528060258152602001614938602591399098509850505050505050505b915091565b606060008060009050600160009054906101000a900473ffffffffffffffffffffffffffffffffffffffff1673ffffffffffffffffffffffffffffffffffffffff166310fe9ae86040518163ffffffff1660e01b8152600401602060405180830381865afa925050508015610cab57506040513d601f19601f82011682018060405250810190610ca89190613c40565b60015b610cd55760006040518060600160405280603e8152602001614d64603e9139909250925050610e74565b80915050600073ffffffffffffffffffffffffffffffffffffffff168173ffffffffffffffffffffffffffffffffffffffff1603610d3357600060405180606001604052806034815260200161495d60349139909250925050610e74565b600080610d3f83611adc565b9150915080610d575781600094509450505050610e74565b600080610d63856103ca565b9150915080610d7d57816000965096505050505050610e74565b600080610d898761154b565b9150915080610da5578160009850985050505050505050610e74565b600080610db189612c00565b9150915080610dcf578160009a509a50505050505050505050610e74565b600080610ddb8b6116fc565b9150915080610dfb578160009c509c505050505050505050505050610e74565b600080610e078d610f02565b9150915080610e29578160009e509e5050505050505050505050505050610e74565b60016040518060400160405280601d81526020017f457865726369736520423a20416c6c2074657374732070617373656421000000815250909e509e50505050505050505050505050505b9091565b6060838383604051602001610e8f93929190613d05565b60405160208183030381529060405290509392505050565b60008060009054906101000a900473ffffffffffffffffffffffffffffffffffffffff16905090565b606084848484604051602001610ee99493929190613de4565b6040516020818303038152906040529050949350505050565b606060008064174876e80090506000610f5d82600360009054906101000a900473ffffffffffffffffffffffffffffffffffffffff1673ffffffffffffffffffffffffffffffffffffffff1631610f5888612a95565b612e69565b905060008103610f8e5760006040518060600160405280603e8152602001614b54603e913990935093505050611546565b600360009054906101000a900473ffffffffffffffffffffffffffffffffffffffff1673ffffffffffffffffffffffffffffffffffffffff16318110610ff5576000604051806080016040528060508152602001614cd06050913990935093505050611546565b8473ffffffffffffffffffffffffffffffffffffffff166370a08231600260009054906101000a900473ffffffffffffffffffffffffffffffffffffffff166040518263ffffffff1660e01b815260040161105091906138e2565b602060405180830381865afa15801561106d573d6000803e3d6000fd5b505050506040513d601f19601f8201168201806040525081019061109191906138b5565b8210611127578473ffffffffffffffffffffffffffffffffffffffff166340c10f19600260009054906101000a900473ffffffffffffffffffffffffffffffffffffffff16846040518363ffffffff1660e01b81526004016110f4929190613e43565b600060405180830381600087803b15801561110e57600080fd5b505af1158015611122573d6000803e3d6000fd5b505050505b60006001826111369190613bc3565b90506000600260009054906101000a900473ffffffffffffffffffffffffffffffffffffffff1673ffffffffffffffffffffffffffffffffffffffff1631905060008773ffffffffffffffffffffffffffffffffffffffff166370a08231600260009054906101000a900473ffffffffffffffffffffffffffffffffffffffff166040518263ffffffff1660e01b81526004016111d391906138e2565b602060405180830381865afa1580156111f0573d6000803e3d6000fd5b505050506040513d601f19601f8201168201806040525081019061121491906138b5565b90508773ffffffffffffffffffffffffffffffffffffffff1663095ea7b3600360009054906101000a900473ffffffffffffffffffffffffffffffffffffffff16876040518363ffffffff1660e01b8152600401611273929190613e43565b6020604051808303816000875af1158015611292573d6000803e3d6000fd5b505050506040513d601f19601f820116820180604052508101906112b69190613858565b50600160009054906101000a900473ffffffffffffffffffffffffffffffffffffffff1673ffffffffffffffffffffffffffffffffffffffff166363ffeafd86856040518363ffffffff1660e01b8152600401611314929190613e6c565b600060405180830381600087803b15801561132e57600080fd5b505af192505050801561133f575060015b6113a75761134b613a1b565b806308c379a00361139b575061135f613a3d565b8061136a575061139d565b8060405160200161137b9190613f2d565b604051602081830303815290604052600097509750505050505050611546565b505b3d6000803e3d6000fd5b6000600260009054906101000a900473ffffffffffffffffffffffffffffffffffffffff1673ffffffffffffffffffffffffffffffffffffffff1631905060008973ffffffffffffffffffffffffffffffffffffffff166370a08231600260009054906101000a900473ffffffffffffffffffffffffffffffffffffffff166040518263ffffffff1660e01b815260040161144291906138e2565b602060405180830381865afa15801561145f573d6000803e3d6000fd5b505050506040513d601f19601f8201168201806040525081019061148391906138b5565b90508087846114929190613bc3565b146114c3576000604051806080016040528060428152602001614c8e60429139909850985050505050505050611546565b8186856114d09190613bf7565b14611501576000604051806060016040528060408152602001614b9260409139909850985050505050505050611546565b505060016040518060400160405280602081526020017f457865726369736520422028746f6b656e546f457468293a2050617373656421815250909650965050505050505b915091565b606060008066038d7ea4c68000905060006115a882600360009054906101000a900473ffffffffffffffffffffffffffffffffffffffff1673ffffffffffffffffffffffffffffffffffffffff16316115a388612a95565b612e69565b9050600160009054906101000a900473ffffffffffffffffffffffffffffffffffffffff1673ffffffffffffffffffffffffffffffffffffffff1663c2507ac1836040518263ffffffff1660e01b81526004016116059190613742565b602060405180830381865afa92505050801561163f57506040513d601f19601f8201168201806040525081019061163c91906138b5565b60015b6116a45761164b613a1b565b806308c379a003611698575061165f613a3d565b8061166a575061169a565b8060405160200161167b9190613fe7565b6040516020818303038152906040526000945094505050506116f7565b505b3d6000803e3d6000fd5b8082146116d35760006040518060800160405280604581526020016146fa6045913990945094505050506116f7565b5060016040518060600160405280602481526020016147d060249139909350935050505b915091565b606060008064174876e80090508373ffffffffffffffffffffffffffffffffffffffff166340c10f19600360009054906101000a900473ffffffffffffffffffffffffffffffffffffffff166103e86040518363ffffffff1660e01b8152600401611768929190614044565b600060405180830381600087803b15801561178257600080fd5b505af1158015611796573d6000803e3d6000fd5b5050505060006117e882600360009054906101000a900473ffffffffffffffffffffffffffffffffffffffff1673ffffffffffffffffffffffffffffffffffffffff16316117e388612a95565b612e69565b9050600081036118195760006040518060800160405280605981526020016148416059913990935093505050611ad7565b6000600a826118289190613bc3565b905060008673ffffffffffffffffffffffffffffffffffffffff166370a08231600260009054906101000a900473ffffffffffffffffffffffffffffffffffffffff166040518263ffffffff1660e01b815260040161188791906138e2565b602060405180830381865afa1580156118a4573d6000803e3d6000fd5b505050506040513d601f19601f820116820180604052508101906118c891906138b5565b9050600160009054906101000a900473ffffffffffffffffffffffffffffffffffffffff1673ffffffffffffffffffffffffffffffffffffffff1663e27a248985846040518363ffffffff1660e01b81526004016119269190613742565b6000604051808303818588803b15801561193f57600080fd5b505af193505050508015611951575060015b6119b85761195d613a1b565b806308c379a0036119ac5750611971613a3d565b8061197c57506119ae565b8060405160200161198d9190614105565b6040516020818303038152906040526000965096505050505050611ad7565b505b3d6000803e3d6000fd5b60008773ffffffffffffffffffffffffffffffffffffffff166370a08231600260009054906101000a900473ffffffffffffffffffffffffffffffffffffffff166040518263ffffffff1660e01b8152600401611a1591906138e2565b602060405180830381865afa158015611a32573d6000803e3d6000fd5b505050506040513d601f19601f82011682018060405250810190611a5691906138b5565b9050808483611a659190613bf7565b14611a945760006040518060800160405280604281526020016149b66042913990965096505050505050611ad7565b5060016040518060400160405280602081526020017f457865726369736520422028657468546f546f6b656e293a20506173736564218152509095509550505050505b915091565b606060008273ffffffffffffffffffffffffffffffffffffffff166340c10f19600260009054906101000a900473ffffffffffffffffffffffffffffffffffffffff1664174876e8006040518363ffffffff1660e01b8152600401611b42929190614162565b600060405180830381600087803b158015611b5c57600080fd5b505af1158015611b70573d6000803e3d6000fd5b505050508273ffffffffffffffffffffffffffffffffffffffff1663095ea7b3600360009054906101000a900473ffffffffffffffffffffffffffffffffffffffff1664174876e8006040518363ffffffff1660e01b8152600401611bd6929190614162565b6020604051808303816000875af1158015611bf5573d6000803e3d6000fd5b505050506040513d601f19601f82011682018060405250810190611c199190613858565b50600160009054906101000a900473ffffffffffffffffffffffffffffffffffffffff1673ffffffffffffffffffffffffffffffffffffffff166351c6590a600064174876e8006040518363ffffffff1660e01b8152600401611c7c919061418b565b60206040518083038185885af193505050508015611cb857506040513d601f19601f82011682018060405250810190611cb591906138b5565b60015b611ce15760006040518060800160405280604a8152602001614786604a913990915091506126e8565b506000600160009054906101000a900473ffffffffffffffffffffffffffffffffffffffff1673ffffffffffffffffffffffffffffffffffffffff166318160ddd6040518163ffffffff1660e01b8152600401602060405180830381865afa158015611d51573d6000803e3d6000fd5b505050506040513d601f19601f82011682018060405250810190611d7591906138b5565b03611d9f576000604051806060016040528060368152602001614b1e6036913990915091506126e8565b6000600360009054906101000a900473ffffffffffffffffffffffffffffffffffffffff1673ffffffffffffffffffffffffffffffffffffffff163103611e055760006040518060800160405280604c81526020016148ec604c913990915091506126e8565b600064174876e800905060008182600360009054906101000a900473ffffffffffffffffffffffffffffffffffffffff1673ffffffffffffffffffffffffffffffffffffffff1631611e579190613bf7565b611e619190613bc3565b90506000611e6e86612a95565b90506000828285611e7f919061392c565b611e89919061399d565b905060008190508773ffffffffffffffffffffffffffffffffffffffff166370a08231600260009054906101000a900473ffffffffffffffffffffffffffffffffffffffff166040518263ffffffff1660e01b8152600401611eeb91906138e2565b602060405180830381865afa158015611f08573d6000803e3d6000fd5b505050506040513d601f19601f82011682018060405250810190611f2c91906138b5565b811115611fc3578773ffffffffffffffffffffffffffffffffffffffff166340c10f19600260009054906101000a900473ffffffffffffffffffffffffffffffffffffffff16836040518363ffffffff1660e01b8152600401611f90929190613e43565b600060405180830381600087803b158015611faa57600080fd5b505af1158015611fbe573d6000803e3d6000fd5b505050505b60008486600160009054906101000a900473ffffffffffffffffffffffffffffffffffffffff1673ffffffffffffffffffffffffffffffffffffffff166318160ddd6040518163ffffffff1660e01b8152600401602060405180830381865afa158015612034573d6000803e3d6000fd5b505050506040513d601f19601f8201168201806040525081019061205891906138b5565b612062919061392c565b61206c919061399d565b9050600081036120a15760006040518060a0016040528060778152602001614bd26077913990975097505050505050506126e8565b8873ffffffffffffffffffffffffffffffffffffffff1663095ea7b3600360009054906101000a900473ffffffffffffffffffffffffffffffffffffffff16846040518363ffffffff1660e01b81526004016120fe929190613e43565b6020604051808303816000875af115801561211d573d6000803e3d6000fd5b505050506040513d601f19601f820116820180604052508101906121419190613858565b5060008973ffffffffffffffffffffffffffffffffffffffff166370a08231600260009054906101000a900473ffffffffffffffffffffffffffffffffffffffff166040518263ffffffff1660e01b815260040161219f91906138e2565b602060405180830381865afa1580156121bc573d6000803e3d6000fd5b505050506040513d601f19601f820116820180604052508101906121e091906138b5565b90506000600160009054906101000a900473ffffffffffffffffffffffffffffffffffffffff1673ffffffffffffffffffffffffffffffffffffffff166370a08231600260009054906101000a900473ffffffffffffffffffffffffffffffffffffffff166040518263ffffffff1660e01b815260040161226191906138e2565b602060405180830381865afa15801561227e573d6000803e3d6000fd5b505050506040513d601f19601f820116820180604052508101906122a291906138b5565b9050600160009054906101000a900473ffffffffffffffffffffffffffffffffffffffff1673ffffffffffffffffffffffffffffffffffffffff166351c6590a89866040518363ffffffff1660e01b81526004016123009190613742565b60206040518083038185885af19350505050801561233c57506040513d601f19601f8201168201806040525081019061233991906138b5565b60015b6123c257612348613a1b565b806308c379a0036123b6575061235c613a3d565b8061236757506123b8565b6123a2604051806060016040528060218152602001614aa7602191396040518060600160405280602581526020016149916025913983610e78565b60009a509a505050505050505050506126e8565b505b3d6000803e3d6000fd5b83811461240f576123d284612f02565b6123db82612f02565b6040516020016123ec929190614264565b60405160208183030381529060405260009a509a505050505050505050506126e8565b60008c73ffffffffffffffffffffffffffffffffffffffff166370a08231600260009054906101000a900473ffffffffffffffffffffffffffffffffffffffff166040518263ffffffff1660e01b815260040161246c91906138e2565b602060405180830381865afa158015612489573d6000803e3d6000fd5b505050506040513d601f19601f820116820180604052508101906124ad91906138b5565b90508086856124bc9190613bc3565b146124f0576000604051806080016040528060568152602001614ac860569139909b509b50505050505050505050506126e8565b6000600160009054906101000a900473ffffffffffffffffffffffffffffffffffffffff1673ffffffffffffffffffffffffffffffffffffffff166370a08231600260009054906101000a900473ffffffffffffffffffffffffffffffffffffffff166040518263ffffffff1660e01b815260040161256f91906138e2565b602060405180830381865afa15801561258c573d6000803e3d6000fd5b505050506040513d601f19601f820116820180604052508101906125b091906138b5565b90508086856125bf9190613bf7565b146125f45760006040518060800160405280604d81526020016147f4604d9139909c509c5050505050505050505050506126e8565b6000600160009054906101000a900473ffffffffffffffffffffffffffffffffffffffff1673ffffffffffffffffffffffffffffffffffffffff166318160ddd6040518163ffffffff1660e01b8152600401602060405180830381865afa158015612663573d6000803e3d6000fd5b505050506040513d601f19601f8201168201806040525081019061268791906138b5565b036126bc57600060405180608001604052806052815260200161489a60529139909c509c5050505050505050505050506126e8565b5050506001604051806060016040528060228152602001614d4260229139909950995050505050505050505b915091565b60008160405160200161270091906142a2565b604051602081830303815290604052805190602001208360405160200161272791906142a2565b6040516020818303038152906040528051906020012014905092915050565b61274e610ea7565b73ffffffffffffffffffffffffffffffffffffffff166324d7806c336040518263ffffffff1660e01b815260040161278691906138e2565b602060405180830381865afa1580156127a3573d6000803e3d6000fd5b505050506040513d601f19601f820116820180604052508101906127c79190613858565b612806576040517f08c379a00000000000000000000000000000000000000000000000000000000081526004016127fd9061432b565b60405180910390fd5b600073ffffffffffffffffffffffffffffffffffffffff168273ffffffffffffffffffffffffffffffffffffffff1603612875576040517f08c379a000000000000000000000000000000000000000000000000000000000815260040161286c90614397565b60405180910390fd5b3373ffffffffffffffffffffffffffffffffffffffff168273ffffffffffffffffffffffffffffffffffffffff1614806128da57503273ffffffffffffffffffffffffffffffffffffffff168273ffffffffffffffffffffffffffffffffffffffff16145b8061296257506128e8610ea7565b73ffffffffffffffffffffffffffffffffffffffff166324d7806c836040518263ffffffff1660e01b815260040161292091906143d8565b602060405180830381865afa15801561293d573d6000803e3d6000fd5b505050506040513d601f19601f820116820180604052508101906129619190613858565b5b6129a1576040517f08c379a000000000000000000000000000000000000000000000000000000000815260040161299890614465565b60405180910390fd5b478110156129e4576040517f08c379a00000000000000000000000000000000000000000000000000000000081526004016129db906144d1565b60405180910390fd5b60008273ffffffffffffffffffffffffffffffffffffffff1682604051612a0a90614522565b60006040518083038185875af1925050503d8060008114612a47576040519150601f19603f3d011682016040523d82523d6000602084013e612a4c565b606091505b5050905080612a90576040517f08c379a0000000000000000000000000000000000000000000000000000000008152600401612a8790614583565b60405180910390fd5b505050565b60008173ffffffffffffffffffffffffffffffffffffffff166370a08231600360009054906101000a900473ffffffffffffffffffffffffffffffffffffffff166040518263ffffffff1660e01b8152600401612af291906138e2565b602060405180830381865afa158015612b0f573d6000803e3d6000fd5b505050506040513d601f19601f82011682018060405250810190612b3391906138b5565b9050919050565b80600160006101000a81548173ffffffffffffffffffffffffffffffffffffffff021916908373ffffffffffffffffffffffffffffffffffffffff16021790555030600260006101000a81548173ffffffffffffffffffffffffffffffffffffffff021916908373ffffffffffffffffffffffffffffffffffffffff16021790555080600360006101000a81548173ffffffffffffffffffffffffffffffffffffffff021916908373ffffffffffffffffffffffffffffffffffffffff16021790555050565b6060600080600190506000612c5782612c1887612a95565b600360009054906101000a900473ffffffffffffffffffffffffffffffffffffffff1673ffffffffffffffffffffffffffffffffffffffff1631612e69565b9050600160009054906101000a900473ffffffffffffffffffffffffffffffffffffffff1673ffffffffffffffffffffffffffffffffffffffff16638fc7a25d836040518263ffffffff1660e01b8152600401612cb49190613742565b602060405180830381865afa925050508015612cee57506040513d601f19601f82011682018060405250810190612ceb91906138b5565b60015b612d5357612cfa613a1b565b806308c379a003612d475750612d0e613a3d565b80612d195750612d49565b80604051602001612d2a919061463b565b604051602081830303815290604052600094509450505050612da6565b505b3d6000803e3d6000fd5b808214612d82576000604051806080016040528060418152602001614da2604191399094509450505050612da6565b506001604051806060016040528060228152602001614d2060229139909350935050505b915091565b816000806101000a81548173ffffffffffffffffffffffffffffffffffffffff021916908373ffffffffffffffffffffffffffffffffffffffff1602179055506000612df5610ea7565b90508073ffffffffffffffffffffffffffffffffffffffff16637fb99b9330846040518363ffffffff1660e01b8152600401612e3292919061465d565b600060405180830381600087803b158015612e4c57600080fd5b505af1158015612e60573d6000803e3d6000fd5b50505050505050565b600080606385612e79919061392c565b905060008382612e89919061392c565b9050600082606487612e9b919061392c565b612ea59190613bf7565b905060008111612eea576040517f08c379a0000000000000000000000000000000000000000000000000000000008152600401612ee1906146d9565b60405180910390fd5b8082612ef6919061399d565b93505050509392505050565b606060006001612f1184612fd0565b01905060008167ffffffffffffffff811115612f3057612f2f6132a7565b5b6040519080825280601f01601f191660200182016040528015612f625781602001600182028036833780820191505090505b509050600082602001820190505b600115612fc5578080600190039150507f3031323334353637383961626364656600000000000000000000000000000000600a86061a8153600a8581612fb957612fb861396e565b5b04945060008503612f70575b819350505050919050565b600080600090507a184f03e93ff9f4daa797ed6e38ed64bf6a1f010000000000000000831061302e577a184f03e93ff9f4daa797ed6e38ed64bf6a1f01000000000000000083816130245761302361396e565b5b0492506040810190505b6d04ee2d6d415b85acef8100000000831061306b576d04ee2d6d415b85acef810000000083816130615761306061396e565b5b0492506020810190505b662386f26fc10000831061309a57662386f26fc1000083816130905761308f61396e565b5b0492506010810190505b6305f5e10083106130c3576305f5e10083816130b9576130b861396e565b5b0492506008810190505b61271083106130e85761271083816130de576130dd61396e565b5b0492506004810190505b6064831061310b57606483816131015761310061396e565b5b0492506002810190505b600a831061311a576001810190505b80915050919050565b6000604051905090565b600080fd5b600080fd5b600073ffffffffffffffffffffffffffffffffffffffff82169050919050565b600061316282613137565b9050919050565b61317281613157565b811461317d57600080fd5b50565b60008135905061318f81613169565b92915050565b6000602082840312156131ab576131aa61312d565b5b60006131b984828501613180565b91505092915050565b600081519050919050565b600082825260208201905092915050565b60005b838110156131fc5780820151818401526020810190506131e1565b60008484015250505050565b6000601f19601f8301169050919050565b6000613224826131c2565b61322e81856131cd565b935061323e8185602086016131de565b61324781613208565b840191505092915050565b60008115159050919050565b61326781613252565b82525050565b600060408201905081810360008301526132878185613219565b9050613296602083018461325e565b9392505050565b600080fd5b600080fd5b7f4e487b7100000000000000000000000000000000000000000000000000000000600052604160045260246000fd5b6132df82613208565b810181811067ffffffffffffffff821117156132fe576132fd6132a7565b5b80604052505050565b6000613311613123565b905061331d82826132d6565b919050565b600067ffffffffffffffff82111561333d5761333c6132a7565b5b61334682613208565b9050602081019050919050565b82818337600083830152505050565b600061337561337084613322565b613307565b905082815260208101848484011115613391576133906132a2565b5b61339c848285613353565b509392505050565b600082601f8301126133b9576133b861329d565b5b81356133c9848260208601613362565b91505092915050565b6000806000606084860312156133eb576133ea61312d565b5b600084013567ffffffffffffffff81111561340957613408613132565b5b613415868287016133a4565b935050602084013567ffffffffffffffff81111561343657613435613132565b5b613442868287016133a4565b925050604084013567ffffffffffffffff81111561346357613462613132565b5b61346f868287016133a4565b9150509250925092565b600060208201905081810360008301526134938184613219565b905092915050565b6000819050919050565b60006134c06134bb6134b684613137565b61349b565b613137565b9050919050565b60006134d2826134a5565b9050919050565b60006134e4826134c7565b9050919050565b6134f4816134d9565b82525050565b600060208201905061350f60008301846134eb565b92915050565b6000806000806080858703121561352f5761352e61312d565b5b600085013567ffffffffffffffff81111561354d5761354c613132565b5b613559878288016133a4565b945050602085013567ffffffffffffffff81111561357a57613579613132565b5b613586878288016133a4565b935050604085013567ffffffffffffffff8111156135a7576135a6613132565b5b6135b3878288016133a4565b925050606085013567ffffffffffffffff8111156135d4576135d3613132565b5b6135e0878288016133a4565b91505092959194509250565b600080604083850312156136035761360261312d565b5b600083013567ffffffffffffffff81111561362157613620613132565b5b61362d858286016133a4565b925050602083013567ffffffffffffffff81111561364e5761364d613132565b5b61365a858286016133a4565b9150509250929050565b6000602082019050613679600083018461325e565b92915050565b600061368a82613137565b9050919050565b61369a8161367f565b81146136a557600080fd5b50565b6000813590506136b781613691565b92915050565b6000819050919050565b6136d0816136bd565b81146136db57600080fd5b50565b6000813590506136ed816136c7565b92915050565b6000806040838503121561370a5761370961312d565b5b6000613718858286016136a8565b9250506020613729858286016136de565b9150509250929050565b61373c816136bd565b82525050565b60006020820190506137576000830184613733565b92915050565b600080604083850312156137745761377361312d565b5b600061378285828601613180565b925050602083013567ffffffffffffffff8111156137a3576137a2613132565b5b6137af858286016133a4565b9150509250929050565b6137c281613157565b82525050565b6000819050919050565b60006137ed6137e86137e3846137c8565b61349b565b6136bd565b9050919050565b6137fd816137d2565b82525050565b600060408201905061381860008301856137b9565b61382560208301846137f4565b9392505050565b61383581613252565b811461384057600080fd5b50565b6000815190506138528161382c565b92915050565b60006020828403121561386e5761386d61312d565b5b600061387c84828501613843565b91505092915050565b600060208201905061389a60008301846137f4565b92915050565b6000815190506138af816136c7565b92915050565b6000602082840312156138cb576138ca61312d565b5b60006138d9848285016138a0565b91505092915050565b60006020820190506138f760008301846137b9565b92915050565b7f4e487b7100000000000000000000000000000000000000000000000000000000600052601160045260246000fd5b6000613937826136bd565b9150613942836136bd565b9250828202613950816136bd565b91508282048414831517613967576139666138fd565b5b5092915050565b7f4e487b7100000000000000000000000000000000000000000000000000000000600052601260045260246000fd5b60006139a8826136bd565b91506139b3836136bd565b9250826139c3576139c261396e565b5b828204905092915050565b600080604083850312156139e5576139e461312d565b5b60006139f3858286016138a0565b9250506020613a04858286016138a0565b9150509250929050565b60008160e01c9050919050565b600060033d1115613a3a5760046000803e613a37600051613a0e565b90505b90565b600060443d10613aca57613a4f613123565b60043d036004823e80513d602482011167ffffffffffffffff82111715613a77575050613aca565b808201805167ffffffffffffffff811115613a955750505050613aca565b80602083010160043d038501811115613ab2575050505050613aca565b613ac1826020018501866132d6565b82955050505050505b90565b600081905092915050565b7f4572726f72202845786572636973652042202d2072656d6f76654c697175696460008201527f697479293a204572726f722077697468207468652072656d6f76654c6971756960208201527f646974792066756e6374696f6e21000000000000000000000000000000000000604082015250565b6000613b5a604e83613acd565b9150613b6582613ad8565b604e82019050919050565b6000613b7b826131c2565b613b858185613acd565b9350613b958185602086016131de565b80840191505092915050565b6000613bac82613b4d565b9150613bb88284613b70565b915081905092915050565b6000613bce826136bd565b9150613bd9836136bd565b9250828203905081811115613bf157613bf06138fd565b5b92915050565b6000613c02826136bd565b9150613c0d836136bd565b9250828201905080821115613c2557613c246138fd565b5b92915050565b600081519050613c3a81613169565b92915050565b600060208284031215613c5657613c5561312d565b5b6000613c6484828501613c2b565b91505092915050565b7f3a20000000000000000000000000000000000000000000000000000000000000600082015250565b6000613ca3600283613acd565b9150613cae82613c6d565b600282019050919050565b7f203e200000000000000000000000000000000000000000000000000000000000600082015250565b6000613cef600383613acd565b9150613cfa82613cb9565b600382019050919050565b6000613d118286613b70565b9150613d1c82613c96565b9150613d288285613b70565b9150613d3382613ce2565b9150613d3f8284613b70565b9150819050949350505050565b7f2045787065637465643a20000000000000000000000000000000000000000000600082015250565b6000613d82600b83613acd565b9150613d8d82613d4c565b600b82019050919050565b7f2041637475616c3a200000000000000000000000000000000000000000000000600082015250565b6000613dce600983613acd565b9150613dd982613d98565b600982019050919050565b6000613df08287613b70565b9150613dfb82613c96565b9150613e078286613b70565b9150613e1282613d75565b9150613e1e8285613b70565b9150613e2982613dc1565b9150613e358284613b70565b915081905095945050505050565b6000604082019050613e5860008301856137b9565b613e656020830184613733565b9392505050565b6000604082019050613e816000830185613733565b613e8e6020830184613733565b9392505050565b7f4572726f72202845786572636973652042202d20746f6b656e546f457468293a60008201527f204572726f7220776974682074686520746f6b656e546f4574682066756e637460208201527f696f6e2100000000000000000000000000000000000000000000000000000000604082015250565b6000613f17604483613acd565b9150613f2282613e95565b604482019050919050565b6000613f3882613f0a565b9150613f448284613b70565b915081905092915050565b7f4572726f72202845786572636973652042202d20676574546f6b656e416d6f7560008201527f6e74293a204572726f7220776974682074686520676574546f6b656e416d6f7560208201527f6e742066756e6374696f6e210000000000000000000000000000000000000000604082015250565b6000613fd1604c83613acd565b9150613fdc82613f4f565b604c82019050919050565b6000613ff282613fc4565b9150613ffe8284613b70565b915081905092915050565b6000819050919050565b600061402e61402961402484614009565b61349b565b6136bd565b9050919050565b61403e81614013565b82525050565b600060408201905061405960008301856137b9565b6140666020830184614035565b9392505050565b7f4572726f72202845786572636973652042202d20657468546f546f6b656e293a60008201527f204572726f7220776974682074686520657468546f546f6b656e2066756e637460208201527f696f6e21202d2000000000000000000000000000000000000000000000000000604082015250565b60006140ef604783613acd565b91506140fa8261406d565b604782019050919050565b6000614110826140e2565b915061411c8284613b70565b915081905092915050565b6000819050919050565b600061414c61414761414284614127565b61349b565b6136bd565b9050919050565b61415c81614131565b82525050565b600060408201905061417760008301856137b9565b6141846020830184614153565b9392505050565b60006020820190506141a06000830184614153565b92915050565b7f4572726f72202845786572636973652042202d206164644c697175696469747960008201527f293a205468652063616c63756c61746564206c6971756964697479206973206e60208201527f6f7420636f7272656374212045787065637465643a2000000000000000000000604082015250565b6000614228605683613acd565b9150614233826141a6565b605682019050919050565b7f2041637475616c3a200000000000000000000000000000000000000000000000815250565b600061426f8261421b565b915061427b8285613b70565b91506142868261423e565b6009820191506142968284613b70565b91508190509392505050565b60006142ae8284613b70565b915081905092915050565b7f4f6e6c7920636f6e74726163742061646d696e2063616e20776974686472617760008201527f2066756e64730000000000000000000000000000000000000000000000000000602082015250565b60006143156026836131cd565b9150614320826142b9565b604082019050919050565b6000602082019050818103600083015261434481614308565b9050919050565b7f496e76616c696420616464726573730000000000000000000000000000000000600082015250565b6000614381600f836131cd565b915061438c8261434b565b602082019050919050565b600060208201905081810360008301526143b081614374565b9050919050565b60006143c2826134c7565b9050919050565b6143d2816143b7565b82525050565b60006020820190506143ed60008301846143c9565b92915050565b7f46756e64732063616e206f6e6c792062652077697468647261776e20746f206160008201527f646d696e2c206d73672e73656e646572206f722074782e6f726967696e000000602082015250565b600061444f603d836131cd565b915061445a826143f3565b604082019050919050565b6000602082019050818103600083015261447e81614442565b9050919050565b7f496e73756666696369656e742066756e64730000000000000000000000000000600082015250565b60006144bb6012836131cd565b91506144c682614485565b602082019050919050565b600060208201905081810360008301526144ea816144ae565b9050919050565b600081905092915050565b50565b600061450c6000836144f1565b9150614517826144fc565b600082019050919050565b600061452d826144ff565b9150819050919050565b7f5472616e73666572206661696c65642e00000000000000000000000000000000600082015250565b600061456d6010836131cd565b915061457882614537565b602082019050919050565b6000602082019050818103600083015261459c81614560565b9050919050565b7f4572726f72202845786572636973652042202d20676574457468416d6f756e7460008201527f293a204572726f7220776974682074686520676574457468416d6f756e74206660208201527f756e6374696f6e21000000000000000000000000000000000000000000000000604082015250565b6000614625604883613acd565b9150614630826145a3565b604882019050919050565b600061464682614618565b91506146528284613b70565b915081905092915050565b600060408201905061467260008301856137b9565b81810360208301526146848184613219565b90509392505050565b7f4552525f5a45524f5f44454e4f4d494e41544f52000000000000000000000000600082015250565b60006146c36014836131cd565b91506146ce8261468d565b602082019050919050565b600060208201905081810360008301526146f2816146b6565b905091905056fe4572726f72202845786572636973652042202d20676574546f6b656e416d6f756e74293a2054686520746f6b656e20616d6f756e74206973206e6f7420636f7272656374214572726f72202845786572636973652042202d2072656d6f76654c6971756964697479293a2054686520746f6b656e2062616c616e6365206973206e6f7420636f7272656374214572726f72202845786572636973652042202d206164644c6971756964697479293a204572726f72207769746820746865206164644c697175696469747928292066756e6374696f6e2e457865726369736520422028676574546f6b656e416d6f756e74293a20506173736564214572726f72202845786572636973652042202d206164644c6971756964697479293a205468652065786368616e676520746f6b656e2062616c616e6365206973206e6f7420636f7272656374214572726f72202845786572636973652042202d20657468546f546f6b656e293a2054686520657870656374656420746f6b656e20626f7567687420697320302c2073686f756c64206265206c6172676572207468616e2030214572726f72202845786572636973652042202d206164644c6971756964697479293a2054686520746f74616c20737570706c7920697320302c2073686f756c64206265206c6172676572207468616e2030214572726f72202845786572636973652042202d206164644c6971756964697479293a20746865206574682062616c616e6365206f66207468652065786368616e676520697320656d7074792145786572636973652042202872656d6f76654c6971756964697479293a20506173736564214572726f72202845786572636973652042293a2054686520746f6b656e206164647265737320697320616464726573732830292e4572726f72207769746820746865206164644c69717569646974792066756e6374696f6e214572726f72202845786572636973652042202d20657468546f546f6b656e293a2054686520746f6b656e2062616c616e6365206973206e6f7420636f7272656374214572726f72202845786572636973652042202d2072656d6f76654c6971756964697479293a2054686520746f74616c20737570706c7920697320302c2073686f756c64206265206c6172676572207468616e2030214572726f72202845786572636973652042202d2072656d6f76654c6971756964697479293a204275726e696e67206f66207468652065786368616e676520746f6b656e20646964206e6f7420776f726b2070726f7065726c79214572726f72202845786572636973652042202d206164644c6971756964697479294572726f72202845786572636973652042202d206164644c6971756964697479293a2054686520746f6b656e2062616c616e636520666f72207468652076616c696461746f72206973206e6f7420636f7272656374214572726f72202845786572636973652042202d206164644c6971756964697479293a20546865206c69717569646974792069732030214572726f72202845786572636973652042202d20746f6b656e546f457468293a205468652065787065637465642045544820626f756768742069732030214572726f72202845786572636973652042202d20746f6b656e546f457468293a20546865204554482062616c616e6365206973206e6f7420636f7272656374214572726f72202845786572636973652042202d206164644c6971756964697479293a20546865206578706563746564206c697175696469747920697320302e2041646420736f6d652066756e647320746f207468652065786368616e676520746f20656e737572652074657374696e6720776f726b73214572726f72202845786572636973652042202d2072656d6f76654c6971756964697479293a20546865204554482062616c616e6365206973206e6f7420636f7272656374214572726f72202845786572636973652042202d20746f6b656e546f457468293a2054686520746f6b656e2062616c616e6365206973206e6f7420636f7272656374214572726f72202845786572636973652042202d20746f6b656e546f457468293a205468652076616c696461746f72206164647265737320646f6573206e6f74206861766520656e6f7567682045544821457865726369736520422028676574457468416d6f756e74293a20506173736564214578657263697365204220286164644c6971756964697479293a20506173736564214572726f72202845786572636973652042293a204572726f7220776974682074686520676574546f6b656e4164647265737328292066756e6374696f6e2e4572726f72202845786572636973652042202d20676574457468416d6f756e74293a205468652045544820616d6f756e74206973206e6f7420636f727265637421a26469706673582212205af72a3efeea62c481de70933526502c719f5ac13a2f4f9a891cb9caee87ca4364736f6c63430008120033535332332041737369676e6d656e7420342056616c696461746f7220436f6e7472616374202d205461736b204260806040523480156200001157600080fd5b5060405162002880380380620028808339818101604052810190620000379190620001c6565b62000062816040518060600160405280602d815260200162002853602d91396200006960201b60201c565b50620002d7565b816000806101000a81548173ffffffffffffffffffffffffffffffffffffffff021916908373ffffffffffffffffffffffffffffffffffffffff1602179055506000620000bb6200013360201b60201c565b90508073ffffffffffffffffffffffffffffffffffffffff16637fb99b9330846040518363ffffffff1660e01b8152600401620000fa929190620002a3565b600060405180830381600087803b1580156200011557600080fd5b505af11580156200012a573d6000803e3d6000fd5b50505050505050565b60008060009054906101000a900473ffffffffffffffffffffffffffffffffffffffff16905090565b600080fd5b600073ffffffffffffffffffffffffffffffffffffffff82169050919050565b60006200018e8262000161565b9050919050565b620001a08162000181565b8114620001ac57600080fd5b50565b600081519050620001c08162000195565b92915050565b600060208284031215620001df57620001de6200015c565b5b6000620001ef84828501620001af565b91505092915050565b620002038162000181565b82525050565b600081519050919050565b600082825260208201905092915050565b60005b838110156200024557808201518184015260208101905062000228565b60008484015250505050565b6000601f19601f8301169050919050565b60006200026f8262000209565b6200027b818562000214565b93506200028d81856020860162000225565b620002988162000251565b840191505092915050565b6000604082019050620002ba6000830185620001f8565b8181036020830152620002ce818462000262565b90509392505050565b61256c80620002e76000396000f3fe60806040526004361061008a5760003560e01c80639b1bb323116100595780639b1bb3231461015a578063bed34bba14610183578063c1075329146101c0578063c9a396e9146101dc578063fae45fbe1461021957610091565b80632b51830114610096578063516cbbe2146100d35780635827a065146100fe5780636fceee2b1461013b57610091565b3661009157005b600080fd5b3480156100a257600080fd5b506100bd60048036038101906100b89190611468565b610242565b6040516100ca919061158e565b60405180910390f35b3480156100df57600080fd5b506100e8610271565b6040516100f5919061162f565b60405180910390f35b34801561010a57600080fd5b506101256004803603810190610120919061164a565b61029a565b604051610132919061158e565b60405180910390f35b6101436102cc565b60405161015192919061173c565b60405180910390f35b34801561016657600080fd5b50610181600480360381019061017c91906117aa565b610c61565b005b34801561018f57600080fd5b506101aa60048036038101906101a591906117fd565b610d6a565b6040516101b79190611875565b60405180910390f35b6101da60048036038101906101d59190611904565b610dc3565b005b3480156101e857600080fd5b5061020360048036038101906101fe9190611944565b611112565b6040516102109190611980565b60405180910390f35b34801561022557600080fd5b50610240600480360381019061023b919061199b565b6111b7565b005b606083838360405160200161025993929190611acb565b60405160208183030381529060405290509392505050565b60008060009054906101000a900473ffffffffffffffffffffffffffffffffffffffff16905090565b6060848484846040516020016102b39493929190611baa565b6040516020818303038152906040529050949350505050565b60606000803090506000600260009054906101000a900473ffffffffffffffffffffffffffffffffffffffff1673ffffffffffffffffffffffffffffffffffffffff166306f2bf62600360009054906101000a900473ffffffffffffffffffffffffffffffffffffffff166040518263ffffffff1660e01b81526004016103539190611c18565b602060405180830381865afa158015610370573d6000803e3d6000fd5b505050506040513d601f19601f820116820180604052508101906103949190611c48565b90506000600160009054906101000a900473ffffffffffffffffffffffffffffffffffffffff1673ffffffffffffffffffffffffffffffffffffffff166310fe9ae86040518163ffffffff1660e01b8152600401602060405180830381865afa158015610405573d6000803e3d6000fd5b505050506040513d601f19601f820116820180604052508101906104299190611c48565b90506000600360009054906101000a900473ffffffffffffffffffffffffffffffffffffffff169050600083905060008373ffffffffffffffffffffffffffffffffffffffff166370a08231876040518263ffffffff1660e01b81526004016104929190611c18565b602060405180830381865afa1580156104af573d6000803e3d6000fd5b505050506040513d601f19601f820116820180604052508101906104d39190611c8a565b905060008373ffffffffffffffffffffffffffffffffffffffff166370a08231886040518263ffffffff1660e01b81526004016105109190611c18565b602060405180830381865afa15801561052d573d6000803e3d6000fd5b505050506040513d601f19601f820116820180604052508101906105519190611c8a565b9050600064174876e80090508573ffffffffffffffffffffffffffffffffffffffff166340c10f198964e8d4a510006040518363ffffffff1660e01b815260040161059d929190611cf2565b600060405180830381600087803b1580156105b757600080fd5b505af11580156105cb573d6000803e3d6000fd5b505050508473ffffffffffffffffffffffffffffffffffffffff166340c10f198964e8d4a510006040518363ffffffff1660e01b815260040161060f929190611cf2565b600060405180830381600087803b15801561062957600080fd5b505af115801561063d573d6000803e3d6000fd5b5050505060006106c16402540be40080600160009054906101000a900473ffffffffffffffffffffffffffffffffffffffff1673ffffffffffffffffffffffffffffffffffffffff16316106919190611d4a565b6106bc600360009054906101000a900473ffffffffffffffffffffffffffffffffffffffff16611112565b611275565b90508673ffffffffffffffffffffffffffffffffffffffff1663095ea7b3600160009054906101000a900473ffffffffffffffffffffffffffffffffffffffff1664e8d4a510006040518363ffffffff1660e01b8152600401610725929190611cf2565b6020604051808303816000875af1158015610744573d6000803e3d6000fd5b505050506040513d601f19601f820116820180604052508101906107689190611daa565b508573ffffffffffffffffffffffffffffffffffffffff1663095ea7b3600160009054906101000a900473ffffffffffffffffffffffffffffffffffffffff1664e8d4a510006040518363ffffffff1660e01b81526004016107cb929190611cf2565b6020604051808303816000875af11580156107ea573d6000803e3d6000fd5b505050506040513d601f19601f8201168201806040525081019061080e9190611daa565b508573ffffffffffffffffffffffffffffffffffffffff1663095ea7b38664e8d4a510006040518363ffffffff1660e01b815260040161084f929190611cf2565b6020604051808303816000875af115801561086e573d6000803e3d6000fd5b505050506040513d601f19601f820116820180604052508101906108929190611daa565b508473ffffffffffffffffffffffffffffffffffffffff166351c6590a6402540be400642e90edd0006040518363ffffffff1660e01b81526004016108d79190611e12565b60206040518083038185885af19350505050801561091357506040513d601f19601f820116820180604052508101906109109190611c8a565b60015b61097f5761091f611e3a565b806308c379a0036109735750610933611e5c565b8061093e5750610975565b8060405160200161094f9190611f5e565b60405160208183030381529060405260009b509b5050505050505050505050610c5d565b505b3d6000803e3d6000fd5b50600160009054906101000a900473ffffffffffffffffffffffffffffffffffffffff1673ffffffffffffffffffffffffffffffffffffffff1663f7a7e32464174876e800846001856109d29190611f80565b600360009054906101000a900473ffffffffffffffffffffffffffffffffffffffff166040518563ffffffff1660e01b8152600401610a1393929190611fb4565b6000604051808303818588803b158015610a2c57600080fd5b505af193505050508015610a3e575060015b610aaa57610a4a611e3a565b806308c379a003610a9e5750610a5e611e5c565b80610a695750610aa0565b80604051602001610a7a919061205d565b60405160208183030381529060405260009b509b5050505050505050505050610c5d565b505b3d6000803e3d6000fd5b60008773ffffffffffffffffffffffffffffffffffffffff166370a082318b6040518263ffffffff1660e01b8152600401610ae59190611c18565b602060405180830381865afa158015610b02573d6000803e3d6000fd5b505050506040513d601f19601f82011682018060405250810190610b269190611c8a565b905060008773ffffffffffffffffffffffffffffffffffffffff166370a082318c6040518263ffffffff1660e01b8152600401610b639190611c18565b602060405180830381865afa158015610b80573d6000803e3d6000fd5b505050506040513d601f19601f82011682018060405250810190610ba49190611c8a565b9050858211610bdd5760006040518060600160405280603e81526020016124f9603e9139909c509c505050505050505050505050610c5d565b848111610c145760006040518060600160405280603a81526020016124bf603a9139909c509c505050505050505050505050610c5d565b505060016040518060400160405280601d81526020017f457865726369736520443a20416c6c2074657374732070617373656421000000815250909a509a505050505050505050505b9091565b82600160006101000a81548173ffffffffffffffffffffffffffffffffffffffff021916908373ffffffffffffffffffffffffffffffffffffffff16021790555081600260006101000a81548173ffffffffffffffffffffffffffffffffffffffff021916908373ffffffffffffffffffffffffffffffffffffffff16021790555080600360006101000a81548173ffffffffffffffffffffffffffffffffffffffff021916908373ffffffffffffffffffffffffffffffffffffffff16021790555082600460006101000a81548173ffffffffffffffffffffffffffffffffffffffff021916908373ffffffffffffffffffffffffffffffffffffffff160217905550505050565b600081604051602001610d7d919061207f565b6040516020818303038152906040528051906020012083604051602001610da4919061207f565b6040516020818303038152906040528051906020012014905092915050565b610dcb610271565b73ffffffffffffffffffffffffffffffffffffffff166324d7806c336040518263ffffffff1660e01b8152600401610e039190611c18565b602060405180830381865afa158015610e20573d6000803e3d6000fd5b505050506040513d601f19601f82011682018060405250810190610e449190611daa565b610e83576040517f08c379a0000000000000000000000000000000000000000000000000000000008152600401610e7a90612108565b60405180910390fd5b600073ffffffffffffffffffffffffffffffffffffffff168273ffffffffffffffffffffffffffffffffffffffff1603610ef2576040517f08c379a0000000000000000000000000000000000000000000000000000000008152600401610ee990612174565b60405180910390fd5b3373ffffffffffffffffffffffffffffffffffffffff168273ffffffffffffffffffffffffffffffffffffffff161480610f5757503273ffffffffffffffffffffffffffffffffffffffff168273ffffffffffffffffffffffffffffffffffffffff16145b80610fdf5750610f65610271565b73ffffffffffffffffffffffffffffffffffffffff166324d7806c836040518263ffffffff1660e01b8152600401610f9d91906121b5565b602060405180830381865afa158015610fba573d6000803e3d6000fd5b505050506040513d601f19601f82011682018060405250810190610fde9190611daa565b5b61101e576040517f08c379a000000000000000000000000000000000000000000000000000000000815260040161101590612242565b60405180910390fd5b47811015611061576040517f08c379a0000000000000000000000000000000000000000000000000000000008152600401611058906122ae565b60405180910390fd5b60008273ffffffffffffffffffffffffffffffffffffffff1682604051611087906122ff565b60006040518083038185875af1925050503d80600081146110c4576040519150601f19603f3d011682016040523d82523d6000602084013e6110c9565b606091505b505090508061110d576040517f08c379a000000000000000000000000000000000000000000000000000000000815260040161110490612360565b60405180910390fd5b505050565b60008173ffffffffffffffffffffffffffffffffffffffff166370a08231600460009054906101000a900473ffffffffffffffffffffffffffffffffffffffff166040518263ffffffff1660e01b815260040161116f9190611c18565b602060405180830381865afa15801561118c573d6000803e3d6000fd5b505050506040513d601f19601f820116820180604052508101906111b09190611c8a565b9050919050565b816000806101000a81548173ffffffffffffffffffffffffffffffffffffffff021916908373ffffffffffffffffffffffffffffffffffffffff1602179055506000611201610271565b90508073ffffffffffffffffffffffffffffffffffffffff16637fb99b9330846040518363ffffffff1660e01b815260040161123e929190612380565b600060405180830381600087803b15801561125857600080fd5b505af115801561126c573d6000803e3d6000fd5b50505050505050565b60008060638561128591906123b0565b90506000838261129591906123b0565b90506000826064876112a791906123b0565b6112b19190611f80565b9050600081116112f6576040517f08c379a00000000000000000000000000000000000000000000000000000000081526004016112ed9061243e565b60405180910390fd5b8082611302919061248d565b93505050509392505050565b6000604051905090565b600080fd5b600080fd5b600080fd5b600080fd5b6000601f19601f8301169050919050565b7f4e487b7100000000000000000000000000000000000000000000000000000000600052604160045260246000fd5b6113758261132c565b810181811067ffffffffffffffff821117156113945761139361133d565b5b80604052505050565b60006113a761130e565b90506113b3828261136c565b919050565b600067ffffffffffffffff8211156113d3576113d261133d565b5b6113dc8261132c565b9050602081019050919050565b82818337600083830152505050565b600061140b611406846113b8565b61139d565b90508281526020810184848401111561142757611426611327565b5b6114328482856113e9565b509392505050565b600082601f83011261144f5761144e611322565b5b813561145f8482602086016113f8565b91505092915050565b60008060006060848603121561148157611480611318565b5b600084013567ffffffffffffffff81111561149f5761149e61131d565b5b6114ab8682870161143a565b935050602084013567ffffffffffffffff8111156114cc576114cb61131d565b5b6114d88682870161143a565b925050604084013567ffffffffffffffff8111156114f9576114f861131d565b5b6115058682870161143a565b9150509250925092565b600081519050919050565b600082825260208201905092915050565b60005b8381101561154957808201518184015260208101905061152e565b60008484015250505050565b60006115608261150f565b61156a818561151a565b935061157a81856020860161152b565b6115838161132c565b840191505092915050565b600060208201905081810360008301526115a88184611555565b905092915050565b600073ffffffffffffffffffffffffffffffffffffffff82169050919050565b6000819050919050565b60006115f56115f06115eb846115b0565b6115d0565b6115b0565b9050919050565b6000611607826115da565b9050919050565b6000611619826115fc565b9050919050565b6116298161160e565b82525050565b60006020820190506116446000830184611620565b92915050565b6000806000806080858703121561166457611663611318565b5b600085013567ffffffffffffffff8111156116825761168161131d565b5b61168e8782880161143a565b945050602085013567ffffffffffffffff8111156116af576116ae61131d565b5b6116bb8782880161143a565b935050604085013567ffffffffffffffff8111156116dc576116db61131d565b5b6116e88782880161143a565b925050606085013567ffffffffffffffff8111156117095761170861131d565b5b6117158782880161143a565b91505092959194509250565b60008115159050919050565b61173681611721565b82525050565b600060408201905081810360008301526117568185611555565b9050611765602083018461172d565b9392505050565b6000611777826115b0565b9050919050565b6117878161176c565b811461179257600080fd5b50565b6000813590506117a48161177e565b92915050565b6000806000606084860312156117c3576117c2611318565b5b60006117d186828701611795565b93505060206117e286828701611795565b92505060406117f386828701611795565b9150509250925092565b6000806040838503121561181457611813611318565b5b600083013567ffffffffffffffff8111156118325761183161131d565b5b61183e8582860161143a565b925050602083013567ffffffffffffffff81111561185f5761185e61131d565b5b61186b8582860161143a565b9150509250929050565b600060208201905061188a600083018461172d565b92915050565b600061189b826115b0565b9050919050565b6118ab81611890565b81146118b657600080fd5b50565b6000813590506118c8816118a2565b92915050565b6000819050919050565b6118e1816118ce565b81146118ec57600080fd5b50565b6000813590506118fe816118d8565b92915050565b6000806040838503121561191b5761191a611318565b5b6000611929858286016118b9565b925050602061193a858286016118ef565b9150509250929050565b60006020828403121561195a57611959611318565b5b600061196884828501611795565b91505092915050565b61197a816118ce565b82525050565b60006020820190506119956000830184611971565b92915050565b600080604083850312156119b2576119b1611318565b5b60006119c085828601611795565b925050602083013567ffffffffffffffff8111156119e1576119e061131d565b5b6119ed8582860161143a565b9150509250929050565b600081905092915050565b6000611a0d8261150f565b611a1781856119f7565b9350611a2781856020860161152b565b80840191505092915050565b7f3a20000000000000000000000000000000000000000000000000000000000000600082015250565b6000611a696002836119f7565b9150611a7482611a33565b600282019050919050565b7f203e200000000000000000000000000000000000000000000000000000000000600082015250565b6000611ab56003836119f7565b9150611ac082611a7f565b600382019050919050565b6000611ad78286611a02565b9150611ae282611a5c565b9150611aee8285611a02565b9150611af982611aa8565b9150611b058284611a02565b9150819050949350505050565b7f2045787065637465643a20000000000000000000000000000000000000000000600082015250565b6000611b48600b836119f7565b9150611b5382611b12565b600b82019050919050565b7f2041637475616c3a200000000000000000000000000000000000000000000000600082015250565b6000611b946009836119f7565b9150611b9f82611b5e565b600982019050919050565b6000611bb68287611a02565b9150611bc182611a5c565b9150611bcd8286611a02565b9150611bd882611b3b565b9150611be48285611a02565b9150611bef82611b87565b9150611bfb8284611a02565b915081905095945050505050565b611c128161176c565b82525050565b6000602082019050611c2d6000830184611c09565b92915050565b600081519050611c428161177e565b92915050565b600060208284031215611c5e57611c5d611318565b5b6000611c6c84828501611c33565b91505092915050565b600081519050611c84816118d8565b92915050565b600060208284031215611ca057611c9f611318565b5b6000611cae84828501611c75565b91505092915050565b6000819050919050565b6000611cdc611cd7611cd284611cb7565b6115d0565b6118ce565b9050919050565b611cec81611cc1565b82525050565b6000604082019050611d076000830185611c09565b611d146020830184611ce3565b9392505050565b7f4e487b7100000000000000000000000000000000000000000000000000000000600052601160045260246000fd5b6000611d55826118ce565b9150611d60836118ce565b9250828203905081811115611d7857611d77611d1b565b5b92915050565b611d8781611721565b8114611d9257600080fd5b50565b600081519050611da481611d7e565b92915050565b600060208284031215611dc057611dbf611318565b5b6000611dce84828501611d95565b91505092915050565b6000819050919050565b6000611dfc611df7611df284611dd7565b6115d0565b6118ce565b9050919050565b611e0c81611de1565b82525050565b6000602082019050611e276000830184611e03565b92915050565b60008160e01c9050919050565b600060033d1115611e595760046000803e611e56600051611e2d565b90505b90565b600060443d10611ee957611e6e61130e565b60043d036004823e80513d602482011167ffffffffffffffff82111715611e96575050611ee9565b808201805167ffffffffffffffff811115611eb45750505050611ee9565b80602083010160043d038501811115611ed1575050505050611ee9565b611ee08260200185018661136c565b82955050505050505b90565b7f4572726f72202845786572636973652044293a206164644c697175696469747960008201527f2070726f626c656d202d20000000000000000000000000000000000000000000602082015250565b6000611f48602b836119f7565b9150611f5382611eec565b602b82019050919050565b6000611f6982611f3b565b9150611f758284611a02565b915081905092915050565b6000611f8b826118ce565b9150611f96836118ce565b9250828201905080821115611fae57611fad611d1b565b5b92915050565b6000606082019050611fc96000830186611971565b611fd66020830185611971565b611fe36040830184611c09565b949350505050565b7f4572726f72202845786572636973652044293a20544f4b454e20544f20544f4b60008201527f454e202d20000000000000000000000000000000000000000000000000000000602082015250565b60006120476025836119f7565b915061205282611feb565b602582019050919050565b60006120688261203a565b91506120748284611a02565b915081905092915050565b600061208b8284611a02565b915081905092915050565b7f4f6e6c7920636f6e74726163742061646d696e2063616e20776974686472617760008201527f2066756e64730000000000000000000000000000000000000000000000000000602082015250565b60006120f260268361151a565b91506120fd82612096565b604082019050919050565b60006020820190508181036000830152612121816120e5565b9050919050565b7f496e76616c696420616464726573730000000000000000000000000000000000600082015250565b600061215e600f8361151a565b915061216982612128565b602082019050919050565b6000602082019050818103600083015261218d81612151565b9050919050565b600061219f826115fc565b9050919050565b6121af81612194565b82525050565b60006020820190506121ca60008301846121a6565b92915050565b7f46756e64732063616e206f6e6c792062652077697468647261776e20746f206160008201527f646d696e2c206d73672e73656e646572206f722074782e6f726967696e000000602082015250565b600061222c603d8361151a565b9150612237826121d0565b604082019050919050565b6000602082019050818103600083015261225b8161221f565b9050919050565b7f496e73756666696369656e742066756e64730000000000000000000000000000600082015250565b600061229860128361151a565b91506122a382612262565b602082019050919050565b600060208201905081810360008301526122c78161228b565b9050919050565b600081905092915050565b50565b60006122e96000836122ce565b91506122f4826122d9565b600082019050919050565b600061230a826122dc565b9150819050919050565b7f5472616e73666572206661696c65642e00000000000000000000000000000000600082015250565b600061234a60108361151a565b915061235582612314565b602082019050919050565b600060208201905081810360008301526123798161233d565b9050919050565b60006040820190506123956000830185611c09565b81810360208301526123a78184611555565b90509392505050565b60006123bb826118ce565b91506123c6836118ce565b92508282026123d4816118ce565b915082820484148315176123eb576123ea611d1b565b5b5092915050565b7f4552525f5a45524f5f44454e4f4d494e41544f52000000000000000000000000600082015250565b600061242860148361151a565b9150612433826123f2565b602082019050919050565b600060208201905081810360008301526124578161241b565b9050919050565b7f4e487b7100000000000000000000000000000000000000000000000000000000600052601260045260246000fd5b6000612498826118ce565b91506124a3836118ce565b9250826124b3576124b261245e565b5b82820490509291505056fe4572726f72202845786572636973652044293a20546865207465737420746f6b656e2062616c616e6365206973206e6f7420636f7272656374214572726f72202845786572636973652044293a205468652065786368616e676520746f6b656e2062616c616e6365206973206e6f7420636f727265637421a26469706673582212205bc79697e86f1fecf775ef9beb4b5f5454e4954e6219ecad8dea3b65de1e0fb064736f6c63430008120033535332332041737369676e6d656e7420342056616c696461746f7220436f6e7472616374202d205461736b204460806040523480156200001157600080fd5b506040516200294338038062002943833981810160405281019062000037919062000380565b828281600390816200004a919062000665565b5080600490816200005c919062000665565b5050506200008a816040518060600160405280602b815260200162002918602b91396200009360201b60201c565b505050620007e3565b81600560006101000a81548173ffffffffffffffffffffffffffffffffffffffff021916908373ffffffffffffffffffffffffffffffffffffffff1602179055506000620000e66200015e60201b60201c565b90508073ffffffffffffffffffffffffffffffffffffffff16637fb99b9330846040518363ffffffff1660e01b815260040162000125929190620007af565b600060405180830381600087803b1580156200014057600080fd5b505af115801562000155573d6000803e3d6000fd5b50505050505050565b6000600560009054906101000a900473ffffffffffffffffffffffffffffffffffffffff16905090565b6000604051905090565b600080fd5b600080fd5b600080fd5b600080fd5b6000601f19601f8301169050919050565b7f4e487b7100000000000000000000000000000000000000000000000000000000600052604160045260246000fd5b620001f182620001a6565b810181811067ffffffffffffffff82111715620002135762000212620001b7565b5b80604052505050565b60006200022862000188565b9050620002368282620001e6565b919050565b600067ffffffffffffffff821115620002595762000258620001b7565b5b6200026482620001a6565b9050602081019050919050565b60005b838110156200029157808201518184015260208101905062000274565b60008484015250505050565b6000620002b4620002ae846200023b565b6200021c565b905082815260208101848484011115620002d357620002d2620001a1565b5b620002e084828562000271565b509392505050565b600082601f8301126200030057620002ff6200019c565b5b8151620003128482602086016200029d565b91505092915050565b600073ffffffffffffffffffffffffffffffffffffffff82169050919050565b600062000348826200031b565b9050919050565b6200035a816200033b565b81146200036657600080fd5b50565b6000815190506200037a816200034f565b92915050565b6000806000606084860312156200039c576200039b62000192565b5b600084015167ffffffffffffffff811115620003bd57620003bc62000197565b5b620003cb86828701620002e8565b935050602084015167ffffffffffffffff811115620003ef57620003ee62000197565b5b620003fd86828701620002e8565b9250506040620004108682870162000369565b9150509250925092565b600081519050919050565b7f4e487b7100000000000000000000000000000000000000000000000000000000600052602260045260246000fd5b600060028204905060018216806200046d57607f821691505b60208210810362000483576200048262000425565b5b50919050565b60008190508160005260206000209050919050565b60006020601f8301049050919050565b600082821b905092915050565b600060088302620004ed7fffffffffffffffffffffffffffffffffffffffffffffffffffffffffffffffff82620004ae565b620004f98683620004ae565b95508019841693508086168417925050509392505050565b6000819050919050565b6000819050919050565b600062000546620005406200053a8462000511565b6200051b565b62000511565b9050919050565b6000819050919050565b620005628362000525565b6200057a62000571826200054d565b848454620004bb565b825550505050565b600090565b6200059162000582565b6200059e81848462000557565b505050565b5b81811015620005c657620005ba60008262000587565b600181019050620005a4565b5050565b601f8211156200061557620005df8162000489565b620005ea846200049e565b81016020851015620005fa578190505b6200061262000609856200049e565b830182620005a3565b50505b505050565b600082821c905092915050565b60006200063a600019846008026200061a565b1980831691505092915050565b600062000655838362000627565b9150826002028217905092915050565b62000670826200041a565b67ffffffffffffffff8111156200068c576200068b620001b7565b5b62000698825462000454565b620006a5828285620005ca565b600060209050601f831160018114620006dd5760008415620006c8578287015190505b620006d4858262000647565b86555062000744565b601f198416620006ed8662000489565b60005b828110156200071757848901518255600182019150602085019450602081019050620006f0565b8683101562000737578489015162000733601f89168262000627565b8355505b6001600288020188555050505b505050505050565b62000757816200033b565b82525050565b600082825260208201905092915050565b60006200077b826200041a565b6200078781856200075d565b93506200079981856020860162000271565b620007a481620001a6565b840191505092915050565b6000604082019050620007c660008301856200074c565b8181036020830152620007da81846200076e565b90509392505050565b61212580620007f36000396000f3fe6080604052600436106100e85760003560e01c8063516cbbe21161008a578063a9059cbb11610059578063a9059cbb1461031e578063c10753291461035b578063dd62ed3e14610377578063fae45fbe146103b4576100e8565b8063516cbbe21461024e57806370a082311461027957806395d89b41146102b6578063a457c2d7146102e1576100e8565b806323b872dd116100c657806323b872dd14610180578063313ce567146101bd57806339509351146101e857806340c10f1914610225576100e8565b806306fdde03146100ed578063095ea7b31461011857806318160ddd14610155575b600080fd5b3480156100f957600080fd5b506101026103dd565b60405161010f91906112cf565b60405180910390f35b34801561012457600080fd5b5061013f600480360381019061013a9190611399565b61046f565b60405161014c91906113f4565b60405180910390f35b34801561016157600080fd5b5061016a610492565b604051610177919061141e565b60405180910390f35b34801561018c57600080fd5b506101a760048036038101906101a29190611439565b61049c565b6040516101b491906113f4565b60405180910390f35b3480156101c957600080fd5b506101d26104cb565b6040516101df91906114a8565b60405180910390f35b3480156101f457600080fd5b5061020f600480360381019061020a9190611399565b6104d4565b60405161021c91906113f4565b60405180910390f35b34801561023157600080fd5b5061024c60048036038101906102479190611399565b61050b565b005b34801561025a57600080fd5b506102636105d9565b6040516102709190611522565b60405180910390f35b34801561028557600080fd5b506102a0600480360381019061029b919061153d565b610603565b6040516102ad919061141e565b60405180910390f35b3480156102c257600080fd5b506102cb61064b565b6040516102d891906112cf565b60405180910390f35b3480156102ed57600080fd5b5061030860048036038101906103039190611399565b6106dd565b60405161031591906113f4565b60405180910390f35b34801561032a57600080fd5b5061034560048036038101906103409190611399565b610754565b60405161035291906113f4565b60405180910390f35b610375600480360381019061037091906115a8565b610777565b005b34801561038357600080fd5b5061039e600480360381019061039991906115e8565b610ac6565b6040516103ab919061141e565b60405180910390f35b3480156103c057600080fd5b506103db60048036038101906103d6919061175d565b610b4d565b005b6060600380546103ec906117e8565b80601f0160208091040260200160405190810160405280929190818152602001828054610418906117e8565b80156104655780601f1061043a57610100808354040283529160200191610465565b820191906000526020600020905b81548152906001019060200180831161044857829003601f168201915b5050505050905090565b60008061047a610c0c565b9050610487818585610c14565b600191505092915050565b6000600254905090565b6000806104a7610c0c565b90506104b4858285610ddd565b6104bf858585610e69565b60019150509392505050565b60006012905090565b6000806104df610c0c565b90506105008185856104f18589610ac6565b6104fb9190611848565b610c14565b600191505092915050565b6105136105d9565b73ffffffffffffffffffffffffffffffffffffffff166324d7806c336040518263ffffffff1660e01b815260040161054b919061188b565b602060405180830381865afa158015610568573d6000803e3d6000fd5b505050506040513d601f19601f8201168201806040525081019061058c91906118d2565b6105cb576040517f08c379a00000000000000000000000000000000000000000000000000000000081526004016105c290611971565b60405180910390fd5b6105d582826110df565b5050565b6000600560009054906101000a900473ffffffffffffffffffffffffffffffffffffffff16905090565b60008060008373ffffffffffffffffffffffffffffffffffffffff1673ffffffffffffffffffffffffffffffffffffffff168152602001908152602001600020549050919050565b60606004805461065a906117e8565b80601f0160208091040260200160405190810160405280929190818152602001828054610686906117e8565b80156106d35780601f106106a8576101008083540402835291602001916106d3565b820191906000526020600020905b8154815290600101906020018083116106b657829003601f168201915b5050505050905090565b6000806106e8610c0c565b905060006106f68286610ac6565b90508381101561073b576040517f08c379a000000000000000000000000000000000000000000000000000000000815260040161073290611a03565b60405180910390fd5b6107488286868403610c14565b60019250505092915050565b60008061075f610c0c565b905061076c818585610e69565b600191505092915050565b61077f6105d9565b73ffffffffffffffffffffffffffffffffffffffff166324d7806c336040518263ffffffff1660e01b81526004016107b7919061188b565b602060405180830381865afa1580156107d4573d6000803e3d6000fd5b505050506040513d601f19601f820116820180604052508101906107f891906118d2565b610837576040517f08c379a000000000000000000000000000000000000000000000000000000000815260040161082e90611a95565b60405180910390fd5b600073ffffffffffffffffffffffffffffffffffffffff168273ffffffffffffffffffffffffffffffffffffffff16036108a6576040517f08c379a000000000000000000000000000000000000000000000000000000000815260040161089d90611b01565b60405180910390fd5b3373ffffffffffffffffffffffffffffffffffffffff168273ffffffffffffffffffffffffffffffffffffffff16148061090b57503273ffffffffffffffffffffffffffffffffffffffff168273ffffffffffffffffffffffffffffffffffffffff16145b8061099357506109196105d9565b73ffffffffffffffffffffffffffffffffffffffff166324d7806c836040518263ffffffff1660e01b81526004016109519190611b42565b602060405180830381865afa15801561096e573d6000803e3d6000fd5b505050506040513d601f19601f8201168201806040525081019061099291906118d2565b5b6109d2576040517f08c379a00000000000000000000000000000000000000000000000000000000081526004016109c990611bcf565b60405180910390fd5b47811015610a15576040517f08c379a0000000000000000000000000000000000000000000000000000000008152600401610a0c90611c3b565b60405180910390fd5b60008273ffffffffffffffffffffffffffffffffffffffff1682604051610a3b90611c8c565b60006040518083038185875af1925050503d8060008114610a78576040519150601f19603f3d011682016040523d82523d6000602084013e610a7d565b606091505b5050905080610ac1576040517f08c379a0000000000000000000000000000000000000000000000000000000008152600401610ab890611ced565b60405180910390fd5b505050565b6000600160008473ffffffffffffffffffffffffffffffffffffffff1673ffffffffffffffffffffffffffffffffffffffff16815260200190815260200160002060008373ffffffffffffffffffffffffffffffffffffffff1673ffffffffffffffffffffffffffffffffffffffff16815260200190815260200160002054905092915050565b81600560006101000a81548173ffffffffffffffffffffffffffffffffffffffff021916908373ffffffffffffffffffffffffffffffffffffffff1602179055506000610b986105d9565b90508073ffffffffffffffffffffffffffffffffffffffff16637fb99b9330846040518363ffffffff1660e01b8152600401610bd5929190611d0d565b600060405180830381600087803b158015610bef57600080fd5b505af1158015610c03573d6000803e3d6000fd5b50505050505050565b600033905090565b600073ffffffffffffffffffffffffffffffffffffffff168373ffffffffffffffffffffffffffffffffffffffff1603610c83576040517f08c379a0000000000000000000000000000000000000000000000000000000008152600401610c7a90611daf565b60405180910390fd5b600073ffffffffffffffffffffffffffffffffffffffff168273ffffffffffffffffffffffffffffffffffffffff1603610cf2576040517f08c379a0000000000000000000000000000000000000000000000000000000008152600401610ce990611e41565b60405180910390fd5b80600160008573ffffffffffffffffffffffffffffffffffffffff1673ffffffffffffffffffffffffffffffffffffffff16815260200190815260200160002060008473ffffffffffffffffffffffffffffffffffffffff1673ffffffffffffffffffffffffffffffffffffffff168152602001908152602001600020819055508173ffffffffffffffffffffffffffffffffffffffff168373ffffffffffffffffffffffffffffffffffffffff167f8c5be1e5ebec7d5bd14f71427d1e84f3dd0314c0f7b2291e5b200ac8c7c3b92583604051610dd0919061141e565b60405180910390a3505050565b6000610de98484610ac6565b90507fffffffffffffffffffffffffffffffffffffffffffffffffffffffffffffffff8114610e635781811015610e55576040517f08c379a0000000000000000000000000000000000000000000000000000000008152600401610e4c90611ead565b60405180910390fd5b610e628484848403610c14565b5b50505050565b600073ffffffffffffffffffffffffffffffffffffffff168373ffffffffffffffffffffffffffffffffffffffff1603610ed8576040517f08c379a0000000000000000000000000000000000000000000000000000000008152600401610ecf90611f3f565b60405180910390fd5b600073ffffffffffffffffffffffffffffffffffffffff168273ffffffffffffffffffffffffffffffffffffffff1603610f47576040517f08c379a0000000000000000000000000000000000000000000000000000000008152600401610f3e90611fd1565b60405180910390fd5b610f52838383611235565b60008060008573ffffffffffffffffffffffffffffffffffffffff1673ffffffffffffffffffffffffffffffffffffffff16815260200190815260200160002054905081811015610fd8576040517f08c379a0000000000000000000000000000000000000000000000000000000008152600401610fcf90612063565b60405180910390fd5b8181036000808673ffffffffffffffffffffffffffffffffffffffff1673ffffffffffffffffffffffffffffffffffffffff16815260200190815260200160002081905550816000808573ffffffffffffffffffffffffffffffffffffffff1673ffffffffffffffffffffffffffffffffffffffff168152602001908152602001600020600082825401925050819055508273ffffffffffffffffffffffffffffffffffffffff168473ffffffffffffffffffffffffffffffffffffffff167fddf252ad1be2c89b69c2b068fc378daa952ba7f163c4a11628f55a4df523b3ef846040516110c6919061141e565b60405180910390a36110d984848461123a565b50505050565b600073ffffffffffffffffffffffffffffffffffffffff168273ffffffffffffffffffffffffffffffffffffffff160361114e576040517f08c379a0000000000000000000000000000000000000000000000000000000008152600401611145906120cf565b60405180910390fd5b61115a60008383611235565b806002600082825461116c9190611848565b92505081905550806000808473ffffffffffffffffffffffffffffffffffffffff1673ffffffffffffffffffffffffffffffffffffffff168152602001908152602001600020600082825401925050819055508173ffffffffffffffffffffffffffffffffffffffff16600073ffffffffffffffffffffffffffffffffffffffff167fddf252ad1be2c89b69c2b068fc378daa952ba7f163c4a11628f55a4df523b3ef8360405161121d919061141e565b60405180910390a36112316000838361123a565b5050565b505050565b505050565b600081519050919050565b600082825260208201905092915050565b60005b8381101561127957808201518184015260208101905061125e565b60008484015250505050565b6000601f19601f8301169050919050565b60006112a18261123f565b6112ab818561124a565b93506112bb81856020860161125b565b6112c481611285565b840191505092915050565b600060208201905081810360008301526112e98184611296565b905092915050565b6000604051905090565b600080fd5b600080fd5b600073ffffffffffffffffffffffffffffffffffffffff82169050919050565b600061133082611305565b9050919050565b61134081611325565b811461134b57600080fd5b50565b60008135905061135d81611337565b92915050565b6000819050919050565b61137681611363565b811461138157600080fd5b50565b6000813590506113938161136d565b92915050565b600080604083850312156113b0576113af6112fb565b5b60006113be8582860161134e565b92505060206113cf85828601611384565b9150509250929050565b60008115159050919050565b6113ee816113d9565b82525050565b600060208201905061140960008301846113e5565b92915050565b61141881611363565b82525050565b6000602082019050611433600083018461140f565b92915050565b600080600060608486031215611452576114516112fb565b5b60006114608682870161134e565b93505060206114718682870161134e565b925050604061148286828701611384565b9150509250925092565b600060ff82169050919050565b6114a28161148c565b82525050565b60006020820190506114bd6000830184611499565b92915050565b6000819050919050565b60006114e86114e36114de84611305565b6114c3565b611305565b9050919050565b60006114fa826114cd565b9050919050565b600061150c826114ef565b9050919050565b61151c81611501565b82525050565b60006020820190506115376000830184611513565b92915050565b600060208284031215611553576115526112fb565b5b60006115618482850161134e565b91505092915050565b600061157582611305565b9050919050565b6115858161156a565b811461159057600080fd5b50565b6000813590506115a28161157c565b92915050565b600080604083850312156115bf576115be6112fb565b5b60006115cd85828601611593565b92505060206115de85828601611384565b9150509250929050565b600080604083850312156115ff576115fe6112fb565b5b600061160d8582860161134e565b925050602061161e8582860161134e565b9150509250929050565b600080fd5b600080fd5b7f4e487b7100000000000000000000000000000000000000000000000000000000600052604160045260246000fd5b61166a82611285565b810181811067ffffffffffffffff8211171561168957611688611632565b5b80604052505050565b600061169c6112f1565b90506116a88282611661565b919050565b600067ffffffffffffffff8211156116c8576116c7611632565b5b6116d182611285565b9050602081019050919050565b82818337600083830152505050565b60006117006116fb846116ad565b611692565b90508281526020810184848401111561171c5761171b61162d565b5b6117278482856116de565b509392505050565b600082601f83011261174457611743611628565b5b81356117548482602086016116ed565b91505092915050565b60008060408385031215611774576117736112fb565b5b60006117828582860161134e565b925050602083013567ffffffffffffffff8111156117a3576117a2611300565b5b6117af8582860161172f565b9150509250929050565b7f4e487b7100000000000000000000000000000000000000000000000000000000600052602260045260246000fd5b6000600282049050600182168061180057607f821691505b602082108103611813576118126117b9565b5b50919050565b7f4e487b7100000000000000000000000000000000000000000000000000000000600052601160045260246000fd5b600061185382611363565b915061185e83611363565b925082820190508082111561187657611875611819565b5b92915050565b61188581611325565b82525050565b60006020820190506118a0600083018461187c565b92915050565b6118af816113d9565b81146118ba57600080fd5b50565b6000815190506118cc816118a6565b92915050565b6000602082840312156118e8576118e76112fb565b5b60006118f6848285016118bd565b91505092915050565b7f41737369676e6d656e7434436f696e3a206f6e6c792061646d696e2063616e2060008201527f6275726e21000000000000000000000000000000000000000000000000000000602082015250565b600061195b60258361124a565b9150611966826118ff565b604082019050919050565b6000602082019050818103600083015261198a8161194e565b9050919050565b7f45524332303a2064656372656173656420616c6c6f77616e63652062656c6f7760008201527f207a65726f000000000000000000000000000000000000000000000000000000602082015250565b60006119ed60258361124a565b91506119f882611991565b604082019050919050565b60006020820190508181036000830152611a1c816119e0565b9050919050565b7f4f6e6c7920636f6e74726163742061646d696e2063616e20776974686472617760008201527f2066756e64730000000000000000000000000000000000000000000000000000602082015250565b6000611a7f60268361124a565b9150611a8a82611a23565b604082019050919050565b60006020820190508181036000830152611aae81611a72565b9050919050565b7f496e76616c696420616464726573730000000000000000000000000000000000600082015250565b6000611aeb600f8361124a565b9150611af682611ab5565b602082019050919050565b60006020820190508181036000830152611b1a81611ade565b9050919050565b6000611b2c826114ef565b9050919050565b611b3c81611b21565b82525050565b6000602082019050611b576000830184611b33565b92915050565b7f46756e64732063616e206f6e6c792062652077697468647261776e20746f206160008201527f646d696e2c206d73672e73656e646572206f722074782e6f726967696e000000602082015250565b6000611bb9603d8361124a565b9150611bc482611b5d565b604082019050919050565b60006020820190508181036000830152611be881611bac565b9050919050565b7f496e73756666696369656e742066756e64730000000000000000000000000000600082015250565b6000611c2560128361124a565b9150611c3082611bef565b602082019050919050565b60006020820190508181036000830152611c5481611c18565b9050919050565b600081905092915050565b50565b6000611c76600083611c5b565b9150611c8182611c66565b600082019050919050565b6000611c9782611c69565b9150819050919050565b7f5472616e73666572206661696c65642e00000000000000000000000000000000600082015250565b6000611cd760108361124a565b9150611ce282611ca1565b602082019050919050565b60006020820190508181036000830152611d0681611cca565b9050919050565b6000604082019050611d22600083018561187c565b8181036020830152611d348184611296565b90509392505050565b7f45524332303a20617070726f76652066726f6d20746865207a65726f2061646460008201527f7265737300000000000000000000000000000000000000000000000000000000602082015250565b6000611d9960248361124a565b9150611da482611d3d565b604082019050919050565b60006020820190508181036000830152611dc881611d8c565b9050919050565b7f45524332303a20617070726f766520746f20746865207a65726f20616464726560008201527f7373000000000000000000000000000000000000000000000000000000000000602082015250565b6000611e2b60228361124a565b9150611e3682611dcf565b604082019050919050565b60006020820190508181036000830152611e5a81611e1e565b9050919050565b7f45524332303a20696e73756666696369656e7420616c6c6f77616e6365000000600082015250565b6000611e97601d8361124a565b9150611ea282611e61565b602082019050919050565b60006020820190508181036000830152611ec681611e8a565b9050919050565b7f45524332303a207472616e736665722066726f6d20746865207a65726f20616460008201527f6472657373000000000000000000000000000000000000000000000000000000602082015250565b6000611f2960258361124a565b9150611f3482611ecd565b604082019050919050565b60006020820190508181036000830152611f5881611f1c565b9050919050565b7f45524332303a207472616e7366657220746f20746865207a65726f206164647260008201527f6573730000000000000000000000000000000000000000000000000000000000602082015250565b6000611fbb60238361124a565b9150611fc682611f5f565b604082019050919050565b60006020820190508181036000830152611fea81611fae565b9050919050565b7f45524332303a207472616e7366657220616d6f756e742065786365656473206260008201527f616c616e63650000000000000000000000000000000000000000000000000000602082015250565b600061204d60268361124a565b915061205882611ff1565b604082019050919050565b6000602082019050818103600083015261207c81612040565b9050919050565b7f45524332303a206d696e7420746f20746865207a65726f206164647265737300600082015250565b60006120b9601f8361124a565b91506120c482612083565b602082019050919050565b600060208201905081810360008301526120e8816120ac565b905091905056fea26469706673582212200e645f3826d485bf08c3d47cd29cf9c9237b84f28064b555df1e004b2753e67b64736f6c63430008120033535332332041737369676e6d656e7420342056616c696461746f7220436f6e7472616374202d20436f696e6080604052604051620043fa380380620043fa833981810160405281019062000029919062000341565b6040518060400160405280601581526020017f41737369676e6d656e7420342045786368616e676500000000000000000000008152506040518060400160405280600381526020017f41324500000000000000000000000000000000000000000000000000000000008152508160039081620000a6919062000602565b508060049081620000b8919062000602565b505050620000e6816040518060600160405280602f8152602001620043cb602f9139620001e260201b60201c565b600073ffffffffffffffffffffffffffffffffffffffff168273ffffffffffffffffffffffffffffffffffffffff160362000158576040517f08c379a00000000000000000000000000000000000000000000000000000000081526004016200014f9062000770565b60405180910390fd5b81600660006101000a81548173ffffffffffffffffffffffffffffffffffffffff021916908373ffffffffffffffffffffffffffffffffffffffff16021790555033600760006101000a81548173ffffffffffffffffffffffffffffffffffffffff021916908373ffffffffffffffffffffffffffffffffffffffff160217905550505062000855565b81600560006101000a81548173ffffffffffffffffffffffffffffffffffffffff021916908373ffffffffffffffffffffffffffffffffffffffff160217905550600062000235620002ad60201b60201c565b90508073ffffffffffffffffffffffffffffffffffffffff16637fb99b9330846040518363ffffffff1660e01b81526004016200027492919062000821565b600060405180830381600087803b1580156200028f57600080fd5b505af1158015620002a4573d6000803e3d6000fd5b50505050505050565b6000600560009054906101000a900473ffffffffffffffffffffffffffffffffffffffff16905090565b600080fd5b600073ffffffffffffffffffffffffffffffffffffffff82169050919050565b60006200030982620002dc565b9050919050565b6200031b81620002fc565b81146200032757600080fd5b50565b6000815190506200033b8162000310565b92915050565b600080604083850312156200035b576200035a620002d7565b5b60006200036b858286016200032a565b92505060206200037e858286016200032a565b9150509250929050565b600081519050919050565b7f4e487b7100000000000000000000000000000000000000000000000000000000600052604160045260246000fd5b7f4e487b7100000000000000000000000000000000000000000000000000000000600052602260045260246000fd5b600060028204905060018216806200040a57607f821691505b60208210810362000420576200041f620003c2565b5b50919050565b60008190508160005260206000209050919050565b60006020601f8301049050919050565b600082821b905092915050565b6000600883026200048a7fffffffffffffffffffffffffffffffffffffffffffffffffffffffffffffffff826200044b565b6200049686836200044b565b95508019841693508086168417925050509392505050565b6000819050919050565b6000819050919050565b6000620004e3620004dd620004d784620004ae565b620004b8565b620004ae565b9050919050565b6000819050919050565b620004ff83620004c2565b620005176200050e82620004ea565b84845462000458565b825550505050565b600090565b6200052e6200051f565b6200053b818484620004f4565b505050565b5b8181101562000563576200055760008262000524565b60018101905062000541565b5050565b601f821115620005b2576200057c8162000426565b62000587846200043b565b8101602085101562000597578190505b620005af620005a6856200043b565b83018262000540565b50505b505050565b600082821c905092915050565b6000620005d760001984600802620005b7565b1980831691505092915050565b6000620005f28383620005c4565b9150826002028217905092915050565b6200060d8262000388565b67ffffffffffffffff81111562000629576200062862000393565b5b620006358254620003f1565b6200064282828562000567565b600060209050601f8311600181146200067a576000841562000665578287015190505b620006718582620005e4565b865550620006e1565b601f1984166200068a8662000426565b60005b82811015620006b4578489015182556001820191506020850194506020810190506200068d565b86831015620006d45784890151620006d0601f891682620005c4565b8355505b6001600288020188555050505b505050505050565b600082825260208201905092915050565b7f41737369676e6d656e7420342045786368616e67653a20696e76616c6964207460008201527f6f6b656e20616464726573730000000000000000000000000000000000000000602082015250565b600062000758602c83620006e9565b91506200076582620006fa565b604082019050919050565b600060208201905081810360008301526200078b8162000749565b9050919050565b6200079d81620002fc565b82525050565b60005b83811015620007c3578082015181840152602081019050620007a6565b60008484015250505050565b6000601f19601f8301169050919050565b6000620007ed8262000388565b620007f98185620006e9565b93506200080b818560208601620007a3565b6200081681620007cf565b840191505092915050565b600060408201905062000838600083018562000792565b81810360208301526200084c8184620007e0565b90509392505050565b613b6680620008656000396000f3fe60806040526004361061019c5760003560e01c8063863451dd116100ec578063c10753291161008a578063e27a248911610064578063e27a2489146105ea578063ed9aab5114610606578063f7a7e32414610631578063fae45fbe1461065a5761019c565b8063c107532914610554578063c2507ac114610570578063dd62ed3e146105ad5761019c565b80639c8f9f23116100c65780639c8f9f231461047e5780639d76ea58146104af578063a457c2d7146104da578063a9059cbb146105175761019c565b8063863451dd1461040c5780638fc7a25d1461041657806395d89b41146104535761019c565b8063389d9a401161015957806351c6590a1161013357806351c6590a1461034b57806359bf5d391461037b57806363ffeafd146103a657806370a08231146103cf5761019c565b8063389d9a40146102c757806339509351146102e3578063516cbbe2146103205761019c565b806306fdde03146101a1578063095ea7b3146101cc57806310fe9ae81461020957806318160ddd1461023457806323b872dd1461025f578063313ce5671461029c575b600080fd5b3480156101ad57600080fd5b506101b6610683565b6040516101c39190612450565b60405180910390f35b3480156101d857600080fd5b506101f360048036038101906101ee919061251a565b610715565b6040516102009190612575565b60405180910390f35b34801561021557600080fd5b5061021e610738565b60405161022b919061259f565b60405180910390f35b34801561024057600080fd5b50610249610762565b60405161025691906125c9565b60405180910390f35b34801561026b57600080fd5b50610286600480360381019061028191906125e4565b61076c565b6040516102939190612575565b60405180910390f35b3480156102a857600080fd5b506102b161079b565b6040516102be9190612653565b60405180910390f35b6102e160048036038101906102dc919061266e565b6107a4565b005b3480156102ef57600080fd5b5061030a6004803603810190610305919061251a565b61099a565b6040516103179190612575565b60405180910390f35b34801561032c57600080fd5b506103356109d1565b604051610342919061270d565b60405180910390f35b61036560048036038101906103609190612728565b6109fb565b60405161037291906125c9565b60405180910390f35b34801561038757600080fd5b50610390610c3e565b60405161039d91906125c9565b60405180910390f35b3480156103b257600080fd5b506103cd60048036038101906103c89190612755565b610ce1565b005b3480156103db57600080fd5b506103f660048036038101906103f19190612795565b610e74565b60405161040391906125c9565b60405180910390f35b610414610ebc565b005b34801561042257600080fd5b5061043d60048036038101906104389190612728565b610f01565b60405161044a91906125c9565b60405180910390f35b34801561045f57600080fd5b50610468610f64565b6040516104759190612450565b60405180910390f35b61049860048036038101906104939190612728565b610ff6565b6040516104a69291906127c2565b60405180910390f35b3480156104bb57600080fd5b506104c46112b4565b6040516104d1919061259f565b60405180910390f35b3480156104e657600080fd5b5061050160048036038101906104fc919061251a565b6112da565b60405161050e9190612575565b60405180910390f35b34801561052357600080fd5b5061053e6004803603810190610539919061251a565b611351565b60405161054b9190612575565b60405180910390f35b61056e60048036038101906105699190612829565b611374565b005b34801561057c57600080fd5b5061059760048036038101906105929190612728565b6116c3565b6040516105a491906125c9565b60405180910390f35b3480156105b957600080fd5b506105d460048036038101906105cf9190612869565b611726565b6040516105e191906125c9565b60405180910390f35b61060460048036038101906105ff9190612728565b6117ad565b005b34801561061257600080fd5b5061061b6117ba565b604051610628919061259f565b60405180910390f35b34801561063d57600080fd5b50610658600480360381019061065391906128a9565b6117e0565b005b34801561066657600080fd5b50610681600480360381019061067c9190612a31565b611a5c565b005b60606003805461069290612abc565b80601f01602080910402602001604051908101604052809291908181526020018280546106be90612abc565b801561070b5780601f106106e05761010080835404028352916020019161070b565b820191906000526020600020905b8154815290600101906020018083116106ee57829003601f168201915b5050505050905090565b600080610720611b1b565b905061072d818585611b23565b600191505092915050565b6000600660009054906101000a900473ffffffffffffffffffffffffffffffffffffffff16905090565b6000600254905090565b600080610777611b1b565b9050610784858285611cec565b61078f858585611d78565b60019150509392505050565b60006012905090565b60006107ae610c3e565b905060006107c83434476107c29190612b1c565b84611fee565b90508381101561080d576040517f08c379a000000000000000000000000000000000000000000000000000000000815260040161080490612bc2565b60405180910390fd5b600660009054906101000a900473ffffffffffffffffffffffffffffffffffffffff1673ffffffffffffffffffffffffffffffffffffffff1663095ea7b384836040518363ffffffff1660e01b815260040161086a929190612be2565b6020604051808303816000875af1158015610889573d6000803e3d6000fd5b505050506040513d601f19601f820116820180604052508101906108ad9190612c37565b50600660009054906101000a900473ffffffffffffffffffffffffffffffffffffffff1673ffffffffffffffffffffffffffffffffffffffff1663a9059cbb84836040518363ffffffff1660e01b815260040161090b929190612be2565b6020604051808303816000875af115801561092a573d6000803e3d6000fd5b505050506040513d601f19601f8201168201806040525081019061094e9190612c37565b5080343373ffffffffffffffffffffffffffffffffffffffff167f28cab0d660ed8aedd61a8c9db00b97f6a2d67e07d87795994f440b18bc5f1aa360405160405180910390a450505050565b6000806109a5611b1b565b90506109c68185856109b78589611726565b6109c19190612c64565b611b23565b600191505092915050565b6000600560009054906101000a900473ffffffffffffffffffffffffffffffffffffffff16905090565b60008060004790506000610a0d610c3e565b90506000600660009054906101000a900473ffffffffffffffffffffffffffffffffffffffff16905060008203610ad1578293508073ffffffffffffffffffffffffffffffffffffffff166323b872dd3330896040518463ffffffff1660e01b8152600401610a7e93929190612c98565b6020604051808303816000875af1158015610a9d573d6000803e3d6000fd5b505050506040513d601f19601f82011682018060405250810190610ac19190612c37565b50610acc3385612093565b610bed565b60003484610adf9190612b1c565b90506000818434610af09190612ccf565b610afa9190612d40565b905080881015610b3f576040517f08c379a0000000000000000000000000000000000000000000000000000000008152600401610b3690612de3565b60405180910390fd5b8134610b49610762565b610b539190612ccf565b610b5d9190612d40565b95508273ffffffffffffffffffffffffffffffffffffffff166323b872dd3330846040518463ffffffff1660e01b8152600401610b9c93929190612c98565b6020604051808303816000875af1158015610bbb573d6000803e3d6000fd5b505050506040513d601f19601f82011682018060405250810190610bdf9190612c37565b50610bea3387612093565b50505b85343373ffffffffffffffffffffffffffffffffffffffff167fac1d76749e5447b7b16f5ab61447e1bd502f3bb4807af3b28e620d1700a6ee4560405160405180910390a483945050505050919050565b6000600660009054906101000a900473ffffffffffffffffffffffffffffffffffffffff1673ffffffffffffffffffffffffffffffffffffffff166370a08231306040518263ffffffff1660e01b8152600401610c9b919061259f565b602060405180830381865afa158015610cb8573d6000803e3d6000fd5b505050506040513d601f19601f82011682018060405250810190610cdc9190612e18565b905090565b6000610ceb610c3e565b90506000610cfa844784611fee565b905082811015610d3f576040517f08c379a0000000000000000000000000000000000000000000000000000000008152600401610d3690612bc2565b60405180910390fd5b600660009054906101000a900473ffffffffffffffffffffffffffffffffffffffff1673ffffffffffffffffffffffffffffffffffffffff166323b872dd3330876040518463ffffffff1660e01b8152600401610d9e93929190612c98565b6020604051808303816000875af1158015610dbd573d6000803e3d6000fd5b505050506040513d601f19601f82011682018060405250810190610de19190612c37565b503373ffffffffffffffffffffffffffffffffffffffff166108fc829081150290604051600060405180830381858888f19350505050158015610e28573d6000803e3d6000fd5b5083813373ffffffffffffffffffffffffffffffffffffffff167f5a1e673945c465d80ae35013d0da05934c0e037190dca541b408ed4ea402e3e360405160405180910390a450505050565b60008060008373ffffffffffffffffffffffffffffffffffffffff1673ffffffffffffffffffffffffffffffffffffffff168152602001908152602001600020549050919050565b60003411610eff576040517f08c379a0000000000000000000000000000000000000000000000000000000008152600401610ef690612eb7565b60405180910390fd5b565b6000808211610f45576040517f08c379a0000000000000000000000000000000000000000000000000000000008152600401610f3c90612f49565b60405180910390fd5b6000610f4f610c3e565b9050610f5c838247611fee565b915050919050565b606060048054610f7390612abc565b80601f0160208091040260200160405190810160405280929190818152602001828054610f9f90612abc565b8015610fec5780601f10610fc157610100808354040283529160200191610fec565b820191906000526020600020905b815481529060010190602001808311610fcf57829003601f168201915b5050505050905090565b6000806000831161103c576040517f08c379a000000000000000000000000000000000000000000000000000000000815260040161103390612fdb565b60405180910390fd5b600047905060008111611084576040517f08c379a000000000000000000000000000000000000000000000000000000000815260040161107b9061306d565b60405180910390fd5b600061108e610762565b9050600081868461109f9190612ccf565b6110a99190612d40565b9050600082876110b7610c3e565b6110c19190612ccf565b6110cb9190612d40565b90506110d733886121e9565b3373ffffffffffffffffffffffffffffffffffffffff166108fc839081150290604051600060405180830381858888f1935050505015801561111d573d6000803e3d6000fd5b50600660009054906101000a900473ffffffffffffffffffffffffffffffffffffffff1673ffffffffffffffffffffffffffffffffffffffff1663095ea7b333836040518363ffffffff1660e01b815260040161117b929190612be2565b6020604051808303816000875af115801561119a573d6000803e3d6000fd5b505050506040513d601f19601f820116820180604052508101906111be9190612c37565b50600660009054906101000a900473ffffffffffffffffffffffffffffffffffffffff1673ffffffffffffffffffffffffffffffffffffffff1663a9059cbb33836040518363ffffffff1660e01b815260040161121c929190612be2565b6020604051808303816000875af115801561123b573d6000803e3d6000fd5b505050506040513d601f19601f8201168201806040525081019061125f9190612c37565b5080823373ffffffffffffffffffffffffffffffffffffffff167f96cd817c6329656790ef8fba7675405193677d39619571282f5e21f3a98cd05960405160405180910390a481819550955050505050915091565b600660009054906101000a900473ffffffffffffffffffffffffffffffffffffffff1681565b6000806112e5611b1b565b905060006112f38286611726565b905083811015611338576040517f08c379a000000000000000000000000000000000000000000000000000000000815260040161132f906130ff565b60405180910390fd5b6113458286868403611b23565b60019250505092915050565b60008061135c611b1b565b9050611369818585611d78565b600191505092915050565b61137c6109d1565b73ffffffffffffffffffffffffffffffffffffffff166324d7806c336040518263ffffffff1660e01b81526004016113b4919061259f565b602060405180830381865afa1580156113d1573d6000803e3d6000fd5b505050506040513d601f19601f820116820180604052508101906113f59190612c37565b611434576040517f08c379a000000000000000000000000000000000000000000000000000000000815260040161142b90613191565b60405180910390fd5b600073ffffffffffffffffffffffffffffffffffffffff168273ffffffffffffffffffffffffffffffffffffffff16036114a3576040517f08c379a000000000000000000000000000000000000000000000000000000000815260040161149a906131fd565b60405180910390fd5b3373ffffffffffffffffffffffffffffffffffffffff168273ffffffffffffffffffffffffffffffffffffffff16148061150857503273ffffffffffffffffffffffffffffffffffffffff168273ffffffffffffffffffffffffffffffffffffffff16145b8061159057506115166109d1565b73ffffffffffffffffffffffffffffffffffffffff166324d7806c836040518263ffffffff1660e01b815260040161154e919061323e565b602060405180830381865afa15801561156b573d6000803e3d6000fd5b505050506040513d601f19601f8201168201806040525081019061158f9190612c37565b5b6115cf576040517f08c379a00000000000000000000000000000000000000000000000000000000081526004016115c6906132cb565b60405180910390fd5b47811015611612576040517f08c379a000000000000000000000000000000000000000000000000000000000815260040161160990613337565b60405180910390fd5b60008273ffffffffffffffffffffffffffffffffffffffff168260405161163890613388565b60006040518083038185875af1925050503d8060008114611675576040519150601f19603f3d011682016040523d82523d6000602084013e61167a565b606091505b50509050806116be576040517f08c379a00000000000000000000000000000000000000000000000000000000081526004016116b5906133e9565b60405180910390fd5b505050565b6000808211611707576040517f08c379a00000000000000000000000000000000000000000000000000000000081526004016116fe9061347b565b60405180910390fd5b6000611711610c3e565b905061171e834783611fee565b915050919050565b6000600160008473ffffffffffffffffffffffffffffffffffffffff1673ffffffffffffffffffffffffffffffffffffffff16815260200190815260200160002060008373ffffffffffffffffffffffffffffffffffffffff1673ffffffffffffffffffffffffffffffffffffffff16815260200190815260200160002054905092915050565b6117b781336107a4565b50565b600760009054906101000a900473ffffffffffffffffffffffffffffffffffffffff1681565b6000600760009054906101000a900473ffffffffffffffffffffffffffffffffffffffff1673ffffffffffffffffffffffffffffffffffffffff166306f2bf62836040518263ffffffff1660e01b815260040161183d919061259f565b602060405180830381865afa15801561185a573d6000803e3d6000fd5b505050506040513d601f19601f8201168201806040525081019061187e91906134b0565b90503073ffffffffffffffffffffffffffffffffffffffff168173ffffffffffffffffffffffffffffffffffffffff16141580156118e95750600073ffffffffffffffffffffffffffffffffffffffff168173ffffffffffffffffffffffffffffffffffffffff1614155b611928576040517f08c379a000000000000000000000000000000000000000000000000000000000815260040161191f9061354f565b60405180910390fd5b6000611932610c3e565b90506000611941868347611fee565b9050600660009054906101000a900473ffffffffffffffffffffffffffffffffffffffff1673ffffffffffffffffffffffffffffffffffffffff166323b872dd3330896040518463ffffffff1660e01b81526004016119a293929190612c98565b6020604051808303816000875af11580156119c1573d6000803e3d6000fd5b505050506040513d601f19601f820116820180604052508101906119e59190612c37565b508273ffffffffffffffffffffffffffffffffffffffff1663389d9a408287336040518463ffffffff1660e01b8152600401611a2292919061356f565b6000604051808303818588803b158015611a3b57600080fd5b505af1158015611a4f573d6000803e3d6000fd5b5050505050505050505050565b81600560006101000a81548173ffffffffffffffffffffffffffffffffffffffff021916908373ffffffffffffffffffffffffffffffffffffffff1602179055506000611aa76109d1565b90508073ffffffffffffffffffffffffffffffffffffffff16637fb99b9330846040518363ffffffff1660e01b8152600401611ae4929190613598565b600060405180830381600087803b158015611afe57600080fd5b505af1158015611b12573d6000803e3d6000fd5b50505050505050565b600033905090565b600073ffffffffffffffffffffffffffffffffffffffff168373ffffffffffffffffffffffffffffffffffffffff1603611b92576040517f08c379a0000000000000000000000000000000000000000000000000000000008152600401611b899061363a565b60405180910390fd5b600073ffffffffffffffffffffffffffffffffffffffff168273ffffffffffffffffffffffffffffffffffffffff1603611c01576040517f08c379a0000000000000000000000000000000000000000000000000000000008152600401611bf8906136cc565b60405180910390fd5b80600160008573ffffffffffffffffffffffffffffffffffffffff1673ffffffffffffffffffffffffffffffffffffffff16815260200190815260200160002060008473ffffffffffffffffffffffffffffffffffffffff1673ffffffffffffffffffffffffffffffffffffffff168152602001908152602001600020819055508173ffffffffffffffffffffffffffffffffffffffff168373ffffffffffffffffffffffffffffffffffffffff167f8c5be1e5ebec7d5bd14f71427d1e84f3dd0314c0f7b2291e5b200ac8c7c3b92583604051611cdf91906125c9565b60405180910390a3505050565b6000611cf88484611726565b90507fffffffffffffffffffffffffffffffffffffffffffffffffffffffffffffffff8114611d725781811015611d64576040517f08c379a0000000000000000000000000000000000000000000000000000000008152600401611d5b90613738565b60405180910390fd5b611d718484848403611b23565b5b50505050565b600073ffffffffffffffffffffffffffffffffffffffff168373ffffffffffffffffffffffffffffffffffffffff1603611de7576040517f08c379a0000000000000000000000000000000000000000000000000000000008152600401611dde906137ca565b60405180910390fd5b600073ffffffffffffffffffffffffffffffffffffffff168273ffffffffffffffffffffffffffffffffffffffff1603611e56576040517f08c379a0000000000000000000000000000000000000000000000000000000008152600401611e4d9061385c565b60405180910390fd5b611e618383836123b6565b60008060008573ffffffffffffffffffffffffffffffffffffffff1673ffffffffffffffffffffffffffffffffffffffff16815260200190815260200160002054905081811015611ee7576040517f08c379a0000000000000000000000000000000000000000000000000000000008152600401611ede906138ee565b60405180910390fd5b8181036000808673ffffffffffffffffffffffffffffffffffffffff1673ffffffffffffffffffffffffffffffffffffffff16815260200190815260200160002081905550816000808573ffffffffffffffffffffffffffffffffffffffff1673ffffffffffffffffffffffffffffffffffffffff168152602001908152602001600020600082825401925050819055508273ffffffffffffffffffffffffffffffffffffffff168473ffffffffffffffffffffffffffffffffffffffff167fddf252ad1be2c89b69c2b068fc378daa952ba7f163c4a11628f55a4df523b3ef84604051611fd591906125c9565b60405180910390a3611fe88484846123bb565b50505050565b60008083118015611fff5750600082115b61203e576040517f08c379a000000000000000000000000000000000000000000000000000000000815260040161203590613980565b60405180910390fd5b600060638561204d9190612ccf565b90506000838261205d9190612ccf565b905060008260648761206f9190612ccf565b6120799190612c64565b905080826120879190612d40565b93505050509392505050565b600073ffffffffffffffffffffffffffffffffffffffff168273ffffffffffffffffffffffffffffffffffffffff1603612102576040517f08c379a00000000000000000000000000000000000000000000000000000000081526004016120f9906139ec565b60405180910390fd5b61210e600083836123b6565b80600260008282546121209190612c64565b92505081905550806000808473ffffffffffffffffffffffffffffffffffffffff1673ffffffffffffffffffffffffffffffffffffffff168152602001908152602001600020600082825401925050819055508173ffffffffffffffffffffffffffffffffffffffff16600073ffffffffffffffffffffffffffffffffffffffff167fddf252ad1be2c89b69c2b068fc378daa952ba7f163c4a11628f55a4df523b3ef836040516121d191906125c9565b60405180910390a36121e5600083836123bb565b5050565b600073ffffffffffffffffffffffffffffffffffffffff168273ffffffffffffffffffffffffffffffffffffffff1603612258576040517f08c379a000000000000000000000000000000000000000000000000000000000815260040161224f90613a7e565b60405180910390fd5b612264826000836123b6565b60008060008473ffffffffffffffffffffffffffffffffffffffff1673ffffffffffffffffffffffffffffffffffffffff168152602001908152602001600020549050818110156122ea576040517f08c379a00000000000000000000000000000000000000000000000000000000081526004016122e190613b10565b60405180910390fd5b8181036000808573ffffffffffffffffffffffffffffffffffffffff1673ffffffffffffffffffffffffffffffffffffffff1681526020019081526020016000208190555081600260008282540392505081905550600073ffffffffffffffffffffffffffffffffffffffff168373ffffffffffffffffffffffffffffffffffffffff167fddf252ad1be2c89b69c2b068fc378daa952ba7f163c4a11628f55a4df523b3ef8460405161239d91906125c9565b60405180910390a36123b1836000846123bb565b505050565b505050565b505050565b600081519050919050565b600082825260208201905092915050565b60005b838110156123fa5780820151818401526020810190506123df565b60008484015250505050565b6000601f19601f8301169050919050565b6000612422826123c0565b61242c81856123cb565b935061243c8185602086016123dc565b61244581612406565b840191505092915050565b6000602082019050818103600083015261246a8184612417565b905092915050565b6000604051905090565b600080fd5b600080fd5b600073ffffffffffffffffffffffffffffffffffffffff82169050919050565b60006124b182612486565b9050919050565b6124c1816124a6565b81146124cc57600080fd5b50565b6000813590506124de816124b8565b92915050565b6000819050919050565b6124f7816124e4565b811461250257600080fd5b50565b600081359050612514816124ee565b92915050565b600080604083850312156125315761253061247c565b5b600061253f858286016124cf565b925050602061255085828601612505565b9150509250929050565b60008115159050919050565b61256f8161255a565b82525050565b600060208201905061258a6000830184612566565b92915050565b612599816124a6565b82525050565b60006020820190506125b46000830184612590565b92915050565b6125c3816124e4565b82525050565b60006020820190506125de60008301846125ba565b92915050565b6000806000606084860312156125fd576125fc61247c565b5b600061260b868287016124cf565b935050602061261c868287016124cf565b925050604061262d86828701612505565b9150509250925092565b600060ff82169050919050565b61264d81612637565b82525050565b60006020820190506126686000830184612644565b92915050565b600080604083850312156126855761268461247c565b5b600061269385828601612505565b92505060206126a4858286016124cf565b9150509250929050565b6000819050919050565b60006126d36126ce6126c984612486565b6126ae565b612486565b9050919050565b60006126e5826126b8565b9050919050565b60006126f7826126da565b9050919050565b612707816126ec565b82525050565b600060208201905061272260008301846126fe565b92915050565b60006020828403121561273e5761273d61247c565b5b600061274c84828501612505565b91505092915050565b6000806040838503121561276c5761276b61247c565b5b600061277a85828601612505565b925050602061278b85828601612505565b9150509250929050565b6000602082840312156127ab576127aa61247c565b5b60006127b9848285016124cf565b91505092915050565b60006040820190506127d760008301856125ba565b6127e460208301846125ba565b9392505050565b60006127f682612486565b9050919050565b612806816127eb565b811461281157600080fd5b50565b600081359050612823816127fd565b92915050565b600080604083850312156128405761283f61247c565b5b600061284e85828601612814565b925050602061285f85828601612505565b9150509250929050565b600080604083850312156128805761287f61247c565b5b600061288e858286016124cf565b925050602061289f858286016124cf565b9150509250929050565b6000806000606084860312156128c2576128c161247c565b5b60006128d086828701612505565b93505060206128e186828701612505565b92505060406128f2868287016124cf565b9150509250925092565b600080fd5b600080fd5b7f4e487b7100000000000000000000000000000000000000000000000000000000600052604160045260246000fd5b61293e82612406565b810181811067ffffffffffffffff8211171561295d5761295c612906565b5b80604052505050565b6000612970612472565b905061297c8282612935565b919050565b600067ffffffffffffffff82111561299c5761299b612906565b5b6129a582612406565b9050602081019050919050565b82818337600083830152505050565b60006129d46129cf84612981565b612966565b9050828152602081018484840111156129f0576129ef612901565b5b6129fb8482856129b2565b509392505050565b600082601f830112612a1857612a176128fc565b5b8135612a288482602086016129c1565b91505092915050565b60008060408385031215612a4857612a4761247c565b5b6000612a56858286016124cf565b925050602083013567ffffffffffffffff811115612a7757612a76612481565b5b612a8385828601612a03565b9150509250929050565b7f4e487b7100000000000000000000000000000000000000000000000000000000600052602260045260246000fd5b60006002820490506001821680612ad457607f821691505b602082108103612ae757612ae6612a8d565b5b50919050565b7f4e487b7100000000000000000000000000000000000000000000000000000000600052601160045260246000fd5b6000612b27826124e4565b9150612b32836124e4565b9250828203905081811115612b4a57612b49612aed565b5b92915050565b7f41737369676e6d656e7420342045786368616e67653a20696e7375666669636960008201527f656e74206f757470757420616d6f756e74000000000000000000000000000000602082015250565b6000612bac6031836123cb565b9150612bb782612b50565b604082019050919050565b60006020820190508181036000830152612bdb81612b9f565b9050919050565b6000604082019050612bf76000830185612590565b612c0460208301846125ba565b9392505050565b612c148161255a565b8114612c1f57600080fd5b50565b600081519050612c3181612c0b565b92915050565b600060208284031215612c4d57612c4c61247c565b5b6000612c5b84828501612c22565b91505092915050565b6000612c6f826124e4565b9150612c7a836124e4565b9250828201905080821115612c9257612c91612aed565b5b92915050565b6000606082019050612cad6000830186612590565b612cba6020830185612590565b612cc760408301846125ba565b949350505050565b6000612cda826124e4565b9150612ce5836124e4565b9250828202612cf3816124e4565b91508282048414831517612d0a57612d09612aed565b5b5092915050565b7f4e487b7100000000000000000000000000000000000000000000000000000000600052601260045260246000fd5b6000612d4b826124e4565b9150612d56836124e4565b925082612d6657612d65612d11565b5b828204905092915050565b7f41737369676e6d656e7420342045786368616e67653a20696e7375666669636960008201527f656e7420746f6b656e20616d6f756e7400000000000000000000000000000000602082015250565b6000612dcd6030836123cb565b9150612dd882612d71565b604082019050919050565b60006020820190508181036000830152612dfc81612dc0565b9050919050565b600081519050612e12816124ee565b92915050565b600060208284031215612e2e57612e2d61247c565b5b6000612e3c84828501612e03565b91505092915050565b7f41737369676e6d656e7420342052656769737472793a20696e76616c6964206160008201527f6d6f756e74000000000000000000000000000000000000000000000000000000602082015250565b6000612ea16025836123cb565b9150612eac82612e45565b604082019050919050565b60006020820190508181036000830152612ed081612e94565b9050919050565b7f41737369676e6d656e7420342045786368616e67653a20746f6b656e536f6c6460008201527f2063616e6e6f74206265207a65726f0000000000000000000000000000000000602082015250565b6000612f33602f836123cb565b9150612f3e82612ed7565b604082019050919050565b60006020820190508181036000830152612f6281612f26565b9050919050565b7f41737369676e6d656e7420342045786368616e67653a20696e76616c6964206160008201527f6d6f756e74000000000000000000000000000000000000000000000000000000602082015250565b6000612fc56025836123cb565b9150612fd082612f69565b604082019050919050565b60006020820190508181036000830152612ff481612fb8565b9050919050565b7f41737369676e6d656e7420342045786368616e67653a2045746820616d6f756e60008201527f7420697320300000000000000000000000000000000000000000000000000000602082015250565b60006130576026836123cb565b915061306282612ffb565b604082019050919050565b600060208201905081810360008301526130868161304a565b9050919050565b7f45524332303a2064656372656173656420616c6c6f77616e63652062656c6f7760008201527f207a65726f000000000000000000000000000000000000000000000000000000602082015250565b60006130e96025836123cb565b91506130f48261308d565b604082019050919050565b60006020820190508181036000830152613118816130dc565b9050919050565b7f4f6e6c7920636f6e74726163742061646d696e2063616e20776974686472617760008201527f2066756e64730000000000000000000000000000000000000000000000000000602082015250565b600061317b6026836123cb565b91506131868261311f565b604082019050919050565b600060208201905081810360008301526131aa8161316e565b9050919050565b7f496e76616c696420616464726573730000000000000000000000000000000000600082015250565b60006131e7600f836123cb565b91506131f2826131b1565b602082019050919050565b60006020820190508181036000830152613216816131da565b9050919050565b6000613228826126da565b9050919050565b6132388161321d565b82525050565b6000602082019050613253600083018461322f565b92915050565b7f46756e64732063616e206f6e6c792062652077697468647261776e20746f206160008201527f646d696e2c206d73672e73656e646572206f722074782e6f726967696e000000602082015250565b60006132b5603d836123cb565b91506132c082613259565b604082019050919050565b600060208201905081810360008301526132e4816132a8565b9050919050565b7f496e73756666696369656e742066756e64730000000000000000000000000000600082015250565b60006133216012836123cb565b915061332c826132eb565b602082019050919050565b6000602082019050818103600083015261335081613314565b9050919050565b600081905092915050565b50565b6000613372600083613357565b915061337d82613362565b600082019050919050565b600061339382613365565b9150819050919050565b7f5472616e73666572206661696c65642e00000000000000000000000000000000600082015250565b60006133d36010836123cb565b91506133de8261339d565b602082019050919050565b60006020820190508181036000830152613402816133c6565b9050919050565b7f41737369676e6d656e7420342045786368616e67653a20657468536f6c64206360008201527f616e6e6f74206265207a65726f00000000000000000000000000000000000000602082015250565b6000613465602d836123cb565b915061347082613409565b604082019050919050565b6000602082019050818103600083015261349481613458565b9050919050565b6000815190506134aa816124b8565b92915050565b6000602082840312156134c6576134c561247c565b5b60006134d48482850161349b565b91505092915050565b7f41737369676e6d656e7420342045786368616e67653a20696e76616c6964206560008201527f786368616e676520616464726573730000000000000000000000000000000000602082015250565b6000613539602f836123cb565b9150613544826134dd565b604082019050919050565b600060208201905081810360008301526135688161352c565b9050919050565b600060408201905061358460008301856125ba565b6135916020830184612590565b9392505050565b60006040820190506135ad6000830185612590565b81810360208301526135bf8184612417565b90509392505050565b7f45524332303a20617070726f76652066726f6d20746865207a65726f2061646460008201527f7265737300000000000000000000000000000000000000000000000000000000602082015250565b60006136246024836123cb565b915061362f826135c8565b604082019050919050565b6000602082019050818103600083015261365381613617565b9050919050565b7f45524332303a20617070726f766520746f20746865207a65726f20616464726560008201527f7373000000000000000000000000000000000000000000000000000000000000602082015250565b60006136b66022836123cb565b91506136c18261365a565b604082019050919050565b600060208201905081810360008301526136e5816136a9565b9050919050565b7f45524332303a20696e73756666696369656e7420616c6c6f77616e6365000000600082015250565b6000613722601d836123cb565b915061372d826136ec565b602082019050919050565b6000602082019050818103600083015261375181613715565b9050919050565b7f45524332303a207472616e736665722066726f6d20746865207a65726f20616460008201527f6472657373000000000000000000000000000000000000000000000000000000602082015250565b60006137b46025836123cb565b91506137bf82613758565b604082019050919050565b600060208201905081810360008301526137e3816137a7565b9050919050565b7f45524332303a207472616e7366657220746f20746865207a65726f206164647260008201527f6573730000000000000000000000000000000000000000000000000000000000602082015250565b60006138466023836123cb565b9150613851826137ea565b604082019050919050565b6000602082019050818103600083015261387581613839565b9050919050565b7f45524332303a207472616e7366657220616d6f756e742065786365656473206260008201527f616c616e63650000000000000000000000000000000000000000000000000000602082015250565b60006138d86026836123cb565b91506138e38261387c565b604082019050919050565b60006020820190508181036000830152613907816138cb565b9050919050565b7f41737369676e6d656e7420342045786368616e67653a20696e76616c6964207260008201527f6573657276657300000000000000000000000000000000000000000000000000602082015250565b600061396a6027836123cb565b91506139758261390e565b604082019050919050565b600060208201905081810360008301526139998161395d565b9050919050565b7f45524332303a206d696e7420746f20746865207a65726f206164647265737300600082015250565b60006139d6601f836123cb565b91506139e1826139a0565b602082019050919050565b60006020820190508181036000830152613a05816139c9565b9050919050565b7f45524332303a206275726e2066726f6d20746865207a65726f2061646472657360008201527f7300000000000000000000000000000000000000000000000000000000000000602082015250565b6000613a686021836123cb565b9150613a7382613a0c565b604082019050919050565b60006020820190508181036000830152613a9781613a5b565b9050919050565b7f45524332303a206275726e20616d6f756e7420657863656564732062616c616e60008201527f6365000000000000000000000000000000000000000000000000000000000000602082015250565b6000613afa6022836123cb565b9150613b0582613a9e565b604082019050919050565b60006020820190508181036000830152613b2981613aed565b905091905056fea2646970667358221220b334d31d224dcb072812720780e98c11f0956cd01feb58d44ca0f622fae0284964736f6c63430008120033535332332041737369676e6d656e7420342056616c696461746f7220436f6e7472616374202d2045786368616e676560806040523480156200001157600080fd5b5060405162001a6538038062001a658339818101604052810190620000379190620004e5565b62000062826040518060600160405280602f815260200162001a36602f91396200007b60201b60201c565b62000073816200014560201b60201c565b505062000793565b816000806101000a81548173ffffffffffffffffffffffffffffffffffffffff021916908373ffffffffffffffffffffffffffffffffffffffff1602179055506000620000cd6200045260201b60201c565b90508073ffffffffffffffffffffffffffffffffffffffff16637fb99b9330846040518363ffffffff1660e01b81526004016200010c929190620005d7565b600060405180830381600087803b1580156200012757600080fd5b505af11580156200013c573d6000803e3d6000fd5b50505050505050565b600073ffffffffffffffffffffffffffffffffffffffff168173ffffffffffffffffffffffffffffffffffffffff1603620001b7576040517f08c379a0000000000000000000000000000000000000000000000000000000008152600401620001ae906200065b565b60405180910390fd5b600073ffffffffffffffffffffffffffffffffffffffff16600160008373ffffffffffffffffffffffffffffffffffffffff1673ffffffffffffffffffffffffffffffffffffffff16815260200190815260200160002060009054906101000a900473ffffffffffffffffffffffffffffffffffffffff1673ffffffffffffffffffffffffffffffffffffffff161462000288576040517f08c379a00000000000000000000000000000000000000000000000000000000081526004016200027f90620006cd565b60405180910390fd5b600081905060008173ffffffffffffffffffffffffffffffffffffffff166310fe9ae86040518163ffffffff1660e01b8152600401602060405180830381865afa158015620002db573d6000803e3d6000fd5b505050506040513d601f19601f82011682018060405250810190620003019190620006ef565b9050600073ffffffffffffffffffffffffffffffffffffffff168173ffffffffffffffffffffffffffffffffffffffff160362000375576040517f08c379a00000000000000000000000000000000000000000000000000000000081526004016200036c9062000771565b60405180910390fd5b82600160008373ffffffffffffffffffffffffffffffffffffffff1673ffffffffffffffffffffffffffffffffffffffff16815260200190815260200160002060006101000a81548173ffffffffffffffffffffffffffffffffffffffff021916908373ffffffffffffffffffffffffffffffffffffffff1602179055508273ffffffffffffffffffffffffffffffffffffffff168173ffffffffffffffffffffffffffffffffffffffff167f9d42cb017eb05bd8944ab536a8b35bc68085931dd5f4356489801453923953f960405160405180910390a3505050565b60008060009054906101000a900473ffffffffffffffffffffffffffffffffffffffff16905090565b600080fd5b600073ffffffffffffffffffffffffffffffffffffffff82169050919050565b6000620004ad8262000480565b9050919050565b620004bf81620004a0565b8114620004cb57600080fd5b50565b600081519050620004df81620004b4565b92915050565b60008060408385031215620004ff57620004fe6200047b565b5b60006200050f85828601620004ce565b92505060206200052285828601620004ce565b9150509250929050565b6200053781620004a0565b82525050565b600081519050919050565b600082825260208201905092915050565b60005b83811015620005795780820151818401526020810190506200055c565b60008484015250505050565b6000601f19601f8301169050919050565b6000620005a3826200053d565b620005af818562000548565b9350620005c181856020860162000559565b620005cc8162000585565b840191505092915050565b6000604082019050620005ee60008301856200052c565b818103602083015262000602818462000596565b90509392505050565b7f696e76616c69642065786368616e676520616464726573730000000000000000600082015250565b60006200064360188362000548565b915062000650826200060b565b602082019050919050565b60006020820190508181036000830152620006768162000634565b9050919050565b7f65786368616e676520616c726561647920726567697374657265640000000000600082015250565b6000620006b5601b8362000548565b9150620006c2826200067d565b602082019050919050565b60006020820190508181036000830152620006e881620006a6565b9050919050565b6000602082840312156200070857620007076200047b565b5b60006200071884828501620004ce565b91505092915050565b7f696e76616c696420746f6b656e20616464726573730000000000000000000000600082015250565b60006200075960158362000548565b9150620007668262000721565b602082019050919050565b600060208201905081810360008301526200078c816200074a565b9050919050565b61129380620007a36000396000f3fe6080604052600436106100555760003560e01c806306f2bf621461005a578063516cbbe214610097578063c1075329146100c2578063c3c49a63146100de578063da517b671461011b578063fae45fbe14610144575b600080fd5b34801561006657600080fd5b50610081600480360381019061007c91906109b2565b61016d565b60405161008e91906109ee565b60405180910390f35b3480156100a357600080fd5b506100ac6101d6565b6040516100b99190610a68565b60405180910390f35b6100dc60048036038101906100d79190610af7565b6101ff565b005b3480156100ea57600080fd5b50610105600480360381019061010091906109b2565b61054e565b60405161011291906109ee565b60405180910390f35b34801561012757600080fd5b50610142600480360381019061013d91906109b2565b610581565b005b34801561015057600080fd5b5061016b60048036038101906101669190610c7d565b610882565b005b6000600160008373ffffffffffffffffffffffffffffffffffffffff1673ffffffffffffffffffffffffffffffffffffffff16815260200190815260200160002060009054906101000a900473ffffffffffffffffffffffffffffffffffffffff169050919050565b60008060009054906101000a900473ffffffffffffffffffffffffffffffffffffffff16905090565b6102076101d6565b73ffffffffffffffffffffffffffffffffffffffff166324d7806c336040518263ffffffff1660e01b815260040161023f91906109ee565b602060405180830381865afa15801561025c573d6000803e3d6000fd5b505050506040513d601f19601f820116820180604052508101906102809190610d11565b6102bf576040517f08c379a00000000000000000000000000000000000000000000000000000000081526004016102b690610dc1565b60405180910390fd5b600073ffffffffffffffffffffffffffffffffffffffff168273ffffffffffffffffffffffffffffffffffffffff160361032e576040517f08c379a000000000000000000000000000000000000000000000000000000000815260040161032590610e2d565b60405180910390fd5b3373ffffffffffffffffffffffffffffffffffffffff168273ffffffffffffffffffffffffffffffffffffffff16148061039357503273ffffffffffffffffffffffffffffffffffffffff168273ffffffffffffffffffffffffffffffffffffffff16145b8061041b57506103a16101d6565b73ffffffffffffffffffffffffffffffffffffffff166324d7806c836040518263ffffffff1660e01b81526004016103d99190610e6e565b602060405180830381865afa1580156103f6573d6000803e3d6000fd5b505050506040513d601f19601f8201168201806040525081019061041a9190610d11565b5b61045a576040517f08c379a000000000000000000000000000000000000000000000000000000000815260040161045190610efb565b60405180910390fd5b4781101561049d576040517f08c379a000000000000000000000000000000000000000000000000000000000815260040161049490610f67565b60405180910390fd5b60008273ffffffffffffffffffffffffffffffffffffffff16826040516104c390610fb8565b60006040518083038185875af1925050503d8060008114610500576040519150601f19603f3d011682016040523d82523d6000602084013e610505565b606091505b5050905080610549576040517f08c379a000000000000000000000000000000000000000000000000000000000815260040161054090611019565b60405180910390fd5b505050565b60016020528060005260406000206000915054906101000a900473ffffffffffffffffffffffffffffffffffffffff1681565b600073ffffffffffffffffffffffffffffffffffffffff168173ffffffffffffffffffffffffffffffffffffffff16036105f0576040517f08c379a00000000000000000000000000000000000000000000000000000000081526004016105e790611085565b60405180910390fd5b600073ffffffffffffffffffffffffffffffffffffffff16600160008373ffffffffffffffffffffffffffffffffffffffff1673ffffffffffffffffffffffffffffffffffffffff16815260200190815260200160002060009054906101000a900473ffffffffffffffffffffffffffffffffffffffff1673ffffffffffffffffffffffffffffffffffffffff16146106be576040517f08c379a00000000000000000000000000000000000000000000000000000000081526004016106b5906110f1565b60405180910390fd5b600081905060008173ffffffffffffffffffffffffffffffffffffffff166310fe9ae86040518163ffffffff1660e01b8152600401602060405180830381865afa158015610710573d6000803e3d6000fd5b505050506040513d601f19601f820116820180604052508101906107349190611126565b9050600073ffffffffffffffffffffffffffffffffffffffff168173ffffffffffffffffffffffffffffffffffffffff16036107a5576040517f08c379a000000000000000000000000000000000000000000000000000000000815260040161079c9061119f565b60405180910390fd5b82600160008373ffffffffffffffffffffffffffffffffffffffff1673ffffffffffffffffffffffffffffffffffffffff16815260200190815260200160002060006101000a81548173ffffffffffffffffffffffffffffffffffffffff021916908373ffffffffffffffffffffffffffffffffffffffff1602179055508273ffffffffffffffffffffffffffffffffffffffff168173ffffffffffffffffffffffffffffffffffffffff167f9d42cb017eb05bd8944ab536a8b35bc68085931dd5f4356489801453923953f960405160405180910390a3505050565b816000806101000a81548173ffffffffffffffffffffffffffffffffffffffff021916908373ffffffffffffffffffffffffffffffffffffffff16021790555060006108cc6101d6565b90508073ffffffffffffffffffffffffffffffffffffffff16637fb99b9330846040518363ffffffff1660e01b815260040161090992919061122d565b600060405180830381600087803b15801561092357600080fd5b505af1158015610937573d6000803e3d6000fd5b50505050505050565b6000604051905090565b600080fd5b600080fd5b600073ffffffffffffffffffffffffffffffffffffffff82169050919050565b600061097f82610954565b9050919050565b61098f81610974565b811461099a57600080fd5b50565b6000813590506109ac81610986565b92915050565b6000602082840312156109c8576109c761094a565b5b60006109d68482850161099d565b91505092915050565b6109e881610974565b82525050565b6000602082019050610a0360008301846109df565b92915050565b6000819050919050565b6000610a2e610a29610a2484610954565b610a09565b610954565b9050919050565b6000610a4082610a13565b9050919050565b6000610a5282610a35565b9050919050565b610a6281610a47565b82525050565b6000602082019050610a7d6000830184610a59565b92915050565b6000610a8e82610954565b9050919050565b610a9e81610a83565b8114610aa957600080fd5b50565b600081359050610abb81610a95565b92915050565b6000819050919050565b610ad481610ac1565b8114610adf57600080fd5b50565b600081359050610af181610acb565b92915050565b60008060408385031215610b0e57610b0d61094a565b5b6000610b1c85828601610aac565b9250506020610b2d85828601610ae2565b9150509250929050565b600080fd5b600080fd5b6000601f19601f8301169050919050565b7f4e487b7100000000000000000000000000000000000000000000000000000000600052604160045260246000fd5b610b8a82610b41565b810181811067ffffffffffffffff82111715610ba957610ba8610b52565b5b80604052505050565b6000610bbc610940565b9050610bc88282610b81565b919050565b600067ffffffffffffffff821115610be857610be7610b52565b5b610bf182610b41565b9050602081019050919050565b82818337600083830152505050565b6000610c20610c1b84610bcd565b610bb2565b905082815260208101848484011115610c3c57610c3b610b3c565b5b610c47848285610bfe565b509392505050565b600082601f830112610c6457610c63610b37565b5b8135610c74848260208601610c0d565b91505092915050565b60008060408385031215610c9457610c9361094a565b5b6000610ca28582860161099d565b925050602083013567ffffffffffffffff811115610cc357610cc261094f565b5b610ccf85828601610c4f565b9150509250929050565b60008115159050919050565b610cee81610cd9565b8114610cf957600080fd5b50565b600081519050610d0b81610ce5565b92915050565b600060208284031215610d2757610d2661094a565b5b6000610d3584828501610cfc565b91505092915050565b600082825260208201905092915050565b7f4f6e6c7920636f6e74726163742061646d696e2063616e20776974686472617760008201527f2066756e64730000000000000000000000000000000000000000000000000000602082015250565b6000610dab602683610d3e565b9150610db682610d4f565b604082019050919050565b60006020820190508181036000830152610dda81610d9e565b9050919050565b7f496e76616c696420616464726573730000000000000000000000000000000000600082015250565b6000610e17600f83610d3e565b9150610e2282610de1565b602082019050919050565b60006020820190508181036000830152610e4681610e0a565b9050919050565b6000610e5882610a35565b9050919050565b610e6881610e4d565b82525050565b6000602082019050610e836000830184610e5f565b92915050565b7f46756e64732063616e206f6e6c792062652077697468647261776e20746f206160008201527f646d696e2c206d73672e73656e646572206f722074782e6f726967696e000000602082015250565b6000610ee5603d83610d3e565b9150610ef082610e89565b604082019050919050565b60006020820190508181036000830152610f1481610ed8565b9050919050565b7f496e73756666696369656e742066756e64730000000000000000000000000000600082015250565b6000610f51601283610d3e565b9150610f5c82610f1b565b602082019050919050565b60006020820190508181036000830152610f8081610f44565b9050919050565b600081905092915050565b50565b6000610fa2600083610f87565b9150610fad82610f92565b600082019050919050565b6000610fc382610f95565b9150819050919050565b7f5472616e73666572206661696c65642e00000000000000000000000000000000600082015250565b6000611003601083610d3e565b915061100e82610fcd565b602082019050919050565b6000602082019050818103600083015261103281610ff6565b9050919050565b7f696e76616c69642065786368616e676520616464726573730000000000000000600082015250565b600061106f601883610d3e565b915061107a82611039565b602082019050919050565b6000602082019050818103600083015261109e81611062565b9050919050565b7f65786368616e676520616c726561647920726567697374657265640000000000600082015250565b60006110db601b83610d3e565b91506110e6826110a5565b602082019050919050565b6000602082019050818103600083015261110a816110ce565b9050919050565b60008151905061112081610986565b92915050565b60006020828403121561113c5761113b61094a565b5b600061114a84828501611111565b91505092915050565b7f696e76616c696420746f6b656e20616464726573730000000000000000000000600082015250565b6000611189601583610d3e565b915061119482611153565b602082019050919050565b600060208201905081810360008301526111b88161117c565b9050919050565b600081519050919050565b60005b838110156111e85780820151818401526020810190506111cd565b60008484015250505050565b60006111ff826111bf565b6112098185610d3e565b93506112198185602086016111ca565b61122281610b41565b840191505092915050565b600060408201905061124260008301856109df565b818103602083015261125481846111f4565b9050939250505056fea26469706673582212207b54edbcbce7a437b5fc61a36531a92c8954a57b2f9a83a7be5b19191f698abd64736f6c63430008120033535332332041737369676e6d656e7420342056616c696461746f7220436f6e7472616374202d205265676973747279535332332041737369676e6d656e7420342056616c696461746f7220436f6e7472616374202d2042617365",
  "immutableReferences": {},
  "source": "// SPDX-License-Identifier: MIT\r\npragma solidity ^0.8.17;\r\n\r\n// Import the Interfaces\r\nimport \"./interface/IAssignment4.sol\";\r\nimport \"./interface/IAssignment4Coin.sol\";\r\n\r\n// Import the registry contract to use as Interface\r\nimport \"./helper/Assignment4Registry.sol\";\r\n\r\n// Import the exchange\r\nimport \"./helper/Assignment4Exchange.sol\";\r\n\r\n// Import the Coin\r\nimport \"./helper/Assignment4Coin.sol\";\r\n\r\n// Import the base assignment validator contract\r\nimport \"../BaseValidator.sol\";\r\n\r\n// Import Task A, B, C, D\r\nimport \"./Validator4TaskA.sol\";\r\nimport \"./Validator4TaskB.sol\";\r\nimport \"./Validator4TaskD.sol\";\r\n\r\n// Give the contract a name and inherit from the base assignment validator\r\ncontract Validator4 is BaseValidator {\r\n    // Contract to validate\r\n    IAssignment4 assignmentContract;\r\n\r\n    // Task A, B, C and D\r\n    Validator4TaskA validatorTaskA;\r\n    Validator4TaskB validatorTaskB;\r\n    Validator4TaskD validatorTaskD;\r\n\r\n    // Registry contract\r\n    Assignment4Registry registryContract;\r\n\r\n    // Coin contract\r\n    Assignment4Coin coinContract;\r\n\r\n    // Exchange contract\r\n    Assignment4Exchange exchangeContract;\r\n\r\n    constructor(address _configContractAddress)\r\n        payable\r\n        BaseValidator(\r\n            _configContractAddress,\r\n            \"SS23 Assignment 4 Validator Contract - Base\",\r\n            20000 gwei\r\n        )\r\n    {\r\n        // Task A, B, C and D\r\n        validatorTaskA = new Validator4TaskA(_configContractAddress);\r\n        validatorTaskB = new Validator4TaskB(_configContractAddress);\r\n        validatorTaskD = new Validator4TaskD(_configContractAddress);\r\n\r\n        // Assign contracts to the list of helper contracts\r\n        addHelperContracts(address(validatorTaskA));\r\n        addHelperContracts(address(validatorTaskB));\r\n        addHelperContracts(address(validatorTaskD));\r\n\r\n        // Create a new coin contract\r\n        coinContract = new Assignment4Coin(\r\n            \"SS23 Coin - Assignment 2\",\r\n            \"SS23\",\r\n            _configContractAddress\r\n        );\r\n        addHelperContracts(address(coinContract));\r\n\r\n        // Create a new exchange contract\r\n        exchangeContract = new Assignment4Exchange{value: 2000 gwei}(\r\n            address(coinContract),\r\n            _configContractAddress\r\n        );\r\n        addHelperContracts(address(exchangeContract));\r\n\r\n        // Create a new registry contract\r\n        registryContract = new Assignment4Registry(\r\n            _configContractAddress,\r\n            address(exchangeContract)\r\n        );\r\n        addHelperContracts(address(registryContract));\r\n    }\r\n\r\n    // Fallback function to make sure the contract can receive ether\r\n    receive() external payable {}\r\n\r\n    // Test the assignment\r\n    function test(address _contractAddress)\r\n        public\r\n        payable\r\n        override(BaseValidator)\r\n        returns (uint256)\r\n    {\r\n        uint256 testId = createTestHistory(_contractAddress);\r\n\r\n        // Call the contract interface which needs to be tested and store it in the variable assignmentContract\r\n        assignmentContract = IAssignment4(_contractAddress);\r\n\r\n        // Prepare and donate ether\r\n        if (!donateEther()) {\r\n            // Add the result to the history\r\n            appendTestResult(\"Error with donate ether function\", false, 0);\r\n            return testId;\r\n        }\r\n\r\n        /*----------  EXERCISE A  ----------*/\r\n\r\n        // Init the task A contract\r\n        validatorTaskA.initContract(_contractAddress);\r\n\r\n        if (hasFunction(address(validatorTaskA), \"testExerciseA()\", 0 ether)) {\r\n            // Run tests\r\n            (string memory messageA, bool successA) = validatorTaskA\r\n                .testExerciseA{value: 0 ether}();\r\n            if (successA) {\r\n                // Add the result to the history\r\n                appendTestResult(messageA, true, 1);\r\n            } else {\r\n                // Add the result to the history\r\n                appendTestResult(messageA, false, 0);\r\n            }\r\n        } else {\r\n            appendTestResult(\r\n                \"Exercise A: Some of the required functions are not correctly implemented. Validation not possible!\",\r\n                false,\r\n                0\r\n            );\r\n        }\r\n\r\n        /*----------  EXERCISE B  ----------*/\r\n\r\n        // Init the task B contract\r\n        validatorTaskB.initContract(_contractAddress);\r\n\r\n        if (\r\n            hasFunction(address(validatorTaskB), \"testExerciseB()\", 1000 gwei)\r\n        ) {\r\n            // Run tests\r\n            (string memory messageB, bool successB) = validatorTaskB\r\n                .testExerciseB{value: 1000 gwei}();\r\n            if (successB) {\r\n                // Add the result to the history\r\n                appendTestResult(messageB, true, 8);\r\n            } else {\r\n                // Add the result to the history\r\n                appendTestResult(messageB, false, 0);\r\n            }\r\n        } else {\r\n            appendTestResult(\r\n                \"Exercise B: Some of the required functions are not correctly implemented. Validation not possible!\",\r\n                false,\r\n                0\r\n            );\r\n        }\r\n\r\n        /*----------  EXERCISE C  ----------*/\r\n\r\n        appendTestResult(\"Exercise C: All tests passed.\", true, 1);\r\n\r\n        /*----------  EXERCISE D  ----------*/\r\n\r\n        // Init the task D contract\r\n        validatorTaskD.initContract(\r\n            _contractAddress,\r\n            address(registryContract),\r\n            address(coinContract)\r\n        );\r\n\r\n        if (hasFunction(address(validatorTaskD), \"testExerciseD()\", 200 gwei)) {\r\n            // Run tests\r\n            (string memory messageD, bool successD) = validatorTaskD\r\n                .testExerciseD{value: 200 gwei}();\r\n\r\n            if (successD) {\r\n                // Add the result to the history\r\n                appendTestResult(messageD, true, 5);\r\n            } else {\r\n                // Add the result to the history\r\n                appendTestResult(messageD, false, 0);\r\n            }\r\n        } else {\r\n            appendTestResult(\r\n                \"Exercise D: Some of the required functions are not correctly implemented. Validation not possible!\",\r\n                false,\r\n                0\r\n            );\r\n        }\r\n\r\n        return testId;\r\n    }\r\n\r\n    /*=============================================\r\n    =                    HELPER                  =\r\n    =============================================*/\r\n\r\n    // Donate ether to the contract if the balance is 0\r\n    function donateEther() public payable returns (bool) {\r\n        if (address(assignmentContract).balance == 0) {\r\n            try assignmentContract.donateEther{value: 100 gwei}() {\r\n                return true;\r\n            } catch {\r\n                return false;\r\n            }\r\n        }\r\n        return true;\r\n    }\r\n\r\n    /*=====          End of HELPER        ======*/\r\n}\r\n",
  "sourcePath": "C:\\Users\\jonas\\Repos\\mtp-blockchain\\smart-contracts\\contracts\\assignment_4\\Validator4.sol",
  "compiler": {
    "name": "solc",
    "version": "0.8.18+commit.87f61d96.Emscripten.clang"
  },
  "schemaVersion": "3.4.11",
  "updatedAt": "2023-02-16T19:17:35.124Z",
  "networkType": "ethereum",
  "devdoc": {
    "kind": "dev",
    "methods": {
      "getSubmittedAssignment(address)": {
        "params": {
          "_address": "Student address"
        },
        "returns": {
          "_0": "AssignmentSubmitted"
        }
      },
      "getTestHistoryIndexes(address)": {
        "params": {
          "_address": "Student address"
        },
        "returns": {
          "_0": "testIndexes Array of test history indexes"
        }
      },
      "hasAssignmentSubmitted(address)": {
        "params": {
          "_address": "Student address"
        },
        "returns": {
          "_0": "bool"
        }
      },
      "removeSubmittedAssignment(address)": {
        "params": {
          "_address": "Student address"
        }
      },
      "setAssignmentInfos(uint256,uint256)": {
        "params": {
          "assignmentId": "Assignment id",
          "semesterId": "Semester id"
        }
      }
    },
    "version": 1
  },
  "userdoc": {
    "kind": "user",
    "methods": {
      "clearAssignmentInfos()": {
        "notice": "Clear assignment infos"
      },
      "getAssignmentInfos()": {
        "notice": "Get assignment infos"
      },
      "getHistoryCounter()": {
        "notice": "Get test history counter"
      },
      "getRequiredEther()": {
        "notice": "Get required ether This amount of ether is required to submit or test an assignment"
      },
      "getSubmittedAssignment(address)": {
        "notice": "Get submitted assignment for address"
      },
      "getTestHistoryIndexes(address)": {
        "notice": "Get all test history indexes for a student MARK: The array has a fixed size, ignore all number besides 0"
      },
      "hasAssignmentSubmitted(address)": {
        "notice": "Check if assignment is submitted"
      },
      "isAssignmentLinked()": {
        "notice": "Check if assignment is linked to config storage"
      },
      "removeSubmittedAssignment(address)": {
        "notice": "Remove submitted assignment"
      },
      "setAssignmentCreationBlockNumber()": {
        "notice": "Set block number of contract creation"
      },
      "setAssignmentInfos(uint256,uint256)": {
        "notice": "Set assignment infos"
      },
      "setAssignmentOwner()": {
        "notice": "Set admin address"
      }
    },
    "version": 1
  }
}