{
  "contractName": "Validator1TaskE",
  "abi": [
    {
      "inputs": [
        {
          "internalType": "address",
          "name": "_configContractAddress",
          "type": "address"
        }
      ],
      "stateMutability": "nonpayable",
      "type": "constructor"
    },
    {
      "inputs": [
        {
          "internalType": "string",
          "name": "_prefix",
          "type": "string"
        },
        {
          "internalType": "string",
          "name": "_message",
          "type": "string"
        },
        {
          "internalType": "string",
          "name": "_errorMsg",
          "type": "string"
        }
      ],
      "name": "buildErrorMessage",
      "outputs": [
        {
          "internalType": "string",
          "name": "",
          "type": "string"
        }
      ],
      "stateMutability": "pure",
      "type": "function"
    },
    {
      "inputs": [
        {
          "internalType": "string",
          "name": "_prefix",
          "type": "string"
        },
        {
          "internalType": "string",
          "name": "_message",
          "type": "string"
        },
        {
          "internalType": "string",
          "name": "_expected",
          "type": "string"
        },
        {
          "internalType": "string",
          "name": "_actual",
          "type": "string"
        }
      ],
      "name": "buildErrorMessageExtended",
      "outputs": [
        {
          "internalType": "string",
          "name": "",
          "type": "string"
        }
      ],
      "stateMutability": "pure",
      "type": "function"
    },
    {
      "inputs": [
        {
          "internalType": "string",
          "name": "a",
          "type": "string"
        },
        {
          "internalType": "string",
          "name": "b",
          "type": "string"
        }
      ],
      "name": "compareStrings",
      "outputs": [
        {
          "internalType": "bool",
          "name": "",
          "type": "bool"
        }
      ],
      "stateMutability": "pure",
      "type": "function"
    },
    {
      "inputs": [],
      "name": "getConfigStorage",
      "outputs": [
        {
          "internalType": "contract ConfigStorage",
          "name": "",
          "type": "address"
        }
      ],
      "stateMutability": "view",
      "type": "function"
    },
    {
      "inputs": [
        {
          "internalType": "address",
          "name": "_configContractAddress",
          "type": "address"
        },
        {
          "internalType": "string",
          "name": "_contractName",
          "type": "string"
        }
      ],
      "name": "initAdmin",
      "outputs": [],
      "stateMutability": "nonpayable",
      "type": "function"
    },
    {
      "inputs": [
        {
          "internalType": "address payable",
          "name": "_to",
          "type": "address"
        },
        {
          "internalType": "uint256",
          "name": "_value",
          "type": "uint256"
        }
      ],
      "name": "withdrawFunds",
      "outputs": [],
      "stateMutability": "payable",
      "type": "function"
    },
    {
      "stateMutability": "payable",
      "type": "receive"
    },
    {
      "inputs": [
        {
          "internalType": "address",
          "name": "_contractAddress",
          "type": "address"
        },
        {
          "internalType": "address",
          "name": "_validator1HelperAddress",
          "type": "address"
        }
      ],
      "name": "initContract",
      "outputs": [],
      "stateMutability": "nonpayable",
      "type": "function"
    },
    {
      "inputs": [],
      "name": "testExerciseE",
      "outputs": [
        {
          "internalType": "string",
          "name": "",
          "type": "string"
        },
        {
          "internalType": "bool",
          "name": "",
          "type": "bool"
        }
      ],
      "stateMutability": "payable",
      "type": "function"
    }
  ],
  "bytecode": "0x60806040523480156200001157600080fd5b5060405162001d7438038062001d748339818101604052810190620000379190620001c6565b62000062816040518060600160405280602d815260200162001d47602d91396200006960201b60201c565b50620002d7565b816000806101000a81548173ffffffffffffffffffffffffffffffffffffffff021916908373ffffffffffffffffffffffffffffffffffffffff1602179055506000620000bb6200013360201b60201c565b90508073ffffffffffffffffffffffffffffffffffffffff16637fb99b9330846040518363ffffffff1660e01b8152600401620000fa929190620002a3565b600060405180830381600087803b1580156200011557600080fd5b505af11580156200012a573d6000803e3d6000fd5b50505050505050565b60008060009054906101000a900473ffffffffffffffffffffffffffffffffffffffff16905090565b600080fd5b600073ffffffffffffffffffffffffffffffffffffffff82169050919050565b60006200018e8262000161565b9050919050565b620001a08162000181565b8114620001ac57600080fd5b50565b600081519050620001c08162000195565b92915050565b600060208284031215620001df57620001de6200015c565b5b6000620001ef84828501620001af565b91505092915050565b620002038162000181565b82525050565b600081519050919050565b600082825260208201905092915050565b60005b838110156200024557808201518184015260208101905062000228565b60008484015250505050565b6000601f19601f8301169050919050565b60006200026f8262000209565b6200027b818562000214565b93506200028d81856020860162000225565b620002988162000251565b840191505092915050565b6000604082019050620002ba6000830185620001f8565b8181036020830152620002ce818462000262565b90509392505050565b611a6080620002e76000396000f3fe60806040526004361061007f5760003560e01c8063bed34bba1161004e578063bed34bba14610159578063c107532914610196578063db19a5da146101b2578063fae45fbe146101d157610086565b806325ba0f511461008b5780632b518301146100b4578063516cbbe2146100f15780635827a0651461011c57610086565b3661008657005b600080fd5b34801561009757600080fd5b506100b260048036038101906100ad9190610cd9565b6101fa565b005b3480156100c057600080fd5b506100db60048036038101906100d69190610e5f565b610280565b6040516100e89190610f85565b60405180910390f35b3480156100fd57600080fd5b506101066102af565b6040516101139190611006565b60405180910390f35b34801561012857600080fd5b50610143600480360381019061013e9190611021565b6102d8565b6040516101509190610f85565b60405180910390f35b34801561016557600080fd5b50610180600480360381019061017b91906110f8565b61030a565b60405161018d919061118b565b60405180910390f35b6101b060048036038101906101ab919061121a565b610363565b005b6101ba6106b2565b6040516101c892919061125a565b60405180910390f35b3480156101dd57600080fd5b506101f860048036038101906101f3919061128a565b610ba9565b005b81600160006101000a81548173ffffffffffffffffffffffffffffffffffffffff021916908373ffffffffffffffffffffffffffffffffffffffff16021790555080600260006101000a81548173ffffffffffffffffffffffffffffffffffffffff021916908373ffffffffffffffffffffffffffffffffffffffff1602179055505050565b6060838383604051602001610297939291906113ba565b60405160208183030381529060405290509392505050565b60008060009054906101000a900473ffffffffffffffffffffffffffffffffffffffff16905090565b6060848484846040516020016102f19493929190611499565b6040516020818303038152906040529050949350505050565b60008160405160200161031d91906114f8565b604051602081830303815290604052805190602001208360405160200161034491906114f8565b6040516020818303038152906040528051906020012014905092915050565b61036b6102af565b73ffffffffffffffffffffffffffffffffffffffff166324d7806c336040518263ffffffff1660e01b81526004016103a3919061151e565b602060405180830381865afa1580156103c0573d6000803e3d6000fd5b505050506040513d601f19601f820116820180604052508101906103e49190611565565b610423576040517f08c379a000000000000000000000000000000000000000000000000000000000815260040161041a90611604565b60405180910390fd5b600073ffffffffffffffffffffffffffffffffffffffff168273ffffffffffffffffffffffffffffffffffffffff1603610492576040517f08c379a000000000000000000000000000000000000000000000000000000000815260040161048990611670565b60405180910390fd5b3373ffffffffffffffffffffffffffffffffffffffff168273ffffffffffffffffffffffffffffffffffffffff1614806104f757503273ffffffffffffffffffffffffffffffffffffffff168273ffffffffffffffffffffffffffffffffffffffff16145b8061057f57506105056102af565b73ffffffffffffffffffffffffffffffffffffffff166324d7806c836040518263ffffffff1660e01b815260040161053d91906116b1565b602060405180830381865afa15801561055a573d6000803e3d6000fd5b505050506040513d601f19601f8201168201806040525081019061057e9190611565565b5b6105be576040517f08c379a00000000000000000000000000000000000000000000000000000000081526004016105b59061173e565b60405180910390fd5b47811015610601576040517f08c379a00000000000000000000000000000000000000000000000000000000081526004016105f8906117aa565b60405180910390fd5b60008273ffffffffffffffffffffffffffffffffffffffff1682604051610627906117fb565b60006040518083038185875af1925050503d8060008114610664576040519150601f19603f3d011682016040523d82523d6000602084013e610669565b606091505b50509050806106ad576040517f08c379a00000000000000000000000000000000000000000000000000000000081526004016106a49061185c565b60405180910390fd5b505050565b6060600080600090506000600160009054906101000a900473ffffffffffffffffffffffffffffffffffffffff1673ffffffffffffffffffffffffffffffffffffffff16638c3c4b346040518163ffffffff1660e01b8152600401602060405180830381865afa15801561072a573d6000803e3d6000fd5b505050506040513d601f19601f8201168201806040525081019061074e9190611565565b9050600160009054906101000a900473ffffffffffffffffffffffffffffffffffffffff1673ffffffffffffffffffffffffffffffffffffffff1663ce03ec936040518163ffffffff1660e01b8152600401600060405180830381600087803b1580156107ba57600080fd5b505af19250505080156107cb575060015b6107f65760006040518060600160405280603b8152602001611966603b913990935093505050610ba5565b6000600160009054906101000a900473ffffffffffffffffffffffffffffffffffffffff1673ffffffffffffffffffffffffffffffffffffffff16638c3c4b346040518163ffffffff1660e01b8152600401602060405180830381865afa158015610865573d6000803e3d6000fd5b505050506040513d601f19601f820116820180604052508101906108899190611565565b9050811515811515036108be5760006040518060600160405280602f81526020016119fc602f91399094509450505050610ba5565b82806108c9906118ab565b935050801561097a57600160009054906101000a900473ffffffffffffffffffffffffffffffffffffffff1673ffffffffffffffffffffffffffffffffffffffff1663ce03ec936040518163ffffffff1660e01b8152600401600060405180830381600087803b15801561093c57600080fd5b505af192505050801561094d575060015b6109795760006040518060600160405280603b8152602001611966603b91399094509450505050610ba5565b5b600160009054906101000a900473ffffffffffffffffffffffffffffffffffffffff1673ffffffffffffffffffffffffffffffffffffffff16636a627842662386f26fc10000306040518363ffffffff1660e01b81526004016109dd919061151e565b60206040518083038185885af193505050508015610a1957506040513d601f19601f82011682018060405250810190610a169190611908565b60015b610a30578280610a28906118ab565b935050610a32565b505b60001515600160009054906101000a900473ffffffffffffffffffffffffffffffffffffffff1673ffffffffffffffffffffffffffffffffffffffff16638c3c4b346040518163ffffffff1660e01b8152600401602060405180830381865afa158015610aa3573d6000803e3d6000fd5b505050506040513d601f19601f82011682018060405250810190610ac79190611565565b151503610b5157600160009054906101000a900473ffffffffffffffffffffffffffffffffffffffff1673ffffffffffffffffffffffffffffffffffffffff1663ce03ec936040518163ffffffff1660e01b8152600401600060405180830381600087803b158015610b3857600080fd5b505af1158015610b4c573d6000803e3d6000fd5b505050505b60028303610b815760016040518060600160405280602781526020016119d5602791399094509450505050610ba5565b60006040518060600160405280603481526020016119a16034913990945094505050505b9091565b816000806101000a81548173ffffffffffffffffffffffffffffffffffffffff021916908373ffffffffffffffffffffffffffffffffffffffff1602179055506000610bf36102af565b90508073ffffffffffffffffffffffffffffffffffffffff16637fb99b9330846040518363ffffffff1660e01b8152600401610c30929190611935565b600060405180830381600087803b158015610c4a57600080fd5b505af1158015610c5e573d6000803e3d6000fd5b50505050505050565b6000604051905090565b600080fd5b600080fd5b600073ffffffffffffffffffffffffffffffffffffffff82169050919050565b6000610ca682610c7b565b9050919050565b610cb681610c9b565b8114610cc157600080fd5b50565b600081359050610cd381610cad565b92915050565b60008060408385031215610cf057610cef610c71565b5b6000610cfe85828601610cc4565b9250506020610d0f85828601610cc4565b9150509250929050565b600080fd5b600080fd5b6000601f19601f8301169050919050565b7f4e487b7100000000000000000000000000000000000000000000000000000000600052604160045260246000fd5b610d6c82610d23565b810181811067ffffffffffffffff82111715610d8b57610d8a610d34565b5b80604052505050565b6000610d9e610c67565b9050610daa8282610d63565b919050565b600067ffffffffffffffff821115610dca57610dc9610d34565b5b610dd382610d23565b9050602081019050919050565b82818337600083830152505050565b6000610e02610dfd84610daf565b610d94565b905082815260208101848484011115610e1e57610e1d610d1e565b5b610e29848285610de0565b509392505050565b600082601f830112610e4657610e45610d19565b5b8135610e56848260208601610def565b91505092915050565b600080600060608486031215610e7857610e77610c71565b5b600084013567ffffffffffffffff811115610e9657610e95610c76565b5b610ea286828701610e31565b935050602084013567ffffffffffffffff811115610ec357610ec2610c76565b5b610ecf86828701610e31565b925050604084013567ffffffffffffffff811115610ef057610eef610c76565b5b610efc86828701610e31565b9150509250925092565b600081519050919050565b600082825260208201905092915050565b60005b83811015610f40578082015181840152602081019050610f25565b60008484015250505050565b6000610f5782610f06565b610f618185610f11565b9350610f71818560208601610f22565b610f7a81610d23565b840191505092915050565b60006020820190508181036000830152610f9f8184610f4c565b905092915050565b6000819050919050565b6000610fcc610fc7610fc284610c7b565b610fa7565b610c7b565b9050919050565b6000610fde82610fb1565b9050919050565b6000610ff082610fd3565b9050919050565b61100081610fe5565b82525050565b600060208201905061101b6000830184610ff7565b92915050565b6000806000806080858703121561103b5761103a610c71565b5b600085013567ffffffffffffffff81111561105957611058610c76565b5b61106587828801610e31565b945050602085013567ffffffffffffffff81111561108657611085610c76565b5b61109287828801610e31565b935050604085013567ffffffffffffffff8111156110b3576110b2610c76565b5b6110bf87828801610e31565b925050606085013567ffffffffffffffff8111156110e0576110df610c76565b5b6110ec87828801610e31565b91505092959194509250565b6000806040838503121561110f5761110e610c71565b5b600083013567ffffffffffffffff81111561112d5761112c610c76565b5b61113985828601610e31565b925050602083013567ffffffffffffffff81111561115a57611159610c76565b5b61116685828601610e31565b9150509250929050565b60008115159050919050565b61118581611170565b82525050565b60006020820190506111a0600083018461117c565b92915050565b60006111b182610c7b565b9050919050565b6111c1816111a6565b81146111cc57600080fd5b50565b6000813590506111de816111b8565b92915050565b6000819050919050565b6111f7816111e4565b811461120257600080fd5b50565b600081359050611214816111ee565b92915050565b6000806040838503121561123157611230610c71565b5b600061123f858286016111cf565b925050602061125085828601611205565b9150509250929050565b600060408201905081810360008301526112748185610f4c565b9050611283602083018461117c565b9392505050565b600080604083850312156112a1576112a0610c71565b5b60006112af85828601610cc4565b925050602083013567ffffffffffffffff8111156112d0576112cf610c76565b5b6112dc85828601610e31565b9150509250929050565b600081905092915050565b60006112fc82610f06565b61130681856112e6565b9350611316818560208601610f22565b80840191505092915050565b7f3a20000000000000000000000000000000000000000000000000000000000000600082015250565b60006113586002836112e6565b915061136382611322565b600282019050919050565b7f203e200000000000000000000000000000000000000000000000000000000000600082015250565b60006113a46003836112e6565b91506113af8261136e565b600382019050919050565b60006113c682866112f1565b91506113d18261134b565b91506113dd82856112f1565b91506113e882611397565b91506113f482846112f1565b9150819050949350505050565b7f2045787065637465643a20000000000000000000000000000000000000000000600082015250565b6000611437600b836112e6565b915061144282611401565b600b82019050919050565b7f2041637475616c3a200000000000000000000000000000000000000000000000600082015250565b60006114836009836112e6565b915061148e8261144d565b600982019050919050565b60006114a582876112f1565b91506114b08261134b565b91506114bc82866112f1565b91506114c78261142a565b91506114d382856112f1565b91506114de82611476565b91506114ea82846112f1565b915081905095945050505050565b600061150482846112f1565b915081905092915050565b61151881610c9b565b82525050565b6000602082019050611533600083018461150f565b92915050565b61154281611170565b811461154d57600080fd5b50565b60008151905061155f81611539565b92915050565b60006020828403121561157b5761157a610c71565b5b600061158984828501611550565b91505092915050565b7f4f6e6c7920636f6e74726163742061646d696e2063616e20776974686472617760008201527f2066756e64730000000000000000000000000000000000000000000000000000602082015250565b60006115ee602683610f11565b91506115f982611592565b604082019050919050565b6000602082019050818103600083015261161d816115e1565b9050919050565b7f496e76616c696420616464726573730000000000000000000000000000000000600082015250565b600061165a600f83610f11565b915061166582611624565b602082019050919050565b600060208201905081810360008301526116898161164d565b9050919050565b600061169b82610fd3565b9050919050565b6116ab81611690565b82525050565b60006020820190506116c660008301846116a2565b92915050565b7f46756e64732063616e206f6e6c792062652077697468647261776e20746f206160008201527f646d696e2c206d73672e73656e646572206f722074782e6f726967696e000000602082015250565b6000611728603d83610f11565b9150611733826116cc565b604082019050919050565b600060208201905081810360008301526117578161171b565b9050919050565b7f496e73756666696369656e742066756e64730000000000000000000000000000600082015250565b6000611794601283610f11565b915061179f8261175e565b602082019050919050565b600060208201905081810360008301526117c381611787565b9050919050565b600081905092915050565b50565b60006117e56000836117ca565b91506117f0826117d5565b600082019050919050565b6000611806826117d8565b9150819050919050565b7f5472616e73666572206661696c65642e00000000000000000000000000000000600082015250565b6000611846601083610f11565b915061185182611810565b602082019050919050565b6000602082019050818103600083015261187581611839565b9050919050565b7f4e487b7100000000000000000000000000000000000000000000000000000000600052601160045260246000fd5b60006118b6826111e4565b91507fffffffffffffffffffffffffffffffffffffffffffffffffffffffffffffffff82036118e8576118e761187c565b5b600182019050919050565b600081519050611902816111ee565b92915050565b60006020828403121561191e5761191d610c71565b5b600061192c848285016118f3565b91505092915050565b600060408201905061194a600083018561150f565b818103602083015261195c8184610f4c565b9050939250505056fe4572726f72202845786572636973652045293a204572726f7220776974682074686520666c697053616c655374617475732066756e6374696f6e214572726f72202845786572636973652045293a20536f6d6520746573747320696e2045786572636973652045206661696c656421506173736564202845786572636973652045293a204578657263697365204520706173736564214572726f72202845786572636973652045293a2053616c6520737461747573206973206e6f7420666c697070656421a26469706673582212204094b516a1dd9e8cb05a5d6640f6eccc73f712360a6e5a0219ea17b96c3ded6664736f6c63430008130033535332332041737369676e6d656e7420312056616c696461746f7220436f6e7472616374202d205461736b2045",
  "immutableReferences": {},
  "source": "// SPDX-License-Identifier: MIT\r\npragma solidity ^0.8.17;\r\n\r\n// Import the IAssignment1.sol\r\nimport \"./interface/IAssignment1.sol\";\r\n\r\nimport \"../../node_modules/@openzeppelin/contracts/utils/Base64.sol\";\r\nimport \"../../node_modules/@openzeppelin/contracts/utils/Strings.sol\";\r\n\r\n// Import Helper\r\nimport \"../Helper.sol\";\r\n\r\n// Import the assignment validator extend contract\r\nimport \"./Validator1Helper.sol\";\r\n\r\n// import \"BaseConfig.sol\";\r\nimport \"../BaseConfig.sol\";\r\n\r\n// Give the contract a name and inherit from the base assignment validator\r\ncontract Validator1TaskE is Helper, BaseConfig {\r\n    using Strings for uint256;\r\n\r\n    // assignment contract interface\r\n    IAssignment1 assignmentContract;\r\n    Validator1Helper validator1Helper;\r\n\r\n    constructor(address _configContractAddress) {\r\n        initAdmin(\r\n            _configContractAddress,\r\n            \"SS23 Assignment 1 Validator Contract - Task E\"\r\n        );\r\n    }\r\n\r\n    receive() external payable {}\r\n\r\n    // Init contract\r\n    function initContract(\r\n        address _contractAddress,\r\n        address _validator1HelperAddress\r\n    ) public {\r\n        // Call the contract interface which needs to be tested and store it in the variable assignmentContract\r\n        assignmentContract = IAssignment1(_contractAddress);\r\n        validator1Helper = Validator1Helper(payable(_validator1HelperAddress));\r\n    }\r\n\r\n    function testExerciseE() public payable returns (string memory, bool) {\r\n        /*----------  EXERCISE E  ----------*/\r\n\r\n        uint256 exerciseEPassedCounter = 0;\r\n\r\n        // get sale status\r\n        bool saleStatusBeforeE = assignmentContract.getSaleStatus();\r\n\r\n        // flip the sale status\r\n        try assignmentContract.flipSaleStatus() {} catch {\r\n            return (\r\n                \"Error (Exercise E): Error with the flipSaleStatus function!\",\r\n                false\r\n            );\r\n        }\r\n\r\n        // get sale status\r\n        bool saleStatusAfterE = assignmentContract.getSaleStatus();\r\n\r\n        // check if sale status flipped\r\n        if (saleStatusAfterE == saleStatusBeforeE) {\r\n            return (\"Error (Exercise E): Sale status is not flipped!\", false);\r\n        } else {\r\n            exerciseEPassedCounter++;\r\n        }\r\n\r\n        // Set sale status to false\r\n        if (saleStatusAfterE) {\r\n            // flip the sale status\r\n            try assignmentContract.flipSaleStatus() {} catch {\r\n                return (\r\n                    \"Error (Exercise E): Error with the flipSaleStatus function!\",\r\n                    false\r\n                );\r\n            }\r\n        }\r\n\r\n        try assignmentContract.mint{value: 0.01 ether}(address(this)) {} catch {\r\n            exerciseEPassedCounter++;\r\n        }\r\n\r\n        // Set sale status to true again\r\n        if (assignmentContract.getSaleStatus() == false) {\r\n            // flip the sale status\r\n            assignmentContract.flipSaleStatus();\r\n        }\r\n\r\n        // if exerciseEPassedCounter == 2 --> exercise E passed\r\n        if (exerciseEPassedCounter == 2) {\r\n            return (\"Passed (Exercise E): Exercise E passed!\", true);\r\n        } else {\r\n            return (\r\n                \"Error (Exercise E): Some tests in Exercise E failed!\",\r\n                false\r\n            );\r\n        }\r\n    }\r\n}\r\n",
  "sourcePath": "C:\\Users\\stefa\\www\\mtp-blockchain\\smart-contracts\\contracts\\assignment_1\\Validator1TaskE.sol",
  "compiler": {
    "name": "solc",
    "version": "0.8.19+commit.7dd6d404.Emscripten.clang"
  },
  "schemaVersion": "3.4.11",
  "updatedAt": "2023-02-24T09:41:35.014Z",
  "devdoc": {
    "kind": "dev",
    "methods": {},
    "version": 1
  },
  "userdoc": {
    "kind": "user",
    "methods": {},
    "version": 1
  }
}