{
  "contractName": "Validator3TaskB",
  "abi": [
    {
      "inputs": [
        {
          "internalType": "address",
          "name": "_configContractAddress",
          "type": "address"
        }
      ],
      "stateMutability": "nonpayable",
      "type": "constructor"
    },
    {
      "inputs": [
        {
          "internalType": "string",
          "name": "_prefix",
          "type": "string"
        },
        {
          "internalType": "string",
          "name": "_message",
          "type": "string"
        },
        {
          "internalType": "string",
          "name": "_errorMsg",
          "type": "string"
        }
      ],
      "name": "buildErrorMessage",
      "outputs": [
        {
          "internalType": "string",
          "name": "",
          "type": "string"
        }
      ],
      "stateMutability": "pure",
      "type": "function"
    },
    {
      "inputs": [
        {
          "internalType": "string",
          "name": "_prefix",
          "type": "string"
        },
        {
          "internalType": "string",
          "name": "_message",
          "type": "string"
        },
        {
          "internalType": "string",
          "name": "_expected",
          "type": "string"
        },
        {
          "internalType": "string",
          "name": "_actual",
          "type": "string"
        }
      ],
      "name": "buildErrorMessageExtended",
      "outputs": [
        {
          "internalType": "string",
          "name": "",
          "type": "string"
        }
      ],
      "stateMutability": "pure",
      "type": "function"
    },
    {
      "inputs": [
        {
          "internalType": "string",
          "name": "a",
          "type": "string"
        },
        {
          "internalType": "string",
          "name": "b",
          "type": "string"
        }
      ],
      "name": "compareStrings",
      "outputs": [
        {
          "internalType": "bool",
          "name": "",
          "type": "bool"
        }
      ],
      "stateMutability": "pure",
      "type": "function"
    },
    {
      "inputs": [],
      "name": "getConfigStorage",
      "outputs": [
        {
          "internalType": "contract ConfigStorage",
          "name": "",
          "type": "address"
        }
      ],
      "stateMutability": "view",
      "type": "function"
    },
    {
      "inputs": [
        {
          "internalType": "address",
          "name": "_configContractAddress",
          "type": "address"
        },
        {
          "internalType": "string",
          "name": "_contractName",
          "type": "string"
        }
      ],
      "name": "initAdmin",
      "outputs": [],
      "stateMutability": "nonpayable",
      "type": "function"
    },
    {
      "inputs": [
        {
          "internalType": "address payable",
          "name": "_to",
          "type": "address"
        },
        {
          "internalType": "uint256",
          "name": "_value",
          "type": "uint256"
        }
      ],
      "name": "withdrawFunds",
      "outputs": [],
      "stateMutability": "payable",
      "type": "function"
    },
    {
      "stateMutability": "payable",
      "type": "receive"
    },
    {
      "inputs": [
        {
          "internalType": "address",
          "name": "_contractAddress",
          "type": "address"
        }
      ],
      "name": "initContract",
      "outputs": [],
      "stateMutability": "nonpayable",
      "type": "function"
    },
    {
      "inputs": [],
      "name": "testExerciseB",
      "outputs": [
        {
          "internalType": "string",
          "name": "",
          "type": "string"
        },
        {
          "internalType": "bool",
          "name": "",
          "type": "bool"
        }
      ],
      "stateMutability": "payable",
      "type": "function"
    },
    {
      "inputs": [],
      "name": "testChannelOpen",
      "outputs": [
        {
          "internalType": "string",
          "name": "",
          "type": "string"
        },
        {
          "internalType": "bool",
          "name": "",
          "type": "bool"
        }
      ],
      "stateMutability": "payable",
      "type": "function"
    },
    {
      "inputs": [],
      "name": "testChannelTimeout",
      "outputs": [
        {
          "internalType": "string",
          "name": "",
          "type": "string"
        },
        {
          "internalType": "bool",
          "name": "",
          "type": "bool"
        }
      ],
      "stateMutability": "payable",
      "type": "function"
    }
  ],
  "bytecode": "0x60806040523480156200001157600080fd5b5060405162002668380380620026688339818101604052810190620000379190620001c6565b62000062816040518060600160405280602d81526020016200263b602d91396200006960201b60201c565b50620002d7565b816000806101000a81548173ffffffffffffffffffffffffffffffffffffffff021916908373ffffffffffffffffffffffffffffffffffffffff1602179055506000620000bb6200013360201b60201c565b90508073ffffffffffffffffffffffffffffffffffffffff16637fb99b9330846040518363ffffffff1660e01b8152600401620000fa929190620002a3565b600060405180830381600087803b1580156200011557600080fd5b505af11580156200012a573d6000803e3d6000fd5b50505050505050565b60008060009054906101000a900473ffffffffffffffffffffffffffffffffffffffff16905090565b600080fd5b600073ffffffffffffffffffffffffffffffffffffffff82169050919050565b60006200018e8262000161565b9050919050565b620001a08162000181565b8114620001ac57600080fd5b50565b600081519050620001c08162000195565b92915050565b600060208284031215620001df57620001de6200015c565b5b6000620001ef84828501620001af565b91505092915050565b620002038162000181565b82525050565b600081519050919050565b600082825260208201905092915050565b60005b838110156200024557808201518184015260208101905062000228565b60008484015250505050565b6000601f19601f8301169050919050565b60006200026f8262000209565b6200027b818562000214565b93506200028d81856020860162000225565b620002988162000251565b840191505092915050565b6000604082019050620002ba6000830185620001f8565b8181036020830152620002ce818462000262565b90509392505050565b61235480620002e76000396000f3fe6080604052600436106100955760003560e01c80637d90c185116100595780637d90c18514610184578063bed34bba146101a3578063c1075329146101e0578063cf9d4afa146101fc578063fae45fbe146102255761009c565b80631ccb0c12146100a15780632b518301146100c05780634c83f277146100fd578063516cbbe21461011c5780635827a065146101475761009c565b3661009c57005b600080fd5b6100a961024e565b6040516100b79291906112a4565b60405180910390f35b3480156100cc57600080fd5b506100e760048036038101906100e2919061141d565b6102de565b6040516100f491906114c4565b60405180910390f35b61010561030d565b6040516101139291906112a4565b60405180910390f35b34801561012857600080fd5b50610131610699565b60405161013e9190611565565b60405180910390f35b34801561015357600080fd5b5061016e60048036038101906101699190611580565b6106c2565b60405161017b91906114c4565b60405180910390f35b61018c6106f4565b60405161019a9291906112a4565b60405180910390f35b3480156101af57600080fd5b506101ca60048036038101906101c59190611657565b610d4f565b6040516101d791906116cf565b60405180910390f35b6101fa60048036038101906101f5919061175e565b610da8565b005b34801561020857600080fd5b50610223600480360381019061021e91906117dc565b6110f7565b005b34801561023157600080fd5b5061024c60048036038101906102479190611809565b61113b565b005b6060600080600061025d61030d565b9150915080610274578160009350935050506102da565b60008061027f6106f4565b91509150806102985781600095509550505050506102da565b60016040518060400160405280601d81526020017f457865726369736520423a20416c6c207465737473207061737365642e0000008152509095509550505050505b9091565b60608383836040516020016102f593929190611939565b60405160208183030381529060405290509392505050565b6060600080600160009054906101000a900473ffffffffffffffffffffffffffffffffffffffff1673ffffffffffffffffffffffffffffffffffffffff1663893d20e86040518163ffffffff1660e01b81526004016020604051808303816000875af1158015610381573d6000803e3d6000fd5b505050506040513d601f19601f820116820180604052508101906103a59190611995565b90506000309050600160009054906101000a900473ffffffffffffffffffffffffffffffffffffffff1673ffffffffffffffffffffffffffffffffffffffff16638b680cc36040518163ffffffff1660e01b8152600401600060405180830381600087803b15801561041657600080fd5b505af1925050508015610427575060015b6104a7576104336119cf565b806308c379a00361049b57506104476119f1565b80610452575061049d565b61048d604051806060016040528060268152602001612216602691396040518060600160405280602181526020016121f560219139836102de565b600094509450505050610695565b505b3d6000803e3d6000fd5b60006103e89050600160009054906101000a900473ffffffffffffffffffffffffffffffffffffffff1673ffffffffffffffffffffffffffffffffffffffff1663e1d1882b8285856040518463ffffffff1660e01b815260040161050c929190611a90565b6000604051808303818588803b15801561052557600080fd5b505af193505050508015610537575060015b6105b8576105436119cf565b806308c379a0036105ac57506105576119f1565b8061056257506105ae565b61059d604051806060016040528060268152602001612216602691396040518060600160405280602281526020016121af60229139836102de565b60009550955050505050610695565b505b3d6000803e3d6000fd5b600160009054906101000a900473ffffffffffffffffffffffffffffffffffffffff1673ffffffffffffffffffffffffffffffffffffffff16631ee01d01828585600a6040518563ffffffff1660e01b815260040161061993929190611af4565b6000604051808303818588803b15801561063257600080fd5b505af193505050508015610644575060015b156106715760006040518060a001604052806075815260200161213a607591399094509450505050610695565b60016040518060600160405280603181526020016122656031913990945094505050505b9091565b60008060009054906101000a900473ffffffffffffffffffffffffffffffffffffffff16905090565b6060848484846040516020016106db9493929190611bc3565b6040516020818303038152906040529050949350505050565b6060600080600160009054906101000a900473ffffffffffffffffffffffffffffffffffffffff1673ffffffffffffffffffffffffffffffffffffffff1663893d20e86040518163ffffffff1660e01b81526004016020604051808303816000875af1158015610768573d6000803e3d6000fd5b505050506040513d601f19601f8201168201806040525081019061078c9190611995565b90506000309050600160009054906101000a900473ffffffffffffffffffffffffffffffffffffffff1673ffffffffffffffffffffffffffffffffffffffff16638b680cc36040518163ffffffff1660e01b8152600401600060405180830381600087803b1580156107fd57600080fd5b505af192505050801561080e575060015b6108ab5761081a6119cf565b806308c379a00361089f575061082e6119f1565b8061083957506108a1565b6108916040518060400160405280601c81526020017f4572726f72202845786572636973652042202d2074696d656f757429000000008152506040518060600160405280602181526020016121f560219139836102de565b600094509450505050610d4b565b505b3d6000803e3d6000fd5b600160009054906101000a900473ffffffffffffffffffffffffffffffffffffffff1673ffffffffffffffffffffffffffffffffffffffff1663a8c3c8506103e86040518263ffffffff1660e01b81526004016109089190611c5d565b600060405180830381600087803b15801561092257600080fd5b505af1158015610936573d6000803e3d6000fd5b5050505060006103e89050600160009054906101000a900473ffffffffffffffffffffffffffffffffffffffff1673ffffffffffffffffffffffffffffffffffffffff16631ee01d0182858560016040518563ffffffff1660e01b81526004016109a293929190611cb3565b6000604051808303818588803b1580156109bb57600080fd5b505af1935050505080156109cd575060015b610a6b576109d96119cf565b806308c379a003610a5f57506109ed6119f1565b806109f85750610a61565b610a506040518060400160405280601c81526020017f4572726f72202845786572636973652042202d2074696d656f7574290000000081525060405180606001604052806029815260200161223c60299139836102de565b60009550955050505050610d4b565b505b3d6000803e3d6000fd5b600160009054906101000a900473ffffffffffffffffffffffffffffffffffffffff1673ffffffffffffffffffffffffffffffffffffffff16631184327e6040518163ffffffff1660e01b8152600401600060405180830381600087803b158015610ad557600080fd5b505af1925050508015610ae6575060015b15610b135760006040518060a00160405280606281526020016122bd606291399094509450505050610d4b565b600160009054906101000a900473ffffffffffffffffffffffffffffffffffffffff1673ffffffffffffffffffffffffffffffffffffffff1663a8c3c8506103ed6040518263ffffffff1660e01b8152600401610b709190611d25565b600060405180830381600087803b158015610b8a57600080fd5b505af1158015610b9e573d6000803e3d6000fd5b5050505060008273ffffffffffffffffffffffffffffffffffffffff16319050600160009054906101000a900473ffffffffffffffffffffffffffffffffffffffff1673ffffffffffffffffffffffffffffffffffffffff16631184327e6040518163ffffffff1660e01b8152600401600060405180830381600087803b158015610c2857600080fd5b505af1925050508015610c39575060015b610cd857610c456119cf565b806308c379a003610ccc5750610c596119f1565b80610c645750610cce565b610cbc6040518060400160405280601c81526020017f4572726f72202845786572636973652042202d2074696d656f757429000000008152506040518060600160405280602481526020016121d160249139836102de565b6000965096505050505050610d4b565b505b3d6000803e3d6000fd5b60008373ffffffffffffffffffffffffffffffffffffffff16319050808210610d255760006040518060800160405280605481526020016120e66054913990965096505050505050610d4b565b600160405180606001604052806027815260200161229660279139909650965050505050505b9091565b600081604051602001610d629190611d40565b6040516020818303038152906040528051906020012083604051602001610d899190611d40565b6040516020818303038152906040528051906020012014905092915050565b610db0610699565b73ffffffffffffffffffffffffffffffffffffffff166324d7806c336040518263ffffffff1660e01b8152600401610de89190611d57565b602060405180830381865afa158015610e05573d6000803e3d6000fd5b505050506040513d601f19601f82011682018060405250810190610e299190611d9e565b610e68576040517f08c379a0000000000000000000000000000000000000000000000000000000008152600401610e5f90611e3d565b60405180910390fd5b600073ffffffffffffffffffffffffffffffffffffffff168273ffffffffffffffffffffffffffffffffffffffff1603610ed7576040517f08c379a0000000000000000000000000000000000000000000000000000000008152600401610ece90611ea9565b60405180910390fd5b3373ffffffffffffffffffffffffffffffffffffffff168273ffffffffffffffffffffffffffffffffffffffff161480610f3c57503273ffffffffffffffffffffffffffffffffffffffff168273ffffffffffffffffffffffffffffffffffffffff16145b80610fc45750610f4a610699565b73ffffffffffffffffffffffffffffffffffffffff166324d7806c836040518263ffffffff1660e01b8152600401610f829190611eea565b602060405180830381865afa158015610f9f573d6000803e3d6000fd5b505050506040513d601f19601f82011682018060405250810190610fc39190611d9e565b5b611003576040517f08c379a0000000000000000000000000000000000000000000000000000000008152600401610ffa90611f77565b60405180910390fd5b47811015611046576040517f08c379a000000000000000000000000000000000000000000000000000000000815260040161103d90611fe3565b60405180910390fd5b60008273ffffffffffffffffffffffffffffffffffffffff168260405161106c90612034565b60006040518083038185875af1925050503d80600081146110a9576040519150601f19603f3d011682016040523d82523d6000602084013e6110ae565b606091505b50509050806110f2576040517f08c379a00000000000000000000000000000000000000000000000000000000081526004016110e990612095565b60405180910390fd5b505050565b80600160006101000a81548173ffffffffffffffffffffffffffffffffffffffff021916908373ffffffffffffffffffffffffffffffffffffffff16021790555050565b816000806101000a81548173ffffffffffffffffffffffffffffffffffffffff021916908373ffffffffffffffffffffffffffffffffffffffff1602179055506000611185610699565b90508073ffffffffffffffffffffffffffffffffffffffff16637fb99b9330846040518363ffffffff1660e01b81526004016111c29291906120b5565b600060405180830381600087803b1580156111dc57600080fd5b505af11580156111f0573d6000803e3d6000fd5b50505050505050565b600081519050919050565b600082825260208201905092915050565b60005b83811015611233578082015181840152602081019050611218565b60008484015250505050565b6000601f19601f8301169050919050565b600061125b826111f9565b6112658185611204565b9350611275818560208601611215565b61127e8161123f565b840191505092915050565b60008115159050919050565b61129e81611289565b82525050565b600060408201905081810360008301526112be8185611250565b90506112cd6020830184611295565b9392505050565b6000604051905090565b600080fd5b600080fd5b600080fd5b600080fd5b7f4e487b7100000000000000000000000000000000000000000000000000000000600052604160045260246000fd5b61132a8261123f565b810181811067ffffffffffffffff82111715611349576113486112f2565b5b80604052505050565b600061135c6112d4565b90506113688282611321565b919050565b600067ffffffffffffffff821115611388576113876112f2565b5b6113918261123f565b9050602081019050919050565b82818337600083830152505050565b60006113c06113bb8461136d565b611352565b9050828152602081018484840111156113dc576113db6112ed565b5b6113e784828561139e565b509392505050565b600082601f830112611404576114036112e8565b5b81356114148482602086016113ad565b91505092915050565b600080600060608486031215611436576114356112de565b5b600084013567ffffffffffffffff811115611454576114536112e3565b5b611460868287016113ef565b935050602084013567ffffffffffffffff811115611481576114806112e3565b5b61148d868287016113ef565b925050604084013567ffffffffffffffff8111156114ae576114ad6112e3565b5b6114ba868287016113ef565b9150509250925092565b600060208201905081810360008301526114de8184611250565b905092915050565b600073ffffffffffffffffffffffffffffffffffffffff82169050919050565b6000819050919050565b600061152b611526611521846114e6565b611506565b6114e6565b9050919050565b600061153d82611510565b9050919050565b600061154f82611532565b9050919050565b61155f81611544565b82525050565b600060208201905061157a6000830184611556565b92915050565b6000806000806080858703121561159a576115996112de565b5b600085013567ffffffffffffffff8111156115b8576115b76112e3565b5b6115c4878288016113ef565b945050602085013567ffffffffffffffff8111156115e5576115e46112e3565b5b6115f1878288016113ef565b935050604085013567ffffffffffffffff811115611612576116116112e3565b5b61161e878288016113ef565b925050606085013567ffffffffffffffff81111561163f5761163e6112e3565b5b61164b878288016113ef565b91505092959194509250565b6000806040838503121561166e5761166d6112de565b5b600083013567ffffffffffffffff81111561168c5761168b6112e3565b5b611698858286016113ef565b925050602083013567ffffffffffffffff8111156116b9576116b86112e3565b5b6116c5858286016113ef565b9150509250929050565b60006020820190506116e46000830184611295565b92915050565b60006116f5826114e6565b9050919050565b611705816116ea565b811461171057600080fd5b50565b600081359050611722816116fc565b92915050565b6000819050919050565b61173b81611728565b811461174657600080fd5b50565b60008135905061175881611732565b92915050565b60008060408385031215611775576117746112de565b5b600061178385828601611713565b925050602061179485828601611749565b9150509250929050565b60006117a9826114e6565b9050919050565b6117b98161179e565b81146117c457600080fd5b50565b6000813590506117d6816117b0565b92915050565b6000602082840312156117f2576117f16112de565b5b6000611800848285016117c7565b91505092915050565b600080604083850312156118205761181f6112de565b5b600061182e858286016117c7565b925050602083013567ffffffffffffffff81111561184f5761184e6112e3565b5b61185b858286016113ef565b9150509250929050565b600081905092915050565b600061187b826111f9565b6118858185611865565b9350611895818560208601611215565b80840191505092915050565b7f3a20000000000000000000000000000000000000000000000000000000000000600082015250565b60006118d7600283611865565b91506118e2826118a1565b600282019050919050565b7f203e200000000000000000000000000000000000000000000000000000000000600082015250565b6000611923600383611865565b915061192e826118ed565b600382019050919050565b60006119458286611870565b9150611950826118ca565b915061195c8285611870565b915061196782611916565b91506119738284611870565b9150819050949350505050565b60008151905061198f816117b0565b92915050565b6000602082840312156119ab576119aa6112de565b5b60006119b984828501611980565b91505092915050565b60008160e01c9050919050565b600060033d11156119ee5760046000803e6119eb6000516119c2565b90505b90565b600060443d10611a7e57611a036112d4565b60043d036004823e80513d602482011167ffffffffffffffff82111715611a2b575050611a7e565b808201805167ffffffffffffffff811115611a495750505050611a7e565b80602083010160043d038501811115611a66575050505050611a7e565b611a7582602001850186611321565b82955050505050505b90565b611a8a8161179e565b82525050565b6000604082019050611aa56000830185611a81565b611ab26020830184611a81565b9392505050565b6000819050919050565b6000611ade611ad9611ad484611ab9565b611506565b611728565b9050919050565b611aee81611ac3565b82525050565b6000606082019050611b096000830186611a81565b611b166020830185611a81565b611b236040830184611ae5565b949350505050565b7f2045787065637465643a20000000000000000000000000000000000000000000600082015250565b6000611b61600b83611865565b9150611b6c82611b2b565b600b82019050919050565b7f2041637475616c3a200000000000000000000000000000000000000000000000600082015250565b6000611bad600983611865565b9150611bb882611b77565b600982019050919050565b6000611bcf8287611870565b9150611bda826118ca565b9150611be68286611870565b9150611bf182611b54565b9150611bfd8285611870565b9150611c0882611ba0565b9150611c148284611870565b915081905095945050505050565b6000819050919050565b6000611c47611c42611c3d84611c22565b611506565b611728565b9050919050565b611c5781611c2c565b82525050565b6000602082019050611c726000830184611c4e565b92915050565b6000819050919050565b6000611c9d611c98611c9384611c78565b611506565b611728565b9050919050565b611cad81611c82565b82525050565b6000606082019050611cc86000830186611a81565b611cd56020830185611a81565b611ce26040830184611ca4565b949350505050565b6000819050919050565b6000611d0f611d0a611d0584611cea565b611506565b611728565b9050919050565b611d1f81611cf4565b82525050565b6000602082019050611d3a6000830184611d16565b92915050565b6000611d4c8284611870565b915081905092915050565b6000602082019050611d6c6000830184611a81565b92915050565b611d7b81611289565b8114611d8657600080fd5b50565b600081519050611d9881611d72565b92915050565b600060208284031215611db457611db36112de565b5b6000611dc284828501611d89565b91505092915050565b7f4f6e6c7920636f6e74726163742061646d696e2063616e20776974686472617760008201527f2066756e64730000000000000000000000000000000000000000000000000000602082015250565b6000611e27602683611204565b9150611e3282611dcb565b604082019050919050565b60006020820190508181036000830152611e5681611e1a565b9050919050565b7f496e76616c696420616464726573730000000000000000000000000000000000600082015250565b6000611e93600f83611204565b9150611e9e82611e5d565b602082019050919050565b60006020820190508181036000830152611ec281611e86565b9050919050565b6000611ed482611532565b9050919050565b611ee481611ec9565b82525050565b6000602082019050611eff6000830184611edb565b92915050565b7f46756e64732063616e206f6e6c792062652077697468647261776e20746f206160008201527f646d696e2c206d73672e73656e646572206f722074782e6f726967696e000000602082015250565b6000611f61603d83611204565b9150611f6c82611f05565b604082019050919050565b60006020820190508181036000830152611f9081611f54565b9050919050565b7f496e73756666696369656e742066756e64730000000000000000000000000000600082015250565b6000611fcd601283611204565b9150611fd882611f97565b602082019050919050565b60006020820190508181036000830152611ffc81611fc0565b9050919050565b600081905092915050565b50565b600061201e600083612003565b91506120298261200e565b600082019050919050565b600061203f82612011565b9150819050919050565b7f5472616e73666572206661696c65642e00000000000000000000000000000000600082015250565b600061207f601083611204565b915061208a82612049565b602082019050919050565b600060208201905081810360008301526120ae81612072565b9050919050565b60006040820190506120ca6000830185611a81565b81810360208301526120dc8184611250565b9050939250505056fe4572726f72202845786572636973652042202d2074696d656f7574293a206578706972654368616e6e656c28292073686f756c6420696e637265617365207468652076616c696461746f722062616c616e63652e4572726f72202845786572636973652042202d2074776f206f70656e206368616e6e656c73293a206f70656e4368616e6e656c54696d656428292073686f756c64206661696c2c2062656361757365206120276e6f726d616c27206368616e6e656c20697320616c7265616479206f70656e65642e4572726f722077697468206f70656e4368616e6e656c28292066756e6374696f6e2e4572726f722077697468206578706972654368616e6e656c28292066756e6374696f6e2e4572726f72207769746820666f726365526573657428292066756e6374696f6e2e4572726f72202845786572636973652042202d2074776f206f70656e206368616e6e656c73294572726f722077697468206f70656e4368616e6e656c54696d656f757428292066756e6374696f6e2e45786572636973652042202874776f206f70656e206368616e6e656c73293a20416c6c207465737473207061737365642e45786572636973652042202874696d656f7574293a20416c6c207465737473207061737365642e4572726f72202845786572636973652042202d2074696d656f7574293a206578706972654368616e6e656c28292073686f756c64206661696c2c206265636175736520746865206368616e6e656c206973206e6f742065787069726564207965742ea26469706673582212208ced630db44b92ad57a2cd282217e9f45532463d43cf761579bab63b3bbb55c264736f6c63430008120033535332332041737369676e6d656e7420332056616c696461746f7220436f6e7472616374202d205461736b2042",
  "immutableReferences": {},
  "source": "// SPDX-License-Identifier: MIT\r\npragma solidity ^0.8.17;\r\n\r\n// Import the IAssignment3.sol\r\nimport \"./interface/IAssignment3.sol\";\r\n\r\n// Import Helper\r\nimport \"../Helper.sol\";\r\n\r\n// import \"BaseConfig.sol\";\r\nimport \"../BaseConfig.sol\";\r\n\r\ncontract Validator3TaskB is Helper, BaseConfig {\r\n    // assignment contract interface\r\n    IAssignment3 assignmentContract;\r\n\r\n    constructor(address _configContractAddress) {\r\n        initAdmin(\r\n            _configContractAddress,\r\n            \"SS23 Assignment 3 Validator Contract - Task B\"\r\n        );\r\n    }\r\n\r\n    receive() external payable {}\r\n\r\n    // Init contract\r\n    function initContract(address _contractAddress) public {\r\n        // Call the contract interface which needs to be tested and store it in the variable assignmentContract\r\n        assignmentContract = IAssignment3(_contractAddress);\r\n    }\r\n\r\n    /*=============================================\r\n    =                  TASK B                   =\r\n    =============================================*/\r\n\r\n    function testExerciseB() public payable returns (string memory, bool) {\r\n        // TEST 1: Tried to open two channels (normal and timed)\r\n        (string memory test1Message, bool test1Result) = testChannelOpen();\r\n        if (!test1Result) {\r\n            return (test1Message, false);\r\n        }\r\n\r\n        // TEST 2: Test timeout channel\r\n        (string memory test2Message, bool test2Result) = testChannelTimeout();\r\n        if (!test2Result) {\r\n            return (test2Message, false);\r\n        }\r\n\r\n        return (\"Exercise B: All tests passed.\", true);\r\n    }\r\n\r\n    function testChannelOpen() public payable returns (string memory, bool) {\r\n        // Student address\r\n        address studentAddress = assignmentContract.getOwner();\r\n        address validatorAddress = address(this);\r\n\r\n        // Force reset\r\n        try assignmentContract.forceReset() {} catch Error(\r\n            string memory reason\r\n        ) {\r\n            return (\r\n                buildErrorMessage(\r\n                    \"Error (Exercise B - two open channels)\",\r\n                    \"Error with forceReset() function.\",\r\n                    reason\r\n                ),\r\n                false\r\n            );\r\n        }\r\n\r\n        // Open \"normal\" untimed channel\r\n        // ETHER DEPOSIT\r\n        uint256 depositAmount = 1000 wei;\r\n\r\n        // Open Channel and set validatorHelper as receiver\r\n        try\r\n            assignmentContract.openChannel{value: depositAmount}(\r\n                studentAddress,\r\n                validatorAddress\r\n            )\r\n        {} catch Error(string memory reason) {\r\n            return (\r\n                buildErrorMessage(\r\n                    \"Error (Exercise B - two open channels)\",\r\n                    \"Error with openChannel() function.\",\r\n                    reason\r\n                ),\r\n                false\r\n            );\r\n        }\r\n\r\n        // Open \"timed\" channel -> should fail\r\n\r\n        try\r\n            assignmentContract.openChannelTimeout{value: depositAmount}(\r\n                studentAddress,\r\n                validatorAddress,\r\n                10\r\n            )\r\n        {\r\n            return (\r\n                \"Error (Exercise B - two open channels): openChannelTimed() should fail, because a 'normal' channel is already opened.\",\r\n                false\r\n            );\r\n        } catch {}\r\n\r\n        // return true\r\n        return (\"Exercise B (two open channels): All tests passed.\", true);\r\n    }\r\n\r\n    function testChannelTimeout() public payable returns (string memory, bool) {\r\n        // Student address\r\n        address studentAddress = assignmentContract.getOwner();\r\n        address validatorAddress = address(this);\r\n\r\n        // Force reset\r\n        try assignmentContract.forceReset() {} catch Error(\r\n            string memory reason\r\n        ) {\r\n            return (\r\n                buildErrorMessage(\r\n                    \"Error (Exercise B - timeout)\",\r\n                    \"Error with forceReset() function.\",\r\n                    reason\r\n                ),\r\n                false\r\n            );\r\n        }\r\n\r\n        // Set current block to 0\r\n        assignmentContract.setBlockNumber(1000);\r\n\r\n        // Open \"timed\" channel\r\n        // ETHER DEPOSIT\r\n        uint256 depositAmount = 1000 wei;\r\n\r\n        // Open Channel and set validatorHelper as receiver\r\n        try\r\n            assignmentContract.openChannelTimeout{value: depositAmount}(\r\n                studentAddress,\r\n                validatorAddress,\r\n                1\r\n            )\r\n        {} catch Error(string memory reason) {\r\n            return (\r\n                buildErrorMessage(\r\n                    \"Error (Exercise B - timeout)\",\r\n                    \"Error with openChannelTimeout() function.\",\r\n                    reason\r\n                ),\r\n                false\r\n            );\r\n        }\r\n\r\n        // Try to expire channel which is not expired yet\r\n        try assignmentContract.expireChannel() {\r\n            return (\r\n                \"Error (Exercise B - timeout): expireChannel() should fail, because the channel is not expired yet.\",\r\n                false\r\n            );\r\n        } catch {}\r\n\r\n        // Set current block to 1005 --> force expire\r\n        assignmentContract.setBlockNumber(1005);\r\n\r\n        // Get balance of validator before expire\r\n        uint256 validatorBalanceBefore = validatorAddress.balance;\r\n\r\n        // Try to expire channel which is expired\r\n        try assignmentContract.expireChannel() {} catch Error(\r\n            string memory reason\r\n        ) {\r\n            return (\r\n                buildErrorMessage(\r\n                    \"Error (Exercise B - timeout)\",\r\n                    \"Error with expireChannel() function.\",\r\n                    reason\r\n                ),\r\n                false\r\n            );\r\n        }\r\n\r\n        // Get balance of validator after expire\r\n        uint256 validatorBalanceAfter = validatorAddress.balance;\r\n\r\n        // Check if validator balance increased\r\n        if (validatorBalanceBefore >= validatorBalanceAfter) {\r\n            return (\r\n                \"Error (Exercise B - timeout): expireChannel() should increase the validator balance.\",\r\n                false\r\n            );\r\n        }\r\n\r\n        // return true\r\n        return (\"Exercise B (timeout): All tests passed.\", true);\r\n    }\r\n}\r\n",
  "sourcePath": "C:\\Users\\jonas\\Repos\\mtp-blockchain\\smart-contracts\\contracts\\assignment_3\\Validator3TaskB.sol",
  "compiler": {
    "name": "solc",
    "version": "0.8.18+commit.87f61d96.Emscripten.clang"
  },
  "schemaVersion": "3.4.11",
  "updatedAt": "2023-02-05T15:34:49.164Z",
  "devdoc": {
    "kind": "dev",
    "methods": {},
    "version": 1
  },
  "userdoc": {
    "kind": "user",
    "methods": {},
    "version": 1
  }
}