{
  "contractName": "Validator1TaskC",
  "abi": [
    {
      "inputs": [
        {
          "internalType": "address",
          "name": "_configContractAddress",
          "type": "address"
        }
      ],
      "stateMutability": "nonpayable",
      "type": "constructor"
    },
    {
      "inputs": [
        {
          "internalType": "string",
          "name": "_prefix",
          "type": "string"
        },
        {
          "internalType": "string",
          "name": "_message",
          "type": "string"
        },
        {
          "internalType": "string",
          "name": "_errorMsg",
          "type": "string"
        }
      ],
      "name": "buildErrorMessage",
      "outputs": [
        {
          "internalType": "string",
          "name": "",
          "type": "string"
        }
      ],
      "stateMutability": "pure",
      "type": "function"
    },
    {
      "inputs": [
        {
          "internalType": "string",
          "name": "_prefix",
          "type": "string"
        },
        {
          "internalType": "string",
          "name": "_message",
          "type": "string"
        },
        {
          "internalType": "string",
          "name": "_expected",
          "type": "string"
        },
        {
          "internalType": "string",
          "name": "_actual",
          "type": "string"
        }
      ],
      "name": "buildErrorMessageExtended",
      "outputs": [
        {
          "internalType": "string",
          "name": "",
          "type": "string"
        }
      ],
      "stateMutability": "pure",
      "type": "function"
    },
    {
      "inputs": [
        {
          "internalType": "string",
          "name": "a",
          "type": "string"
        },
        {
          "internalType": "string",
          "name": "b",
          "type": "string"
        }
      ],
      "name": "compareStrings",
      "outputs": [
        {
          "internalType": "bool",
          "name": "",
          "type": "bool"
        }
      ],
      "stateMutability": "pure",
      "type": "function"
    },
    {
      "inputs": [],
      "name": "getConfigStorage",
      "outputs": [
        {
          "internalType": "contract ConfigStorage",
          "name": "",
          "type": "address"
        }
      ],
      "stateMutability": "view",
      "type": "function"
    },
    {
      "inputs": [
        {
          "internalType": "address",
          "name": "_configContractAddress",
          "type": "address"
        },
        {
          "internalType": "string",
          "name": "_contractName",
          "type": "string"
        }
      ],
      "name": "initAdmin",
      "outputs": [],
      "stateMutability": "nonpayable",
      "type": "function"
    },
    {
      "inputs": [
        {
          "internalType": "address payable",
          "name": "_to",
          "type": "address"
        },
        {
          "internalType": "uint256",
          "name": "_value",
          "type": "uint256"
        }
      ],
      "name": "withdrawFunds",
      "outputs": [],
      "stateMutability": "payable",
      "type": "function"
    },
    {
      "stateMutability": "payable",
      "type": "receive"
    },
    {
      "inputs": [
        {
          "internalType": "address",
          "name": "_contractAddress",
          "type": "address"
        },
        {
          "internalType": "address",
          "name": "_validator1HelperAddress",
          "type": "address"
        }
      ],
      "name": "initContract",
      "outputs": [],
      "stateMutability": "nonpayable",
      "type": "function"
    },
    {
      "inputs": [],
      "name": "testExerciseC",
      "outputs": [
        {
          "internalType": "string",
          "name": "",
          "type": "string"
        },
        {
          "internalType": "bool",
          "name": "",
          "type": "bool"
        }
      ],
      "stateMutability": "payable",
      "type": "function"
    }
  ],
  "bytecode": "0x60806040523480156200001157600080fd5b5060405162001a4438038062001a448339818101604052810190620000379190620001c6565b62000062816040518060600160405280602d815260200162001a17602d91396200006960201b60201c565b50620002d7565b816000806101000a81548173ffffffffffffffffffffffffffffffffffffffff021916908373ffffffffffffffffffffffffffffffffffffffff1602179055506000620000bb6200013360201b60201c565b90508073ffffffffffffffffffffffffffffffffffffffff16637fb99b9330846040518363ffffffff1660e01b8152600401620000fa929190620002a3565b600060405180830381600087803b1580156200011557600080fd5b505af11580156200012a573d6000803e3d6000fd5b50505050505050565b60008060009054906101000a900473ffffffffffffffffffffffffffffffffffffffff16905090565b600080fd5b600073ffffffffffffffffffffffffffffffffffffffff82169050919050565b60006200018e8262000161565b9050919050565b620001a08162000181565b8114620001ac57600080fd5b50565b600081519050620001c08162000195565b92915050565b600060208284031215620001df57620001de6200015c565b5b6000620001ef84828501620001af565b91505092915050565b620002038162000181565b82525050565b600081519050919050565b600082825260208201905092915050565b60005b838110156200024557808201518184015260208101905062000228565b60008484015250505050565b6000601f19601f8301169050919050565b60006200026f8262000209565b6200027b818562000214565b93506200028d81856020860162000225565b620002988162000251565b840191505092915050565b6000604082019050620002ba6000830185620001f8565b8181036020830152620002ce818462000262565b90509392505050565b61173080620002e76000396000f3fe60806040526004361061007f5760003560e01c80639a304b091161004e5780639a304b0914610159578063bed34bba14610178578063c1075329146101b5578063fae45fbe146101d157610086565b806325ba0f511461008b5780632b518301146100b4578063516cbbe2146100f15780635827a0651461011c57610086565b3661008657005b600080fd5b34801561009757600080fd5b506100b260048036038101906100ad9190610a26565b6101fa565b005b3480156100c057600080fd5b506100db60048036038101906100d69190610bac565b610280565b6040516100e89190610cd2565b60405180910390f35b3480156100fd57600080fd5b506101066102af565b6040516101139190610d53565b60405180910390f35b34801561012857600080fd5b50610143600480360381019061013e9190610d6e565b6102d8565b6040516101509190610cd2565b60405180910390f35b61016161030a565b60405161016f929190610e60565b60405180910390f35b34801561018457600080fd5b5061019f600480360381019061019a9190610e90565b61054e565b6040516101ac9190610f08565b60405180910390f35b6101cf60048036038101906101ca9190610f97565b6105a7565b005b3480156101dd57600080fd5b506101f860048036038101906101f39190610fd7565b6108f6565b005b81600160006101000a81548173ffffffffffffffffffffffffffffffffffffffff021916908373ffffffffffffffffffffffffffffffffffffffff16021790555080600260006101000a81548173ffffffffffffffffffffffffffffffffffffffff021916908373ffffffffffffffffffffffffffffffffffffffff1602179055505050565b606083838360405160200161029793929190611107565b60405160208183030381529060405290509392505050565b60008060009054906101000a900473ffffffffffffffffffffffffffffffffffffffff16905090565b6060848484846040516020016102f194939291906111e6565b6040516020818303038152906040529050949350505050565b60606000600160009054906101000a900473ffffffffffffffffffffffffffffffffffffffff1673ffffffffffffffffffffffffffffffffffffffff166398d5fdca6040518163ffffffff1660e01b8152600401602060405180830381865afa92505050801561039857506040513d601f19601f82011682018060405250810190610395919061125a565b60015b1561052957600081111561052657600160009054906101000a900473ffffffffffffffffffffffffffffffffffffffff1673ffffffffffffffffffffffffffffffffffffffff16636a627842662386f26fc10000336040518363ffffffff1660e01b81526004016104099190611296565b60206040518083038185885af19350505050801561044557506040513d601f19601f82011682018060405250810190610442919061125a565b60015b1561052157506000600160009054906101000a900473ffffffffffffffffffffffffffffffffffffffff1673ffffffffffffffffffffffffffffffffffffffff166398d5fdca6040518163ffffffff1660e01b8152600401602060405180830381865afa1580156104ba573d6000803e3d6000fd5b505050506040513d601f19601f820116820180604052508101906104de919061125a565b9050655af3107a4000826104f291906112e0565b810361051f57600160405180606001604052806027815260200161169f602791399093509350505061054a565b505b610527565b5b505b60006040518060600160405280603581526020016116c66035913990915091505b9091565b6000816040516020016105619190611314565b60405160208183030381529060405280519060200120836040516020016105889190611314565b6040516020818303038152906040528051906020012014905092915050565b6105af6102af565b73ffffffffffffffffffffffffffffffffffffffff166324d7806c336040518263ffffffff1660e01b81526004016105e79190611296565b602060405180830381865afa158015610604573d6000803e3d6000fd5b505050506040513d601f19601f820116820180604052508101906106289190611357565b610667576040517f08c379a000000000000000000000000000000000000000000000000000000000815260040161065e906113f6565b60405180910390fd5b600073ffffffffffffffffffffffffffffffffffffffff168273ffffffffffffffffffffffffffffffffffffffff16036106d6576040517f08c379a00000000000000000000000000000000000000000000000000000000081526004016106cd90611462565b60405180910390fd5b3373ffffffffffffffffffffffffffffffffffffffff168273ffffffffffffffffffffffffffffffffffffffff16148061073b57503273ffffffffffffffffffffffffffffffffffffffff168273ffffffffffffffffffffffffffffffffffffffff16145b806107c357506107496102af565b73ffffffffffffffffffffffffffffffffffffffff166324d7806c836040518263ffffffff1660e01b815260040161078191906114a3565b602060405180830381865afa15801561079e573d6000803e3d6000fd5b505050506040513d601f19601f820116820180604052508101906107c29190611357565b5b610802576040517f08c379a00000000000000000000000000000000000000000000000000000000081526004016107f990611530565b60405180910390fd5b47811015610845576040517f08c379a000000000000000000000000000000000000000000000000000000000815260040161083c9061159c565b60405180910390fd5b60008273ffffffffffffffffffffffffffffffffffffffff168260405161086b906115ed565b60006040518083038185875af1925050503d80600081146108a8576040519150601f19603f3d011682016040523d82523d6000602084013e6108ad565b606091505b50509050806108f1576040517f08c379a00000000000000000000000000000000000000000000000000000000081526004016108e89061164e565b60405180910390fd5b505050565b816000806101000a81548173ffffffffffffffffffffffffffffffffffffffff021916908373ffffffffffffffffffffffffffffffffffffffff16021790555060006109406102af565b90508073ffffffffffffffffffffffffffffffffffffffff16637fb99b9330846040518363ffffffff1660e01b815260040161097d92919061166e565b600060405180830381600087803b15801561099757600080fd5b505af11580156109ab573d6000803e3d6000fd5b50505050505050565b6000604051905090565b600080fd5b600080fd5b600073ffffffffffffffffffffffffffffffffffffffff82169050919050565b60006109f3826109c8565b9050919050565b610a03816109e8565b8114610a0e57600080fd5b50565b600081359050610a20816109fa565b92915050565b60008060408385031215610a3d57610a3c6109be565b5b6000610a4b85828601610a11565b9250506020610a5c85828601610a11565b9150509250929050565b600080fd5b600080fd5b6000601f19601f8301169050919050565b7f4e487b7100000000000000000000000000000000000000000000000000000000600052604160045260246000fd5b610ab982610a70565b810181811067ffffffffffffffff82111715610ad857610ad7610a81565b5b80604052505050565b6000610aeb6109b4565b9050610af78282610ab0565b919050565b600067ffffffffffffffff821115610b1757610b16610a81565b5b610b2082610a70565b9050602081019050919050565b82818337600083830152505050565b6000610b4f610b4a84610afc565b610ae1565b905082815260208101848484011115610b6b57610b6a610a6b565b5b610b76848285610b2d565b509392505050565b600082601f830112610b9357610b92610a66565b5b8135610ba3848260208601610b3c565b91505092915050565b600080600060608486031215610bc557610bc46109be565b5b600084013567ffffffffffffffff811115610be357610be26109c3565b5b610bef86828701610b7e565b935050602084013567ffffffffffffffff811115610c1057610c0f6109c3565b5b610c1c86828701610b7e565b925050604084013567ffffffffffffffff811115610c3d57610c3c6109c3565b5b610c4986828701610b7e565b9150509250925092565b600081519050919050565b600082825260208201905092915050565b60005b83811015610c8d578082015181840152602081019050610c72565b60008484015250505050565b6000610ca482610c53565b610cae8185610c5e565b9350610cbe818560208601610c6f565b610cc781610a70565b840191505092915050565b60006020820190508181036000830152610cec8184610c99565b905092915050565b6000819050919050565b6000610d19610d14610d0f846109c8565b610cf4565b6109c8565b9050919050565b6000610d2b82610cfe565b9050919050565b6000610d3d82610d20565b9050919050565b610d4d81610d32565b82525050565b6000602082019050610d686000830184610d44565b92915050565b60008060008060808587031215610d8857610d876109be565b5b600085013567ffffffffffffffff811115610da657610da56109c3565b5b610db287828801610b7e565b945050602085013567ffffffffffffffff811115610dd357610dd26109c3565b5b610ddf87828801610b7e565b935050604085013567ffffffffffffffff811115610e0057610dff6109c3565b5b610e0c87828801610b7e565b925050606085013567ffffffffffffffff811115610e2d57610e2c6109c3565b5b610e3987828801610b7e565b91505092959194509250565b60008115159050919050565b610e5a81610e45565b82525050565b60006040820190508181036000830152610e7a8185610c99565b9050610e896020830184610e51565b9392505050565b60008060408385031215610ea757610ea66109be565b5b600083013567ffffffffffffffff811115610ec557610ec46109c3565b5b610ed185828601610b7e565b925050602083013567ffffffffffffffff811115610ef257610ef16109c3565b5b610efe85828601610b7e565b9150509250929050565b6000602082019050610f1d6000830184610e51565b92915050565b6000610f2e826109c8565b9050919050565b610f3e81610f23565b8114610f4957600080fd5b50565b600081359050610f5b81610f35565b92915050565b6000819050919050565b610f7481610f61565b8114610f7f57600080fd5b50565b600081359050610f9181610f6b565b92915050565b60008060408385031215610fae57610fad6109be565b5b6000610fbc85828601610f4c565b9250506020610fcd85828601610f82565b9150509250929050565b60008060408385031215610fee57610fed6109be565b5b6000610ffc85828601610a11565b925050602083013567ffffffffffffffff81111561101d5761101c6109c3565b5b61102985828601610b7e565b9150509250929050565b600081905092915050565b600061104982610c53565b6110538185611033565b9350611063818560208601610c6f565b80840191505092915050565b7f3a20000000000000000000000000000000000000000000000000000000000000600082015250565b60006110a5600283611033565b91506110b08261106f565b600282019050919050565b7f203e200000000000000000000000000000000000000000000000000000000000600082015250565b60006110f1600383611033565b91506110fc826110bb565b600382019050919050565b6000611113828661103e565b915061111e82611098565b915061112a828561103e565b9150611135826110e4565b9150611141828461103e565b9150819050949350505050565b7f2045787065637465643a20000000000000000000000000000000000000000000600082015250565b6000611184600b83611033565b915061118f8261114e565b600b82019050919050565b7f2041637475616c3a200000000000000000000000000000000000000000000000600082015250565b60006111d0600983611033565b91506111db8261119a565b600982019050919050565b60006111f2828761103e565b91506111fd82611098565b9150611209828661103e565b915061121482611177565b9150611220828561103e565b915061122b826111c3565b9150611237828461103e565b915081905095945050505050565b60008151905061125481610f6b565b92915050565b6000602082840312156112705761126f6109be565b5b600061127e84828501611245565b91505092915050565b611290816109e8565b82525050565b60006020820190506112ab6000830184611287565b92915050565b7f4e487b7100000000000000000000000000000000000000000000000000000000600052601160045260246000fd5b60006112eb82610f61565b91506112f683610f61565b925082820190508082111561130e5761130d6112b1565b5b92915050565b6000611320828461103e565b915081905092915050565b61133481610e45565b811461133f57600080fd5b50565b6000815190506113518161132b565b92915050565b60006020828403121561136d5761136c6109be565b5b600061137b84828501611342565b91505092915050565b7f4f6e6c7920636f6e74726163742061646d696e2063616e20776974686472617760008201527f2066756e64730000000000000000000000000000000000000000000000000000602082015250565b60006113e0602683610c5e565b91506113eb82611384565b604082019050919050565b6000602082019050818103600083015261140f816113d3565b9050919050565b7f496e76616c696420616464726573730000000000000000000000000000000000600082015250565b600061144c600f83610c5e565b915061145782611416565b602082019050919050565b6000602082019050818103600083015261147b8161143f565b9050919050565b600061148d82610d20565b9050919050565b61149d81611482565b82525050565b60006020820190506114b86000830184611494565b92915050565b7f46756e64732063616e206f6e6c792062652077697468647261776e20746f206160008201527f646d696e2c206d73672e73656e646572206f722074782e6f726967696e000000602082015250565b600061151a603d83610c5e565b9150611525826114be565b604082019050919050565b600060208201905081810360008301526115498161150d565b9050919050565b7f496e73756666696369656e742066756e64730000000000000000000000000000600082015250565b6000611586601283610c5e565b915061159182611550565b602082019050919050565b600060208201905081810360008301526115b581611579565b9050919050565b600081905092915050565b50565b60006115d76000836115bc565b91506115e2826115c7565b600082019050919050565b60006115f8826115ca565b9150819050919050565b7f5472616e73666572206661696c65642e00000000000000000000000000000000600082015250565b6000611638601083610c5e565b915061164382611602565b602082019050919050565b600060208201905081810360008301526116678161162b565b9050919050565b60006040820190506116836000830185611287565b81810360208301526116958184610c99565b9050939250505056fe506173736564202845786572636973652043293a204578657263697365204320706173736564214572726f72202845786572636973652043293a204572726f722077697468206d6574686f647320696e204578657263697365204321a26469706673582212208aeea5eb169dc1418dbe24da9ee525e203beef9f5f1551c1dfaf00df42dbacca64736f6c63430008120033535332332041737369676e6d656e7420312056616c696461746f7220436f6e7472616374202d205461736b2043",
  "immutableReferences": {},
  "source": "// SPDX-License-Identifier: MIT\r\npragma solidity ^0.8.17;\r\n\r\n// Import the IAssignment1.sol\r\nimport \"./interface/IAssignment1.sol\";\r\n\r\nimport \"../../node_modules/@openzeppelin/contracts/utils/Base64.sol\";\r\nimport \"../../node_modules/@openzeppelin/contracts/utils/Strings.sol\";\r\n\r\n// Import Helper\r\nimport \"../Helper.sol\";\r\n\r\n// Import the assignment validator extend contract\r\nimport \"./Validator1Helper.sol\";\r\n\r\n// import \"BaseConfig.sol\";\r\nimport \"../BaseConfig.sol\";\r\n\r\n// Give the contract a name and inherit from the base assignment validator\r\ncontract Validator1TaskC is Helper, BaseConfig {\r\n    using Strings for uint256;\r\n\r\n    // assignment contract interface\r\n    IAssignment1 assignmentContract;\r\n    Validator1Helper validator1Helper;\r\n\r\n    constructor(address _configContractAddress) {\r\n        initAdmin(\r\n            _configContractAddress,\r\n            \"SS23 Assignment 1 Validator Contract - Task C\"\r\n        );\r\n    }\r\n\r\n    receive() external payable {}\r\n\r\n    // Init contract\r\n    function initContract(\r\n        address _contractAddress,\r\n        address _validator1HelperAddress\r\n    ) public {\r\n        // Call the contract interface which needs to be tested and store it in the variable assignmentContract\r\n        assignmentContract = IAssignment1(_contractAddress);\r\n        validator1Helper = Validator1Helper(payable(_validator1HelperAddress));\r\n    }\r\n\r\n    function testExerciseC() public payable returns (string memory, bool) {\r\n        /*----------  EXERCISE C  ----------*/\r\n\r\n        try assignmentContract.getPrice() returns (uint256 oldPriceC) {\r\n            if (oldPriceC > 0) {\r\n                // mint a nft and send to _address and pay 0.01 ether\r\n                try assignmentContract.mint{value: 0.01 ether}(msg.sender) {\r\n                    uint256 newPriceC = assignmentContract.getPrice();\r\n\r\n                    if (newPriceC == oldPriceC + 0.0001 ether) {\r\n                        return (\r\n                            \"Passed (Exercise C): Exercise C passed!\",\r\n                            true\r\n                        );\r\n                    }\r\n                } catch {}\r\n            } else {}\r\n        } catch {}\r\n\r\n        return (\"Error (Exercise C): Error with methods in Exercise C!\", false);\r\n    }\r\n}\r\n",
  "sourcePath": "C:\\Users\\jonas\\Repos\\mtp-blockchain\\smart-contracts\\contracts\\assignment_1\\Validator1TaskC.sol",
  "compiler": {
    "name": "solc",
    "version": "0.8.18+commit.87f61d96.Emscripten.clang"
  },
  "schemaVersion": "3.4.11",
  "updatedAt": "2023-02-05T15:34:49.062Z",
  "devdoc": {
    "kind": "dev",
    "methods": {},
    "version": 1
  },
  "userdoc": {
    "kind": "user",
    "methods": {},
    "version": 1
  }
}