{
  "contractName": "Validator3TaskC",
  "abi": [
    {
      "inputs": [
        {
          "internalType": "address",
          "name": "_configContractAddress",
          "type": "address"
        }
      ],
      "stateMutability": "nonpayable",
      "type": "constructor"
    },
    {
      "stateMutability": "payable",
      "type": "fallback"
    },
    {
      "inputs": [
        {
          "internalType": "string",
          "name": "_prefix",
          "type": "string"
        },
        {
          "internalType": "string",
          "name": "_message",
          "type": "string"
        },
        {
          "internalType": "string",
          "name": "_errorMsg",
          "type": "string"
        }
      ],
      "name": "buildErrorMessage",
      "outputs": [
        {
          "internalType": "string",
          "name": "",
          "type": "string"
        }
      ],
      "stateMutability": "pure",
      "type": "function"
    },
    {
      "inputs": [
        {
          "internalType": "string",
          "name": "_prefix",
          "type": "string"
        },
        {
          "internalType": "string",
          "name": "_message",
          "type": "string"
        },
        {
          "internalType": "string",
          "name": "_expected",
          "type": "string"
        },
        {
          "internalType": "string",
          "name": "_actual",
          "type": "string"
        }
      ],
      "name": "buildErrorMessageExtended",
      "outputs": [
        {
          "internalType": "string",
          "name": "",
          "type": "string"
        }
      ],
      "stateMutability": "pure",
      "type": "function"
    },
    {
      "inputs": [
        {
          "internalType": "string",
          "name": "a",
          "type": "string"
        },
        {
          "internalType": "string",
          "name": "b",
          "type": "string"
        }
      ],
      "name": "compareStrings",
      "outputs": [
        {
          "internalType": "bool",
          "name": "",
          "type": "bool"
        }
      ],
      "stateMutability": "pure",
      "type": "function"
    },
    {
      "inputs": [],
      "name": "getConfigStorage",
      "outputs": [
        {
          "internalType": "contract ConfigStorage",
          "name": "",
          "type": "address"
        }
      ],
      "stateMutability": "view",
      "type": "function"
    },
    {
      "inputs": [
        {
          "internalType": "address",
          "name": "_configContractAddress",
          "type": "address"
        },
        {
          "internalType": "string",
          "name": "_contractName",
          "type": "string"
        }
      ],
      "name": "initAdmin",
      "outputs": [],
      "stateMutability": "nonpayable",
      "type": "function"
    },
    {
      "inputs": [
        {
          "internalType": "address payable",
          "name": "_to",
          "type": "address"
        },
        {
          "internalType": "uint256",
          "name": "_value",
          "type": "uint256"
        }
      ],
      "name": "withdrawFunds",
      "outputs": [],
      "stateMutability": "payable",
      "type": "function"
    },
    {
      "stateMutability": "payable",
      "type": "receive"
    },
    {
      "inputs": [
        {
          "internalType": "address",
          "name": "_contractAddress",
          "type": "address"
        }
      ],
      "name": "initContract",
      "outputs": [],
      "stateMutability": "nonpayable",
      "type": "function"
    },
    {
      "inputs": [],
      "name": "testExerciseC",
      "outputs": [
        {
          "internalType": "string",
          "name": "",
          "type": "string"
        },
        {
          "internalType": "bool",
          "name": "",
          "type": "bool"
        }
      ],
      "stateMutability": "payable",
      "type": "function"
    },
    {
      "inputs": [],
      "name": "testAttack",
      "outputs": [
        {
          "internalType": "string",
          "name": "",
          "type": "string"
        },
        {
          "internalType": "bool",
          "name": "",
          "type": "bool"
        }
      ],
      "stateMutability": "payable",
      "type": "function"
    }
  ],
  "bytecode": "0x60806040523480156200001157600080fd5b5060405162002a1138038062002a118339818101604052810190620000379190620001c6565b62000062816040518060600160405280602d8152602001620029e4602d91396200006960201b60201c565b50620002d7565b816000806101000a81548173ffffffffffffffffffffffffffffffffffffffff021916908373ffffffffffffffffffffffffffffffffffffffff1602179055506000620000bb6200013360201b60201c565b90508073ffffffffffffffffffffffffffffffffffffffff16637fb99b9330846040518363ffffffff1660e01b8152600401620000fa929190620002a3565b600060405180830381600087803b1580156200011557600080fd5b505af11580156200012a573d6000803e3d6000fd5b50505050505050565b60008060009054906101000a900473ffffffffffffffffffffffffffffffffffffffff16905090565b600080fd5b600073ffffffffffffffffffffffffffffffffffffffff82169050919050565b60006200018e8262000161565b9050919050565b620001a08162000181565b8114620001ac57600080fd5b50565b600081519050620001c08162000195565b92915050565b600060208284031215620001df57620001de6200015c565b5b6000620001ef84828501620001af565b91505092915050565b620002038162000181565b82525050565b600081519050919050565b600082825260208201905092915050565b60005b838110156200024557808201518184015260208101905062000228565b60008484015250505050565b6000601f19601f8301169050919050565b60006200026f8262000209565b6200027b818562000214565b93506200028d81856020860162000225565b620002988162000251565b840191505092915050565b6000604082019050620002ba6000830185620001f8565b8181036020830152620002ce818462000262565b90509392505050565b6126fd80620002e76000396000f3fe60806040526004361061008a5760003560e01c80639a304b09116100595780639a304b0914610587578063bed34bba146105a6578063c1075329146105e3578063cf9d4afa146105ff578063fae45fbe14610628576102a9565b80632b518301146104c3578063516cbbe2146105005780635827a0651461052b5780636f2db99c14610568576102a9565b366102a9576064600160009054906101000a900473ffffffffffffffffffffffffffffffffffffffff1673ffffffffffffffffffffffffffffffffffffffff1631106102a7576000600160009054906101000a900473ffffffffffffffffffffffffffffffffffffffff1673ffffffffffffffffffffffffffffffffffffffff166302a569e660016040518263ffffffff1660e01b815260040161012e919061150c565b6000604051808303816000875af115801561014d573d6000803e3d6000fd5b505050506040513d6000823e3d601f19601f82011682018060405250810190610176919061169c565b90506000600160009054906101000a900473ffffffffffffffffffffffffffffffffffffffff1673ffffffffffffffffffffffffffffffffffffffff1663c5bacb9660016040518263ffffffff1660e01b81526004016101d6919061150c565b6020604051808303816000875af11580156101f5573d6000803e3d6000fd5b505050506040513d601f19601f820116820180604052508101906102199190611711565b9050600160009054906101000a900473ffffffffffffffffffffffffffffffffffffffff1673ffffffffffffffffffffffffffffffffffffffff16633c25667a82846040518363ffffffff1660e01b81526004016102789291906117a2565b600060405180830381600087803b15801561029257600080fd5b505af19250505080156102a3575060015b5050505b005b6064600160009054906101000a900473ffffffffffffffffffffffffffffffffffffffff1673ffffffffffffffffffffffffffffffffffffffff1631106104c1576000600160009054906101000a900473ffffffffffffffffffffffffffffffffffffffff1673ffffffffffffffffffffffffffffffffffffffff166302a569e660016040518263ffffffff1660e01b8152600401610348919061150c565b6000604051808303816000875af1158015610367573d6000803e3d6000fd5b505050506040513d6000823e3d601f19601f82011682018060405250810190610390919061169c565b90506000600160009054906101000a900473ffffffffffffffffffffffffffffffffffffffff1673ffffffffffffffffffffffffffffffffffffffff1663c5bacb9660016040518263ffffffff1660e01b81526004016103f0919061150c565b6020604051808303816000875af115801561040f573d6000803e3d6000fd5b505050506040513d601f19601f820116820180604052508101906104339190611711565b9050600160009054906101000a900473ffffffffffffffffffffffffffffffffffffffff1673ffffffffffffffffffffffffffffffffffffffff16633c25667a82846040518363ffffffff1660e01b81526004016104929291906117a2565b600060405180830381600087803b1580156104ac57600080fd5b505af19250505080156104bd575060015b5050505b005b3480156104cf57600080fd5b506104ea60048036038101906104e59190611882565b610651565b6040516104f7919061197e565b60405180910390f35b34801561050c57600080fd5b50610515610680565b6040516105229190611a15565b60405180910390f35b34801561053757600080fd5b50610552600480360381019061054d9190611a30565b6106a9565b60405161055f919061197e565b60405180910390f35b6105706106db565b60405161057e929190611b22565b60405180910390f35b61058f610fa9565b60405161059d929190611b22565b60405180910390f35b3480156105b257600080fd5b506105cd60048036038101906105c89190611b52565b611013565b6040516105da9190611bca565b60405180910390f35b6105fd60048036038101906105f89190611c38565b61106c565b005b34801561060b57600080fd5b5061062660048036038101906106219190611cb6565b6113bb565b005b34801561063457600080fd5b5061064f600480360381019061064a9190611ce3565b6113ff565b005b606083838360405160200161066893929190611e13565b60405160208183030381529060405290509392505050565b60008060009054906101000a900473ffffffffffffffffffffffffffffffffffffffff16905090565b6060848484846040516020016106c29493929190611ef2565b6040516020818303038152906040529050949350505050565b6060600080600160009054906101000a900473ffffffffffffffffffffffffffffffffffffffff1673ffffffffffffffffffffffffffffffffffffffff1663893d20e86040518163ffffffff1660e01b81526004016020604051808303816000875af115801561074f573d6000803e3d6000fd5b505050506040513d601f19601f820116820180604052508101906107739190611f66565b90506000309050600160009054906101000a900473ffffffffffffffffffffffffffffffffffffffff1673ffffffffffffffffffffffffffffffffffffffff16638b680cc36040518163ffffffff1660e01b8152600401600060405180830381600087803b1580156107e457600080fd5b505af19250505080156107f5575060015b61087557610801611fa0565b806308c379a0036108695750610815611fc2565b80610820575061086b565b61085b60405180606001604052806026815260200161267b602691396040518060600160405280602181526020016125266021913983610651565b600094509450505050610fa5565b505b3d6000803e3d6000fd5b60006103e89050600160009054906101000a900473ffffffffffffffffffffffffffffffffffffffff1673ffffffffffffffffffffffffffffffffffffffff1663e1d1882b8285856040518463ffffffff1660e01b81526004016108da929190612061565b6000604051808303818588803b1580156108f357600080fd5b505af193505050508015610905575060015b61098657610911611fa0565b806308c379a00361097a5750610925611fc2565b80610930575061097c565b61096b60405180606001604052806026815260200161267b602691396040518060600160405280602981526020016126006029913983610651565b60009550955050505050610fa5565b505b3d6000803e3d6000fd5b6000600160009054906101000a900473ffffffffffffffffffffffffffffffffffffffff1673ffffffffffffffffffffffffffffffffffffffff166302a569e660016040518263ffffffff1660e01b81526004016109e4919061150c565b6000604051808303816000875af1158015610a03573d6000803e3d6000fd5b505050506040513d6000823e3d601f19601f82011682018060405250810190610a2c919061169c565b90506000600160009054906101000a900473ffffffffffffffffffffffffffffffffffffffff1673ffffffffffffffffffffffffffffffffffffffff1663c5bacb9660016040518263ffffffff1660e01b8152600401610a8c919061150c565b6020604051808303816000875af1158015610aab573d6000803e3d6000fd5b505050506040513d601f19601f82011682018060405250810190610acf9190611711565b905060008103610b5957610b496040518060400160405280601281526020017f4572726f722028457865726369736520412900000000000000000000000000008152506040518060600160405280602c81526020016124fa602c91396040518060800160405280604481526020016124b660449139610651565b6000965096505050505050610fa5565b6000825103610be257610bd26040518060400160405280601281526020017f4572726f72202845786572636973652041290000000000000000000000000000815250604051806060016040528060238152602001612493602391396040518060800160405280604481526020016124b660449139610651565b6000965096505050505050610fa5565b60648114610c4d57610c3d60405180606001604052806026815260200161267b602691396040518060600160405280602481526020016125dc6024913960405180606001604052806021815260200161265a60219139610651565b6000965096505050505050610fa5565b600160009054906101000a900473ffffffffffffffffffffffffffffffffffffffff1673ffffffffffffffffffffffffffffffffffffffff166339c42fe382846040518363ffffffff1660e01b8152600401610caa9291906117a2565b602060405180830381865afa925050508015610ce457506040513d601f19601f82011682018060405250810190610ce191906120b6565b60015b610d6757610cf0611fa0565b806308c379a003610d5b5750610d04611fc2565b80610d0f5750610d5d565b610d4a60405180606001604052806026815260200161267b602691396040518060600160405280602781526020016126a16027913983610651565b600097509750505050505050610fa5565b505b3d6000803e3d6000fd5b80610ded57610ddc60405180606001604052806026815260200161267b602691396040518060600160405280602481526020016125dc602491396040518060400160405280601e81526020017f546865207369676e61747572652073686f756c642062652076616c69642e0000815250610651565b600097509750505050505050610fa5565b506000479050600160009054906101000a900473ffffffffffffffffffffffffffffffffffffffff1673ffffffffffffffffffffffffffffffffffffffff16633c25667a83856040518363ffffffff1660e01b8152600401610e509291906117a2565b600060405180830381600087803b158015610e6a57600080fd5b505af1925050508015610e7b575060015b610eff57610e87611fa0565b806308c379a003610ef35750610e9b611fc2565b80610ea65750610ef5565b610ee160405180606001604052806026815260200161267b602691396040518060600160405280602f8152602001612547602f913983610651565b60009850985050505050505050610fa5565b505b3d6000803e3d6000fd5b6000479050606482610f119190612112565b811115610f7d57610f6b60405180606001604052806026815260200161267b602691396040518060600160405280602f8152602001612547602f91396040518060a001604052806066815260200161257660669139610651565b60009850985050505050505050610fa5565b6001604051806060016040528060318152602001612629603191399098509850505050505050505b9091565b60606000806000610fb86106db565b9150915080610fcf5781600093509350505061100f565b60016040518060400160405280601d81526020017f457865726369736520433a20416c6c207465737473207061737365642e000000815250909350935050505b9091565b6000816040516020016110269190612146565b604051602081830303815290604052805190602001208360405160200161104d9190612146565b6040516020818303038152906040528051906020012014905092915050565b611074610680565b73ffffffffffffffffffffffffffffffffffffffff166324d7806c336040518263ffffffff1660e01b81526004016110ac919061215d565b602060405180830381865afa1580156110c9573d6000803e3d6000fd5b505050506040513d601f19601f820116820180604052508101906110ed91906120b6565b61112c576040517f08c379a0000000000000000000000000000000000000000000000000000000008152600401611123906121ea565b60405180910390fd5b600073ffffffffffffffffffffffffffffffffffffffff168273ffffffffffffffffffffffffffffffffffffffff160361119b576040517f08c379a000000000000000000000000000000000000000000000000000000000815260040161119290612256565b60405180910390fd5b3373ffffffffffffffffffffffffffffffffffffffff168273ffffffffffffffffffffffffffffffffffffffff16148061120057503273ffffffffffffffffffffffffffffffffffffffff168273ffffffffffffffffffffffffffffffffffffffff16145b80611288575061120e610680565b73ffffffffffffffffffffffffffffffffffffffff166324d7806c836040518263ffffffff1660e01b81526004016112469190612297565b602060405180830381865afa158015611263573d6000803e3d6000fd5b505050506040513d601f19601f8201168201806040525081019061128791906120b6565b5b6112c7576040517f08c379a00000000000000000000000000000000000000000000000000000000081526004016112be90612324565b60405180910390fd5b4781101561130a576040517f08c379a000000000000000000000000000000000000000000000000000000000815260040161130190612390565b60405180910390fd5b60008273ffffffffffffffffffffffffffffffffffffffff1682604051611330906123e1565b60006040518083038185875af1925050503d806000811461136d576040519150601f19603f3d011682016040523d82523d6000602084013e611372565b606091505b50509050806113b6576040517f08c379a00000000000000000000000000000000000000000000000000000000081526004016113ad90612442565b60405180910390fd5b505050565b80600160006101000a81548173ffffffffffffffffffffffffffffffffffffffff021916908373ffffffffffffffffffffffffffffffffffffffff16021790555050565b816000806101000a81548173ffffffffffffffffffffffffffffffffffffffff021916908373ffffffffffffffffffffffffffffffffffffffff1602179055506000611449610680565b90508073ffffffffffffffffffffffffffffffffffffffff16637fb99b9330846040518363ffffffff1660e01b8152600401611486929190612462565b600060405180830381600087803b1580156114a057600080fd5b505af11580156114b4573d6000803e3d6000fd5b50505050505050565b6000819050919050565b6000819050919050565b6000819050919050565b60006114f66114f16114ec846114bd565b6114d1565b6114c7565b9050919050565b611506816114db565b82525050565b600060208201905061152160008301846114fd565b92915050565b6000604051905090565b600080fd5b600080fd5b600080fd5b600080fd5b6000601f19601f8301169050919050565b7f4e487b7100000000000000000000000000000000000000000000000000000000600052604160045260246000fd5b61158e82611545565b810181811067ffffffffffffffff821117156115ad576115ac611556565b5b80604052505050565b60006115c0611527565b90506115cc8282611585565b919050565b600067ffffffffffffffff8211156115ec576115eb611556565b5b6115f582611545565b9050602081019050919050565b60005b83811015611620578082015181840152602081019050611605565b60008484015250505050565b600061163f61163a846115d1565b6115b6565b90508281526020810184848401111561165b5761165a611540565b5b611666848285611602565b509392505050565b600082601f8301126116835761168261153b565b5b815161169384826020860161162c565b91505092915050565b6000602082840312156116b2576116b1611531565b5b600082015167ffffffffffffffff8111156116d0576116cf611536565b5b6116dc8482850161166e565b91505092915050565b6116ee816114c7565b81146116f957600080fd5b50565b60008151905061170b816116e5565b92915050565b60006020828403121561172757611726611531565b5b6000611735848285016116fc565b91505092915050565b611747816114c7565b82525050565b600081519050919050565b600082825260208201905092915050565b60006117748261174d565b61177e8185611758565b935061178e818560208601611602565b61179781611545565b840191505092915050565b60006040820190506117b7600083018561173e565b81810360208301526117c98184611769565b90509392505050565b600067ffffffffffffffff8211156117ed576117ec611556565b5b6117f682611545565b9050602081019050919050565b82818337600083830152505050565b6000611825611820846117d2565b6115b6565b90508281526020810184848401111561184157611840611540565b5b61184c848285611803565b509392505050565b600082601f8301126118695761186861153b565b5b8135611879848260208601611812565b91505092915050565b60008060006060848603121561189b5761189a611531565b5b600084013567ffffffffffffffff8111156118b9576118b8611536565b5b6118c586828701611854565b935050602084013567ffffffffffffffff8111156118e6576118e5611536565b5b6118f286828701611854565b925050604084013567ffffffffffffffff81111561191357611912611536565b5b61191f86828701611854565b9150509250925092565b600081519050919050565b600082825260208201905092915050565b600061195082611929565b61195a8185611934565b935061196a818560208601611602565b61197381611545565b840191505092915050565b600060208201905081810360008301526119988184611945565b905092915050565b600073ffffffffffffffffffffffffffffffffffffffff82169050919050565b60006119db6119d66119d1846119a0565b6114d1565b6119a0565b9050919050565b60006119ed826119c0565b9050919050565b60006119ff826119e2565b9050919050565b611a0f816119f4565b82525050565b6000602082019050611a2a6000830184611a06565b92915050565b60008060008060808587031215611a4a57611a49611531565b5b600085013567ffffffffffffffff811115611a6857611a67611536565b5b611a7487828801611854565b945050602085013567ffffffffffffffff811115611a9557611a94611536565b5b611aa187828801611854565b935050604085013567ffffffffffffffff811115611ac257611ac1611536565b5b611ace87828801611854565b925050606085013567ffffffffffffffff811115611aef57611aee611536565b5b611afb87828801611854565b91505092959194509250565b60008115159050919050565b611b1c81611b07565b82525050565b60006040820190508181036000830152611b3c8185611945565b9050611b4b6020830184611b13565b9392505050565b60008060408385031215611b6957611b68611531565b5b600083013567ffffffffffffffff811115611b8757611b86611536565b5b611b9385828601611854565b925050602083013567ffffffffffffffff811115611bb457611bb3611536565b5b611bc085828601611854565b9150509250929050565b6000602082019050611bdf6000830184611b13565b92915050565b6000611bf0826119a0565b9050919050565b611c0081611be5565b8114611c0b57600080fd5b50565b600081359050611c1d81611bf7565b92915050565b600081359050611c32816116e5565b92915050565b60008060408385031215611c4f57611c4e611531565b5b6000611c5d85828601611c0e565b9250506020611c6e85828601611c23565b9150509250929050565b6000611c83826119a0565b9050919050565b611c9381611c78565b8114611c9e57600080fd5b50565b600081359050611cb081611c8a565b92915050565b600060208284031215611ccc57611ccb611531565b5b6000611cda84828501611ca1565b91505092915050565b60008060408385031215611cfa57611cf9611531565b5b6000611d0885828601611ca1565b925050602083013567ffffffffffffffff811115611d2957611d28611536565b5b611d3585828601611854565b9150509250929050565b600081905092915050565b6000611d5582611929565b611d5f8185611d3f565b9350611d6f818560208601611602565b80840191505092915050565b7f3a20000000000000000000000000000000000000000000000000000000000000600082015250565b6000611db1600283611d3f565b9150611dbc82611d7b565b600282019050919050565b7f203e200000000000000000000000000000000000000000000000000000000000600082015250565b6000611dfd600383611d3f565b9150611e0882611dc7565b600382019050919050565b6000611e1f8286611d4a565b9150611e2a82611da4565b9150611e368285611d4a565b9150611e4182611df0565b9150611e4d8284611d4a565b9150819050949350505050565b7f2045787065637465643a20000000000000000000000000000000000000000000600082015250565b6000611e90600b83611d3f565b9150611e9b82611e5a565b600b82019050919050565b7f2041637475616c3a200000000000000000000000000000000000000000000000600082015250565b6000611edc600983611d3f565b9150611ee782611ea6565b600982019050919050565b6000611efe8287611d4a565b9150611f0982611da4565b9150611f158286611d4a565b9150611f2082611e83565b9150611f2c8285611d4a565b9150611f3782611ecf565b9150611f438284611d4a565b915081905095945050505050565b600081519050611f6081611c8a565b92915050565b600060208284031215611f7c57611f7b611531565b5b6000611f8a84828501611f51565b91505092915050565b60008160e01c9050919050565b600060033d1115611fbf5760046000803e611fbc600051611f93565b90505b90565b600060443d1061204f57611fd4611527565b60043d036004823e80513d602482011167ffffffffffffffff82111715611ffc57505061204f565b808201805167ffffffffffffffff81111561201a575050505061204f565b80602083010160043d03850181111561203757505050505061204f565b61204682602001850186611585565b82955050505050505b90565b61205b81611c78565b82525050565b60006040820190506120766000830185612052565b6120836020830184612052565b9392505050565b61209381611b07565b811461209e57600080fd5b50565b6000815190506120b08161208a565b92915050565b6000602082840312156120cc576120cb611531565b5b60006120da848285016120a1565b91505092915050565b7f4e487b7100000000000000000000000000000000000000000000000000000000600052601160045260246000fd5b600061211d826114c7565b9150612128836114c7565b92508282019050808211156121405761213f6120e3565b5b92915050565b60006121528284611d4a565b915081905092915050565b60006020820190506121726000830184612052565b92915050565b7f4f6e6c7920636f6e74726163742061646d696e2063616e20776974686472617760008201527f2066756e64730000000000000000000000000000000000000000000000000000602082015250565b60006121d4602683611934565b91506121df82612178565b604082019050919050565b60006020820190508181036000830152612203816121c7565b9050919050565b7f496e76616c696420616464726573730000000000000000000000000000000000600082015250565b6000612240600f83611934565b915061224b8261220a565b602082019050919050565b6000602082019050818103600083015261226f81612233565b9050919050565b6000612281826119e2565b9050919050565b61229181612276565b82525050565b60006020820190506122ac6000830184612288565b92915050565b7f46756e64732063616e206f6e6c792062652077697468647261776e20746f206160008201527f646d696e2c206d73672e73656e646572206f722074782e6f726967696e000000602082015250565b600061230e603d83611934565b9150612319826122b2565b604082019050919050565b6000602082019050818103600083015261233d81612301565b9050919050565b7f496e73756666696369656e742066756e64730000000000000000000000000000600082015250565b600061237a601283611934565b915061238582612344565b602082019050919050565b600060208201905081810360008301526123a98161236d565b9050919050565b600081905092915050565b50565b60006123cb6000836123b0565b91506123d6826123bb565b600082019050919050565b60006123ec826123be565b9150819050919050565b7f5472616e73666572206661696c65642e00000000000000000000000000000000600082015250565b600061242c601083611934565b9150612437826123f6565b602082019050919050565b6000602082019050818103600083015261245b8161241f565b9050919050565b60006040820190506124776000830185612052565b81810360208301526124898184611945565b9050939250505056fe4572726f722077697468206765745369676e617475726528292066756e6374696f6e2e5468652073746f726564207369676e6174757265207769746820696e6465783a2030206973206e6f742076616c69642e2045787065637420746f2062652076616c69642e4572726f722077697468206765745369676e6174757265457468416d6f756e7428292066756e6374696f6e2e4572726f72207769746820666f726365526573657428292066756e6374696f6e2e4572726f72207769746820636c6f73654368616e6e656c4e6f5265656e7472616e637928292066756e6374696f6e2e5468652062616c616e63652073686f756c6420626520696e6372656173656420627920313030207765692e20496620696e63726561736564206d6f72652c207468652061747461636b20776173207375636365737366756c2e205461736b206661696c6564214572726f722077697468207361766564207369676e6174757265207769746820696420314572726f722077697468206f70656e4368616e6e656c54696d656f757428292066756e6374696f6e2e4578657263697365204320287265656e7472616e63792061747461636b293a20416c6c207465737473207061737365642e5468652065746820616d6f756e742073686f756c6420626520313030207765692e4572726f72202845786572636973652043202d207265656e7472616e63792061747461636b294572726f722077697468207665726966795061796d656e744d736728292066756e6374696f6e2ea2646970667358221220daa4537a451d858e3f4075e516c62b1dcdffd1053d5f28307f8b2d7fa9e5e55964736f6c63430008130033535332332041737369676e6d656e7420332056616c696461746f7220436f6e7472616374202d205461736b2043",
  "immutableReferences": {},
  "source": "// SPDX-License-Identifier: MIT\r\npragma solidity ^0.8.17;\r\n\r\n// Import the IAssignment3.sol\r\nimport \"./interface/IAssignment3.sol\";\r\n\r\n// Import Helper\r\nimport \"../Helper.sol\";\r\n\r\n// import \"BaseConfig.sol\";\r\nimport \"../BaseConfig.sol\";\r\n\r\ncontract Validator3TaskC is Helper, BaseConfig {\r\n    // assignment contract interface\r\n    IAssignment3 assignmentContract;\r\n\r\n    constructor(address _configContractAddress) {\r\n        initAdmin(\r\n            _configContractAddress,\r\n            \"SS23 Assignment 3 Validator Contract - Task C\"\r\n        );\r\n    }\r\n\r\n    fallback() external payable {\r\n        if (address(assignmentContract).balance >= 100 wei) {\r\n            bytes memory signature = assignmentContract.getSignature(1);\r\n            uint256 ethAmount = assignmentContract.getSignatureEthAmount(1);\r\n\r\n            try\r\n                assignmentContract.closeChannelNoReentrancy(\r\n                    ethAmount,\r\n                    signature\r\n                )\r\n            {} catch {}\r\n        }\r\n    }\r\n\r\n    receive() external payable {\r\n        if (address(assignmentContract).balance >= 100 wei) {\r\n            bytes memory signature = assignmentContract.getSignature(1);\r\n            uint256 ethAmount = assignmentContract.getSignatureEthAmount(1);\r\n\r\n            try\r\n                assignmentContract.closeChannelNoReentrancy(\r\n                    ethAmount,\r\n                    signature\r\n                )\r\n            {} catch {}\r\n        }\r\n    }\r\n\r\n    // Init contract\r\n    function initContract(address _contractAddress) public {\r\n        // Call the contract interface which needs to be tested and store it in the variable assignmentContract\r\n        assignmentContract = IAssignment3(_contractAddress);\r\n    }\r\n\r\n    /*=============================================\r\n    =                  TASK B                   =\r\n    =============================================*/\r\n\r\n    function testExerciseC() public payable returns (string memory, bool) {\r\n        // TEST 1: test attack\r\n        (string memory test1Message, bool test1Result) = testAttack();\r\n        if (!test1Result) {\r\n            return (test1Message, false);\r\n        }\r\n\r\n        return (\"Exercise C: All tests passed.\", true);\r\n    }\r\n\r\n    function testAttack() public payable returns (string memory, bool) {\r\n        // Student address\r\n        address studentAddress = assignmentContract.getOwner();\r\n        address validatorAddress = address(this);\r\n\r\n        // Force reset\r\n        try assignmentContract.forceReset() {} catch Error(\r\n            string memory reason\r\n        ) {\r\n            return (\r\n                buildErrorMessage(\r\n                    \"Error (Exercise C - reentrancy attack)\",\r\n                    \"Error with forceReset() function.\",\r\n                    reason\r\n                ),\r\n                false\r\n            );\r\n        }\r\n\r\n        // Deposit amount\r\n        uint256 depositAmount = 1000 wei;\r\n\r\n        // Open channel\r\n        try\r\n            assignmentContract.openChannel{value: depositAmount}(\r\n                studentAddress,\r\n                validatorAddress\r\n            )\r\n        {} catch Error(string memory reason) {\r\n            return (\r\n                buildErrorMessage(\r\n                    \"Error (Exercise C - reentrancy attack)\",\r\n                    \"Error with openChannelTimeout() function.\",\r\n                    reason\r\n                ),\r\n                false\r\n            );\r\n        }\r\n\r\n        // Get validat signature\r\n        bytes memory signature = assignmentContract.getSignature(1);\r\n        uint256 ethAmount = assignmentContract.getSignatureEthAmount(1);\r\n\r\n        if (ethAmount == 0) {\r\n            return (\r\n                buildErrorMessage(\r\n                    \"Error (Exercise A)\",\r\n                    \"Error with getSignatureEthAmount() function.\",\r\n                    \"The stored signature with index: 0 is not valid. Expect to be valid.\"\r\n                ),\r\n                false\r\n            );\r\n        }\r\n\r\n        if (signature.length == 0) {\r\n            return (\r\n                buildErrorMessage(\r\n                    \"Error (Exercise A)\",\r\n                    \"Error with getSignature() function.\",\r\n                    \"The stored signature with index: 0 is not valid. Expect to be valid.\"\r\n                ),\r\n                false\r\n            );\r\n        }\r\n\r\n        // eth amount should be 100 wei\r\n        if (ethAmount != 100 wei) {\r\n            return (\r\n                buildErrorMessage(\r\n                    \"Error (Exercise C - reentrancy attack)\",\r\n                    \"Error with saved signature with id 1\",\r\n                    \"The eth amount should be 100 wei.\"\r\n                ),\r\n                false\r\n            );\r\n        }\r\n\r\n        // Signature with index 2 should be valid and have 100 wei\r\n        try assignmentContract.verifyPaymentMsg(ethAmount, signature) returns (\r\n            bool success\r\n        ) {\r\n            if (!success) {\r\n                return (\r\n                    buildErrorMessage(\r\n                        \"Error (Exercise C - reentrancy attack)\",\r\n                        \"Error with saved signature with id 1\",\r\n                        \"The signature should be valid.\"\r\n                    ),\r\n                    false\r\n                );\r\n            }\r\n        } catch Error(string memory reason) {\r\n            return (\r\n                buildErrorMessage(\r\n                    \"Error (Exercise C - reentrancy attack)\",\r\n                    \"Error with verifyPaymentMsg() function.\",\r\n                    reason\r\n                ),\r\n                false\r\n            );\r\n        }\r\n\r\n        // Get the balance of the receiver before the attack\r\n        uint256 balanceBeforeAttack = address(this).balance;\r\n\r\n        // Close Channel with reentrancy\r\n        try\r\n            assignmentContract.closeChannelNoReentrancy(ethAmount, signature)\r\n        {} catch Error(string memory reason) {\r\n            return (\r\n                buildErrorMessage(\r\n                    \"Error (Exercise C - reentrancy attack)\",\r\n                    \"Error with closeChannelNoReentrancy() function.\",\r\n                    reason\r\n                ),\r\n                false\r\n            );\r\n        }\r\n\r\n        // Get the balance of the receiver after the attack\r\n        uint256 balanceAfterAttack = address(this).balance;\r\n\r\n        // Check that new balance is only increased by 100 wei\r\n        if (balanceAfterAttack > balanceBeforeAttack + 100 wei) {\r\n            return (\r\n                buildErrorMessage(\r\n                    \"Error (Exercise C - reentrancy attack)\",\r\n                    \"Error with closeChannelNoReentrancy() function.\",\r\n                    \"The balance should be increased by 100 wei. If increased more, the attack was successful. Task failed!\"\r\n                ),\r\n                false\r\n            );\r\n        }\r\n\r\n        return (\"Exercise C (reentrancy attack): All tests passed.\", true);\r\n    }\r\n}\r\n",
  "sourcePath": "C:\\Users\\stefa\\www\\mtp-blockchain\\smart-contracts\\contracts\\assignment_3\\Validator3TaskC.sol",
  "compiler": {
    "name": "solc",
    "version": "0.8.19+commit.7dd6d404.Emscripten.clang"
  },
  "schemaVersion": "3.4.11",
  "updatedAt": "2023-02-28T09:01:11.376Z",
  "devdoc": {
    "kind": "dev",
    "methods": {},
    "version": 1
  },
  "userdoc": {
    "kind": "user",
    "methods": {},
    "version": 1
  }
}