{
  "contractName": "Validator2TaskB",
  "abi": [
    {
      "inputs": [
        {
          "internalType": "address",
          "name": "_configContractAddress",
          "type": "address"
        }
      ],
      "stateMutability": "nonpayable",
      "type": "constructor"
    },
    {
      "stateMutability": "payable",
      "type": "fallback"
    },
    {
      "inputs": [
        {
          "internalType": "string",
          "name": "_prefix",
          "type": "string"
        },
        {
          "internalType": "string",
          "name": "_message",
          "type": "string"
        },
        {
          "internalType": "string",
          "name": "_errorMsg",
          "type": "string"
        }
      ],
      "name": "buildErrorMessage",
      "outputs": [
        {
          "internalType": "string",
          "name": "",
          "type": "string"
        }
      ],
      "stateMutability": "pure",
      "type": "function"
    },
    {
      "inputs": [
        {
          "internalType": "string",
          "name": "_prefix",
          "type": "string"
        },
        {
          "internalType": "string",
          "name": "_message",
          "type": "string"
        },
        {
          "internalType": "string",
          "name": "_expected",
          "type": "string"
        },
        {
          "internalType": "string",
          "name": "_actual",
          "type": "string"
        }
      ],
      "name": "buildErrorMessageExtended",
      "outputs": [
        {
          "internalType": "string",
          "name": "",
          "type": "string"
        }
      ],
      "stateMutability": "pure",
      "type": "function"
    },
    {
      "inputs": [
        {
          "internalType": "string",
          "name": "a",
          "type": "string"
        },
        {
          "internalType": "string",
          "name": "b",
          "type": "string"
        }
      ],
      "name": "compareStrings",
      "outputs": [
        {
          "internalType": "bool",
          "name": "",
          "type": "bool"
        }
      ],
      "stateMutability": "pure",
      "type": "function"
    },
    {
      "inputs": [],
      "name": "getConfigStorage",
      "outputs": [
        {
          "internalType": "contract ConfigStorage",
          "name": "",
          "type": "address"
        }
      ],
      "stateMutability": "view",
      "type": "function"
    },
    {
      "inputs": [
        {
          "internalType": "address",
          "name": "_configContractAddress",
          "type": "address"
        },
        {
          "internalType": "string",
          "name": "_contractName",
          "type": "string"
        }
      ],
      "name": "initAdmin",
      "outputs": [],
      "stateMutability": "nonpayable",
      "type": "function"
    },
    {
      "inputs": [
        {
          "internalType": "address payable",
          "name": "_to",
          "type": "address"
        },
        {
          "internalType": "uint256",
          "name": "_value",
          "type": "uint256"
        }
      ],
      "name": "withdrawFunds",
      "outputs": [],
      "stateMutability": "payable",
      "type": "function"
    },
    {
      "stateMutability": "payable",
      "type": "receive"
    },
    {
      "inputs": [
        {
          "internalType": "address",
          "name": "_contractAddress",
          "type": "address"
        },
        {
          "internalType": "address",
          "name": "_validatorHelperAddress",
          "type": "address"
        }
      ],
      "name": "initContract",
      "outputs": [],
      "stateMutability": "nonpayable",
      "type": "function"
    },
    {
      "inputs": [],
      "name": "prepareGame",
      "outputs": [
        {
          "internalType": "string",
          "name": "",
          "type": "string"
        },
        {
          "internalType": "bool",
          "name": "",
          "type": "bool"
        }
      ],
      "stateMutability": "payable",
      "type": "function"
    },
    {
      "inputs": [],
      "name": "testExerciseB",
      "outputs": [
        {
          "internalType": "string",
          "name": "",
          "type": "string"
        },
        {
          "internalType": "bool",
          "name": "",
          "type": "bool"
        }
      ],
      "stateMutability": "payable",
      "type": "function"
    },
    {
      "inputs": [],
      "name": "testWin",
      "outputs": [
        {
          "internalType": "string",
          "name": "",
          "type": "string"
        },
        {
          "internalType": "bool",
          "name": "",
          "type": "bool"
        }
      ],
      "stateMutability": "payable",
      "type": "function"
    },
    {
      "inputs": [],
      "name": "testNotEnoughFee",
      "outputs": [
        {
          "internalType": "string",
          "name": "",
          "type": "string"
        },
        {
          "internalType": "bool",
          "name": "",
          "type": "bool"
        }
      ],
      "stateMutability": "payable",
      "type": "function"
    },
    {
      "inputs": [],
      "name": "testGameDraw",
      "outputs": [
        {
          "internalType": "string",
          "name": "",
          "type": "string"
        },
        {
          "internalType": "bool",
          "name": "",
          "type": "bool"
        }
      ],
      "stateMutability": "payable",
      "type": "function"
    }
  ],
  "bytecode": "0x60806040526000600360006101000a81548173ffffffffffffffffffffffffffffffffffffffff021916908373ffffffffffffffffffffffffffffffffffffffff1602179055506000600460006101000a81548173ffffffffffffffffffffffffffffffffffffffff021916908373ffffffffffffffffffffffffffffffffffffffff1602179055503480156200009557600080fd5b5060405162003a4d38038062003a4d8339818101604052810190620000bb91906200024a565b620000e6816040518060600160405280602d815260200162003a20602d9139620000ed60201b60201c565b506200035b565b816000806101000a81548173ffffffffffffffffffffffffffffffffffffffff021916908373ffffffffffffffffffffffffffffffffffffffff16021790555060006200013f620001b760201b60201c565b90508073ffffffffffffffffffffffffffffffffffffffff16637fb99b9330846040518363ffffffff1660e01b81526004016200017e92919062000327565b600060405180830381600087803b1580156200019957600080fd5b505af1158015620001ae573d6000803e3d6000fd5b50505050505050565b60008060009054906101000a900473ffffffffffffffffffffffffffffffffffffffff16905090565b600080fd5b600073ffffffffffffffffffffffffffffffffffffffff82169050919050565b60006200021282620001e5565b9050919050565b620002248162000205565b81146200023057600080fd5b50565b600081519050620002448162000219565b92915050565b600060208284031215620002635762000262620001e0565b5b6000620002738482850162000233565b91505092915050565b620002878162000205565b82525050565b600081519050919050565b600082825260208201905092915050565b60005b83811015620002c9578082015181840152602081019050620002ac565b60008484015250505050565b6000601f19601f8301169050919050565b6000620002f3826200028d565b620002ff818562000298565b935062000311818560208601620002a9565b6200031c81620002d5565b840191505092915050565b60006040820190506200033e60008301856200027c565b8181036020830152620003528184620002e6565b90509392505050565b6136b5806200036b6000396000f3fe6080604052600436106100ab5760003560e01c8063a848a4e111610064578063a848a4e1146101c0578063afb5cee0146101df578063b171ef66146101fe578063bed34bba1461021d578063c10753291461025a578063fae45fbe14610276576100b2565b80631ccb0c12146100b457806325ba0f51146100d35780632b518301146100fc578063516cbbe2146101395780635827a0651461016457806371349a40146101a1576100b2565b366100b257005b005b6100bc61029f565b6040516100ca9291906122c1565b60405180910390f35b3480156100df57600080fd5b506100fa60048036038101906100f59190612363565b610357565b005b34801561010857600080fd5b50610123600480360381019061011e91906124d8565b61045f565b604051610130919061257f565b60405180910390f35b34801561014557600080fd5b5061014e61048e565b60405161015b9190612600565b60405180910390f35b34801561017057600080fd5b5061018b6004803603810190610186919061261b565b6104b7565b604051610198919061257f565b60405180910390f35b6101a96104e9565b6040516101b79291906122c1565b60405180910390f35b6101c8610fa0565b6040516101d69291906122c1565b60405180910390f35b6101e7611103565b6040516101f59291906122c1565b60405180910390f35b6102066117ea565b6040516102149291906122c1565b60405180910390f35b34801561022957600080fd5b50610244600480360381019061023f91906126f2565b611b8f565b604051610251919061276a565b60405180910390f35b610274600480360381019061026f91906127f9565b611be8565b005b34801561028257600080fd5b5061029d60048036038101906102989190612839565b611f37565b005b606060008060006102ae610fa0565b91509150806102c557816000935093505050610353565b6000806102d06117ea565b91509150806102e9578160009550955050505050610353565b6000806102f4611103565b915091508061030f5781600097509750505050505050610353565b60016040518060400160405280601d81526020017f457865726369736520423a20416c6c207465737473207061737365642e00000081525090975097505050505050505b9091565b81600160006101000a81548173ffffffffffffffffffffffffffffffffffffffff021916908373ffffffffffffffffffffffffffffffffffffffff16021790555080600260006101000a81548173ffffffffffffffffffffffffffffffffffffffff021916908373ffffffffffffffffffffffffffffffffffffffff16021790555030600360006101000a81548173ffffffffffffffffffffffffffffffffffffffff021916908373ffffffffffffffffffffffffffffffffffffffff16021790555080600460006101000a81548173ffffffffffffffffffffffffffffffffffffffff021916908373ffffffffffffffffffffffffffffffffffffffff1602179055505050565b606083838360405160200161047693929190612969565b60405160208183030381529060405290509392505050565b60008060009054906101000a900473ffffffffffffffffffffffffffffffffffffffff16905090565b6060848484846040516020016104d09493929190612a48565b6040516020818303038152906040529050949350505050565b60606000600160009054906101000a900473ffffffffffffffffffffffffffffffffffffffff1673ffffffffffffffffffffffffffffffffffffffff16638b680cc36040518163ffffffff1660e01b8152600401600060405180830381600087803b15801561055757600080fd5b505af1925050508015610568575060015b61060357610574612ab4565b806308c379a0036105f75750610588612ad6565b8061059357506105f9565b6105eb6040518060400160405280601281526020017f4572726f722028457865726369736520422900000000000000000000000000008152506040518060600160405280602181526020016133aa602191398361045f565b60009250925050610f9c565b505b3d6000803e3d6000fd5b6000600160009054906101000a900473ffffffffffffffffffffffffffffffffffffffff1673ffffffffffffffffffffffffffffffffffffffff1663944ccc376040518163ffffffff1660e01b8152600401602060405180830381865afa158015610672573d6000803e3d6000fd5b505050506040513d601f19601f820116820180604052508101906106969190612b7b565b9050600160009054906101000a900473ffffffffffffffffffffffffffffffffffffffff1673ffffffffffffffffffffffffffffffffffffffff16631865c57d6040518163ffffffff1660e01b8152600401600060405180830381865afa92505050801561072757506040513d6000823e3d601f19601f820116820180604052508101906107249190612c18565b60015b6107e057610733612ab4565b806308c379a0036107d45750610747612ad6565b8061075257506107d6565b6107c76040518060400160405280601281526020017f4572726f722028457865726369736520422900000000000000000000000000008152506040518060400160405280601f81526020017f4572726f72207769746820676574537461746528292066756e6374696f6e2e008152508361045f565b6000935093505050610f9c565b505b3d6000803e3d6000fd5b61081f816040518060400160405280600781526020017f77616974696e6700000000000000000000000000000000000000000000000000815250611b8f565b61084a5760006040518060600160405280602c8152602001613422602c913990935093505050610f9c565b50600160009054906101000a900473ffffffffffffffffffffffffffffffffffffffff1673ffffffffffffffffffffffffffffffffffffffff1663be9a655566038d7ea4c680006040518263ffffffff1660e01b815260040160206040518083038185885af1935050505080156108df57506040513d601f19601f820116820180604052508101906108dc9190612b7b565b60015b610998576108eb612ab4565b806308c379a00361098c57506108ff612ad6565b8061090a575061098e565b61097f6040518060400160405280601281526020017f4572726f722028457865726369736520422900000000000000000000000000008152506040518060400160405280601c81526020017f4572726f72207769746820737461727428292066756e6374696f6e2e000000008152508361045f565b6000935093505050610f9c565b505b3d6000803e3d6000fd5b600181146109c75760006040518060600160405280602b815260200161351e602b913990935093505050610f9c565b506001816109d59190612c90565b600160009054906101000a900473ffffffffffffffffffffffffffffffffffffffff1673ffffffffffffffffffffffffffffffffffffffff1663944ccc376040518163ffffffff1660e01b8152600401602060405180830381865afa158015610a42573d6000803e3d6000fd5b505050506040513d601f19601f82011682018060405250810190610a669190612b7b565b14610a915760006040518060600160405280603681526020016135ec60369139909250925050610f9c565b610b65600160009054906101000a900473ffffffffffffffffffffffffffffffffffffffff1673ffffffffffffffffffffffffffffffffffffffff16631865c57d6040518163ffffffff1660e01b8152600401600060405180830381865afa158015610b01573d6000803e3d6000fd5b505050506040513d6000823e3d601f19601f82011682018060405250810190610b2a9190612c18565b6040518060400160405280600881526020017f7374617274696e67000000000000000000000000000000000000000000000000815250611b8f565b610cb557610ca96040518060400160405280601281526020017f4572726f722028457865726369736520422900000000000000000000000000008152506040518060400160405280601b81526020017f546865207374617465206973206e6f7420277374617274696e672700000000008152506040518060400160405280600881526020017f7374617274696e67000000000000000000000000000000000000000000000000815250600160009054906101000a900473ffffffffffffffffffffffffffffffffffffffff1673ffffffffffffffffffffffffffffffffffffffff16631865c57d6040518163ffffffff1660e01b8152600401600060405180830381865afa158015610c7b573d6000803e3d6000fd5b505050506040513d6000823e3d601f19601f82011682018060405250810190610ca49190612c18565b6104b7565b60009250925050610f9c565b600260009054906101000a900473ffffffffffffffffffffffffffffffffffffffff1673ffffffffffffffffffffffffffffffffffffffff1663469ad8e366038d7ea4c68000600160009054906101000a900473ffffffffffffffffffffffffffffffffffffffff166040518363ffffffff1660e01b8152600401610d3a9190612ce5565b60206040518083038185885af193505050508015610d7657506040513d601f19601f82011682018060405250810190610d739190612b7b565b60015b610e2f57610d82612ab4565b806308c379a003610e235750610d96612ad6565b80610da15750610e25565b610e166040518060400160405280601281526020017f4572726f722028457865726369736520422900000000000000000000000000008152506040518060400160405280601c81526020017f4572726f72207769746820737461727428292066756e6374696f6e2e000000008152508361045f565b6000935093505050610f9c565b505b3d6000803e3d6000fd5b60028114610e5e5760006040518060600160405280602a815260200161344e602a913990935093505050610f9c565b50610f33600160009054906101000a900473ffffffffffffffffffffffffffffffffffffffff1673ffffffffffffffffffffffffffffffffffffffff16631865c57d6040518163ffffffff1660e01b8152600401600060405180830381865afa158015610ecf573d6000803e3d6000fd5b505050506040513d6000823e3d601f19601f82011682018060405250810190610ef89190612c18565b6040518060400160405280600781526020017f706c6179696e6700000000000000000000000000000000000000000000000000815250611b8f565b610f5d5760006040518060600160405280602e81526020016133cb602e9139909250925050610f9c565b60016040518060400160405280601981526020017f507265706172652047616d653a207375636365737366756c2e000000000000008152509092509250505b9091565b60606000600160009054906101000a900473ffffffffffffffffffffffffffffffffffffffff1673ffffffffffffffffffffffffffffffffffffffff16638b680cc36040518163ffffffff1660e01b8152600401600060405180830381600087803b15801561100e57600080fd5b505af192505050801561101f575060015b50600160009054906101000a900473ffffffffffffffffffffffffffffffffffffffff1673ffffffffffffffffffffffffffffffffffffffff1663be9a6555655af3107a40006040518263ffffffff1660e01b815260040160206040518083038185885af1935050505080156110b357506040513d601f19601f820116820180604052508101906110b09190612b7b565b60015b156110de575060006040518060a00160405280606281526020016133486062913990915091506110ff565b60016040518060600160405280602e8152602001613622602e913990915091505b9091565b606060008060006111126104e9565b9150915080611129578160009350935050506117e6565b6000600360009054906101000a900473ffffffffffffffffffffffffffffffffffffffff1673ffffffffffffffffffffffffffffffffffffffff163190506000600460009054906101000a900473ffffffffffffffffffffffffffffffffffffffff1673ffffffffffffffffffffffffffffffffffffffff16319050600160009054906101000a900473ffffffffffffffffffffffffffffffffffffffff1673ffffffffffffffffffffffffffffffffffffffff1663718e63026040518163ffffffff1660e01b81526004016111fe90612d4c565b600060405180830381600087803b15801561121857600080fd5b505af1925050508015611229575060015b6112e557611235612ab4565b806308c379a0036112d95750611249612ad6565b8061125457506112db565b6112c96040518060400160405280601281526020017f4572726f722028457865726369736520422900000000000000000000000000008152506040518060400160405280601b81526020017f4572726f72207769746820706c617928292066756e6374696f6e2e00000000008152508361045f565b60009650965050505050506117e6565b505b3d6000803e3d6000fd5b600260009054906101000a900473ffffffffffffffffffffffffffffffffffffffff1673ffffffffffffffffffffffffffffffffffffffff1663f7e01dfc600160009054906101000a900473ffffffffffffffffffffffffffffffffffffffff166040518263ffffffff1660e01b81526004016113629190612db8565b600060405180830381600087803b15801561137c57600080fd5b505af192505050801561138d575060015b61144957611399612ab4565b806308c379a00361143d57506113ad612ad6565b806113b8575061143f565b61142d6040518060400160405280601281526020017f4572726f722028457865726369736520422900000000000000000000000000008152506040518060400160405280601b81526020017f4572726f72207769746820706c617928292066756e6374696f6e2e00000000008152508361045f565b60009650965050505050506117e6565b505b3d6000803e3d6000fd5b61151d600160009054906101000a900473ffffffffffffffffffffffffffffffffffffffff1673ffffffffffffffffffffffffffffffffffffffff16631865c57d6040518163ffffffff1660e01b8152600401600060405180830381865afa1580156114b9573d6000803e3d6000fd5b505050506040513d6000823e3d601f19601f820116820180604052508101906114e29190612c18565b6040518060400160405280600781526020017f77616974696e6700000000000000000000000000000000000000000000000000815250611b8f565b611670576116616040518060400160405280601281526020017f4572726f722028457865726369736520422900000000000000000000000000008152506040518060400160405280601a81526020017f546865207374617465206973206e6f74202777616974696e67270000000000008152506040518060400160405280600781526020017f77616974696e6700000000000000000000000000000000000000000000000000815250600160009054906101000a900473ffffffffffffffffffffffffffffffffffffffff1673ffffffffffffffffffffffffffffffffffffffff16631865c57d6040518163ffffffff1660e01b8152600401600060405180830381865afa158015611633573d6000803e3d6000fd5b505050506040513d6000823e3d601f19601f8201168201806040525081019061165c9190612c18565b6104b7565b600095509550505050506117e6565b6000600360009054906101000a900473ffffffffffffffffffffffffffffffffffffffff1673ffffffffffffffffffffffffffffffffffffffff163190506000600460009054906101000a900473ffffffffffffffffffffffffffffffffffffffff1673ffffffffffffffffffffffffffffffffffffffff1631905083821161178d5761177c6040518060400160405280601281526020017f4572726f722028457865726369736520422900000000000000000000000000008152506040518060600160405280603081526020016136506030913961174e85611ff5565b61175788611ff5565b604051602001611768929190612e0c565b60405160208183030381529060405261045f565b6000975097505050505050506117e6565b8281146117bf5760006040518060a00160405280607e81526020016134a0607e913990975097505050505050506117e6565b60016040518060600160405280602881526020016134786028913990975097505050505050505b9091565b606060008060006117f96104e9565b915091508061181057816000935093505050611b8b565b6000600360009054906101000a900473ffffffffffffffffffffffffffffffffffffffff1673ffffffffffffffffffffffffffffffffffffffff163190506000600460009054906101000a900473ffffffffffffffffffffffffffffffffffffffff1673ffffffffffffffffffffffffffffffffffffffff16319050600160009054906101000a900473ffffffffffffffffffffffffffffffffffffffff1673ffffffffffffffffffffffffffffffffffffffff1663718e63026040518163ffffffff1660e01b81526004016118e590612e3f565b600060405180830381600087803b1580156118ff57600080fd5b505af1925050508015611910575060015b61193d5760006040518060600160405280603b81526020016132e6603b9139909550955050505050611b8b565b600260009054906101000a900473ffffffffffffffffffffffffffffffffffffffff1673ffffffffffffffffffffffffffffffffffffffff1663f7e01dfc600160009054906101000a900473ffffffffffffffffffffffffffffffffffffffff166040518263ffffffff1660e01b81526004016119ba9190612db8565b600060405180830381600087803b1580156119d457600080fd5b505af19250505080156119e5575060015b611a84576119f1612ab4565b806308c379a003611a785750611a05612ad6565b80611a105750611a7a565b611a686040518060400160405280601e81526020017f4572726f72202845786572636973652042202d2047616d652044726177290000815250604051806060016040528060278152602001613321602791398361045f565b6000965096505050505050611b8b565b505b3d6000803e3d6000fd5b6000600360009054906101000a900473ffffffffffffffffffffffffffffffffffffffff1673ffffffffffffffffffffffffffffffffffffffff163190506000600460009054906101000a900473ffffffffffffffffffffffffffffffffffffffff1673ffffffffffffffffffffffffffffffffffffffff16319050838214611b325760006040518060e0016040528060a3815260200161354960a391399097509750505050505050611b8b565b828114611b645760006040518060e0016040528060a3815260200161324360a391399097509750505050505050611b8b565b60016040518060600160405280602981526020016133f96029913990975097505050505050505b9091565b600081604051602001611ba29190612e5f565b6040516020818303038152906040528051906020012083604051602001611bc99190612e5f565b6040516020818303038152906040528051906020012014905092915050565b611bf061048e565b73ffffffffffffffffffffffffffffffffffffffff166324d7806c336040518263ffffffff1660e01b8152600401611c289190612e85565b602060405180830381865afa158015611c45573d6000803e3d6000fd5b505050506040513d601f19601f82011682018060405250810190611c699190612ecc565b611ca8576040517f08c379a0000000000000000000000000000000000000000000000000000000008152600401611c9f90612f6b565b60405180910390fd5b600073ffffffffffffffffffffffffffffffffffffffff168273ffffffffffffffffffffffffffffffffffffffff1603611d17576040517f08c379a0000000000000000000000000000000000000000000000000000000008152600401611d0e90612fd7565b60405180910390fd5b3373ffffffffffffffffffffffffffffffffffffffff168273ffffffffffffffffffffffffffffffffffffffff161480611d7c57503273ffffffffffffffffffffffffffffffffffffffff168273ffffffffffffffffffffffffffffffffffffffff16145b80611e045750611d8a61048e565b73ffffffffffffffffffffffffffffffffffffffff166324d7806c836040518263ffffffff1660e01b8152600401611dc29190613018565b602060405180830381865afa158015611ddf573d6000803e3d6000fd5b505050506040513d601f19601f82011682018060405250810190611e039190612ecc565b5b611e43576040517f08c379a0000000000000000000000000000000000000000000000000000000008152600401611e3a906130a5565b60405180910390fd5b47811015611e86576040517f08c379a0000000000000000000000000000000000000000000000000000000008152600401611e7d90613111565b60405180910390fd5b60008273ffffffffffffffffffffffffffffffffffffffff1682604051611eac90613162565b60006040518083038185875af1925050503d8060008114611ee9576040519150601f19603f3d011682016040523d82523d6000602084013e611eee565b606091505b5050905080611f32576040517f08c379a0000000000000000000000000000000000000000000000000000000008152600401611f29906131c3565b60405180910390fd5b505050565b816000806101000a81548173ffffffffffffffffffffffffffffffffffffffff021916908373ffffffffffffffffffffffffffffffffffffffff1602179055506000611f8161048e565b90508073ffffffffffffffffffffffffffffffffffffffff16637fb99b9330846040518363ffffffff1660e01b8152600401611fbe9291906131e3565b600060405180830381600087803b158015611fd857600080fd5b505af1158015611fec573d6000803e3d6000fd5b50505050505050565b606060006001612004846120c3565b01905060008167ffffffffffffffff811115612023576120226123ad565b5b6040519080825280601f01601f1916602001820160405280156120555781602001600182028036833780820191505090505b509050600082602001820190505b6001156120b8578080600190039150507f3031323334353637383961626364656600000000000000000000000000000000600a86061a8153600a85816120ac576120ab613213565b5b04945060008503612063575b819350505050919050565b600080600090507a184f03e93ff9f4daa797ed6e38ed64bf6a1f0100000000000000008310612121577a184f03e93ff9f4daa797ed6e38ed64bf6a1f010000000000000000838161211757612116613213565b5b0492506040810190505b6d04ee2d6d415b85acef8100000000831061215e576d04ee2d6d415b85acef8100000000838161215457612153613213565b5b0492506020810190505b662386f26fc10000831061218d57662386f26fc10000838161218357612182613213565b5b0492506010810190505b6305f5e10083106121b6576305f5e10083816121ac576121ab613213565b5b0492506008810190505b61271083106121db5761271083816121d1576121d0613213565b5b0492506004810190505b606483106121fe57606483816121f4576121f3613213565b5b0492506002810190505b600a831061220d576001810190505b80915050919050565b600081519050919050565b600082825260208201905092915050565b60005b83811015612250578082015181840152602081019050612235565b60008484015250505050565b6000601f19601f8301169050919050565b600061227882612216565b6122828185612221565b9350612292818560208601612232565b61229b8161225c565b840191505092915050565b60008115159050919050565b6122bb816122a6565b82525050565b600060408201905081810360008301526122db818561226d565b90506122ea60208301846122b2565b9392505050565b6000604051905090565b600080fd5b600080fd5b600073ffffffffffffffffffffffffffffffffffffffff82169050919050565b600061233082612305565b9050919050565b61234081612325565b811461234b57600080fd5b50565b60008135905061235d81612337565b92915050565b6000806040838503121561237a576123796122fb565b5b60006123888582860161234e565b92505060206123998582860161234e565b9150509250929050565b600080fd5b600080fd5b7f4e487b7100000000000000000000000000000000000000000000000000000000600052604160045260246000fd5b6123e58261225c565b810181811067ffffffffffffffff82111715612404576124036123ad565b5b80604052505050565b60006124176122f1565b905061242382826123dc565b919050565b600067ffffffffffffffff821115612443576124426123ad565b5b61244c8261225c565b9050602081019050919050565b82818337600083830152505050565b600061247b61247684612428565b61240d565b905082815260208101848484011115612497576124966123a8565b5b6124a2848285612459565b509392505050565b600082601f8301126124bf576124be6123a3565b5b81356124cf848260208601612468565b91505092915050565b6000806000606084860312156124f1576124f06122fb565b5b600084013567ffffffffffffffff81111561250f5761250e612300565b5b61251b868287016124aa565b935050602084013567ffffffffffffffff81111561253c5761253b612300565b5b612548868287016124aa565b925050604084013567ffffffffffffffff81111561256957612568612300565b5b612575868287016124aa565b9150509250925092565b60006020820190508181036000830152612599818461226d565b905092915050565b6000819050919050565b60006125c66125c16125bc84612305565b6125a1565b612305565b9050919050565b60006125d8826125ab565b9050919050565b60006125ea826125cd565b9050919050565b6125fa816125df565b82525050565b600060208201905061261560008301846125f1565b92915050565b60008060008060808587031215612635576126346122fb565b5b600085013567ffffffffffffffff81111561265357612652612300565b5b61265f878288016124aa565b945050602085013567ffffffffffffffff8111156126805761267f612300565b5b61268c878288016124aa565b935050604085013567ffffffffffffffff8111156126ad576126ac612300565b5b6126b9878288016124aa565b925050606085013567ffffffffffffffff8111156126da576126d9612300565b5b6126e6878288016124aa565b91505092959194509250565b60008060408385031215612709576127086122fb565b5b600083013567ffffffffffffffff81111561272757612726612300565b5b612733858286016124aa565b925050602083013567ffffffffffffffff81111561275457612753612300565b5b612760858286016124aa565b9150509250929050565b600060208201905061277f60008301846122b2565b92915050565b600061279082612305565b9050919050565b6127a081612785565b81146127ab57600080fd5b50565b6000813590506127bd81612797565b92915050565b6000819050919050565b6127d6816127c3565b81146127e157600080fd5b50565b6000813590506127f3816127cd565b92915050565b600080604083850312156128105761280f6122fb565b5b600061281e858286016127ae565b925050602061282f858286016127e4565b9150509250929050565b600080604083850312156128505761284f6122fb565b5b600061285e8582860161234e565b925050602083013567ffffffffffffffff81111561287f5761287e612300565b5b61288b858286016124aa565b9150509250929050565b600081905092915050565b60006128ab82612216565b6128b58185612895565b93506128c5818560208601612232565b80840191505092915050565b7f3a20000000000000000000000000000000000000000000000000000000000000600082015250565b6000612907600283612895565b9150612912826128d1565b600282019050919050565b7f203e200000000000000000000000000000000000000000000000000000000000600082015250565b6000612953600383612895565b915061295e8261291d565b600382019050919050565b600061297582866128a0565b9150612980826128fa565b915061298c82856128a0565b915061299782612946565b91506129a382846128a0565b9150819050949350505050565b7f2045787065637465643a20000000000000000000000000000000000000000000600082015250565b60006129e6600b83612895565b91506129f1826129b0565b600b82019050919050565b7f2041637475616c3a200000000000000000000000000000000000000000000000600082015250565b6000612a32600983612895565b9150612a3d826129fc565b600982019050919050565b6000612a5482876128a0565b9150612a5f826128fa565b9150612a6b82866128a0565b9150612a76826129d9565b9150612a8282856128a0565b9150612a8d82612a25565b9150612a9982846128a0565b915081905095945050505050565b60008160e01c9050919050565b600060033d1115612ad35760046000803e612ad0600051612aa7565b90505b90565b600060443d10612b6357612ae86122f1565b60043d036004823e80513d602482011167ffffffffffffffff82111715612b10575050612b63565b808201805167ffffffffffffffff811115612b2e5750505050612b63565b80602083010160043d038501811115612b4b575050505050612b63565b612b5a826020018501866123dc565b82955050505050505b90565b600081519050612b75816127cd565b92915050565b600060208284031215612b9157612b906122fb565b5b6000612b9f84828501612b66565b91505092915050565b6000612bbb612bb684612428565b61240d565b905082815260208101848484011115612bd757612bd66123a8565b5b612be2848285612232565b509392505050565b600082601f830112612bff57612bfe6123a3565b5b8151612c0f848260208601612ba8565b91505092915050565b600060208284031215612c2e57612c2d6122fb565b5b600082015167ffffffffffffffff811115612c4c57612c4b612300565b5b612c5884828501612bea565b91505092915050565b7f4e487b7100000000000000000000000000000000000000000000000000000000600052601160045260246000fd5b6000612c9b826127c3565b9150612ca6836127c3565b9250828201905080821115612cbe57612cbd612c61565b5b92915050565b6000612ccf826125cd565b9050919050565b612cdf81612cc4565b82525050565b6000602082019050612cfa6000830184612cd6565b92915050565b7f7061706572000000000000000000000000000000000000000000000000000000600082015250565b6000612d36600583612221565b9150612d4182612d00565b602082019050919050565b60006020820190508181036000830152612d6581612d29565b9050919050565b7f726f636b00000000000000000000000000000000000000000000000000000000600082015250565b6000612da2600483612221565b9150612dad82612d6c565b602082019050919050565b6000604082019050612dcd6000830184612cd6565b8181036020830152612dde81612d95565b905092915050565b7f2073686f756c6420626520686967686572207468616e20000000000000000000815250565b6000612e1882856128a0565b9150612e2382612de6565b601782019150612e3382846128a0565b91508190509392505050565b60006020820190508181036000830152612e5881612d95565b9050919050565b6000612e6b82846128a0565b915081905092915050565b612e7f81612325565b82525050565b6000602082019050612e9a6000830184612e76565b92915050565b612ea9816122a6565b8114612eb457600080fd5b50565b600081519050612ec681612ea0565b92915050565b600060208284031215612ee257612ee16122fb565b5b6000612ef084828501612eb7565b91505092915050565b7f4f6e6c7920636f6e74726163742061646d696e2063616e20776974686472617760008201527f2066756e64730000000000000000000000000000000000000000000000000000602082015250565b6000612f55602683612221565b9150612f6082612ef9565b604082019050919050565b60006020820190508181036000830152612f8481612f48565b9050919050565b7f496e76616c696420616464726573730000000000000000000000000000000000600082015250565b6000612fc1600f83612221565b9150612fcc82612f8b565b602082019050919050565b60006020820190508181036000830152612ff081612fb4565b9050919050565b6000613002826125cd565b9050919050565b61301281612ff7565b82525050565b600060208201905061302d6000830184613009565b92915050565b7f46756e64732063616e206f6e6c792062652077697468647261776e20746f206160008201527f646d696e2c206d73672e73656e646572206f722074782e6f726967696e000000602082015250565b600061308f603d83612221565b915061309a82613033565b604082019050919050565b600060208201905081810360008301526130be81613082565b9050919050565b7f496e73756666696369656e742066756e64730000000000000000000000000000600082015250565b60006130fb601283612221565b9150613106826130c5565b602082019050919050565b6000602082019050818103600083015261312a816130ee565b9050919050565b600081905092915050565b50565b600061314c600083613131565b91506131578261313c565b600082019050919050565b600061316d8261313f565b9150819050919050565b7f5472616e73666572206661696c65642e00000000000000000000000000000000600082015250565b60006131ad601083612221565b91506131b882613177565b602082019050919050565b600060208201905081810360008301526131dc816131a0565b9050919050565b60006040820190506131f86000830185612e76565b818103602083015261320a818461226d565b90509392505050565b7f4e487b7100000000000000000000000000000000000000000000000000000000600052601260045260246000fdfe4572726f72202845786572636973652042202d2047616d652044726177293a2054686520706c6179657220322062616c616e6365206973206e6f74207468652073616d65206173206265666f72652e20506c65617365206d616b65207375726520746861742074686520706c6179657220322062616c616e636520646f6573206e6f74206368616e6765207768656e207468652067616d65206973206120647261772e4572726f72202845786572636973652042202d2047616d652044726177293a204572726f72207769746820706c617928292066756e6374696f6e2e4572726f72207769746820706c617928292066756e6374696f6e20666f7220706c6179657220324572726f72202845786572636973652042293a2054686520737461727447616d652066756e6374696f6e20646964206e6f74206661696c207768656e2073656e64696e6720302e3030303120657468657220746f2074686520636f6e74726163742e4572726f72207769746820666f726365526573657428292066756e6374696f6e2e4572726f72202845786572636973652042293a20546865207374617465206973206e6f742027706c6179696e672745786572636973652042202847616d652044726177293a20416c6c207465737473207061737365642e4572726f72202845786572636973652042293a204578706563746564202777616974696e67272073746174654572726f72202845786572636973652042293a2054686520706c617965722069642069732077726f6e6745786572636973652042202857696e2047616d65293a20416c6c207465737473207061737365642e4572726f72202845786572636973652042293a2054686520706c6179657220322062616c616e6365206973206e6f74206c6f776572207468616e206265666f72652e20506c65617365206d616b65207375726520746861742074686520706c6179657220322062616c616e636520646f6573206e6f74206368616e67652e4572726f72202845786572636973652042293a2054686520706c617965722069642069732077726f6e67204572726f72202845786572636973652042202d2047616d652044726177293a2054686520706c6179657220312062616c616e6365206973206e6f74207468652073616d65206173206265666f72652e20506c65617365206d616b65207375726520746861742074686520706c6179657220312062616c616e636520646f6573206e6f74206368616e6765207768656e207468652067616d65206973206120647261772e4572726f72202845786572636973652042293a205468652067616d6520636f756e746572206973206e6f7420696e63726561736564204578657263697365204220284e6f7420456e6f75676820466565293a20416c6c207465737473207061737365642e54686520706c6179657220312062616c616e6365206973206e6f7420686967686572207468616e206265666f72652e20a2646970667358221220e06076aa411cafd1cca66709abd3a5b57dcf7ce8dfc60c668b0b814fe0b210dc64736f6c63430008110033535332332041737369676e6d656e7420322056616c696461746f7220436f6e7472616374202d205461736b2042",
  "immutableReferences": {},
  "source": "// SPDX-License-Identifier: MIT\r\npragma solidity ^0.8.17;\r\n\r\n// Import the IAssignment2.sol\r\nimport \"./interface/IAssignment2.sol\";\r\n\r\n// Import Helper\r\nimport \"../Helper.sol\";\r\n\r\n// Import the assignment validator extend contract\r\nimport \"./Validator2Helper.sol\";\r\n\r\n// import \"BaseConfig.sol\";\r\nimport \"../BaseConfig.sol\";\r\n\r\ncontract Validator2TaskB is Helper, BaseConfig {\r\n    // assignment contract interface\r\n    IAssignment2 assignmentContract;\r\n    Validator2Helper validatorHelper;\r\n\r\n    // Player addresses\r\n    address player1 = address(0);\r\n    address player2 = address(0);\r\n\r\n    constructor(address _configContractAddress) {\r\n        initAdmin(\r\n            _configContractAddress,\r\n            \"SS23 Assignment 2 Validator Contract - Task B\"\r\n        );\r\n    }\r\n\r\n    // Function to receive Ether. msg.data must be empty\r\n    receive() external payable {}\r\n\r\n    // Fallback function is called when msg.data is not empty\r\n    fallback() external payable {}\r\n\r\n    // Init contract\r\n    function initContract(\r\n        address _contractAddress,\r\n        address _validatorHelperAddress\r\n    ) public {\r\n        // Call the contract interface which needs to be tested and store it in the variable assignmentContract\r\n        assignmentContract = IAssignment2(_contractAddress);\r\n        validatorHelper = Validator2Helper(payable(_validatorHelperAddress));\r\n\r\n        // Get player addresses\r\n        player1 = address(this);\r\n        player2 = address(_validatorHelperAddress);\r\n    }\r\n\r\n    /*=============================================\r\n    =                   HELPER                  =\r\n    =============================================*/\r\n\r\n    // This function sets the game in the state that it accepts choices from account 1 or 2\r\n    function prepareGame() public payable returns (string memory, bool) {\r\n        // Reset game\r\n        try assignmentContract.forceReset() {} catch Error(\r\n            string memory errMsg\r\n        ) {\r\n            return (\r\n                buildErrorMessage(\r\n                    \"Error (Exercise B)\",\r\n                    \"Error with forceReset() function.\",\r\n                    errMsg\r\n                ),\r\n                false\r\n            );\r\n        }\r\n\r\n        // Get game counter\r\n        uint256 gameCounter = assignmentContract.getGameCounter();\r\n\r\n        // Test getState function\r\n        try assignmentContract.getState() returns (string memory state) {\r\n            // Check if the state is not \"waiting\"\r\n            if (!compareStrings(state, \"waiting\"))\r\n                return (\"Error (Exercise B): Expected 'waiting' state\", false);\r\n        } catch Error(string memory errMsg) {\r\n            return (\r\n                buildErrorMessage(\r\n                    \"Error (Exercise B)\",\r\n                    \"Error with getState() function.\",\r\n                    errMsg\r\n                ),\r\n                false\r\n            );\r\n        }\r\n\r\n        // Test Start\r\n        try assignmentContract.start{value: 0.001 ether}() returns (\r\n            uint256 playerId\r\n        ) {\r\n            // Check if the game id is not 0\r\n            if (playerId != 1)\r\n                return (\"Error (Exercise B): The player id is wrong \", false);\r\n        } catch Error(string memory errMsg) {\r\n            return (\r\n                buildErrorMessage(\r\n                    \"Error (Exercise B)\",\r\n                    \"Error with start() function.\",\r\n                    errMsg\r\n                ),\r\n                false\r\n            );\r\n        }\r\n\r\n        // Check if that the game counter increase by 1\r\n        if (assignmentContract.getGameCounter() != gameCounter + 1)\r\n            return (\r\n                \"Error (Exercise B): The game counter is not increased \",\r\n                false\r\n            );\r\n\r\n        // Test getState function = starting\r\n        if (!compareStrings(assignmentContract.getState(), \"starting\"))\r\n            return (\r\n                buildErrorMessageExtended(\r\n                    \"Error (Exercise B)\",\r\n                    \"The state is not 'starting'\",\r\n                    \"starting\",\r\n                    assignmentContract.getState()\r\n                ),\r\n                false\r\n            );\r\n\r\n        // Test join second player\r\n        try\r\n            validatorHelper.callStart{value: 0.001 ether}(assignmentContract)\r\n        returns (uint256 playerId) {\r\n            // Check if the game id is not 0\r\n            if (playerId != 2)\r\n                return (\"Error (Exercise B): The player id is wrong\", false);\r\n        } catch Error(string memory errMsg) {\r\n            return (\r\n                buildErrorMessage(\r\n                    \"Error (Exercise B)\",\r\n                    \"Error with start() function.\",\r\n                    errMsg\r\n                ),\r\n                false\r\n            );\r\n        }\r\n\r\n        // Test getState function = playing\r\n        if (!compareStrings(assignmentContract.getState(), \"playing\"))\r\n            return (\"Error (Exercise B): The state is not 'playing'\", false);\r\n\r\n        return (\"Prepare Game: successful.\", true);\r\n    }\r\n\r\n    /*=============================================\r\n    =                   TASK B                    =\r\n    =============================================*/\r\n\r\n    function testExerciseB() public payable returns (string memory, bool) {\r\n        // Test edge cases\r\n\r\n        // TEST 1: send 0.0001 ether to the contract --> Expected: fail\r\n        (string memory message1, bool success1) = testNotEnoughFee();\r\n        if (!success1) return (message1, false);\r\n\r\n        // TEST 2: test game draw: expected no balance change after second guess\r\n        (string memory message2, bool success2) = testGameDraw();\r\n        if (!success2) return (message2, false);\r\n\r\n        // TEST 3: test player 1 win: expected player 1 balance increase\r\n        (string memory message3, bool success3) = testWin();\r\n        if (!success3) return (message3, false);\r\n\r\n        return (\"Exercise B: All tests passed.\", true);\r\n    }\r\n\r\n    // Test edge cases: play normal game and expect player 1 to win and get all the fees invested\r\n    function testWin() public payable returns (string memory, bool) {\r\n        // Prepare the game\r\n        (string memory message, bool success) = prepareGame();\r\n\r\n        // If the game is not successfully prepared return the error message\r\n        if (!success) return (message, false);\r\n\r\n        // Get balance of player1 & player2 before the game\r\n        uint256 player1BalanceBefore = player1.balance;\r\n        uint256 player2BalanceBefore = player2.balance;\r\n\r\n        // Test play game -> player 1 wins using paper\r\n        try assignmentContract.play(\"paper\") {} catch Error(\r\n            string memory errMsg\r\n        ) {\r\n            return (\r\n                buildErrorMessage(\r\n                    \"Error (Exercise B)\",\r\n                    \"Error with play() function.\",\r\n                    errMsg\r\n                ),\r\n                false\r\n            );\r\n        }\r\n\r\n        // Test play game -> player 2 looses using rock\r\n        try validatorHelper.callPlay(assignmentContract, \"rock\") {} catch Error(\r\n            string memory errMsg\r\n        ) {\r\n            return (\r\n                buildErrorMessage(\r\n                    \"Error (Exercise B)\",\r\n                    \"Error with play() function.\",\r\n                    errMsg\r\n                ),\r\n                false\r\n            );\r\n        }\r\n\r\n        // State should be waiting\r\n        if (!compareStrings(assignmentContract.getState(), \"waiting\"))\r\n            return (\r\n                buildErrorMessageExtended(\r\n                    \"Error (Exercise B)\",\r\n                    \"The state is not 'waiting'\",\r\n                    \"waiting\",\r\n                    assignmentContract.getState()\r\n                ),\r\n                false\r\n            );\r\n\r\n        // This should result in player 1 winning the game because \"paper beats rock\"\r\n\r\n        // Get balance of player1 & player2 after the game\r\n        uint256 player1BalanceAfter = player1.balance;\r\n        uint256 player2BalanceAfter = player2.balance;\r\n\r\n        // Check if the player 1 balance is higher than before\r\n        if (player1BalanceAfter <= player1BalanceBefore)\r\n            return (\r\n                buildErrorMessage(\r\n                    \"Error (Exercise B)\",\r\n                    \"The player 1 balance is not higher than before. \",\r\n                    string.concat(\r\n                        Strings.toString(player1BalanceAfter),\r\n                        \" should be higher than \",\r\n                        Strings.toString(player1BalanceBefore)\r\n                    )\r\n                ),\r\n                false\r\n            );\r\n\r\n        // Check if the player 2 balance is same as before (already paid the fee > so neither win nor loose)\r\n        if (player2BalanceAfter != player2BalanceBefore)\r\n            return (\r\n                \"Error (Exercise B): The player 2 balance is not lower than before. Please make sure that the player 2 balance does not change.\",\r\n                false\r\n            );\r\n\r\n        return (\"Exercise B (Win Game): All tests passed.\", true);\r\n    }\r\n\r\n    // Test edge cases: send 0.0001 ether to the contract --> Expected: fail\r\n    function testNotEnoughFee() public payable returns (string memory, bool) {\r\n        // Reset game\r\n        try assignmentContract.forceReset() {} catch {}\r\n\r\n        // Send only 0.0001 ether to the contract --> Expected: fail\r\n        try assignmentContract.start{value: 0.0001 ether}() {\r\n            return (\r\n                \"Error (Exercise B): The startGame function did not fail when sending 0.0001 ether to the contract.\",\r\n                false\r\n            );\r\n        } catch {}\r\n\r\n        return (\"Exercise B (Not Enough Fee): All tests passed.\", true);\r\n    }\r\n\r\n    // Test edge cases: test game draw: expected no balance change after second guess\r\n    function testGameDraw() public payable returns (string memory, bool) {\r\n        // Prepare the game\r\n        (string memory message, bool success) = prepareGame();\r\n\r\n        // If the game is not successfully prepared return the error message\r\n        if (!success) return (message, false);\r\n\r\n        // Get balance of player1 & player2 before the game\r\n        uint256 player1BalanceBefore = player1.balance;\r\n        uint256 player2BalanceBefore = player2.balance;\r\n\r\n        // player play \"rock\" --> Expected: to win\r\n        try assignmentContract.play(\"rock\") {} catch {\r\n            return (\r\n                \"Error (Exercise B - Game Draw): Error with play() function.\",\r\n                false\r\n            );\r\n        }\r\n\r\n        // player play \"rock\" --> to loose\r\n        try validatorHelper.callPlay(assignmentContract, \"rock\") {} catch Error(\r\n            string memory errMsg\r\n        ) {\r\n            return (\r\n                buildErrorMessage(\r\n                    \"Error (Exercise B - Game Draw)\",\r\n                    \"Error with play() function for player 2\",\r\n                    errMsg\r\n                ),\r\n                false\r\n            );\r\n        }\r\n\r\n        // Get balance of player1 & player2 after the game\r\n        uint256 player1BalanceAfter = player1.balance;\r\n        uint256 player2BalanceAfter = player2.balance;\r\n\r\n        // Check if the player 1 balance is the same as before\r\n        if (player1BalanceAfter != player1BalanceBefore)\r\n            return (\r\n                \"Error (Exercise B - Game Draw): The player 1 balance is not the same as before. Please make sure that the player 1 balance does not change when the game is a draw.\",\r\n                false\r\n            );\r\n\r\n        // Check if the player 2 balance is same as before\r\n        if (player2BalanceAfter != player2BalanceBefore)\r\n            return (\r\n                \"Error (Exercise B - Game Draw): The player 2 balance is not the same as before. Please make sure that the player 2 balance does not change when the game is a draw.\",\r\n                false\r\n            );\r\n\r\n        return (\"Exercise B (Game Draw): All tests passed.\", true);\r\n    }\r\n}\r\n",
  "sourcePath": "C:\\Users\\jonas\\Repos\\mtp-blockchain\\smart-contracts\\contracts\\assignment_2\\Validator2TaskB.sol",
  "compiler": {
    "name": "solc",
    "version": "0.8.17+commit.8df45f5f.Emscripten.clang"
  },
  "schemaVersion": "3.4.11",
  "updatedAt": "2023-02-01T15:34:30.362Z",
  "devdoc": {
    "kind": "dev",
    "methods": {},
    "version": 1
  },
  "userdoc": {
    "kind": "user",
    "methods": {},
    "version": 1
  }
}