{
  "contractName": "Validator4TaskB",
  "abi": [
    {
      "inputs": [
        {
          "internalType": "address",
          "name": "_configContractAddress",
          "type": "address"
        }
      ],
      "stateMutability": "nonpayable",
      "type": "constructor"
    },
    {
      "inputs": [
        {
          "internalType": "string",
          "name": "_prefix",
          "type": "string"
        },
        {
          "internalType": "string",
          "name": "_message",
          "type": "string"
        },
        {
          "internalType": "string",
          "name": "_errorMsg",
          "type": "string"
        }
      ],
      "name": "buildErrorMessage",
      "outputs": [
        {
          "internalType": "string",
          "name": "",
          "type": "string"
        }
      ],
      "stateMutability": "pure",
      "type": "function"
    },
    {
      "inputs": [
        {
          "internalType": "string",
          "name": "_prefix",
          "type": "string"
        },
        {
          "internalType": "string",
          "name": "_message",
          "type": "string"
        },
        {
          "internalType": "string",
          "name": "_expected",
          "type": "string"
        },
        {
          "internalType": "string",
          "name": "_actual",
          "type": "string"
        }
      ],
      "name": "buildErrorMessageExtended",
      "outputs": [
        {
          "internalType": "string",
          "name": "",
          "type": "string"
        }
      ],
      "stateMutability": "pure",
      "type": "function"
    },
    {
      "inputs": [
        {
          "internalType": "string",
          "name": "a",
          "type": "string"
        },
        {
          "internalType": "string",
          "name": "b",
          "type": "string"
        }
      ],
      "name": "compareStrings",
      "outputs": [
        {
          "internalType": "bool",
          "name": "",
          "type": "bool"
        }
      ],
      "stateMutability": "pure",
      "type": "function"
    },
    {
      "inputs": [],
      "name": "getConfigStorage",
      "outputs": [
        {
          "internalType": "contract ConfigStorage",
          "name": "",
          "type": "address"
        }
      ],
      "stateMutability": "view",
      "type": "function"
    },
    {
      "inputs": [
        {
          "internalType": "address",
          "name": "_configContractAddress",
          "type": "address"
        },
        {
          "internalType": "string",
          "name": "_contractName",
          "type": "string"
        }
      ],
      "name": "initAdmin",
      "outputs": [],
      "stateMutability": "nonpayable",
      "type": "function"
    },
    {
      "inputs": [
        {
          "internalType": "address payable",
          "name": "_to",
          "type": "address"
        },
        {
          "internalType": "uint256",
          "name": "_value",
          "type": "uint256"
        }
      ],
      "name": "withdrawFunds",
      "outputs": [],
      "stateMutability": "payable",
      "type": "function"
    },
    {
      "stateMutability": "payable",
      "type": "receive"
    },
    {
      "inputs": [
        {
          "internalType": "address",
          "name": "_contractAddress",
          "type": "address"
        }
      ],
      "name": "initContract",
      "outputs": [],
      "stateMutability": "nonpayable",
      "type": "function"
    },
    {
      "inputs": [],
      "name": "testExerciseB",
      "outputs": [
        {
          "internalType": "string",
          "name": "",
          "type": "string"
        },
        {
          "internalType": "bool",
          "name": "",
          "type": "bool"
        }
      ],
      "stateMutability": "payable",
      "type": "function"
    },
    {
      "inputs": [
        {
          "internalType": "address",
          "name": "tokenAddress",
          "type": "address"
        }
      ],
      "name": "testAddLiquidity",
      "outputs": [
        {
          "internalType": "string",
          "name": "",
          "type": "string"
        },
        {
          "internalType": "bool",
          "name": "",
          "type": "bool"
        }
      ],
      "stateMutability": "payable",
      "type": "function"
    },
    {
      "inputs": [
        {
          "internalType": "address",
          "name": "tokenAddress",
          "type": "address"
        }
      ],
      "name": "testRemoveLiquidity",
      "outputs": [
        {
          "internalType": "string",
          "name": "",
          "type": "string"
        },
        {
          "internalType": "bool",
          "name": "",
          "type": "bool"
        }
      ],
      "stateMutability": "payable",
      "type": "function"
    },
    {
      "inputs": [
        {
          "internalType": "address",
          "name": "tokenAddress",
          "type": "address"
        }
      ],
      "name": "testGetTokenAmount",
      "outputs": [
        {
          "internalType": "string",
          "name": "",
          "type": "string"
        },
        {
          "internalType": "bool",
          "name": "",
          "type": "bool"
        }
      ],
      "stateMutability": "payable",
      "type": "function"
    },
    {
      "inputs": [
        {
          "internalType": "address",
          "name": "tokenAddress",
          "type": "address"
        }
      ],
      "name": "testGetEthAmount",
      "outputs": [
        {
          "internalType": "string",
          "name": "",
          "type": "string"
        },
        {
          "internalType": "bool",
          "name": "",
          "type": "bool"
        }
      ],
      "stateMutability": "payable",
      "type": "function"
    },
    {
      "inputs": [
        {
          "internalType": "address",
          "name": "tokenAddress",
          "type": "address"
        }
      ],
      "name": "testEthToToken",
      "outputs": [
        {
          "internalType": "string",
          "name": "",
          "type": "string"
        },
        {
          "internalType": "bool",
          "name": "",
          "type": "bool"
        }
      ],
      "stateMutability": "payable",
      "type": "function"
    },
    {
      "inputs": [
        {
          "internalType": "address",
          "name": "tokenAddress",
          "type": "address"
        }
      ],
      "name": "testTokenToEth",
      "outputs": [
        {
          "internalType": "string",
          "name": "",
          "type": "string"
        },
        {
          "internalType": "bool",
          "name": "",
          "type": "bool"
        }
      ],
      "stateMutability": "payable",
      "type": "function"
    },
    {
      "inputs": [
        {
          "internalType": "address",
          "name": "tokenAddress",
          "type": "address"
        }
      ],
      "name": "getReserve",
      "outputs": [
        {
          "internalType": "uint256",
          "name": "",
          "type": "uint256"
        }
      ],
      "stateMutability": "view",
      "type": "function"
    }
  ],
  "bytecode": "0x60806040523480156200001157600080fd5b506040516200512c3803806200512c8339818101604052810190620000379190620001c6565b62000062816040518060600160405280602d8152602001620050ff602d91396200006960201b60201c565b50620002d7565b816000806101000a81548173ffffffffffffffffffffffffffffffffffffffff021916908373ffffffffffffffffffffffffffffffffffffffff1602179055506000620000bb6200013360201b60201c565b90508073ffffffffffffffffffffffffffffffffffffffff16637fb99b9330846040518363ffffffff1660e01b8152600401620000fa929190620002a3565b600060405180830381600087803b1580156200011557600080fd5b505af11580156200012a573d6000803e3d6000fd5b50505050505050565b60008060009054906101000a900473ffffffffffffffffffffffffffffffffffffffff16905090565b600080fd5b600073ffffffffffffffffffffffffffffffffffffffff82169050919050565b60006200018e8262000161565b9050919050565b620001a08162000181565b8114620001ac57600080fd5b50565b600081519050620001c08162000195565b92915050565b600060208284031215620001df57620001de6200015c565b5b6000620001ef84828501620001af565b91505092915050565b620002038162000181565b82525050565b600081519050919050565b600082825260208201905092915050565b60005b838110156200024557808201518184015260208101905062000228565b60008484015250505050565b6000601f19601f8301169050919050565b60006200026f8262000209565b6200027b818562000214565b93506200028d81856020860162000225565b620002988162000251565b840191505092915050565b6000604082019050620002ba6000830185620001f8565b8181036020830152620002ce818462000262565b90509392505050565b614e1880620002e76000396000f3fe6080604052600436106100ec5760003560e01c80639207c6c51161008a578063c9a396e911610059578063c9a396e91461030a578063cf9d4afa14610347578063dae1866b14610370578063fae45fbe146103a1576100f3565b80639207c6c51461024f578063b7cb1c2914610280578063bed34bba146102b1578063c1075329146102ee576100f3565b8063516cbbe2116100c6578063516cbbe2146101855780635827a065146101b05780635df1d7c6146101ed57806385a243a61461021e576100f3565b80630eece02b146100f85780631ccb0c12146101295780632b51830114610148576100f3565b366100f357005b600080fd5b610112600480360381019061010d9190613195565b6103ca565b60405161012092919061326d565b60405180910390f35b610131610c18565b60405161013f92919061326d565b60405180910390f35b34801561015457600080fd5b5061016f600480360381019061016a91906133d2565b610e78565b60405161017c9190613479565b60405180910390f35b34801561019157600080fd5b5061019a610ea7565b6040516101a791906134fa565b60405180910390f35b3480156101bc57600080fd5b506101d760048036038101906101d29190613515565b610ed0565b6040516101e49190613479565b60405180910390f35b61020760048036038101906102029190613195565b610f02565b60405161021592919061326d565b60405180910390f35b61023860048036038101906102339190613195565b61154b565b60405161024692919061326d565b60405180910390f35b61026960048036038101906102649190613195565b6116fc565b60405161027792919061326d565b60405180910390f35b61029a60048036038101906102959190613195565b611adc565b6040516102a892919061326d565b60405180910390f35b3480156102bd57600080fd5b506102d860048036038101906102d391906135ec565b6126ed565b6040516102e59190613664565b60405180910390f35b610308600480360381019061030391906136f3565b612746565b005b34801561031657600080fd5b50610331600480360381019061032c9190613195565b612a95565b60405161033e9190613742565b60405180910390f35b34801561035357600080fd5b5061036e60048036038101906103699190613195565b612b3a565b005b61038a60048036038101906103859190613195565b612c00565b60405161039892919061326d565b60405180910390f35b3480156103ad57600080fd5b506103c860048036038101906103c3919061375d565b612dab565b005b606060008273ffffffffffffffffffffffffffffffffffffffff166340c10f19600260009054906101000a900473ffffffffffffffffffffffffffffffffffffffff1660646040518363ffffffff1660e01b815260040161042c929190613803565b600060405180830381600087803b15801561044657600080fd5b505af115801561045a573d6000803e3d6000fd5b505050508273ffffffffffffffffffffffffffffffffffffffff1663095ea7b3600360009054906101000a900473ffffffffffffffffffffffffffffffffffffffff1660646040518363ffffffff1660e01b81526004016104bc929190613803565b6020604051808303816000875af11580156104db573d6000803e3d6000fd5b505050506040513d601f19601f820116820180604052508101906104ff9190613858565b50600160009054906101000a900473ffffffffffffffffffffffffffffffffffffffff1673ffffffffffffffffffffffffffffffffffffffff166351c6590a6064806040518363ffffffff1660e01b815260040161055d9190613885565b60206040518083038185885af115801561057b573d6000803e3d6000fd5b50505050506040513d601f19601f820116820180604052508101906105a091906138b5565b506000600190506000600160009054906101000a900473ffffffffffffffffffffffffffffffffffffffff1673ffffffffffffffffffffffffffffffffffffffff166370a08231600260009054906101000a900473ffffffffffffffffffffffffffffffffffffffff166040518263ffffffff1660e01b815260040161062691906138e2565b602060405180830381865afa158015610643573d6000803e3d6000fd5b505050506040513d601f19601f8201168201806040525081019061066791906138b5565b90506000600160009054906101000a900473ffffffffffffffffffffffffffffffffffffffff1673ffffffffffffffffffffffffffffffffffffffff166318160ddd6040518163ffffffff1660e01b8152600401602060405180830381865afa1580156106d8573d6000803e3d6000fd5b505050506040513d601f19601f820116820180604052508101906106fc91906138b5565b90506000810361072e5760006040518060800160405280605581526020016149f8605591399094509450505050610c13565b60008184600360009054906101000a900473ffffffffffffffffffffffffffffffffffffffff1673ffffffffffffffffffffffffffffffffffffffff1631610776919061392c565b610780919061399d565b90506000828561078f8a612a95565b610799919061392c565b6107a3919061399d565b90506000600260009054906101000a900473ffffffffffffffffffffffffffffffffffffffff1673ffffffffffffffffffffffffffffffffffffffff1631905060008973ffffffffffffffffffffffffffffffffffffffff166370a08231600260009054906101000a900473ffffffffffffffffffffffffffffffffffffffff166040518263ffffffff1660e01b815260040161084091906138e2565b602060405180830381865afa15801561085d573d6000803e3d6000fd5b505050506040513d601f19601f8201168201806040525081019061088191906138b5565b9050600160009054906101000a900473ffffffffffffffffffffffffffffffffffffffff1673ffffffffffffffffffffffffffffffffffffffff16639c8f9f23886040518263ffffffff1660e01b81526004016108de9190613742565b60408051808303816000875af192505050801561091957506040513d601f19601f8201168201806040525081019061091691906139ce565b60015b61098357610925613a1b565b806308c379a0036109775750610939613a3d565b806109445750610979565b806040516020016109559190613ba1565b6040516020818303038152906040526000995099505050505050505050610c13565b505b3d6000803e3d6000fd5b50506000600260009054906101000a900473ffffffffffffffffffffffffffffffffffffffff1673ffffffffffffffffffffffffffffffffffffffff1631905060008b73ffffffffffffffffffffffffffffffffffffffff166370a08231600260009054906101000a900473ffffffffffffffffffffffffffffffffffffffff166040518263ffffffff1660e01b8152600401610a2091906138e2565b602060405180830381865afa158015610a3d573d6000803e3d6000fd5b505050506040513d601f19601f82011682018060405250810190610a6191906138b5565b90506000600160009054906101000a900473ffffffffffffffffffffffffffffffffffffffff1673ffffffffffffffffffffffffffffffffffffffff166370a08231600260009054906101000a900473ffffffffffffffffffffffffffffffffffffffff166040518263ffffffff1660e01b8152600401610ae291906138e2565b602060405180830381865afa158015610aff573d6000803e3d6000fd5b505050506040513d601f19601f82011682018060405250810190610b2391906138b5565b9050808a8a610b329190613bc3565b14610b665760006040518060800160405280605a8152602001614a4d605a9139909b509b5050505050505050505050610c13565b828786610b739190613bf7565b14610ba7576000604051806080016040528060458152602001614c4960459139909b509b5050505050505050505050610c13565b818685610bb49190613bf7565b14610be857600060405180608001604052806047815260200161473f60479139909b509b5050505050505050505050610c13565b5050506001604051806060016040528060258152602001614938602591399098509850505050505050505b915091565b606060008060009050600160009054906101000a900473ffffffffffffffffffffffffffffffffffffffff1673ffffffffffffffffffffffffffffffffffffffff166310fe9ae86040518163ffffffff1660e01b8152600401602060405180830381865afa925050508015610cab57506040513d601f19601f82011682018060405250810190610ca89190613c40565b60015b610cd55760006040518060600160405280603e8152602001614d64603e9139909250925050610e74565b80915050600073ffffffffffffffffffffffffffffffffffffffff168173ffffffffffffffffffffffffffffffffffffffff1603610d3357600060405180606001604052806034815260200161495d60349139909250925050610e74565b600080610d3f83611adc565b9150915080610d575781600094509450505050610e74565b600080610d63856103ca565b9150915080610d7d57816000965096505050505050610e74565b600080610d898761154b565b9150915080610da5578160009850985050505050505050610e74565b600080610db189612c00565b9150915080610dcf578160009a509a50505050505050505050610e74565b600080610ddb8b6116fc565b9150915080610dfb578160009c509c505050505050505050505050610e74565b600080610e078d610f02565b9150915080610e29578160009e509e5050505050505050505050505050610e74565b60016040518060400160405280601d81526020017f457865726369736520423a20416c6c2074657374732070617373656421000000815250909e509e50505050505050505050505050505b9091565b6060838383604051602001610e8f93929190613d05565b60405160208183030381529060405290509392505050565b60008060009054906101000a900473ffffffffffffffffffffffffffffffffffffffff16905090565b606084848484604051602001610ee99493929190613de4565b6040516020818303038152906040529050949350505050565b606060008064174876e80090506000610f5d82600360009054906101000a900473ffffffffffffffffffffffffffffffffffffffff1673ffffffffffffffffffffffffffffffffffffffff1631610f5888612a95565b612e69565b905060008103610f8e5760006040518060600160405280603e8152602001614b54603e913990935093505050611546565b600360009054906101000a900473ffffffffffffffffffffffffffffffffffffffff1673ffffffffffffffffffffffffffffffffffffffff16318110610ff5576000604051806080016040528060508152602001614cd06050913990935093505050611546565b8473ffffffffffffffffffffffffffffffffffffffff166370a08231600260009054906101000a900473ffffffffffffffffffffffffffffffffffffffff166040518263ffffffff1660e01b815260040161105091906138e2565b602060405180830381865afa15801561106d573d6000803e3d6000fd5b505050506040513d601f19601f8201168201806040525081019061109191906138b5565b8210611127578473ffffffffffffffffffffffffffffffffffffffff166340c10f19600260009054906101000a900473ffffffffffffffffffffffffffffffffffffffff16846040518363ffffffff1660e01b81526004016110f4929190613e43565b600060405180830381600087803b15801561110e57600080fd5b505af1158015611122573d6000803e3d6000fd5b505050505b60006001826111369190613bc3565b90506000600260009054906101000a900473ffffffffffffffffffffffffffffffffffffffff1673ffffffffffffffffffffffffffffffffffffffff1631905060008773ffffffffffffffffffffffffffffffffffffffff166370a08231600260009054906101000a900473ffffffffffffffffffffffffffffffffffffffff166040518263ffffffff1660e01b81526004016111d391906138e2565b602060405180830381865afa1580156111f0573d6000803e3d6000fd5b505050506040513d601f19601f8201168201806040525081019061121491906138b5565b90508773ffffffffffffffffffffffffffffffffffffffff1663095ea7b3600360009054906101000a900473ffffffffffffffffffffffffffffffffffffffff16876040518363ffffffff1660e01b8152600401611273929190613e43565b6020604051808303816000875af1158015611292573d6000803e3d6000fd5b505050506040513d601f19601f820116820180604052508101906112b69190613858565b50600160009054906101000a900473ffffffffffffffffffffffffffffffffffffffff1673ffffffffffffffffffffffffffffffffffffffff166363ffeafd86856040518363ffffffff1660e01b8152600401611314929190613e6c565b600060405180830381600087803b15801561132e57600080fd5b505af192505050801561133f575060015b6113a75761134b613a1b565b806308c379a00361139b575061135f613a3d565b8061136a575061139d565b8060405160200161137b9190613f2d565b604051602081830303815290604052600097509750505050505050611546565b505b3d6000803e3d6000fd5b6000600260009054906101000a900473ffffffffffffffffffffffffffffffffffffffff1673ffffffffffffffffffffffffffffffffffffffff1631905060008973ffffffffffffffffffffffffffffffffffffffff166370a08231600260009054906101000a900473ffffffffffffffffffffffffffffffffffffffff166040518263ffffffff1660e01b815260040161144291906138e2565b602060405180830381865afa15801561145f573d6000803e3d6000fd5b505050506040513d601f19601f8201168201806040525081019061148391906138b5565b90508087846114929190613bc3565b146114c3576000604051806080016040528060428152602001614c8e60429139909850985050505050505050611546565b8186856114d09190613bf7565b14611501576000604051806060016040528060408152602001614b9260409139909850985050505050505050611546565b505060016040518060400160405280602081526020017f457865726369736520422028746f6b656e546f457468293a2050617373656421815250909650965050505050505b915091565b606060008066038d7ea4c68000905060006115a882600360009054906101000a900473ffffffffffffffffffffffffffffffffffffffff1673ffffffffffffffffffffffffffffffffffffffff16316115a388612a95565b612e69565b9050600160009054906101000a900473ffffffffffffffffffffffffffffffffffffffff1673ffffffffffffffffffffffffffffffffffffffff1663c2507ac1836040518263ffffffff1660e01b81526004016116059190613742565b602060405180830381865afa92505050801561163f57506040513d601f19601f8201168201806040525081019061163c91906138b5565b60015b6116a45761164b613a1b565b806308c379a003611698575061165f613a3d565b8061166a575061169a565b8060405160200161167b9190613fe7565b6040516020818303038152906040526000945094505050506116f7565b505b3d6000803e3d6000fd5b8082146116d35760006040518060800160405280604581526020016146fa6045913990945094505050506116f7565b5060016040518060600160405280602481526020016147d060249139909350935050505b915091565b606060008064174876e80090508373ffffffffffffffffffffffffffffffffffffffff166340c10f19600360009054906101000a900473ffffffffffffffffffffffffffffffffffffffff166103e86040518363ffffffff1660e01b8152600401611768929190614044565b600060405180830381600087803b15801561178257600080fd5b505af1158015611796573d6000803e3d6000fd5b5050505060006117e882600360009054906101000a900473ffffffffffffffffffffffffffffffffffffffff1673ffffffffffffffffffffffffffffffffffffffff16316117e388612a95565b612e69565b9050600081036118195760006040518060800160405280605981526020016148416059913990935093505050611ad7565b6000600a826118289190613bc3565b905060008673ffffffffffffffffffffffffffffffffffffffff166370a08231600260009054906101000a900473ffffffffffffffffffffffffffffffffffffffff166040518263ffffffff1660e01b815260040161188791906138e2565b602060405180830381865afa1580156118a4573d6000803e3d6000fd5b505050506040513d601f19601f820116820180604052508101906118c891906138b5565b9050600160009054906101000a900473ffffffffffffffffffffffffffffffffffffffff1673ffffffffffffffffffffffffffffffffffffffff1663e27a248985846040518363ffffffff1660e01b81526004016119269190613742565b6000604051808303818588803b15801561193f57600080fd5b505af193505050508015611951575060015b6119b85761195d613a1b565b806308c379a0036119ac5750611971613a3d565b8061197c57506119ae565b8060405160200161198d9190614105565b6040516020818303038152906040526000965096505050505050611ad7565b505b3d6000803e3d6000fd5b60008773ffffffffffffffffffffffffffffffffffffffff166370a08231600260009054906101000a900473ffffffffffffffffffffffffffffffffffffffff166040518263ffffffff1660e01b8152600401611a1591906138e2565b602060405180830381865afa158015611a32573d6000803e3d6000fd5b505050506040513d601f19601f82011682018060405250810190611a5691906138b5565b9050808483611a659190613bf7565b14611a945760006040518060800160405280604281526020016149b66042913990965096505050505050611ad7565b5060016040518060400160405280602081526020017f457865726369736520422028657468546f546f6b656e293a20506173736564218152509095509550505050505b915091565b606060008273ffffffffffffffffffffffffffffffffffffffff166340c10f19600260009054906101000a900473ffffffffffffffffffffffffffffffffffffffff1664174876e8006040518363ffffffff1660e01b8152600401611b42929190614162565b600060405180830381600087803b158015611b5c57600080fd5b505af1158015611b70573d6000803e3d6000fd5b505050508273ffffffffffffffffffffffffffffffffffffffff1663095ea7b3600360009054906101000a900473ffffffffffffffffffffffffffffffffffffffff1664174876e8006040518363ffffffff1660e01b8152600401611bd6929190614162565b6020604051808303816000875af1158015611bf5573d6000803e3d6000fd5b505050506040513d601f19601f82011682018060405250810190611c199190613858565b50600160009054906101000a900473ffffffffffffffffffffffffffffffffffffffff1673ffffffffffffffffffffffffffffffffffffffff166351c6590a600064174876e8006040518363ffffffff1660e01b8152600401611c7c919061418b565b60206040518083038185885af193505050508015611cb857506040513d601f19601f82011682018060405250810190611cb591906138b5565b60015b611ce15760006040518060800160405280604a8152602001614786604a913990915091506126e8565b506000600160009054906101000a900473ffffffffffffffffffffffffffffffffffffffff1673ffffffffffffffffffffffffffffffffffffffff166318160ddd6040518163ffffffff1660e01b8152600401602060405180830381865afa158015611d51573d6000803e3d6000fd5b505050506040513d601f19601f82011682018060405250810190611d7591906138b5565b03611d9f576000604051806060016040528060368152602001614b1e6036913990915091506126e8565b6000600360009054906101000a900473ffffffffffffffffffffffffffffffffffffffff1673ffffffffffffffffffffffffffffffffffffffff163103611e055760006040518060800160405280604c81526020016148ec604c913990915091506126e8565b600064174876e800905060008182600360009054906101000a900473ffffffffffffffffffffffffffffffffffffffff1673ffffffffffffffffffffffffffffffffffffffff1631611e579190613bf7565b611e619190613bc3565b90506000611e6e86612a95565b90506000828285611e7f919061392c565b611e89919061399d565b905060008190508773ffffffffffffffffffffffffffffffffffffffff166370a08231600260009054906101000a900473ffffffffffffffffffffffffffffffffffffffff166040518263ffffffff1660e01b8152600401611eeb91906138e2565b602060405180830381865afa158015611f08573d6000803e3d6000fd5b505050506040513d601f19601f82011682018060405250810190611f2c91906138b5565b811115611fc3578773ffffffffffffffffffffffffffffffffffffffff166340c10f19600260009054906101000a900473ffffffffffffffffffffffffffffffffffffffff16836040518363ffffffff1660e01b8152600401611f90929190613e43565b600060405180830381600087803b158015611faa57600080fd5b505af1158015611fbe573d6000803e3d6000fd5b505050505b60008486600160009054906101000a900473ffffffffffffffffffffffffffffffffffffffff1673ffffffffffffffffffffffffffffffffffffffff166318160ddd6040518163ffffffff1660e01b8152600401602060405180830381865afa158015612034573d6000803e3d6000fd5b505050506040513d601f19601f8201168201806040525081019061205891906138b5565b612062919061392c565b61206c919061399d565b9050600081036120a15760006040518060a0016040528060778152602001614bd26077913990975097505050505050506126e8565b8873ffffffffffffffffffffffffffffffffffffffff1663095ea7b3600360009054906101000a900473ffffffffffffffffffffffffffffffffffffffff16846040518363ffffffff1660e01b81526004016120fe929190613e43565b6020604051808303816000875af115801561211d573d6000803e3d6000fd5b505050506040513d601f19601f820116820180604052508101906121419190613858565b5060008973ffffffffffffffffffffffffffffffffffffffff166370a08231600260009054906101000a900473ffffffffffffffffffffffffffffffffffffffff166040518263ffffffff1660e01b815260040161219f91906138e2565b602060405180830381865afa1580156121bc573d6000803e3d6000fd5b505050506040513d601f19601f820116820180604052508101906121e091906138b5565b90506000600160009054906101000a900473ffffffffffffffffffffffffffffffffffffffff1673ffffffffffffffffffffffffffffffffffffffff166370a08231600260009054906101000a900473ffffffffffffffffffffffffffffffffffffffff166040518263ffffffff1660e01b815260040161226191906138e2565b602060405180830381865afa15801561227e573d6000803e3d6000fd5b505050506040513d601f19601f820116820180604052508101906122a291906138b5565b9050600160009054906101000a900473ffffffffffffffffffffffffffffffffffffffff1673ffffffffffffffffffffffffffffffffffffffff166351c6590a89866040518363ffffffff1660e01b81526004016123009190613742565b60206040518083038185885af19350505050801561233c57506040513d601f19601f8201168201806040525081019061233991906138b5565b60015b6123c257612348613a1b565b806308c379a0036123b6575061235c613a3d565b8061236757506123b8565b6123a2604051806060016040528060218152602001614aa7602191396040518060600160405280602581526020016149916025913983610e78565b60009a509a505050505050505050506126e8565b505b3d6000803e3d6000fd5b83811461240f576123d284612f02565b6123db82612f02565b6040516020016123ec929190614264565b60405160208183030381529060405260009a509a505050505050505050506126e8565b60008c73ffffffffffffffffffffffffffffffffffffffff166370a08231600260009054906101000a900473ffffffffffffffffffffffffffffffffffffffff166040518263ffffffff1660e01b815260040161246c91906138e2565b602060405180830381865afa158015612489573d6000803e3d6000fd5b505050506040513d601f19601f820116820180604052508101906124ad91906138b5565b90508086856124bc9190613bc3565b146124f0576000604051806080016040528060568152602001614ac860569139909b509b50505050505050505050506126e8565b6000600160009054906101000a900473ffffffffffffffffffffffffffffffffffffffff1673ffffffffffffffffffffffffffffffffffffffff166370a08231600260009054906101000a900473ffffffffffffffffffffffffffffffffffffffff166040518263ffffffff1660e01b815260040161256f91906138e2565b602060405180830381865afa15801561258c573d6000803e3d6000fd5b505050506040513d601f19601f820116820180604052508101906125b091906138b5565b90508086856125bf9190613bf7565b146125f45760006040518060800160405280604d81526020016147f4604d9139909c509c5050505050505050505050506126e8565b6000600160009054906101000a900473ffffffffffffffffffffffffffffffffffffffff1673ffffffffffffffffffffffffffffffffffffffff166318160ddd6040518163ffffffff1660e01b8152600401602060405180830381865afa158015612663573d6000803e3d6000fd5b505050506040513d601f19601f8201168201806040525081019061268791906138b5565b036126bc57600060405180608001604052806052815260200161489a60529139909c509c5050505050505050505050506126e8565b5050506001604051806060016040528060228152602001614d4260229139909950995050505050505050505b915091565b60008160405160200161270091906142a2565b604051602081830303815290604052805190602001208360405160200161272791906142a2565b6040516020818303038152906040528051906020012014905092915050565b61274e610ea7565b73ffffffffffffffffffffffffffffffffffffffff166324d7806c336040518263ffffffff1660e01b815260040161278691906138e2565b602060405180830381865afa1580156127a3573d6000803e3d6000fd5b505050506040513d601f19601f820116820180604052508101906127c79190613858565b612806576040517f08c379a00000000000000000000000000000000000000000000000000000000081526004016127fd9061432b565b60405180910390fd5b600073ffffffffffffffffffffffffffffffffffffffff168273ffffffffffffffffffffffffffffffffffffffff1603612875576040517f08c379a000000000000000000000000000000000000000000000000000000000815260040161286c90614397565b60405180910390fd5b3373ffffffffffffffffffffffffffffffffffffffff168273ffffffffffffffffffffffffffffffffffffffff1614806128da57503273ffffffffffffffffffffffffffffffffffffffff168273ffffffffffffffffffffffffffffffffffffffff16145b8061296257506128e8610ea7565b73ffffffffffffffffffffffffffffffffffffffff166324d7806c836040518263ffffffff1660e01b815260040161292091906143d8565b602060405180830381865afa15801561293d573d6000803e3d6000fd5b505050506040513d601f19601f820116820180604052508101906129619190613858565b5b6129a1576040517f08c379a000000000000000000000000000000000000000000000000000000000815260040161299890614465565b60405180910390fd5b478110156129e4576040517f08c379a00000000000000000000000000000000000000000000000000000000081526004016129db906144d1565b60405180910390fd5b60008273ffffffffffffffffffffffffffffffffffffffff1682604051612a0a90614522565b60006040518083038185875af1925050503d8060008114612a47576040519150601f19603f3d011682016040523d82523d6000602084013e612a4c565b606091505b5050905080612a90576040517f08c379a0000000000000000000000000000000000000000000000000000000008152600401612a8790614583565b60405180910390fd5b505050565b60008173ffffffffffffffffffffffffffffffffffffffff166370a08231600360009054906101000a900473ffffffffffffffffffffffffffffffffffffffff166040518263ffffffff1660e01b8152600401612af291906138e2565b602060405180830381865afa158015612b0f573d6000803e3d6000fd5b505050506040513d601f19601f82011682018060405250810190612b3391906138b5565b9050919050565b80600160006101000a81548173ffffffffffffffffffffffffffffffffffffffff021916908373ffffffffffffffffffffffffffffffffffffffff16021790555030600260006101000a81548173ffffffffffffffffffffffffffffffffffffffff021916908373ffffffffffffffffffffffffffffffffffffffff16021790555080600360006101000a81548173ffffffffffffffffffffffffffffffffffffffff021916908373ffffffffffffffffffffffffffffffffffffffff16021790555050565b6060600080600190506000612c5782612c1887612a95565b600360009054906101000a900473ffffffffffffffffffffffffffffffffffffffff1673ffffffffffffffffffffffffffffffffffffffff1631612e69565b9050600160009054906101000a900473ffffffffffffffffffffffffffffffffffffffff1673ffffffffffffffffffffffffffffffffffffffff16638fc7a25d836040518263ffffffff1660e01b8152600401612cb49190613742565b602060405180830381865afa925050508015612cee57506040513d601f19601f82011682018060405250810190612ceb91906138b5565b60015b612d5357612cfa613a1b565b806308c379a003612d475750612d0e613a3d565b80612d195750612d49565b80604051602001612d2a919061463b565b604051602081830303815290604052600094509450505050612da6565b505b3d6000803e3d6000fd5b808214612d82576000604051806080016040528060418152602001614da2604191399094509450505050612da6565b506001604051806060016040528060228152602001614d2060229139909350935050505b915091565b816000806101000a81548173ffffffffffffffffffffffffffffffffffffffff021916908373ffffffffffffffffffffffffffffffffffffffff1602179055506000612df5610ea7565b90508073ffffffffffffffffffffffffffffffffffffffff16637fb99b9330846040518363ffffffff1660e01b8152600401612e3292919061465d565b600060405180830381600087803b158015612e4c57600080fd5b505af1158015612e60573d6000803e3d6000fd5b50505050505050565b600080606385612e79919061392c565b905060008382612e89919061392c565b9050600082606487612e9b919061392c565b612ea59190613bf7565b905060008111612eea576040517f08c379a0000000000000000000000000000000000000000000000000000000008152600401612ee1906146d9565b60405180910390fd5b8082612ef6919061399d565b93505050509392505050565b606060006001612f1184612fd0565b01905060008167ffffffffffffffff811115612f3057612f2f6132a7565b5b6040519080825280601f01601f191660200182016040528015612f625781602001600182028036833780820191505090505b509050600082602001820190505b600115612fc5578080600190039150507f3031323334353637383961626364656600000000000000000000000000000000600a86061a8153600a8581612fb957612fb861396e565b5b04945060008503612f70575b819350505050919050565b600080600090507a184f03e93ff9f4daa797ed6e38ed64bf6a1f010000000000000000831061302e577a184f03e93ff9f4daa797ed6e38ed64bf6a1f01000000000000000083816130245761302361396e565b5b0492506040810190505b6d04ee2d6d415b85acef8100000000831061306b576d04ee2d6d415b85acef810000000083816130615761306061396e565b5b0492506020810190505b662386f26fc10000831061309a57662386f26fc1000083816130905761308f61396e565b5b0492506010810190505b6305f5e10083106130c3576305f5e10083816130b9576130b861396e565b5b0492506008810190505b61271083106130e85761271083816130de576130dd61396e565b5b0492506004810190505b6064831061310b57606483816131015761310061396e565b5b0492506002810190505b600a831061311a576001810190505b80915050919050565b6000604051905090565b600080fd5b600080fd5b600073ffffffffffffffffffffffffffffffffffffffff82169050919050565b600061316282613137565b9050919050565b61317281613157565b811461317d57600080fd5b50565b60008135905061318f81613169565b92915050565b6000602082840312156131ab576131aa61312d565b5b60006131b984828501613180565b91505092915050565b600081519050919050565b600082825260208201905092915050565b60005b838110156131fc5780820151818401526020810190506131e1565b60008484015250505050565b6000601f19601f8301169050919050565b6000613224826131c2565b61322e81856131cd565b935061323e8185602086016131de565b61324781613208565b840191505092915050565b60008115159050919050565b61326781613252565b82525050565b600060408201905081810360008301526132878185613219565b9050613296602083018461325e565b9392505050565b600080fd5b600080fd5b7f4e487b7100000000000000000000000000000000000000000000000000000000600052604160045260246000fd5b6132df82613208565b810181811067ffffffffffffffff821117156132fe576132fd6132a7565b5b80604052505050565b6000613311613123565b905061331d82826132d6565b919050565b600067ffffffffffffffff82111561333d5761333c6132a7565b5b61334682613208565b9050602081019050919050565b82818337600083830152505050565b600061337561337084613322565b613307565b905082815260208101848484011115613391576133906132a2565b5b61339c848285613353565b509392505050565b600082601f8301126133b9576133b861329d565b5b81356133c9848260208601613362565b91505092915050565b6000806000606084860312156133eb576133ea61312d565b5b600084013567ffffffffffffffff81111561340957613408613132565b5b613415868287016133a4565b935050602084013567ffffffffffffffff81111561343657613435613132565b5b613442868287016133a4565b925050604084013567ffffffffffffffff81111561346357613462613132565b5b61346f868287016133a4565b9150509250925092565b600060208201905081810360008301526134938184613219565b905092915050565b6000819050919050565b60006134c06134bb6134b684613137565b61349b565b613137565b9050919050565b60006134d2826134a5565b9050919050565b60006134e4826134c7565b9050919050565b6134f4816134d9565b82525050565b600060208201905061350f60008301846134eb565b92915050565b6000806000806080858703121561352f5761352e61312d565b5b600085013567ffffffffffffffff81111561354d5761354c613132565b5b613559878288016133a4565b945050602085013567ffffffffffffffff81111561357a57613579613132565b5b613586878288016133a4565b935050604085013567ffffffffffffffff8111156135a7576135a6613132565b5b6135b3878288016133a4565b925050606085013567ffffffffffffffff8111156135d4576135d3613132565b5b6135e0878288016133a4565b91505092959194509250565b600080604083850312156136035761360261312d565b5b600083013567ffffffffffffffff81111561362157613620613132565b5b61362d858286016133a4565b925050602083013567ffffffffffffffff81111561364e5761364d613132565b5b61365a858286016133a4565b9150509250929050565b6000602082019050613679600083018461325e565b92915050565b600061368a82613137565b9050919050565b61369a8161367f565b81146136a557600080fd5b50565b6000813590506136b781613691565b92915050565b6000819050919050565b6136d0816136bd565b81146136db57600080fd5b50565b6000813590506136ed816136c7565b92915050565b6000806040838503121561370a5761370961312d565b5b6000613718858286016136a8565b9250506020613729858286016136de565b9150509250929050565b61373c816136bd565b82525050565b60006020820190506137576000830184613733565b92915050565b600080604083850312156137745761377361312d565b5b600061378285828601613180565b925050602083013567ffffffffffffffff8111156137a3576137a2613132565b5b6137af858286016133a4565b9150509250929050565b6137c281613157565b82525050565b6000819050919050565b60006137ed6137e86137e3846137c8565b61349b565b6136bd565b9050919050565b6137fd816137d2565b82525050565b600060408201905061381860008301856137b9565b61382560208301846137f4565b9392505050565b61383581613252565b811461384057600080fd5b50565b6000815190506138528161382c565b92915050565b60006020828403121561386e5761386d61312d565b5b600061387c84828501613843565b91505092915050565b600060208201905061389a60008301846137f4565b92915050565b6000815190506138af816136c7565b92915050565b6000602082840312156138cb576138ca61312d565b5b60006138d9848285016138a0565b91505092915050565b60006020820190506138f760008301846137b9565b92915050565b7f4e487b7100000000000000000000000000000000000000000000000000000000600052601160045260246000fd5b6000613937826136bd565b9150613942836136bd565b9250828202613950816136bd565b91508282048414831517613967576139666138fd565b5b5092915050565b7f4e487b7100000000000000000000000000000000000000000000000000000000600052601260045260246000fd5b60006139a8826136bd565b91506139b3836136bd565b9250826139c3576139c261396e565b5b828204905092915050565b600080604083850312156139e5576139e461312d565b5b60006139f3858286016138a0565b9250506020613a04858286016138a0565b9150509250929050565b60008160e01c9050919050565b600060033d1115613a3a5760046000803e613a37600051613a0e565b90505b90565b600060443d10613aca57613a4f613123565b60043d036004823e80513d602482011167ffffffffffffffff82111715613a77575050613aca565b808201805167ffffffffffffffff811115613a955750505050613aca565b80602083010160043d038501811115613ab2575050505050613aca565b613ac1826020018501866132d6565b82955050505050505b90565b600081905092915050565b7f4572726f72202845786572636973652042202d2072656d6f76654c697175696460008201527f697479293a204572726f722077697468207468652072656d6f76654c6971756960208201527f646974792066756e6374696f6e21000000000000000000000000000000000000604082015250565b6000613b5a604e83613acd565b9150613b6582613ad8565b604e82019050919050565b6000613b7b826131c2565b613b858185613acd565b9350613b958185602086016131de565b80840191505092915050565b6000613bac82613b4d565b9150613bb88284613b70565b915081905092915050565b6000613bce826136bd565b9150613bd9836136bd565b9250828203905081811115613bf157613bf06138fd565b5b92915050565b6000613c02826136bd565b9150613c0d836136bd565b9250828201905080821115613c2557613c246138fd565b5b92915050565b600081519050613c3a81613169565b92915050565b600060208284031215613c5657613c5561312d565b5b6000613c6484828501613c2b565b91505092915050565b7f3a20000000000000000000000000000000000000000000000000000000000000600082015250565b6000613ca3600283613acd565b9150613cae82613c6d565b600282019050919050565b7f203e200000000000000000000000000000000000000000000000000000000000600082015250565b6000613cef600383613acd565b9150613cfa82613cb9565b600382019050919050565b6000613d118286613b70565b9150613d1c82613c96565b9150613d288285613b70565b9150613d3382613ce2565b9150613d3f8284613b70565b9150819050949350505050565b7f2045787065637465643a20000000000000000000000000000000000000000000600082015250565b6000613d82600b83613acd565b9150613d8d82613d4c565b600b82019050919050565b7f2041637475616c3a200000000000000000000000000000000000000000000000600082015250565b6000613dce600983613acd565b9150613dd982613d98565b600982019050919050565b6000613df08287613b70565b9150613dfb82613c96565b9150613e078286613b70565b9150613e1282613d75565b9150613e1e8285613b70565b9150613e2982613dc1565b9150613e358284613b70565b915081905095945050505050565b6000604082019050613e5860008301856137b9565b613e656020830184613733565b9392505050565b6000604082019050613e816000830185613733565b613e8e6020830184613733565b9392505050565b7f4572726f72202845786572636973652042202d20746f6b656e546f457468293a60008201527f204572726f7220776974682074686520746f6b656e546f4574682066756e637460208201527f696f6e2100000000000000000000000000000000000000000000000000000000604082015250565b6000613f17604483613acd565b9150613f2282613e95565b604482019050919050565b6000613f3882613f0a565b9150613f448284613b70565b915081905092915050565b7f4572726f72202845786572636973652042202d20676574546f6b656e416d6f7560008201527f6e74293a204572726f7220776974682074686520676574546f6b656e416d6f7560208201527f6e742066756e6374696f6e210000000000000000000000000000000000000000604082015250565b6000613fd1604c83613acd565b9150613fdc82613f4f565b604c82019050919050565b6000613ff282613fc4565b9150613ffe8284613b70565b915081905092915050565b6000819050919050565b600061402e61402961402484614009565b61349b565b6136bd565b9050919050565b61403e81614013565b82525050565b600060408201905061405960008301856137b9565b6140666020830184614035565b9392505050565b7f4572726f72202845786572636973652042202d20657468546f546f6b656e293a60008201527f204572726f7220776974682074686520657468546f546f6b656e2066756e637460208201527f696f6e21202d2000000000000000000000000000000000000000000000000000604082015250565b60006140ef604783613acd565b91506140fa8261406d565b604782019050919050565b6000614110826140e2565b915061411c8284613b70565b915081905092915050565b6000819050919050565b600061414c61414761414284614127565b61349b565b6136bd565b9050919050565b61415c81614131565b82525050565b600060408201905061417760008301856137b9565b6141846020830184614153565b9392505050565b60006020820190506141a06000830184614153565b92915050565b7f4572726f72202845786572636973652042202d206164644c697175696469747960008201527f293a205468652063616c63756c61746564206c6971756964697479206973206e60208201527f6f7420636f7272656374212045787065637465643a2000000000000000000000604082015250565b6000614228605683613acd565b9150614233826141a6565b605682019050919050565b7f2041637475616c3a200000000000000000000000000000000000000000000000815250565b600061426f8261421b565b915061427b8285613b70565b91506142868261423e565b6009820191506142968284613b70565b91508190509392505050565b60006142ae8284613b70565b915081905092915050565b7f4f6e6c7920636f6e74726163742061646d696e2063616e20776974686472617760008201527f2066756e64730000000000000000000000000000000000000000000000000000602082015250565b60006143156026836131cd565b9150614320826142b9565b604082019050919050565b6000602082019050818103600083015261434481614308565b9050919050565b7f496e76616c696420616464726573730000000000000000000000000000000000600082015250565b6000614381600f836131cd565b915061438c8261434b565b602082019050919050565b600060208201905081810360008301526143b081614374565b9050919050565b60006143c2826134c7565b9050919050565b6143d2816143b7565b82525050565b60006020820190506143ed60008301846143c9565b92915050565b7f46756e64732063616e206f6e6c792062652077697468647261776e20746f206160008201527f646d696e2c206d73672e73656e646572206f722074782e6f726967696e000000602082015250565b600061444f603d836131cd565b915061445a826143f3565b604082019050919050565b6000602082019050818103600083015261447e81614442565b9050919050565b7f496e73756666696369656e742066756e64730000000000000000000000000000600082015250565b60006144bb6012836131cd565b91506144c682614485565b602082019050919050565b600060208201905081810360008301526144ea816144ae565b9050919050565b600081905092915050565b50565b600061450c6000836144f1565b9150614517826144fc565b600082019050919050565b600061452d826144ff565b9150819050919050565b7f5472616e73666572206661696c65642e00000000000000000000000000000000600082015250565b600061456d6010836131cd565b915061457882614537565b602082019050919050565b6000602082019050818103600083015261459c81614560565b9050919050565b7f4572726f72202845786572636973652042202d20676574457468416d6f756e7460008201527f293a204572726f7220776974682074686520676574457468416d6f756e74206660208201527f756e6374696f6e21000000000000000000000000000000000000000000000000604082015250565b6000614625604883613acd565b9150614630826145a3565b604882019050919050565b600061464682614618565b91506146528284613b70565b915081905092915050565b600060408201905061467260008301856137b9565b81810360208301526146848184613219565b90509392505050565b7f4552525f5a45524f5f44454e4f4d494e41544f52000000000000000000000000600082015250565b60006146c36014836131cd565b91506146ce8261468d565b602082019050919050565b600060208201905081810360008301526146f2816146b6565b905091905056fe4572726f72202845786572636973652042202d20676574546f6b656e416d6f756e74293a2054686520746f6b656e20616d6f756e74206973206e6f7420636f7272656374214572726f72202845786572636973652042202d2072656d6f76654c6971756964697479293a2054686520746f6b656e2062616c616e6365206973206e6f7420636f7272656374214572726f72202845786572636973652042202d206164644c6971756964697479293a204572726f72207769746820746865206164644c697175696469747928292066756e6374696f6e2e457865726369736520422028676574546f6b656e416d6f756e74293a20506173736564214572726f72202845786572636973652042202d206164644c6971756964697479293a205468652065786368616e676520746f6b656e2062616c616e6365206973206e6f7420636f7272656374214572726f72202845786572636973652042202d20657468546f546f6b656e293a2054686520657870656374656420746f6b656e20626f7567687420697320302c2073686f756c64206265206c6172676572207468616e2030214572726f72202845786572636973652042202d206164644c6971756964697479293a2054686520746f74616c20737570706c7920697320302c2073686f756c64206265206c6172676572207468616e2030214572726f72202845786572636973652042202d206164644c6971756964697479293a20746865206574682062616c616e6365206f66207468652065786368616e676520697320656d7074792145786572636973652042202872656d6f76654c6971756964697479293a20506173736564214572726f72202845786572636973652042293a2054686520746f6b656e206164647265737320697320616464726573732830292e4572726f72207769746820746865206164644c69717569646974792066756e6374696f6e214572726f72202845786572636973652042202d20657468546f546f6b656e293a2054686520746f6b656e2062616c616e6365206973206e6f7420636f7272656374214572726f72202845786572636973652042202d2072656d6f76654c6971756964697479293a2054686520746f74616c20737570706c7920697320302c2073686f756c64206265206c6172676572207468616e2030214572726f72202845786572636973652042202d2072656d6f76654c6971756964697479293a204275726e696e67206f66207468652065786368616e676520746f6b656e20646964206e6f7420776f726b2070726f7065726c79214572726f72202845786572636973652042202d206164644c6971756964697479294572726f72202845786572636973652042202d206164644c6971756964697479293a2054686520746f6b656e2062616c616e636520666f72207468652076616c696461746f72206973206e6f7420636f7272656374214572726f72202845786572636973652042202d206164644c6971756964697479293a20546865206c69717569646974792069732030214572726f72202845786572636973652042202d20746f6b656e546f457468293a205468652065787065637465642045544820626f756768742069732030214572726f72202845786572636973652042202d20746f6b656e546f457468293a20546865204554482062616c616e6365206973206e6f7420636f7272656374214572726f72202845786572636973652042202d206164644c6971756964697479293a20546865206578706563746564206c697175696469747920697320302e2041646420736f6d652066756e647320746f207468652065786368616e676520746f20656e737572652074657374696e6720776f726b73214572726f72202845786572636973652042202d2072656d6f76654c6971756964697479293a20546865204554482062616c616e6365206973206e6f7420636f7272656374214572726f72202845786572636973652042202d20746f6b656e546f457468293a2054686520746f6b656e2062616c616e6365206973206e6f7420636f7272656374214572726f72202845786572636973652042202d20746f6b656e546f457468293a205468652076616c696461746f72206164647265737320646f6573206e6f74206861766520656e6f7567682045544821457865726369736520422028676574457468416d6f756e74293a20506173736564214578657263697365204220286164644c6971756964697479293a20506173736564214572726f72202845786572636973652042293a204572726f7220776974682074686520676574546f6b656e4164647265737328292066756e6374696f6e2e4572726f72202845786572636973652042202d20676574457468416d6f756e74293a205468652045544820616d6f756e74206973206e6f7420636f727265637421a2646970667358221220a9d43312fd6442056996fc6415a26d87712c8db5f24f8c2cc87e4be389db012664736f6c63430008130033535332332041737369676e6d656e7420342056616c696461746f7220436f6e7472616374202d205461736b2042",
  "immutableReferences": {},
  "source": "// SPDX-License-Identifier: MIT\r\npragma solidity ^0.8.17;\r\n\r\n// Import IERC20.sol\r\nimport \"../../node_modules/@openzeppelin/contracts/token/ERC20/IERC20.sol\";\r\n\r\n// Import the IAssignment4.sol\r\nimport \"./interface/IAssignment4.sol\";\r\n\r\n// Import coin interface\r\nimport \"./interface/IAssignment4Coin.sol\";\r\n\r\n// Import Helper\r\nimport \"../Helper.sol\";\r\n\r\n// import \"BaseConfig.sol\";\r\nimport \"../BaseConfig.sol\";\r\n\r\ncontract Validator4TaskB is Helper, BaseConfig {\r\n    // assignment contract interface\r\n    IAssignment4 assignmentContract;\r\n\r\n    // Address of the validator contract for task A\r\n    address validatorAddress;\r\n\r\n    // Address of exchange contract/ student contract\r\n    address exchangeAddress;\r\n\r\n    constructor(address _configContractAddress) {\r\n        initAdmin(\r\n            _configContractAddress,\r\n            \"SS23 Assignment 4 Validator Contract - Task B\"\r\n        );\r\n    }\r\n\r\n    receive() external payable {}\r\n\r\n    // Init contract\r\n    function initContract(address _contractAddress) public {\r\n        // Call the contract interface which needs to be tested and store it in the variable assignmentContract\r\n        assignmentContract = IAssignment4(_contractAddress);\r\n\r\n        // Set Address for convenience\r\n        validatorAddress = address(this);\r\n        exchangeAddress = address(_contractAddress);\r\n    }\r\n\r\n    function testExerciseB() public payable returns (string memory, bool) {\r\n        // Prepare\r\n\r\n        address tokenAddress = address(0);\r\n\r\n        try assignmentContract.getTokenAddress() returns (\r\n            address _tokenAddress\r\n        ) {\r\n            tokenAddress = _tokenAddress;\r\n        } catch {\r\n            return (\r\n                \"Error (Exercise B): Error with the getTokenAddress() function.\",\r\n                false\r\n            );\r\n        }\r\n\r\n        // check that token address is no address(0)\r\n        if (tokenAddress == address(0)) {\r\n            return (\r\n                \"Error (Exercise B): The token address is address(0).\",\r\n                false\r\n            );\r\n        }\r\n\r\n        // TEST 1: Test AddLiquidity function\r\n        (string memory message1, bool success1) = testAddLiquidity(\r\n            tokenAddress\r\n        );\r\n        if (!success1) return (message1, false);\r\n\r\n        // TEST 2: Test RemoveLiquidity function\r\n        (string memory message2, bool success2) = testRemoveLiquidity(\r\n            tokenAddress\r\n        );\r\n        if (!success2) return (message2, false);\r\n\r\n        // TEST 3: Test Swap function\r\n        (string memory message3, bool success3) = testGetTokenAmount(\r\n            tokenAddress\r\n        );\r\n        if (!success3) return (message3, false);\r\n\r\n        // TEST 4: Test Get Eth Amount function\r\n        (string memory message4, bool success4) = testGetEthAmount(\r\n            tokenAddress\r\n        );\r\n        if (!success4) return (message4, false);\r\n\r\n        // TEST 5: Test Eth to Token Swap function\r\n        (string memory message5, bool success5) = testEthToToken(tokenAddress);\r\n        if (!success5) return (message5, false);\r\n\r\n        // TEST 6: Test Token to Eth Swap function\r\n        (string memory message6, bool success6) = testTokenToEth(tokenAddress);\r\n        if (!success6) return (message6, false);\r\n\r\n        return (\"Exercise B: All tests passed!\", true);\r\n    }\r\n\r\n    /**\r\n     * TEST EXERCISE B\r\n     * - test addLiquidity function\r\n     */\r\n    function testAddLiquidity(address tokenAddress)\r\n        public\r\n        payable\r\n        returns (string memory, bool)\r\n    {\r\n        /*----------  EXERCISE B  ----------*/\r\n\r\n        // Add some liquidity if reserve is empty\r\n        // Prepare test\r\n        // Mint 100 wei tokens to the validator address\r\n        IAssignment4Coin(tokenAddress).mint(validatorAddress, 100 gwei);\r\n        IAssignment4Coin(tokenAddress).approve(exchangeAddress, 100 gwei);\r\n\r\n        try assignmentContract.addLiquidity{value: 0}(100 gwei) {\r\n            // Check if the liquidity is added\r\n            if (assignmentContract.totalSupply() == 0) {\r\n                return (\r\n                    \"Error (Exercise B - addLiquidity): The liquidity is 0!\",\r\n                    false\r\n                );\r\n            }\r\n        } catch {\r\n            return (\r\n                \"Error (Exercise B - addLiquidity): Error with the addLiquidity() function.\",\r\n                false\r\n            );\r\n        }\r\n\r\n        // TEST START --->\r\n\r\n        // throw error if the reserve is empty\r\n        if (exchangeAddress.balance == 0) {\r\n            return (\r\n                \"Error (Exercise B - addLiquidity): the eth balance of the exchange is empty!\",\r\n                false\r\n            );\r\n        }\r\n\r\n        // ETH amount to send\r\n        uint256 testMsgValue = 100 gwei;\r\n\r\n        // Calculate the amount of tokens to buy\r\n        uint256 ethReserve = (exchangeAddress.balance + testMsgValue) -\r\n            testMsgValue;\r\n        uint256 tokenReserve = getReserve(tokenAddress);\r\n        uint256 tokenAmount = (testMsgValue * tokenReserve) / ethReserve;\r\n\r\n        // Token amount to buy\r\n        uint256 testTokenAmount = tokenAmount;\r\n\r\n        // Mint some tokens for the validator to add to liquidity pool\r\n        if (\r\n            testTokenAmount >\r\n            IAssignment4Coin(tokenAddress).balanceOf(validatorAddress)\r\n        ) {\r\n            IAssignment4Coin(tokenAddress).mint(\r\n                validatorAddress,\r\n                testTokenAmount\r\n            );\r\n        }\r\n\r\n        uint256 liquidity = (assignmentContract.totalSupply() * testMsgValue) /\r\n            ethReserve;\r\n\r\n        // Throw error > liquidity cannot be 0\r\n        if (liquidity == 0) {\r\n            return (\r\n                \"Error (Exercise B - addLiquidity): The expected liquidity is 0. Add some funds to the exchange to ensure testing works!\",\r\n                false\r\n            );\r\n        }\r\n\r\n        // Set Allowance\r\n        IERC20(tokenAddress).approve(exchangeAddress, testTokenAmount);\r\n\r\n        // Token of validatorAddress before\r\n        uint256 tokenBalanceBefore = IERC20(tokenAddress).balanceOf(\r\n            validatorAddress\r\n        );\r\n\r\n        // Exchange token before\r\n        uint256 exchangeTokenBalanceBefore = assignmentContract.balanceOf(\r\n            validatorAddress\r\n        );\r\n\r\n        // addLiquidity function\r\n        try\r\n            assignmentContract.addLiquidity{value: testMsgValue}(\r\n                testTokenAmount\r\n            )\r\n        returns (uint256 gotLiquidity) {\r\n            if (gotLiquidity != liquidity) {\r\n                return (\r\n                    string.concat(\r\n                        \"Error (Exercise B - addLiquidity): The calculated liquidity is not correct! Expected: \",\r\n                        Strings.toString(liquidity),\r\n                        \" Actual: \",\r\n                        Strings.toString(gotLiquidity)\r\n                    ),\r\n                    false\r\n                );\r\n            }\r\n\r\n            // Token of validatorAddress after\r\n            uint256 tokenBalanceAfter = IERC20(tokenAddress).balanceOf(\r\n                validatorAddress\r\n            );\r\n\r\n            if (tokenBalanceBefore - testTokenAmount != tokenBalanceAfter) {\r\n                return (\r\n                    \"Error (Exercise B - addLiquidity): The token balance for the validator is not correct!\",\r\n                    false\r\n                );\r\n            }\r\n\r\n            // Exchange token after\r\n            uint256 exchangeTokenBalanceAfter = assignmentContract.balanceOf(\r\n                validatorAddress\r\n            );\r\n\r\n            if (\r\n                exchangeTokenBalanceBefore + liquidity !=\r\n                exchangeTokenBalanceAfter\r\n            ) {\r\n                return (\r\n                    \"Error (Exercise B - addLiquidity): The exchange token balance is not correct!\",\r\n                    false\r\n                );\r\n            }\r\n\r\n            // check if total supply increased\r\n            if (assignmentContract.totalSupply() == 0) {\r\n                return (\r\n                    \"Error (Exercise B - addLiquidity): The total supply is 0, should be larger than 0!\",\r\n                    false\r\n                );\r\n            }\r\n        } catch Error(string memory _reason) {\r\n            return (\r\n                buildErrorMessage(\r\n                    \"Error (Exercise B - addLiquidity)\",\r\n                    \"Error with the addLiquidity function!\",\r\n                    _reason\r\n                ),\r\n                false\r\n            );\r\n        }\r\n\r\n        return (\"Exercise B (addLiquidity): Passed!\", true);\r\n    }\r\n\r\n    /**\r\n     * TEST EXERCISE B\r\n     * - test removeLiquidity function\r\n     */\r\n    function testRemoveLiquidity(address tokenAddress)\r\n        public\r\n        payable\r\n        returns (string memory, bool)\r\n    {\r\n        // Prepare test\r\n        // Mint 100 wei tokens to the validator address\r\n        IAssignment4Coin(tokenAddress).mint(validatorAddress, 100 wei);\r\n        IAssignment4Coin(tokenAddress).approve(exchangeAddress, 100 wei);\r\n        assignmentContract.addLiquidity{value: 100 wei}(100 wei);\r\n\r\n        // Prepare end\r\n\r\n        uint256 testRemoveAmount = 1;\r\n\r\n        uint256 exchangeBalanceBefore = assignmentContract.balanceOf(\r\n            validatorAddress\r\n        );\r\n\r\n        uint256 supply = assignmentContract.totalSupply();\r\n\r\n        if (supply == 0) {\r\n            return (\r\n                \"Error (Exercise B - removeLiquidity): The total supply is 0, should be larger than 0!\",\r\n                false\r\n            );\r\n        }\r\n\r\n        uint256 ethAmount = (exchangeAddress.balance * testRemoveAmount) /\r\n            supply;\r\n\r\n        uint256 tokenAmount = (getReserve(tokenAddress) * testRemoveAmount) /\r\n            supply;\r\n\r\n        // Get eth balance of validator before\r\n        uint256 ethBalanceBefore = validatorAddress.balance;\r\n        uint256 tokenBalanceBefore = IERC20(tokenAddress).balanceOf(\r\n            validatorAddress\r\n        );\r\n\r\n        try assignmentContract.removeLiquidity(testRemoveAmount) {\r\n            // Get eth balance of validator after\r\n\r\n            uint256 ethBalanceAfter = validatorAddress.balance;\r\n            uint256 tokenBalanceAfter = IERC20(tokenAddress).balanceOf(\r\n                validatorAddress\r\n            );\r\n            uint256 exchangeBalanceAfter = assignmentContract.balanceOf(\r\n                validatorAddress\r\n            );\r\n\r\n            if (\r\n                exchangeBalanceBefore - testRemoveAmount != exchangeBalanceAfter\r\n            ) {\r\n                return (\r\n                    \"Error (Exercise B - removeLiquidity): Burning of the exchange token did not work properly!\",\r\n                    false\r\n                );\r\n            }\r\n\r\n            if (ethBalanceBefore + ethAmount != ethBalanceAfter) {\r\n                return (\r\n                    \"Error (Exercise B - removeLiquidity): The ETH balance is not correct!\",\r\n                    false\r\n                );\r\n            }\r\n\r\n            if (tokenBalanceBefore + tokenAmount != tokenBalanceAfter) {\r\n                return (\r\n                    \"Error (Exercise B - removeLiquidity): The token balance is not correct!\",\r\n                    false\r\n                );\r\n            }\r\n        } catch Error(string memory _reason) {\r\n            return (\r\n                string(\r\n                    abi.encodePacked(\r\n                        \"Error (Exercise B - removeLiquidity): Error with the removeLiquidity function!\",\r\n                        _reason\r\n                    )\r\n                ),\r\n                false\r\n            );\r\n        }\r\n\r\n        return (\"Exercise B (removeLiquidity): Passed!\", true);\r\n    }\r\n\r\n    /**\r\n     * TEST EXERCISE B\r\n     * - test getTokenAmount function\r\n     */\r\n    function testGetTokenAmount(address tokenAddress)\r\n        public\r\n        payable\r\n        returns (string memory, bool)\r\n    {\r\n        // ethSold\r\n        uint256 ethSold = 0.001 ether;\r\n\r\n        uint256 expectedTokenAmount = getAmount(\r\n            ethSold,\r\n            exchangeAddress.balance,\r\n            getReserve(tokenAddress)\r\n        );\r\n\r\n        try assignmentContract.getTokenAmount(ethSold) returns (\r\n            uint256 realTokenAmount\r\n        ) {\r\n            if (expectedTokenAmount != realTokenAmount) {\r\n                return (\r\n                    \"Error (Exercise B - getTokenAmount): The token amount is not correct!\",\r\n                    false\r\n                );\r\n            }\r\n        } catch Error(string memory _reason) {\r\n            return (\r\n                string(\r\n                    abi.encodePacked(\r\n                        \"Error (Exercise B - getTokenAmount): Error with the getTokenAmount function!\",\r\n                        _reason\r\n                    )\r\n                ),\r\n                false\r\n            );\r\n        }\r\n\r\n        return (\"Exercise B (getTokenAmount): Passed!\", true);\r\n    }\r\n\r\n    /**\r\n     * TEST EXERCISE B\r\n     * - test getEthAmount function\r\n     */\r\n    function testGetEthAmount(address tokenAddress)\r\n        public\r\n        payable\r\n        returns (string memory, bool)\r\n    {\r\n        // tokenSold\r\n        uint256 tokenSold = 1;\r\n\r\n        uint256 expectedEthAmount = getAmount(\r\n            tokenSold,\r\n            getReserve(tokenAddress),\r\n            exchangeAddress.balance\r\n        );\r\n\r\n        try assignmentContract.getEthAmount(tokenSold) returns (\r\n            uint256 realEthAmount\r\n        ) {\r\n            if (expectedEthAmount != realEthAmount) {\r\n                return (\r\n                    \"Error (Exercise B - getEthAmount): The ETH amount is not correct!\",\r\n                    false\r\n                );\r\n            }\r\n        } catch Error(string memory _reason) {\r\n            return (\r\n                string(\r\n                    abi.encodePacked(\r\n                        \"Error (Exercise B - getEthAmount): Error with the getEthAmount function!\",\r\n                        _reason\r\n                    )\r\n                ),\r\n                false\r\n            );\r\n        }\r\n\r\n        return (\"Exercise B (getEthAmount): Passed!\", true);\r\n    }\r\n\r\n    /**\r\n     * TEST EXERCISE B\r\n     * - test ethToToken function\r\n     */\r\n    function testEthToToken(address tokenAddress)\r\n        public\r\n        payable\r\n        returns (string memory, bool)\r\n    {\r\n        uint256 msgValue = 100 gwei;\r\n\r\n        // Mint 1000 wei tokens to the exchange address\r\n        IAssignment4Coin(tokenAddress).mint(exchangeAddress, 1000 wei);\r\n\r\n        uint256 expectedTokenBought = getAmount(\r\n            msgValue,\r\n            exchangeAddress.balance,\r\n            getReserve(tokenAddress)\r\n        );\r\n\r\n        if (expectedTokenBought == 0) {\r\n            return (\r\n                \"Error (Exercise B - ethToToken): The expected token bought is 0, should be larger than 0!\",\r\n                false\r\n            );\r\n        }\r\n\r\n        // Set minToken to expectedTokenBought - 10 wei\r\n        uint256 minToken = expectedTokenBought - 10 wei;\r\n\r\n        uint256 tokenBalanceBefore = IERC20(tokenAddress).balanceOf(\r\n            validatorAddress\r\n        );\r\n\r\n        try assignmentContract.ethToToken{value: msgValue}(minToken) {\r\n            uint256 tokenBalanceAfter = IERC20(tokenAddress).balanceOf(\r\n                validatorAddress\r\n            );\r\n\r\n            if (tokenBalanceBefore + expectedTokenBought != tokenBalanceAfter) {\r\n                return (\r\n                    \"Error (Exercise B - ethToToken): The token balance is not correct!\",\r\n                    false\r\n                );\r\n            }\r\n        } catch Error(string memory _reason) {\r\n            return (\r\n                string(\r\n                    abi.encodePacked(\r\n                        \"Error (Exercise B - ethToToken): Error with the ethToToken function! - \",\r\n                        _reason\r\n                    )\r\n                ),\r\n                false\r\n            );\r\n        }\r\n\r\n        return (\"Exercise B (ethToToken): Passed!\", true);\r\n    }\r\n\r\n    /**\r\n     * TEST EXERCISE B\r\n     * - test tokenToEth function\r\n     */\r\n    function testTokenToEth(address tokenAddress)\r\n        public\r\n        payable\r\n        returns (string memory, bool)\r\n    {\r\n        uint256 tokenSold = 100 gwei;\r\n\r\n        uint256 expectedEthBought = getAmount(\r\n            tokenSold,\r\n            (exchangeAddress.balance),\r\n            getReserve(tokenAddress)\r\n        );\r\n\r\n        if (expectedEthBought == 0) {\r\n            return (\r\n                \"Error (Exercise B - tokenToEth): The expected ETH bought is 0!\",\r\n                false\r\n            );\r\n        }\r\n\r\n        if (expectedEthBought >= exchangeAddress.balance) {\r\n            return (\r\n                \"Error (Exercise B - tokenToEth): The validator address does not have enough ETH!\",\r\n                false\r\n            );\r\n        }\r\n\r\n        if (tokenSold >= IERC20(tokenAddress).balanceOf(validatorAddress)) {\r\n            IAssignment4Coin(tokenAddress).mint(validatorAddress, tokenSold);\r\n        }\r\n\r\n        uint256 minEth = expectedEthBought - 1 wei;\r\n\r\n        uint256 ethBalanceBefore = validatorAddress.balance;\r\n        uint256 tokenBalanceBefore = IERC20(tokenAddress).balanceOf(\r\n            validatorAddress\r\n        );\r\n\r\n        IERC20(tokenAddress).approve(exchangeAddress, tokenSold);\r\n\r\n        try assignmentContract.tokenToEth(tokenSold, minEth) {\r\n            uint256 ethBalanceAfter = validatorAddress.balance;\r\n            uint256 tokenBalanceAfter = IERC20(tokenAddress).balanceOf(\r\n                validatorAddress\r\n            );\r\n\r\n            if (tokenBalanceBefore - tokenSold != tokenBalanceAfter) {\r\n                return (\r\n                    \"Error (Exercise B - tokenToEth): The token balance is not correct!\",\r\n                    false\r\n                );\r\n            }\r\n\r\n            if (ethBalanceBefore + expectedEthBought != ethBalanceAfter) {\r\n                return (\r\n                    \"Error (Exercise B - tokenToEth): The ETH balance is not correct!\",\r\n                    false\r\n                );\r\n            }\r\n        } catch Error(string memory _reason) {\r\n            return (\r\n                string(\r\n                    abi.encodePacked(\r\n                        \"Error (Exercise B - tokenToEth): Error with the tokenToEth function!\",\r\n                        _reason\r\n                    )\r\n                ),\r\n                false\r\n            );\r\n        }\r\n\r\n        return (\"Exercise B (tokenToEth): Passed!\", true);\r\n    }\r\n\r\n    /*=============================================\r\n    =                    HELPER                  =\r\n    =============================================*/\r\n\r\n    function getReserve(address tokenAddress) public view returns (uint256) {\r\n        return IERC20(tokenAddress).balanceOf(exchangeAddress);\r\n    }\r\n\r\n    function getAmount(\r\n        uint256 inputAmount,\r\n        uint256 inputReserve,\r\n        uint256 outputReserve\r\n    ) private pure returns (uint256) {\r\n        uint256 inputAmountWithFee = inputAmount * 99;\r\n        uint256 numerator = inputAmountWithFee * outputReserve;\r\n        uint256 denominator = (inputReserve * 100) + inputAmountWithFee;\r\n\r\n        // return (inputAmount * outputReserve) / (inputReserve + inputAmount);\r\n\r\n        require(denominator > 0, \"ERR_ZERO_DENOMINATOR\");\r\n        return numerator / denominator;\r\n    }\r\n\r\n    /*=====          End of HELPER        ======*/\r\n}\r\n",
  "sourcePath": "C:\\Users\\stefa\\www\\mtp-blockchain\\smart-contracts\\contracts\\assignment_4\\Validator4TaskB.sol",
  "compiler": {
    "name": "solc",
    "version": "0.8.19+commit.7dd6d404.Emscripten.clang"
  },
  "schemaVersion": "3.4.11",
  "updatedAt": "2023-02-24T09:41:35.217Z",
  "devdoc": {
    "kind": "dev",
    "methods": {},
    "version": 1
  },
  "userdoc": {
    "kind": "user",
    "methods": {
      "testAddLiquidity(address)": {
        "notice": "TEST EXERCISE B - test addLiquidity function"
      },
      "testEthToToken(address)": {
        "notice": "TEST EXERCISE B - test ethToToken function"
      },
      "testGetEthAmount(address)": {
        "notice": "TEST EXERCISE B - test getEthAmount function"
      },
      "testGetTokenAmount(address)": {
        "notice": "TEST EXERCISE B - test getTokenAmount function"
      },
      "testRemoveLiquidity(address)": {
        "notice": "TEST EXERCISE B - test removeLiquidity function"
      },
      "testTokenToEth(address)": {
        "notice": "TEST EXERCISE B - test tokenToEth function"
      }
    },
    "version": 1
  }
}