{
  "contractName": "Validator2TaskC",
  "abi": [
    {
      "inputs": [
        {
          "internalType": "address",
          "name": "_configContractAddress",
          "type": "address"
        }
      ],
      "stateMutability": "nonpayable",
      "type": "constructor"
    },
    {
      "stateMutability": "payable",
      "type": "fallback"
    },
    {
      "inputs": [
        {
          "internalType": "string",
          "name": "_prefix",
          "type": "string"
        },
        {
          "internalType": "string",
          "name": "_message",
          "type": "string"
        },
        {
          "internalType": "string",
          "name": "_errorMsg",
          "type": "string"
        }
      ],
      "name": "buildErrorMessage",
      "outputs": [
        {
          "internalType": "string",
          "name": "",
          "type": "string"
        }
      ],
      "stateMutability": "pure",
      "type": "function"
    },
    {
      "inputs": [
        {
          "internalType": "string",
          "name": "_prefix",
          "type": "string"
        },
        {
          "internalType": "string",
          "name": "_message",
          "type": "string"
        },
        {
          "internalType": "string",
          "name": "_expected",
          "type": "string"
        },
        {
          "internalType": "string",
          "name": "_actual",
          "type": "string"
        }
      ],
      "name": "buildErrorMessageExtended",
      "outputs": [
        {
          "internalType": "string",
          "name": "",
          "type": "string"
        }
      ],
      "stateMutability": "pure",
      "type": "function"
    },
    {
      "inputs": [
        {
          "internalType": "string",
          "name": "a",
          "type": "string"
        },
        {
          "internalType": "string",
          "name": "b",
          "type": "string"
        }
      ],
      "name": "compareStrings",
      "outputs": [
        {
          "internalType": "bool",
          "name": "",
          "type": "bool"
        }
      ],
      "stateMutability": "pure",
      "type": "function"
    },
    {
      "inputs": [],
      "name": "getConfigStorage",
      "outputs": [
        {
          "internalType": "contract ConfigStorage",
          "name": "",
          "type": "address"
        }
      ],
      "stateMutability": "view",
      "type": "function"
    },
    {
      "inputs": [
        {
          "internalType": "address",
          "name": "_configContractAddress",
          "type": "address"
        },
        {
          "internalType": "string",
          "name": "_contractName",
          "type": "string"
        }
      ],
      "name": "initAdmin",
      "outputs": [],
      "stateMutability": "nonpayable",
      "type": "function"
    },
    {
      "inputs": [
        {
          "internalType": "address payable",
          "name": "_to",
          "type": "address"
        },
        {
          "internalType": "uint256",
          "name": "_value",
          "type": "uint256"
        }
      ],
      "name": "withdrawFunds",
      "outputs": [],
      "stateMutability": "payable",
      "type": "function"
    },
    {
      "stateMutability": "payable",
      "type": "receive"
    },
    {
      "inputs": [
        {
          "internalType": "address",
          "name": "_contractAddress",
          "type": "address"
        },
        {
          "internalType": "address",
          "name": "_validator2HelperAddress",
          "type": "address"
        }
      ],
      "name": "initContract",
      "outputs": [],
      "stateMutability": "nonpayable",
      "type": "function"
    },
    {
      "inputs": [],
      "name": "prepareGame",
      "outputs": [
        {
          "internalType": "string",
          "name": "",
          "type": "string"
        },
        {
          "internalType": "bool",
          "name": "",
          "type": "bool"
        }
      ],
      "stateMutability": "payable",
      "type": "function"
    },
    {
      "inputs": [],
      "name": "testExerciseC",
      "outputs": [
        {
          "internalType": "string",
          "name": "",
          "type": "string"
        },
        {
          "internalType": "bool",
          "name": "",
          "type": "bool"
        }
      ],
      "stateMutability": "payable",
      "type": "function"
    },
    {
      "inputs": [],
      "name": "testStartTimeExceed",
      "outputs": [
        {
          "internalType": "string",
          "name": "",
          "type": "string"
        },
        {
          "internalType": "bool",
          "name": "",
          "type": "bool"
        }
      ],
      "stateMutability": "payable",
      "type": "function"
    },
    {
      "inputs": [],
      "name": "testPlayTimeExceed",
      "outputs": [
        {
          "internalType": "string",
          "name": "",
          "type": "string"
        },
        {
          "internalType": "bool",
          "name": "",
          "type": "bool"
        }
      ],
      "stateMutability": "payable",
      "type": "function"
    }
  ],
  "bytecode": "0x60806040526000600360006101000a81548173ffffffffffffffffffffffffffffffffffffffff021916908373ffffffffffffffffffffffffffffffffffffffff1602179055506000600460006101000a81548173ffffffffffffffffffffffffffffffffffffffff021916908373ffffffffffffffffffffffffffffffffffffffff1602179055503480156200009557600080fd5b5060405162004044380380620040448339818101604052810190620000bb91906200024a565b620000e6816040518060600160405280602d815260200162004017602d9139620000ed60201b60201c565b506200035b565b816000806101000a81548173ffffffffffffffffffffffffffffffffffffffff021916908373ffffffffffffffffffffffffffffffffffffffff16021790555060006200013f620001b760201b60201c565b90508073ffffffffffffffffffffffffffffffffffffffff16637fb99b9330846040518363ffffffff1660e01b81526004016200017e92919062000327565b600060405180830381600087803b1580156200019957600080fd5b505af1158015620001ae573d6000803e3d6000fd5b50505050505050565b60008060009054906101000a900473ffffffffffffffffffffffffffffffffffffffff16905090565b600080fd5b600073ffffffffffffffffffffffffffffffffffffffff82169050919050565b60006200021282620001e5565b9050919050565b620002248162000205565b81146200023057600080fd5b50565b600081519050620002448162000219565b92915050565b600060208284031215620002635762000262620001e0565b5b6000620002738482850162000233565b91505092915050565b620002878162000205565b82525050565b600081519050919050565b600082825260208201905092915050565b60005b83811015620002c9578082015181840152602081019050620002ac565b60008484015250505050565b6000601f19601f8301169050919050565b6000620002f3826200028d565b620002ff818562000298565b935062000311818560208601620002a9565b6200031c81620002d5565b840191505092915050565b60006040820190506200033e60008301856200027c565b8181036020830152620003528184620002e6565b90509392505050565b613cac806200036b6000396000f3fe6080604052600436106100a05760003560e01c80639a304b09116100645780639a304b0914610196578063ad0e883d146101b5578063bed34bba146101d4578063c107532914610211578063c4c50a701461022d578063fae45fbe1461024c576100a7565b806325ba0f51146100a95780632b518301146100d2578063516cbbe21461010f5780635827a0651461013a57806371349a4014610177576100a7565b366100a757005b005b3480156100b557600080fd5b506100d060048036038101906100cb9190612488565b610275565b005b3480156100de57600080fd5b506100f960048036038101906100f4919061260e565b61037d565b6040516101069190612734565b60405180910390f35b34801561011b57600080fd5b506101246103ac565b60405161013191906127b5565b60405180910390f35b34801561014657600080fd5b50610161600480360381019061015c91906127d0565b6103d5565b60405161016e9190612734565b60405180910390f35b61017f610407565b60405161018d9291906128c2565b60405180910390f35b61019e610ebe565b6040516101ac9291906128c2565b60405180910390f35b6101bd610f4e565b6040516101cb9291906128c2565b60405180910390f35b3480156101e057600080fd5b506101fb60048036038101906101f691906128f2565b6115f0565b604051610208919061296a565b60405180910390f35b61022b600480360381019061022691906129f9565b611649565b005b610235611998565b6040516102439291906128c2565b60405180910390f35b34801561025857600080fd5b50610273600480360381019061026e9190612a39565b612358565b005b81600160006101000a81548173ffffffffffffffffffffffffffffffffffffffff021916908373ffffffffffffffffffffffffffffffffffffffff16021790555080600260006101000a81548173ffffffffffffffffffffffffffffffffffffffff021916908373ffffffffffffffffffffffffffffffffffffffff16021790555030600360006101000a81548173ffffffffffffffffffffffffffffffffffffffff021916908373ffffffffffffffffffffffffffffffffffffffff16021790555080600460006101000a81548173ffffffffffffffffffffffffffffffffffffffff021916908373ffffffffffffffffffffffffffffffffffffffff1602179055505050565b606083838360405160200161039493929190612b69565b60405160208183030381529060405290509392505050565b60008060009054906101000a900473ffffffffffffffffffffffffffffffffffffffff16905090565b6060848484846040516020016103ee9493929190612c48565b6040516020818303038152906040529050949350505050565b60606000600160009054906101000a900473ffffffffffffffffffffffffffffffffffffffff1673ffffffffffffffffffffffffffffffffffffffff16638b680cc36040518163ffffffff1660e01b8152600401600060405180830381600087803b15801561047557600080fd5b505af1925050508015610486575060015b61052157610492612cb4565b806308c379a00361051557506104a6612cd6565b806104b15750610517565b6105096040518060400160405280601281526020017f4572726f7220284578657263697365204329000000000000000000000000000081525060405180606001604052806021815260200161377d602191398361037d565b60009250925050610eba565b505b3d6000803e3d6000fd5b6000600160009054906101000a900473ffffffffffffffffffffffffffffffffffffffff1673ffffffffffffffffffffffffffffffffffffffff1663944ccc376040518163ffffffff1660e01b8152600401602060405180830381865afa158015610590573d6000803e3d6000fd5b505050506040513d601f19601f820116820180604052508101906105b49190612d7b565b9050600160009054906101000a900473ffffffffffffffffffffffffffffffffffffffff1673ffffffffffffffffffffffffffffffffffffffff16631865c57d6040518163ffffffff1660e01b8152600401600060405180830381865afa92505050801561064557506040513d6000823e3d601f19601f820116820180604052508101906106429190612e18565b60015b6106fe57610651612cb4565b806308c379a0036106f25750610665612cd6565b8061067057506106f4565b6106e56040518060400160405280601281526020017f4572726f722028457865726369736520432900000000000000000000000000008152506040518060400160405280601f81526020017f4572726f72207769746820676574537461746528292066756e6374696f6e2e008152508361037d565b6000935093505050610eba565b505b3d6000803e3d6000fd5b61073d816040518060400160405280600781526020017f77616974696e67000000000000000000000000000000000000000000000000008152506115f0565b6107685760006040518060600160405280602c8152602001613adb602c913990935093505050610eba565b50600160009054906101000a900473ffffffffffffffffffffffffffffffffffffffff1673ffffffffffffffffffffffffffffffffffffffff1663be9a655566038d7ea4c680006040518263ffffffff1660e01b815260040160206040518083038185885af1935050505080156107fd57506040513d601f19601f820116820180604052508101906107fa9190612d7b565b60015b6108b657610809612cb4565b806308c379a0036108aa575061081d612cd6565b8061082857506108ac565b61089d6040518060400160405280601281526020017f4572726f722028457865726369736520432900000000000000000000000000008152506040518060400160405280601c81526020017f4572726f72207769746820737461727428292066756e6374696f6e2e000000008152508361037d565b6000935093505050610eba565b505b3d6000803e3d6000fd5b600181146108e55760006040518060600160405280602b8152602001613752602b913990935093505050610eba565b506001816108f39190612e90565b600160009054906101000a900473ffffffffffffffffffffffffffffffffffffffff1673ffffffffffffffffffffffffffffffffffffffff1663944ccc376040518163ffffffff1660e01b8152600401602060405180830381865afa158015610960573d6000803e3d6000fd5b505050506040513d601f19601f820116820180604052508101906109849190612d7b565b146109af576000604051806060016040528060368152602001613baf60369139909250925050610eba565b610a83600160009054906101000a900473ffffffffffffffffffffffffffffffffffffffff1673ffffffffffffffffffffffffffffffffffffffff16631865c57d6040518163ffffffff1660e01b8152600401600060405180830381865afa158015610a1f573d6000803e3d6000fd5b505050506040513d6000823e3d601f19601f82011682018060405250810190610a489190612e18565b6040518060400160405280600881526020017f7374617274696e670000000000000000000000000000000000000000000000008152506115f0565b610bd357610bc76040518060400160405280601281526020017f4572726f722028457865726369736520432900000000000000000000000000008152506040518060400160405280601b81526020017f546865207374617465206973206e6f7420277374617274696e672700000000008152506040518060400160405280600881526020017f7374617274696e67000000000000000000000000000000000000000000000000815250600160009054906101000a900473ffffffffffffffffffffffffffffffffffffffff1673ffffffffffffffffffffffffffffffffffffffff16631865c57d6040518163ffffffff1660e01b8152600401600060405180830381865afa158015610b99573d6000803e3d6000fd5b505050506040513d6000823e3d601f19601f82011682018060405250810190610bc29190612e18565b6103d5565b60009250925050610eba565b600260009054906101000a900473ffffffffffffffffffffffffffffffffffffffff1673ffffffffffffffffffffffffffffffffffffffff1663469ad8e366038d7ea4c68000600160009054906101000a900473ffffffffffffffffffffffffffffffffffffffff166040518363ffffffff1660e01b8152600401610c589190612ee5565b60206040518083038185885af193505050508015610c9457506040513d601f19601f82011682018060405250810190610c919190612d7b565b60015b610d4d57610ca0612cb4565b806308c379a003610d415750610cb4612cd6565b80610cbf5750610d43565b610d346040518060400160405280601281526020017f4572726f722028457865726369736520432900000000000000000000000000008152506040518060400160405280601c81526020017f4572726f72207769746820737461727428292066756e6374696f6e2e000000008152508361037d565b6000935093505050610eba565b505b3d6000803e3d6000fd5b60028114610d7c5760006040518060600160405280602a815260200161363e602a913990935093505050610eba565b50610e51600160009054906101000a900473ffffffffffffffffffffffffffffffffffffffff1673ffffffffffffffffffffffffffffffffffffffff16631865c57d6040518163ffffffff1660e01b8152600401600060405180830381865afa158015610ded573d6000803e3d6000fd5b505050506040513d6000823e3d601f19601f82011682018060405250810190610e169190612e18565b6040518060400160405280600781526020017f706c6179696e67000000000000000000000000000000000000000000000000008152506115f0565b610e7b5760006040518060600160405280602e81526020016137c6602e9139909250925050610eba565b60016040518060400160405280601981526020017f507265706172652047616d653a207375636365737366756c2e000000000000008152509092509250505b9091565b60606000806000610ecd611998565b9150915080610ee457816000935093505050610f4a565b600080610eef610f4e565b9150915080610f08578160009550955050505050610f4a565b60016040518060400160405280601d81526020017f457865726369736520433a20416c6c207465737473207061737365642e0000008152509095509550505050505b9091565b60606000600160009054906101000a900473ffffffffffffffffffffffffffffffffffffffff1673ffffffffffffffffffffffffffffffffffffffff16638b680cc36040518163ffffffff1660e01b8152600401600060405180830381600087803b158015610fbc57600080fd5b505af1925050508015610fcd575060015b61106857610fd9612cb4565b806308c379a00361105c5750610fed612cd6565b80610ff8575061105e565b6110506040518060400160405280601281526020017f4572726f7220284578657263697365204329000000000000000000000000000081525060405180606001604052806021815260200161377d602191398361037d565b600092509250506115ec565b505b3d6000803e3d6000fd5b600160009054906101000a900473ffffffffffffffffffffffffffffffffffffffff1673ffffffffffffffffffffffffffffffffffffffff16631b93194e60016040518263ffffffff1660e01b81526004016110c49190612f87565b600060405180830381600087803b1580156110de57600080fd5b505af11580156110f2573d6000803e3d6000fd5b50505050600160009054906101000a900473ffffffffffffffffffffffffffffffffffffffff1673ffffffffffffffffffffffffffffffffffffffff1663a8c3c8506103e86040518263ffffffff1660e01b81526004016111539190612ff0565b600060405180830381600087803b15801561116d57600080fd5b505af1158015611181573d6000803e3d6000fd5b50505050600080611190610407565b91509150806111a7578160009350935050506115ec565b6000600360009054906101000a900473ffffffffffffffffffffffffffffffffffffffff1673ffffffffffffffffffffffffffffffffffffffff16319050600160009054906101000a900473ffffffffffffffffffffffffffffffffffffffff1673ffffffffffffffffffffffffffffffffffffffff1663718e63026040518163ffffffff1660e01b815260040161123e90613057565b600060405180830381600087803b15801561125857600080fd5b505af1925050508015611269575060015b6112ea57611275612cb4565b806308c379a0036112de5750611289612cd6565b8061129457506112e0565b6112cf6040518060600160405280602581526020016136686025913960405180606001604052806028815260200161379e602891398361037d565b600095509550505050506115ec565b505b3d6000803e3d6000fd5b600160009054906101000a900473ffffffffffffffffffffffffffffffffffffffff1673ffffffffffffffffffffffffffffffffffffffff1663a8c3c8506103ed6040518263ffffffff1660e01b815260040161134791906130b2565b600060405180830381600087803b15801561136157600080fd5b505af1158015611375573d6000803e3d6000fd5b50505050600260009054906101000a900473ffffffffffffffffffffffffffffffffffffffff1673ffffffffffffffffffffffffffffffffffffffff1663f7e01dfc600160009054906101000a900473ffffffffffffffffffffffffffffffffffffffff166040518263ffffffff1660e01b81526004016113f69190613119565b600060405180830381600087803b15801561141057600080fd5b505af1925050508015611421575060015b1561144e5760006040518060e0016040528060bc81526020016137f460bc913990945094505050506115ec565b80600360009054906101000a900473ffffffffffffffffffffffffffffffffffffffff1673ffffffffffffffffffffffffffffffffffffffff163111156114b857600060405180610100016040528060c6815260200161395c60c6913990945094505050506115ec565b600160009054906101000a900473ffffffffffffffffffffffffffffffffffffffff1673ffffffffffffffffffffffffffffffffffffffff16638b680cc36040518163ffffffff1660e01b8152600401600060405180830381600087803b15801561152257600080fd5b505af1158015611536573d6000803e3d6000fd5b50505050600160009054906101000a900473ffffffffffffffffffffffffffffffffffffffff1673ffffffffffffffffffffffffffffffffffffffff16631b93194e600a6040518263ffffffff1660e01b81526004016115969190613182565b600060405180830381600087803b1580156115b057600080fd5b505af11580156115c4573d6000803e3d6000fd5b5050505060016040518060600160405280603081526020016137226030913990945094505050505b9091565b60008160405160200161160391906131b0565b604051602081830303815290604052805190602001208360405160200161162a91906131b0565b6040516020818303038152906040528051906020012014905092915050565b6116516103ac565b73ffffffffffffffffffffffffffffffffffffffff166324d7806c336040518263ffffffff1660e01b815260040161168991906131d6565b602060405180830381865afa1580156116a6573d6000803e3d6000fd5b505050506040513d601f19601f820116820180604052508101906116ca919061321d565b611709576040517f08c379a0000000000000000000000000000000000000000000000000000000008152600401611700906132bc565b60405180910390fd5b600073ffffffffffffffffffffffffffffffffffffffff168273ffffffffffffffffffffffffffffffffffffffff1603611778576040517f08c379a000000000000000000000000000000000000000000000000000000000815260040161176f90613328565b60405180910390fd5b3373ffffffffffffffffffffffffffffffffffffffff168273ffffffffffffffffffffffffffffffffffffffff1614806117dd57503273ffffffffffffffffffffffffffffffffffffffff168273ffffffffffffffffffffffffffffffffffffffff16145b8061186557506117eb6103ac565b73ffffffffffffffffffffffffffffffffffffffff166324d7806c836040518263ffffffff1660e01b81526004016118239190613369565b602060405180830381865afa158015611840573d6000803e3d6000fd5b505050506040513d601f19601f82011682018060405250810190611864919061321d565b5b6118a4576040517f08c379a000000000000000000000000000000000000000000000000000000000815260040161189b906133f6565b60405180910390fd5b478110156118e7576040517f08c379a00000000000000000000000000000000000000000000000000000000081526004016118de90613462565b60405180910390fd5b60008273ffffffffffffffffffffffffffffffffffffffff168260405161190d906134b3565b60006040518083038185875af1925050503d806000811461194a576040519150601f19603f3d011682016040523d82523d6000602084013e61194f565b606091505b5050905080611993576040517f08c379a000000000000000000000000000000000000000000000000000000000815260040161198a90613514565b60405180910390fd5b505050565b60606000600160009054906101000a900473ffffffffffffffffffffffffffffffffffffffff1673ffffffffffffffffffffffffffffffffffffffff16638b680cc36040518163ffffffff1660e01b8152600401600060405180830381600087803b158015611a0657600080fd5b505af1925050508015611a17575060015b611ab257611a23612cb4565b806308c379a003611aa65750611a37612cd6565b80611a425750611aa8565b611a9a6040518060400160405280601281526020017f4572726f7220284578657263697365204329000000000000000000000000000081525060405180606001604052806021815260200161377d602191398361037d565b60009250925050612354565b505b3d6000803e3d6000fd5b600160009054906101000a900473ffffffffffffffffffffffffffffffffffffffff1673ffffffffffffffffffffffffffffffffffffffff16631b93194e60016040518263ffffffff1660e01b8152600401611b0e9190613580565b600060405180830381600087803b158015611b2857600080fd5b505af1158015611b3c573d6000803e3d6000fd5b50505050600160009054906101000a900473ffffffffffffffffffffffffffffffffffffffff1673ffffffffffffffffffffffffffffffffffffffff1663a8c3c8506103e86040518263ffffffff1660e01b8152600401611b9d9190612ff0565b600060405180830381600087803b158015611bb757600080fd5b505af1158015611bcb573d6000803e3d6000fd5b505050506103e8600160009054906101000a900473ffffffffffffffffffffffffffffffffffffffff1673ffffffffffffffffffffffffffffffffffffffff166342cbb15c6040518163ffffffff1660e01b81526004016020604051808303816000875af1158015611c41573d6000803e3d6000fd5b505050506040513d601f19601f82011682018060405250810190611c659190612d7b565b14611c8f5760006040518060a00160405280606f815260200161368d606f91399091509150612354565b6000600160009054906101000a900473ffffffffffffffffffffffffffffffffffffffff1673ffffffffffffffffffffffffffffffffffffffff1663944ccc376040518163ffffffff1660e01b8152600401602060405180830381865afa158015611cfe573d6000803e3d6000fd5b505050506040513d601f19601f82011682018060405250810190611d229190612d7b565b9050600160009054906101000a900473ffffffffffffffffffffffffffffffffffffffff1673ffffffffffffffffffffffffffffffffffffffff1663be9a655566038d7ea4c680006040518263ffffffff1660e01b815260040160206040518083038185885af193505050508015611db857506040513d601f19601f82011682018060405250810190611db59190612d7b565b60015b611e5457611dc4612cb4565b806308c379a003611e485750611dd8612cd6565b80611de35750611e4a565b611e3b6040518060600160405280602681526020016136fc602691396040518060400160405280601c81526020017f4572726f72207769746820737461727428292066756e6374696f6e2e000000008152508361037d565b6000935093505050612354565b505b3d6000803e3d6000fd5b60018114611e835760006040518060e0016040528060ac81526020016138b060ac913990935093505050612354565b50600160009054906101000a900473ffffffffffffffffffffffffffffffffffffffff1673ffffffffffffffffffffffffffffffffffffffff16631b93194e60016040518263ffffffff1660e01b8152600401611ee09190613580565b600060405180830381600087803b158015611efa57600080fd5b505af1925050508015611f0b575060015b15611f365760006040518060c0016040528060928152602001613be560929139909250925050612354565b600160009054906101000a900473ffffffffffffffffffffffffffffffffffffffff1673ffffffffffffffffffffffffffffffffffffffff1663a8c3c8506103ed6040518263ffffffff1660e01b8152600401611f9391906130b2565b600060405180830381600087803b158015611fad57600080fd5b505af1158015611fc1573d6000803e3d6000fd5b50505050600260009054906101000a900473ffffffffffffffffffffffffffffffffffffffff1673ffffffffffffffffffffffffffffffffffffffff1663469ad8e366038d7ea4c68000600160009054906101000a900473ffffffffffffffffffffffffffffffffffffffff166040518363ffffffff1660e01b815260040161204a9190612ee5565b60206040518083038185885af19350505050801561208657506040513d601f19601f820116820180604052508101906120839190612d7b565b60015b61212257612092612cb4565b806308c379a00361211657506120a6612cd6565b806120b15750612118565b6121096040518060600160405280602681526020016136fc602691396040518060400160405280601c81526020017f4572726f72207769746820737461727428292066756e6374696f6e2e000000008152508361037d565b6000935093505050612354565b505b3d6000803e3d6000fd5b600181146121515760006040518060e0016040528060b98152602001613a2260b9913990935093505050612354565b506000600160009054906101000a900473ffffffffffffffffffffffffffffffffffffffff1673ffffffffffffffffffffffffffffffffffffffff1663944ccc376040518163ffffffff1660e01b8152600401602060405180830381865afa1580156121c1573d6000803e3d6000fd5b505050506040513d601f19601f820116820180604052508101906121e59190612d7b565b90506002826121f49190612e90565b81146122215760006040518060e0016040528060a88152602001613b0760a8913990935093505050612354565b600160009054906101000a900473ffffffffffffffffffffffffffffffffffffffff1673ffffffffffffffffffffffffffffffffffffffff16638b680cc36040518163ffffffff1660e01b8152600401600060405180830381600087803b15801561228b57600080fd5b505af115801561229f573d6000803e3d6000fd5b50505050600160009054906101000a900473ffffffffffffffffffffffffffffffffffffffff1673ffffffffffffffffffffffffffffffffffffffff16631b93194e600a6040518263ffffffff1660e01b81526004016122ff91906135ae565b600060405180830381600087803b15801561231957600080fd5b505af115801561232d573d6000803e3d6000fd5b50505050600160405180606001604052806031815260200161360d60319139909350935050505b9091565b816000806101000a81548173ffffffffffffffffffffffffffffffffffffffff021916908373ffffffffffffffffffffffffffffffffffffffff16021790555060006123a26103ac565b90508073ffffffffffffffffffffffffffffffffffffffff16637fb99b9330846040518363ffffffff1660e01b81526004016123df9291906135dc565b600060405180830381600087803b1580156123f957600080fd5b505af115801561240d573d6000803e3d6000fd5b50505050505050565b6000604051905090565b600080fd5b600080fd5b600073ffffffffffffffffffffffffffffffffffffffff82169050919050565b60006124558261242a565b9050919050565b6124658161244a565b811461247057600080fd5b50565b6000813590506124828161245c565b92915050565b6000806040838503121561249f5761249e612420565b5b60006124ad85828601612473565b92505060206124be85828601612473565b9150509250929050565b600080fd5b600080fd5b6000601f19601f8301169050919050565b7f4e487b7100000000000000000000000000000000000000000000000000000000600052604160045260246000fd5b61251b826124d2565b810181811067ffffffffffffffff8211171561253a576125396124e3565b5b80604052505050565b600061254d612416565b90506125598282612512565b919050565b600067ffffffffffffffff821115612579576125786124e3565b5b612582826124d2565b9050602081019050919050565b82818337600083830152505050565b60006125b16125ac8461255e565b612543565b9050828152602081018484840111156125cd576125cc6124cd565b5b6125d884828561258f565b509392505050565b600082601f8301126125f5576125f46124c8565b5b813561260584826020860161259e565b91505092915050565b60008060006060848603121561262757612626612420565b5b600084013567ffffffffffffffff81111561264557612644612425565b5b612651868287016125e0565b935050602084013567ffffffffffffffff81111561267257612671612425565b5b61267e868287016125e0565b925050604084013567ffffffffffffffff81111561269f5761269e612425565b5b6126ab868287016125e0565b9150509250925092565b600081519050919050565b600082825260208201905092915050565b60005b838110156126ef5780820151818401526020810190506126d4565b60008484015250505050565b6000612706826126b5565b61271081856126c0565b93506127208185602086016126d1565b612729816124d2565b840191505092915050565b6000602082019050818103600083015261274e81846126fb565b905092915050565b6000819050919050565b600061277b6127766127718461242a565b612756565b61242a565b9050919050565b600061278d82612760565b9050919050565b600061279f82612782565b9050919050565b6127af81612794565b82525050565b60006020820190506127ca60008301846127a6565b92915050565b600080600080608085870312156127ea576127e9612420565b5b600085013567ffffffffffffffff81111561280857612807612425565b5b612814878288016125e0565b945050602085013567ffffffffffffffff81111561283557612834612425565b5b612841878288016125e0565b935050604085013567ffffffffffffffff81111561286257612861612425565b5b61286e878288016125e0565b925050606085013567ffffffffffffffff81111561288f5761288e612425565b5b61289b878288016125e0565b91505092959194509250565b60008115159050919050565b6128bc816128a7565b82525050565b600060408201905081810360008301526128dc81856126fb565b90506128eb60208301846128b3565b9392505050565b6000806040838503121561290957612908612420565b5b600083013567ffffffffffffffff81111561292757612926612425565b5b612933858286016125e0565b925050602083013567ffffffffffffffff81111561295457612953612425565b5b612960858286016125e0565b9150509250929050565b600060208201905061297f60008301846128b3565b92915050565b60006129908261242a565b9050919050565b6129a081612985565b81146129ab57600080fd5b50565b6000813590506129bd81612997565b92915050565b6000819050919050565b6129d6816129c3565b81146129e157600080fd5b50565b6000813590506129f3816129cd565b92915050565b60008060408385031215612a1057612a0f612420565b5b6000612a1e858286016129ae565b9250506020612a2f858286016129e4565b9150509250929050565b60008060408385031215612a5057612a4f612420565b5b6000612a5e85828601612473565b925050602083013567ffffffffffffffff811115612a7f57612a7e612425565b5b612a8b858286016125e0565b9150509250929050565b600081905092915050565b6000612aab826126b5565b612ab58185612a95565b9350612ac58185602086016126d1565b80840191505092915050565b7f3a20000000000000000000000000000000000000000000000000000000000000600082015250565b6000612b07600283612a95565b9150612b1282612ad1565b600282019050919050565b7f203e200000000000000000000000000000000000000000000000000000000000600082015250565b6000612b53600383612a95565b9150612b5e82612b1d565b600382019050919050565b6000612b758286612aa0565b9150612b8082612afa565b9150612b8c8285612aa0565b9150612b9782612b46565b9150612ba38284612aa0565b9150819050949350505050565b7f2045787065637465643a20000000000000000000000000000000000000000000600082015250565b6000612be6600b83612a95565b9150612bf182612bb0565b600b82019050919050565b7f2041637475616c3a200000000000000000000000000000000000000000000000600082015250565b6000612c32600983612a95565b9150612c3d82612bfc565b600982019050919050565b6000612c548287612aa0565b9150612c5f82612afa565b9150612c6b8286612aa0565b9150612c7682612bd9565b9150612c828285612aa0565b9150612c8d82612c25565b9150612c998284612aa0565b915081905095945050505050565b60008160e01c9050919050565b600060033d1115612cd35760046000803e612cd0600051612ca7565b90505b90565b600060443d10612d6357612ce8612416565b60043d036004823e80513d602482011167ffffffffffffffff82111715612d10575050612d63565b808201805167ffffffffffffffff811115612d2e5750505050612d63565b80602083010160043d038501811115612d4b575050505050612d63565b612d5a82602001850186612512565b82955050505050505b90565b600081519050612d75816129cd565b92915050565b600060208284031215612d9157612d90612420565b5b6000612d9f84828501612d66565b91505092915050565b6000612dbb612db68461255e565b612543565b905082815260208101848484011115612dd757612dd66124cd565b5b612de28482856126d1565b509392505050565b600082601f830112612dff57612dfe6124c8565b5b8151612e0f848260208601612da8565b91505092915050565b600060208284031215612e2e57612e2d612420565b5b600082015167ffffffffffffffff811115612e4c57612e4b612425565b5b612e5884828501612dea565b91505092915050565b7f4e487b7100000000000000000000000000000000000000000000000000000000600052601160045260246000fd5b6000612e9b826129c3565b9150612ea6836129c3565b9250828201905080821115612ebe57612ebd612e61565b5b92915050565b6000612ecf82612782565b9050919050565b612edf81612ec4565b82525050565b6000602082019050612efa6000830184612ed6565b92915050565b7f706c617900000000000000000000000000000000000000000000000000000000600082015250565b6000612f366004836126c0565b9150612f4182612f00565b602082019050919050565b6000819050919050565b6000612f71612f6c612f6784612f4c565b612756565b6129c3565b9050919050565b612f8181612f56565b82525050565b60006040820190508181036000830152612fa081612f29565b9050612faf6020830184612f78565b92915050565b6000819050919050565b6000612fda612fd5612fd084612fb5565b612756565b6129c3565b9050919050565b612fea81612fbf565b82525050565b60006020820190506130056000830184612fe1565b92915050565b7f726f636b00000000000000000000000000000000000000000000000000000000600082015250565b60006130416004836126c0565b915061304c8261300b565b602082019050919050565b6000602082019050818103600083015261307081613034565b9050919050565b6000819050919050565b600061309c61309761309284613077565b612756565b6129c3565b9050919050565b6130ac81613081565b82525050565b60006020820190506130c760008301846130a3565b92915050565b7f7061706572000000000000000000000000000000000000000000000000000000600082015250565b60006131036005836126c0565b915061310e826130cd565b602082019050919050565b600060408201905061312e6000830184612ed6565b818103602083015261313f816130f6565b905092915050565b6000819050919050565b600061316c61316761316284613147565b612756565b6129c3565b9050919050565b61317c81613151565b82525050565b6000604082019050818103600083015261319b81612f29565b90506131aa6020830184613173565b92915050565b60006131bc8284612aa0565b915081905092915050565b6131d08161244a565b82525050565b60006020820190506131eb60008301846131c7565b92915050565b6131fa816128a7565b811461320557600080fd5b50565b600081519050613217816131f1565b92915050565b60006020828403121561323357613232612420565b5b600061324184828501613208565b91505092915050565b7f4f6e6c7920636f6e74726163742061646d696e2063616e20776974686472617760008201527f2066756e64730000000000000000000000000000000000000000000000000000602082015250565b60006132a66026836126c0565b91506132b18261324a565b604082019050919050565b600060208201905081810360008301526132d581613299565b9050919050565b7f496e76616c696420616464726573730000000000000000000000000000000000600082015250565b6000613312600f836126c0565b915061331d826132dc565b602082019050919050565b6000602082019050818103600083015261334181613305565b9050919050565b600061335382612782565b9050919050565b61336381613348565b82525050565b600060208201905061337e600083018461335a565b92915050565b7f46756e64732063616e206f6e6c792062652077697468647261776e20746f206160008201527f646d696e2c206d73672e73656e646572206f722074782e6f726967696e000000602082015250565b60006133e0603d836126c0565b91506133eb82613384565b604082019050919050565b6000602082019050818103600083015261340f816133d3565b9050919050565b7f496e73756666696369656e742066756e64730000000000000000000000000000600082015250565b600061344c6012836126c0565b915061345782613416565b602082019050919050565b6000602082019050818103600083015261347b8161343f565b9050919050565b600081905092915050565b50565b600061349d600083613482565b91506134a88261348d565b600082019050919050565b60006134be82613490565b9150819050919050565b7f5472616e73666572206661696c65642e00000000000000000000000000000000600082015250565b60006134fe6010836126c0565b9150613509826134c8565b602082019050919050565b6000602082019050818103600083015261352d816134f1565b9050919050565b7f7374617274000000000000000000000000000000000000000000000000000000600082015250565b600061356a6005836126c0565b915061357582613534565b602082019050919050565b600060408201905081810360008301526135998161355d565b90506135a86020830184612f78565b92915050565b600060408201905081810360008301526135c78161355d565b90506135d66020830184613173565b92915050565b60006040820190506135f160008301856131c7565b818103602083015261360381846126fb565b9050939250505056fe45786572636973652043202873746172742074696d6520657863656564293a20416c6c207465737473207061737365642e4572726f72202845786572636973652043293a2054686520706c617965722069642069732077726f6e674572726f72202845786572636973652043202d20706c61792074696d6520657863656564294572726f72202845786572636973652043202d2073746172742074696d6520657863656564293a2054686520626c6f636b206e756d626572206973206e6f7420313030302e2044696420796f75206f76657277726974652074686520696e686572697465642066756e6374696f6e3f4572726f72202845786572636973652043202d2073746172742074696d652065786365656429457865726369736520432028706c61792074696d6520657863656564293a20416c6c207465737473207061737365642e4572726f72202845786572636973652043293a2054686520706c617965722069642069732077726f6e67204572726f72207769746820666f726365526573657428292066756e6374696f6e2e4572726f72207769746820706c617928292066756e6374696f6e20666f7220706c6179657220312e4572726f72202845786572636973652043293a20546865207374617465206973206e6f742027706c6179696e67274572726f72202845786572636973652043202d20706c61792074696d6520657863656564293a2054686520706c61792066756e6374696f6e20646964206e6f74206661696c207768656e20747279696e6720746f20706c6179207468652067616d65206166746572207468652074696d65206578636565642e2045787065637465642074686174206572726f72206973207468726f776e2c20626563617573652067616d652073686f756c64206e6f742062652073746172746564214572726f72202845786572636973652043202d2073746172742074696d6520657863656564293a2054686520706c617965722069642069732077726f6e67202865787065637465642031202d3e20666f72206a6f696e206f6620706c617965722031292e20506c65617365206d616b6520737572652074686174207468652073746172742066756e6374696f6e2072657475726e732074686520636f727265637420706c617965722069642e4572726f72202845786572636973652043202d20706c61792074696d6520657863656564293a2054686520706c6179657220312062616c616e6365206973206e6f7420736d616c6c6572207468616e206265666f72652e20506c65617365206d616b65207375726520746861742074686520706c617965722077686f207061696420746865206665652067657473206120726566756e64207768656e207468652067616d652069732072657365742062656361757365206f662074696d65206578636565642e4572726f72202845786572636973652043202d2073746172742074696d6520657863656564293a2054686520706c617965722069642069732077726f6e672e2041667465722074696d6520657863656564206f662067616d6520696e20277374617274696e6727207068617365206578706563742074686174207468652067616d6520697320726573657420616e642074686520706c617965722077686f2077616e747320746f206a6f696e20697320706c6179657220312e4572726f72202845786572636973652043293a204578706563746564202777616974696e67272073746174654572726f72202845786572636973652043202d2073746172742074696d6520657863656564293a205468652067616d6520636f756e746572206973206e6f74206c6172676572207468616e206265666f72652e20506c65617365206d616b6520737572652074686174207468652067616d6520636f756e74657220697320696e637265617365642062792031207768656e2061206e65772067616d6520697320737461727465642e4572726f72202845786572636973652043293a205468652067616d6520636f756e746572206973206e6f7420696e63726561736564204572726f72202845786572636973652043202d2073746172742074696d6520657863656564293a20546865207365744d617854696d652066756e6374696f6e20646964206e6f74206661696c207768656e20747279696e6720746f206368616e676520746865206d61782074696d65206166746572207468652067616d6520697320616c726561647920737461727465642ea26469706673582212205c027d2957f583cb09daef900f9c4f746ff3a0b890819620f616da731dff6e6a64736f6c63430008130033535332332041737369676e6d656e7420322056616c696461746f7220436f6e7472616374202d205461736b2043",
  "immutableReferences": {},
  "source": "// SPDX-License-Identifier: MIT\r\npragma solidity ^0.8.17;\r\n\r\n// Import the IAssignment2.sol\r\nimport \"./interface/IAssignment2.sol\";\r\n\r\n// Import Helper\r\nimport \"../Helper.sol\";\r\n\r\n// Import the assignment validator extend contract\r\nimport \"./Validator2Helper.sol\";\r\n\r\n// import \"BaseConfig.sol\";\r\nimport \"../BaseConfig.sol\";\r\n\r\ncontract Validator2TaskC is Helper, BaseConfig {\r\n    // assignment contract interface\r\n    IAssignment2 assignmentContract;\r\n    Validator2Helper validatorHelper;\r\n\r\n    // Player addresses\r\n    address player1 = address(0);\r\n    address player2 = address(0);\r\n\r\n    constructor(address _configContractAddress) {\r\n        initAdmin(\r\n            _configContractAddress,\r\n            \"SS23 Assignment 2 Validator Contract - Task C\"\r\n        );\r\n    }\r\n\r\n    // Function to receive Ether. msg.data must be empty\r\n    receive() external payable {}\r\n\r\n    // Fallback function is called when msg.data is not empty\r\n    fallback() external payable {}\r\n\r\n    // Init contract\r\n    function initContract(\r\n        address _contractAddress,\r\n        address _validator2HelperAddress\r\n    ) public {\r\n        // Call the contract interface which needs to be tested and store it in the variable assignmentContract\r\n        assignmentContract = IAssignment2(_contractAddress);\r\n        validatorHelper = Validator2Helper(payable(_validator2HelperAddress));\r\n\r\n        // Get player addresses\r\n        player1 = address(this);\r\n        player2 = address(_validator2HelperAddress);\r\n    }\r\n\r\n    /*=============================================\r\n    =                   HELPER                  =\r\n    =============================================*/\r\n\r\n    // This function sets the game in the state that it accepts choices from account 1 or 2\r\n    function prepareGame() public payable returns (string memory, bool) {\r\n        // Reset game\r\n        try assignmentContract.forceReset() {} catch Error(\r\n            string memory errMsg\r\n        ) {\r\n            return (\r\n                buildErrorMessage(\r\n                    \"Error (Exercise C)\",\r\n                    \"Error with forceReset() function.\",\r\n                    errMsg\r\n                ),\r\n                false\r\n            );\r\n        }\r\n\r\n        // Get game counter\r\n        uint256 gameCounter = assignmentContract.getGameCounter();\r\n\r\n        // Test getState function\r\n        try assignmentContract.getState() returns (string memory state) {\r\n            // Check if the state is not \"waiting\"\r\n            if (!compareStrings(state, \"waiting\"))\r\n                return (\"Error (Exercise C): Expected 'waiting' state\", false);\r\n        } catch Error(string memory errMsg) {\r\n            return (\r\n                buildErrorMessage(\r\n                    \"Error (Exercise C)\",\r\n                    \"Error with getState() function.\",\r\n                    errMsg\r\n                ),\r\n                false\r\n            );\r\n        }\r\n\r\n        // Test Start\r\n        try assignmentContract.start{value: 0.001 ether}() returns (\r\n            uint256 playerId\r\n        ) {\r\n            // Check if the game id is not 0\r\n            if (playerId != 1)\r\n                return (\"Error (Exercise C): The player id is wrong \", false);\r\n        } catch Error(string memory errMsg) {\r\n            return (\r\n                buildErrorMessage(\r\n                    \"Error (Exercise C)\",\r\n                    \"Error with start() function.\",\r\n                    errMsg\r\n                ),\r\n                false\r\n            );\r\n        }\r\n\r\n        // Check if that the game counter increase by 1\r\n        if (assignmentContract.getGameCounter() != gameCounter + 1)\r\n            return (\r\n                \"Error (Exercise C): The game counter is not increased \",\r\n                false\r\n            );\r\n\r\n        // Test getState function = starting\r\n        if (!compareStrings(assignmentContract.getState(), \"starting\"))\r\n            return (\r\n                buildErrorMessageExtended(\r\n                    \"Error (Exercise C)\",\r\n                    \"The state is not 'starting'\",\r\n                    \"starting\",\r\n                    assignmentContract.getState()\r\n                ),\r\n                false\r\n            );\r\n\r\n        // Test join second player\r\n        try\r\n            validatorHelper.callStart{value: 0.001 ether}(assignmentContract)\r\n        returns (uint256 playerId) {\r\n            // Check if the game id is not 0\r\n            if (playerId != 2)\r\n                return (\"Error (Exercise C): The player id is wrong\", false);\r\n        } catch Error(string memory errMsg) {\r\n            return (\r\n                buildErrorMessage(\r\n                    \"Error (Exercise C)\",\r\n                    \"Error with start() function.\",\r\n                    errMsg\r\n                ),\r\n                false\r\n            );\r\n        }\r\n\r\n        // Test getState function = playing\r\n        if (!compareStrings(assignmentContract.getState(), \"playing\"))\r\n            return (\"Error (Exercise C): The state is not 'playing'\", false);\r\n\r\n        return (\"Prepare Game: successful.\", true);\r\n    }\r\n\r\n    /*=============================================\r\n    =                   TASK C                    =\r\n    =============================================*/\r\n\r\n    function testExerciseC() public payable returns (string memory, bool) {\r\n        // Test edge cases\r\n\r\n        // TEST 1: test player 2 join time exceed --> Expected: reset of environment\r\n        (string memory message1, bool success1) = testStartTimeExceed();\r\n        if (!success1) return (message1, false);\r\n\r\n        // TEST 2: test player 2 choice time exceed --> Expected: reset of environment\r\n        (string memory message2, bool success2) = testPlayTimeExceed();\r\n        if (!success2) return (message2, false);\r\n\r\n        return (\"Exercise C: All tests passed.\", true);\r\n    }\r\n\r\n    // TEST: that player 2 join time exceed --> Expected: reset of environment\r\n    function testStartTimeExceed()\r\n        public\r\n        payable\r\n        returns (string memory, bool)\r\n    {\r\n        // Reset game\r\n        try assignmentContract.forceReset() {} catch Error(\r\n            string memory errMsg\r\n        ) {\r\n            return (\r\n                buildErrorMessage(\r\n                    \"Error (Exercise C)\",\r\n                    \"Error with forceReset() function.\",\r\n                    errMsg\r\n                ),\r\n                false\r\n            );\r\n        }\r\n\r\n        // Set the max time to 1 block\r\n        assignmentContract.setMaxTime(\"start\", 1);\r\n\r\n        // Set the \"fake\" block number to 1000\r\n        assignmentContract.setBlockNumber(1000);\r\n\r\n        // make sure that block number is 1000\r\n        if (assignmentContract.getBlockNumber() != 1000)\r\n            return (\r\n                \"Error (Exercise C - start time exceed): The block number is not 1000. Did you overwrite the inherited function?\",\r\n                false\r\n            );\r\n\r\n        // Get current game counter\r\n        uint256 gameCounterBefore = assignmentContract.getGameCounter();\r\n\r\n        // Test Start\r\n        try assignmentContract.start{value: 0.001 ether}() returns (\r\n            uint256 playerId\r\n        ) {\r\n            // Check if the game id is not 0\r\n            if (playerId != 1)\r\n                return (\r\n                    \"Error (Exercise C - start time exceed): The player id is wrong (expected 1 -> for join of player 1). Please make sure that the start function returns the correct player id.\",\r\n                    false\r\n                );\r\n        } catch Error(string memory errMsg) {\r\n            return (\r\n                buildErrorMessage(\r\n                    \"Error (Exercise C - start time exceed)\",\r\n                    \"Error with start() function.\",\r\n                    errMsg\r\n                ),\r\n                false\r\n            );\r\n        }\r\n\r\n        // Try to change the max time after game is already started\r\n        try assignmentContract.setMaxTime(\"start\", 1) {\r\n            return (\r\n                \"Error (Exercise C - start time exceed): The setMaxTime function did not fail when trying to change the max time after the game is already started.\",\r\n                false\r\n            );\r\n        } catch {}\r\n\r\n        // Set the \"fake\" block number to 1005 (5 blocks after the start) --> Enforce the time exceed\r\n        // --> Expected: reset of the environment\r\n\r\n        assignmentContract.setBlockNumber(1005);\r\n\r\n        // Test join second player --> exepect that the game is reset and returns gameid = 1 for being the player 1\r\n        try\r\n            validatorHelper.callStart{value: 0.001 ether}(assignmentContract)\r\n        returns (uint256 playerId) {\r\n            // Check if the game id is not 0\r\n            if (playerId != 1)\r\n                return (\r\n                    \"Error (Exercise C - start time exceed): The player id is wrong. After time exceed of game in 'starting' phase expect that the game is reset and the player who wants to join is player 1.\",\r\n                    false\r\n                );\r\n        } catch Error(string memory errMsg) {\r\n            return (\r\n                buildErrorMessage(\r\n                    \"Error (Exercise C - start time exceed)\",\r\n                    \"Error with start() function.\",\r\n                    errMsg\r\n                ),\r\n                false\r\n            );\r\n        }\r\n\r\n        // Get current game counter\r\n        uint256 gameCounterAfter = assignmentContract.getGameCounter();\r\n\r\n        // Game conter should be 2 larger than before\r\n        if (gameCounterAfter != gameCounterBefore + 2)\r\n            return (\r\n                \"Error (Exercise C - start time exceed): The game counter is not larger than before. Please make sure that the game counter is increased by 1 when a new game is started.\",\r\n                false\r\n            );\r\n\r\n        // Set the max time back to default -> 10 blocks\r\n        assignmentContract.forceReset();\r\n        assignmentContract.setMaxTime(\"start\", 10);\r\n\r\n        return (\"Exercise C (start time exceed): All tests passed.\", true);\r\n    }\r\n\r\n    // TEST: that player 2 choice time exceed --> Expected: reset of environment\r\n    function testPlayTimeExceed() public payable returns (string memory, bool) {\r\n        // Reset game\r\n        try assignmentContract.forceReset() {} catch Error(\r\n            string memory errMsg\r\n        ) {\r\n            return (\r\n                buildErrorMessage(\r\n                    \"Error (Exercise C)\",\r\n                    \"Error with forceReset() function.\",\r\n                    errMsg\r\n                ),\r\n                false\r\n            );\r\n        }\r\n\r\n        // Set the max time to 1 block\r\n        assignmentContract.setMaxTime(\"play\", 1);\r\n\r\n        // Set the \"fake\" block number to 1000\r\n        assignmentContract.setBlockNumber(1000);\r\n\r\n        // Prepare the game\r\n        (string memory message, bool success) = prepareGame();\r\n\r\n        // If the game is not successfully prepared return the error message\r\n        if (!success) return (message, false);\r\n\r\n        // Get player 1 balance\r\n        uint256 player1BalanceBefore = player1.balance;\r\n\r\n        // GAME IS NOW COMPLETE TEST PLAY FUNCTION\r\n\r\n        // Play the game with player 1\r\n        try assignmentContract.play(\"rock\") {} catch Error(\r\n            string memory errMsg\r\n        ) {\r\n            return (\r\n                buildErrorMessage(\r\n                    \"Error (Exercise C - play time exceed)\",\r\n                    \"Error with play() function for player 1.\",\r\n                    errMsg\r\n                ),\r\n                false\r\n            );\r\n        }\r\n\r\n        // Change \"fake\" block number to 1005 (5 blocks after the start) --> Enforce the time exceed\r\n        // --> Expected: reset of the environment\r\n        assignmentContract.setBlockNumber(1005);\r\n\r\n        // Play the game with player 2 -> expect that the game is reset and fails\r\n        // -> because game is not started, therefore cannot use \"play\" function\r\n\r\n        try validatorHelper.callPlay(assignmentContract, \"paper\") {\r\n            return (\r\n                \"Error (Exercise C - play time exceed): The play function did not fail when trying to play the game after the time exceed. Expected that error is thrown, because game should not be started!\",\r\n                false\r\n            );\r\n        } catch {}\r\n\r\n        // check that player 1 balance is <= then before (because of the refund + gas fee)\r\n        if (player1.balance > player1BalanceBefore)\r\n            return (\r\n                \"Error (Exercise C - play time exceed): The player 1 balance is not smaller than before. Please make sure that the player who paid the fee gets a refund when the game is reset because of time exceed.\",\r\n                false\r\n            );\r\n\r\n        // Reset the max time to default\r\n        assignmentContract.forceReset();\r\n        assignmentContract.setMaxTime(\"play\", 10);\r\n\r\n        return (\"Exercise C (play time exceed): All tests passed.\", true);\r\n    }\r\n}\r\n",
  "sourcePath": "C:\\Users\\stefa\\www\\mtp-blockchain\\smart-contracts\\contracts\\assignment_2\\Validator2TaskC.sol",
  "compiler": {
    "name": "solc",
    "version": "0.8.19+commit.7dd6d404.Emscripten.clang"
  },
  "schemaVersion": "3.4.11",
  "updatedAt": "2023-02-24T09:41:35.088Z",
  "devdoc": {
    "kind": "dev",
    "methods": {},
    "version": 1
  },
  "userdoc": {
    "kind": "user",
    "methods": {},
    "version": 1
  }
}