{
  "contractName": "Validator1",
  "abi": [
    {
      "inputs": [
        {
          "internalType": "address",
          "name": "_configContractAddress",
          "type": "address"
        }
      ],
      "stateMutability": "nonpayable",
      "type": "constructor"
    },
    {
      "inputs": [],
      "name": "_testHistoryCounter",
      "outputs": [
        {
          "internalType": "uint256",
          "name": "",
          "type": "uint256"
        }
      ],
      "stateMutability": "view",
      "type": "function"
    },
    {
      "inputs": [
        {
          "internalType": "address",
          "name": "_helperAddress",
          "type": "address"
        }
      ],
      "name": "addHelperContracts",
      "outputs": [],
      "stateMutability": "nonpayable",
      "type": "function"
    },
    {
      "inputs": [
        {
          "internalType": "string",
          "name": "_name",
          "type": "string"
        },
        {
          "internalType": "bool",
          "name": "_result",
          "type": "bool"
        },
        {
          "internalType": "uint256",
          "name": "_points",
          "type": "uint256"
        }
      ],
      "name": "appendTestResult",
      "outputs": [],
      "stateMutability": "nonpayable",
      "type": "function"
    },
    {
      "inputs": [
        {
          "internalType": "string",
          "name": "_prefix",
          "type": "string"
        },
        {
          "internalType": "string",
          "name": "_message",
          "type": "string"
        },
        {
          "internalType": "string",
          "name": "_errorMsg",
          "type": "string"
        }
      ],
      "name": "buildErrorMessage",
      "outputs": [
        {
          "internalType": "string",
          "name": "",
          "type": "string"
        }
      ],
      "stateMutability": "pure",
      "type": "function"
    },
    {
      "inputs": [
        {
          "internalType": "string",
          "name": "_prefix",
          "type": "string"
        },
        {
          "internalType": "string",
          "name": "_message",
          "type": "string"
        },
        {
          "internalType": "string",
          "name": "_expected",
          "type": "string"
        },
        {
          "internalType": "string",
          "name": "_actual",
          "type": "string"
        }
      ],
      "name": "buildErrorMessageExtended",
      "outputs": [
        {
          "internalType": "string",
          "name": "",
          "type": "string"
        }
      ],
      "stateMutability": "pure",
      "type": "function"
    },
    {
      "inputs": [
        {
          "internalType": "address",
          "name": "_contractAddress",
          "type": "address"
        }
      ],
      "name": "checkAssignmentOwner",
      "outputs": [
        {
          "internalType": "bool",
          "name": "",
          "type": "bool"
        }
      ],
      "stateMutability": "view",
      "type": "function"
    },
    {
      "inputs": [],
      "name": "clearAssignmentInfos",
      "outputs": [],
      "stateMutability": "nonpayable",
      "type": "function"
    },
    {
      "inputs": [
        {
          "internalType": "string",
          "name": "a",
          "type": "string"
        },
        {
          "internalType": "string",
          "name": "b",
          "type": "string"
        }
      ],
      "name": "compareStrings",
      "outputs": [
        {
          "internalType": "bool",
          "name": "",
          "type": "bool"
        }
      ],
      "stateMutability": "pure",
      "type": "function"
    },
    {
      "inputs": [
        {
          "internalType": "address",
          "name": "_contractAddress",
          "type": "address"
        }
      ],
      "name": "createTestHistory",
      "outputs": [
        {
          "internalType": "uint256",
          "name": "",
          "type": "uint256"
        }
      ],
      "stateMutability": "nonpayable",
      "type": "function"
    },
    {
      "inputs": [
        {
          "internalType": "address",
          "name": "_address",
          "type": "address"
        }
      ],
      "name": "getAssignmentCreationBlockNumber",
      "outputs": [
        {
          "internalType": "uint256",
          "name": "",
          "type": "uint256"
        }
      ],
      "stateMutability": "view",
      "type": "function"
    },
    {
      "inputs": [],
      "name": "getAssignmentInfos",
      "outputs": [
        {
          "internalType": "uint256",
          "name": "",
          "type": "uint256"
        },
        {
          "internalType": "uint256",
          "name": "",
          "type": "uint256"
        },
        {
          "internalType": "bool",
          "name": "",
          "type": "bool"
        }
      ],
      "stateMutability": "view",
      "type": "function"
    },
    {
      "inputs": [
        {
          "internalType": "address",
          "name": "_address",
          "type": "address"
        }
      ],
      "name": "getAssignmentOwner",
      "outputs": [
        {
          "internalType": "address",
          "name": "",
          "type": "address"
        }
      ],
      "stateMutability": "view",
      "type": "function"
    },
    {
      "inputs": [],
      "name": "getConfigStorage",
      "outputs": [
        {
          "internalType": "contract ConfigStorage",
          "name": "",
          "type": "address"
        }
      ],
      "stateMutability": "view",
      "type": "function"
    },
    {
      "inputs": [],
      "name": "getHistoryCounter",
      "outputs": [
        {
          "internalType": "uint256",
          "name": "",
          "type": "uint256"
        }
      ],
      "stateMutability": "view",
      "type": "function"
    },
    {
      "inputs": [],
      "name": "getRequiredEther",
      "outputs": [
        {
          "internalType": "uint256",
          "name": "",
          "type": "uint256"
        }
      ],
      "stateMutability": "view",
      "type": "function"
    },
    {
      "inputs": [
        {
          "internalType": "address",
          "name": "_address",
          "type": "address"
        }
      ],
      "name": "getSubmittedAssignment",
      "outputs": [
        {
          "components": [
            {
              "internalType": "uint256",
              "name": "testIndex",
              "type": "uint256"
            },
            {
              "internalType": "address",
              "name": "studentAddress",
              "type": "address"
            },
            {
              "internalType": "address",
              "name": "contractAddress",
              "type": "address"
            },
            {
              "internalType": "uint256",
              "name": "knowledgeCoins",
              "type": "uint256"
            },
            {
              "internalType": "uint256",
              "name": "blockNo",
              "type": "uint256"
            },
            {
              "internalType": "bool",
              "name": "submitted",
              "type": "bool"
            }
          ],
          "internalType": "struct BaseValidator.AssignmentSubmitted",
          "name": "",
          "type": "tuple"
        }
      ],
      "stateMutability": "view",
      "type": "function"
    },
    {
      "inputs": [
        {
          "internalType": "address",
          "name": "_address",
          "type": "address"
        }
      ],
      "name": "getTestHistoryIndexes",
      "outputs": [
        {
          "internalType": "uint256[]",
          "name": "",
          "type": "uint256[]"
        }
      ],
      "stateMutability": "view",
      "type": "function"
    },
    {
      "inputs": [
        {
          "internalType": "uint256",
          "name": "_historyIndex",
          "type": "uint256"
        },
        {
          "internalType": "uint256",
          "name": "_testIndex",
          "type": "uint256"
        }
      ],
      "name": "getTestResultByIndex",
      "outputs": [
        {
          "components": [
            {
              "internalType": "string",
              "name": "testName",
              "type": "string"
            },
            {
              "internalType": "bool",
              "name": "testPassed",
              "type": "bool"
            },
            {
              "internalType": "uint256",
              "name": "points",
              "type": "uint256"
            }
          ],
          "internalType": "struct BaseValidator.Test",
          "name": "result",
          "type": "tuple"
        }
      ],
      "stateMutability": "view",
      "type": "function"
    },
    {
      "inputs": [
        {
          "internalType": "uint256",
          "name": "_historyIndex",
          "type": "uint256"
        }
      ],
      "name": "getTestResults",
      "outputs": [
        {
          "components": [
            {
              "internalType": "string",
              "name": "testName",
              "type": "string"
            },
            {
              "internalType": "bool",
              "name": "testPassed",
              "type": "bool"
            },
            {
              "internalType": "uint256",
              "name": "points",
              "type": "uint256"
            }
          ],
          "internalType": "struct BaseValidator.Test[]",
          "name": "result",
          "type": "tuple[]"
        }
      ],
      "stateMutability": "view",
      "type": "function"
    },
    {
      "inputs": [
        {
          "internalType": "address",
          "name": "_address",
          "type": "address"
        }
      ],
      "name": "hasAssignmentSubmitted",
      "outputs": [
        {
          "internalType": "bool",
          "name": "",
          "type": "bool"
        }
      ],
      "stateMutability": "view",
      "type": "function"
    },
    {
      "inputs": [
        {
          "internalType": "address",
          "name": "_addr",
          "type": "address"
        },
        {
          "internalType": "string",
          "name": "functionName",
          "type": "string"
        },
        {
          "internalType": "uint256",
          "name": "ethValue",
          "type": "uint256"
        }
      ],
      "name": "hasFunction",
      "outputs": [
        {
          "internalType": "bool",
          "name": "",
          "type": "bool"
        }
      ],
      "stateMutability": "payable",
      "type": "function"
    },
    {
      "inputs": [
        {
          "internalType": "address",
          "name": "_configContractAddress",
          "type": "address"
        },
        {
          "internalType": "string",
          "name": "_contractName",
          "type": "string"
        }
      ],
      "name": "initAdmin",
      "outputs": [],
      "stateMutability": "nonpayable",
      "type": "function"
    },
    {
      "inputs": [],
      "name": "isAssignmentLinked",
      "outputs": [
        {
          "internalType": "bool",
          "name": "",
          "type": "bool"
        }
      ],
      "stateMutability": "view",
      "type": "function"
    },
    {
      "inputs": [
        {
          "internalType": "address",
          "name": "_helperAddress",
          "type": "address"
        }
      ],
      "name": "isValidator",
      "outputs": [
        {
          "internalType": "bool",
          "name": "",
          "type": "bool"
        }
      ],
      "stateMutability": "view",
      "type": "function"
    },
    {
      "inputs": [
        {
          "internalType": "address",
          "name": "",
          "type": "address"
        },
        {
          "internalType": "address",
          "name": "",
          "type": "address"
        },
        {
          "internalType": "uint256",
          "name": "",
          "type": "uint256"
        },
        {
          "internalType": "bytes",
          "name": "",
          "type": "bytes"
        }
      ],
      "name": "onERC721Received",
      "outputs": [
        {
          "internalType": "bytes4",
          "name": "",
          "type": "bytes4"
        }
      ],
      "stateMutability": "nonpayable",
      "type": "function"
    },
    {
      "inputs": [
        {
          "internalType": "address",
          "name": "_address",
          "type": "address"
        }
      ],
      "name": "removeSubmittedAssignment",
      "outputs": [],
      "stateMutability": "nonpayable",
      "type": "function"
    },
    {
      "inputs": [],
      "name": "setAssignmentCreationBlockNumber",
      "outputs": [],
      "stateMutability": "nonpayable",
      "type": "function"
    },
    {
      "inputs": [
        {
          "internalType": "uint256",
          "name": "semesterId",
          "type": "uint256"
        },
        {
          "internalType": "uint256",
          "name": "assignmentId",
          "type": "uint256"
        }
      ],
      "name": "setAssignmentInfos",
      "outputs": [],
      "stateMutability": "nonpayable",
      "type": "function"
    },
    {
      "inputs": [],
      "name": "setAssignmentOwner",
      "outputs": [],
      "stateMutability": "nonpayable",
      "type": "function"
    },
    {
      "inputs": [
        {
          "internalType": "address",
          "name": "_contractAddress",
          "type": "address"
        }
      ],
      "name": "submitAssignment",
      "outputs": [
        {
          "internalType": "uint256",
          "name": "",
          "type": "uint256"
        }
      ],
      "stateMutability": "payable",
      "type": "function"
    },
    {
      "inputs": [
        {
          "internalType": "address",
          "name": "_contractAddress",
          "type": "address"
        }
      ],
      "name": "validateAssignment",
      "outputs": [
        {
          "internalType": "uint256",
          "name": "",
          "type": "uint256"
        }
      ],
      "stateMutability": "payable",
      "type": "function"
    },
    {
      "inputs": [
        {
          "internalType": "address payable",
          "name": "_to",
          "type": "address"
        },
        {
          "internalType": "uint256",
          "name": "_value",
          "type": "uint256"
        }
      ],
      "name": "withdrawFunds",
      "outputs": [],
      "stateMutability": "payable",
      "type": "function"
    },
    {
      "inputs": [
        {
          "internalType": "address",
          "name": "_contractAddress",
          "type": "address"
        }
      ],
      "name": "test",
      "outputs": [
        {
          "internalType": "uint256",
          "name": "",
          "type": "uint256"
        }
      ],
      "stateMutability": "payable",
      "type": "function"
    }
  ],
  "bytecode": "0x608060405260006006553480156200001657600080fd5b5060405162012a9438038062012a9483398181016040528101906200003c9190620007b9565b806040518060600160405280602b815260200162012a69602b91396702c68af0bb1400006200007283836200051060201b60201c565b6200008330620005da60201b60201c565b80600681905550600060078190555050505080604051620000a490620006ed565b620000b09190620007fc565b604051809103906000f080158015620000cd573d6000803e3d6000fd5b50600c60006101000a81548173ffffffffffffffffffffffffffffffffffffffff021916908373ffffffffffffffffffffffffffffffffffffffff160217905550806040516200011d90620006fb565b620001299190620007fc565b604051809103906000f08015801562000146573d6000803e3d6000fd5b50600d60006101000a81548173ffffffffffffffffffffffffffffffffffffffff021916908373ffffffffffffffffffffffffffffffffffffffff16021790555080604051620001969062000709565b620001a29190620007fc565b604051809103906000f080158015620001bf573d6000803e3d6000fd5b50600e60006101000a81548173ffffffffffffffffffffffffffffffffffffffff021916908373ffffffffffffffffffffffffffffffffffffffff160217905550806040516200020f9062000717565b6200021b9190620007fc565b604051809103906000f08015801562000238573d6000803e3d6000fd5b50600f60006101000a81548173ffffffffffffffffffffffffffffffffffffffff021916908373ffffffffffffffffffffffffffffffffffffffff16021790555080604051620002889062000725565b620002949190620007fc565b604051809103906000f080158015620002b1573d6000803e3d6000fd5b50601060006101000a81548173ffffffffffffffffffffffffffffffffffffffff021916908373ffffffffffffffffffffffffffffffffffffffff16021790555080604051620003019062000733565b6200030d9190620007fc565b604051809103906000f0801580156200032a573d6000803e3d6000fd5b50601160006101000a81548173ffffffffffffffffffffffffffffffffffffffff021916908373ffffffffffffffffffffffffffffffffffffffff1602179055506200039e600c60009054906101000a900473ffffffffffffffffffffffffffffffffffffffff16620005da60201b60201c565b620003d1600d60009054906101000a900473ffffffffffffffffffffffffffffffffffffffff16620005da60201b60201c565b62000404600e60009054906101000a900473ffffffffffffffffffffffffffffffffffffffff16620005da60201b60201c565b62000437600f60009054906101000a900473ffffffffffffffffffffffffffffffffffffffff16620005da60201b60201c565b6200046a601060009054906101000a900473ffffffffffffffffffffffffffffffffffffffff16620005da60201b60201c565b6200049d601160009054906101000a900473ffffffffffffffffffffffffffffffffffffffff16620005da60201b60201c565b604051620004ab9062000741565b604051809103906000f080158015620004c8573d6000803e3d6000fd5b50601260006101000a81548173ffffffffffffffffffffffffffffffffffffffff021916908373ffffffffffffffffffffffffffffffffffffffff1602179055505062000956565b816000806101000a81548173ffffffffffffffffffffffffffffffffffffffff021916908373ffffffffffffffffffffffffffffffffffffffff160217905550600062000562620006c460201b60201c565b90508073ffffffffffffffffffffffffffffffffffffffff16637fb99b9330846040518363ffffffff1660e01b8152600401620005a1929190620008b3565b600060405180830381600087803b158015620005bc57600080fd5b505af1158015620005d1573d6000803e3d6000fd5b50505050505050565b620005ea620006c460201b60201c565b73ffffffffffffffffffffffffffffffffffffffff16635577210a336040518263ffffffff1660e01b8152600401620006249190620007fc565b602060405180830381865afa15801562000642573d6000803e3d6000fd5b505050506040513d601f19601f8201168201806040525081019062000668919062000924565b506001600a60008373ffffffffffffffffffffffffffffffffffffffff1673ffffffffffffffffffffffffffffffffffffffff16815260200190815260200160002060006101000a81548160ff02191690831515021790555050565b60008060009054906101000a900473ffffffffffffffffffffffffffffffffffffffff16905090565b611f2c806200643c83390190565b612760806200836883390190565b611a44806200aac883390190565b612671806200c50c83390190565b611d74806200eb7d83390190565b611e7d80620108f183390190565b6102fb806201276e83390190565b600080fd5b600073ffffffffffffffffffffffffffffffffffffffff82169050919050565b6000620007818262000754565b9050919050565b620007938162000774565b81146200079f57600080fd5b50565b600081519050620007b38162000788565b92915050565b600060208284031215620007d257620007d16200074f565b5b6000620007e284828501620007a2565b91505092915050565b620007f68162000774565b82525050565b6000602082019050620008136000830184620007eb565b92915050565b600081519050919050565b600082825260208201905092915050565b60005b838110156200085557808201518184015260208101905062000838565b60008484015250505050565b6000601f19601f8301169050919050565b60006200087f8262000819565b6200088b818562000824565b93506200089d81856020860162000835565b620008a88162000861565b840191505092915050565b6000604082019050620008ca6000830185620007eb565b8181036020830152620008de818462000872565b90509392505050565b60008115159050919050565b620008fe81620008e7565b81146200090a57600080fd5b50565b6000815190506200091e81620008f3565b92915050565b6000602082840312156200093d576200093c6200074f565b5b60006200094d848285016200090d565b91505092915050565b615ad680620009666000396000f3fe6080604052600436106101ee5760003560e01c80636d6fa6d91161010d578063bed34bba116100a0578063d7dc29811161006f578063d7dc298114610751578063f274f59614610781578063facd743b146107aa578063fae45fbe146107e7578063fbd5bf4c14610810576101ee565b8063bed34bba146106a4578063c1075329146106e1578063c717a434146106fd578063c9b9da951461073a576101ee565b8063ab6f490f116100dc578063ab6f490f146105dc578063afbd6ae514610607578063b8e58a2a14610644578063bb29998e14610674576101ee565b80636d6fa6d914610522578063990fdd491461055f578063a2574c301461059c578063a69e79b7146105c5576101ee565b80633c21bf25116101855780635827a065116101545780635827a0651461044f5780635da15abd1461048c5780635f1d4ea9146104bc578063621eb8a7146104e5576101ee565b80633c21bf25146103935780633e45b826146103aa5780634eed8c5d146103e7578063516cbbe214610424576101ee565b806313a12b44116101c157806313a12b44146102b1578063150b7a02146102ee5780632350e03a1461032b5780632b51830114610356576101ee565b8063067df42b146101f357806306854c5f1461021c57806308e753ed146102475780630fa56ee414610284575b600080fd5b3480156101ff57600080fd5b5061021a60048036038101906102159190613860565b61083b565b005b34801561022857600080fd5b50610231610a7a565b60405161023e91906138bb565b60405180910390f35b34801561025357600080fd5b5061026e60048036038101906102699190613934565b610a91565b60405161027b91906138bb565b60405180910390f35b34801561029057600080fd5b50610299610aea565b6040516102a893929190613970565b60405180910390f35b3480156102bd57600080fd5b506102d860048036038101906102d39190613934565b610b10565b6040516102e591906139a7565b60405180910390f35b3480156102fa57600080fd5b5061031560048036038101906103109190613b08565b610b59565b6040516103229190613bc6565b60405180910390f35b34801561033757600080fd5b50610340610b6d565b60405161034d91906139a7565b60405180910390f35b34801561036257600080fd5b5061037d60048036038101906103789190613c82565b610b77565b60405161038a9190613da8565b60405180910390f35b34801561039f57600080fd5b506103a8610ba6565b005b3480156103b657600080fd5b506103d160048036038101906103cc9190613dca565b610cba565b6040516103de9190613f71565b60405180910390f35b3480156103f357600080fd5b5061040e60048036038101906104099190613860565b610e7e565b60405161041b9190613fe3565b60405180910390f35b34801561043057600080fd5b50610439610f77565b6040516104469190614064565b60405180910390f35b34801561045b57600080fd5b506104766004803603810190610471919061407f565b610fa0565b6040516104839190613da8565b60405180910390f35b6104a660048036038101906104a19190613934565b610fd2565b6040516104b391906139a7565b60405180910390f35b3480156104c857600080fd5b506104e360048036038101906104de9190613934565b6115e2565b005b3480156104f157600080fd5b5061050c60048036038101906105079190613934565b6116bf565b6040516105199190614205565b60405180910390f35b34801561052e57600080fd5b5061054960048036038101906105449190613934565b6117d7565b60405161055691906138bb565b60405180910390f35b34801561056b57600080fd5b5061058660048036038101906105819190613934565b611827565b60405161059391906139a7565b60405180910390f35b3480156105a857600080fd5b506105c360048036038101906105be9190614253565b611994565b005b3480156105d157600080fd5b506105da611b14565b005b3480156105e857600080fd5b506105f1611bc3565b6040516105fe91906139a7565b60405180910390f35b34801561061357600080fd5b5061062e60048036038101906106299190613934565b611bcd565b60405161063b91906142d1565b60405180910390f35b61065e60048036038101906106599190613934565b611c36565b60405161066b91906139a7565b60405180910390f35b61068e60048036038101906106899190613934565b611df0565b60405161069b91906139a7565b60405180910390f35b3480156106b057600080fd5b506106cb60048036038101906106c691906142ec565b612ac0565b6040516106d891906138bb565b60405180910390f35b6106fb60048036038101906106f691906143a2565b612b19565b005b34801561070957600080fd5b50610724600480360381019061071f9190613934565b612e68565b604051610731919061446c565b60405180910390f35b34801561074657600080fd5b5061074f612fa6565b005b61076b60048036038101906107669190614487565b613034565b60405161077891906138bb565b60405180910390f35b34801561078d57600080fd5b506107a860048036038101906107a39190613934565b6130e5565b005b3480156107b657600080fd5b506107d160048036038101906107cc9190613934565b6133b7565b6040516107de91906138bb565b60405180910390f35b3480156107f357600080fd5b5061080e600480360381019061080991906144f6565b61340d565b005b34801561081c57600080fd5b506108256134cb565b60405161083291906139a7565b60405180910390f35b610843610f77565b73ffffffffffffffffffffffffffffffffffffffff16635577210a336040518263ffffffff1660e01b815260040161087b91906142d1565b602060405180830381865afa158015610898573d6000803e3d6000fd5b505050506040513d601f19601f820116820180604052508101906108bc9190614567565b50600115156108c9610f77565b73ffffffffffffffffffffffffffffffffffffffff16633a06068d846040518263ffffffff1660e01b815260040161090191906139a7565b602060405180830381865afa15801561091e573d6000803e3d6000fd5b505050506040513d601f19601f820116820180604052508101906109429190614567565b151514610984576040517f08c379a000000000000000000000000000000000000000000000000000000000815260040161097b906145e0565b60405180910390fd5b60011515610990610f77565b73ffffffffffffffffffffffffffffffffffffffff16637572fa8984846040518363ffffffff1660e01b81526004016109ca929190614600565b602060405180830381865afa1580156109e7573d6000803e3d6000fd5b505050506040513d601f19601f82011682018060405250810190610a0b9190614567565b151514610a4d576040517f08c379a0000000000000000000000000000000000000000000000000000000008152600401610a449061469b565b60405180910390fd5b81600381905550806004819055506001600560006101000a81548160ff0219169083151502179055505050565b6000600560009054906101000a900460ff16905090565b6000600960008373ffffffffffffffffffffffffffffffffffffffff1673ffffffffffffffffffffffffffffffffffffffff16815260200190815260200160002060050160009054906101000a900460ff169050919050565b6000806000600354600454600560009054906101000a900460ff16925092509250909192565b6000600160008373ffffffffffffffffffffffffffffffffffffffff1673ffffffffffffffffffffffffffffffffffffffff168152602001908152602001600020549050919050565b600063150b7a0260e01b9050949350505050565b6000600654905090565b6060838383604051602001610b8e9392919061478f565b60405160208183030381529060405290509392505050565b600073ffffffffffffffffffffffffffffffffffffffff16600260003373ffffffffffffffffffffffffffffffffffffffff1673ffffffffffffffffffffffffffffffffffffffff16815260200190815260200160002060009054906101000a900473ffffffffffffffffffffffffffffffffffffffff1673ffffffffffffffffffffffffffffffffffffffff1603610cb85732600260003373ffffffffffffffffffffffffffffffffffffffff1673ffffffffffffffffffffffffffffffffffffffff16815260200190815260200160002060006101000a81548173ffffffffffffffffffffffffffffffffffffffff021916908373ffffffffffffffffffffffffffffffffffffffff1602179055505b565b60606000600860008481526020019081526020016000206002015467ffffffffffffffff811115610cee57610ced6139dd565b5b604051908082528060200260200182016040528015610d2757816020015b610d1461378f565b815260200190600190039081610d0c5790505b5090506000600190505b60086000858152602001908152602001600020600201548111610e7457600860008581526020019081526020016000206003016000828152602001908152602001600020604051806060016040529081600082018054610d9090614805565b80601f0160208091040260200160405190810160405280929190818152602001828054610dbc90614805565b8015610e095780601f10610dde57610100808354040283529160200191610e09565b820191906000526020600020905b815481529060010190602001808311610dec57829003601f168201915b505050505081526020016001820160009054906101000a900460ff1615151515815260200160028201548152505082600183610e459190614865565b81518110610e5657610e55614899565b5b60200260200101819052508080610e6c906148c8565b915050610d31565b8192505050919050565b610e8661378f565b600860008481526020019081526020016000206003016000838152602001908152602001600020604051806060016040529081600082018054610ec890614805565b80601f0160208091040260200160405190810160405280929190818152602001828054610ef490614805565b8015610f415780601f10610f1657610100808354040283529160200191610f41565b820191906000526020600020905b815481529060010190602001808311610f2457829003601f168201915b505050505081526020016001820160009054906101000a900460ff16151515158152602001600282015481525050905092915050565b60008060009054906101000a900473ffffffffffffffffffffffffffffffffffffffff16905090565b606084848484604051602001610fb994939291906149a8565b6040516020818303038152906040529050949350505050565b600060011515610fe0610a7a565b151514611022576040517f08c379a000000000000000000000000000000000000000000000000000000000815260040161101990614a9f565b60405180910390fd5b60011515600960003373ffffffffffffffffffffffffffffffffffffffff1673ffffffffffffffffffffffffffffffffffffffff16815260200190815260200160002060050160009054906101000a900460ff161515036110b8576040517f08c379a00000000000000000000000000000000000000000000000000000000081526004016110af90614b57565b60405180910390fd5b3373ffffffffffffffffffffffffffffffffffffffff168273ffffffffffffffffffffffffffffffffffffffff1663893d20e86040518163ffffffff1660e01b81526004016020604051808303816000875af115801561111c573d6000803e3d6000fd5b505050506040513d601f19601f820116820180604052508101906111409190614b8c565b73ffffffffffffffffffffffffffffffffffffffff1614611196576040517f08c379a000000000000000000000000000000000000000000000000000000000815260040161118d90614c51565b60405180910390fd5b600115156111a3836134d1565b1515146111e5576040517f08c379a00000000000000000000000000000000000000000000000000000000081526004016111dc90614d09565b60405180910390fd5b600115156111f1613635565b151514611233576040517f08c379a000000000000000000000000000000000000000000000000000000000815260040161122a90614dc1565b60405180910390fd5b600061123e83611c36565b9050600080600190505b600860008481526020019081526020016000206002015481116112f4576001151560086000858152602001908152602001600020600301600083815260200190815260200160002060010160009054906101000a900460ff161515036112e15760086000848152602001908152602001600020600301600082815260200190815260200160002060020154826112de9190614de1565b91505b80806112ec906148c8565b915050611248565b60006112fe610f77565b73ffffffffffffffffffffffffffffffffffffffff1663f67917796040518163ffffffff1660e01b8152600401602060405180830381865afa158015611348573d6000803e3d6000fd5b505050506040513d601f19601f8201168201806040525081019061136c9190614b8c565b905060008173ffffffffffffffffffffffffffffffffffffffff16634cdca3bd856040518263ffffffff1660e01b81526004016113a991906139a7565b602060405180830381865afa1580156113c6573d6000803e3d6000fd5b505050506040513d601f19601f820116820180604052508101906113ea9190614e2a565b90508173ffffffffffffffffffffffffffffffffffffffff166340c10f1933836040518363ffffffff1660e01b8152600401611427929190614e57565b6020604051808303816000875af1158015611446573d6000803e3d6000fd5b505050506040513d601f19601f8201168201806040525081019061146a9190614567565b506040518060c001604052808681526020013373ffffffffffffffffffffffffffffffffffffffff1681526020018873ffffffffffffffffffffffffffffffffffffffff16815260200185815260200143815260200160011515815250600960003373ffffffffffffffffffffffffffffffffffffffff1673ffffffffffffffffffffffffffffffffffffffff1681526020019081526020016000206000820151816000015560208201518160010160006101000a81548173ffffffffffffffffffffffffffffffffffffffff021916908373ffffffffffffffffffffffffffffffffffffffff16021790555060408201518160020160006101000a81548173ffffffffffffffffffffffffffffffffffffffff021916908373ffffffffffffffffffffffffffffffffffffffff160217905550606082015181600301556080820151816004015560a08201518160050160006101000a81548160ff0219169083151502179055509050508495505050505050919050565b6115ea610f77565b73ffffffffffffffffffffffffffffffffffffffff16635577210a336040518263ffffffff1660e01b815260040161162291906142d1565b602060405180830381865afa15801561163f573d6000803e3d6000fd5b505050506040513d601f19601f820116820180604052508101906116639190614567565b506001600a60008373ffffffffffffffffffffffffffffffffffffffff1673ffffffffffffffffffffffffffffffffffffffff16815260200190815260200160002060006101000a81548160ff02191690831515021790555050565b6060600060075467ffffffffffffffff8111156116df576116de6139dd565b5b60405190808252806020026020018201604052801561170d5781602001602082028036833780820191505090505b509050600080600091505b60075482116117cc578473ffffffffffffffffffffffffffffffffffffffff166008600084815260200190815260200160002060000160009054906101000a900473ffffffffffffffffffffffffffffffffffffffff1673ffffffffffffffffffffffffffffffffffffffff16036117b9578183828151811061179e5761179d614899565b5b60200260200101818152505080806117b5906148c8565b9150505b81806117c4906148c8565b925050611718565b829350505050919050565b60003373ffffffffffffffffffffffffffffffffffffffff166117f983611bcd565b73ffffffffffffffffffffffffffffffffffffffff160361181d5760019050611822565b600090505b919050565b6000611831610f77565b73ffffffffffffffffffffffffffffffffffffffff16635577210a306040518263ffffffff1660e01b815260040161186991906142d1565b602060405180830381865afa158015611886573d6000803e3d6000fd5b505050506040513d601f19601f820116820180604052508101906118aa9190614567565b50600060016007546118bc9190614de1565b9050336008600083815260200190815260200160002060000160006101000a81548173ffffffffffffffffffffffffffffffffffffffff021916908373ffffffffffffffffffffffffffffffffffffffff160217905550826008600083815260200190815260200160002060010160006101000a81548173ffffffffffffffffffffffffffffffffffffffff021916908373ffffffffffffffffffffffffffffffffffffffff160217905550600060086000838152602001908152602001600020600201819055508060078190555080915050919050565b61199c610f77565b73ffffffffffffffffffffffffffffffffffffffff16635577210a306040518263ffffffff1660e01b81526004016119d491906142d1565b602060405180830381865afa1580156119f1573d6000803e3d6000fd5b505050506040513d601f19601f82011682018060405250810190611a159190614567565b506000600160086000600754815260200190815260200160002060020154611a3d9190614de1565b905060006040518060600160405280868152602001851515815260200184815250905084816000018190525083816020019015159081151581525050828160400181815250508060086000600754815260200190815260200160002060030160008481526020019081526020016000206000820151816000019081611ac29190615022565b5060208201518160010160006101000a81548160ff0219169083151502179055506040820151816002015590505081600860006007548152602001908152602001600020600201819055505050505050565b611b1c610f77565b73ffffffffffffffffffffffffffffffffffffffff16635577210a336040518263ffffffff1660e01b8152600401611b5491906142d1565b602060405180830381865afa158015611b71573d6000803e3d6000fd5b505050506040513d601f19601f82011682018060405250810190611b959190614567565b50600060038190555060006004819055506000600560006101000a81548160ff021916908315150217905550565b6000600754905090565b6000600260008373ffffffffffffffffffffffffffffffffffffffff1673ffffffffffffffffffffffffffffffffffffffff16815260200190815260200160002060009054906101000a900473ffffffffffffffffffffffffffffffffffffffff169050919050565b600060011515611c44610a7a565b151514611c86576040517f08c379a0000000000000000000000000000000000000000000000000000000008152600401611c7d9061518c565b60405180910390fd5b3273ffffffffffffffffffffffffffffffffffffffff16611ca683611bcd565b73ffffffffffffffffffffffffffffffffffffffff161480611d4c575060011515611ccf610f77565b73ffffffffffffffffffffffffffffffffffffffff166324d7806c336040518263ffffffff1660e01b8152600401611d0791906142d1565b602060405180830381865afa158015611d24573d6000803e3d6000fd5b505050506040513d601f19601f82011682018060405250810190611d489190614567565b1515145b611d8b576040517f08c379a0000000000000000000000000000000000000000000000000000000008152600401611d8290615244565b60405180910390fd5b60011515611d98836134d1565b151514611dda576040517f08c379a0000000000000000000000000000000000000000000000000000000008152600401611dd190614d09565b60405180910390fd5b6000611de583611df0565b905080915050919050565b600080611dfc83611827565b905082600b60006101000a81548173ffffffffffffffffffffffffffffffffffffffff021916908373ffffffffffffffffffffffffffffffffffffffff160217905550600c60009054906101000a900473ffffffffffffffffffffffffffffffffffffffff1673ffffffffffffffffffffffffffffffffffffffff166325ba0f5184601260009054906101000a900473ffffffffffffffffffffffffffffffffffffffff166040518363ffffffff1660e01b8152600401611ebe929190615264565b600060405180830381600087803b158015611ed857600080fd5b505af1158015611eec573d6000803e3d6000fd5b50505050611f59600c60009054906101000a900473ffffffffffffffffffffffffffffffffffffffff166040518060400160405280600f81526020017f7465737445786572636973654128290000000000000000000000000000000000815250662386f26fc10000613034565b1561203157600080600c60009054906101000a900473ffffffffffffffffffffffffffffffffffffffff1673ffffffffffffffffffffffffffffffffffffffff1663cfacdce8662386f26fc100006040518263ffffffff1660e01b815260040160006040518083038185885af1158015611fd7573d6000803e3d6000fd5b50505050506040513d6000823e3d601f19601f8201168201806040525081019061200191906152fd565b91509150801561201d576120188260016003611994565b61202a565b61202982600080611994565b5b5050612056565b6120556040518060a0016040528060628152602001615a3f60629139600080611994565b5b600d60009054906101000a900473ffffffffffffffffffffffffffffffffffffffff1673ffffffffffffffffffffffffffffffffffffffff166325ba0f5184601260009054906101000a900473ffffffffffffffffffffffffffffffffffffffff166040518363ffffffff1660e01b81526004016120d5929190615264565b600060405180830381600087803b1580156120ef57600080fd5b505af1158015612103573d6000803e3d6000fd5b50505050612170600d60009054906101000a900473ffffffffffffffffffffffffffffffffffffffff166040518060400160405280600f81526020017f7465737445786572636973654228290000000000000000000000000000000000815250662386f26fc10000613034565b1561224857600080600d60009054906101000a900473ffffffffffffffffffffffffffffffffffffffff1673ffffffffffffffffffffffffffffffffffffffff16631ccb0c12662386f26fc100006040518263ffffffff1660e01b815260040160006040518083038185885af11580156121ee573d6000803e3d6000fd5b50505050506040513d6000823e3d601f19601f8201168201806040525081019061221891906152fd565b9150915080156122345761222f8260016003611994565b612241565b61224082600080611994565b5b505061226d565b61226c6040518060a001604052806062815260200161589660629139600080611994565b5b600e60009054906101000a900473ffffffffffffffffffffffffffffffffffffffff1673ffffffffffffffffffffffffffffffffffffffff166325ba0f5184601260009054906101000a900473ffffffffffffffffffffffffffffffffffffffff166040518363ffffffff1660e01b81526004016122ec929190615264565b600060405180830381600087803b15801561230657600080fd5b505af115801561231a573d6000803e3d6000fd5b50505050612387600e60009054906101000a900473ffffffffffffffffffffffffffffffffffffffff166040518060400160405280600f81526020017f7465737445786572636973654328290000000000000000000000000000000000815250662386f26fc10000613034565b1561245e57600080600e60009054906101000a900473ffffffffffffffffffffffffffffffffffffffff1673ffffffffffffffffffffffffffffffffffffffff16639a304b09662386f26fc100006040518263ffffffff1660e01b815260040160006040518083038185885af1158015612405573d6000803e3d6000fd5b50505050506040513d6000823e3d601f19601f8201168201806040525081019061242f91906152fd565b91509150801561244a5761244582600180611994565b612457565b61245682600080611994565b5b5050612483565b6124826040518060a001604052806062815260200161583460629139600080611994565b5b600f60009054906101000a900473ffffffffffffffffffffffffffffffffffffffff1673ffffffffffffffffffffffffffffffffffffffff166325ba0f5184601260009054906101000a900473ffffffffffffffffffffffffffffffffffffffff166040518363ffffffff1660e01b8152600401612502929190615264565b600060405180830381600087803b15801561251c57600080fd5b505af1158015612530573d6000803e3d6000fd5b5050505061259d600f60009054906101000a900473ffffffffffffffffffffffffffffffffffffffff166040518060400160405280600f81526020017f746573744578657263697365442829000000000000000000000000000000000081525066b1a2bc2ec50000613034565b1561267457600080600f60009054906101000a900473ffffffffffffffffffffffffffffffffffffffff1673ffffffffffffffffffffffffffffffffffffffff16636fceee2b66b1a2bc2ec500006040518263ffffffff1660e01b815260040160006040518083038185885af115801561261b573d6000803e3d6000fd5b50505050506040513d6000823e3d601f19601f8201168201806040525081019061264591906152fd565b9150915080156126605761265b82600180611994565b61266d565b61266c82600080611994565b5b5050612699565b6126986040518060a001604052806062815260200161597b60629139600080611994565b5b601060009054906101000a900473ffffffffffffffffffffffffffffffffffffffff1673ffffffffffffffffffffffffffffffffffffffff166325ba0f5184601260009054906101000a900473ffffffffffffffffffffffffffffffffffffffff166040518363ffffffff1660e01b8152600401612718929190615264565b600060405180830381600087803b15801561273257600080fd5b505af1158015612746573d6000803e3d6000fd5b505050506127b3601060009054906101000a900473ffffffffffffffffffffffffffffffffffffffff166040518060400160405280600f81526020017f7465737445786572636973654528290000000000000000000000000000000000815250662386f26fc10000613034565b1561288a57600080601060009054906101000a900473ffffffffffffffffffffffffffffffffffffffff1673ffffffffffffffffffffffffffffffffffffffff1663db19a5da662386f26fc100006040518263ffffffff1660e01b815260040160006040518083038185885af1158015612831573d6000803e3d6000fd5b50505050506040513d6000823e3d601f19601f8201168201806040525081019061285b91906152fd565b9150915080156128765761287182600180611994565b612883565b61288282600080611994565b5b50506128af565b6128ae6040518060a00160405280606281526020016159dd60629139600080611994565b5b601160009054906101000a900473ffffffffffffffffffffffffffffffffffffffff1673ffffffffffffffffffffffffffffffffffffffff166325ba0f5184601260009054906101000a900473ffffffffffffffffffffffffffffffffffffffff166040518363ffffffff1660e01b815260040161292e929190615264565b600060405180830381600087803b15801561294857600080fd5b505af115801561295c573d6000803e3d6000fd5b505050506129c3601160009054906101000a900473ffffffffffffffffffffffffffffffffffffffff166040518060400160405280600f81526020017f74657374457865726369736546282900000000000000000000000000000000008152506000613034565b15612a9257600080601160009054906101000a900473ffffffffffffffffffffffffffffffffffffffff1673ffffffffffffffffffffffffffffffffffffffff1663f3e7284e6040518163ffffffff1660e01b81526004016000604051808303816000875af1158015612a3a573d6000803e3d6000fd5b505050506040513d6000823e3d601f19601f82011682018060405250810190612a6391906152fd565b915091508015612a7e57612a7982600180611994565b612a8b565b612a8a82600080611994565b5b5050612ab7565b612ab66040518060c00160405280608381526020016158f860839139600080611994565b5b80915050919050565b600081604051602001612ad39190615359565b6040516020818303038152906040528051906020012083604051602001612afa9190615359565b6040516020818303038152906040528051906020012014905092915050565b612b21610f77565b73ffffffffffffffffffffffffffffffffffffffff166324d7806c336040518263ffffffff1660e01b8152600401612b5991906142d1565b602060405180830381865afa158015612b76573d6000803e3d6000fd5b505050506040513d601f19601f82011682018060405250810190612b9a9190614567565b612bd9576040517f08c379a0000000000000000000000000000000000000000000000000000000008152600401612bd0906153e2565b60405180910390fd5b600073ffffffffffffffffffffffffffffffffffffffff168273ffffffffffffffffffffffffffffffffffffffff1603612c48576040517f08c379a0000000000000000000000000000000000000000000000000000000008152600401612c3f9061544e565b60405180910390fd5b3373ffffffffffffffffffffffffffffffffffffffff168273ffffffffffffffffffffffffffffffffffffffff161480612cad57503273ffffffffffffffffffffffffffffffffffffffff168273ffffffffffffffffffffffffffffffffffffffff16145b80612d355750612cbb610f77565b73ffffffffffffffffffffffffffffffffffffffff166324d7806c836040518263ffffffff1660e01b8152600401612cf3919061548f565b602060405180830381865afa158015612d10573d6000803e3d6000fd5b505050506040513d601f19601f82011682018060405250810190612d349190614567565b5b612d74576040517f08c379a0000000000000000000000000000000000000000000000000000000008152600401612d6b9061551c565b60405180910390fd5b47811015612db7576040517f08c379a0000000000000000000000000000000000000000000000000000000008152600401612dae90615588565b60405180910390fd5b60008273ffffffffffffffffffffffffffffffffffffffff1682604051612ddd906155d9565b60006040518083038185875af1925050503d8060008114612e1a576040519150601f19603f3d011682016040523d82523d6000602084013e612e1f565b606091505b5050905080612e63576040517f08c379a0000000000000000000000000000000000000000000000000000000008152600401612e5a9061563a565b60405180910390fd5b505050565b612e706137b2565b600960008373ffffffffffffffffffffffffffffffffffffffff1673ffffffffffffffffffffffffffffffffffffffff1681526020019081526020016000206040518060c0016040529081600082015481526020016001820160009054906101000a900473ffffffffffffffffffffffffffffffffffffffff1673ffffffffffffffffffffffffffffffffffffffff1673ffffffffffffffffffffffffffffffffffffffff1681526020016002820160009054906101000a900473ffffffffffffffffffffffffffffffffffffffff1673ffffffffffffffffffffffffffffffffffffffff1673ffffffffffffffffffffffffffffffffffffffff16815260200160038201548152602001600482015481526020016005820160009054906101000a900460ff1615151515815250509050919050565b6000600160003373ffffffffffffffffffffffffffffffffffffffff1673ffffffffffffffffffffffffffffffffffffffff16815260200190815260200160002054036130325743600160003373ffffffffffffffffffffffffffffffffffffffff1673ffffffffffffffffffffffffffffffffffffffff168152602001908152602001600020819055505b565b600080836040516020016130489190615359565b60405160208183030381529060405280519060200120905060008082604051602401604051602081830303815290604052907bffffffffffffffffffffffffffffffffffffffffffffffffffffffff19166020820180517bffffffffffffffffffffffffffffffffffffffffffffffffffffffff83818316178352505050509050600080825160208401888b5af191508193505050509392505050565b6130ed610f77565b73ffffffffffffffffffffffffffffffffffffffff16635577210a826040518263ffffffff1660e01b815260040161312591906142d1565b602060405180830381865afa158015613142573d6000803e3d6000fd5b505050506040513d601f19601f820116820180604052508101906131669190614567565b506001151561317482610a91565b1515146131b6576040517f08c379a00000000000000000000000000000000000000000000000000000000081526004016131ad906156cc565b60405180910390fd5b6000600960008373ffffffffffffffffffffffffffffffffffffffff1673ffffffffffffffffffffffffffffffffffffffff1681526020019081526020016000206003015490506000613207610f77565b73ffffffffffffffffffffffffffffffffffffffff1663f67917796040518163ffffffff1660e01b8152600401602060405180830381865afa158015613251573d6000803e3d6000fd5b505050506040513d601f19601f820116820180604052508101906132759190614b8c565b90508073ffffffffffffffffffffffffffffffffffffffff16639dc29fac84846040518363ffffffff1660e01b81526004016132b2929190614e57565b6020604051808303816000875af11580156132d1573d6000803e3d6000fd5b505050506040513d601f19601f820116820180604052508101906132f59190614567565b50600960008473ffffffffffffffffffffffffffffffffffffffff1673ffffffffffffffffffffffffffffffffffffffff1681526020019081526020016000206000808201600090556001820160006101000a81549073ffffffffffffffffffffffffffffffffffffffff02191690556002820160006101000a81549073ffffffffffffffffffffffffffffffffffffffff0219169055600382016000905560048201600090556005820160006101000a81549060ff02191690555050505050565b6000600a60008373ffffffffffffffffffffffffffffffffffffffff1673ffffffffffffffffffffffffffffffffffffffff16815260200190815260200160002060009054906101000a900460ff169050919050565b816000806101000a81548173ffffffffffffffffffffffffffffffffffffffff021916908373ffffffffffffffffffffffffffffffffffffffff1602179055506000613457610f77565b90508073ffffffffffffffffffffffffffffffffffffffff16637fb99b9330846040518363ffffffff1660e01b81526004016134949291906156ec565b600060405180830381600087803b1580156134ae57600080fd5b505af11580156134c2573d6000803e3d6000fd5b50505050505050565b60075481565b6000806134dd83610b10565b905060006134e9610f77565b73ffffffffffffffffffffffffffffffffffffffff1663e07b04946003546004546040518363ffffffff1660e01b8152600401613527929190614600565b600060405180830381865afa158015613544573d6000803e3d6000fd5b505050506040513d6000823e3d601f19601f8201168201806040525081019061356d91906157ea565b606001519050600061357d610f77565b73ffffffffffffffffffffffffffffffffffffffff1663e07b04946003546004546040518363ffffffff1660e01b81526004016135bb929190614600565b600060405180830381865afa1580156135d8573d6000803e3d6000fd5b505050506040513d6000823e3d601f19601f8201168201806040525081019061360191906157ea565b6080015190508183101580156136175750808311155b156136285760019350505050613630565b600093505050505b919050565b6000804390506000613645610f77565b73ffffffffffffffffffffffffffffffffffffffff1663e07b04946003546004546040518363ffffffff1660e01b8152600401613683929190614600565b600060405180830381865afa1580156136a0573d6000803e3d6000fd5b505050506040513d6000823e3d601f19601f820116820180604052508101906136c991906157ea565b60600151905060006136d9610f77565b73ffffffffffffffffffffffffffffffffffffffff1663e07b04946003546004546040518363ffffffff1660e01b8152600401613717929190614600565b600060405180830381865afa158015613734573d6000803e3d6000fd5b505050506040513d6000823e3d601f19601f8201168201806040525081019061375d91906157ea565b6080015190508183101580156137735750808311155b15613784576001935050505061378c565b600093505050505b90565b604051806060016040528060608152602001600015158152602001600081525090565b6040518060c0016040528060008152602001600073ffffffffffffffffffffffffffffffffffffffff168152602001600073ffffffffffffffffffffffffffffffffffffffff16815260200160008152602001600081526020016000151581525090565b6000604051905090565b600080fd5b600080fd5b6000819050919050565b61383d8161382a565b811461384857600080fd5b50565b60008135905061385a81613834565b92915050565b6000806040838503121561387757613876613820565b5b60006138858582860161384b565b92505060206138968582860161384b565b9150509250929050565b60008115159050919050565b6138b5816138a0565b82525050565b60006020820190506138d060008301846138ac565b92915050565b600073ffffffffffffffffffffffffffffffffffffffff82169050919050565b6000613901826138d6565b9050919050565b613911816138f6565b811461391c57600080fd5b50565b60008135905061392e81613908565b92915050565b60006020828403121561394a57613949613820565b5b60006139588482850161391f565b91505092915050565b61396a8161382a565b82525050565b60006060820190506139856000830186613961565b6139926020830185613961565b61399f60408301846138ac565b949350505050565b60006020820190506139bc6000830184613961565b92915050565b600080fd5b600080fd5b6000601f19601f8301169050919050565b7f4e487b7100000000000000000000000000000000000000000000000000000000600052604160045260246000fd5b613a15826139cc565b810181811067ffffffffffffffff82111715613a3457613a336139dd565b5b80604052505050565b6000613a47613816565b9050613a538282613a0c565b919050565b600067ffffffffffffffff821115613a7357613a726139dd565b5b613a7c826139cc565b9050602081019050919050565b82818337600083830152505050565b6000613aab613aa684613a58565b613a3d565b905082815260208101848484011115613ac757613ac66139c7565b5b613ad2848285613a89565b509392505050565b600082601f830112613aef57613aee6139c2565b5b8135613aff848260208601613a98565b91505092915050565b60008060008060808587031215613b2257613b21613820565b5b6000613b308782880161391f565b9450506020613b418782880161391f565b9350506040613b528782880161384b565b925050606085013567ffffffffffffffff811115613b7357613b72613825565b5b613b7f87828801613ada565b91505092959194509250565b60007fffffffff0000000000000000000000000000000000000000000000000000000082169050919050565b613bc081613b8b565b82525050565b6000602082019050613bdb6000830184613bb7565b92915050565b600067ffffffffffffffff821115613bfc57613bfb6139dd565b5b613c05826139cc565b9050602081019050919050565b6000613c25613c2084613be1565b613a3d565b905082815260208101848484011115613c4157613c406139c7565b5b613c4c848285613a89565b509392505050565b600082601f830112613c6957613c686139c2565b5b8135613c79848260208601613c12565b91505092915050565b600080600060608486031215613c9b57613c9a613820565b5b600084013567ffffffffffffffff811115613cb957613cb8613825565b5b613cc586828701613c54565b935050602084013567ffffffffffffffff811115613ce657613ce5613825565b5b613cf286828701613c54565b925050604084013567ffffffffffffffff811115613d1357613d12613825565b5b613d1f86828701613c54565b9150509250925092565b600081519050919050565b600082825260208201905092915050565b60005b83811015613d63578082015181840152602081019050613d48565b60008484015250505050565b6000613d7a82613d29565b613d848185613d34565b9350613d94818560208601613d45565b613d9d816139cc565b840191505092915050565b60006020820190508181036000830152613dc28184613d6f565b905092915050565b600060208284031215613de057613ddf613820565b5b6000613dee8482850161384b565b91505092915050565b600081519050919050565b600082825260208201905092915050565b6000819050602082019050919050565b600082825260208201905092915050565b6000613e3f82613d29565b613e498185613e23565b9350613e59818560208601613d45565b613e62816139cc565b840191505092915050565b613e76816138a0565b82525050565b613e858161382a565b82525050565b60006060830160008301518482036000860152613ea88282613e34565b9150506020830151613ebd6020860182613e6d565b506040830151613ed06040860182613e7c565b508091505092915050565b6000613ee78383613e8b565b905092915050565b6000602082019050919050565b6000613f0782613df7565b613f118185613e02565b935083602082028501613f2385613e13565b8060005b85811015613f5f5784840389528151613f408582613edb565b9450613f4b83613eef565b925060208a01995050600181019050613f27565b50829750879550505050505092915050565b60006020820190508181036000830152613f8b8184613efc565b905092915050565b60006060830160008301518482036000860152613fb08282613e34565b9150506020830151613fc56020860182613e6d565b506040830151613fd86040860182613e7c565b508091505092915050565b60006020820190508181036000830152613ffd8184613f93565b905092915050565b6000819050919050565b600061402a614025614020846138d6565b614005565b6138d6565b9050919050565b600061403c8261400f565b9050919050565b600061404e82614031565b9050919050565b61405e81614043565b82525050565b60006020820190506140796000830184614055565b92915050565b6000806000806080858703121561409957614098613820565b5b600085013567ffffffffffffffff8111156140b7576140b6613825565b5b6140c387828801613c54565b945050602085013567ffffffffffffffff8111156140e4576140e3613825565b5b6140f087828801613c54565b935050604085013567ffffffffffffffff81111561411157614110613825565b5b61411d87828801613c54565b925050606085013567ffffffffffffffff81111561413e5761413d613825565b5b61414a87828801613c54565b91505092959194509250565b600081519050919050565b600082825260208201905092915050565b6000819050602082019050919050565b600061418e8383613e7c565b60208301905092915050565b6000602082019050919050565b60006141b282614156565b6141bc8185614161565b93506141c783614172565b8060005b838110156141f85781516141df8882614182565b97506141ea8361419a565b9250506001810190506141cb565b5085935050505092915050565b6000602082019050818103600083015261421f81846141a7565b905092915050565b614230816138a0565b811461423b57600080fd5b50565b60008135905061424d81614227565b92915050565b60008060006060848603121561426c5761426b613820565b5b600084013567ffffffffffffffff81111561428a57614289613825565b5b61429686828701613c54565b93505060206142a78682870161423e565b92505060406142b88682870161384b565b9150509250925092565b6142cb816138f6565b82525050565b60006020820190506142e660008301846142c2565b92915050565b6000806040838503121561430357614302613820565b5b600083013567ffffffffffffffff81111561432157614320613825565b5b61432d85828601613c54565b925050602083013567ffffffffffffffff81111561434e5761434d613825565b5b61435a85828601613c54565b9150509250929050565b600061436f826138d6565b9050919050565b61437f81614364565b811461438a57600080fd5b50565b60008135905061439c81614376565b92915050565b600080604083850312156143b9576143b8613820565b5b60006143c78582860161438d565b92505060206143d88582860161384b565b9150509250929050565b6143eb816138f6565b82525050565b60c0820160008201516144076000850182613e7c565b50602082015161441a60208501826143e2565b50604082015161442d60408501826143e2565b5060608201516144406060850182613e7c565b5060808201516144536080850182613e7c565b5060a082015161446660a0850182613e6d565b50505050565b600060c08201905061448160008301846143f1565b92915050565b6000806000606084860312156144a05761449f613820565b5b60006144ae8682870161391f565b935050602084013567ffffffffffffffff8111156144cf576144ce613825565b5b6144db86828701613c54565b92505060406144ec8682870161384b565b9150509250925092565b6000806040838503121561450d5761450c613820565b5b600061451b8582860161391f565b925050602083013567ffffffffffffffff81111561453c5761453b613825565b5b61454885828601613c54565b9150509250929050565b60008151905061456181614227565b92915050565b60006020828403121561457d5761457c613820565b5b600061458b84828501614552565b91505092915050565b7f53656d657374657220696420646f6573206e6f74206578697374210000000000600082015250565b60006145ca601b83613d34565b91506145d582614594565b602082019050919050565b600060208201905081810360008301526145f9816145bd565b9050919050565b60006040820190506146156000830185613961565b6146226020830184613961565b9392505050565b7f41737369676e6d656e7420696420666f72207468652073656d6573746572206460008201527f6f6573206e6f7420657869737421000000000000000000000000000000000000602082015250565b6000614685602e83613d34565b915061469082614629565b604082019050919050565b600060208201905081810360008301526146b481614678565b9050919050565b600081905092915050565b60006146d182613d29565b6146db81856146bb565b93506146eb818560208601613d45565b80840191505092915050565b7f3a20000000000000000000000000000000000000000000000000000000000000600082015250565b600061472d6002836146bb565b9150614738826146f7565b600282019050919050565b7f203e200000000000000000000000000000000000000000000000000000000000600082015250565b60006147796003836146bb565b915061478482614743565b600382019050919050565b600061479b82866146c6565b91506147a682614720565b91506147b282856146c6565b91506147bd8261476c565b91506147c982846146c6565b9150819050949350505050565b7f4e487b7100000000000000000000000000000000000000000000000000000000600052602260045260246000fd5b6000600282049050600182168061481d57607f821691505b6020821081036148305761482f6147d6565b5b50919050565b7f4e487b7100000000000000000000000000000000000000000000000000000000600052601160045260246000fd5b60006148708261382a565b915061487b8361382a565b925082820390508181111561489357614892614836565b5b92915050565b7f4e487b7100000000000000000000000000000000000000000000000000000000600052603260045260246000fd5b60006148d38261382a565b91507fffffffffffffffffffffffffffffffffffffffffffffffffffffffffffffffff820361490557614904614836565b5b600182019050919050565b7f2045787065637465643a20000000000000000000000000000000000000000000600082015250565b6000614946600b836146bb565b915061495182614910565b600b82019050919050565b7f2041637475616c3a200000000000000000000000000000000000000000000000600082015250565b60006149926009836146bb565b915061499d8261495c565b600982019050919050565b60006149b482876146c6565b91506149bf82614720565b91506149cb82866146c6565b91506149d682614939565b91506149e282856146c6565b91506149ed82614985565b91506149f982846146c6565b915081905095945050505050565b7f41737369676e6d656e74204572726f723a2041737369676e6d656e742069732060008201527f6e6f74206c696e6b656420746f20612073656d65737465722120506c6561736560208201527f20636f6e74616374207468652041646d696e2061736170210000000000000000604082015250565b6000614a89605883613d34565b9150614a9482614a07565b606082019050919050565b60006020820190508181036000830152614ab881614a7c565b9050919050565b7f41737369676e6d656e74204572726f723a2041737369676e6d656e7420616c7260008201527f65616479207375626d6974746564212043616e6e6f74207375626d697420746860208201527f652061737369676e6d656e7420616761696e2100000000000000000000000000604082015250565b6000614b41605383613d34565b9150614b4c82614abf565b606082019050919050565b60006020820190508181036000830152614b7081614b34565b9050919050565b600081519050614b8681613908565b92915050565b600060208284031215614ba257614ba1613820565b5b6000614bb084828501614b77565b91505092915050565b7f41737369676e6d656e74204572726f723a204f6e6c7920746865206f776e657260008201527f206f662074686520636f6e74726163742063616e207375626d6974207468697360208201527f2061737369676e6d656e74210000000000000000000000000000000000000000604082015250565b6000614c3b604c83613d34565b9150614c4682614bb9565b606082019050919050565b60006020820190508181036000830152614c6a81614c2e565b9050919050565b7f41737369676e6d656e74204572726f723a2041737369676e6d656e74206e6f7460008201527f206465706c6f79656420696e207468652072657175697265642061737369676e60208201527f6d656e7420626c6f636b2072616e676521000000000000000000000000000000604082015250565b6000614cf3605183613d34565b9150614cfe82614c71565b606082019050919050565b60006020820190508181036000830152614d2281614ce6565b9050919050565b7f41737369676e6d656e74204572726f723a2041737369676e6d656e74206e6f7460008201527f207375626d697474656420696e2074686520726571756972656420617373696760208201527f6e6d656e7420626c6f636b2072616e6765210000000000000000000000000000604082015250565b6000614dab605283613d34565b9150614db682614d29565b606082019050919050565b60006020820190508181036000830152614dda81614d9e565b9050919050565b6000614dec8261382a565b9150614df78361382a565b9250828201905080821115614e0f57614e0e614836565b5b92915050565b600081519050614e2481613834565b92915050565b600060208284031215614e4057614e3f613820565b5b6000614e4e84828501614e15565b91505092915050565b6000604082019050614e6c60008301856142c2565b614e796020830184613961565b9392505050565b60008190508160005260206000209050919050565b60006020601f8301049050919050565b600082821b905092915050565b600060088302614ee27fffffffffffffffffffffffffffffffffffffffffffffffffffffffffffffffff82614ea5565b614eec8683614ea5565b95508019841693508086168417925050509392505050565b6000614f1f614f1a614f158461382a565b614005565b61382a565b9050919050565b6000819050919050565b614f3983614f04565b614f4d614f4582614f26565b848454614eb2565b825550505050565b600090565b614f62614f55565b614f6d818484614f30565b505050565b5b81811015614f9157614f86600082614f5a565b600181019050614f73565b5050565b601f821115614fd657614fa781614e80565b614fb084614e95565b81016020851015614fbf578190505b614fd3614fcb85614e95565b830182614f72565b50505b505050565b600082821c905092915050565b6000614ff960001984600802614fdb565b1980831691505092915050565b60006150128383614fe8565b9150826002028217905092915050565b61502b82613d29565b67ffffffffffffffff811115615044576150436139dd565b5b61504e8254614805565b615059828285614f95565b600060209050601f83116001811461508c576000841561507a578287015190505b6150848582615006565b8655506150ec565b601f19841661509a86614e80565b60005b828110156150c25784890151825560018201915060208501945060208101905061509d565b868310156150df57848901516150db601f891682614fe8565b8355505b6001600288020188555050505b505050505050565b7f41737369676e6d656e74204572726f723a2041737369676e6d656e742069732060008201527f6e6f74206c696e6b656420746f20612073656d65737465722120506c6561736560208201527f20636f6e747261637420616e2041646d696e2061736170210000000000000000604082015250565b6000615176605883613d34565b9150615181826150f4565b606082019050919050565b600060208201905081810360008301526151a581615169565b9050919050565b7f41737369676e6d656e74204572726f723a204f6e6c7920746865206f776e657260008201527f206f662074686520636f6e7472616374206f7220616e2061646d696e2063616e60208201527f2076616c696461746520746869732061737369676e6d656e7421000000000000604082015250565b600061522e605a83613d34565b9150615239826151ac565b606082019050919050565b6000602082019050818103600083015261525d81615221565b9050919050565b600060408201905061527960008301856142c2565b61528660208301846142c2565b9392505050565b60006152a061529b84613be1565b613a3d565b9050828152602081018484840111156152bc576152bb6139c7565b5b6152c7848285613d45565b509392505050565b600082601f8301126152e4576152e36139c2565b5b81516152f484826020860161528d565b91505092915050565b6000806040838503121561531457615313613820565b5b600083015167ffffffffffffffff81111561533257615331613825565b5b61533e858286016152cf565b925050602061534f85828601614552565b9150509250929050565b600061536582846146c6565b915081905092915050565b7f4f6e6c7920636f6e74726163742061646d696e2063616e20776974686472617760008201527f2066756e64730000000000000000000000000000000000000000000000000000602082015250565b60006153cc602683613d34565b91506153d782615370565b604082019050919050565b600060208201905081810360008301526153fb816153bf565b9050919050565b7f496e76616c696420616464726573730000000000000000000000000000000000600082015250565b6000615438600f83613d34565b915061544382615402565b602082019050919050565b600060208201905081810360008301526154678161542b565b9050919050565b600061547982614031565b9050919050565b6154898161546e565b82525050565b60006020820190506154a46000830184615480565b92915050565b7f46756e64732063616e206f6e6c792062652077697468647261776e20746f206160008201527f646d696e2c206d73672e73656e646572206f722074782e6f726967696e000000602082015250565b6000615506603d83613d34565b9150615511826154aa565b604082019050919050565b60006020820190508181036000830152615535816154f9565b9050919050565b7f496e73756666696369656e742066756e64730000000000000000000000000000600082015250565b6000615572601283613d34565b915061557d8261553c565b602082019050919050565b600060208201905081810360008301526155a181615565565b9050919050565b600081905092915050565b50565b60006155c36000836155a8565b91506155ce826155b3565b600082019050919050565b60006155e4826155b6565b9150819050919050565b7f5472616e73666572206661696c65642e00000000000000000000000000000000600082015250565b6000615624601083613d34565b915061562f826155ee565b602082019050919050565b6000602082019050818103600083015261565381615617565b9050919050565b7f41737369676e6d656e74206e65656420746f206265206669727374207375626d60008201527f69747465642c20746f2062652072656d6f766564210000000000000000000000602082015250565b60006156b6603583613d34565b91506156c18261565a565b604082019050919050565b600060208201905081810360008301526156e5816156a9565b9050919050565b600060408201905061570160008301856142c2565b81810360208301526157138184613d6f565b90509392505050565b600080fd5b600080fd5b600060a0828403121561573c5761573b61571c565b5b61574660a0613a3d565b9050600082015167ffffffffffffffff81111561576657615765615721565b5b615772848285016152cf565b600083015250602082015167ffffffffffffffff81111561579657615795615721565b5b6157a2848285016152cf565b60208301525060406157b684828501614b77565b60408301525060606157ca84828501614e15565b60608301525060806157de84828501614e15565b60808301525092915050565b600060208284031215615800576157ff613820565b5b600082015167ffffffffffffffff81111561581e5761581d613825565b5b61582a84828501615726565b9150509291505056fe457865726369736520433a20536f6d65206f66207468652072657175697265642066756e6374696f6e7320617265206e6f7420636f72726563746c7920696d706c656d656e7465642e2056616c69646174696f6e206e6f7420706f737369626c6521457865726369736520423a20536f6d65206f66207468652072657175697265642066756e6374696f6e7320617265206e6f7420636f72726563746c7920696d706c656d656e7465642e2056616c69646174696f6e206e6f7420706f737369626c6521457865726369736520463a20536f6d65206f66207468652072657175697265642066756e6374696f6e7320617265206e6f7420636f72726563746c7920696d706c656d656e746564206f722077726f6e67204554482073656e64696e67206d6574686f6420757365642e2056616c69646174696f6e206e6f7420706f737369626c6521457865726369736520443a20536f6d65206f66207468652072657175697265642066756e6374696f6e7320617265206e6f7420636f72726563746c7920696d706c656d656e7465642e2056616c69646174696f6e206e6f7420706f737369626c6521457865726369736520453a20536f6d65206f66207468652072657175697265642066756e6374696f6e7320617265206e6f7420636f72726563746c7920696d706c656d656e7465642e2056616c69646174696f6e206e6f7420706f737369626c6521457865726369736520413a20536f6d65206f66207468652072657175697265642066756e6374696f6e7320617265206e6f7420636f72726563746c7920696d706c656d656e7465642e2056616c69646174696f6e206e6f7420706f737369626c6521a2646970667358221220e3a5406a1fdd2b3f1441e339128d9b86f9311bd230873124910888475aa4043b64736f6c6343000811003360806040523480156200001157600080fd5b5060405162001f2c38038062001f2c8339818101604052810190620000379190620001c6565b62000062816040518060600160405280602d815260200162001eff602d91396200006960201b60201c565b50620002d7565b816000806101000a81548173ffffffffffffffffffffffffffffffffffffffff021916908373ffffffffffffffffffffffffffffffffffffffff1602179055506000620000bb6200013360201b60201c565b90508073ffffffffffffffffffffffffffffffffffffffff16637fb99b9330846040518363ffffffff1660e01b8152600401620000fa929190620002a3565b600060405180830381600087803b1580156200011557600080fd5b505af11580156200012a573d6000803e3d6000fd5b50505050505050565b60008060009054906101000a900473ffffffffffffffffffffffffffffffffffffffff16905090565b600080fd5b600073ffffffffffffffffffffffffffffffffffffffff82169050919050565b60006200018e8262000161565b9050919050565b620001a08162000181565b8114620001ac57600080fd5b50565b600081519050620001c08162000195565b92915050565b600060208284031215620001df57620001de6200015c565b5b6000620001ef84828501620001af565b91505092915050565b620002038162000181565b82525050565b600081519050919050565b600082825260208201905092915050565b60005b838110156200024557808201518184015260208101905062000228565b60008484015250505050565b6000601f19601f8301169050919050565b60006200026f8262000209565b6200027b818562000214565b93506200028d81856020860162000225565b620002988162000251565b840191505092915050565b6000604082019050620002ba6000830185620001f8565b8181036020830152620002ce818462000262565b90509392505050565b611c1880620002e76000396000f3fe60806040526004361061007f5760003560e01c8063bed34bba1161004e578063bed34bba14610159578063c107532914610196578063cfacdce8146101b2578063fae45fbe146101d157610086565b806325ba0f511461008b5780632b518301146100b4578063516cbbe2146100f15780635827a0651461011c57610086565b3661008657005b600080fd5b34801561009757600080fd5b506100b260048036038101906100ad9190610d47565b6101fa565b005b3480156100c057600080fd5b506100db60048036038101906100d69190610ecd565b610280565b6040516100e89190610ff3565b60405180910390f35b3480156100fd57600080fd5b506101066102af565b6040516101139190611074565b60405180910390f35b34801561012857600080fd5b50610143600480360381019061013e919061108f565b6102d8565b6040516101509190610ff3565b60405180910390f35b34801561016557600080fd5b50610180600480360381019061017b9190611166565b61030a565b60405161018d91906111f9565b60405180910390f35b6101b060048036038101906101ab9190611288565b610363565b005b6101ba6106b2565b6040516101c89291906112c8565b60405180910390f35b3480156101dd57600080fd5b506101f860048036038101906101f391906112f8565b610c17565b005b81600160006101000a81548173ffffffffffffffffffffffffffffffffffffffff021916908373ffffffffffffffffffffffffffffffffffffffff16021790555080600260006101000a81548173ffffffffffffffffffffffffffffffffffffffff021916908373ffffffffffffffffffffffffffffffffffffffff1602179055505050565b606083838360405160200161029793929190611428565b60405160208183030381529060405290509392505050565b60008060009054906101000a900473ffffffffffffffffffffffffffffffffffffffff16905090565b6060848484846040516020016102f19493929190611507565b6040516020818303038152906040529050949350505050565b60008160405160200161031d9190611566565b60405160208183030381529060405280519060200120836040516020016103449190611566565b6040516020818303038152906040528051906020012014905092915050565b61036b6102af565b73ffffffffffffffffffffffffffffffffffffffff166324d7806c336040518263ffffffff1660e01b81526004016103a3919061158c565b602060405180830381865afa1580156103c0573d6000803e3d6000fd5b505050506040513d601f19601f820116820180604052508101906103e491906115d3565b610423576040517f08c379a000000000000000000000000000000000000000000000000000000000815260040161041a90611672565b60405180910390fd5b600073ffffffffffffffffffffffffffffffffffffffff168273ffffffffffffffffffffffffffffffffffffffff1603610492576040517f08c379a0000000000000000000000000000000000000000000000000000000008152600401610489906116de565b60405180910390fd5b3373ffffffffffffffffffffffffffffffffffffffff168273ffffffffffffffffffffffffffffffffffffffff1614806104f757503273ffffffffffffffffffffffffffffffffffffffff168273ffffffffffffffffffffffffffffffffffffffff16145b8061057f57506105056102af565b73ffffffffffffffffffffffffffffffffffffffff166324d7806c836040518263ffffffff1660e01b815260040161053d919061171f565b602060405180830381865afa15801561055a573d6000803e3d6000fd5b505050506040513d601f19601f8201168201806040525081019061057e91906115d3565b5b6105be576040517f08c379a00000000000000000000000000000000000000000000000000000000081526004016105b5906117ac565b60405180910390fd5b47811015610601576040517f08c379a00000000000000000000000000000000000000000000000000000000081526004016105f890611818565b60405180910390fd5b60008273ffffffffffffffffffffffffffffffffffffffff168260405161062790611869565b60006040518083038185875af1925050503d8060008114610664576040519150601f19603f3d011682016040523d82523d6000602084013e610669565b606091505b50509050806106ad576040517f08c379a00000000000000000000000000000000000000000000000000000000081526004016106a4906118ca565b60405180910390fd5b505050565b6060600080600160009054906101000a900473ffffffffffffffffffffffffffffffffffffffff1673ffffffffffffffffffffffffffffffffffffffff1663c4e41b226040518163ffffffff1660e01b8152600401602060405180830381865afa158015610724573d6000803e3d6000fd5b505050506040513d601f19601f8201168201806040525081019061074891906118ff565b90506000600160009054906101000a900473ffffffffffffffffffffffffffffffffffffffff1673ffffffffffffffffffffffffffffffffffffffff166370a08231336040518263ffffffff1660e01b81526004016107a7919061158c565b602060405180830381865afa1580156107c4573d6000803e3d6000fd5b505050506040513d601f19601f820116820180604052508101906107e891906118ff565b9050600160009054906101000a900473ffffffffffffffffffffffffffffffffffffffff1673ffffffffffffffffffffffffffffffffffffffff16636a627842662386f26fc10000336040518363ffffffff1660e01b815260040161084d919061158c565b60206040518083038185885af19350505050801561088957506040513d601f19601f8201168201806040525081019061088691906118ff565b60015b6108b4576000604051806060016040528060318152602001611a746031913990935093505050610c13565b600080821115610bee5780806108c99061195b565b91505083600160009054906101000a900473ffffffffffffffffffffffffffffffffffffffff1673ffffffffffffffffffffffffffffffffffffffff1663c4e41b226040518163ffffffff1660e01b8152600401602060405180830381865afa15801561093a573d6000803e3d6000fd5b505050506040513d601f19601f8201168201806040525081019061095e91906118ff565b111561097757808061096f9061195b565b9150506109a0565b60006040518060600160405280603c8152602001611aa5603c9139909550955050505050610c13565b3373ffffffffffffffffffffffffffffffffffffffff16600160009054906101000a900473ffffffffffffffffffffffffffffffffffffffff1673ffffffffffffffffffffffffffffffffffffffff16636352211e846040518263ffffffff1660e01b8152600401610a1291906119b2565b602060405180830381865afa158015610a2f573d6000803e3d6000fd5b505050506040513d601f19601f82011682018060405250810190610a5391906119e2565b73ffffffffffffffffffffffffffffffffffffffff1603610a81578080610a799061195b565b915050610aaa565b6000604051806060016040528060338152602001611ae160339139909550955050505050610c13565b600183610ab79190611a0f565b600160009054906101000a900473ffffffffffffffffffffffffffffffffffffffff1673ffffffffffffffffffffffffffffffffffffffff166370a08231336040518263ffffffff1660e01b8152600401610b12919061158c565b602060405180830381865afa158015610b2f573d6000803e3d6000fd5b505050506040513d601f19601f82011682018060405250810190610b5391906118ff565b03610b6b578080610b639061195b565b915050610b94565b60006040518060600160405280603b8152602001611b6f603b9139909550955050505050610c13565b60048103610bc5576001604051806060016040528060278152602001611b1460279139909550955050505050610c13565b6000604051806060016040528060348152602001611b3b60349139909550955050505050610c13565b6000604051806060016040528060398152602001611baa603991399095509550505050505b9091565b816000806101000a81548173ffffffffffffffffffffffffffffffffffffffff021916908373ffffffffffffffffffffffffffffffffffffffff1602179055506000610c616102af565b90508073ffffffffffffffffffffffffffffffffffffffff16637fb99b9330846040518363ffffffff1660e01b8152600401610c9e929190611a43565b600060405180830381600087803b158015610cb857600080fd5b505af1158015610ccc573d6000803e3d6000fd5b50505050505050565b6000604051905090565b600080fd5b600080fd5b600073ffffffffffffffffffffffffffffffffffffffff82169050919050565b6000610d1482610ce9565b9050919050565b610d2481610d09565b8114610d2f57600080fd5b50565b600081359050610d4181610d1b565b92915050565b60008060408385031215610d5e57610d5d610cdf565b5b6000610d6c85828601610d32565b9250506020610d7d85828601610d32565b9150509250929050565b600080fd5b600080fd5b6000601f19601f8301169050919050565b7f4e487b7100000000000000000000000000000000000000000000000000000000600052604160045260246000fd5b610dda82610d91565b810181811067ffffffffffffffff82111715610df957610df8610da2565b5b80604052505050565b6000610e0c610cd5565b9050610e188282610dd1565b919050565b600067ffffffffffffffff821115610e3857610e37610da2565b5b610e4182610d91565b9050602081019050919050565b82818337600083830152505050565b6000610e70610e6b84610e1d565b610e02565b905082815260208101848484011115610e8c57610e8b610d8c565b5b610e97848285610e4e565b509392505050565b600082601f830112610eb457610eb3610d87565b5b8135610ec4848260208601610e5d565b91505092915050565b600080600060608486031215610ee657610ee5610cdf565b5b600084013567ffffffffffffffff811115610f0457610f03610ce4565b5b610f1086828701610e9f565b935050602084013567ffffffffffffffff811115610f3157610f30610ce4565b5b610f3d86828701610e9f565b925050604084013567ffffffffffffffff811115610f5e57610f5d610ce4565b5b610f6a86828701610e9f565b9150509250925092565b600081519050919050565b600082825260208201905092915050565b60005b83811015610fae578082015181840152602081019050610f93565b60008484015250505050565b6000610fc582610f74565b610fcf8185610f7f565b9350610fdf818560208601610f90565b610fe881610d91565b840191505092915050565b6000602082019050818103600083015261100d8184610fba565b905092915050565b6000819050919050565b600061103a61103561103084610ce9565b611015565b610ce9565b9050919050565b600061104c8261101f565b9050919050565b600061105e82611041565b9050919050565b61106e81611053565b82525050565b60006020820190506110896000830184611065565b92915050565b600080600080608085870312156110a9576110a8610cdf565b5b600085013567ffffffffffffffff8111156110c7576110c6610ce4565b5b6110d387828801610e9f565b945050602085013567ffffffffffffffff8111156110f4576110f3610ce4565b5b61110087828801610e9f565b935050604085013567ffffffffffffffff81111561112157611120610ce4565b5b61112d87828801610e9f565b925050606085013567ffffffffffffffff81111561114e5761114d610ce4565b5b61115a87828801610e9f565b91505092959194509250565b6000806040838503121561117d5761117c610cdf565b5b600083013567ffffffffffffffff81111561119b5761119a610ce4565b5b6111a785828601610e9f565b925050602083013567ffffffffffffffff8111156111c8576111c7610ce4565b5b6111d485828601610e9f565b9150509250929050565b60008115159050919050565b6111f3816111de565b82525050565b600060208201905061120e60008301846111ea565b92915050565b600061121f82610ce9565b9050919050565b61122f81611214565b811461123a57600080fd5b50565b60008135905061124c81611226565b92915050565b6000819050919050565b61126581611252565b811461127057600080fd5b50565b6000813590506112828161125c565b92915050565b6000806040838503121561129f5761129e610cdf565b5b60006112ad8582860161123d565b92505060206112be85828601611273565b9150509250929050565b600060408201905081810360008301526112e28185610fba565b90506112f160208301846111ea565b9392505050565b6000806040838503121561130f5761130e610cdf565b5b600061131d85828601610d32565b925050602083013567ffffffffffffffff81111561133e5761133d610ce4565b5b61134a85828601610e9f565b9150509250929050565b600081905092915050565b600061136a82610f74565b6113748185611354565b9350611384818560208601610f90565b80840191505092915050565b7f3a20000000000000000000000000000000000000000000000000000000000000600082015250565b60006113c6600283611354565b91506113d182611390565b600282019050919050565b7f203e200000000000000000000000000000000000000000000000000000000000600082015250565b6000611412600383611354565b915061141d826113dc565b600382019050919050565b6000611434828661135f565b915061143f826113b9565b915061144b828561135f565b915061145682611405565b9150611462828461135f565b9150819050949350505050565b7f2045787065637465643a20000000000000000000000000000000000000000000600082015250565b60006114a5600b83611354565b91506114b08261146f565b600b82019050919050565b7f2041637475616c3a200000000000000000000000000000000000000000000000600082015250565b60006114f1600983611354565b91506114fc826114bb565b600982019050919050565b6000611513828761135f565b915061151e826113b9565b915061152a828661135f565b915061153582611498565b9150611541828561135f565b915061154c826114e4565b9150611558828461135f565b915081905095945050505050565b6000611572828461135f565b915081905092915050565b61158681610d09565b82525050565b60006020820190506115a1600083018461157d565b92915050565b6115b0816111de565b81146115bb57600080fd5b50565b6000815190506115cd816115a7565b92915050565b6000602082840312156115e9576115e8610cdf565b5b60006115f7848285016115be565b91505092915050565b7f4f6e6c7920636f6e74726163742061646d696e2063616e20776974686472617760008201527f2066756e64730000000000000000000000000000000000000000000000000000602082015250565b600061165c602683610f7f565b915061166782611600565b604082019050919050565b6000602082019050818103600083015261168b8161164f565b9050919050565b7f496e76616c696420616464726573730000000000000000000000000000000000600082015250565b60006116c8600f83610f7f565b91506116d382611692565b602082019050919050565b600060208201905081810360008301526116f7816116bb565b9050919050565b600061170982611041565b9050919050565b611719816116fe565b82525050565b60006020820190506117346000830184611710565b92915050565b7f46756e64732063616e206f6e6c792062652077697468647261776e20746f206160008201527f646d696e2c206d73672e73656e646572206f722074782e6f726967696e000000602082015250565b6000611796603d83610f7f565b91506117a18261173a565b604082019050919050565b600060208201905081810360008301526117c581611789565b9050919050565b7f496e73756666696369656e742066756e64730000000000000000000000000000600082015250565b6000611802601283610f7f565b915061180d826117cc565b602082019050919050565b60006020820190508181036000830152611831816117f5565b9050919050565b600081905092915050565b50565b6000611853600083611838565b915061185e82611843565b600082019050919050565b600061187482611846565b9150819050919050565b7f5472616e73666572206661696c65642e00000000000000000000000000000000600082015250565b60006118b4601083610f7f565b91506118bf8261187e565b602082019050919050565b600060208201905081810360008301526118e3816118a7565b9050919050565b6000815190506118f98161125c565b92915050565b60006020828403121561191557611914610cdf565b5b6000611923848285016118ea565b91505092915050565b7f4e487b7100000000000000000000000000000000000000000000000000000000600052601160045260246000fd5b600061196682611252565b91507fffffffffffffffffffffffffffffffffffffffffffffffffffffffffffffffff82036119985761199761192c565b5b600182019050919050565b6119ac81611252565b82525050565b60006020820190506119c760008301846119a3565b92915050565b6000815190506119dc81610d1b565b92915050565b6000602082840312156119f8576119f7610cdf565b5b6000611a06848285016119cd565b91505092915050565b6000611a1a82611252565b9150611a2583611252565b9250828201905080821115611a3d57611a3c61192c565b5b92915050565b6000604082019050611a58600083018561157d565b8181036020830152611a6a8184610fba565b9050939250505056fe4572726f72202845786572636973652041293a204572726f72207769746820746865206d696e742066756e6374696f6e214572726f72202845786572636973652041293a20546f74616c20737570706c7920646964206e6f7420696e63726561736520636f72726563746c79214572726f72202845786572636973652041293a204e4654206f776e6572206973206e6f7420636f72726563746c792073657421506173736564202845786572636973652041293a204578657263697365204120706173736564214572726f72202845786572636973652041293a20536f6d6520746573747320696e2045786572636973652041206661696c6564214572726f72202845786572636973652041293a2042616c616e6365206f66206d73672e73656e64657220646964206e6f7420696e637265617365214572726f72202845786572636973652041293a204572726f72207769746820746865206d696e742066756e6374696f6e206964206973203021a26469706673582212207a750e369af7eeba5d9882b5c778f3f836f5ab796d0c287c54be7c10835e3d3e64736f6c63430008110033535332332041737369676e6d656e7420312056616c696461746f7220436f6e7472616374202d205461736b204160806040523480156200001157600080fd5b5060405162002760380380620027608339818101604052810190620000379190620001c6565b62000062816040518060600160405280602d815260200162002733602d91396200006960201b60201c565b50620002d7565b816000806101000a81548173ffffffffffffffffffffffffffffffffffffffff021916908373ffffffffffffffffffffffffffffffffffffffff1602179055506000620000bb6200013360201b60201c565b90508073ffffffffffffffffffffffffffffffffffffffff16637fb99b9330846040518363ffffffff1660e01b8152600401620000fa929190620002a3565b600060405180830381600087803b1580156200011557600080fd5b505af11580156200012a573d6000803e3d6000fd5b50505050505050565b60008060009054906101000a900473ffffffffffffffffffffffffffffffffffffffff16905090565b600080fd5b600073ffffffffffffffffffffffffffffffffffffffff82169050919050565b60006200018e8262000161565b9050919050565b620001a08162000181565b8114620001ac57600080fd5b50565b600081519050620001c08162000195565b92915050565b600060208284031215620001df57620001de6200015c565b5b6000620001ef84828501620001af565b91505092915050565b620002038162000181565b82525050565b600081519050919050565b600082825260208201905092915050565b60005b838110156200024557808201518184015260208101905062000228565b60008484015250505050565b6000601f19601f8301169050919050565b60006200026f8262000209565b6200027b818562000214565b93506200028d81856020860162000225565b620002988162000251565b840191505092915050565b6000604082019050620002ba6000830185620001f8565b8181036020830152620002ce818462000262565b90509392505050565b61244c80620002e76000396000f3fe6080604052600436106100955760003560e01c8063516cbbe211610059578063516cbbe2146101a05780635827a065146101cb578063bed34bba14610208578063c107532914610245578063fae45fbe146102615761009c565b80631ccb0c12146100a157806325ba0f51146100c05780632b518301146100e95780633a96fdd7146101265780634c0bb46c146101635761009c565b3661009c57005b600080fd5b6100a961028a565b6040516100b7929190611033565b60405180910390f35b3480156100cc57600080fd5b506100e760048036038101906100e291906110d5565b6105ce565b005b3480156100f557600080fd5b50610110600480360381019061010b919061124a565b610654565b60405161011d91906112f1565b60405180910390f35b34801561013257600080fd5b5061014d60048036038101906101489190611313565b610683565b60405161015a919061138b565b60405180910390f35b34801561016f57600080fd5b5061018a600480360381019061018591906113dc565b6106dc565b60405161019791906112f1565b60405180910390f35b3480156101ac57600080fd5b506101b5610743565b6040516101c291906114be565b60405180910390f35b3480156101d757600080fd5b506101f260048036038101906101ed91906114d9565b61076c565b6040516101ff91906112f1565b60405180910390f35b34801561021457600080fd5b5061022f600480360381019061022a9190611313565b61079e565b60405161023c919061138b565b60405180910390f35b61025f600480360381019061025a91906115ee565b6107f7565b005b34801561026d57600080fd5b506102886004803603810190610283919061162e565b610b46565b005b60606000600160009054906101000a900473ffffffffffffffffffffffffffffffffffffffff1673ffffffffffffffffffffffffffffffffffffffff16636a627842662386f26fc10000336040518363ffffffff1660e01b81526004016102f19190611699565b60206040518083038185885af19350505050801561032d57506040513d601f19601f8201168201806040525081019061032a91906116c9565b60015b61035657600060405180606001604052806031815260200161237f6031913990915091506105ca565b60008111156105a8576000600160009054906101000a900473ffffffffffffffffffffffffffffffffffffffff1673ffffffffffffffffffffffffffffffffffffffff1663c87b56dd836040518263ffffffff1660e01b81526004016103bc9190611705565b600060405180830381865afa1580156103d9573d6000803e3d6000fd5b505050506040513d6000823e3d601f19601f820116820180604052508101906104029190611790565b9050600061053983600160009054906101000a900473ffffffffffffffffffffffffffffffffffffffff1673ffffffffffffffffffffffffffffffffffffffff166320b28ade6040518163ffffffff1660e01b8152600401600060405180830381865afa158015610477573d6000803e3d6000fd5b505050506040513d6000823e3d601f19601f820116820180604052508101906104a09190611790565b600160009054906101000a900473ffffffffffffffffffffffffffffffffffffffff1673ffffffffffffffffffffffffffffffffffffffff1663893d20e86040518163ffffffff1660e01b81526004016020604051808303816000875af115801561050f573d6000803e3d6000fd5b505050506040513d601f19601f8201168201806040525081019061053391906117ee565b336106dc565b9050600115156105498383610683565b1515036105785760016040518060600160405280602781526020016123f06027913990945094505050506105ca565b818160405160200161058b929190611915565b6040516020818303038152906040526000945094505050506105ca565b600060405180606001604052806031815260200161237f603191399092509250505b9091565b81600160006101000a81548173ffffffffffffffffffffffffffffffffffffffff021916908373ffffffffffffffffffffffffffffffffffffffff16021790555080600260006101000a81548173ffffffffffffffffffffffffffffffffffffffff021916908373ffffffffffffffffffffffffffffffffffffffff1602179055505050565b606083838360405160200161066b939291906119e7565b60405160208183030381529060405290509392505050565b6000816040516020016106969190611a2e565b60405160208183030381529060405280519060200120836040516020016106bd9190611a2e565b6040516020818303038152906040528051906020012014905092915050565b606060006106e986610c04565b8585856040516020016106ff9493929190611ced565b604051602081830303815290604052905061071981610cd2565b6040516020016107299190611ded565b604051602081830303815290604052915050949350505050565b60008060009054906101000a900473ffffffffffffffffffffffffffffffffffffffff16905090565b6060848484846040516020016107859493929190611ea7565b6040516020818303038152906040529050949350505050565b6000816040516020016107b19190611a2e565b60405160208183030381529060405280519060200120836040516020016107d89190611a2e565b6040516020818303038152906040528051906020012014905092915050565b6107ff610743565b73ffffffffffffffffffffffffffffffffffffffff166324d7806c336040518263ffffffff1660e01b81526004016108379190611699565b602060405180830381865afa158015610854573d6000803e3d6000fd5b505050506040513d601f19601f820116820180604052508101906108789190611f32565b6108b7576040517f08c379a00000000000000000000000000000000000000000000000000000000081526004016108ae90611fd1565b60405180910390fd5b600073ffffffffffffffffffffffffffffffffffffffff168273ffffffffffffffffffffffffffffffffffffffff1603610926576040517f08c379a000000000000000000000000000000000000000000000000000000000815260040161091d9061203d565b60405180910390fd5b3373ffffffffffffffffffffffffffffffffffffffff168273ffffffffffffffffffffffffffffffffffffffff16148061098b57503273ffffffffffffffffffffffffffffffffffffffff168273ffffffffffffffffffffffffffffffffffffffff16145b80610a135750610999610743565b73ffffffffffffffffffffffffffffffffffffffff166324d7806c836040518263ffffffff1660e01b81526004016109d1919061207e565b602060405180830381865afa1580156109ee573d6000803e3d6000fd5b505050506040513d601f19601f82011682018060405250810190610a129190611f32565b5b610a52576040517f08c379a0000000000000000000000000000000000000000000000000000000008152600401610a499061210b565b60405180910390fd5b47811015610a95576040517f08c379a0000000000000000000000000000000000000000000000000000000008152600401610a8c90612177565b60405180910390fd5b60008273ffffffffffffffffffffffffffffffffffffffff1682604051610abb906121c8565b60006040518083038185875af1925050503d8060008114610af8576040519150601f19603f3d011682016040523d82523d6000602084013e610afd565b606091505b5050905080610b41576040517f08c379a0000000000000000000000000000000000000000000000000000000008152600401610b3890612229565b60405180910390fd5b505050565b816000806101000a81548173ffffffffffffffffffffffffffffffffffffffff021916908373ffffffffffffffffffffffffffffffffffffffff1602179055506000610b90610743565b90508073ffffffffffffffffffffffffffffffffffffffff16637fb99b9330846040518363ffffffff1660e01b8152600401610bcd929190612249565b600060405180830381600087803b158015610be757600080fd5b505af1158015610bfb573d6000803e3d6000fd5b50505050505050565b606060006001610c1384610e35565b01905060008167ffffffffffffffff811115610c3257610c3161111f565b5b6040519080825280601f01601f191660200182016040528015610c645781602001600182028036833780820191505090505b509050600082602001820190505b600115610cc7578080600190039150507f3031323334353637383961626364656600000000000000000000000000000000600a86061a8153600a8581610cbb57610cba612279565b5b04945060008503610c72575b819350505050919050565b60606000825103610cf457604051806020016040528060008152509050610e30565b60006040518060600160405280604081526020016123b06040913990506000600360028551610d2391906122d7565b610d2d919061230b565b6004610d39919061233c565b67ffffffffffffffff811115610d5257610d5161111f565b5b6040519080825280601f01601f191660200182016040528015610d845781602001600182028036833780820191505090505b509050600182016020820185865187015b80821015610df0576003820191508151603f8160121c168501518453600184019350603f81600c1c168501518453600184019350603f8160061c168501518453600184019350603f8116850151845360018401935050610d95565b5050600386510660018114610e0c5760028114610e1f57610e27565b603d6001830353603d6002830353610e27565b603d60018303535b50505080925050505b919050565b600080600090507a184f03e93ff9f4daa797ed6e38ed64bf6a1f0100000000000000008310610e93577a184f03e93ff9f4daa797ed6e38ed64bf6a1f0100000000000000008381610e8957610e88612279565b5b0492506040810190505b6d04ee2d6d415b85acef81000000008310610ed0576d04ee2d6d415b85acef81000000008381610ec657610ec5612279565b5b0492506020810190505b662386f26fc100008310610eff57662386f26fc100008381610ef557610ef4612279565b5b0492506010810190505b6305f5e1008310610f28576305f5e1008381610f1e57610f1d612279565b5b0492506008810190505b6127108310610f4d576127108381610f4357610f42612279565b5b0492506004810190505b60648310610f705760648381610f6657610f65612279565b5b0492506002810190505b600a8310610f7f576001810190505b80915050919050565b600081519050919050565b600082825260208201905092915050565b60005b83811015610fc2578082015181840152602081019050610fa7565b60008484015250505050565b6000601f19601f8301169050919050565b6000610fea82610f88565b610ff48185610f93565b9350611004818560208601610fa4565b61100d81610fce565b840191505092915050565b60008115159050919050565b61102d81611018565b82525050565b6000604082019050818103600083015261104d8185610fdf565b905061105c6020830184611024565b9392505050565b6000604051905090565b600080fd5b600080fd5b600073ffffffffffffffffffffffffffffffffffffffff82169050919050565b60006110a282611077565b9050919050565b6110b281611097565b81146110bd57600080fd5b50565b6000813590506110cf816110a9565b92915050565b600080604083850312156110ec576110eb61106d565b5b60006110fa858286016110c0565b925050602061110b858286016110c0565b9150509250929050565b600080fd5b600080fd5b7f4e487b7100000000000000000000000000000000000000000000000000000000600052604160045260246000fd5b61115782610fce565b810181811067ffffffffffffffff821117156111765761117561111f565b5b80604052505050565b6000611189611063565b9050611195828261114e565b919050565b600067ffffffffffffffff8211156111b5576111b461111f565b5b6111be82610fce565b9050602081019050919050565b82818337600083830152505050565b60006111ed6111e88461119a565b61117f565b9050828152602081018484840111156112095761120861111a565b5b6112148482856111cb565b509392505050565b600082601f83011261123157611230611115565b5b81356112418482602086016111da565b91505092915050565b6000806000606084860312156112635761126261106d565b5b600084013567ffffffffffffffff81111561128157611280611072565b5b61128d8682870161121c565b935050602084013567ffffffffffffffff8111156112ae576112ad611072565b5b6112ba8682870161121c565b925050604084013567ffffffffffffffff8111156112db576112da611072565b5b6112e78682870161121c565b9150509250925092565b6000602082019050818103600083015261130b8184610fdf565b905092915050565b6000806040838503121561132a5761132961106d565b5b600083013567ffffffffffffffff81111561134857611347611072565b5b6113548582860161121c565b925050602083013567ffffffffffffffff81111561137557611374611072565b5b6113818582860161121c565b9150509250929050565b60006020820190506113a06000830184611024565b92915050565b6000819050919050565b6113b9816113a6565b81146113c457600080fd5b50565b6000813590506113d6816113b0565b92915050565b600080600080608085870312156113f6576113f561106d565b5b6000611404878288016113c7565b945050602085013567ffffffffffffffff81111561142557611424611072565b5b6114318782880161121c565b9350506040611442878288016110c0565b9250506060611453878288016110c0565b91505092959194509250565b6000819050919050565b600061148461147f61147a84611077565b61145f565b611077565b9050919050565b600061149682611469565b9050919050565b60006114a88261148b565b9050919050565b6114b88161149d565b82525050565b60006020820190506114d360008301846114af565b92915050565b600080600080608085870312156114f3576114f261106d565b5b600085013567ffffffffffffffff81111561151157611510611072565b5b61151d8782880161121c565b945050602085013567ffffffffffffffff81111561153e5761153d611072565b5b61154a8782880161121c565b935050604085013567ffffffffffffffff81111561156b5761156a611072565b5b6115778782880161121c565b925050606085013567ffffffffffffffff81111561159857611597611072565b5b6115a48782880161121c565b91505092959194509250565b60006115bb82611077565b9050919050565b6115cb816115b0565b81146115d657600080fd5b50565b6000813590506115e8816115c2565b92915050565b600080604083850312156116055761160461106d565b5b6000611613858286016115d9565b9250506020611624858286016113c7565b9150509250929050565b600080604083850312156116455761164461106d565b5b6000611653858286016110c0565b925050602083013567ffffffffffffffff81111561167457611673611072565b5b6116808582860161121c565b9150509250929050565b61169381611097565b82525050565b60006020820190506116ae600083018461168a565b92915050565b6000815190506116c3816113b0565b92915050565b6000602082840312156116df576116de61106d565b5b60006116ed848285016116b4565b91505092915050565b6116ff816113a6565b82525050565b600060208201905061171a60008301846116f6565b92915050565b600061173361172e8461119a565b61117f565b90508281526020810184848401111561174f5761174e61111a565b5b61175a848285610fa4565b509392505050565b600082601f83011261177757611776611115565b5b8151611787848260208601611720565b91505092915050565b6000602082840312156117a6576117a561106d565b5b600082015167ffffffffffffffff8111156117c4576117c3611072565b5b6117d084828501611762565b91505092915050565b6000815190506117e8816110a9565b92915050565b6000602082840312156118045761180361106d565b5b6000611812848285016117d9565b91505092915050565b600081905092915050565b7f4572726f72202845786572636973652042293a20546f6b656e555249206e6f7460008201527f20636f727265637420676f743a20000000000000000000000000000000000000602082015250565b6000611882602e8361181b565b915061188d82611826565b602e82019050919050565b60006118a382610f88565b6118ad818561181b565b93506118bd818560208601610fa4565b80840191505092915050565b7f2065787065637465643a20000000000000000000000000000000000000000000600082015250565b60006118ff600b8361181b565b915061190a826118c9565b600b82019050919050565b600061192082611875565b915061192c8285611898565b9150611937826118f2565b91506119438284611898565b91508190509392505050565b7f3a20000000000000000000000000000000000000000000000000000000000000600082015250565b600061198560028361181b565b91506119908261194f565b600282019050919050565b7f203e200000000000000000000000000000000000000000000000000000000000600082015250565b60006119d160038361181b565b91506119dc8261199b565b600382019050919050565b60006119f38286611898565b91506119fe82611978565b9150611a0a8285611898565b9150611a15826119c4565b9150611a218284611898565b9150819050949350505050565b6000611a3a8284611898565b915081905092915050565b7f7b00000000000000000000000000000000000000000000000000000000000000600082015250565b6000611a7b60018361181b565b9150611a8682611a45565b600182019050919050565b7f226e616d65223a20224d792062656175746966756c20617274776f726b202300600082015250565b6000611ac7601f8361181b565b9150611ad282611a91565b601f82019050919050565b7f2200000000000000000000000000000000000000000000000000000000000000600082015250565b6000611b1360018361181b565b9150611b1e82611add565b600182019050919050565b7f2268617368223a20220000000000000000000000000000000000000000000000600082015250565b6000611b5f60098361181b565b9150611b6a82611b29565b600982019050919050565b7f222c000000000000000000000000000000000000000000000000000000000000600082015250565b6000611bab60028361181b565b9150611bb682611b75565b600282019050919050565b7f226279223a202200000000000000000000000000000000000000000000000000600082015250565b6000611bf760078361181b565b9150611c0282611bc1565b600782019050919050565b60008160601b9050919050565b6000611c2582611c0d565b9050919050565b6000611c3782611c1a565b9050919050565b611c4f611c4a82611097565b611c2c565b82525050565b7f226e65775f6f776e6572223a2022000000000000000000000000000000000000600082015250565b6000611c8b600e8361181b565b9150611c9682611c55565b600e82019050919050565b7f7d00000000000000000000000000000000000000000000000000000000000000600082015250565b6000611cd760018361181b565b9150611ce282611ca1565b600182019050919050565b6000611cf882611a6e565b9150611d0382611aba565b9150611d0f8287611898565b9150611d1a82611b06565b9150611d2582611b52565b9150611d318286611898565b9150611d3c82611b9e565b9150611d4782611bea565b9150611d538285611c3e565b601482019150611d6282611b9e565b9150611d6d82611c7e565b9150611d798284611c3e565b601482019150611d8882611b06565b9150611d9382611cca565b915081905095945050505050565b7f646174613a6170706c69636174696f6e2f6a736f6e3b6261736536342c000000600082015250565b6000611dd7601d8361181b565b9150611de282611da1565b601d82019050919050565b6000611df882611dca565b9150611e048284611898565b915081905092915050565b7f2045787065637465643a20000000000000000000000000000000000000000000600082015250565b6000611e45600b8361181b565b9150611e5082611e0f565b600b82019050919050565b7f2041637475616c3a200000000000000000000000000000000000000000000000600082015250565b6000611e9160098361181b565b9150611e9c82611e5b565b600982019050919050565b6000611eb38287611898565b9150611ebe82611978565b9150611eca8286611898565b9150611ed582611e38565b9150611ee18285611898565b9150611eec82611e84565b9150611ef88284611898565b915081905095945050505050565b611f0f81611018565b8114611f1a57600080fd5b50565b600081519050611f2c81611f06565b92915050565b600060208284031215611f4857611f4761106d565b5b6000611f5684828501611f1d565b91505092915050565b7f4f6e6c7920636f6e74726163742061646d696e2063616e20776974686472617760008201527f2066756e64730000000000000000000000000000000000000000000000000000602082015250565b6000611fbb602683610f93565b9150611fc682611f5f565b604082019050919050565b60006020820190508181036000830152611fea81611fae565b9050919050565b7f496e76616c696420616464726573730000000000000000000000000000000000600082015250565b6000612027600f83610f93565b915061203282611ff1565b602082019050919050565b600060208201905081810360008301526120568161201a565b9050919050565b60006120688261148b565b9050919050565b6120788161205d565b82525050565b6000602082019050612093600083018461206f565b92915050565b7f46756e64732063616e206f6e6c792062652077697468647261776e20746f206160008201527f646d696e2c206d73672e73656e646572206f722074782e6f726967696e000000602082015250565b60006120f5603d83610f93565b915061210082612099565b604082019050919050565b60006020820190508181036000830152612124816120e8565b9050919050565b7f496e73756666696369656e742066756e64730000000000000000000000000000600082015250565b6000612161601283610f93565b915061216c8261212b565b602082019050919050565b6000602082019050818103600083015261219081612154565b9050919050565b600081905092915050565b50565b60006121b2600083612197565b91506121bd826121a2565b600082019050919050565b60006121d3826121a5565b9150819050919050565b7f5472616e73666572206661696c65642e00000000000000000000000000000000600082015250565b6000612213601083610f93565b915061221e826121dd565b602082019050919050565b6000602082019050818103600083015261224281612206565b9050919050565b600060408201905061225e600083018561168a565b81810360208301526122708184610fdf565b90509392505050565b7f4e487b7100000000000000000000000000000000000000000000000000000000600052601260045260246000fd5b7f4e487b7100000000000000000000000000000000000000000000000000000000600052601160045260246000fd5b60006122e2826113a6565b91506122ed836113a6565b9250828201905080821115612305576123046122a8565b5b92915050565b6000612316826113a6565b9150612321836113a6565b92508261233157612330612279565b5b828204905092915050565b6000612347826113a6565b9150612352836113a6565b9250828202612360816113a6565b91508282048414831517612377576123766122a8565b5b509291505056fe4572726f72202845786572636973652042293a204572726f72207769746820746865206d696e742066756e6374696f6e214142434445464748494a4b4c4d4e4f505152535455565758595a6162636465666768696a6b6c6d6e6f707172737475767778797a303132333435363738392b2f506173736564202845786572636973652042293a20457865726369736520422070617373656421a264697066735822122014b67b9fa0689dd5e7a24020a409eee539851b1ae3f59dfb420a104aeb24080264736f6c63430008110033535332332041737369676e6d656e7420312056616c696461746f7220436f6e7472616374202d205461736b204260806040523480156200001157600080fd5b5060405162001a4438038062001a448339818101604052810190620000379190620001c6565b62000062816040518060600160405280602d815260200162001a17602d91396200006960201b60201c565b50620002d7565b816000806101000a81548173ffffffffffffffffffffffffffffffffffffffff021916908373ffffffffffffffffffffffffffffffffffffffff1602179055506000620000bb6200013360201b60201c565b90508073ffffffffffffffffffffffffffffffffffffffff16637fb99b9330846040518363ffffffff1660e01b8152600401620000fa929190620002a3565b600060405180830381600087803b1580156200011557600080fd5b505af11580156200012a573d6000803e3d6000fd5b50505050505050565b60008060009054906101000a900473ffffffffffffffffffffffffffffffffffffffff16905090565b600080fd5b600073ffffffffffffffffffffffffffffffffffffffff82169050919050565b60006200018e8262000161565b9050919050565b620001a08162000181565b8114620001ac57600080fd5b50565b600081519050620001c08162000195565b92915050565b600060208284031215620001df57620001de6200015c565b5b6000620001ef84828501620001af565b91505092915050565b620002038162000181565b82525050565b600081519050919050565b600082825260208201905092915050565b60005b838110156200024557808201518184015260208101905062000228565b60008484015250505050565b6000601f19601f8301169050919050565b60006200026f8262000209565b6200027b818562000214565b93506200028d81856020860162000225565b620002988162000251565b840191505092915050565b6000604082019050620002ba6000830185620001f8565b8181036020830152620002ce818462000262565b90509392505050565b61173080620002e76000396000f3fe60806040526004361061007f5760003560e01c80639a304b091161004e5780639a304b0914610159578063bed34bba14610178578063c1075329146101b5578063fae45fbe146101d157610086565b806325ba0f511461008b5780632b518301146100b4578063516cbbe2146100f15780635827a0651461011c57610086565b3661008657005b600080fd5b34801561009757600080fd5b506100b260048036038101906100ad9190610a26565b6101fa565b005b3480156100c057600080fd5b506100db60048036038101906100d69190610bac565b610280565b6040516100e89190610cd2565b60405180910390f35b3480156100fd57600080fd5b506101066102af565b6040516101139190610d53565b60405180910390f35b34801561012857600080fd5b50610143600480360381019061013e9190610d6e565b6102d8565b6040516101509190610cd2565b60405180910390f35b61016161030a565b60405161016f929190610e60565b60405180910390f35b34801561018457600080fd5b5061019f600480360381019061019a9190610e90565b61054e565b6040516101ac9190610f08565b60405180910390f35b6101cf60048036038101906101ca9190610f97565b6105a7565b005b3480156101dd57600080fd5b506101f860048036038101906101f39190610fd7565b6108f6565b005b81600160006101000a81548173ffffffffffffffffffffffffffffffffffffffff021916908373ffffffffffffffffffffffffffffffffffffffff16021790555080600260006101000a81548173ffffffffffffffffffffffffffffffffffffffff021916908373ffffffffffffffffffffffffffffffffffffffff1602179055505050565b606083838360405160200161029793929190611107565b60405160208183030381529060405290509392505050565b60008060009054906101000a900473ffffffffffffffffffffffffffffffffffffffff16905090565b6060848484846040516020016102f194939291906111e6565b6040516020818303038152906040529050949350505050565b60606000600160009054906101000a900473ffffffffffffffffffffffffffffffffffffffff1673ffffffffffffffffffffffffffffffffffffffff166398d5fdca6040518163ffffffff1660e01b8152600401602060405180830381865afa92505050801561039857506040513d601f19601f82011682018060405250810190610395919061125a565b60015b1561052957600081111561052657600160009054906101000a900473ffffffffffffffffffffffffffffffffffffffff1673ffffffffffffffffffffffffffffffffffffffff16636a627842662386f26fc10000336040518363ffffffff1660e01b81526004016104099190611296565b60206040518083038185885af19350505050801561044557506040513d601f19601f82011682018060405250810190610442919061125a565b60015b1561052157506000600160009054906101000a900473ffffffffffffffffffffffffffffffffffffffff1673ffffffffffffffffffffffffffffffffffffffff166398d5fdca6040518163ffffffff1660e01b8152600401602060405180830381865afa1580156104ba573d6000803e3d6000fd5b505050506040513d601f19601f820116820180604052508101906104de919061125a565b9050655af3107a4000826104f291906112e0565b810361051f57600160405180606001604052806027815260200161169f602791399093509350505061054a565b505b610527565b5b505b60006040518060600160405280603581526020016116c66035913990915091505b9091565b6000816040516020016105619190611314565b60405160208183030381529060405280519060200120836040516020016105889190611314565b6040516020818303038152906040528051906020012014905092915050565b6105af6102af565b73ffffffffffffffffffffffffffffffffffffffff166324d7806c336040518263ffffffff1660e01b81526004016105e79190611296565b602060405180830381865afa158015610604573d6000803e3d6000fd5b505050506040513d601f19601f820116820180604052508101906106289190611357565b610667576040517f08c379a000000000000000000000000000000000000000000000000000000000815260040161065e906113f6565b60405180910390fd5b600073ffffffffffffffffffffffffffffffffffffffff168273ffffffffffffffffffffffffffffffffffffffff16036106d6576040517f08c379a00000000000000000000000000000000000000000000000000000000081526004016106cd90611462565b60405180910390fd5b3373ffffffffffffffffffffffffffffffffffffffff168273ffffffffffffffffffffffffffffffffffffffff16148061073b57503273ffffffffffffffffffffffffffffffffffffffff168273ffffffffffffffffffffffffffffffffffffffff16145b806107c357506107496102af565b73ffffffffffffffffffffffffffffffffffffffff166324d7806c836040518263ffffffff1660e01b815260040161078191906114a3565b602060405180830381865afa15801561079e573d6000803e3d6000fd5b505050506040513d601f19601f820116820180604052508101906107c29190611357565b5b610802576040517f08c379a00000000000000000000000000000000000000000000000000000000081526004016107f990611530565b60405180910390fd5b47811015610845576040517f08c379a000000000000000000000000000000000000000000000000000000000815260040161083c9061159c565b60405180910390fd5b60008273ffffffffffffffffffffffffffffffffffffffff168260405161086b906115ed565b60006040518083038185875af1925050503d80600081146108a8576040519150601f19603f3d011682016040523d82523d6000602084013e6108ad565b606091505b50509050806108f1576040517f08c379a00000000000000000000000000000000000000000000000000000000081526004016108e89061164e565b60405180910390fd5b505050565b816000806101000a81548173ffffffffffffffffffffffffffffffffffffffff021916908373ffffffffffffffffffffffffffffffffffffffff16021790555060006109406102af565b90508073ffffffffffffffffffffffffffffffffffffffff16637fb99b9330846040518363ffffffff1660e01b815260040161097d92919061166e565b600060405180830381600087803b15801561099757600080fd5b505af11580156109ab573d6000803e3d6000fd5b50505050505050565b6000604051905090565b600080fd5b600080fd5b600073ffffffffffffffffffffffffffffffffffffffff82169050919050565b60006109f3826109c8565b9050919050565b610a03816109e8565b8114610a0e57600080fd5b50565b600081359050610a20816109fa565b92915050565b60008060408385031215610a3d57610a3c6109be565b5b6000610a4b85828601610a11565b9250506020610a5c85828601610a11565b9150509250929050565b600080fd5b600080fd5b6000601f19601f8301169050919050565b7f4e487b7100000000000000000000000000000000000000000000000000000000600052604160045260246000fd5b610ab982610a70565b810181811067ffffffffffffffff82111715610ad857610ad7610a81565b5b80604052505050565b6000610aeb6109b4565b9050610af78282610ab0565b919050565b600067ffffffffffffffff821115610b1757610b16610a81565b5b610b2082610a70565b9050602081019050919050565b82818337600083830152505050565b6000610b4f610b4a84610afc565b610ae1565b905082815260208101848484011115610b6b57610b6a610a6b565b5b610b76848285610b2d565b509392505050565b600082601f830112610b9357610b92610a66565b5b8135610ba3848260208601610b3c565b91505092915050565b600080600060608486031215610bc557610bc46109be565b5b600084013567ffffffffffffffff811115610be357610be26109c3565b5b610bef86828701610b7e565b935050602084013567ffffffffffffffff811115610c1057610c0f6109c3565b5b610c1c86828701610b7e565b925050604084013567ffffffffffffffff811115610c3d57610c3c6109c3565b5b610c4986828701610b7e565b9150509250925092565b600081519050919050565b600082825260208201905092915050565b60005b83811015610c8d578082015181840152602081019050610c72565b60008484015250505050565b6000610ca482610c53565b610cae8185610c5e565b9350610cbe818560208601610c6f565b610cc781610a70565b840191505092915050565b60006020820190508181036000830152610cec8184610c99565b905092915050565b6000819050919050565b6000610d19610d14610d0f846109c8565b610cf4565b6109c8565b9050919050565b6000610d2b82610cfe565b9050919050565b6000610d3d82610d20565b9050919050565b610d4d81610d32565b82525050565b6000602082019050610d686000830184610d44565b92915050565b60008060008060808587031215610d8857610d876109be565b5b600085013567ffffffffffffffff811115610da657610da56109c3565b5b610db287828801610b7e565b945050602085013567ffffffffffffffff811115610dd357610dd26109c3565b5b610ddf87828801610b7e565b935050604085013567ffffffffffffffff811115610e0057610dff6109c3565b5b610e0c87828801610b7e565b925050606085013567ffffffffffffffff811115610e2d57610e2c6109c3565b5b610e3987828801610b7e565b91505092959194509250565b60008115159050919050565b610e5a81610e45565b82525050565b60006040820190508181036000830152610e7a8185610c99565b9050610e896020830184610e51565b9392505050565b60008060408385031215610ea757610ea66109be565b5b600083013567ffffffffffffffff811115610ec557610ec46109c3565b5b610ed185828601610b7e565b925050602083013567ffffffffffffffff811115610ef257610ef16109c3565b5b610efe85828601610b7e565b9150509250929050565b6000602082019050610f1d6000830184610e51565b92915050565b6000610f2e826109c8565b9050919050565b610f3e81610f23565b8114610f4957600080fd5b50565b600081359050610f5b81610f35565b92915050565b6000819050919050565b610f7481610f61565b8114610f7f57600080fd5b50565b600081359050610f9181610f6b565b92915050565b60008060408385031215610fae57610fad6109be565b5b6000610fbc85828601610f4c565b9250506020610fcd85828601610f82565b9150509250929050565b60008060408385031215610fee57610fed6109be565b5b6000610ffc85828601610a11565b925050602083013567ffffffffffffffff81111561101d5761101c6109c3565b5b61102985828601610b7e565b9150509250929050565b600081905092915050565b600061104982610c53565b6110538185611033565b9350611063818560208601610c6f565b80840191505092915050565b7f3a20000000000000000000000000000000000000000000000000000000000000600082015250565b60006110a5600283611033565b91506110b08261106f565b600282019050919050565b7f203e200000000000000000000000000000000000000000000000000000000000600082015250565b60006110f1600383611033565b91506110fc826110bb565b600382019050919050565b6000611113828661103e565b915061111e82611098565b915061112a828561103e565b9150611135826110e4565b9150611141828461103e565b9150819050949350505050565b7f2045787065637465643a20000000000000000000000000000000000000000000600082015250565b6000611184600b83611033565b915061118f8261114e565b600b82019050919050565b7f2041637475616c3a200000000000000000000000000000000000000000000000600082015250565b60006111d0600983611033565b91506111db8261119a565b600982019050919050565b60006111f2828761103e565b91506111fd82611098565b9150611209828661103e565b915061121482611177565b9150611220828561103e565b915061122b826111c3565b9150611237828461103e565b915081905095945050505050565b60008151905061125481610f6b565b92915050565b6000602082840312156112705761126f6109be565b5b600061127e84828501611245565b91505092915050565b611290816109e8565b82525050565b60006020820190506112ab6000830184611287565b92915050565b7f4e487b7100000000000000000000000000000000000000000000000000000000600052601160045260246000fd5b60006112eb82610f61565b91506112f683610f61565b925082820190508082111561130e5761130d6112b1565b5b92915050565b6000611320828461103e565b915081905092915050565b61133481610e45565b811461133f57600080fd5b50565b6000815190506113518161132b565b92915050565b60006020828403121561136d5761136c6109be565b5b600061137b84828501611342565b91505092915050565b7f4f6e6c7920636f6e74726163742061646d696e2063616e20776974686472617760008201527f2066756e64730000000000000000000000000000000000000000000000000000602082015250565b60006113e0602683610c5e565b91506113eb82611384565b604082019050919050565b6000602082019050818103600083015261140f816113d3565b9050919050565b7f496e76616c696420616464726573730000000000000000000000000000000000600082015250565b600061144c600f83610c5e565b915061145782611416565b602082019050919050565b6000602082019050818103600083015261147b8161143f565b9050919050565b600061148d82610d20565b9050919050565b61149d81611482565b82525050565b60006020820190506114b86000830184611494565b92915050565b7f46756e64732063616e206f6e6c792062652077697468647261776e20746f206160008201527f646d696e2c206d73672e73656e646572206f722074782e6f726967696e000000602082015250565b600061151a603d83610c5e565b9150611525826114be565b604082019050919050565b600060208201905081810360008301526115498161150d565b9050919050565b7f496e73756666696369656e742066756e64730000000000000000000000000000600082015250565b6000611586601283610c5e565b915061159182611550565b602082019050919050565b600060208201905081810360008301526115b581611579565b9050919050565b600081905092915050565b50565b60006115d76000836115bc565b91506115e2826115c7565b600082019050919050565b60006115f8826115ca565b9150819050919050565b7f5472616e73666572206661696c65642e00000000000000000000000000000000600082015250565b6000611638601083610c5e565b915061164382611602565b602082019050919050565b600060208201905081810360008301526116678161162b565b9050919050565b60006040820190506116836000830185611287565b81810360208301526116958184610c99565b9050939250505056fe506173736564202845786572636973652043293a204578657263697365204320706173736564214572726f72202845786572636973652043293a204572726f722077697468206d6574686f647320696e204578657263697365204321a26469706673582212208d35ad45d70d813221294914d745fa3f2ec131565183427e36b83abc35c58bd164736f6c63430008110033535332332041737369676e6d656e7420312056616c696461746f7220436f6e7472616374202d205461736b204360806040523480156200001157600080fd5b5060405162002671380380620026718339818101604052810190620000379190620001c6565b62000062816040518060600160405280602d815260200162002644602d91396200006960201b60201c565b50620002d7565b816000806101000a81548173ffffffffffffffffffffffffffffffffffffffff021916908373ffffffffffffffffffffffffffffffffffffffff1602179055506000620000bb6200013360201b60201c565b90508073ffffffffffffffffffffffffffffffffffffffff16637fb99b9330846040518363ffffffff1660e01b8152600401620000fa929190620002a3565b600060405180830381600087803b1580156200011557600080fd5b505af11580156200012a573d6000803e3d6000fd5b50505050505050565b60008060009054906101000a900473ffffffffffffffffffffffffffffffffffffffff16905090565b600080fd5b600073ffffffffffffffffffffffffffffffffffffffff82169050919050565b60006200018e8262000161565b9050919050565b620001a08162000181565b8114620001ac57600080fd5b50565b600081519050620001c08162000195565b92915050565b600060208284031215620001df57620001de6200015c565b5b6000620001ef84828501620001af565b91505092915050565b620002038162000181565b82525050565b600081519050919050565b600082825260208201905092915050565b60005b838110156200024557808201518184015260208101905062000228565b60008484015250505050565b6000601f19601f8301169050919050565b60006200026f8262000209565b6200027b818562000214565b93506200028d81856020860162000225565b620002988162000251565b840191505092915050565b6000604082019050620002ba6000830185620001f8565b8181036020830152620002ce818462000262565b90509392505050565b61235d80620002e76000396000f3fe60806040526004361061008a5760003560e01c80635827a065116100595780635827a065146101645780636fceee2b146101a1578063bed34bba146101c0578063c1075329146101fd578063fae45fbe1461021957610091565b8063150b7a021461009657806325ba0f51146100d35780632b518301146100fc578063516cbbe21461013957610091565b3661009157005b600080fd5b3480156100a257600080fd5b506100bd60048036038101906100b8919061127c565b610242565b6040516100ca919061133a565b60405180910390f35b3480156100df57600080fd5b506100fa60048036038101906100f59190611355565b610256565b005b34801561010857600080fd5b50610123600480360381019061011e9190611436565b6102dc565b604051610130919061155c565b60405180910390f35b34801561014557600080fd5b5061014e61030b565b60405161015b91906115dd565b60405180910390f35b34801561017057600080fd5b5061018b600480360381019061018691906115f8565b610334565b604051610198919061155c565b60405180910390f35b6101a9610366565b6040516101b79291906116ea565b60405180910390f35b3480156101cc57600080fd5b506101e760048036038101906101e2919061171a565b610c28565b6040516101f49190611792565b60405180910390f35b610217600480360381019061021291906117eb565b610c81565b005b34801561022557600080fd5b50610240600480360381019061023b919061182b565b610fd0565b005b600063150b7a0260e01b9050949350505050565b81600160006101000a81548173ffffffffffffffffffffffffffffffffffffffff021916908373ffffffffffffffffffffffffffffffffffffffff16021790555080600260006101000a81548173ffffffffffffffffffffffffffffffffffffffff021916908373ffffffffffffffffffffffffffffffffffffffff1602179055505050565b60608383836040516020016102f39392919061195b565b60405160208183030381529060405290509392505050565b60008060009054906101000a900473ffffffffffffffffffffffffffffffffffffffff16905090565b60608484848460405160200161034d9493929190611a3a565b6040516020818303038152906040529050949350505050565b60606000600160009054906101000a900473ffffffffffffffffffffffffffffffffffffffff1673ffffffffffffffffffffffffffffffffffffffff16636a627842662386f26fc10000306040518363ffffffff1660e01b81526004016103cd9190611aa8565b60206040518083038185885af19350505050801561040957506040513d601f19601f820116820180604052508101906104069190611ad8565b60015b61046c57610415611b12565b806308c379a0036104605750610429611b34565b806104345750610462565b806040516020016104459190611c36565b60405160208183030381529060405260009250925050610c24565b505b3d6000803e3d6000fd5b6000811115610c02576000600160009054906101000a900473ffffffffffffffffffffffffffffffffffffffff1673ffffffffffffffffffffffffffffffffffffffff166398d5fdca6040518163ffffffff1660e01b8152600401602060405180830381865afa1580156104e4573d6000803e3d6000fd5b505050506040513d601f19601f820116820180604052508101906105089190611ad8565b90506000600160009054906101000a900473ffffffffffffffffffffffffffffffffffffffff1673ffffffffffffffffffffffffffffffffffffffff166370a08231306040518263ffffffff1660e01b81526004016105679190611aa8565b602060405180830381865afa158015610584573d6000803e3d6000fd5b505050506040513d601f19601f820116820180604052508101906105a89190611ad8565b90506000600160009054906101000a900473ffffffffffffffffffffffffffffffffffffffff1673ffffffffffffffffffffffffffffffffffffffff1663c4e41b226040518163ffffffff1660e01b8152600401602060405180830381865afa92505050801561063657506040513d601f19601f820116820180604052508101906106339190611ad8565b60015b6106635760006040518060600160405280603981526020016122c860399139909550955050505050610c24565b80915050600160009054906101000a900473ffffffffffffffffffffffffffffffffffffffff1673ffffffffffffffffffffffffffffffffffffffff166342966c68655af3107a4000866040518363ffffffff1660e01b81526004016106c99190611c67565b6000604051808303818588803b1580156106e257600080fd5b505af1935050505080156106f4575060015b61075b57610700611b12565b806308c379a00361074f5750610714611b34565b8061071f5750610751565b806040516020016107309190611cf4565b6040516020818303038152906040526000965096505050505050610c24565b505b3d6000803e3d6000fd5b6000600160009054906101000a900473ffffffffffffffffffffffffffffffffffffffff1673ffffffffffffffffffffffffffffffffffffffff166370a08231306040518263ffffffff1660e01b81526004016107b89190611aa8565b602060405180830381865afa1580156107d5573d6000803e3d6000fd5b505050506040513d601f19601f820116820180604052508101906107f99190611ad8565b9050600060018461080a9190611d45565b820361082357808061081b90611d79565b91505061084e565b6000604051806080016040528060438152602001612196604391399097509750505050505050610c24565b6000600160009054906101000a900473ffffffffffffffffffffffffffffffffffffffff1673ffffffffffffffffffffffffffffffffffffffff166398d5fdca6040518163ffffffff1660e01b8152600401602060405180830381865afa1580156108bd573d6000803e3d6000fd5b505050506040513d601f19601f820116820180604052508101906108e19190611ad8565b9050655af3107a4000866108f59190611d45565b810361090e57818061090690611d79565b92505061093a565b60006040518060600160405280603b815260200161220a603b9139909850985050505050505050610c24565b6000600160009054906101000a900473ffffffffffffffffffffffffffffffffffffffff1673ffffffffffffffffffffffffffffffffffffffff1663c4e41b226040518163ffffffff1660e01b8152600401602060405180830381865afa1580156109a9573d6000803e3d6000fd5b505050506040513d601f19601f820116820180604052508101906109cd9190611ad8565b90506001856109dc9190611d45565b81036109f55782806109ed90611d79565b935050610a22565b60006040518060600160405280603781526020016122916037913990995099505050505050505050610c24565b6000600160009054906101000a900473ffffffffffffffffffffffffffffffffffffffff1673ffffffffffffffffffffffffffffffffffffffff16636a627842662386f26fc10000306040518363ffffffff1660e01b8152600401610a879190611aa8565b60206040518083038185885af1158015610aa5573d6000803e3d6000fd5b50505050506040513d601f19601f82011682018060405250810190610aca9190611ad8565b9050600260009054906101000a900473ffffffffffffffffffffffffffffffffffffffff1673ffffffffffffffffffffffffffffffffffffffff166318400ff066038d7ea4c68000600160009054906101000a900473ffffffffffffffffffffffffffffffffffffffff16846040518463ffffffff1660e01b8152600401610b53929190611de2565b6000604051808303818588803b158015610b6c57600080fd5b505af193505050508015610b7e575060015b610b95578380610b8d90611d79565b945050610bc3565b60016040518060800160405280604c8152602001612245604c9139909a509a50505050505050505050610c24565b60048403610bf957600160405180606001604052806027815260200161230160279139909a509a50505050505050505050610c24565b50505050505050505b5060006040518060600160405280603181526020016121d96031913990915091505b9091565b600081604051602001610c3b9190611e0b565b6040516020818303038152906040528051906020012083604051602001610c629190611e0b565b6040516020818303038152906040528051906020012014905092915050565b610c8961030b565b73ffffffffffffffffffffffffffffffffffffffff166324d7806c336040518263ffffffff1660e01b8152600401610cc19190611aa8565b602060405180830381865afa158015610cde573d6000803e3d6000fd5b505050506040513d601f19601f82011682018060405250810190610d029190611e4e565b610d41576040517f08c379a0000000000000000000000000000000000000000000000000000000008152600401610d3890611eed565b60405180910390fd5b600073ffffffffffffffffffffffffffffffffffffffff168273ffffffffffffffffffffffffffffffffffffffff1603610db0576040517f08c379a0000000000000000000000000000000000000000000000000000000008152600401610da790611f59565b60405180910390fd5b3373ffffffffffffffffffffffffffffffffffffffff168273ffffffffffffffffffffffffffffffffffffffff161480610e1557503273ffffffffffffffffffffffffffffffffffffffff168273ffffffffffffffffffffffffffffffffffffffff16145b80610e9d5750610e2361030b565b73ffffffffffffffffffffffffffffffffffffffff166324d7806c836040518263ffffffff1660e01b8152600401610e5b9190611f9a565b602060405180830381865afa158015610e78573d6000803e3d6000fd5b505050506040513d601f19601f82011682018060405250810190610e9c9190611e4e565b5b610edc576040517f08c379a0000000000000000000000000000000000000000000000000000000008152600401610ed390612027565b60405180910390fd5b47811015610f1f576040517f08c379a0000000000000000000000000000000000000000000000000000000008152600401610f1690612093565b60405180910390fd5b60008273ffffffffffffffffffffffffffffffffffffffff1682604051610f45906120e4565b60006040518083038185875af1925050503d8060008114610f82576040519150601f19603f3d011682016040523d82523d6000602084013e610f87565b606091505b5050905080610fcb576040517f08c379a0000000000000000000000000000000000000000000000000000000008152600401610fc290612145565b60405180910390fd5b505050565b816000806101000a81548173ffffffffffffffffffffffffffffffffffffffff021916908373ffffffffffffffffffffffffffffffffffffffff160217905550600061101a61030b565b90508073ffffffffffffffffffffffffffffffffffffffff16637fb99b9330846040518363ffffffff1660e01b8152600401611057929190612165565b600060405180830381600087803b15801561107157600080fd5b505af1158015611085573d6000803e3d6000fd5b50505050505050565b6000604051905090565b600080fd5b600080fd5b600073ffffffffffffffffffffffffffffffffffffffff82169050919050565b60006110cd826110a2565b9050919050565b6110dd816110c2565b81146110e857600080fd5b50565b6000813590506110fa816110d4565b92915050565b6000819050919050565b61111381611100565b811461111e57600080fd5b50565b6000813590506111308161110a565b92915050565b600080fd5b600080fd5b6000601f19601f8301169050919050565b7f4e487b7100000000000000000000000000000000000000000000000000000000600052604160045260246000fd5b61118982611140565b810181811067ffffffffffffffff821117156111a8576111a7611151565b5b80604052505050565b60006111bb61108e565b90506111c78282611180565b919050565b600067ffffffffffffffff8211156111e7576111e6611151565b5b6111f082611140565b9050602081019050919050565b82818337600083830152505050565b600061121f61121a846111cc565b6111b1565b90508281526020810184848401111561123b5761123a61113b565b5b6112468482856111fd565b509392505050565b600082601f83011261126357611262611136565b5b813561127384826020860161120c565b91505092915050565b6000806000806080858703121561129657611295611098565b5b60006112a4878288016110eb565b94505060206112b5878288016110eb565b93505060406112c687828801611121565b925050606085013567ffffffffffffffff8111156112e7576112e661109d565b5b6112f38782880161124e565b91505092959194509250565b60007fffffffff0000000000000000000000000000000000000000000000000000000082169050919050565b611334816112ff565b82525050565b600060208201905061134f600083018461132b565b92915050565b6000806040838503121561136c5761136b611098565b5b600061137a858286016110eb565b925050602061138b858286016110eb565b9150509250929050565b600067ffffffffffffffff8211156113b0576113af611151565b5b6113b982611140565b9050602081019050919050565b60006113d96113d484611395565b6111b1565b9050828152602081018484840111156113f5576113f461113b565b5b6114008482856111fd565b509392505050565b600082601f83011261141d5761141c611136565b5b813561142d8482602086016113c6565b91505092915050565b60008060006060848603121561144f5761144e611098565b5b600084013567ffffffffffffffff81111561146d5761146c61109d565b5b61147986828701611408565b935050602084013567ffffffffffffffff81111561149a5761149961109d565b5b6114a686828701611408565b925050604084013567ffffffffffffffff8111156114c7576114c661109d565b5b6114d386828701611408565b9150509250925092565b600081519050919050565b600082825260208201905092915050565b60005b838110156115175780820151818401526020810190506114fc565b60008484015250505050565b600061152e826114dd565b61153881856114e8565b93506115488185602086016114f9565b61155181611140565b840191505092915050565b600060208201905081810360008301526115768184611523565b905092915050565b6000819050919050565b60006115a361159e611599846110a2565b61157e565b6110a2565b9050919050565b60006115b582611588565b9050919050565b60006115c7826115aa565b9050919050565b6115d7816115bc565b82525050565b60006020820190506115f260008301846115ce565b92915050565b6000806000806080858703121561161257611611611098565b5b600085013567ffffffffffffffff8111156116305761162f61109d565b5b61163c87828801611408565b945050602085013567ffffffffffffffff81111561165d5761165c61109d565b5b61166987828801611408565b935050604085013567ffffffffffffffff81111561168a5761168961109d565b5b61169687828801611408565b925050606085013567ffffffffffffffff8111156116b7576116b661109d565b5b6116c387828801611408565b91505092959194509250565b60008115159050919050565b6116e4816116cf565b82525050565b600060408201905081810360008301526117048185611523565b905061171360208301846116db565b9392505050565b6000806040838503121561173157611730611098565b5b600083013567ffffffffffffffff81111561174f5761174e61109d565b5b61175b85828601611408565b925050602083013567ffffffffffffffff81111561177c5761177b61109d565b5b61178885828601611408565b9150509250929050565b60006020820190506117a760008301846116db565b92915050565b60006117b8826110a2565b9050919050565b6117c8816117ad565b81146117d357600080fd5b50565b6000813590506117e5816117bf565b92915050565b6000806040838503121561180257611801611098565b5b6000611810858286016117d6565b925050602061182185828601611121565b9150509250929050565b6000806040838503121561184257611841611098565b5b6000611850858286016110eb565b925050602083013567ffffffffffffffff8111156118715761187061109d565b5b61187d85828601611408565b9150509250929050565b600081905092915050565b600061189d826114dd565b6118a78185611887565b93506118b78185602086016114f9565b80840191505092915050565b7f3a20000000000000000000000000000000000000000000000000000000000000600082015250565b60006118f9600283611887565b9150611904826118c3565b600282019050919050565b7f203e200000000000000000000000000000000000000000000000000000000000600082015250565b6000611945600383611887565b91506119508261190f565b600382019050919050565b60006119678286611892565b9150611972826118ec565b915061197e8285611892565b915061198982611938565b91506119958284611892565b9150819050949350505050565b7f2045787065637465643a20000000000000000000000000000000000000000000600082015250565b60006119d8600b83611887565b91506119e3826119a2565b600b82019050919050565b7f2041637475616c3a200000000000000000000000000000000000000000000000600082015250565b6000611a24600983611887565b9150611a2f826119ee565b600982019050919050565b6000611a468287611892565b9150611a51826118ec565b9150611a5d8286611892565b9150611a68826119cb565b9150611a748285611892565b9150611a7f82611a17565b9150611a8b8284611892565b915081905095945050505050565b611aa2816110c2565b82525050565b6000602082019050611abd6000830184611a99565b92915050565b600081519050611ad28161110a565b92915050565b600060208284031215611aee57611aed611098565b5b6000611afc84828501611ac3565b91505092915050565b60008160e01c9050919050565b600060033d1115611b315760046000803e611b2e600051611b05565b90505b90565b600060443d10611bc157611b4661108e565b60043d036004823e80513d602482011167ffffffffffffffff82111715611b6e575050611bc1565b808201805167ffffffffffffffff811115611b8c5750505050611bc1565b80602083010160043d038501811115611ba9575050505050611bc1565b611bb882602001850186611180565b82955050505050505b90565b7f4572726f72202845786572636973652044293a204572726f722077697468207460008201527f6865206d696e742066756e6374696f6e21202d20000000000000000000000000602082015250565b6000611c20603483611887565b9150611c2b82611bc4565b603482019050919050565b6000611c4182611c13565b9150611c4d8284611892565b915081905092915050565b611c6181611100565b82525050565b6000602082019050611c7c6000830184611c58565b92915050565b7f4572726f72202845786572636973652044293a204572726f722077697468207460008201527f6865206275726e2066756e6374696f6e21202d20000000000000000000000000602082015250565b6000611cde603483611887565b9150611ce982611c82565b603482019050919050565b6000611cff82611cd1565b9150611d0b8284611892565b915081905092915050565b7f4e487b7100000000000000000000000000000000000000000000000000000000600052601160045260246000fd5b6000611d5082611100565b9150611d5b83611100565b9250828203905081811115611d7357611d72611d16565b5b92915050565b6000611d8482611100565b91507fffffffffffffffffffffffffffffffffffffffffffffffffffffffffffffffff8203611db657611db5611d16565b5b600182019050919050565b6000611dcc826115aa565b9050919050565b611ddc81611dc1565b82525050565b6000604082019050611df76000830185611dd3565b611e046020830184611c58565b9392505050565b6000611e178284611892565b915081905092915050565b611e2b816116cf565b8114611e3657600080fd5b50565b600081519050611e4881611e22565b92915050565b600060208284031215611e6457611e63611098565b5b6000611e7284828501611e39565b91505092915050565b7f4f6e6c7920636f6e74726163742061646d696e2063616e20776974686472617760008201527f2066756e64730000000000000000000000000000000000000000000000000000602082015250565b6000611ed76026836114e8565b9150611ee282611e7b565b604082019050919050565b60006020820190508181036000830152611f0681611eca565b9050919050565b7f496e76616c696420616464726573730000000000000000000000000000000000600082015250565b6000611f43600f836114e8565b9150611f4e82611f0d565b602082019050919050565b60006020820190508181036000830152611f7281611f36565b9050919050565b6000611f84826115aa565b9050919050565b611f9481611f79565b82525050565b6000602082019050611faf6000830184611f8b565b92915050565b7f46756e64732063616e206f6e6c792062652077697468647261776e20746f206160008201527f646d696e2c206d73672e73656e646572206f722074782e6f726967696e000000602082015250565b6000612011603d836114e8565b915061201c82611fb5565b604082019050919050565b6000602082019050818103600083015261204081612004565b9050919050565b7f496e73756666696369656e742066756e64730000000000000000000000000000600082015250565b600061207d6012836114e8565b915061208882612047565b602082019050919050565b600060208201905081810360008301526120ac81612070565b9050919050565b600081905092915050565b50565b60006120ce6000836120b3565b91506120d9826120be565b600082019050919050565b60006120ef826120c1565b9150819050919050565b7f5472616e73666572206661696c65642e00000000000000000000000000000000600082015250565b600061212f6010836114e8565b915061213a826120f9565b602082019050919050565b6000602082019050818103600083015261215e81612122565b9050919050565b600060408201905061217a6000830185611a99565b818103602083015261218c8184611523565b9050939250505056fe4572726f72202845786572636973652044293a2042616c616e6365206f662061646472657373287468697329206973206e6f74206465637265617365642062792031214572726f72202845786572636973652044293a204572726f7220696e20457865726369736520442066756e6374696f6e214572726f72202845786572636973652044293a205072696365206973206e6f742064656372656173656420627920302e30303031206574686572214572726f72202845786572636973652044293a204275726e2066756e6374696f6e206973206e6f74207265737472696374656420746f20746865206f776e6572206f6620746865204e4654214572726f72202845786572636973652044293a20546f74616c20737570706c79206973206e6f74206465637265617365642062792031214572726f72202845786572636973652044293a204572726f7220776974682074686520676574546f74616c537570706c79206d6574686f6421506173736564202845786572636973652044293a20457865726369736520442070617373656421a2646970667358221220ea9bb0e68788e38b998ae6eb57adb892f5a7d8ed4db983c76e2acbd80f4d706064736f6c63430008110033535332332041737369676e6d656e7420312056616c696461746f7220436f6e7472616374202d205461736b204460806040523480156200001157600080fd5b5060405162001d7438038062001d748339818101604052810190620000379190620001c6565b62000062816040518060600160405280602d815260200162001d47602d91396200006960201b60201c565b50620002d7565b816000806101000a81548173ffffffffffffffffffffffffffffffffffffffff021916908373ffffffffffffffffffffffffffffffffffffffff1602179055506000620000bb6200013360201b60201c565b90508073ffffffffffffffffffffffffffffffffffffffff16637fb99b9330846040518363ffffffff1660e01b8152600401620000fa929190620002a3565b600060405180830381600087803b1580156200011557600080fd5b505af11580156200012a573d6000803e3d6000fd5b50505050505050565b60008060009054906101000a900473ffffffffffffffffffffffffffffffffffffffff16905090565b600080fd5b600073ffffffffffffffffffffffffffffffffffffffff82169050919050565b60006200018e8262000161565b9050919050565b620001a08162000181565b8114620001ac57600080fd5b50565b600081519050620001c08162000195565b92915050565b600060208284031215620001df57620001de6200015c565b5b6000620001ef84828501620001af565b91505092915050565b620002038162000181565b82525050565b600081519050919050565b600082825260208201905092915050565b60005b838110156200024557808201518184015260208101905062000228565b60008484015250505050565b6000601f19601f8301169050919050565b60006200026f8262000209565b6200027b818562000214565b93506200028d81856020860162000225565b620002988162000251565b840191505092915050565b6000604082019050620002ba6000830185620001f8565b8181036020830152620002ce818462000262565b90509392505050565b611a6080620002e76000396000f3fe60806040526004361061007f5760003560e01c8063bed34bba1161004e578063bed34bba14610159578063c107532914610196578063db19a5da146101b2578063fae45fbe146101d157610086565b806325ba0f511461008b5780632b518301146100b4578063516cbbe2146100f15780635827a0651461011c57610086565b3661008657005b600080fd5b34801561009757600080fd5b506100b260048036038101906100ad9190610cd9565b6101fa565b005b3480156100c057600080fd5b506100db60048036038101906100d69190610e5f565b610280565b6040516100e89190610f85565b60405180910390f35b3480156100fd57600080fd5b506101066102af565b6040516101139190611006565b60405180910390f35b34801561012857600080fd5b50610143600480360381019061013e9190611021565b6102d8565b6040516101509190610f85565b60405180910390f35b34801561016557600080fd5b50610180600480360381019061017b91906110f8565b61030a565b60405161018d919061118b565b60405180910390f35b6101b060048036038101906101ab919061121a565b610363565b005b6101ba6106b2565b6040516101c892919061125a565b60405180910390f35b3480156101dd57600080fd5b506101f860048036038101906101f3919061128a565b610ba9565b005b81600160006101000a81548173ffffffffffffffffffffffffffffffffffffffff021916908373ffffffffffffffffffffffffffffffffffffffff16021790555080600260006101000a81548173ffffffffffffffffffffffffffffffffffffffff021916908373ffffffffffffffffffffffffffffffffffffffff1602179055505050565b6060838383604051602001610297939291906113ba565b60405160208183030381529060405290509392505050565b60008060009054906101000a900473ffffffffffffffffffffffffffffffffffffffff16905090565b6060848484846040516020016102f19493929190611499565b6040516020818303038152906040529050949350505050565b60008160405160200161031d91906114f8565b604051602081830303815290604052805190602001208360405160200161034491906114f8565b6040516020818303038152906040528051906020012014905092915050565b61036b6102af565b73ffffffffffffffffffffffffffffffffffffffff166324d7806c336040518263ffffffff1660e01b81526004016103a3919061151e565b602060405180830381865afa1580156103c0573d6000803e3d6000fd5b505050506040513d601f19601f820116820180604052508101906103e49190611565565b610423576040517f08c379a000000000000000000000000000000000000000000000000000000000815260040161041a90611604565b60405180910390fd5b600073ffffffffffffffffffffffffffffffffffffffff168273ffffffffffffffffffffffffffffffffffffffff1603610492576040517f08c379a000000000000000000000000000000000000000000000000000000000815260040161048990611670565b60405180910390fd5b3373ffffffffffffffffffffffffffffffffffffffff168273ffffffffffffffffffffffffffffffffffffffff1614806104f757503273ffffffffffffffffffffffffffffffffffffffff168273ffffffffffffffffffffffffffffffffffffffff16145b8061057f57506105056102af565b73ffffffffffffffffffffffffffffffffffffffff166324d7806c836040518263ffffffff1660e01b815260040161053d91906116b1565b602060405180830381865afa15801561055a573d6000803e3d6000fd5b505050506040513d601f19601f8201168201806040525081019061057e9190611565565b5b6105be576040517f08c379a00000000000000000000000000000000000000000000000000000000081526004016105b59061173e565b60405180910390fd5b47811015610601576040517f08c379a00000000000000000000000000000000000000000000000000000000081526004016105f8906117aa565b60405180910390fd5b60008273ffffffffffffffffffffffffffffffffffffffff1682604051610627906117fb565b60006040518083038185875af1925050503d8060008114610664576040519150601f19603f3d011682016040523d82523d6000602084013e610669565b606091505b50509050806106ad576040517f08c379a00000000000000000000000000000000000000000000000000000000081526004016106a49061185c565b60405180910390fd5b505050565b6060600080600090506000600160009054906101000a900473ffffffffffffffffffffffffffffffffffffffff1673ffffffffffffffffffffffffffffffffffffffff16638c3c4b346040518163ffffffff1660e01b8152600401602060405180830381865afa15801561072a573d6000803e3d6000fd5b505050506040513d601f19601f8201168201806040525081019061074e9190611565565b9050600160009054906101000a900473ffffffffffffffffffffffffffffffffffffffff1673ffffffffffffffffffffffffffffffffffffffff1663ce03ec936040518163ffffffff1660e01b8152600401600060405180830381600087803b1580156107ba57600080fd5b505af19250505080156107cb575060015b6107f65760006040518060600160405280603b8152602001611966603b913990935093505050610ba5565b6000600160009054906101000a900473ffffffffffffffffffffffffffffffffffffffff1673ffffffffffffffffffffffffffffffffffffffff16638c3c4b346040518163ffffffff1660e01b8152600401602060405180830381865afa158015610865573d6000803e3d6000fd5b505050506040513d601f19601f820116820180604052508101906108899190611565565b9050811515811515036108be5760006040518060600160405280602f81526020016119fc602f91399094509450505050610ba5565b82806108c9906118ab565b935050801561097a57600160009054906101000a900473ffffffffffffffffffffffffffffffffffffffff1673ffffffffffffffffffffffffffffffffffffffff1663ce03ec936040518163ffffffff1660e01b8152600401600060405180830381600087803b15801561093c57600080fd5b505af192505050801561094d575060015b6109795760006040518060600160405280603b8152602001611966603b91399094509450505050610ba5565b5b600160009054906101000a900473ffffffffffffffffffffffffffffffffffffffff1673ffffffffffffffffffffffffffffffffffffffff16636a627842662386f26fc10000306040518363ffffffff1660e01b81526004016109dd919061151e565b60206040518083038185885af193505050508015610a1957506040513d601f19601f82011682018060405250810190610a169190611908565b60015b610a30578280610a28906118ab565b935050610a32565b505b60001515600160009054906101000a900473ffffffffffffffffffffffffffffffffffffffff1673ffffffffffffffffffffffffffffffffffffffff16638c3c4b346040518163ffffffff1660e01b8152600401602060405180830381865afa158015610aa3573d6000803e3d6000fd5b505050506040513d601f19601f82011682018060405250810190610ac79190611565565b151503610b5157600160009054906101000a900473ffffffffffffffffffffffffffffffffffffffff1673ffffffffffffffffffffffffffffffffffffffff1663ce03ec936040518163ffffffff1660e01b8152600401600060405180830381600087803b158015610b3857600080fd5b505af1158015610b4c573d6000803e3d6000fd5b505050505b60028303610b815760016040518060600160405280602781526020016119d5602791399094509450505050610ba5565b60006040518060600160405280603481526020016119a16034913990945094505050505b9091565b816000806101000a81548173ffffffffffffffffffffffffffffffffffffffff021916908373ffffffffffffffffffffffffffffffffffffffff1602179055506000610bf36102af565b90508073ffffffffffffffffffffffffffffffffffffffff16637fb99b9330846040518363ffffffff1660e01b8152600401610c30929190611935565b600060405180830381600087803b158015610c4a57600080fd5b505af1158015610c5e573d6000803e3d6000fd5b50505050505050565b6000604051905090565b600080fd5b600080fd5b600073ffffffffffffffffffffffffffffffffffffffff82169050919050565b6000610ca682610c7b565b9050919050565b610cb681610c9b565b8114610cc157600080fd5b50565b600081359050610cd381610cad565b92915050565b60008060408385031215610cf057610cef610c71565b5b6000610cfe85828601610cc4565b9250506020610d0f85828601610cc4565b9150509250929050565b600080fd5b600080fd5b6000601f19601f8301169050919050565b7f4e487b7100000000000000000000000000000000000000000000000000000000600052604160045260246000fd5b610d6c82610d23565b810181811067ffffffffffffffff82111715610d8b57610d8a610d34565b5b80604052505050565b6000610d9e610c67565b9050610daa8282610d63565b919050565b600067ffffffffffffffff821115610dca57610dc9610d34565b5b610dd382610d23565b9050602081019050919050565b82818337600083830152505050565b6000610e02610dfd84610daf565b610d94565b905082815260208101848484011115610e1e57610e1d610d1e565b5b610e29848285610de0565b509392505050565b600082601f830112610e4657610e45610d19565b5b8135610e56848260208601610def565b91505092915050565b600080600060608486031215610e7857610e77610c71565b5b600084013567ffffffffffffffff811115610e9657610e95610c76565b5b610ea286828701610e31565b935050602084013567ffffffffffffffff811115610ec357610ec2610c76565b5b610ecf86828701610e31565b925050604084013567ffffffffffffffff811115610ef057610eef610c76565b5b610efc86828701610e31565b9150509250925092565b600081519050919050565b600082825260208201905092915050565b60005b83811015610f40578082015181840152602081019050610f25565b60008484015250505050565b6000610f5782610f06565b610f618185610f11565b9350610f71818560208601610f22565b610f7a81610d23565b840191505092915050565b60006020820190508181036000830152610f9f8184610f4c565b905092915050565b6000819050919050565b6000610fcc610fc7610fc284610c7b565b610fa7565b610c7b565b9050919050565b6000610fde82610fb1565b9050919050565b6000610ff082610fd3565b9050919050565b61100081610fe5565b82525050565b600060208201905061101b6000830184610ff7565b92915050565b6000806000806080858703121561103b5761103a610c71565b5b600085013567ffffffffffffffff81111561105957611058610c76565b5b61106587828801610e31565b945050602085013567ffffffffffffffff81111561108657611085610c76565b5b61109287828801610e31565b935050604085013567ffffffffffffffff8111156110b3576110b2610c76565b5b6110bf87828801610e31565b925050606085013567ffffffffffffffff8111156110e0576110df610c76565b5b6110ec87828801610e31565b91505092959194509250565b6000806040838503121561110f5761110e610c71565b5b600083013567ffffffffffffffff81111561112d5761112c610c76565b5b61113985828601610e31565b925050602083013567ffffffffffffffff81111561115a57611159610c76565b5b61116685828601610e31565b9150509250929050565b60008115159050919050565b61118581611170565b82525050565b60006020820190506111a0600083018461117c565b92915050565b60006111b182610c7b565b9050919050565b6111c1816111a6565b81146111cc57600080fd5b50565b6000813590506111de816111b8565b92915050565b6000819050919050565b6111f7816111e4565b811461120257600080fd5b50565b600081359050611214816111ee565b92915050565b6000806040838503121561123157611230610c71565b5b600061123f858286016111cf565b925050602061125085828601611205565b9150509250929050565b600060408201905081810360008301526112748185610f4c565b9050611283602083018461117c565b9392505050565b600080604083850312156112a1576112a0610c71565b5b60006112af85828601610cc4565b925050602083013567ffffffffffffffff8111156112d0576112cf610c76565b5b6112dc85828601610e31565b9150509250929050565b600081905092915050565b60006112fc82610f06565b61130681856112e6565b9350611316818560208601610f22565b80840191505092915050565b7f3a20000000000000000000000000000000000000000000000000000000000000600082015250565b60006113586002836112e6565b915061136382611322565b600282019050919050565b7f203e200000000000000000000000000000000000000000000000000000000000600082015250565b60006113a46003836112e6565b91506113af8261136e565b600382019050919050565b60006113c682866112f1565b91506113d18261134b565b91506113dd82856112f1565b91506113e882611397565b91506113f482846112f1565b9150819050949350505050565b7f2045787065637465643a20000000000000000000000000000000000000000000600082015250565b6000611437600b836112e6565b915061144282611401565b600b82019050919050565b7f2041637475616c3a200000000000000000000000000000000000000000000000600082015250565b60006114836009836112e6565b915061148e8261144d565b600982019050919050565b60006114a582876112f1565b91506114b08261134b565b91506114bc82866112f1565b91506114c78261142a565b91506114d382856112f1565b91506114de82611476565b91506114ea82846112f1565b915081905095945050505050565b600061150482846112f1565b915081905092915050565b61151881610c9b565b82525050565b6000602082019050611533600083018461150f565b92915050565b61154281611170565b811461154d57600080fd5b50565b60008151905061155f81611539565b92915050565b60006020828403121561157b5761157a610c71565b5b600061158984828501611550565b91505092915050565b7f4f6e6c7920636f6e74726163742061646d696e2063616e20776974686472617760008201527f2066756e64730000000000000000000000000000000000000000000000000000602082015250565b60006115ee602683610f11565b91506115f982611592565b604082019050919050565b6000602082019050818103600083015261161d816115e1565b9050919050565b7f496e76616c696420616464726573730000000000000000000000000000000000600082015250565b600061165a600f83610f11565b915061166582611624565b602082019050919050565b600060208201905081810360008301526116898161164d565b9050919050565b600061169b82610fd3565b9050919050565b6116ab81611690565b82525050565b60006020820190506116c660008301846116a2565b92915050565b7f46756e64732063616e206f6e6c792062652077697468647261776e20746f206160008201527f646d696e2c206d73672e73656e646572206f722074782e6f726967696e000000602082015250565b6000611728603d83610f11565b9150611733826116cc565b604082019050919050565b600060208201905081810360008301526117578161171b565b9050919050565b7f496e73756666696369656e742066756e64730000000000000000000000000000600082015250565b6000611794601283610f11565b915061179f8261175e565b602082019050919050565b600060208201905081810360008301526117c381611787565b9050919050565b600081905092915050565b50565b60006117e56000836117ca565b91506117f0826117d5565b600082019050919050565b6000611806826117d8565b9150819050919050565b7f5472616e73666572206661696c65642e00000000000000000000000000000000600082015250565b6000611846601083610f11565b915061185182611810565b602082019050919050565b6000602082019050818103600083015261187581611839565b9050919050565b7f4e487b7100000000000000000000000000000000000000000000000000000000600052601160045260246000fd5b60006118b6826111e4565b91507fffffffffffffffffffffffffffffffffffffffffffffffffffffffffffffffff82036118e8576118e761187c565b5b600182019050919050565b600081519050611902816111ee565b92915050565b60006020828403121561191e5761191d610c71565b5b600061192c848285016118f3565b91505092915050565b600060408201905061194a600083018561150f565b818103602083015261195c8184610f4c565b9050939250505056fe4572726f72202845786572636973652045293a204572726f7220776974682074686520666c697053616c655374617475732066756e6374696f6e214572726f72202845786572636973652045293a20536f6d6520746573747320696e2045786572636973652045206661696c656421506173736564202845786572636973652045293a204578657263697365204520706173736564214572726f72202845786572636973652045293a2053616c6520737461747573206973206e6f7420666c697070656421a26469706673582212205dd0450b832f3602519b1306951a2fab71fd8fa8e5ee1027bca16704306da1d364736f6c63430008110033535332332041737369676e6d656e7420312056616c696461746f7220436f6e7472616374202d205461736b204560806040526000600260146101000a81548160ff0219169083151502179055503480156200002c57600080fd5b5060405162001e7d38038062001e7d8339818101604052810190620000529190620001e1565b6200007d816040518060600160405280602d815260200162001e50602d91396200008460201b60201c565b50620002f2565b816000806101000a81548173ffffffffffffffffffffffffffffffffffffffff021916908373ffffffffffffffffffffffffffffffffffffffff1602179055506000620000d66200014e60201b60201c565b90508073ffffffffffffffffffffffffffffffffffffffff16637fb99b9330846040518363ffffffff1660e01b815260040162000115929190620002be565b600060405180830381600087803b1580156200013057600080fd5b505af115801562000145573d6000803e3d6000fd5b50505050505050565b60008060009054906101000a900473ffffffffffffffffffffffffffffffffffffffff16905090565b600080fd5b600073ffffffffffffffffffffffffffffffffffffffff82169050919050565b6000620001a9826200017c565b9050919050565b620001bb816200019c565b8114620001c757600080fd5b50565b600081519050620001db81620001b0565b92915050565b600060208284031215620001fa57620001f962000177565b5b60006200020a84828501620001ca565b91505092915050565b6200021e816200019c565b82525050565b600081519050919050565b600082825260208201905092915050565b60005b838110156200026057808201518184015260208101905062000243565b60008484015250505050565b6000601f19601f8301169050919050565b60006200028a8262000224565b6200029681856200022f565b9350620002a881856020860162000240565b620002b3816200026c565b840191505092915050565b6000604082019050620002d5600083018562000213565b8181036020830152620002e981846200027d565b90509392505050565b611b4e80620003026000396000f3fe60806040526004361061007f5760003560e01c8063bed34bba1161004e578063bed34bba146101d7578063c107532914610214578063f3e7284e14610230578063fae45fbe1461024f57610104565b806325ba0f51146101095780632b51830114610132578063516cbbe21461016f5780635827a0651461019a57610104565b36610104576000600a9050600a81036100a157808061009d90610b98565b9150505b600b81036100b85780806100b490610b98565b9150505b600c811480156100d45750600d6001826100d29190610be0565b145b156100e85780806100e490610b98565b9150505b6001600260146101000a81548160ff0219169083151502179055005b600080fd5b34801561011557600080fd5b50610130600480360381019061012b9190610c86565b610278565b005b34801561013e57600080fd5b5061015960048036038101906101549190610e0c565b610319565b6040516101669190610f32565b60405180910390f35b34801561017b57600080fd5b50610184610348565b6040516101919190610fb3565b60405180910390f35b3480156101a657600080fd5b506101c160048036038101906101bc9190610fce565b610371565b6040516101ce9190610f32565b60405180910390f35b3480156101e357600080fd5b506101fe60048036038101906101f991906110a5565b6103a3565b60405161020b9190611138565b60405180910390f35b61022e600480360381019061022991906111bd565b6103fc565b005b61023861074b565b6040516102469291906111fd565b60405180910390f35b34801561025b57600080fd5b506102766004803603810190610271919061122d565b610aa1565b005b81600160006101000a81548173ffffffffffffffffffffffffffffffffffffffff021916908373ffffffffffffffffffffffffffffffffffffffff16021790555080600260006101000a81548173ffffffffffffffffffffffffffffffffffffffff021916908373ffffffffffffffffffffffffffffffffffffffff1602179055506000600260146101000a81548160ff0219169083151502179055505050565b60608383836040516020016103309392919061135d565b60405160208183030381529060405290509392505050565b60008060009054906101000a900473ffffffffffffffffffffffffffffffffffffffff16905090565b60608484848460405160200161038a949392919061143c565b6040516020818303038152906040529050949350505050565b6000816040516020016103b6919061149b565b60405160208183030381529060405280519060200120836040516020016103dd919061149b565b6040516020818303038152906040528051906020012014905092915050565b610404610348565b73ffffffffffffffffffffffffffffffffffffffff166324d7806c336040518263ffffffff1660e01b815260040161043c91906114c1565b602060405180830381865afa158015610459573d6000803e3d6000fd5b505050506040513d601f19601f8201168201806040525081019061047d9190611508565b6104bc576040517f08c379a00000000000000000000000000000000000000000000000000000000081526004016104b3906115a7565b60405180910390fd5b600073ffffffffffffffffffffffffffffffffffffffff168273ffffffffffffffffffffffffffffffffffffffff160361052b576040517f08c379a000000000000000000000000000000000000000000000000000000000815260040161052290611613565b60405180910390fd5b3373ffffffffffffffffffffffffffffffffffffffff168273ffffffffffffffffffffffffffffffffffffffff16148061059057503273ffffffffffffffffffffffffffffffffffffffff168273ffffffffffffffffffffffffffffffffffffffff16145b80610618575061059e610348565b73ffffffffffffffffffffffffffffffffffffffff166324d7806c836040518263ffffffff1660e01b81526004016105d69190611654565b602060405180830381865afa1580156105f3573d6000803e3d6000fd5b505050506040513d601f19601f820116820180604052508101906106179190611508565b5b610657576040517f08c379a000000000000000000000000000000000000000000000000000000000815260040161064e906116e1565b60405180910390fd5b4781101561069a576040517f08c379a00000000000000000000000000000000000000000000000000000000081526004016106919061174d565b60405180910390fd5b60008273ffffffffffffffffffffffffffffffffffffffff16826040516106c09061179e565b60006040518083038185875af1925050503d80600081146106fd576040519150601f19603f3d011682016040523d82523d6000602084013e610702565b606091505b5050905080610746576040517f08c379a000000000000000000000000000000000000000000000000000000000815260040161073d906117ff565b60405180910390fd5b505050565b606060008047905060006064905080600160009054906101000a900473ffffffffffffffffffffffffffffffffffffffff1673ffffffffffffffffffffffffffffffffffffffff163110156107c1576000604051806060016040528060358152602001611a306035913990935093505050610a9d565b600160009054906101000a900473ffffffffffffffffffffffffffffffffffffffff1673ffffffffffffffffffffffffffffffffffffffff16632e1a7d4d826040518263ffffffff1660e01b815260040161081c919061182e565b600060405180830381600087803b15801561083657600080fd5b505af1925050508015610847575060015b6108ac57610853611856565b806308c379a0036108a05750610867611878565b8061087257506108a2565b80604051602001610883919061197a565b604051602081830303815290604052600094509450505050610a9d565b505b3d6000803e3d6000fd5b60004790506000600260149054906101000a900460ff166108f0576000604051806060016040528060338152602001611a6560339139909550955050505050610a9d565b80806108fb90610b98565b9150508382111561091957808061091190610b98565b915050610942565b60006040518060600160405280603c8152602001611a98603c9139909550955050505050610a9d565b600260009054906101000a900473ffffffffffffffffffffffffffffffffffffffff1673ffffffffffffffffffffffffffffffffffffffff16634d41d137600160009054906101000a900473ffffffffffffffffffffffffffffffffffffffff166040518263ffffffff1660e01b81526004016109bf91906119bd565b600060405180830381600087803b1580156109d957600080fd5b505af19250505080156109ea575060015b610a015780806109f990610b98565b915050610a2a565b6000604051806080016040528060458152602001611ad460459139909550955050505050610a9d565b60038103610a5b576001604051806060016040528060278152602001611a0960279139909550955050505050610a9d565b505060006040518060400160405280601b81526020017f506173736564202845786572636973652046293a204572726f72210000000000815250909350935050505b9091565b816000806101000a81548173ffffffffffffffffffffffffffffffffffffffff021916908373ffffffffffffffffffffffffffffffffffffffff1602179055506000610aeb610348565b90508073ffffffffffffffffffffffffffffffffffffffff16637fb99b9330846040518363ffffffff1660e01b8152600401610b289291906119d8565b600060405180830381600087803b158015610b4257600080fd5b505af1158015610b56573d6000803e3d6000fd5b50505050505050565b7f4e487b7100000000000000000000000000000000000000000000000000000000600052601160045260246000fd5b6000819050919050565b6000610ba382610b8e565b91507fffffffffffffffffffffffffffffffffffffffffffffffffffffffffffffffff8203610bd557610bd4610b5f565b5b600182019050919050565b6000610beb82610b8e565b9150610bf683610b8e565b9250828201905080821115610c0e57610c0d610b5f565b5b92915050565b6000604051905090565b600080fd5b600080fd5b600073ffffffffffffffffffffffffffffffffffffffff82169050919050565b6000610c5382610c28565b9050919050565b610c6381610c48565b8114610c6e57600080fd5b50565b600081359050610c8081610c5a565b92915050565b60008060408385031215610c9d57610c9c610c1e565b5b6000610cab85828601610c71565b9250506020610cbc85828601610c71565b9150509250929050565b600080fd5b600080fd5b6000601f19601f8301169050919050565b7f4e487b7100000000000000000000000000000000000000000000000000000000600052604160045260246000fd5b610d1982610cd0565b810181811067ffffffffffffffff82111715610d3857610d37610ce1565b5b80604052505050565b6000610d4b610c14565b9050610d578282610d10565b919050565b600067ffffffffffffffff821115610d7757610d76610ce1565b5b610d8082610cd0565b9050602081019050919050565b82818337600083830152505050565b6000610daf610daa84610d5c565b610d41565b905082815260208101848484011115610dcb57610dca610ccb565b5b610dd6848285610d8d565b509392505050565b600082601f830112610df357610df2610cc6565b5b8135610e03848260208601610d9c565b91505092915050565b600080600060608486031215610e2557610e24610c1e565b5b600084013567ffffffffffffffff811115610e4357610e42610c23565b5b610e4f86828701610dde565b935050602084013567ffffffffffffffff811115610e7057610e6f610c23565b5b610e7c86828701610dde565b925050604084013567ffffffffffffffff811115610e9d57610e9c610c23565b5b610ea986828701610dde565b9150509250925092565b600081519050919050565b600082825260208201905092915050565b60005b83811015610eed578082015181840152602081019050610ed2565b60008484015250505050565b6000610f0482610eb3565b610f0e8185610ebe565b9350610f1e818560208601610ecf565b610f2781610cd0565b840191505092915050565b60006020820190508181036000830152610f4c8184610ef9565b905092915050565b6000819050919050565b6000610f79610f74610f6f84610c28565b610f54565b610c28565b9050919050565b6000610f8b82610f5e565b9050919050565b6000610f9d82610f80565b9050919050565b610fad81610f92565b82525050565b6000602082019050610fc86000830184610fa4565b92915050565b60008060008060808587031215610fe857610fe7610c1e565b5b600085013567ffffffffffffffff81111561100657611005610c23565b5b61101287828801610dde565b945050602085013567ffffffffffffffff81111561103357611032610c23565b5b61103f87828801610dde565b935050604085013567ffffffffffffffff8111156110605761105f610c23565b5b61106c87828801610dde565b925050606085013567ffffffffffffffff81111561108d5761108c610c23565b5b61109987828801610dde565b91505092959194509250565b600080604083850312156110bc576110bb610c1e565b5b600083013567ffffffffffffffff8111156110da576110d9610c23565b5b6110e685828601610dde565b925050602083013567ffffffffffffffff81111561110757611106610c23565b5b61111385828601610dde565b9150509250929050565b60008115159050919050565b6111328161111d565b82525050565b600060208201905061114d6000830184611129565b92915050565b600061115e82610c28565b9050919050565b61116e81611153565b811461117957600080fd5b50565b60008135905061118b81611165565b92915050565b61119a81610b8e565b81146111a557600080fd5b50565b6000813590506111b781611191565b92915050565b600080604083850312156111d4576111d3610c1e565b5b60006111e28582860161117c565b92505060206111f3858286016111a8565b9150509250929050565b600060408201905081810360008301526112178185610ef9565b90506112266020830184611129565b9392505050565b6000806040838503121561124457611243610c1e565b5b600061125285828601610c71565b925050602083013567ffffffffffffffff81111561127357611272610c23565b5b61127f85828601610dde565b9150509250929050565b600081905092915050565b600061129f82610eb3565b6112a98185611289565b93506112b9818560208601610ecf565b80840191505092915050565b7f3a20000000000000000000000000000000000000000000000000000000000000600082015250565b60006112fb600283611289565b9150611306826112c5565b600282019050919050565b7f203e200000000000000000000000000000000000000000000000000000000000600082015250565b6000611347600383611289565b915061135282611311565b600382019050919050565b60006113698286611294565b9150611374826112ee565b91506113808285611294565b915061138b8261133a565b91506113978284611294565b9150819050949350505050565b7f2045787065637465643a20000000000000000000000000000000000000000000600082015250565b60006113da600b83611289565b91506113e5826113a4565b600b82019050919050565b7f2041637475616c3a200000000000000000000000000000000000000000000000600082015250565b6000611426600983611289565b9150611431826113f0565b600982019050919050565b60006114488287611294565b9150611453826112ee565b915061145f8286611294565b915061146a826113cd565b91506114768285611294565b915061148182611419565b915061148d8284611294565b915081905095945050505050565b60006114a78284611294565b915081905092915050565b6114bb81610c48565b82525050565b60006020820190506114d660008301846114b2565b92915050565b6114e58161111d565b81146114f057600080fd5b50565b600081519050611502816114dc565b92915050565b60006020828403121561151e5761151d610c1e565b5b600061152c848285016114f3565b91505092915050565b7f4f6e6c7920636f6e74726163742061646d696e2063616e20776974686472617760008201527f2066756e64730000000000000000000000000000000000000000000000000000602082015250565b6000611591602683610ebe565b915061159c82611535565b604082019050919050565b600060208201905081810360008301526115c081611584565b9050919050565b7f496e76616c696420616464726573730000000000000000000000000000000000600082015250565b60006115fd600f83610ebe565b9150611608826115c7565b602082019050919050565b6000602082019050818103600083015261162c816115f0565b9050919050565b600061163e82610f80565b9050919050565b61164e81611633565b82525050565b60006020820190506116696000830184611645565b92915050565b7f46756e64732063616e206f6e6c792062652077697468647261776e20746f206160008201527f646d696e2c206d73672e73656e646572206f722074782e6f726967696e000000602082015250565b60006116cb603d83610ebe565b91506116d68261166f565b604082019050919050565b600060208201905081810360008301526116fa816116be565b9050919050565b7f496e73756666696369656e742066756e64730000000000000000000000000000600082015250565b6000611737601283610ebe565b915061174282611701565b602082019050919050565b600060208201905081810360008301526117668161172a565b9050919050565b600081905092915050565b50565b600061178860008361176d565b915061179382611778565b600082019050919050565b60006117a98261177b565b9150819050919050565b7f5472616e73666572206661696c65642e00000000000000000000000000000000600082015250565b60006117e9601083610ebe565b91506117f4826117b3565b602082019050919050565b60006020820190508181036000830152611818816117dc565b9050919050565b61182881610b8e565b82525050565b6000602082019050611843600083018461181f565b92915050565b60008160e01c9050919050565b600060033d11156118755760046000803e611872600051611849565b90505b90565b600060443d106119055761188a610c14565b60043d036004823e80513d602482011167ffffffffffffffff821117156118b2575050611905565b808201805167ffffffffffffffff8111156118d05750505050611905565b80602083010160043d0385018111156118ed575050505050611905565b6118fc82602001850186610d10565b82955050505050505b90565b7f4572726f72202845786572636973652046293a204572726f722077697468207460008201527f68652077697468647261772066756e6374696f6e212000000000000000000000602082015250565b6000611964603683611289565b915061196f82611908565b603682019050919050565b600061198582611957565b91506119918284611294565b915081905092915050565b60006119a782610f80565b9050919050565b6119b78161199c565b82525050565b60006020820190506119d260008301846119ae565b92915050565b60006040820190506119ed60008301856114b2565b81810360208301526119ff8184610ef9565b9050939250505056fe506173736564202845786572636973652046293a204578657263697365204620706173736564214572726f72202845786572636973652046293a204e6f7420656e6f7567682066756e647320696e2074686520636f6e7472616374214572726f72202845786572636973652046293a20436f72726563742065746865722073656e64696e67206e6f742075736564214572726f72202845786572636973652046293a2045746865722062616c616e6365206f66206f776e6572206973206e6f7420696e63726561736564214572726f72202845786572636973652046293a2057697468647261772066756e6374696f6e206973206e6f74207265737472696374656420746f20746865206f776e657221a26469706673582212201e4af549e5e6260f8a0ca2e88164df419fee29ebb6b7f52b67bc86e2cb3c8cba64736f6c63430008110033535332332041737369676e6d656e7420312056616c696461746f7220436f6e7472616374202d205461736b2046608060405234801561001057600080fd5b506102db806100206000396000f3fe60806040526004361061002d5760003560e01c806318400ff0146100365780634d41d1371461005257610034565b3661003457005b005b610050600480360381019061004b919061020e565b61006e565b005b61006c6004803603810190610067919061024e565b6100de565b005b8173ffffffffffffffffffffffffffffffffffffffff166342966c6834836040518363ffffffff1660e01b81526004016100a8919061028a565b6000604051808303818588803b1580156100c157600080fd5b505af11580156100d5573d6000803e3d6000fd5b50505050505050565b8073ffffffffffffffffffffffffffffffffffffffff16632e1a7d4d8273ffffffffffffffffffffffffffffffffffffffff16316040518263ffffffff1660e01b815260040161012e919061028a565b600060405180830381600087803b15801561014857600080fd5b505af115801561015c573d6000803e3d6000fd5b5050505050565b600080fd5b600073ffffffffffffffffffffffffffffffffffffffff82169050919050565b600061019382610168565b9050919050565b60006101a582610188565b9050919050565b6101b58161019a565b81146101c057600080fd5b50565b6000813590506101d2816101ac565b92915050565b6000819050919050565b6101eb816101d8565b81146101f657600080fd5b50565b600081359050610208816101e2565b92915050565b6000806040838503121561022557610224610163565b5b6000610233858286016101c3565b9250506020610244858286016101f9565b9150509250929050565b60006020828403121561026457610263610163565b5b6000610272848285016101c3565b91505092915050565b610284816101d8565b82525050565b600060208201905061029f600083018461027b565b9291505056fea2646970667358221220685cf5f276cbaac384d2d3c07034d488a955ec0a9c40125bd717c8d3d64e88c164736f6c63430008110033535332332041737369676e6d656e7420312056616c696461746f7220436f6e7472616374202d2042617365",
  "immutableReferences": {},
  "source": "// SPDX-License-Identifier: MIT\r\npragma solidity ^0.8.17;\r\n\r\n// Import the IAssignment1.sol\r\nimport \"./interface/IAssignment1.sol\";\r\n\r\n// Import the base assignment validator contract\r\nimport \"../../contracts/BaseValidator.sol\";\r\n\r\nimport \"../../node_modules/@openzeppelin/contracts/token/ERC721/utils/ERC721Holder.sol\";\r\n\r\n// Import Task A, B, C\r\nimport \"./Validator1TaskA.sol\";\r\nimport \"./Validator1TaskB.sol\";\r\nimport \"./Validator1TaskC.sol\";\r\nimport \"./Validator1TaskD.sol\";\r\nimport \"./Validator1TaskE.sol\";\r\nimport \"./Validator1TaskF.sol\";\r\n\r\n// Give the contract a name and inherit from the base assignment validator\r\ncontract Validator1 is BaseValidator, ERC721Holder {\r\n    // Contract to validate\r\n    IAssignment1 assignmentContract;\r\n\r\n    // Task A, B, C\r\n    Validator1TaskA validatorTaskA;\r\n    Validator1TaskB validatorTaskB;\r\n    Validator1TaskC validatorTaskC;\r\n    Validator1TaskD validatorTaskD;\r\n    Validator1TaskE validatorTaskE;\r\n    Validator1TaskF validatorTaskF;\r\n\r\n    // Contract to help as not authorized user\r\n    Validator1Helper validator1Helper;\r\n\r\n    // Import empty constructor and pass the name of the contract to the config storage contract\r\n    constructor(address _configContractAddress)\r\n        BaseValidator(\r\n            _configContractAddress,\r\n            \"SS23 Assignment 1 Validator Contract - Base\",\r\n            0.2 ether\r\n        )\r\n    {\r\n        // Task A, B, C, D, E, F\r\n        validatorTaskA = new Validator1TaskA(_configContractAddress);\r\n        validatorTaskB = new Validator1TaskB(_configContractAddress);\r\n        validatorTaskC = new Validator1TaskC(_configContractAddress);\r\n        validatorTaskD = new Validator1TaskD(_configContractAddress);\r\n        validatorTaskE = new Validator1TaskE(_configContractAddress);\r\n        validatorTaskF = new Validator1TaskF(_configContractAddress);\r\n\r\n        // Assign contracts to the list of helper contracts\r\n        addHelperContracts(address(validatorTaskA));\r\n        addHelperContracts(address(validatorTaskB));\r\n        addHelperContracts(address(validatorTaskC));\r\n        addHelperContracts(address(validatorTaskD));\r\n        addHelperContracts(address(validatorTaskE));\r\n        addHelperContracts(address(validatorTaskF));\r\n\r\n        // Set validator extend address\r\n        validator1Helper = new Validator1Helper();\r\n        // Intentionally not added to the list of helper contracts --> to test \"not authorized\" function\r\n    }\r\n\r\n    // Test the assignment\r\n    function test(address _contractAddress)\r\n        public\r\n        payable\r\n        override(BaseValidator)\r\n        returns (uint256)\r\n    {\r\n        /**\r\n         *  Create a new history entry in the smart contract\r\n         *\r\n         *  The history entry is used to store the results of the tests.\r\n         *  Always use this index in the further functions.\r\n         */\r\n        uint256 testId = createTestHistory(_contractAddress);\r\n\r\n        // Call the contract interface which needs to be tested and store it in the variable assignmentContract\r\n        assignmentContract = IAssignment1(_contractAddress);\r\n\r\n        /*----------  EXERCISE A  ----------*/\r\n        validatorTaskA.initContract(\r\n            _contractAddress,\r\n            address(validator1Helper)\r\n        );\r\n\r\n        if (\r\n            hasFunction(address(validatorTaskA), \"testExerciseA()\", 0.01 ether)\r\n        ) {\r\n            (string memory messageA, bool resultA) = validatorTaskA\r\n                .testExerciseA{value: 0.01 ether}();\r\n\r\n            if (resultA) {\r\n                // If the test passed, add the result to the history\r\n                appendTestResult(messageA, true, 3);\r\n            } else {\r\n                // If the test failed, add the result to the history\r\n                appendTestResult(messageA, false, 0);\r\n            }\r\n        } else {\r\n            appendTestResult(\r\n                \"Exercise A: Some of the required functions are not correctly implemented. Validation not possible!\",\r\n                false,\r\n                0\r\n            );\r\n        }\r\n\r\n        /*----------  EXERCISE B  ----------*/\r\n        validatorTaskB.initContract(\r\n            _contractAddress,\r\n            address(validator1Helper)\r\n        );\r\n\r\n        if (\r\n            hasFunction(address(validatorTaskB), \"testExerciseB()\", 0.01 ether)\r\n        ) {\r\n            (string memory messageB, bool resultB) = validatorTaskB\r\n                .testExerciseB{value: 0.01 ether}();\r\n\r\n            if (resultB) {\r\n                // If the test passed, add the result to the history\r\n                appendTestResult(messageB, true, 3);\r\n            } else {\r\n                // If the test failed, add the result to the history\r\n                appendTestResult(messageB, false, 0);\r\n            }\r\n        } else {\r\n            appendTestResult(\r\n                \"Exercise B: Some of the required functions are not correctly implemented. Validation not possible!\",\r\n                false,\r\n                0\r\n            );\r\n        }\r\n\r\n        /*----------  EXERCISE C  ----------*/\r\n        validatorTaskC.initContract(\r\n            _contractAddress,\r\n            address(validator1Helper)\r\n        );\r\n\r\n        if (\r\n            hasFunction(address(validatorTaskC), \"testExerciseC()\", 0.01 ether)\r\n        ) {\r\n            (string memory messageC, bool resultC) = validatorTaskC\r\n                .testExerciseC{value: 0.01 ether}();\r\n\r\n            if (resultC) {\r\n                // If the test passed, add the result to the history\r\n                appendTestResult(messageC, true, 1);\r\n            } else {\r\n                // If the test failed, add the result to the history\r\n                appendTestResult(messageC, false, 0);\r\n            }\r\n        } else {\r\n            appendTestResult(\r\n                \"Exercise C: Some of the required functions are not correctly implemented. Validation not possible!\",\r\n                false,\r\n                0\r\n            );\r\n        }\r\n\r\n        /*----------  EXERCISE D  ----------*/\r\n        validatorTaskD.initContract(\r\n            _contractAddress,\r\n            address(validator1Helper)\r\n        );\r\n\r\n        if (\r\n            hasFunction(address(validatorTaskD), \"testExerciseD()\", 0.05 ether)\r\n        ) {\r\n            (string memory messageD, bool resultD) = validatorTaskD\r\n                .testExerciseD{value: 0.05 ether}();\r\n\r\n            if (resultD) {\r\n                // If the test passed, add the result to the history\r\n                appendTestResult(messageD, true, 1);\r\n            } else {\r\n                // If the test failed, add the result to the history\r\n                appendTestResult(messageD, false, 0);\r\n            }\r\n        } else {\r\n            appendTestResult(\r\n                \"Exercise D: Some of the required functions are not correctly implemented. Validation not possible!\",\r\n                false,\r\n                0\r\n            );\r\n        }\r\n\r\n        /*----------  EXERCISE E  ----------*/\r\n        validatorTaskE.initContract(\r\n            _contractAddress,\r\n            address(validator1Helper)\r\n        );\r\n\r\n        if (\r\n            hasFunction(address(validatorTaskE), \"testExerciseE()\", 0.01 ether)\r\n        ) {\r\n            (string memory messageE, bool resultE) = validatorTaskE\r\n                .testExerciseE{value: 0.01 ether}();\r\n\r\n            if (resultE) {\r\n                // If the test passed, add the result to the history\r\n                appendTestResult(messageE, true, 1);\r\n            } else {\r\n                // If the test failed, add the result to the history\r\n                appendTestResult(messageE, false, 0);\r\n            }\r\n        } else {\r\n            appendTestResult(\r\n                \"Exercise E: Some of the required functions are not correctly implemented. Validation not possible!\",\r\n                false,\r\n                0\r\n            );\r\n        }\r\n\r\n        /*----------  EXERCISE F  ----------*/\r\n        validatorTaskF.initContract(\r\n            _contractAddress,\r\n            address(validator1Helper)\r\n        );\r\n\r\n        if (hasFunction(address(validatorTaskF), \"testExerciseF()\", 0 ether)) {\r\n            (string memory messageF, bool resultF) = validatorTaskF\r\n                .testExerciseF();\r\n\r\n            if (resultF) {\r\n                // If the test passed, add the result to the history\r\n                appendTestResult(messageF, true, 1);\r\n            } else {\r\n                // If the test failed, add the result to the history\r\n                appendTestResult(messageF, false, 0);\r\n            }\r\n        } else {\r\n            appendTestResult(\r\n                \"Exercise F: Some of the required functions are not correctly implemented or wrong ETH sending method used. Validation not possible!\",\r\n                false,\r\n                0\r\n            );\r\n        }\r\n        // Return the history index\r\n        return testId;\r\n    }\r\n}\r\n",
  "sourcePath": "C:\\Users\\jonas\\Repos\\mtp-blockchain\\smart-contracts\\contracts\\assignment_1\\Validator1.sol",
  "compiler": {
    "name": "solc",
    "version": "0.8.17+commit.8df45f5f.Emscripten.clang"
  },
  "schemaVersion": "3.4.11",
  "updatedAt": "2023-02-01T15:34:30.287Z",
  "devdoc": {
    "kind": "dev",
    "methods": {
      "getSubmittedAssignment(address)": {
        "params": {
          "_address": "Student address"
        },
        "returns": {
          "_0": "AssignmentSubmitted"
        }
      },
      "getTestHistoryIndexes(address)": {
        "params": {
          "_address": "Student address"
        },
        "returns": {
          "_0": "testIndexes Array of test history indexes"
        }
      },
      "hasAssignmentSubmitted(address)": {
        "params": {
          "_address": "Student address"
        },
        "returns": {
          "_0": "bool"
        }
      },
      "onERC721Received(address,address,uint256,bytes)": {
        "details": "See {IERC721Receiver-onERC721Received}. Always returns `IERC721Receiver.onERC721Received.selector`."
      },
      "removeSubmittedAssignment(address)": {
        "params": {
          "_address": "Student address"
        }
      },
      "setAssignmentInfos(uint256,uint256)": {
        "params": {
          "assignmentId": "Assignment id",
          "semesterId": "Semester id"
        }
      }
    },
    "version": 1
  },
  "userdoc": {
    "kind": "user",
    "methods": {
      "clearAssignmentInfos()": {
        "notice": "Clear assignment infos"
      },
      "getAssignmentInfos()": {
        "notice": "Get assignment infos"
      },
      "getHistoryCounter()": {
        "notice": "Get test history counter"
      },
      "getRequiredEther()": {
        "notice": "Get required ether This amount of ether is required to submit or test an assignment"
      },
      "getSubmittedAssignment(address)": {
        "notice": "Get submitted assignment for address"
      },
      "getTestHistoryIndexes(address)": {
        "notice": "Get all test history indexes for a student MARK: The array has a fixed size, ignore all number besides 0"
      },
      "hasAssignmentSubmitted(address)": {
        "notice": "Check if assignment is submitted"
      },
      "isAssignmentLinked()": {
        "notice": "Check if assignment is linked to config storage"
      },
      "removeSubmittedAssignment(address)": {
        "notice": "Remove submitted assignment"
      },
      "setAssignmentCreationBlockNumber()": {
        "notice": "Set block number of contract creation"
      },
      "setAssignmentInfos(uint256,uint256)": {
        "notice": "Set assignment infos"
      },
      "setAssignmentOwner()": {
        "notice": "Set admin address"
      }
    },
    "version": 1
  }
}