{
  "contractName": "Validator1Helper",
  "abi": [
    {
      "inputs": [],
      "stateMutability": "nonpayable",
      "type": "constructor"
    },
    {
      "stateMutability": "payable",
      "type": "fallback"
    },
    {
      "stateMutability": "payable",
      "type": "receive"
    },
    {
      "inputs": [
        {
          "internalType": "contract IAssignment1",
          "name": "assingmentContract",
          "type": "address"
        },
        {
          "internalType": "uint256",
          "name": "tokenId",
          "type": "uint256"
        }
      ],
      "name": "burnTestD",
      "outputs": [],
      "stateMutability": "payable",
      "type": "function"
    },
    {
      "inputs": [
        {
          "internalType": "contract IAssignment1",
          "name": "assingmentContract",
          "type": "address"
        }
      ],
      "name": "withdrawTestF",
      "outputs": [],
      "stateMutability": "payable",
      "type": "function"
    }
  ],
  "bytecode": "0x608060405234801561001057600080fd5b506102db806100206000396000f3fe60806040526004361061002d5760003560e01c806318400ff0146100365780634d41d1371461005257610034565b3661003457005b005b610050600480360381019061004b919061020e565b61006e565b005b61006c6004803603810190610067919061024e565b6100de565b005b8173ffffffffffffffffffffffffffffffffffffffff166342966c6834836040518363ffffffff1660e01b81526004016100a8919061028a565b6000604051808303818588803b1580156100c157600080fd5b505af11580156100d5573d6000803e3d6000fd5b50505050505050565b8073ffffffffffffffffffffffffffffffffffffffff16632e1a7d4d8273ffffffffffffffffffffffffffffffffffffffff16316040518263ffffffff1660e01b815260040161012e919061028a565b600060405180830381600087803b15801561014857600080fd5b505af115801561015c573d6000803e3d6000fd5b5050505050565b600080fd5b600073ffffffffffffffffffffffffffffffffffffffff82169050919050565b600061019382610168565b9050919050565b60006101a582610188565b9050919050565b6101b58161019a565b81146101c057600080fd5b50565b6000813590506101d2816101ac565b92915050565b6000819050919050565b6101eb816101d8565b81146101f657600080fd5b50565b600081359050610208816101e2565b92915050565b6000806040838503121561022557610224610163565b5b6000610233858286016101c3565b9250506020610244858286016101f9565b9150509250929050565b60006020828403121561026457610263610163565b5b6000610272848285016101c3565b91505092915050565b610284816101d8565b82525050565b600060208201905061029f600083018461027b565b9291505056fea264697066735822122070090081f183060c9ab3ce6102c4378b4182546095fa022cf51dfff198241a1764736f6c63430008120033",
  "immutableReferences": {},
  "source": "// SPDX-License-Identifier: MIT\r\npragma solidity ^0.8.17;\r\n\r\n// Import the IAssignment1.sol\r\nimport \"./interface/IAssignment1.sol\";\r\n\r\nimport \"../../node_modules/@openzeppelin/contracts/utils/Strings.sol\";\r\n\r\n// This contract acts as player B\r\ncontract Validator1Helper {\r\n    constructor() {}\r\n\r\n    // Function to receive Ether. msg.data must be empty\r\n    receive() external payable {}\r\n\r\n    // Fallback function is called when msg.data is not empty\r\n    fallback() external payable {}\r\n\r\n    // This should fail, because not correct owner\r\n    function burnTestD(IAssignment1 assingmentContract, uint256 tokenId)\r\n        public\r\n        payable\r\n    {\r\n        assingmentContract.burn{value: msg.value}(tokenId);\r\n    }\r\n\r\n    // This should fail, because not correct owner\r\n    function withdrawTestF(IAssignment1 assingmentContract) public payable {\r\n        assingmentContract.withdraw(address(assingmentContract).balance);\r\n    }\r\n}\r\n",
  "sourcePath": "C:\\Users\\jonas\\Repos\\mtp-blockchain\\smart-contracts\\contracts\\assignment_1\\Validator1Helper.sol",
  "compiler": {
    "name": "solc",
    "version": "0.8.18+commit.87f61d96.Emscripten.clang"
  },
  "schemaVersion": "3.4.11",
  "updatedAt": "2023-02-16T19:17:23.706Z",
  "devdoc": {
    "kind": "dev",
    "methods": {},
    "version": 1
  },
  "userdoc": {
    "kind": "user",
    "methods": {},
    "version": 1
  }
}