{
  "contractName": "Validator2TaskE",
  "abi": [
    {
      "inputs": [
        {
          "internalType": "address",
          "name": "_configContractAddress",
          "type": "address"
        }
      ],
      "stateMutability": "nonpayable",
      "type": "constructor"
    },
    {
      "stateMutability": "payable",
      "type": "fallback"
    },
    {
      "inputs": [
        {
          "internalType": "string",
          "name": "_prefix",
          "type": "string"
        },
        {
          "internalType": "string",
          "name": "_message",
          "type": "string"
        },
        {
          "internalType": "string",
          "name": "_errorMsg",
          "type": "string"
        }
      ],
      "name": "buildErrorMessage",
      "outputs": [
        {
          "internalType": "string",
          "name": "",
          "type": "string"
        }
      ],
      "stateMutability": "pure",
      "type": "function"
    },
    {
      "inputs": [
        {
          "internalType": "string",
          "name": "_prefix",
          "type": "string"
        },
        {
          "internalType": "string",
          "name": "_message",
          "type": "string"
        },
        {
          "internalType": "string",
          "name": "_expected",
          "type": "string"
        },
        {
          "internalType": "string",
          "name": "_actual",
          "type": "string"
        }
      ],
      "name": "buildErrorMessageExtended",
      "outputs": [
        {
          "internalType": "string",
          "name": "",
          "type": "string"
        }
      ],
      "stateMutability": "pure",
      "type": "function"
    },
    {
      "inputs": [
        {
          "internalType": "string",
          "name": "a",
          "type": "string"
        },
        {
          "internalType": "string",
          "name": "b",
          "type": "string"
        }
      ],
      "name": "compareStrings",
      "outputs": [
        {
          "internalType": "bool",
          "name": "",
          "type": "bool"
        }
      ],
      "stateMutability": "pure",
      "type": "function"
    },
    {
      "inputs": [],
      "name": "getConfigStorage",
      "outputs": [
        {
          "internalType": "contract ConfigStorage",
          "name": "",
          "type": "address"
        }
      ],
      "stateMutability": "view",
      "type": "function"
    },
    {
      "inputs": [
        {
          "internalType": "address",
          "name": "_configContractAddress",
          "type": "address"
        },
        {
          "internalType": "string",
          "name": "_contractName",
          "type": "string"
        }
      ],
      "name": "initAdmin",
      "outputs": [],
      "stateMutability": "nonpayable",
      "type": "function"
    },
    {
      "inputs": [
        {
          "internalType": "address payable",
          "name": "_to",
          "type": "address"
        },
        {
          "internalType": "uint256",
          "name": "_value",
          "type": "uint256"
        }
      ],
      "name": "withdrawFunds",
      "outputs": [],
      "stateMutability": "payable",
      "type": "function"
    },
    {
      "stateMutability": "payable",
      "type": "receive"
    },
    {
      "inputs": [
        {
          "internalType": "address",
          "name": "_contractAddress",
          "type": "address"
        },
        {
          "internalType": "address",
          "name": "_validatorHelperAddress",
          "type": "address"
        }
      ],
      "name": "initContract",
      "outputs": [],
      "stateMutability": "nonpayable",
      "type": "function"
    },
    {
      "inputs": [],
      "name": "prepareGame",
      "outputs": [
        {
          "internalType": "string",
          "name": "",
          "type": "string"
        },
        {
          "internalType": "bool",
          "name": "",
          "type": "bool"
        }
      ],
      "stateMutability": "payable",
      "type": "function"
    },
    {
      "inputs": [],
      "name": "testExerciseE",
      "outputs": [
        {
          "internalType": "string",
          "name": "",
          "type": "string"
        },
        {
          "internalType": "bool",
          "name": "",
          "type": "bool"
        }
      ],
      "stateMutability": "payable",
      "type": "function"
    },
    {
      "inputs": [],
      "name": "testPrivateGame",
      "outputs": [
        {
          "internalType": "string",
          "name": "",
          "type": "string"
        },
        {
          "internalType": "bool",
          "name": "",
          "type": "bool"
        }
      ],
      "stateMutability": "payable",
      "type": "function"
    },
    {
      "inputs": [],
      "name": "testRevealTimeExceed",
      "outputs": [
        {
          "internalType": "string",
          "name": "",
          "type": "string"
        },
        {
          "internalType": "bool",
          "name": "",
          "type": "bool"
        }
      ],
      "stateMutability": "payable",
      "type": "function"
    }
  ],
  "bytecode": "0x60806040526000600360006101000a81548173ffffffffffffffffffffffffffffffffffffffff021916908373ffffffffffffffffffffffffffffffffffffffff1602179055506000600460006101000a81548173ffffffffffffffffffffffffffffffffffffffff021916908373ffffffffffffffffffffffffffffffffffffffff1602179055503480156200009557600080fd5b5060405162004895380380620048958339818101604052810190620000bb91906200024a565b620000e6816040518060600160405280602d815260200162004868602d9139620000ed60201b60201c565b506200035b565b816000806101000a81548173ffffffffffffffffffffffffffffffffffffffff021916908373ffffffffffffffffffffffffffffffffffffffff16021790555060006200013f620001b760201b60201c565b90508073ffffffffffffffffffffffffffffffffffffffff16637fb99b9330846040518363ffffffff1660e01b81526004016200017e92919062000327565b600060405180830381600087803b1580156200019957600080fd5b505af1158015620001ae573d6000803e3d6000fd5b50505050505050565b60008060009054906101000a900473ffffffffffffffffffffffffffffffffffffffff16905090565b600080fd5b600073ffffffffffffffffffffffffffffffffffffffff82169050919050565b60006200021282620001e5565b9050919050565b620002248162000205565b81146200023057600080fd5b50565b600081519050620002448162000219565b92915050565b600060208284031215620002635762000262620001e0565b5b6000620002738482850162000233565b91505092915050565b620002878162000205565b82525050565b600081519050919050565b600082825260208201905092915050565b60005b83811015620002c9578082015181840152602081019050620002ac565b60008484015250505050565b6000601f19601f8301169050919050565b6000620002f3826200028d565b620002ff818562000298565b935062000311818560208601620002a9565b6200031c81620002d5565b840191505092915050565b60006040820190506200033e60008301856200027c565b8181036020830152620003528184620002e6565b90509392505050565b6144fd806200036b6000396000f3fe6080604052600436106100a05760003560e01c806371349a401161006457806371349a4014610196578063a871e792146101b5578063bed34bba146101d4578063c107532914610211578063db19a5da1461022d578063fae45fbe1461024c576100a7565b806325ba0f51146100a95780632b518301146100d25780634a2f970e1461010f578063516cbbe21461012e5780635827a06514610159576100a7565b366100a757005b005b3480156100b557600080fd5b506100d060048036038101906100cb9190612bfa565b610275565b005b3480156100de57600080fd5b506100f960048036038101906100f49190612d80565b61037d565b6040516101069190612ea6565b60405180910390f35b6101176103ac565b604051610125929190612ee3565b60405180910390f35b34801561013a57600080fd5b50610143610e70565b6040516101509190612f72565b60405180910390f35b34801561016557600080fd5b50610180600480360381019061017b9190612f8d565b610e99565b60405161018d9190612ea6565b60405180910390f35b61019e610ecb565b6040516101ac929190612ee3565b60405180910390f35b6101bd611982565b6040516101cb929190612ee3565b60405180910390f35b3480156101e057600080fd5b506101fb60048036038101906101f69190613064565b612692565b60405161020891906130dc565b60405180910390f35b61022b6004803603810190610226919061316b565b6126eb565b005b610235612a3a565b604051610243929190612ee3565b60405180910390f35b34801561025857600080fd5b50610273600480360381019061026e91906131ab565b612aca565b005b81600160006101000a81548173ffffffffffffffffffffffffffffffffffffffff021916908373ffffffffffffffffffffffffffffffffffffffff16021790555080600260006101000a81548173ffffffffffffffffffffffffffffffffffffffff021916908373ffffffffffffffffffffffffffffffffffffffff16021790555030600360006101000a81548173ffffffffffffffffffffffffffffffffffffffff021916908373ffffffffffffffffffffffffffffffffffffffff16021790555080600460006101000a81548173ffffffffffffffffffffffffffffffffffffffff021916908373ffffffffffffffffffffffffffffffffffffffff1602179055505050565b6060838383604051602001610394939291906132db565b60405160208183030381529060405290509392505050565b60606000600160009054906101000a900473ffffffffffffffffffffffffffffffffffffffff1673ffffffffffffffffffffffffffffffffffffffff16638b680cc36040518163ffffffff1660e01b8152600401600060405180830381600087803b15801561041a57600080fd5b505af192505050801561042b575060015b6104a95761043761332f565b806308c379a00361049d575061044b613351565b80610456575061049f565b61049160405180606001604052806027815260200161410b6027913960405180606001604052806021815260200161403d602191398361037d565b60009250925050610e6c565b505b3d6000803e3d6000fd5b600160009054906101000a900473ffffffffffffffffffffffffffffffffffffffff1673ffffffffffffffffffffffffffffffffffffffff1663a8c3c85060646040518263ffffffff1660e01b8152600401610505919061341c565b600060405180830381600087803b15801561051f57600080fd5b505af1158015610533573d6000803e3d6000fd5b50505050600160009054906101000a900473ffffffffffffffffffffffffffffffffffffffff1673ffffffffffffffffffffffffffffffffffffffff16631b93194e60016040518263ffffffff1660e01b815260040161059391906134be565b600060405180830381600087803b1580156105ad57600080fd5b505af11580156105c1573d6000803e3d6000fd5b505050506000806105d0610ecb565b91509150806105e757816000935093505050610e6c565b600060405180606001604052806040815260200161428e60409139905060006040518060600160405280604081526020016141326040913990506000826040516020016106349190613538565b60405160208183030381529060405280519060200120905060008260405160200161065f91906135a6565b604051602081830303815290604052805190602001209050600160009054906101000a900473ffffffffffffffffffffffffffffffffffffffff1673ffffffffffffffffffffffffffffffffffffffff16632853720c836040518263ffffffff1660e01b81526004016106d291906135e1565b600060405180830381600087803b1580156106ec57600080fd5b505af19250505080156106fd575060015b6107815761070961332f565b806308c379a003610775575061071d613351565b806107285750610777565b61076360405180606001604052806027815260200161410b602791396040518060600160405280602f815260200161425f602f91398361037d565b60009850985050505050505050610e6c565b505b3d6000803e3d6000fd5b6000600360009054906101000a900473ffffffffffffffffffffffffffffffffffffffff1673ffffffffffffffffffffffffffffffffffffffff16319050600260009054906101000a900473ffffffffffffffffffffffffffffffffffffffff1673ffffffffffffffffffffffffffffffffffffffff1663e6562c89600160009054906101000a900473ffffffffffffffffffffffffffffffffffffffff16846040518363ffffffff1660e01b815260040161083e92919061361d565b600060405180830381600087803b15801561085857600080fd5b505af1925050508015610869575060015b6108ee5761087561332f565b806308c379a0036108e25750610889613351565b8061089457506108e4565b6108cf60405180606001604052806027815260200161410b602791396040518060600160405280602f81526020016143fe602f91398361037d565b6000995099505050505050505050610e6c565b505b3d6000803e3d6000fd5b600160009054906101000a900473ffffffffffffffffffffffffffffffffffffffff1673ffffffffffffffffffffffffffffffffffffffff16635ba1b2c7866040518263ffffffff1660e01b81526004016109499190613692565b600060405180830381600087803b15801561096357600080fd5b505af1925050508015610974575060015b6109f95761098061332f565b806308c379a0036109ed5750610994613351565b8061099f57506109ef565b6109da60405180606001604052806027815260200161410b602791396040518060600160405280602a8152602001613fa5602a91398361037d565b6000995099505050505050505050610e6c565b505b3d6000803e3d6000fd5b60001515610ad1600160009054906101000a900473ffffffffffffffffffffffffffffffffffffffff1673ffffffffffffffffffffffffffffffffffffffff16631865c57d6040518163ffffffff1660e01b8152600401600060405180830381865afa158015610a6d573d6000803e3d6000fd5b505050506040513d6000823e3d601f19601f82011682018060405250810190610a969190613737565b6040518060400160405280600981526020017f72657665616c696e670000000000000000000000000000000000000000000000815250612692565b151503610b045760006040518060e0016040528060a2815260200161435c60a29139909850985050505050505050610e6c565b600160009054906101000a900473ffffffffffffffffffffffffffffffffffffffff1673ffffffffffffffffffffffffffffffffffffffff1663a8c3c85060696040518263ffffffff1660e01b8152600401610b6091906137bb565b600060405180830381600087803b158015610b7a57600080fd5b505af1158015610b8e573d6000803e3d6000fd5b50505050600260009054906101000a900473ffffffffffffffffffffffffffffffffffffffff1673ffffffffffffffffffffffffffffffffffffffff1663022c348f600160009054906101000a900473ffffffffffffffffffffffffffffffffffffffff16866040518363ffffffff1660e01b8152600401610c11929190613822565b600060405180830381600087803b158015610c2b57600080fd5b505af1925050508015610c3c575060015b610cc157610c4861332f565b806308c379a003610cb55750610c5c613351565b80610c675750610cb7565b610ca260405180606001604052806027815260200161410b602791396040518060600160405280602a8152602001614332602a91398361037d565b6000995099505050505050505050610e6c565b505b3d6000803e3d6000fd5b6000600360009054906101000a900473ffffffffffffffffffffffffffffffffffffffff1673ffffffffffffffffffffffffffffffffffffffff16319050818111610d335760006040518060c00160405280609b815260200161442d609b913990995099505050505050505050610e6c565b600160009054906101000a900473ffffffffffffffffffffffffffffffffffffffff1673ffffffffffffffffffffffffffffffffffffffff16638b680cc36040518163ffffffff1660e01b8152600401600060405180830381600087803b158015610d9d57600080fd5b505af1158015610db1573d6000803e3d6000fd5b50505050600160009054906101000a900473ffffffffffffffffffffffffffffffffffffffff1673ffffffffffffffffffffffffffffffffffffffff16631b93194e600a6040518263ffffffff1660e01b8152600401610e1191906138a0565b600060405180830381600087803b158015610e2b57600080fd5b505af1158015610e3f573d6000803e3d6000fd5b5050505060016040518060600160405280602c8152602001614207602c9139909950995050505050505050505b9091565b60008060009054906101000a900473ffffffffffffffffffffffffffffffffffffffff16905090565b606084848484604051602001610eb29493929190613966565b6040516020818303038152906040529050949350505050565b60606000600160009054906101000a900473ffffffffffffffffffffffffffffffffffffffff1673ffffffffffffffffffffffffffffffffffffffff16638b680cc36040518163ffffffff1660e01b8152600401600060405180830381600087803b158015610f3957600080fd5b505af1925050508015610f4a575060015b610fe557610f5661332f565b806308c379a003610fd95750610f6a613351565b80610f755750610fdb565b610fcd6040518060400160405280601281526020017f4572726f7220284578657263697365204529000000000000000000000000000081525060405180606001604052806021815260200161403d602191398361037d565b6000925092505061197e565b505b3d6000803e3d6000fd5b6000600160009054906101000a900473ffffffffffffffffffffffffffffffffffffffff1673ffffffffffffffffffffffffffffffffffffffff1663944ccc376040518163ffffffff1660e01b8152600401602060405180830381865afa158015611054573d6000803e3d6000fd5b505050506040513d601f19601f8201168201806040525081019061107891906139da565b9050600160009054906101000a900473ffffffffffffffffffffffffffffffffffffffff1673ffffffffffffffffffffffffffffffffffffffff16631865c57d6040518163ffffffff1660e01b8152600401600060405180830381865afa92505050801561110957506040513d6000823e3d601f19601f820116820180604052508101906111069190613737565b60015b6111c25761111561332f565b806308c379a0036111b65750611129613351565b8061113457506111b8565b6111a96040518060400160405280601281526020017f4572726f722028457865726369736520452900000000000000000000000000008152506040518060400160405280601f81526020017f4572726f72207769746820676574537461746528292066756e6374696f6e2e008152508361037d565b600093509350505061197e565b505b3d6000803e3d6000fd5b611201816040518060400160405280600781526020017f77616974696e6700000000000000000000000000000000000000000000000000815250612692565b61122c5760006040518060600160405280602c8152602001614233602c91399093509350505061197e565b50600160009054906101000a900473ffffffffffffffffffffffffffffffffffffffff1673ffffffffffffffffffffffffffffffffffffffff1663be9a655566038d7ea4c680006040518263ffffffff1660e01b815260040160206040518083038185885af1935050505080156112c157506040513d601f19601f820116820180604052508101906112be91906139da565b60015b61137a576112cd61332f565b806308c379a00361136e57506112e1613351565b806112ec5750611370565b6113616040518060400160405280601281526020017f4572726f722028457865726369736520452900000000000000000000000000008152506040518060400160405280601c81526020017f4572726f72207769746820737461727428292066756e6374696f6e2e000000008152508361037d565b600093509350505061197e565b505b3d6000803e3d6000fd5b600181146113a95760006040518060600160405280602b8152602001613f4c602b91399093509350505061197e565b506001816113b79190613a36565b600160009054906101000a900473ffffffffffffffffffffffffffffffffffffffff1673ffffffffffffffffffffffffffffffffffffffff1663944ccc376040518163ffffffff1660e01b8152600401602060405180830381865afa158015611424573d6000803e3d6000fd5b505050506040513d601f19601f8201168201806040525081019061144891906139da565b146114735760006040518060600160405280603681526020016140ab6036913990925092505061197e565b611547600160009054906101000a900473ffffffffffffffffffffffffffffffffffffffff1673ffffffffffffffffffffffffffffffffffffffff16631865c57d6040518163ffffffff1660e01b8152600401600060405180830381865afa1580156114e3573d6000803e3d6000fd5b505050506040513d6000823e3d601f19601f8201168201806040525081019061150c9190613737565b6040518060400160405280600881526020017f7374617274696e67000000000000000000000000000000000000000000000000815250612692565b6116975761168b6040518060400160405280601281526020017f4572726f722028457865726369736520452900000000000000000000000000008152506040518060400160405280601b81526020017f546865207374617465206973206e6f7420277374617274696e672700000000008152506040518060400160405280600881526020017f7374617274696e67000000000000000000000000000000000000000000000000815250600160009054906101000a900473ffffffffffffffffffffffffffffffffffffffff1673ffffffffffffffffffffffffffffffffffffffff16631865c57d6040518163ffffffff1660e01b8152600401600060405180830381865afa15801561165d573d6000803e3d6000fd5b505050506040513d6000823e3d601f19601f820116820180604052508101906116869190613737565b610e99565b6000925092505061197e565b600260009054906101000a900473ffffffffffffffffffffffffffffffffffffffff1673ffffffffffffffffffffffffffffffffffffffff1663469ad8e366038d7ea4c68000600160009054906101000a900473ffffffffffffffffffffffffffffffffffffffff166040518363ffffffff1660e01b815260040161171c9190613a6a565b60206040518083038185885af19350505050801561175857506040513d601f19601f8201168201806040525081019061175591906139da565b60015b6118115761176461332f565b806308c379a0036118055750611778613351565b806117835750611807565b6117f86040518060400160405280601281526020017f4572726f722028457865726369736520452900000000000000000000000000008152506040518060400160405280601c81526020017f4572726f72207769746820737461727428292066756e6374696f6e2e000000008152508361037d565b600093509350505061197e565b505b3d6000803e3d6000fd5b600281146118405760006040518060600160405280602a81526020016140e1602a91399093509350505061197e565b50611915600160009054906101000a900473ffffffffffffffffffffffffffffffffffffffff1673ffffffffffffffffffffffffffffffffffffffff16631865c57d6040518163ffffffff1660e01b8152600401600060405180830381865afa1580156118b1573d6000803e3d6000fd5b505050506040513d6000823e3d601f19601f820116820180604052508101906118da9190613737565b6040518060400160405280600781526020017f706c6179696e6700000000000000000000000000000000000000000000000000815250612692565b61193f5760006040518060600160405280602e8152602001613f77602e913990925092505061197e565b60016040518060400160405280601981526020017f507265706172652047616d653a207375636365737366756c2e000000000000008152509092509250505b9091565b60606000806000611991610ecb565b91509150806119a85781600093509350505061268e565b600060405180606001604052806040815260200161428e60409139905060006040518060600160405280604081526020016141326040913990506000826040516020016119f59190613aab565b604051602081830303815290604052604051602001611a149190613ad1565b604051602081830303815290604052805190602001209050600082604051602001611a3f9190613b0e565b604051602081830303815290604052604051602001611a5e9190613ad1565b604051602081830303815290604052805190602001209050611b4a600160009054906101000a900473ffffffffffffffffffffffffffffffffffffffff1673ffffffffffffffffffffffffffffffffffffffff16631865c57d6040518163ffffffff1660e01b8152600401600060405180830381865afa158015611ae6573d6000803e3d6000fd5b505050506040513d6000823e3d601f19601f82011682018060405250810190611b0f9190613737565b6040518060400160405280600781526020017f706c6179696e6700000000000000000000000000000000000000000000000000815250612692565b611c8257611c7160405180606001604052806021815260200161401c602191396040518060400160405280601a81526020017f546865207374617465206973206e6f742027706c6179696e67270000000000008152506040518060400160405280600781526020017f706c6179696e6700000000000000000000000000000000000000000000000000815250600160009054906101000a900473ffffffffffffffffffffffffffffffffffffffff1673ffffffffffffffffffffffffffffffffffffffff16631865c57d6040518163ffffffff1660e01b8152600401600060405180830381865afa158015611c43573d6000803e3d6000fd5b505050506040513d6000823e3d601f19601f82011682018060405250810190611c6c9190613737565b610e99565b60009750975050505050505061268e565b600160009054906101000a900473ffffffffffffffffffffffffffffffffffffffff1673ffffffffffffffffffffffffffffffffffffffff16632853720c836040518263ffffffff1660e01b8152600401611cdd91906135e1565b600060405180830381600087803b158015611cf757600080fd5b505af1925050508015611d08575060015b611d8c57611d1461332f565b806308c379a003611d805750611d28613351565b80611d335750611d82565b611d6e60405180606001604052806021815260200161401c602191396040518060600160405280602f815260200161425f602f91398361037d565b6000985098505050505050505061268e565b505b3d6000803e3d6000fd5b611e60600160009054906101000a900473ffffffffffffffffffffffffffffffffffffffff1673ffffffffffffffffffffffffffffffffffffffff16631865c57d6040518163ffffffff1660e01b8152600401600060405180830381865afa158015611dfc573d6000803e3d6000fd5b505050506040513d6000823e3d601f19601f82011682018060405250810190611e259190613737565b6040518060400160405280600781526020017f706c6179696e6700000000000000000000000000000000000000000000000000815250612692565b611f7b57611f6a60405180606001604052806021815260200161401c602191396040518060800160405280604d8152602001613fcf604d91396040518060400160405280600781526020017f706c6179696e6700000000000000000000000000000000000000000000000000815250600160009054906101000a900473ffffffffffffffffffffffffffffffffffffffff1673ffffffffffffffffffffffffffffffffffffffff16631865c57d6040518163ffffffff1660e01b8152600401600060405180830381865afa158015611f3c573d6000803e3d6000fd5b505050506040513d6000823e3d601f19601f82011682018060405250810190611f659190613737565b610e99565b60009750975050505050505061268e565b600260009054906101000a900473ffffffffffffffffffffffffffffffffffffffff1673ffffffffffffffffffffffffffffffffffffffff1663e6562c89600160009054906101000a900473ffffffffffffffffffffffffffffffffffffffff16836040518363ffffffff1660e01b8152600401611ffa92919061361d565b600060405180830381600087803b15801561201457600080fd5b505af1925050508015612025575060015b6120a95761203161332f565b806308c379a00361209d5750612045613351565b80612050575061209f565b61208b60405180606001604052806021815260200161401c602191396040518060600160405280602f81526020016143fe602f91398361037d565b6000985098505050505050505061268e565b505b3d6000803e3d6000fd5b60001515612181600160009054906101000a900473ffffffffffffffffffffffffffffffffffffffff1673ffffffffffffffffffffffffffffffffffffffff16631865c57d6040518163ffffffff1660e01b8152600401600060405180830381865afa15801561211d573d6000803e3d6000fd5b505050506040513d6000823e3d601f19601f820116820180604052508101906121469190613737565b6040518060400160405280600981526020017f72657665616c696e670000000000000000000000000000000000000000000000815250612692565b1515036121b35760006040518060c001604052806095815260200161417260959139909750975050505050505061268e565b6000600360009054906101000a900473ffffffffffffffffffffffffffffffffffffffff1673ffffffffffffffffffffffffffffffffffffffff163190506000600460009054906101000a900473ffffffffffffffffffffffffffffffffffffffff1673ffffffffffffffffffffffffffffffffffffffff16319050600160009054906101000a900473ffffffffffffffffffffffffffffffffffffffff1673ffffffffffffffffffffffffffffffffffffffff16635ba1b2c7876040518263ffffffff1660e01b815260040161228a9190613692565b600060405180830381600087803b1580156122a457600080fd5b505af19250505080156122b5575060015b61233b576122c161332f565b806308c379a00361232f57506122d5613351565b806122e05750612331565b61231b60405180606001604052806021815260200161401c602191396040518060600160405280602a8152602001613fa5602a91398361037d565b60009a509a5050505050505050505061268e565b505b3d6000803e3d6000fd5b600260009054906101000a900473ffffffffffffffffffffffffffffffffffffffff1673ffffffffffffffffffffffffffffffffffffffff1663022c348f600160009054906101000a900473ffffffffffffffffffffffffffffffffffffffff16876040518363ffffffff1660e01b81526004016123ba929190613822565b600060405180830381600087803b1580156123d457600080fd5b505af19250505080156123e5575060015b61246b576123f161332f565b806308c379a00361245f5750612405613351565b806124105750612461565b61244b60405180606001604052806021815260200161401c602191396040518060600160405280602a8152602001614332602a91398361037d565b60009a509a5050505050505050505061268e565b505b3d6000803e3d6000fd5b6000600360009054906101000a900473ffffffffffffffffffffffffffffffffffffffff1673ffffffffffffffffffffffffffffffffffffffff163190506000600460009054906101000a900473ffffffffffffffffffffffffffffffffffffffff1673ffffffffffffffffffffffffffffffffffffffff1631905083821461251d5760006040518060800160405280604d815260200161405e604d9139909b509b505050505050505050505061268e565b8281116125535760006040518060a00160405280606481526020016142ce60649139909b509b505050505050505050505061268e565b600160009054906101000a900473ffffffffffffffffffffffffffffffffffffffff1673ffffffffffffffffffffffffffffffffffffffff16638b680cc36040518163ffffffff1660e01b8152600401600060405180830381600087803b1580156125bd57600080fd5b505af11580156125d1573d6000803e3d6000fd5b50505050600160009054906101000a900473ffffffffffffffffffffffffffffffffffffffff1673ffffffffffffffffffffffffffffffffffffffff16631b93194e600a6040518263ffffffff1660e01b81526004016126319190613b80565b600060405180830381600087803b15801561264b57600080fd5b505af115801561265f573d6000803e3d6000fd5b5050505060016040518060600160405280602c8152602001614207602c9139909b509b50505050505050505050505b9091565b6000816040516020016126a59190613ad1565b60405160208183030381529060405280519060200120836040516020016126cc9190613ad1565b6040516020818303038152906040528051906020012014905092915050565b6126f3610e70565b73ffffffffffffffffffffffffffffffffffffffff166324d7806c336040518263ffffffff1660e01b815260040161272b9190613bbd565b602060405180830381865afa158015612748573d6000803e3d6000fd5b505050506040513d601f19601f8201168201806040525081019061276c9190613c04565b6127ab576040517f08c379a00000000000000000000000000000000000000000000000000000000081526004016127a290613ca3565b60405180910390fd5b600073ffffffffffffffffffffffffffffffffffffffff168273ffffffffffffffffffffffffffffffffffffffff160361281a576040517f08c379a000000000000000000000000000000000000000000000000000000000815260040161281190613d0f565b60405180910390fd5b3373ffffffffffffffffffffffffffffffffffffffff168273ffffffffffffffffffffffffffffffffffffffff16148061287f57503273ffffffffffffffffffffffffffffffffffffffff168273ffffffffffffffffffffffffffffffffffffffff16145b80612907575061288d610e70565b73ffffffffffffffffffffffffffffffffffffffff166324d7806c836040518263ffffffff1660e01b81526004016128c59190613d50565b602060405180830381865afa1580156128e2573d6000803e3d6000fd5b505050506040513d601f19601f820116820180604052508101906129069190613c04565b5b612946576040517f08c379a000000000000000000000000000000000000000000000000000000000815260040161293d90613ddd565b60405180910390fd5b47811015612989576040517f08c379a000000000000000000000000000000000000000000000000000000000815260040161298090613e49565b60405180910390fd5b60008273ffffffffffffffffffffffffffffffffffffffff16826040516129af90613e9a565b60006040518083038185875af1925050503d80600081146129ec576040519150601f19603f3d011682016040523d82523d6000602084013e6129f1565b606091505b5050905080612a35576040517f08c379a0000000000000000000000000000000000000000000000000000000008152600401612a2c90613efb565b60405180910390fd5b505050565b60606000806000612a49611982565b9150915080612a6057816000935093505050612ac6565b600080612a6b6103ac565b9150915080612a84578160009550955050505050612ac6565b60016040518060400160405280601d81526020017f457865726369736520443a20416c6c207465737473207061737365642e0000008152509095509550505050505b9091565b816000806101000a81548173ffffffffffffffffffffffffffffffffffffffff021916908373ffffffffffffffffffffffffffffffffffffffff1602179055506000612b14610e70565b90508073ffffffffffffffffffffffffffffffffffffffff16637fb99b9330846040518363ffffffff1660e01b8152600401612b51929190613f1b565b600060405180830381600087803b158015612b6b57600080fd5b505af1158015612b7f573d6000803e3d6000fd5b50505050505050565b6000604051905090565b600080fd5b600080fd5b600073ffffffffffffffffffffffffffffffffffffffff82169050919050565b6000612bc782612b9c565b9050919050565b612bd781612bbc565b8114612be257600080fd5b50565b600081359050612bf481612bce565b92915050565b60008060408385031215612c1157612c10612b92565b5b6000612c1f85828601612be5565b9250506020612c3085828601612be5565b9150509250929050565b600080fd5b600080fd5b6000601f19601f8301169050919050565b7f4e487b7100000000000000000000000000000000000000000000000000000000600052604160045260246000fd5b612c8d82612c44565b810181811067ffffffffffffffff82111715612cac57612cab612c55565b5b80604052505050565b6000612cbf612b88565b9050612ccb8282612c84565b919050565b600067ffffffffffffffff821115612ceb57612cea612c55565b5b612cf482612c44565b9050602081019050919050565b82818337600083830152505050565b6000612d23612d1e84612cd0565b612cb5565b905082815260208101848484011115612d3f57612d3e612c3f565b5b612d4a848285612d01565b509392505050565b600082601f830112612d6757612d66612c3a565b5b8135612d77848260208601612d10565b91505092915050565b600080600060608486031215612d9957612d98612b92565b5b600084013567ffffffffffffffff811115612db757612db6612b97565b5b612dc386828701612d52565b935050602084013567ffffffffffffffff811115612de457612de3612b97565b5b612df086828701612d52565b925050604084013567ffffffffffffffff811115612e1157612e10612b97565b5b612e1d86828701612d52565b9150509250925092565b600081519050919050565b600082825260208201905092915050565b60005b83811015612e61578082015181840152602081019050612e46565b60008484015250505050565b6000612e7882612e27565b612e828185612e32565b9350612e92818560208601612e43565b612e9b81612c44565b840191505092915050565b60006020820190508181036000830152612ec08184612e6d565b905092915050565b60008115159050919050565b612edd81612ec8565b82525050565b60006040820190508181036000830152612efd8185612e6d565b9050612f0c6020830184612ed4565b9392505050565b6000819050919050565b6000612f38612f33612f2e84612b9c565b612f13565b612b9c565b9050919050565b6000612f4a82612f1d565b9050919050565b6000612f5c82612f3f565b9050919050565b612f6c81612f51565b82525050565b6000602082019050612f876000830184612f63565b92915050565b60008060008060808587031215612fa757612fa6612b92565b5b600085013567ffffffffffffffff811115612fc557612fc4612b97565b5b612fd187828801612d52565b945050602085013567ffffffffffffffff811115612ff257612ff1612b97565b5b612ffe87828801612d52565b935050604085013567ffffffffffffffff81111561301f5761301e612b97565b5b61302b87828801612d52565b925050606085013567ffffffffffffffff81111561304c5761304b612b97565b5b61305887828801612d52565b91505092959194509250565b6000806040838503121561307b5761307a612b92565b5b600083013567ffffffffffffffff81111561309957613098612b97565b5b6130a585828601612d52565b925050602083013567ffffffffffffffff8111156130c6576130c5612b97565b5b6130d285828601612d52565b9150509250929050565b60006020820190506130f16000830184612ed4565b92915050565b600061310282612b9c565b9050919050565b613112816130f7565b811461311d57600080fd5b50565b60008135905061312f81613109565b92915050565b6000819050919050565b61314881613135565b811461315357600080fd5b50565b6000813590506131658161313f565b92915050565b6000806040838503121561318257613181612b92565b5b600061319085828601613120565b92505060206131a185828601613156565b9150509250929050565b600080604083850312156131c2576131c1612b92565b5b60006131d085828601612be5565b925050602083013567ffffffffffffffff8111156131f1576131f0612b97565b5b6131fd85828601612d52565b9150509250929050565b600081905092915050565b600061321d82612e27565b6132278185613207565b9350613237818560208601612e43565b80840191505092915050565b7f3a20000000000000000000000000000000000000000000000000000000000000600082015250565b6000613279600283613207565b915061328482613243565b600282019050919050565b7f203e200000000000000000000000000000000000000000000000000000000000600082015250565b60006132c5600383613207565b91506132d08261328f565b600382019050919050565b60006132e78286613212565b91506132f28261326c565b91506132fe8285613212565b9150613309826132b8565b91506133158284613212565b9150819050949350505050565b60008160e01c9050919050565b600060033d111561334e5760046000803e61334b600051613322565b90505b90565b600060443d106133de57613363612b88565b60043d036004823e80513d602482011167ffffffffffffffff8211171561338b5750506133de565b808201805167ffffffffffffffff8111156133a957505050506133de565b80602083010160043d0385018111156133c65750505050506133de565b6133d582602001850186612c84565b82955050505050505b90565b6000819050919050565b60006134066134016133fc846133e1565b612f13565b613135565b9050919050565b613416816133eb565b82525050565b6000602082019050613431600083018461340d565b92915050565b7f72657665616c0000000000000000000000000000000000000000000000000000600082015250565b600061346d600683612e32565b915061347882613437565b602082019050919050565b6000819050919050565b60006134a86134a361349e84613483565b612f13565b613135565b9050919050565b6134b88161348d565b82525050565b600060408201905081810360008301526134d781613460565b90506134e660208301846134af565b92915050565b7f5f726f636b000000000000000000000000000000000000000000000000000000600082015250565b6000613522600583613207565b915061352d826134ec565b600582019050919050565b60006135448284613212565b915061354f82613515565b915081905092915050565b7f5f70617065720000000000000000000000000000000000000000000000000000600082015250565b6000613590600683613207565b915061359b8261355a565b600682019050919050565b60006135b28284613212565b91506135bd82613583565b915081905092915050565b6000819050919050565b6135db816135c8565b82525050565b60006020820190506135f660008301846135d2565b92915050565b600061360782612f3f565b9050919050565b613617816135fc565b82525050565b6000604082019050613632600083018561360e565b61363f60208301846135d2565b9392505050565b7f726f636b00000000000000000000000000000000000000000000000000000000600082015250565b600061367c600483612e32565b915061368782613646565b602082019050919050565b600060408201905081810360008301526136ab8161366f565b905081810360208301526136bf8184612e6d565b905092915050565b60006136da6136d584612cd0565b612cb5565b9050828152602081018484840111156136f6576136f5612c3f565b5b613701848285612e43565b509392505050565b600082601f83011261371e5761371d612c3a565b5b815161372e8482602086016136c7565b91505092915050565b60006020828403121561374d5761374c612b92565b5b600082015167ffffffffffffffff81111561376b5761376a612b97565b5b61377784828501613709565b91505092915050565b6000819050919050565b60006137a56137a061379b84613780565b612f13565b613135565b9050919050565b6137b58161378a565b82525050565b60006020820190506137d060008301846137ac565b92915050565b7f7061706572000000000000000000000000000000000000000000000000000000600082015250565b600061380c600583612e32565b9150613817826137d6565b602082019050919050565b6000606082019050613837600083018561360e565b8181036020830152613848816137ff565b9050818103604083015261385c8184612e6d565b90509392505050565b6000819050919050565b600061388a61388561388084613865565b612f13565b613135565b9050919050565b61389a8161386f565b82525050565b600060408201905081810360008301526138b981613460565b90506138c86020830184613891565b92915050565b7f2045787065637465643a20000000000000000000000000000000000000000000600082015250565b6000613904600b83613207565b915061390f826138ce565b600b82019050919050565b7f2041637475616c3a200000000000000000000000000000000000000000000000600082015250565b6000613950600983613207565b915061395b8261391a565b600982019050919050565b60006139728287613212565b915061397d8261326c565b91506139898286613212565b9150613994826138f7565b91506139a08285613212565b91506139ab82613943565b91506139b78284613212565b915081905095945050505050565b6000815190506139d48161313f565b92915050565b6000602082840312156139f0576139ef612b92565b5b60006139fe848285016139c5565b91505092915050565b7f4e487b7100000000000000000000000000000000000000000000000000000000600052601160045260246000fd5b6000613a4182613135565b9150613a4c83613135565b9250828201905080821115613a6457613a63613a07565b5b92915050565b6000602082019050613a7f600083018461360e565b92915050565b7f5f726f636b000000000000000000000000000000000000000000000000000000815250565b6000613ab78284613212565b9150613ac282613a85565b60058201915081905092915050565b6000613add8284613212565b915081905092915050565b7f5f70617065720000000000000000000000000000000000000000000000000000815250565b6000613b1a8284613212565b9150613b2582613ae8565b60068201915081905092915050565b7f706c617900000000000000000000000000000000000000000000000000000000600082015250565b6000613b6a600483612e32565b9150613b7582613b34565b602082019050919050565b60006040820190508181036000830152613b9981613b5d565b9050613ba86020830184613891565b92915050565b613bb781612bbc565b82525050565b6000602082019050613bd26000830184613bae565b92915050565b613be181612ec8565b8114613bec57600080fd5b50565b600081519050613bfe81613bd8565b92915050565b600060208284031215613c1a57613c19612b92565b5b6000613c2884828501613bef565b91505092915050565b7f4f6e6c7920636f6e74726163742061646d696e2063616e20776974686472617760008201527f2066756e64730000000000000000000000000000000000000000000000000000602082015250565b6000613c8d602683612e32565b9150613c9882613c31565b604082019050919050565b60006020820190508181036000830152613cbc81613c80565b9050919050565b7f496e76616c696420616464726573730000000000000000000000000000000000600082015250565b6000613cf9600f83612e32565b9150613d0482613cc3565b602082019050919050565b60006020820190508181036000830152613d2881613cec565b9050919050565b6000613d3a82612f3f565b9050919050565b613d4a81613d2f565b82525050565b6000602082019050613d656000830184613d41565b92915050565b7f46756e64732063616e206f6e6c792062652077697468647261776e20746f206160008201527f646d696e2c206d73672e73656e646572206f722074782e6f726967696e000000602082015250565b6000613dc7603d83612e32565b9150613dd282613d6b565b604082019050919050565b60006020820190508181036000830152613df681613dba565b9050919050565b7f496e73756666696369656e742066756e64730000000000000000000000000000600082015250565b6000613e33601283612e32565b9150613e3e82613dfd565b602082019050919050565b60006020820190508181036000830152613e6281613e26565b9050919050565b600081905092915050565b50565b6000613e84600083613e69565b9150613e8f82613e74565b600082019050919050565b6000613ea582613e77565b9150819050919050565b7f5472616e73666572206661696c65642e00000000000000000000000000000000600082015250565b6000613ee5601083612e32565b9150613ef082613eaf565b602082019050919050565b60006020820190508181036000830152613f1481613ed8565b9050919050565b6000604082019050613f306000830185613bae565b8181036020830152613f428184612e6d565b9050939250505056fe4572726f72202845786572636973652045293a2054686520706c617965722069642069732077726f6e67204572726f72202845786572636973652045293a20546865207374617465206973206e6f742027706c6179696e67274572726f7220776974682072657665616c28292066756e6374696f6e20666f7220706c6179657220312e546865207374617465206973206e6f742027706c6179696e67272e204166746572206669727374207072697661746520706c61792073746174652073686f756c64206e6f74206368616e67652e4572726f72202845786572636973652045202d20707269766174652067616d65294572726f72207769746820666f726365526573657428292066756e6374696f6e2e4572726f72202845786572636973652045202d20707269766174652067616d65293a205468652062616c616e6365206f6620706c6179657220312073686f756c64206e6f74206368616e67652e4572726f72202845786572636973652045293a205468652067616d6520636f756e746572206973206e6f7420696e63726561736564204572726f72202845786572636973652045293a2054686520706c617965722069642069732077726f6e674572726f72202845786572636973652045202d2072657665616c2074696d652065786365656429373139353365613933386264343764383661333230316630613963363232643039366635326463353461643235363931396639353737323930346532323536344572726f72202845786572636973652045202d20707269766174652067616d65293a20546865207374617465206973206e6f74202772657665616c696e67272e20506c65617365206d616b6520737572652074686174207468652073746174652069732073657420746f202772657665616c696e6727207768656e20626f746820706c6179657273206861766520706c617965642e457865726369736520452028707269766174652067616d65293a20416c6c207465737473207061737365642e4572726f72202845786572636973652045293a204578706563746564202777616974696e67272073746174654572726f72207769746820706c61795072697661746528292066756e6374696f6e20666f7220706c6179657220312e313130376436343533396562303133393736383566326332326666613130316361306164346361353431336237323935303866323236346361633730343864334572726f72202845786572636973652045202d20707269766174652067616d65293a205468652062616c616e6365206f6620706c6179657220322073686f756c6420696e637265617365206265636175736520706170657220626561747320726f636b2e4572726f7220776974682072657665616c28292066756e6374696f6e20666f7220706c6179657220322e4572726f72202845786572636973652045202d2072657665616c2074696d6520657863656564293a20546865207374617465206973206e6f74202772657665616c696e67272e20506c65617365206d616b6520737572652074686174207468652073746174652069732073657420746f202772657665616c696e6727207768656e20626f746820706c6179657273206861766520706c61796564207072697661742e4572726f72207769746820706c61795072697661746528292066756e6374696f6e20666f7220706c6179657220322e4572726f72202845786572636973652045202d2072657665616c2074696d6520657863656564293a2054686520706c6179657220312062616c616e6365206973206e6f7420626967676572207468616e206265666f72652e20506c65617365206d616b65207375726520746861742074686520706c617965722077686f20776f6e207468652067616d65206765747320746865207265776172642ea2646970667358221220900ab19896768ac8b89ad18f4ef87b9f682596566c5d27002d7f50499a53302964736f6c63430008130033535332332041737369676e6d656e7420322056616c696461746f7220436f6e7472616374202d205461736b2045",
  "immutableReferences": {},
  "source": "// SPDX-License-Identifier: MIT\r\npragma solidity ^0.8.17;\r\n\r\n// Import the IAssignment2.sol\r\nimport \"./interface/IAssignment2.sol\";\r\n\r\n// Import Helper\r\nimport \"../Helper.sol\";\r\n\r\n// Import the assignment validator extend contract\r\nimport \"./Validator2Helper.sol\";\r\n\r\n// import \"BaseConfig.sol\";\r\nimport \"../BaseConfig.sol\";\r\n\r\ncontract Validator2TaskE is Helper, BaseConfig {\r\n    // assignment contract interface\r\n    IAssignment2 assignmentContract;\r\n    Validator2Helper validatorHelper;\r\n\r\n    // Player addresses\r\n    address player1 = address(0);\r\n    address player2 = address(0);\r\n\r\n    constructor(address _configContractAddress) {\r\n        initAdmin(\r\n            _configContractAddress,\r\n            \"SS23 Assignment 2 Validator Contract - Task E\"\r\n        );\r\n    }\r\n\r\n    // Function to receive Ether. msg.data must be empty\r\n    receive() external payable {}\r\n\r\n    // Fallback function is called when msg.data is not empty\r\n    fallback() external payable {}\r\n\r\n    // Init contract\r\n    function initContract(\r\n        address _contractAddress,\r\n        address _validatorHelperAddress\r\n    ) public {\r\n        // Call the contract interface which needs to be tested and store it in the variable assignmentContract\r\n        assignmentContract = IAssignment2(_contractAddress);\r\n        validatorHelper = Validator2Helper(payable(_validatorHelperAddress));\r\n\r\n        // Get player addresses\r\n        player1 = address(this);\r\n        player2 = address(_validatorHelperAddress);\r\n    }\r\n\r\n    /*=============================================\r\n    =                   HELPER                  =\r\n    =============================================*/\r\n\r\n    // This function sets the game in the state that it accepts choices from account 1 or 2\r\n    function prepareGame() public payable returns (string memory, bool) {\r\n        // Reset game\r\n        try assignmentContract.forceReset() {} catch Error(\r\n            string memory errMsg\r\n        ) {\r\n            return (\r\n                buildErrorMessage(\r\n                    \"Error (Exercise E)\",\r\n                    \"Error with forceReset() function.\",\r\n                    errMsg\r\n                ),\r\n                false\r\n            );\r\n        }\r\n\r\n        // Get game counter\r\n        uint256 gameCounter = assignmentContract.getGameCounter();\r\n\r\n        // Test getState function\r\n        try assignmentContract.getState() returns (string memory state) {\r\n            // Check if the state is not \"waiting\"\r\n            if (!compareStrings(state, \"waiting\"))\r\n                return (\"Error (Exercise E): Expected 'waiting' state\", false);\r\n        } catch Error(string memory errMsg) {\r\n            return (\r\n                buildErrorMessage(\r\n                    \"Error (Exercise E)\",\r\n                    \"Error with getState() function.\",\r\n                    errMsg\r\n                ),\r\n                false\r\n            );\r\n        }\r\n\r\n        // Test Start\r\n        try assignmentContract.start{value: 0.001 ether}() returns (\r\n            uint256 playerId\r\n        ) {\r\n            // Check if the game id is not 0\r\n            if (playerId != 1)\r\n                return (\"Error (Exercise E): The player id is wrong \", false);\r\n        } catch Error(string memory errMsg) {\r\n            return (\r\n                buildErrorMessage(\r\n                    \"Error (Exercise E)\",\r\n                    \"Error with start() function.\",\r\n                    errMsg\r\n                ),\r\n                false\r\n            );\r\n        }\r\n\r\n        // Check if that the game counter increase by 1\r\n        if (assignmentContract.getGameCounter() != gameCounter + 1)\r\n            return (\r\n                \"Error (Exercise E): The game counter is not increased \",\r\n                false\r\n            );\r\n\r\n        // Test getState function = starting\r\n        if (!compareStrings(assignmentContract.getState(), \"starting\"))\r\n            return (\r\n                buildErrorMessageExtended(\r\n                    \"Error (Exercise E)\",\r\n                    \"The state is not 'starting'\",\r\n                    \"starting\",\r\n                    assignmentContract.getState()\r\n                ),\r\n                false\r\n            );\r\n\r\n        // Test join second player\r\n        try\r\n            validatorHelper.callStart{value: 0.001 ether}(assignmentContract)\r\n        returns (uint256 playerId) {\r\n            // Check if the game id is not 0\r\n            if (playerId != 2)\r\n                return (\"Error (Exercise E): The player id is wrong\", false);\r\n        } catch Error(string memory errMsg) {\r\n            return (\r\n                buildErrorMessage(\r\n                    \"Error (Exercise E)\",\r\n                    \"Error with start() function.\",\r\n                    errMsg\r\n                ),\r\n                false\r\n            );\r\n        }\r\n\r\n        // Test getState function = playing\r\n        if (!compareStrings(assignmentContract.getState(), \"playing\"))\r\n            return (\"Error (Exercise E): The state is not 'playing'\", false);\r\n\r\n        return (\"Prepare Game: successful.\", true);\r\n    }\r\n\r\n    /*=============================================\r\n    =                   TASK E                   =\r\n    =============================================*/\r\n\r\n    function testExerciseE() public payable returns (string memory, bool) {\r\n        // Edge Cases tests\r\n        // TEST 1: test private game\r\n        (string memory message1, bool success1) = testPrivateGame();\r\n        if (!success1) return (message1, false);\r\n\r\n        // TEST 2: test reveal exceed\r\n        (string memory message2, bool success2) = testRevealTimeExceed();\r\n        if (!success2) return (message2, false);\r\n\r\n        return (\"Exercise D: All tests passed.\", true);\r\n    }\r\n\r\n    function testPrivateGame() public payable returns (string memory, bool) {\r\n        // Prepare the game\r\n        (string memory message, bool success) = prepareGame();\r\n\r\n        // If the game is not successfully prepared return the error message\r\n        if (!success) return (message, false);\r\n\r\n        // Seed used to encode the choice\r\n        string\r\n            memory seedP1 = \"1107d64539eb01397685f2c22ffa101ca0ad4ca5413b729508f2264cac7048d3\";\r\n\r\n        string\r\n            memory seedP2 = \"71953ea938bd47d86a3201f0a9c622d096f52dc54ad256919f95772904e22564\";\r\n\r\n        // Hashed choice for player 1 using SEED_ACTION > \"rock\" is the used action\r\n        bytes32 hashedChoiceP1 = keccak256(\r\n            abi.encodePacked(string.concat(seedP1, \"_rock\"))\r\n        );\r\n\r\n        // Hashed choice for player 2 using SEED_ACTION > \"paper\" is the used action\r\n        bytes32 hashedChoiceP2 = keccak256(\r\n            abi.encodePacked(string.concat(seedP2, \"_paper\"))\r\n        );\r\n\r\n        // state should be \"playing\"\r\n        if (!compareStrings(assignmentContract.getState(), \"playing\"))\r\n            return (\r\n                buildErrorMessageExtended(\r\n                    \"Error (Exercise E - private game)\",\r\n                    \"The state is not 'playing'\",\r\n                    \"playing\",\r\n                    assignmentContract.getState()\r\n                ),\r\n                false\r\n            );\r\n\r\n        // Send playPrivate with choice \"rock\" for player 1\r\n        try assignmentContract.playPrivate(hashedChoiceP1) {} catch Error(\r\n            string memory errMsg\r\n        ) {\r\n            return (\r\n                buildErrorMessage(\r\n                    \"Error (Exercise E - private game)\",\r\n                    \"Error with playPrivate() function for player 1.\",\r\n                    errMsg\r\n                ),\r\n                false\r\n            );\r\n        }\r\n\r\n        // state should be \"playing\"\r\n        if (!compareStrings(assignmentContract.getState(), \"playing\"))\r\n            return (\r\n                buildErrorMessageExtended(\r\n                    \"Error (Exercise E - private game)\",\r\n                    \"The state is not 'playing'. After first private play state should not change.\",\r\n                    \"playing\",\r\n                    assignmentContract.getState()\r\n                ),\r\n                false\r\n            );\r\n\r\n        // Send playPrivate with choice \"paper\" for player 2\r\n        try\r\n            validatorHelper.callPlayPrivate(assignmentContract, hashedChoiceP2)\r\n        {} catch Error(string memory errMsg) {\r\n            return (\r\n                buildErrorMessage(\r\n                    \"Error (Exercise E - private game)\",\r\n                    \"Error with playPrivate() function for player 2.\",\r\n                    errMsg\r\n                ),\r\n                false\r\n            );\r\n        }\r\n\r\n        // check that state is \"revealing\"\r\n        if (compareStrings(assignmentContract.getState(), \"revealing\") == false)\r\n            return (\r\n                \"Error (Exercise E - private game): The state is not 'revealing'. Please make sure that the state is set to 'revealing' when both players have played.\",\r\n                false\r\n            );\r\n\r\n        // Get balance of player1 & player2\r\n        uint256 player1BalanceBefore = player1.balance;\r\n        uint256 player2BalanceBefore = player2.balance;\r\n\r\n        // Player 1 reveal his choice\r\n        try assignmentContract.reveal(\"rock\", seedP1) {} catch Error(\r\n            string memory errMsg\r\n        ) {\r\n            return (\r\n                buildErrorMessage(\r\n                    \"Error (Exercise E - private game)\",\r\n                    \"Error with reveal() function for player 1.\",\r\n                    errMsg\r\n                ),\r\n                false\r\n            );\r\n        }\r\n\r\n        // Player 2 reveal his choice\r\n        try\r\n            validatorHelper.callReveal(assignmentContract, \"paper\", seedP2)\r\n        {} catch Error(string memory errMsg) {\r\n            return (\r\n                buildErrorMessage(\r\n                    \"Error (Exercise E - private game)\",\r\n                    \"Error with reveal() function for player 2.\",\r\n                    errMsg\r\n                ),\r\n                false\r\n            );\r\n        }\r\n\r\n        // Get balance of player1 & player2\r\n        uint256 player1BalanceAfter = player1.balance;\r\n        uint256 player2BalanceAfter = player2.balance;\r\n\r\n        // Check if player 1 balance is bigger than before\r\n        if (player1BalanceAfter != player1BalanceBefore)\r\n            return (\r\n                \"Error (Exercise E - private game): The balance of player 1 should not change.\",\r\n                false\r\n            );\r\n\r\n        // Check if player 2 balance is same as before (no reward)\r\n        if (player2BalanceAfter <= player2BalanceBefore)\r\n            return (\r\n                \"Error (Exercise E - private game): The balance of player 2 should increase because paper beats rock.\",\r\n                false\r\n            );\r\n\r\n        // Reset the max time to default\r\n        assignmentContract.forceReset();\r\n        assignmentContract.setMaxTime(\"play\", 10);\r\n\r\n        return (\"Exercise E (private game): All tests passed.\", true);\r\n    }\r\n\r\n    function testRevealTimeExceed()\r\n        public\r\n        payable\r\n        returns (string memory, bool)\r\n    {\r\n        // Reset game\r\n        try assignmentContract.forceReset() {} catch Error(\r\n            string memory errMsg\r\n        ) {\r\n            return (\r\n                buildErrorMessage(\r\n                    \"Error (Exercise E - reveal time exceed)\",\r\n                    \"Error with forceReset() function.\",\r\n                    errMsg\r\n                ),\r\n                false\r\n            );\r\n        }\r\n\r\n        // Set \"fake\" block to 100\r\n        assignmentContract.setBlockNumber(100);\r\n\r\n        // Set \"reveal\" max time to 1\r\n        assignmentContract.setMaxTime(\"reveal\", 1);\r\n\r\n        // Prepare the game\r\n        (string memory message, bool success) = prepareGame();\r\n\r\n        // If the game is not successfully prepared return the error message\r\n        if (!success) return (message, false);\r\n\r\n        // Seed used to encode the choice\r\n        string\r\n            memory seedP1 = \"1107d64539eb01397685f2c22ffa101ca0ad4ca5413b729508f2264cac7048d3\";\r\n\r\n        string\r\n            memory seedP2 = \"71953ea938bd47d86a3201f0a9c622d096f52dc54ad256919f95772904e22564\";\r\n\r\n        // Hashed choice for player 1 using SEED_ACTION > \"rock\" is the used action\r\n        bytes32 hashedChoiceP1 = keccak256(abi.encodePacked(seedP1, \"_rock\"));\r\n\r\n        // Hashed choice for player 2 using SEED_ACTION > \"paper\" is the used action\r\n        bytes32 hashedChoiceP2 = keccak256(abi.encodePacked(seedP2, \"_paper\"));\r\n\r\n        // Send playPrivate with choice \"rock\" for player 1\r\n        try assignmentContract.playPrivate(hashedChoiceP1) {} catch Error(\r\n            string memory errMsg\r\n        ) {\r\n            return (\r\n                buildErrorMessage(\r\n                    \"Error (Exercise E - reveal time exceed)\",\r\n                    \"Error with playPrivate() function for player 1.\",\r\n                    errMsg\r\n                ),\r\n                false\r\n            );\r\n        }\r\n\r\n        // Get balance of player 1\r\n        uint256 player1BalanceBefore = player1.balance;\r\n\r\n        // Send playPrivate with choice \"paper\" for player 2\r\n        try\r\n            validatorHelper.callPlayPrivate(assignmentContract, hashedChoiceP2)\r\n        {} catch Error(string memory errMsg) {\r\n            return (\r\n                buildErrorMessage(\r\n                    \"Error (Exercise E - reveal time exceed)\",\r\n                    \"Error with playPrivate() function for player 2.\",\r\n                    errMsg\r\n                ),\r\n                false\r\n            );\r\n        }\r\n\r\n        // Player 1 reveal his choice\r\n        try assignmentContract.reveal(\"rock\", seedP1) {} catch Error(\r\n            string memory errMsg\r\n        ) {\r\n            return (\r\n                buildErrorMessage(\r\n                    \"Error (Exercise E - reveal time exceed)\",\r\n                    \"Error with reveal() function for player 1.\",\r\n                    errMsg\r\n                ),\r\n                false\r\n            );\r\n        }\r\n\r\n        // State should be revealing\r\n        if (compareStrings(assignmentContract.getState(), \"revealing\") == false)\r\n            return (\r\n                \"Error (Exercise E - reveal time exceed): The state is not 'revealing'. Please make sure that the state is set to 'revealing' when both players have played privat.\",\r\n                false\r\n            );\r\n\r\n        // Set \"fake\" block to 105\r\n        assignmentContract.setBlockNumber(105);\r\n\r\n        // Exceed reveal time --> second reveal should result in fail and player 1 getting all funds\r\n\r\n        // Player 2 reveal his choice\r\n        try\r\n            validatorHelper.callReveal(assignmentContract, \"paper\", seedP2)\r\n        {} catch Error(string memory errMsg) {\r\n            return (\r\n                buildErrorMessage(\r\n                    \"Error (Exercise E - reveal time exceed)\",\r\n                    \"Error with reveal() function for player 2.\",\r\n                    errMsg\r\n                ),\r\n                false\r\n            );\r\n        }\r\n\r\n        // Get balance of player 1\r\n        uint256 player1BalanceAfter = player1.balance;\r\n\r\n        // Check if player 1 balance increased\r\n        if (player1BalanceAfter <= player1BalanceBefore)\r\n            return (\r\n                \"Error (Exercise E - reveal time exceed): The player 1 balance is not bigger than before. Please make sure that the player who won the game gets the reward.\",\r\n                false\r\n            );\r\n\r\n        // Reset the max time to default\r\n        assignmentContract.forceReset();\r\n        assignmentContract.setMaxTime(\"reveal\", 10); // 10 blocks = 2 minutes (block = 12 seconds)\r\n\r\n        return (\"Exercise E (private game): All tests passed.\", true);\r\n    }\r\n}\r\n",
  "sourcePath": "C:\\Users\\stefa\\www\\mtp-blockchain\\smart-contracts\\contracts\\assignment_2\\Validator2TaskE.sol",
  "compiler": {
    "name": "solc",
    "version": "0.8.19+commit.7dd6d404.Emscripten.clang"
  },
  "schemaVersion": "3.4.11",
  "updatedAt": "2023-02-24T09:41:35.103Z",
  "devdoc": {
    "kind": "dev",
    "methods": {},
    "version": 1
  },
  "userdoc": {
    "kind": "user",
    "methods": {},
    "version": 1
  }
}