{
  "contractName": "Validator2TaskA",
  "abi": [
    {
      "inputs": [
        {
          "internalType": "address",
          "name": "_configContractAddress",
          "type": "address"
        }
      ],
      "stateMutability": "nonpayable",
      "type": "constructor"
    },
    {
      "inputs": [
        {
          "internalType": "string",
          "name": "_prefix",
          "type": "string"
        },
        {
          "internalType": "string",
          "name": "_message",
          "type": "string"
        },
        {
          "internalType": "string",
          "name": "_errorMsg",
          "type": "string"
        }
      ],
      "name": "buildErrorMessage",
      "outputs": [
        {
          "internalType": "string",
          "name": "",
          "type": "string"
        }
      ],
      "stateMutability": "pure",
      "type": "function"
    },
    {
      "inputs": [
        {
          "internalType": "string",
          "name": "_prefix",
          "type": "string"
        },
        {
          "internalType": "string",
          "name": "_message",
          "type": "string"
        },
        {
          "internalType": "string",
          "name": "_expected",
          "type": "string"
        },
        {
          "internalType": "string",
          "name": "_actual",
          "type": "string"
        }
      ],
      "name": "buildErrorMessageExtended",
      "outputs": [
        {
          "internalType": "string",
          "name": "",
          "type": "string"
        }
      ],
      "stateMutability": "pure",
      "type": "function"
    },
    {
      "inputs": [
        {
          "internalType": "string",
          "name": "a",
          "type": "string"
        },
        {
          "internalType": "string",
          "name": "b",
          "type": "string"
        }
      ],
      "name": "compareStrings",
      "outputs": [
        {
          "internalType": "bool",
          "name": "",
          "type": "bool"
        }
      ],
      "stateMutability": "pure",
      "type": "function"
    },
    {
      "inputs": [],
      "name": "getConfigStorage",
      "outputs": [
        {
          "internalType": "contract ConfigStorage",
          "name": "",
          "type": "address"
        }
      ],
      "stateMutability": "view",
      "type": "function"
    },
    {
      "inputs": [
        {
          "internalType": "address",
          "name": "_configContractAddress",
          "type": "address"
        },
        {
          "internalType": "string",
          "name": "_contractName",
          "type": "string"
        }
      ],
      "name": "initAdmin",
      "outputs": [],
      "stateMutability": "nonpayable",
      "type": "function"
    },
    {
      "inputs": [
        {
          "internalType": "address payable",
          "name": "_to",
          "type": "address"
        },
        {
          "internalType": "uint256",
          "name": "_value",
          "type": "uint256"
        }
      ],
      "name": "withdrawFunds",
      "outputs": [],
      "stateMutability": "payable",
      "type": "function"
    },
    {
      "stateMutability": "payable",
      "type": "receive"
    },
    {
      "inputs": [
        {
          "internalType": "address",
          "name": "_contractAddress",
          "type": "address"
        },
        {
          "internalType": "address",
          "name": "_validatorHelperAddress",
          "type": "address"
        }
      ],
      "name": "initContract",
      "outputs": [],
      "stateMutability": "nonpayable",
      "type": "function"
    },
    {
      "inputs": [],
      "name": "prepareGame",
      "outputs": [
        {
          "internalType": "string",
          "name": "",
          "type": "string"
        },
        {
          "internalType": "bool",
          "name": "",
          "type": "bool"
        }
      ],
      "stateMutability": "payable",
      "type": "function"
    },
    {
      "inputs": [],
      "name": "testExerciseA",
      "outputs": [
        {
          "internalType": "string",
          "name": "",
          "type": "string"
        },
        {
          "internalType": "bool",
          "name": "",
          "type": "bool"
        }
      ],
      "stateMutability": "payable",
      "type": "function"
    },
    {
      "inputs": [],
      "name": "testWrongChoice",
      "outputs": [
        {
          "internalType": "string",
          "name": "",
          "type": "string"
        },
        {
          "internalType": "bool",
          "name": "",
          "type": "bool"
        }
      ],
      "stateMutability": "payable",
      "type": "function"
    },
    {
      "inputs": [],
      "name": "testTwoChoices",
      "outputs": [
        {
          "internalType": "string",
          "name": "",
          "type": "string"
        },
        {
          "internalType": "bool",
          "name": "",
          "type": "bool"
        }
      ],
      "stateMutability": "payable",
      "type": "function"
    },
    {
      "inputs": [],
      "name": "testThirdGame",
      "outputs": [
        {
          "internalType": "string",
          "name": "",
          "type": "string"
        },
        {
          "internalType": "bool",
          "name": "",
          "type": "bool"
        }
      ],
      "stateMutability": "payable",
      "type": "function"
    }
  ],
  "bytecode": "0x60806040523480156200001157600080fd5b50604051620035db380380620035db8339818101604052810190620000379190620001c6565b62000062816040518060600160405280602d8152602001620035ae602d91396200006960201b60201c565b50620002d7565b816000806101000a81548173ffffffffffffffffffffffffffffffffffffffff021916908373ffffffffffffffffffffffffffffffffffffffff1602179055506000620000bb6200013360201b60201c565b90508073ffffffffffffffffffffffffffffffffffffffff16637fb99b9330846040518363ffffffff1660e01b8152600401620000fa929190620002a3565b600060405180830381600087803b1580156200011557600080fd5b505af11580156200012a573d6000803e3d6000fd5b50505050505050565b60008060009054906101000a900473ffffffffffffffffffffffffffffffffffffffff16905090565b600080fd5b600073ffffffffffffffffffffffffffffffffffffffff82169050919050565b60006200018e8262000161565b9050919050565b620001a08162000181565b8114620001ac57600080fd5b50565b600081519050620001c08162000195565b92915050565b600060208284031215620001df57620001de6200015c565b5b6000620001ef84828501620001af565b91505092915050565b620002038162000181565b82525050565b600081519050919050565b600082825260208201905092915050565b60005b838110156200024557808201518184015260208101905062000228565b60008484015250505050565b6000601f19601f8301169050919050565b60006200026f8262000209565b6200027b818562000214565b93506200028d81856020860162000225565b620002988162000251565b840191505092915050565b6000604082019050620002ba6000830185620001f8565b8181036020830152620002ce818462000262565b90509392505050565b6132c780620002e76000396000f3fe6080604052600436106100ab5760003560e01c806379f31f2c1161006457806379f31f2c146101c3578063bed34bba146101e2578063c10753291461021f578063c94eefec1461023b578063cfacdce81461025a578063fae45fbe14610279576100b2565b806313f6a822146100b757806325ba0f51146100d65780632b518301146100ff578063516cbbe21461013c5780635827a0651461016757806371349a40146101a4576100b2565b366100b257005b600080fd5b6100bf6102a2565b6040516100cd929190611f58565b60405180910390f35b3480156100e257600080fd5b506100fd60048036038101906100f89190611ffa565b61039f565b005b34801561010b57600080fd5b506101266004803603810190610121919061216f565b610425565b6040516101339190612216565b60405180910390f35b34801561014857600080fd5b50610151610454565b60405161015e9190612297565b60405180910390f35b34801561017357600080fd5b5061018e600480360381019061018991906122b2565b61047d565b60405161019b9190612216565b60405180910390f35b6101ac6104af565b6040516101ba929190611f58565b60405180910390f35b6101cb611098565b6040516101d9929190611f58565b60405180910390f35b3480156101ee57600080fd5b5061020960048036038101906102049190612389565b6111a6565b6040516102169190612401565b60405180910390f35b61023960048036038101906102349190612490565b6111ff565b005b61024361154e565b604051610251929190611f58565b60405180910390f35b6102626116fa565b604051610270929190611f58565b60405180910390f35b34801561028557600080fd5b506102a0600480360381019061029b91906124d0565b611bce565b005b606060008060006102b16104af565b91509150806102c85781600093509350505061039b565b600160009054906101000a900473ffffffffffffffffffffffffffffffffffffffff1673ffffffffffffffffffffffffffffffffffffffff1663718e63026040518163ffffffff1660e01b815260040161032190612578565b600060405180830381600087803b15801561033b57600080fd5b505af192505050801561034c575060015b156103785760006040518060a00160405280606381526020016131cc606391399093509350505061039b565b60016040518060600160405280602c8152602001613146602c9139909350935050505b9091565b81600160006101000a81548173ffffffffffffffffffffffffffffffffffffffff021916908373ffffffffffffffffffffffffffffffffffffffff16021790555080600260006101000a81548173ffffffffffffffffffffffffffffffffffffffff021916908373ffffffffffffffffffffffffffffffffffffffff1602179055505050565b606083838360405160200161043c9392919061266c565b60405160208183030381529060405290509392505050565b60008060009054906101000a900473ffffffffffffffffffffffffffffffffffffffff16905090565b606084848484604051602001610496949392919061274b565b6040516020818303038152906040529050949350505050565b60606000600160009054906101000a900473ffffffffffffffffffffffffffffffffffffffff1673ffffffffffffffffffffffffffffffffffffffff16638b680cc36040518163ffffffff1660e01b8152600401600060405180830381600087803b15801561051d57600080fd5b505af192505050801561052e575060015b6105c95761053a6127b7565b806308c379a0036105bd575061054e6127d9565b8061055957506105bf565b6105b16040518060400160405280601281526020017f4572726f722028457865726369736520412900000000000000000000000000008152506040518060600160405280602181526020016130086021913983610425565b60009250925050611094565b505b3d6000803e3d6000fd5b6000600160009054906101000a900473ffffffffffffffffffffffffffffffffffffffff1673ffffffffffffffffffffffffffffffffffffffff1663944ccc376040518163ffffffff1660e01b8152600401602060405180830381865afa158015610638573d6000803e3d6000fd5b505050506040513d601f19601f8201168201806040525081019061065c919061287e565b9050600160009054906101000a900473ffffffffffffffffffffffffffffffffffffffff1673ffffffffffffffffffffffffffffffffffffffff16631865c57d6040518163ffffffff1660e01b8152600401600060405180830381865afa9250505080156106ed57506040513d6000823e3d601f19601f820116820180604052508101906106ea919061291b565b60015b6107a6576106f96127b7565b806308c379a00361079a575061070d6127d9565b80610718575061079c565b61078d6040518060400160405280601281526020017f4572726f722028457865726369736520412900000000000000000000000000008152506040518060400160405280601f81526020017f4572726f72207769746820676574537461746528292066756e6374696f6e2e0081525083610425565b6000935093505050611094565b505b3d6000803e3d6000fd5b6107e5816040518060400160405280600781526020017f77616974696e67000000000000000000000000000000000000000000000000008152506111a6565b6108105760006040518060600160405280602c81526020016131a0602c913990935093505050611094565b50600160009054906101000a900473ffffffffffffffffffffffffffffffffffffffff1673ffffffffffffffffffffffffffffffffffffffff1663be9a655566038d7ea4c680006040518263ffffffff1660e01b815260040160206040518083038185885af1935050505080156108a557506040513d601f19601f820116820180604052508101906108a2919061287e565b60015b61095e576108b16127b7565b806308c379a00361095257506108c56127d9565b806108d05750610954565b6109456040518060400160405280601281526020017f4572726f722028457865726369736520412900000000000000000000000000008152506040518060400160405280601c81526020017f4572726f72207769746820737461727428292066756e6374696f6e2e0000000081525083610425565b6000935093505050611094565b505b3d6000803e3d6000fd5b60018114610a2657610a196040518060400160405280601281526020017f4572726f722028457865726369736520412900000000000000000000000000008152506040518060400160405280601681526020017f54686520706c617965722069642069732077726f6e67000000000000000000008152506040518060400160405280600181526020017f3100000000000000000000000000000000000000000000000000000000000000815250610a1485611c8c565b61047d565b6000935093505050611094565b50600181610a349190612993565b600160009054906101000a900473ffffffffffffffffffffffffffffffffffffffff1673ffffffffffffffffffffffffffffffffffffffff1663944ccc376040518163ffffffff1660e01b8152600401602060405180830381865afa158015610aa1573d6000803e3d6000fd5b505050506040513d601f19601f82011682018060405250810190610ac5919061287e565b14610af0576000604051806060016040528060368152602001612eed60369139909250925050611094565b610bc4600160009054906101000a900473ffffffffffffffffffffffffffffffffffffffff1673ffffffffffffffffffffffffffffffffffffffff16631865c57d6040518163ffffffff1660e01b8152600401600060405180830381865afa158015610b60573d6000803e3d6000fd5b505050506040513d6000823e3d601f19601f82011682018060405250810190610b89919061291b565b6040518060400160405280600881526020017f7374617274696e670000000000000000000000000000000000000000000000008152506111a6565b610d1457610d086040518060400160405280601281526020017f4572726f722028457865726369736520412900000000000000000000000000008152506040518060400160405280601b81526020017f546865207374617465206973206e6f7420277374617274696e672700000000008152506040518060400160405280600881526020017f7374617274696e67000000000000000000000000000000000000000000000000815250600160009054906101000a900473ffffffffffffffffffffffffffffffffffffffff1673ffffffffffffffffffffffffffffffffffffffff16631865c57d6040518163ffffffff1660e01b8152600401600060405180830381865afa158015610cda573d6000803e3d6000fd5b505050506040513d6000823e3d601f19601f82011682018060405250810190610d03919061291b565b61047d565b60009250925050611094565b600260009054906101000a900473ffffffffffffffffffffffffffffffffffffffff1673ffffffffffffffffffffffffffffffffffffffff1663469ad8e366038d7ea4c68000600160009054906101000a900473ffffffffffffffffffffffffffffffffffffffff166040518363ffffffff1660e01b8152600401610d9991906129e8565b60206040518083038185885af193505050508015610dd557506040513d601f19601f82011682018060405250810190610dd2919061287e565b60015b610e8e57610de16127b7565b806308c379a003610e825750610df56127d9565b80610e005750610e84565b610e756040518060400160405280601281526020017f4572726f722028457865726369736520412900000000000000000000000000008152506040518060400160405280601c81526020017f4572726f72207769746820737461727428292066756e6374696f6e2e0000000081525083610425565b6000935093505050611094565b505b3d6000803e3d6000fd5b60028114610f5657610f496040518060400160405280601281526020017f4572726f722028457865726369736520412900000000000000000000000000008152506040518060400160405280601681526020017f54686520706c617965722069642069732077726f6e67000000000000000000008152506040518060400160405280600181526020017f3200000000000000000000000000000000000000000000000000000000000000815250610f4485611c8c565b61047d565b6000935093505050611094565b5061102b600160009054906101000a900473ffffffffffffffffffffffffffffffffffffffff1673ffffffffffffffffffffffffffffffffffffffff16631865c57d6040518163ffffffff1660e01b8152600401600060405180830381865afa158015610fc7573d6000803e3d6000fd5b505050506040513d6000823e3d601f19601f82011682018060405250810190610ff0919061291b565b6040518060400160405280600781526020017f706c6179696e67000000000000000000000000000000000000000000000000008152506111a6565b6110555760006040518060600160405280602e8152602001613172602e9139909250925050611094565b60016040518060400160405280601981526020017f507265706172652047616d653a207375636365737366756c2e000000000000008152509092509250505b9091565b606060008060006110a76104af565b91509150806110be578160009350935050506111a2565b600160009054906101000a900473ffffffffffffffffffffffffffffffffffffffff1673ffffffffffffffffffffffffffffffffffffffff1663be9a655566038d7ea4c680006040518263ffffffff1660e01b815260040160206040518083038185885af19350505050801561115257506040513d601f19601f8201168201806040525081019061114f919061287e565b60015b1561117f575060006040518060c00160405280608f8152602001612f52608f9139909350935050506111a2565b60016040518060600160405280603581526020016130e260359139909350935050505b9091565b6000816040516020016111b99190612a03565b60405160208183030381529060405280519060200120836040516020016111e09190612a03565b6040516020818303038152906040528051906020012014905092915050565b611207610454565b73ffffffffffffffffffffffffffffffffffffffff166324d7806c336040518263ffffffff1660e01b815260040161123f9190612a29565b602060405180830381865afa15801561125c573d6000803e3d6000fd5b505050506040513d601f19601f820116820180604052508101906112809190612a70565b6112bf576040517f08c379a00000000000000000000000000000000000000000000000000000000081526004016112b690612b0f565b60405180910390fd5b600073ffffffffffffffffffffffffffffffffffffffff168273ffffffffffffffffffffffffffffffffffffffff160361132e576040517f08c379a000000000000000000000000000000000000000000000000000000000815260040161132590612b7b565b60405180910390fd5b3373ffffffffffffffffffffffffffffffffffffffff168273ffffffffffffffffffffffffffffffffffffffff16148061139357503273ffffffffffffffffffffffffffffffffffffffff168273ffffffffffffffffffffffffffffffffffffffff16145b8061141b57506113a1610454565b73ffffffffffffffffffffffffffffffffffffffff166324d7806c836040518263ffffffff1660e01b81526004016113d99190612bbc565b602060405180830381865afa1580156113f6573d6000803e3d6000fd5b505050506040513d601f19601f8201168201806040525081019061141a9190612a70565b5b61145a576040517f08c379a000000000000000000000000000000000000000000000000000000000815260040161145190612c49565b60405180910390fd5b4781101561149d576040517f08c379a000000000000000000000000000000000000000000000000000000000815260040161149490612cb5565b60405180910390fd5b60008273ffffffffffffffffffffffffffffffffffffffff16826040516114c390612d06565b60006040518083038185875af1925050503d8060008114611500576040519150601f19603f3d011682016040523d82523d6000602084013e611505565b606091505b5050905080611549576040517f08c379a000000000000000000000000000000000000000000000000000000000815260040161154090612d67565b60405180910390fd5b505050565b6060600080600061155d6104af565b9150915080611574578160009350935050506116f6565b600160009054906101000a900473ffffffffffffffffffffffffffffffffffffffff1673ffffffffffffffffffffffffffffffffffffffff1663718e63026040518163ffffffff1660e01b81526004016115cd90612dd3565b600060405180830381600087803b1580156115e757600080fd5b505af19250505080156115f8575060015b6116235760006040518060800160405280605f8152602001613029605f9139909350935050506116f6565b600160009054906101000a900473ffffffffffffffffffffffffffffffffffffffff1673ffffffffffffffffffffffffffffffffffffffff1663718e63026040518163ffffffff1660e01b815260040161167c90612e3f565b600060405180830381600087803b15801561169657600080fd5b505af19250505080156116a7575060015b156116d35760006040518060a001604052806063815260200161322f60639139909350935050506116f6565b60016040518060600160405280602b8152602001613088602b9139909350935050505b9091565b606060008060006117096104af565b915091508061172057816000935093505050611bca565b600160009054906101000a900473ffffffffffffffffffffffffffffffffffffffff1673ffffffffffffffffffffffffffffffffffffffff1663718e63026040518163ffffffff1660e01b815260040161177990612dd3565b600060405180830381600087803b15801561179357600080fd5b505af19250505080156117a4575060015b6117cf5760006040518060600160405280602f8152602001613117602f913990935093505050611bca565b6118a3600160009054906101000a900473ffffffffffffffffffffffffffffffffffffffff1673ffffffffffffffffffffffffffffffffffffffff16631865c57d6040518163ffffffff1660e01b8152600401600060405180830381865afa15801561183f573d6000803e3d6000fd5b505050506040513d6000823e3d601f19601f82011682018060405250810190611868919061291b565b6040518060400160405280600781526020017f706c6179696e67000000000000000000000000000000000000000000000000008152506111a6565b6118ce5760006040518060600160405280602f81526020016130b3602f913990935093505050611bca565b600260009054906101000a900473ffffffffffffffffffffffffffffffffffffffff1673ffffffffffffffffffffffffffffffffffffffff1663f7e01dfc600160009054906101000a900473ffffffffffffffffffffffffffffffffffffffff166040518263ffffffff1660e01b815260040161194b9190612e5f565b600060405180830381600087803b15801561196557600080fd5b505af1925050508015611976575060015b611a13576119826127b7565b806308c379a003611a0757506119966127d9565b806119a15750611a09565b6119f96040518060400160405280601281526020017f4572726f72202845786572636973652041290000000000000000000000000000815250604051806060016040528060278152602001612fe16027913983610425565b600094509450505050611bca565b505b3d6000803e3d6000fd5b611ae7600160009054906101000a900473ffffffffffffffffffffffffffffffffffffffff1673ffffffffffffffffffffffffffffffffffffffff16631865c57d6040518163ffffffff1660e01b8152600401600060405180830381865afa158015611a83573d6000803e3d6000fd5b505050506040513d6000823e3d601f19601f82011682018060405250810190611aac919061291b565b6040518060400160405280600781526020017f77616974696e67000000000000000000000000000000000000000000000000008152506111a6565b611b125760006040518060600160405280602f8152602001612f23602f913990935093505050611bca565b600080611b1d6102a2565b9150915080611b36578160009550955050505050611bca565b600080611b4161154e565b9150915080611b5c5781600097509750505050505050611bca565b600080611b67611098565b9150915080611b8457816000995099505050505050505050611bca565b60016040518060400160405280601d81526020017f457865726369736520413a20416c6c207465737473207061737365642e000000815250909950995050505050505050505b9091565b816000806101000a81548173ffffffffffffffffffffffffffffffffffffffff021916908373ffffffffffffffffffffffffffffffffffffffff1602179055506000611c18610454565b90508073ffffffffffffffffffffffffffffffffffffffff16637fb99b9330846040518363ffffffff1660e01b8152600401611c55929190612e8d565b600060405180830381600087803b158015611c6f57600080fd5b505af1158015611c83573d6000803e3d6000fd5b50505050505050565b606060006001611c9b84611d5a565b01905060008167ffffffffffffffff811115611cba57611cb9612044565b5b6040519080825280601f01601f191660200182016040528015611cec5781602001600182028036833780820191505090505b509050600082602001820190505b600115611d4f578080600190039150507f3031323334353637383961626364656600000000000000000000000000000000600a86061a8153600a8581611d4357611d42612ebd565b5b04945060008503611cfa575b819350505050919050565b600080600090507a184f03e93ff9f4daa797ed6e38ed64bf6a1f0100000000000000008310611db8577a184f03e93ff9f4daa797ed6e38ed64bf6a1f0100000000000000008381611dae57611dad612ebd565b5b0492506040810190505b6d04ee2d6d415b85acef81000000008310611df5576d04ee2d6d415b85acef81000000008381611deb57611dea612ebd565b5b0492506020810190505b662386f26fc100008310611e2457662386f26fc100008381611e1a57611e19612ebd565b5b0492506010810190505b6305f5e1008310611e4d576305f5e1008381611e4357611e42612ebd565b5b0492506008810190505b6127108310611e72576127108381611e6857611e67612ebd565b5b0492506004810190505b60648310611e955760648381611e8b57611e8a612ebd565b5b0492506002810190505b600a8310611ea4576001810190505b80915050919050565b600081519050919050565b600082825260208201905092915050565b60005b83811015611ee7578082015181840152602081019050611ecc565b60008484015250505050565b6000601f19601f8301169050919050565b6000611f0f82611ead565b611f198185611eb8565b9350611f29818560208601611ec9565b611f3281611ef3565b840191505092915050565b60008115159050919050565b611f5281611f3d565b82525050565b60006040820190508181036000830152611f728185611f04565b9050611f816020830184611f49565b9392505050565b6000604051905090565b600080fd5b600080fd5b600073ffffffffffffffffffffffffffffffffffffffff82169050919050565b6000611fc782611f9c565b9050919050565b611fd781611fbc565b8114611fe257600080fd5b50565b600081359050611ff481611fce565b92915050565b6000806040838503121561201157612010611f92565b5b600061201f85828601611fe5565b925050602061203085828601611fe5565b9150509250929050565b600080fd5b600080fd5b7f4e487b7100000000000000000000000000000000000000000000000000000000600052604160045260246000fd5b61207c82611ef3565b810181811067ffffffffffffffff8211171561209b5761209a612044565b5b80604052505050565b60006120ae611f88565b90506120ba8282612073565b919050565b600067ffffffffffffffff8211156120da576120d9612044565b5b6120e382611ef3565b9050602081019050919050565b82818337600083830152505050565b600061211261210d846120bf565b6120a4565b90508281526020810184848401111561212e5761212d61203f565b5b6121398482856120f0565b509392505050565b600082601f8301126121565761215561203a565b5b81356121668482602086016120ff565b91505092915050565b60008060006060848603121561218857612187611f92565b5b600084013567ffffffffffffffff8111156121a6576121a5611f97565b5b6121b286828701612141565b935050602084013567ffffffffffffffff8111156121d3576121d2611f97565b5b6121df86828701612141565b925050604084013567ffffffffffffffff811115612200576121ff611f97565b5b61220c86828701612141565b9150509250925092565b600060208201905081810360008301526122308184611f04565b905092915050565b6000819050919050565b600061225d61225861225384611f9c565b612238565b611f9c565b9050919050565b600061226f82612242565b9050919050565b600061228182612264565b9050919050565b61229181612276565b82525050565b60006020820190506122ac6000830184612288565b92915050565b600080600080608085870312156122cc576122cb611f92565b5b600085013567ffffffffffffffff8111156122ea576122e9611f97565b5b6122f687828801612141565b945050602085013567ffffffffffffffff81111561231757612316611f97565b5b61232387828801612141565b935050604085013567ffffffffffffffff81111561234457612343611f97565b5b61235087828801612141565b925050606085013567ffffffffffffffff81111561237157612370611f97565b5b61237d87828801612141565b91505092959194509250565b600080604083850312156123a05761239f611f92565b5b600083013567ffffffffffffffff8111156123be576123bd611f97565b5b6123ca85828601612141565b925050602083013567ffffffffffffffff8111156123eb576123ea611f97565b5b6123f785828601612141565b9150509250929050565b60006020820190506124166000830184611f49565b92915050565b600061242782611f9c565b9050919050565b6124378161241c565b811461244257600080fd5b50565b6000813590506124548161242e565b92915050565b6000819050919050565b61246d8161245a565b811461247857600080fd5b50565b60008135905061248a81612464565b92915050565b600080604083850312156124a7576124a6611f92565b5b60006124b585828601612445565b92505060206124c68582860161247b565b9150509250929050565b600080604083850312156124e7576124e6611f92565b5b60006124f585828601611fe5565b925050602083013567ffffffffffffffff81111561251657612515611f97565b5b61252285828601612141565b9150509250929050565b7f6272756e6e656e00000000000000000000000000000000000000000000000000600082015250565b6000612562600783611eb8565b915061256d8261252c565b602082019050919050565b6000602082019050818103600083015261259181612555565b9050919050565b600081905092915050565b60006125ae82611ead565b6125b88185612598565b93506125c8818560208601611ec9565b80840191505092915050565b7f3a20000000000000000000000000000000000000000000000000000000000000600082015250565b600061260a600283612598565b9150612615826125d4565b600282019050919050565b7f203e200000000000000000000000000000000000000000000000000000000000600082015250565b6000612656600383612598565b915061266182612620565b600382019050919050565b600061267882866125a3565b9150612683826125fd565b915061268f82856125a3565b915061269a82612649565b91506126a682846125a3565b9150819050949350505050565b7f2045787065637465643a20000000000000000000000000000000000000000000600082015250565b60006126e9600b83612598565b91506126f4826126b3565b600b82019050919050565b7f2041637475616c3a200000000000000000000000000000000000000000000000600082015250565b6000612735600983612598565b9150612740826126ff565b600982019050919050565b600061275782876125a3565b9150612762826125fd565b915061276e82866125a3565b9150612779826126dc565b915061278582856125a3565b915061279082612728565b915061279c82846125a3565b915081905095945050505050565b60008160e01c9050919050565b600060033d11156127d65760046000803e6127d36000516127aa565b90505b90565b600060443d10612866576127eb611f88565b60043d036004823e80513d602482011167ffffffffffffffff82111715612813575050612866565b808201805167ffffffffffffffff8111156128315750505050612866565b80602083010160043d03850181111561284e575050505050612866565b61285d82602001850186612073565b82955050505050505b90565b60008151905061287881612464565b92915050565b60006020828403121561289457612893611f92565b5b60006128a284828501612869565b91505092915050565b60006128be6128b9846120bf565b6120a4565b9050828152602081018484840111156128da576128d961203f565b5b6128e5848285611ec9565b509392505050565b600082601f8301126129025761290161203a565b5b81516129128482602086016128ab565b91505092915050565b60006020828403121561293157612930611f92565b5b600082015167ffffffffffffffff81111561294f5761294e611f97565b5b61295b848285016128ed565b91505092915050565b7f4e487b7100000000000000000000000000000000000000000000000000000000600052601160045260246000fd5b600061299e8261245a565b91506129a98361245a565b92508282019050808211156129c1576129c0612964565b5b92915050565b60006129d282612264565b9050919050565b6129e2816129c7565b82525050565b60006020820190506129fd60008301846129d9565b92915050565b6000612a0f82846125a3565b915081905092915050565b612a2381611fbc565b82525050565b6000602082019050612a3e6000830184612a1a565b92915050565b612a4d81611f3d565b8114612a5857600080fd5b50565b600081519050612a6a81612a44565b92915050565b600060208284031215612a8657612a85611f92565b5b6000612a9484828501612a5b565b91505092915050565b7f4f6e6c7920636f6e74726163742061646d696e2063616e20776974686472617760008201527f2066756e64730000000000000000000000000000000000000000000000000000602082015250565b6000612af9602683611eb8565b9150612b0482612a9d565b604082019050919050565b60006020820190508181036000830152612b2881612aec565b9050919050565b7f496e76616c696420616464726573730000000000000000000000000000000000600082015250565b6000612b65600f83611eb8565b9150612b7082612b2f565b602082019050919050565b60006020820190508181036000830152612b9481612b58565b9050919050565b6000612ba682612264565b9050919050565b612bb681612b9b565b82525050565b6000602082019050612bd16000830184612bad565b92915050565b7f46756e64732063616e206f6e6c792062652077697468647261776e20746f206160008201527f646d696e2c206d73672e73656e646572206f722074782e6f726967696e000000602082015250565b6000612c33603d83611eb8565b9150612c3e82612bd7565b604082019050919050565b60006020820190508181036000830152612c6281612c26565b9050919050565b7f496e73756666696369656e742066756e64730000000000000000000000000000600082015250565b6000612c9f601283611eb8565b9150612caa82612c69565b602082019050919050565b60006020820190508181036000830152612cce81612c92565b9050919050565b600081905092915050565b50565b6000612cf0600083612cd5565b9150612cfb82612ce0565b600082019050919050565b6000612d1182612ce3565b9150819050919050565b7f5472616e73666572206661696c65642e00000000000000000000000000000000600082015250565b6000612d51601083611eb8565b9150612d5c82612d1b565b602082019050919050565b60006020820190508181036000830152612d8081612d44565b9050919050565b7f726f636b00000000000000000000000000000000000000000000000000000000600082015250565b6000612dbd600483611eb8565b9150612dc882612d87565b602082019050919050565b60006020820190508181036000830152612dec81612db0565b9050919050565b7f73636973736f7273000000000000000000000000000000000000000000000000600082015250565b6000612e29600883611eb8565b9150612e3482612df3565b602082019050919050565b60006020820190508181036000830152612e5881612e1c565b9050919050565b6000604082019050612e7460008301846129d9565b8181036020830152612e8581612e1c565b905092915050565b6000604082019050612ea26000830185612a1a565b8181036020830152612eb48184611f04565b90509392505050565b7f4e487b7100000000000000000000000000000000000000000000000000000000600052601260045260246000fdfe4572726f72202845786572636973652041293a205468652067616d6520636f756e746572206973206e6f7420696e63726561736564204572726f72202845786572636973652041293a20546865207374617465206973206e6f74202777616974696e67272e4572726f72202845786572636973652041202d2054686972642067616d652073746172742063616c6c293a2054686520737461727447616d652066756e6374696f6e20646964206e6f74206661696c207768656e207374617274696e67207468652067616d6520612074686972642074696d652c20747769636520617320706c61796572203120616464726573732e4572726f72207769746820706c617928292066756e6374696f6e20666f7220706c6179657220324572726f72207769746820666f726365526573657428292066756e6374696f6e2e4572726f72202845786572636973652041202d2054776f2043686f69636573293a2054686520706c61792066756e6374696f6e20646964206e6f74206661696c207768656e2073656e64696e672027726f636b272061732063686f6963652e45786572636973652041202854776f2043686f69636573293a20416c6c207465737473207061737365642e4572726f72202845786572636973652041293a20546865207374617465206973206e6f742027706c6179696e67272e45786572636973652041202854686972642067616d652073746172742063616c6c293a20416c6c207465737473207061737365642e4572726f72202845786572636973652041293a204572726f72207769746820706c617928292066756e6374696f6e2e45786572636973652041202857726f6e672043686f696365293a20416c6c207465737473207061737365642e4572726f72202845786572636973652041293a20546865207374617465206973206e6f742027706c6179696e67274572726f72202845786572636973652041293a204578706563746564202777616974696e67272073746174654572726f72202845786572636973652041202d2057726f6e672043686f696365293a2054686520706c61792066756e6374696f6e20646964206e6f74206661696c207768656e2073656e64696e6720276272756e6e656e272061732063686f6963652e4572726f72202845786572636973652041202d2054776f2043686f69636573293a2054686520706c61792066756e6374696f6e20646964206e6f74206661696c207768656e2073656e64696e67202773636973736f7273272061732063686f6963652ea2646970667358221220e455e5a59f110ef9848c4e36f1351a73890ee096e5418b9698edd661fee9f8d064736f6c63430008110033535332332041737369676e6d656e7420322056616c696461746f7220436f6e7472616374202d205461736b2041",
  "immutableReferences": {},
  "source": "// SPDX-License-Identifier: MIT\r\npragma solidity ^0.8.17;\r\n\r\n// Import the IAssignment2.sol\r\nimport \"./interface/IAssignment2.sol\";\r\n\r\n// Import Helper\r\nimport \"../Helper.sol\";\r\n\r\n// Import the assignment validator extend contract\r\nimport \"./Validator2Helper.sol\";\r\n\r\n// import \"BaseConfig.sol\";\r\nimport \"../BaseConfig.sol\";\r\n\r\ncontract Validator2TaskA is Helper, BaseConfig {\r\n    // assignment contract interface\r\n    IAssignment2 assignmentContract;\r\n    Validator2Helper validator2Helper;\r\n\r\n    constructor(address _configContractAddress) {\r\n        initAdmin(\r\n            _configContractAddress,\r\n            \"SS23 Assignment 2 Validator Contract - Task A\"\r\n        );\r\n    }\r\n\r\n    receive() external payable {}\r\n\r\n    // Init contract\r\n    function initContract(\r\n        address _contractAddress,\r\n        address _validatorHelperAddress\r\n    ) public {\r\n        // Call the contract interface which needs to be tested and store it in the variable assignmentContract\r\n        assignmentContract = IAssignment2(_contractAddress);\r\n        validator2Helper = Validator2Helper(payable(_validatorHelperAddress));\r\n    }\r\n\r\n    /*=============================================\r\n    =                   HELPER                  =\r\n    =============================================*/\r\n\r\n    // This function sets the game in the state that it accepts choices from account 1 or 2\r\n    function prepareGame() public payable returns (string memory, bool) {\r\n        // Reset game\r\n        try assignmentContract.forceReset() {} catch Error(\r\n            string memory errMsg\r\n        ) {\r\n            return (\r\n                buildErrorMessage(\r\n                    \"Error (Exercise A)\",\r\n                    \"Error with forceReset() function.\",\r\n                    errMsg\r\n                ),\r\n                false\r\n            );\r\n        }\r\n\r\n        // Get game counter\r\n        uint256 gameCounter = assignmentContract.getGameCounter();\r\n\r\n        // Test getState function\r\n        try assignmentContract.getState() returns (string memory state) {\r\n            // Check if the state is not \"waiting\"\r\n            if (!compareStrings(state, \"waiting\"))\r\n                return (\"Error (Exercise A): Expected 'waiting' state\", false);\r\n        } catch Error(string memory errMsg) {\r\n            return (\r\n                buildErrorMessage(\r\n                    \"Error (Exercise A)\",\r\n                    \"Error with getState() function.\",\r\n                    errMsg\r\n                ),\r\n                false\r\n            );\r\n        }\r\n\r\n        // Test Start\r\n        try assignmentContract.start{value: 0.001 ether}() returns (\r\n            uint256 playerId\r\n        ) {\r\n            // Check if the game id is not 0\r\n            if (playerId != 1)\r\n                return (\r\n                    buildErrorMessageExtended(\r\n                        \"Error (Exercise A)\",\r\n                        \"The player id is wrong\",\r\n                        \"1\",\r\n                        Strings.toString(playerId)\r\n                    ),\r\n                    false\r\n                );\r\n        } catch Error(string memory errMsg) {\r\n            return (\r\n                buildErrorMessage(\r\n                    \"Error (Exercise A)\",\r\n                    \"Error with start() function.\",\r\n                    errMsg\r\n                ),\r\n                false\r\n            );\r\n        }\r\n\r\n        // Check if that the game counter increase by 1\r\n        if (assignmentContract.getGameCounter() != gameCounter + 1)\r\n            return (\r\n                \"Error (Exercise A): The game counter is not increased \",\r\n                false\r\n            );\r\n\r\n        // Test getState function = starting\r\n        if (!compareStrings(assignmentContract.getState(), \"starting\"))\r\n            return (\r\n                buildErrorMessageExtended(\r\n                    \"Error (Exercise A)\",\r\n                    \"The state is not 'starting'\",\r\n                    \"starting\",\r\n                    assignmentContract.getState()\r\n                ),\r\n                false\r\n            );\r\n\r\n        // Test join second player\r\n        try\r\n            validator2Helper.callStart{value: 0.001 ether}(assignmentContract)\r\n        returns (uint256 playerId) {\r\n            // Check if the player id is 2\r\n            if (playerId != 2)\r\n                return (\r\n                    buildErrorMessageExtended(\r\n                        \"Error (Exercise A)\",\r\n                        \"The player id is wrong\",\r\n                        \"2\",\r\n                        Strings.toString(playerId)\r\n                    ),\r\n                    false\r\n                );\r\n        } catch Error(string memory errMsg) {\r\n            return (\r\n                buildErrorMessage(\r\n                    \"Error (Exercise A)\",\r\n                    \"Error with start() function.\",\r\n                    errMsg\r\n                ),\r\n                false\r\n            );\r\n        }\r\n\r\n        // Test getState function = playing\r\n        if (!compareStrings(assignmentContract.getState(), \"playing\"))\r\n            return (\"Error (Exercise A): The state is not 'playing'\", false);\r\n\r\n        return (\"Prepare Game: successful.\", true);\r\n    }\r\n\r\n    /*=============================================\r\n    =                  TASK A                   =\r\n    =============================================*/\r\n\r\n    function testExerciseA() public payable returns (string memory, bool) {\r\n        // Prepare the game\r\n        (string memory message, bool success) = prepareGame();\r\n\r\n        // If the game is not successfully prepared return the error message\r\n        if (!success) return (message, false);\r\n\r\n        // GAME IS NOW COMPLETE TEST PLAY FUNCTION\r\n\r\n        // player play \"rock\" --> Expected: to win\r\n        try assignmentContract.play(\"rock\") {} catch {\r\n            return (\"Error (Exercise A): Error with play() function.\", false);\r\n        }\r\n\r\n        // Test getState function = playing\r\n        if (!compareStrings(assignmentContract.getState(), \"playing\"))\r\n            return (\"Error (Exercise A): The state is not 'playing'.\", false);\r\n\r\n        // player play \"scissors\" --> to loose\r\n        try\r\n            validator2Helper.callPlay(assignmentContract, \"scissors\")\r\n        {} catch Error(string memory errMsg) {\r\n            return (\r\n                buildErrorMessage(\r\n                    \"Error (Exercise A)\",\r\n                    \"Error with play() function for player 2\",\r\n                    errMsg\r\n                ),\r\n                false\r\n            );\r\n        }\r\n\r\n        // Test getState function = waiting\r\n        if (!compareStrings(assignmentContract.getState(), \"waiting\"))\r\n            return (\"Error (Exercise A): The state is not 'waiting'.\", false);\r\n\r\n        // Test edge cases\r\n\r\n        // TEST 1: send \"brunnen\" as choice for player 1 --> Expected: fail\r\n        (string memory message1, bool success1) = testWrongChoice();\r\n        if (!success1) return (message1, false);\r\n\r\n        // TEST 2: send two choices from same address --> Expected: fail\r\n        (string memory message2, bool success2) = testTwoChoices();\r\n        if (!success2) return (message2, false);\r\n\r\n        // TEST 3: send start 3 times --> Expected: fail\r\n        (string memory message3, bool success3) = testThirdGame();\r\n        if (!success3) return (message3, false);\r\n\r\n        return (\"Exercise A: All tests passed.\", true);\r\n    }\r\n\r\n    // Test edge cases: send \"brunnen\" as choice for player 1 --> expected: fail\r\n    function testWrongChoice() public payable returns (string memory, bool) {\r\n        // Prepare the game\r\n        (string memory message, bool success) = prepareGame();\r\n\r\n        // If the game is not successfully prepared return the error message\r\n        if (!success) return (message, false);\r\n\r\n        // TEST 1: send \"brunnen\" as choice for player 1 --> Expected: fail\r\n        try assignmentContract.play(\"brunnen\") {\r\n            return (\r\n                \"Error (Exercise A - Wrong Choice): The play function did not fail when sending 'brunnen' as choice.\",\r\n                false\r\n            );\r\n        } catch {}\r\n\r\n        return (\"Exercise A (Wrong Choice): All tests passed.\", true);\r\n    }\r\n\r\n    // Test edge cases: send two choices for player 1: expected: fail\r\n    function testTwoChoices() public payable returns (string memory, bool) {\r\n        // Prepare the game\r\n        (string memory message, bool success) = prepareGame();\r\n\r\n        // If the game is not successfully prepared return the error message\r\n        if (!success) return (message, false);\r\n\r\n        // Send rock --> expected success\r\n        try assignmentContract.play(\"rock\") {} catch {\r\n            return (\r\n                \"Error (Exercise A - Two Choices): The play function did not fail when sending 'rock' as choice.\",\r\n                false\r\n            );\r\n        }\r\n\r\n        // Send scissors --> expected fail (because two submissions for same player)\r\n        try assignmentContract.play(\"scissors\") {\r\n            return (\r\n                \"Error (Exercise A - Two Choices): The play function did not fail when sending 'scissors' as choice.\",\r\n                false\r\n            );\r\n        } catch {}\r\n\r\n        return (\"Exercise A (Two Choices): All tests passed.\", true);\r\n    }\r\n\r\n    // Test edge cases: start a game a third time with player 1 address: expected: fail\r\n    function testThirdGame() public payable returns (string memory, bool) {\r\n        // Prepare the game\r\n        (string memory message, bool success) = prepareGame();\r\n\r\n        // If the game is not successfully prepared return the error message\r\n        if (!success) return (message, false);\r\n\r\n        // Start the game again\r\n        try assignmentContract.start{value: 0.001 ether}() {\r\n            return (\r\n                \"Error (Exercise A - Third game start call): The startGame function did not fail when starting the game a third time, twice as player 1 address.\",\r\n                false\r\n            );\r\n        } catch {}\r\n\r\n        return (\"Exercise A (Third game start call): All tests passed.\", true);\r\n    }\r\n}\r\n",
  "sourcePath": "C:\\Users\\jonas\\Repos\\mtp-blockchain\\smart-contracts\\contracts\\assignment_2\\Validator2TaskA.sol",
  "compiler": {
    "name": "solc",
    "version": "0.8.17+commit.8df45f5f.Emscripten.clang"
  },
  "schemaVersion": "3.4.11",
  "updatedAt": "2023-02-01T15:34:30.352Z",
  "devdoc": {
    "kind": "dev",
    "methods": {},
    "version": 1
  },
  "userdoc": {
    "kind": "user",
    "methods": {},
    "version": 1
  }
}