{
  "contractName": "Validator2Helper",
  "abi": [
    {
      "inputs": [],
      "stateMutability": "nonpayable",
      "type": "constructor"
    },
    {
      "stateMutability": "payable",
      "type": "fallback"
    },
    {
      "stateMutability": "payable",
      "type": "receive"
    },
    {
      "inputs": [
        {
          "internalType": "contract IAssignment2",
          "name": "assignmentContract",
          "type": "address"
        }
      ],
      "name": "callStart",
      "outputs": [
        {
          "internalType": "uint256",
          "name": "",
          "type": "uint256"
        }
      ],
      "stateMutability": "payable",
      "type": "function"
    },
    {
      "inputs": [
        {
          "internalType": "contract IAssignment2",
          "name": "assignmentContract",
          "type": "address"
        },
        {
          "internalType": "string",
          "name": "choice",
          "type": "string"
        }
      ],
      "name": "callPlay",
      "outputs": [],
      "stateMutability": "payable",
      "type": "function"
    },
    {
      "inputs": [
        {
          "internalType": "contract IAssignment2",
          "name": "assignmentContract",
          "type": "address"
        },
        {
          "internalType": "bytes32",
          "name": "hashedChoice",
          "type": "bytes32"
        }
      ],
      "name": "callPlayPrivate",
      "outputs": [],
      "stateMutability": "payable",
      "type": "function"
    },
    {
      "inputs": [
        {
          "internalType": "contract IAssignment2",
          "name": "assignmentContract",
          "type": "address"
        },
        {
          "internalType": "string",
          "name": "plainChoice",
          "type": "string"
        },
        {
          "internalType": "string",
          "name": "seed",
          "type": "string"
        }
      ],
      "name": "callReveal",
      "outputs": [],
      "stateMutability": "payable",
      "type": "function"
    }
  ],
  "bytecode": "0x608060405234801561001057600080fd5b506107b4806100206000396000f3fe6080604052600436106100435760003560e01c8063022c348f1461004c578063469ad8e314610068578063e6562c8914610098578063f7e01dfc146100b45761004a565b3661004a57005b005b61006660048036038101906100619190610465565b6100d0565b005b610082600480360381019061007d91906104f0565b610142565b60405161008f9190610536565b60405180910390f35b6100b260048036038101906100ad9190610587565b6101bd565b005b6100ce60048036038101906100c991906105c7565b61022c565b005b8273ffffffffffffffffffffffffffffffffffffffff16635ba1b2c783836040518363ffffffff1660e01b815260040161010b9291906106a2565b600060405180830381600087803b15801561012557600080fd5b505af1158015610139573d6000803e3d6000fd5b50505050505050565b60008173ffffffffffffffffffffffffffffffffffffffff1663be9a6555346040518263ffffffff1660e01b815260040160206040518083038185885af1158015610191573d6000803e3d6000fd5b50505050506040513d601f19601f820116820180604052508101906101b69190610705565b9050919050565b8173ffffffffffffffffffffffffffffffffffffffff16632853720c826040518263ffffffff1660e01b81526004016101f69190610741565b600060405180830381600087803b15801561021057600080fd5b505af1158015610224573d6000803e3d6000fd5b505050505050565b8173ffffffffffffffffffffffffffffffffffffffff1663718e6302826040518263ffffffff1660e01b8152600401610265919061075c565b600060405180830381600087803b15801561027f57600080fd5b505af1158015610293573d6000803e3d6000fd5b505050505050565b6000604051905090565b600080fd5b600080fd5b600073ffffffffffffffffffffffffffffffffffffffff82169050919050565b60006102da826102af565b9050919050565b60006102ec826102cf565b9050919050565b6102fc816102e1565b811461030757600080fd5b50565b600081359050610319816102f3565b92915050565b600080fd5b600080fd5b6000601f19601f8301169050919050565b7f4e487b7100000000000000000000000000000000000000000000000000000000600052604160045260246000fd5b61037282610329565b810181811067ffffffffffffffff821117156103915761039061033a565b5b80604052505050565b60006103a461029b565b90506103b08282610369565b919050565b600067ffffffffffffffff8211156103d0576103cf61033a565b5b6103d982610329565b9050602081019050919050565b82818337600083830152505050565b6000610408610403846103b5565b61039a565b90508281526020810184848401111561042457610423610324565b5b61042f8482856103e6565b509392505050565b600082601f83011261044c5761044b61031f565b5b813561045c8482602086016103f5565b91505092915050565b60008060006060848603121561047e5761047d6102a5565b5b600061048c8682870161030a565b935050602084013567ffffffffffffffff8111156104ad576104ac6102aa565b5b6104b986828701610437565b925050604084013567ffffffffffffffff8111156104da576104d96102aa565b5b6104e686828701610437565b9150509250925092565b600060208284031215610506576105056102a5565b5b60006105148482850161030a565b91505092915050565b6000819050919050565b6105308161051d565b82525050565b600060208201905061054b6000830184610527565b92915050565b6000819050919050565b61056481610551565b811461056f57600080fd5b50565b6000813590506105818161055b565b92915050565b6000806040838503121561059e5761059d6102a5565b5b60006105ac8582860161030a565b92505060206105bd85828601610572565b9150509250929050565b600080604083850312156105de576105dd6102a5565b5b60006105ec8582860161030a565b925050602083013567ffffffffffffffff81111561060d5761060c6102aa565b5b61061985828601610437565b9150509250929050565b600081519050919050565b600082825260208201905092915050565b60005b8381101561065d578082015181840152602081019050610642565b60008484015250505050565b600061067482610623565b61067e818561062e565b935061068e81856020860161063f565b61069781610329565b840191505092915050565b600060408201905081810360008301526106bc8185610669565b905081810360208301526106d08184610669565b90509392505050565b6106e28161051d565b81146106ed57600080fd5b50565b6000815190506106ff816106d9565b92915050565b60006020828403121561071b5761071a6102a5565b5b6000610729848285016106f0565b91505092915050565b61073b81610551565b82525050565b60006020820190506107566000830184610732565b92915050565b600060208201905081810360008301526107768184610669565b90509291505056fea26469706673582212204cabf11031a76b1a23756d49a0388d355527f490c542ff6a70aec4104860a07564736f6c63430008130033",
  "immutableReferences": {},
  "source": "// SPDX-License-Identifier: MIT\r\npragma solidity ^0.8.17;\r\n\r\n// Import the IAssignment2.sol\r\nimport \"./interface/IAssignment2.sol\";\r\n\r\nimport \"../../node_modules/@openzeppelin/contracts/utils/Strings.sol\";\r\n\r\n// This contract acts as player B\r\ncontract Validator2Helper {\r\n    constructor() {}\r\n\r\n    // Function to receive Ether. msg.data must be empty\r\n    receive() external payable {}\r\n\r\n    // Fallback function is called when msg.data is not empty\r\n    fallback() external payable {}\r\n\r\n    // Start function\r\n    function callStart(IAssignment2 assignmentContract)\r\n        public\r\n        payable\r\n        returns (uint256)\r\n    {\r\n        return assignmentContract.start{value: msg.value}();\r\n    }\r\n\r\n    function callPlay(IAssignment2 assignmentContract, string memory choice)\r\n        public\r\n        payable\r\n    {\r\n        assignmentContract.play(choice);\r\n    }\r\n\r\n    function callPlayPrivate(\r\n        IAssignment2 assignmentContract,\r\n        bytes32 hashedChoice\r\n    ) public payable {\r\n        assignmentContract.playPrivate(hashedChoice);\r\n    }\r\n\r\n    function callReveal(\r\n        IAssignment2 assignmentContract,\r\n        string memory plainChoice,\r\n        string memory seed\r\n    ) public payable {\r\n        assignmentContract.reveal(plainChoice, seed);\r\n    }\r\n}\r\n",
  "sourcePath": "C:\\Users\\stefa\\www\\mtp-blockchain\\smart-contracts\\contracts\\assignment_2\\Validator2Helper.sol",
  "compiler": {
    "name": "solc",
    "version": "0.8.19+commit.7dd6d404.Emscripten.clang"
  },
  "schemaVersion": "3.4.11",
  "updatedAt": "2023-02-28T09:01:11.295Z",
  "devdoc": {
    "kind": "dev",
    "methods": {},
    "version": 1
  },
  "userdoc": {
    "kind": "user",
    "methods": {},
    "version": 1
  }
}