{
  "contractName": "Validator1TaskD",
  "abi": [
    {
      "inputs": [
        {
          "internalType": "address",
          "name": "_configContractAddress",
          "type": "address"
        }
      ],
      "stateMutability": "nonpayable",
      "type": "constructor"
    },
    {
      "inputs": [
        {
          "internalType": "string",
          "name": "_prefix",
          "type": "string"
        },
        {
          "internalType": "string",
          "name": "_message",
          "type": "string"
        },
        {
          "internalType": "string",
          "name": "_errorMsg",
          "type": "string"
        }
      ],
      "name": "buildErrorMessage",
      "outputs": [
        {
          "internalType": "string",
          "name": "",
          "type": "string"
        }
      ],
      "stateMutability": "pure",
      "type": "function"
    },
    {
      "inputs": [
        {
          "internalType": "string",
          "name": "_prefix",
          "type": "string"
        },
        {
          "internalType": "string",
          "name": "_message",
          "type": "string"
        },
        {
          "internalType": "string",
          "name": "_expected",
          "type": "string"
        },
        {
          "internalType": "string",
          "name": "_actual",
          "type": "string"
        }
      ],
      "name": "buildErrorMessageExtended",
      "outputs": [
        {
          "internalType": "string",
          "name": "",
          "type": "string"
        }
      ],
      "stateMutability": "pure",
      "type": "function"
    },
    {
      "inputs": [
        {
          "internalType": "string",
          "name": "a",
          "type": "string"
        },
        {
          "internalType": "string",
          "name": "b",
          "type": "string"
        }
      ],
      "name": "compareStrings",
      "outputs": [
        {
          "internalType": "bool",
          "name": "",
          "type": "bool"
        }
      ],
      "stateMutability": "pure",
      "type": "function"
    },
    {
      "inputs": [],
      "name": "getConfigStorage",
      "outputs": [
        {
          "internalType": "contract ConfigStorage",
          "name": "",
          "type": "address"
        }
      ],
      "stateMutability": "view",
      "type": "function"
    },
    {
      "inputs": [
        {
          "internalType": "address",
          "name": "_configContractAddress",
          "type": "address"
        },
        {
          "internalType": "string",
          "name": "_contractName",
          "type": "string"
        }
      ],
      "name": "initAdmin",
      "outputs": [],
      "stateMutability": "nonpayable",
      "type": "function"
    },
    {
      "inputs": [
        {
          "internalType": "address",
          "name": "",
          "type": "address"
        },
        {
          "internalType": "address",
          "name": "",
          "type": "address"
        },
        {
          "internalType": "uint256",
          "name": "",
          "type": "uint256"
        },
        {
          "internalType": "bytes",
          "name": "",
          "type": "bytes"
        }
      ],
      "name": "onERC721Received",
      "outputs": [
        {
          "internalType": "bytes4",
          "name": "",
          "type": "bytes4"
        }
      ],
      "stateMutability": "nonpayable",
      "type": "function"
    },
    {
      "inputs": [
        {
          "internalType": "address payable",
          "name": "_to",
          "type": "address"
        },
        {
          "internalType": "uint256",
          "name": "_value",
          "type": "uint256"
        }
      ],
      "name": "withdrawFunds",
      "outputs": [],
      "stateMutability": "payable",
      "type": "function"
    },
    {
      "stateMutability": "payable",
      "type": "receive"
    },
    {
      "inputs": [
        {
          "internalType": "address",
          "name": "_contractAddress",
          "type": "address"
        },
        {
          "internalType": "address",
          "name": "_validator1HelperAddress",
          "type": "address"
        }
      ],
      "name": "initContract",
      "outputs": [],
      "stateMutability": "nonpayable",
      "type": "function"
    },
    {
      "inputs": [],
      "name": "testExerciseD",
      "outputs": [
        {
          "internalType": "string",
          "name": "",
          "type": "string"
        },
        {
          "internalType": "bool",
          "name": "",
          "type": "bool"
        }
      ],
      "stateMutability": "payable",
      "type": "function"
    }
  ],
  "bytecode": "0x60806040523480156200001157600080fd5b5060405162002671380380620026718339818101604052810190620000379190620001c6565b62000062816040518060600160405280602d815260200162002644602d91396200006960201b60201c565b50620002d7565b816000806101000a81548173ffffffffffffffffffffffffffffffffffffffff021916908373ffffffffffffffffffffffffffffffffffffffff1602179055506000620000bb6200013360201b60201c565b90508073ffffffffffffffffffffffffffffffffffffffff16637fb99b9330846040518363ffffffff1660e01b8152600401620000fa929190620002a3565b600060405180830381600087803b1580156200011557600080fd5b505af11580156200012a573d6000803e3d6000fd5b50505050505050565b60008060009054906101000a900473ffffffffffffffffffffffffffffffffffffffff16905090565b600080fd5b600073ffffffffffffffffffffffffffffffffffffffff82169050919050565b60006200018e8262000161565b9050919050565b620001a08162000181565b8114620001ac57600080fd5b50565b600081519050620001c08162000195565b92915050565b600060208284031215620001df57620001de6200015c565b5b6000620001ef84828501620001af565b91505092915050565b620002038162000181565b82525050565b600081519050919050565b600082825260208201905092915050565b60005b838110156200024557808201518184015260208101905062000228565b60008484015250505050565b6000601f19601f8301169050919050565b60006200026f8262000209565b6200027b818562000214565b93506200028d81856020860162000225565b620002988162000251565b840191505092915050565b6000604082019050620002ba6000830185620001f8565b8181036020830152620002ce818462000262565b90509392505050565b61235d80620002e76000396000f3fe60806040526004361061008a5760003560e01c80635827a065116100595780635827a065146101645780636fceee2b146101a1578063bed34bba146101c0578063c1075329146101fd578063fae45fbe1461021957610091565b8063150b7a021461009657806325ba0f51146100d35780632b518301146100fc578063516cbbe21461013957610091565b3661009157005b600080fd5b3480156100a257600080fd5b506100bd60048036038101906100b8919061127c565b610242565b6040516100ca919061133a565b60405180910390f35b3480156100df57600080fd5b506100fa60048036038101906100f59190611355565b610256565b005b34801561010857600080fd5b50610123600480360381019061011e9190611436565b6102dc565b604051610130919061155c565b60405180910390f35b34801561014557600080fd5b5061014e61030b565b60405161015b91906115dd565b60405180910390f35b34801561017057600080fd5b5061018b600480360381019061018691906115f8565b610334565b604051610198919061155c565b60405180910390f35b6101a9610366565b6040516101b79291906116ea565b60405180910390f35b3480156101cc57600080fd5b506101e760048036038101906101e2919061171a565b610c28565b6040516101f49190611792565b60405180910390f35b610217600480360381019061021291906117eb565b610c81565b005b34801561022557600080fd5b50610240600480360381019061023b919061182b565b610fd0565b005b600063150b7a0260e01b9050949350505050565b81600160006101000a81548173ffffffffffffffffffffffffffffffffffffffff021916908373ffffffffffffffffffffffffffffffffffffffff16021790555080600260006101000a81548173ffffffffffffffffffffffffffffffffffffffff021916908373ffffffffffffffffffffffffffffffffffffffff1602179055505050565b60608383836040516020016102f39392919061195b565b60405160208183030381529060405290509392505050565b60008060009054906101000a900473ffffffffffffffffffffffffffffffffffffffff16905090565b60608484848460405160200161034d9493929190611a3a565b6040516020818303038152906040529050949350505050565b60606000600160009054906101000a900473ffffffffffffffffffffffffffffffffffffffff1673ffffffffffffffffffffffffffffffffffffffff16636a627842662386f26fc10000306040518363ffffffff1660e01b81526004016103cd9190611aa8565b60206040518083038185885af19350505050801561040957506040513d601f19601f820116820180604052508101906104069190611ad8565b60015b61046c57610415611b12565b806308c379a0036104605750610429611b34565b806104345750610462565b806040516020016104459190611c36565b60405160208183030381529060405260009250925050610c24565b505b3d6000803e3d6000fd5b6000811115610c02576000600160009054906101000a900473ffffffffffffffffffffffffffffffffffffffff1673ffffffffffffffffffffffffffffffffffffffff166398d5fdca6040518163ffffffff1660e01b8152600401602060405180830381865afa1580156104e4573d6000803e3d6000fd5b505050506040513d601f19601f820116820180604052508101906105089190611ad8565b90506000600160009054906101000a900473ffffffffffffffffffffffffffffffffffffffff1673ffffffffffffffffffffffffffffffffffffffff166370a08231306040518263ffffffff1660e01b81526004016105679190611aa8565b602060405180830381865afa158015610584573d6000803e3d6000fd5b505050506040513d601f19601f820116820180604052508101906105a89190611ad8565b90506000600160009054906101000a900473ffffffffffffffffffffffffffffffffffffffff1673ffffffffffffffffffffffffffffffffffffffff1663c4e41b226040518163ffffffff1660e01b8152600401602060405180830381865afa92505050801561063657506040513d601f19601f820116820180604052508101906106339190611ad8565b60015b6106635760006040518060600160405280603981526020016122c860399139909550955050505050610c24565b80915050600160009054906101000a900473ffffffffffffffffffffffffffffffffffffffff1673ffffffffffffffffffffffffffffffffffffffff166342966c68655af3107a4000866040518363ffffffff1660e01b81526004016106c99190611c67565b6000604051808303818588803b1580156106e257600080fd5b505af1935050505080156106f4575060015b61075b57610700611b12565b806308c379a00361074f5750610714611b34565b8061071f5750610751565b806040516020016107309190611cf4565b6040516020818303038152906040526000965096505050505050610c24565b505b3d6000803e3d6000fd5b6000600160009054906101000a900473ffffffffffffffffffffffffffffffffffffffff1673ffffffffffffffffffffffffffffffffffffffff166370a08231306040518263ffffffff1660e01b81526004016107b89190611aa8565b602060405180830381865afa1580156107d5573d6000803e3d6000fd5b505050506040513d601f19601f820116820180604052508101906107f99190611ad8565b9050600060018461080a9190611d45565b820361082357808061081b90611d79565b91505061084e565b6000604051806080016040528060438152602001612196604391399097509750505050505050610c24565b6000600160009054906101000a900473ffffffffffffffffffffffffffffffffffffffff1673ffffffffffffffffffffffffffffffffffffffff166398d5fdca6040518163ffffffff1660e01b8152600401602060405180830381865afa1580156108bd573d6000803e3d6000fd5b505050506040513d601f19601f820116820180604052508101906108e19190611ad8565b9050655af3107a4000866108f59190611d45565b810361090e57818061090690611d79565b92505061093a565b60006040518060600160405280603b815260200161220a603b9139909850985050505050505050610c24565b6000600160009054906101000a900473ffffffffffffffffffffffffffffffffffffffff1673ffffffffffffffffffffffffffffffffffffffff1663c4e41b226040518163ffffffff1660e01b8152600401602060405180830381865afa1580156109a9573d6000803e3d6000fd5b505050506040513d601f19601f820116820180604052508101906109cd9190611ad8565b90506001856109dc9190611d45565b81036109f55782806109ed90611d79565b935050610a22565b60006040518060600160405280603781526020016122916037913990995099505050505050505050610c24565b6000600160009054906101000a900473ffffffffffffffffffffffffffffffffffffffff1673ffffffffffffffffffffffffffffffffffffffff16636a627842662386f26fc10000306040518363ffffffff1660e01b8152600401610a879190611aa8565b60206040518083038185885af1158015610aa5573d6000803e3d6000fd5b50505050506040513d601f19601f82011682018060405250810190610aca9190611ad8565b9050600260009054906101000a900473ffffffffffffffffffffffffffffffffffffffff1673ffffffffffffffffffffffffffffffffffffffff166318400ff066038d7ea4c68000600160009054906101000a900473ffffffffffffffffffffffffffffffffffffffff16846040518463ffffffff1660e01b8152600401610b53929190611de2565b6000604051808303818588803b158015610b6c57600080fd5b505af193505050508015610b7e575060015b610b95578380610b8d90611d79565b945050610bc3565b60016040518060800160405280604c8152602001612245604c9139909a509a50505050505050505050610c24565b60048403610bf957600160405180606001604052806027815260200161230160279139909a509a50505050505050505050610c24565b50505050505050505b5060006040518060600160405280603181526020016121d96031913990915091505b9091565b600081604051602001610c3b9190611e0b565b6040516020818303038152906040528051906020012083604051602001610c629190611e0b565b6040516020818303038152906040528051906020012014905092915050565b610c8961030b565b73ffffffffffffffffffffffffffffffffffffffff166324d7806c336040518263ffffffff1660e01b8152600401610cc19190611aa8565b602060405180830381865afa158015610cde573d6000803e3d6000fd5b505050506040513d601f19601f82011682018060405250810190610d029190611e4e565b610d41576040517f08c379a0000000000000000000000000000000000000000000000000000000008152600401610d3890611eed565b60405180910390fd5b600073ffffffffffffffffffffffffffffffffffffffff168273ffffffffffffffffffffffffffffffffffffffff1603610db0576040517f08c379a0000000000000000000000000000000000000000000000000000000008152600401610da790611f59565b60405180910390fd5b3373ffffffffffffffffffffffffffffffffffffffff168273ffffffffffffffffffffffffffffffffffffffff161480610e1557503273ffffffffffffffffffffffffffffffffffffffff168273ffffffffffffffffffffffffffffffffffffffff16145b80610e9d5750610e2361030b565b73ffffffffffffffffffffffffffffffffffffffff166324d7806c836040518263ffffffff1660e01b8152600401610e5b9190611f9a565b602060405180830381865afa158015610e78573d6000803e3d6000fd5b505050506040513d601f19601f82011682018060405250810190610e9c9190611e4e565b5b610edc576040517f08c379a0000000000000000000000000000000000000000000000000000000008152600401610ed390612027565b60405180910390fd5b47811015610f1f576040517f08c379a0000000000000000000000000000000000000000000000000000000008152600401610f1690612093565b60405180910390fd5b60008273ffffffffffffffffffffffffffffffffffffffff1682604051610f45906120e4565b60006040518083038185875af1925050503d8060008114610f82576040519150601f19603f3d011682016040523d82523d6000602084013e610f87565b606091505b5050905080610fcb576040517f08c379a0000000000000000000000000000000000000000000000000000000008152600401610fc290612145565b60405180910390fd5b505050565b816000806101000a81548173ffffffffffffffffffffffffffffffffffffffff021916908373ffffffffffffffffffffffffffffffffffffffff160217905550600061101a61030b565b90508073ffffffffffffffffffffffffffffffffffffffff16637fb99b9330846040518363ffffffff1660e01b8152600401611057929190612165565b600060405180830381600087803b15801561107157600080fd5b505af1158015611085573d6000803e3d6000fd5b50505050505050565b6000604051905090565b600080fd5b600080fd5b600073ffffffffffffffffffffffffffffffffffffffff82169050919050565b60006110cd826110a2565b9050919050565b6110dd816110c2565b81146110e857600080fd5b50565b6000813590506110fa816110d4565b92915050565b6000819050919050565b61111381611100565b811461111e57600080fd5b50565b6000813590506111308161110a565b92915050565b600080fd5b600080fd5b6000601f19601f8301169050919050565b7f4e487b7100000000000000000000000000000000000000000000000000000000600052604160045260246000fd5b61118982611140565b810181811067ffffffffffffffff821117156111a8576111a7611151565b5b80604052505050565b60006111bb61108e565b90506111c78282611180565b919050565b600067ffffffffffffffff8211156111e7576111e6611151565b5b6111f082611140565b9050602081019050919050565b82818337600083830152505050565b600061121f61121a846111cc565b6111b1565b90508281526020810184848401111561123b5761123a61113b565b5b6112468482856111fd565b509392505050565b600082601f83011261126357611262611136565b5b813561127384826020860161120c565b91505092915050565b6000806000806080858703121561129657611295611098565b5b60006112a4878288016110eb565b94505060206112b5878288016110eb565b93505060406112c687828801611121565b925050606085013567ffffffffffffffff8111156112e7576112e661109d565b5b6112f38782880161124e565b91505092959194509250565b60007fffffffff0000000000000000000000000000000000000000000000000000000082169050919050565b611334816112ff565b82525050565b600060208201905061134f600083018461132b565b92915050565b6000806040838503121561136c5761136b611098565b5b600061137a858286016110eb565b925050602061138b858286016110eb565b9150509250929050565b600067ffffffffffffffff8211156113b0576113af611151565b5b6113b982611140565b9050602081019050919050565b60006113d96113d484611395565b6111b1565b9050828152602081018484840111156113f5576113f461113b565b5b6114008482856111fd565b509392505050565b600082601f83011261141d5761141c611136565b5b813561142d8482602086016113c6565b91505092915050565b60008060006060848603121561144f5761144e611098565b5b600084013567ffffffffffffffff81111561146d5761146c61109d565b5b61147986828701611408565b935050602084013567ffffffffffffffff81111561149a5761149961109d565b5b6114a686828701611408565b925050604084013567ffffffffffffffff8111156114c7576114c661109d565b5b6114d386828701611408565b9150509250925092565b600081519050919050565b600082825260208201905092915050565b60005b838110156115175780820151818401526020810190506114fc565b60008484015250505050565b600061152e826114dd565b61153881856114e8565b93506115488185602086016114f9565b61155181611140565b840191505092915050565b600060208201905081810360008301526115768184611523565b905092915050565b6000819050919050565b60006115a361159e611599846110a2565b61157e565b6110a2565b9050919050565b60006115b582611588565b9050919050565b60006115c7826115aa565b9050919050565b6115d7816115bc565b82525050565b60006020820190506115f260008301846115ce565b92915050565b6000806000806080858703121561161257611611611098565b5b600085013567ffffffffffffffff8111156116305761162f61109d565b5b61163c87828801611408565b945050602085013567ffffffffffffffff81111561165d5761165c61109d565b5b61166987828801611408565b935050604085013567ffffffffffffffff81111561168a5761168961109d565b5b61169687828801611408565b925050606085013567ffffffffffffffff8111156116b7576116b661109d565b5b6116c387828801611408565b91505092959194509250565b60008115159050919050565b6116e4816116cf565b82525050565b600060408201905081810360008301526117048185611523565b905061171360208301846116db565b9392505050565b6000806040838503121561173157611730611098565b5b600083013567ffffffffffffffff81111561174f5761174e61109d565b5b61175b85828601611408565b925050602083013567ffffffffffffffff81111561177c5761177b61109d565b5b61178885828601611408565b9150509250929050565b60006020820190506117a760008301846116db565b92915050565b60006117b8826110a2565b9050919050565b6117c8816117ad565b81146117d357600080fd5b50565b6000813590506117e5816117bf565b92915050565b6000806040838503121561180257611801611098565b5b6000611810858286016117d6565b925050602061182185828601611121565b9150509250929050565b6000806040838503121561184257611841611098565b5b6000611850858286016110eb565b925050602083013567ffffffffffffffff8111156118715761187061109d565b5b61187d85828601611408565b9150509250929050565b600081905092915050565b600061189d826114dd565b6118a78185611887565b93506118b78185602086016114f9565b80840191505092915050565b7f3a20000000000000000000000000000000000000000000000000000000000000600082015250565b60006118f9600283611887565b9150611904826118c3565b600282019050919050565b7f203e200000000000000000000000000000000000000000000000000000000000600082015250565b6000611945600383611887565b91506119508261190f565b600382019050919050565b60006119678286611892565b9150611972826118ec565b915061197e8285611892565b915061198982611938565b91506119958284611892565b9150819050949350505050565b7f2045787065637465643a20000000000000000000000000000000000000000000600082015250565b60006119d8600b83611887565b91506119e3826119a2565b600b82019050919050565b7f2041637475616c3a200000000000000000000000000000000000000000000000600082015250565b6000611a24600983611887565b9150611a2f826119ee565b600982019050919050565b6000611a468287611892565b9150611a51826118ec565b9150611a5d8286611892565b9150611a68826119cb565b9150611a748285611892565b9150611a7f82611a17565b9150611a8b8284611892565b915081905095945050505050565b611aa2816110c2565b82525050565b6000602082019050611abd6000830184611a99565b92915050565b600081519050611ad28161110a565b92915050565b600060208284031215611aee57611aed611098565b5b6000611afc84828501611ac3565b91505092915050565b60008160e01c9050919050565b600060033d1115611b315760046000803e611b2e600051611b05565b90505b90565b600060443d10611bc157611b4661108e565b60043d036004823e80513d602482011167ffffffffffffffff82111715611b6e575050611bc1565b808201805167ffffffffffffffff811115611b8c5750505050611bc1565b80602083010160043d038501811115611ba9575050505050611bc1565b611bb882602001850186611180565b82955050505050505b90565b7f4572726f72202845786572636973652044293a204572726f722077697468207460008201527f6865206d696e742066756e6374696f6e21202d20000000000000000000000000602082015250565b6000611c20603483611887565b9150611c2b82611bc4565b603482019050919050565b6000611c4182611c13565b9150611c4d8284611892565b915081905092915050565b611c6181611100565b82525050565b6000602082019050611c7c6000830184611c58565b92915050565b7f4572726f72202845786572636973652044293a204572726f722077697468207460008201527f6865206275726e2066756e6374696f6e21202d20000000000000000000000000602082015250565b6000611cde603483611887565b9150611ce982611c82565b603482019050919050565b6000611cff82611cd1565b9150611d0b8284611892565b915081905092915050565b7f4e487b7100000000000000000000000000000000000000000000000000000000600052601160045260246000fd5b6000611d5082611100565b9150611d5b83611100565b9250828203905081811115611d7357611d72611d16565b5b92915050565b6000611d8482611100565b91507fffffffffffffffffffffffffffffffffffffffffffffffffffffffffffffffff8203611db657611db5611d16565b5b600182019050919050565b6000611dcc826115aa565b9050919050565b611ddc81611dc1565b82525050565b6000604082019050611df76000830185611dd3565b611e046020830184611c58565b9392505050565b6000611e178284611892565b915081905092915050565b611e2b816116cf565b8114611e3657600080fd5b50565b600081519050611e4881611e22565b92915050565b600060208284031215611e6457611e63611098565b5b6000611e7284828501611e39565b91505092915050565b7f4f6e6c7920636f6e74726163742061646d696e2063616e20776974686472617760008201527f2066756e64730000000000000000000000000000000000000000000000000000602082015250565b6000611ed76026836114e8565b9150611ee282611e7b565b604082019050919050565b60006020820190508181036000830152611f0681611eca565b9050919050565b7f496e76616c696420616464726573730000000000000000000000000000000000600082015250565b6000611f43600f836114e8565b9150611f4e82611f0d565b602082019050919050565b60006020820190508181036000830152611f7281611f36565b9050919050565b6000611f84826115aa565b9050919050565b611f9481611f79565b82525050565b6000602082019050611faf6000830184611f8b565b92915050565b7f46756e64732063616e206f6e6c792062652077697468647261776e20746f206160008201527f646d696e2c206d73672e73656e646572206f722074782e6f726967696e000000602082015250565b6000612011603d836114e8565b915061201c82611fb5565b604082019050919050565b6000602082019050818103600083015261204081612004565b9050919050565b7f496e73756666696369656e742066756e64730000000000000000000000000000600082015250565b600061207d6012836114e8565b915061208882612047565b602082019050919050565b600060208201905081810360008301526120ac81612070565b9050919050565b600081905092915050565b50565b60006120ce6000836120b3565b91506120d9826120be565b600082019050919050565b60006120ef826120c1565b9150819050919050565b7f5472616e73666572206661696c65642e00000000000000000000000000000000600082015250565b600061212f6010836114e8565b915061213a826120f9565b602082019050919050565b6000602082019050818103600083015261215e81612122565b9050919050565b600060408201905061217a6000830185611a99565b818103602083015261218c8184611523565b9050939250505056fe4572726f72202845786572636973652044293a2042616c616e6365206f662061646472657373287468697329206973206e6f74206465637265617365642062792031214572726f72202845786572636973652044293a204572726f7220696e20457865726369736520442066756e6374696f6e214572726f72202845786572636973652044293a205072696365206973206e6f742064656372656173656420627920302e30303031206574686572214572726f72202845786572636973652044293a204275726e2066756e6374696f6e206973206e6f74207265737472696374656420746f20746865206f776e6572206f6620746865204e4654214572726f72202845786572636973652044293a20546f74616c20737570706c79206973206e6f74206465637265617365642062792031214572726f72202845786572636973652044293a204572726f7220776974682074686520676574546f74616c537570706c79206d6574686f6421506173736564202845786572636973652044293a20457865726369736520442070617373656421a2646970667358221220cb68c305096af5c2913d334e1fbb2f6648795cd63efd8386caf6359aff5ce52564736f6c63430008130033535332332041737369676e6d656e7420312056616c696461746f7220436f6e7472616374202d205461736b2044",
  "immutableReferences": {},
  "source": "// SPDX-License-Identifier: MIT\r\npragma solidity ^0.8.17;\r\n\r\n// Import the IAssignment1.sol\r\nimport \"./interface/IAssignment1.sol\";\r\n\r\nimport \"../../node_modules/@openzeppelin/contracts/utils/Base64.sol\";\r\nimport \"../../node_modules/@openzeppelin/contracts/utils/Strings.sol\";\r\nimport \"../../node_modules/@openzeppelin/contracts/token/ERC721/utils/ERC721Holder.sol\";\r\n\r\n// Import Helper\r\nimport \"../Helper.sol\";\r\n\r\n// Import the assignment validator extend contract\r\nimport \"./Validator1Helper.sol\";\r\n\r\n// import \"BaseConfig.sol\";\r\nimport \"../BaseConfig.sol\";\r\n\r\n// Give the contract a name and inherit from the base assignment validator\r\ncontract Validator1TaskD is Helper, BaseConfig, ERC721Holder {\r\n    using Strings for uint256;\r\n\r\n    // assignment contract interface\r\n    IAssignment1 assignmentContract;\r\n    Validator1Helper validator1Helper;\r\n\r\n    constructor(address _configContractAddress) {\r\n        initAdmin(\r\n            _configContractAddress,\r\n            \"SS23 Assignment 1 Validator Contract - Task D\"\r\n        );\r\n    }\r\n\r\n    receive() external payable {}\r\n\r\n    // Init contract\r\n    function initContract(\r\n        address _contractAddress,\r\n        address _validator1HelperAddress\r\n    ) public {\r\n        // Call the contract interface which needs to be tested and store it in the variable assignmentContract\r\n        assignmentContract = IAssignment1(_contractAddress);\r\n        validator1Helper = Validator1Helper(payable(_validator1HelperAddress));\r\n    }\r\n\r\n    function testExerciseD() public payable returns (string memory, bool) {\r\n        /*----------  EXERCISE D  ----------*/\r\n\r\n        // mint a nft and send to _address and pay 0.01 ether\r\n        try assignmentContract.mint{value: 0.01 ether}(address(this)) returns (\r\n            uint256 idD\r\n        ) {\r\n            if (idD > 0) {\r\n                uint256 oldPriceD = assignmentContract.getPrice();\r\n\r\n                // get balance of the address(this)\r\n                uint256 balanceBeforeD = assignmentContract.balanceOf(\r\n                    address(this)\r\n                );\r\n\r\n                uint256 totalSupplyBeforeD = 0;\r\n                // get total supply\r\n                try assignmentContract.getTotalSupply() returns (\r\n                    uint256 _totalSupplyBeforeD\r\n                ) {\r\n                    totalSupplyBeforeD = _totalSupplyBeforeD;\r\n                } catch {\r\n                    return (\r\n                        \"Error (Exercise D): Error with the getTotalSupply method!\",\r\n                        false\r\n                    );\r\n                }\r\n\r\n                // burn the nft\r\n                try assignmentContract.burn{value: 0.0001 ether}(idD) {\r\n                    // get balance of the address(this)\r\n                    uint256 balanceAfterD = assignmentContract.balanceOf(\r\n                        address(this)\r\n                    );\r\n\r\n                    uint256 exerciseDPassedCounter = 0;\r\n\r\n                    // check if balance of address(this) is decreased by 1\r\n                    if (balanceAfterD == balanceBeforeD - 1) {\r\n                        exerciseDPassedCounter++;\r\n                    } else {\r\n                        return (\r\n                            \"Error (Exercise D): Balance of address(this) is not decreased by 1!\",\r\n                            false\r\n                        );\r\n                    }\r\n\r\n                    // get new price\r\n                    uint256 newPriceD = assignmentContract.getPrice();\r\n\r\n                    // check if price is decreased by 0.0001 ether\r\n                    if (newPriceD == oldPriceD - 0.0001 ether) {\r\n                        exerciseDPassedCounter++;\r\n                    } else {\r\n                        return (\r\n                            \"Error (Exercise D): Price is not decreased by 0.0001 ether!\",\r\n                            false\r\n                        );\r\n                    }\r\n\r\n                    // get total supply\r\n                    uint256 totalSupplyAfterD = assignmentContract\r\n                        .getTotalSupply();\r\n\r\n                    if (totalSupplyAfterD == totalSupplyBeforeD - 1) {\r\n                        exerciseDPassedCounter++;\r\n                    } else {\r\n                        return (\r\n                            \"Error (Exercise D): Total supply is not decreased by 1!\",\r\n                            false\r\n                        );\r\n                    }\r\n\r\n                    // Create new NFT\r\n                    uint256 newTokenId = assignmentContract.mint{\r\n                        value: 0.01 ether\r\n                    }(address(this));\r\n\r\n                    try\r\n                        validator1Helper.burnTestD{value: 0.001 ether}(\r\n                            assignmentContract,\r\n                            newTokenId\r\n                        )\r\n                    {\r\n                        return (\r\n                            \"Error (Exercise D): Burn function is not restricted to the owner of the NFT!\",\r\n                            true\r\n                        );\r\n                    } catch {\r\n                        exerciseDPassedCounter++;\r\n                    }\r\n\r\n                    // if exerciseDPassedCounter == 4 --> exercise D passed\r\n                    if (exerciseDPassedCounter == 4) {\r\n                        return (\r\n                            \"Passed (Exercise D): Exercise D passed!\",\r\n                            true\r\n                        );\r\n                    }\r\n                } catch Error(string memory _reason) {\r\n                    return (\r\n                        string(\r\n                            abi.encodePacked(\r\n                                \"Error (Exercise D): Error with the burn function! - \",\r\n                                _reason\r\n                            )\r\n                        ),\r\n                        false\r\n                    );\r\n                }\r\n            }\r\n        } catch Error(string memory _reason) {\r\n            return (\r\n                string(\r\n                    abi.encodePacked(\r\n                        \"Error (Exercise D): Error with the mint function! - \",\r\n                        _reason\r\n                    )\r\n                ),\r\n                false\r\n            );\r\n        }\r\n\r\n        return (\"Error (Exercise D): Error in Exercise D function!\", false);\r\n    }\r\n}\r\n",
  "sourcePath": "C:\\Users\\stefa\\www\\mtp-blockchain\\smart-contracts\\contracts\\assignment_1\\Validator1TaskD.sol",
  "compiler": {
    "name": "solc",
    "version": "0.8.19+commit.7dd6d404.Emscripten.clang"
  },
  "schemaVersion": "3.4.11",
  "updatedAt": "2023-02-24T09:41:35.006Z",
  "devdoc": {
    "kind": "dev",
    "methods": {
      "onERC721Received(address,address,uint256,bytes)": {
        "details": "See {IERC721Receiver-onERC721Received}. Always returns `IERC721Receiver.onERC721Received.selector`."
      }
    },
    "version": 1
  },
  "userdoc": {
    "kind": "user",
    "methods": {},
    "version": 1
  }
}