{
  "contractName": "Validator1TaskA",
  "abi": [
    {
      "inputs": [
        {
          "internalType": "address",
          "name": "_configContractAddress",
          "type": "address"
        }
      ],
      "stateMutability": "nonpayable",
      "type": "constructor"
    },
    {
      "inputs": [
        {
          "internalType": "string",
          "name": "_prefix",
          "type": "string"
        },
        {
          "internalType": "string",
          "name": "_message",
          "type": "string"
        },
        {
          "internalType": "string",
          "name": "_errorMsg",
          "type": "string"
        }
      ],
      "name": "buildErrorMessage",
      "outputs": [
        {
          "internalType": "string",
          "name": "",
          "type": "string"
        }
      ],
      "stateMutability": "pure",
      "type": "function"
    },
    {
      "inputs": [
        {
          "internalType": "string",
          "name": "_prefix",
          "type": "string"
        },
        {
          "internalType": "string",
          "name": "_message",
          "type": "string"
        },
        {
          "internalType": "string",
          "name": "_expected",
          "type": "string"
        },
        {
          "internalType": "string",
          "name": "_actual",
          "type": "string"
        }
      ],
      "name": "buildErrorMessageExtended",
      "outputs": [
        {
          "internalType": "string",
          "name": "",
          "type": "string"
        }
      ],
      "stateMutability": "pure",
      "type": "function"
    },
    {
      "inputs": [
        {
          "internalType": "string",
          "name": "a",
          "type": "string"
        },
        {
          "internalType": "string",
          "name": "b",
          "type": "string"
        }
      ],
      "name": "compareStrings",
      "outputs": [
        {
          "internalType": "bool",
          "name": "",
          "type": "bool"
        }
      ],
      "stateMutability": "pure",
      "type": "function"
    },
    {
      "inputs": [],
      "name": "getConfigStorage",
      "outputs": [
        {
          "internalType": "contract ConfigStorage",
          "name": "",
          "type": "address"
        }
      ],
      "stateMutability": "view",
      "type": "function"
    },
    {
      "inputs": [
        {
          "internalType": "address",
          "name": "_configContractAddress",
          "type": "address"
        },
        {
          "internalType": "string",
          "name": "_contractName",
          "type": "string"
        }
      ],
      "name": "initAdmin",
      "outputs": [],
      "stateMutability": "nonpayable",
      "type": "function"
    },
    {
      "inputs": [
        {
          "internalType": "address payable",
          "name": "_to",
          "type": "address"
        },
        {
          "internalType": "uint256",
          "name": "_value",
          "type": "uint256"
        }
      ],
      "name": "withdrawFunds",
      "outputs": [],
      "stateMutability": "payable",
      "type": "function"
    },
    {
      "stateMutability": "payable",
      "type": "receive"
    },
    {
      "inputs": [
        {
          "internalType": "address",
          "name": "_contractAddress",
          "type": "address"
        },
        {
          "internalType": "address",
          "name": "_validator1HelperAddress",
          "type": "address"
        }
      ],
      "name": "initContract",
      "outputs": [],
      "stateMutability": "nonpayable",
      "type": "function"
    },
    {
      "inputs": [],
      "name": "testExerciseA",
      "outputs": [
        {
          "internalType": "string",
          "name": "",
          "type": "string"
        },
        {
          "internalType": "bool",
          "name": "",
          "type": "bool"
        }
      ],
      "stateMutability": "payable",
      "type": "function"
    }
  ],
  "bytecode": "0x60806040523480156200001157600080fd5b5060405162001f2c38038062001f2c8339818101604052810190620000379190620001c6565b62000062816040518060600160405280602d815260200162001eff602d91396200006960201b60201c565b50620002d7565b816000806101000a81548173ffffffffffffffffffffffffffffffffffffffff021916908373ffffffffffffffffffffffffffffffffffffffff1602179055506000620000bb6200013360201b60201c565b90508073ffffffffffffffffffffffffffffffffffffffff16637fb99b9330846040518363ffffffff1660e01b8152600401620000fa929190620002a3565b600060405180830381600087803b1580156200011557600080fd5b505af11580156200012a573d6000803e3d6000fd5b50505050505050565b60008060009054906101000a900473ffffffffffffffffffffffffffffffffffffffff16905090565b600080fd5b600073ffffffffffffffffffffffffffffffffffffffff82169050919050565b60006200018e8262000161565b9050919050565b620001a08162000181565b8114620001ac57600080fd5b50565b600081519050620001c08162000195565b92915050565b600060208284031215620001df57620001de6200015c565b5b6000620001ef84828501620001af565b91505092915050565b620002038162000181565b82525050565b600081519050919050565b600082825260208201905092915050565b60005b838110156200024557808201518184015260208101905062000228565b60008484015250505050565b6000601f19601f8301169050919050565b60006200026f8262000209565b6200027b818562000214565b93506200028d81856020860162000225565b620002988162000251565b840191505092915050565b6000604082019050620002ba6000830185620001f8565b8181036020830152620002ce818462000262565b90509392505050565b611c1880620002e76000396000f3fe60806040526004361061007f5760003560e01c8063bed34bba1161004e578063bed34bba14610159578063c107532914610196578063cfacdce8146101b2578063fae45fbe146101d157610086565b806325ba0f511461008b5780632b518301146100b4578063516cbbe2146100f15780635827a0651461011c57610086565b3661008657005b600080fd5b34801561009757600080fd5b506100b260048036038101906100ad9190610d47565b6101fa565b005b3480156100c057600080fd5b506100db60048036038101906100d69190610ecd565b610280565b6040516100e89190610ff3565b60405180910390f35b3480156100fd57600080fd5b506101066102af565b6040516101139190611074565b60405180910390f35b34801561012857600080fd5b50610143600480360381019061013e919061108f565b6102d8565b6040516101509190610ff3565b60405180910390f35b34801561016557600080fd5b50610180600480360381019061017b9190611166565b61030a565b60405161018d91906111f9565b60405180910390f35b6101b060048036038101906101ab9190611288565b610363565b005b6101ba6106b2565b6040516101c89291906112c8565b60405180910390f35b3480156101dd57600080fd5b506101f860048036038101906101f391906112f8565b610c17565b005b81600160006101000a81548173ffffffffffffffffffffffffffffffffffffffff021916908373ffffffffffffffffffffffffffffffffffffffff16021790555080600260006101000a81548173ffffffffffffffffffffffffffffffffffffffff021916908373ffffffffffffffffffffffffffffffffffffffff1602179055505050565b606083838360405160200161029793929190611428565b60405160208183030381529060405290509392505050565b60008060009054906101000a900473ffffffffffffffffffffffffffffffffffffffff16905090565b6060848484846040516020016102f19493929190611507565b6040516020818303038152906040529050949350505050565b60008160405160200161031d9190611566565b60405160208183030381529060405280519060200120836040516020016103449190611566565b6040516020818303038152906040528051906020012014905092915050565b61036b6102af565b73ffffffffffffffffffffffffffffffffffffffff166324d7806c336040518263ffffffff1660e01b81526004016103a3919061158c565b602060405180830381865afa1580156103c0573d6000803e3d6000fd5b505050506040513d601f19601f820116820180604052508101906103e491906115d3565b610423576040517f08c379a000000000000000000000000000000000000000000000000000000000815260040161041a90611672565b60405180910390fd5b600073ffffffffffffffffffffffffffffffffffffffff168273ffffffffffffffffffffffffffffffffffffffff1603610492576040517f08c379a0000000000000000000000000000000000000000000000000000000008152600401610489906116de565b60405180910390fd5b3373ffffffffffffffffffffffffffffffffffffffff168273ffffffffffffffffffffffffffffffffffffffff1614806104f757503273ffffffffffffffffffffffffffffffffffffffff168273ffffffffffffffffffffffffffffffffffffffff16145b8061057f57506105056102af565b73ffffffffffffffffffffffffffffffffffffffff166324d7806c836040518263ffffffff1660e01b815260040161053d919061171f565b602060405180830381865afa15801561055a573d6000803e3d6000fd5b505050506040513d601f19601f8201168201806040525081019061057e91906115d3565b5b6105be576040517f08c379a00000000000000000000000000000000000000000000000000000000081526004016105b5906117ac565b60405180910390fd5b47811015610601576040517f08c379a00000000000000000000000000000000000000000000000000000000081526004016105f890611818565b60405180910390fd5b60008273ffffffffffffffffffffffffffffffffffffffff168260405161062790611869565b60006040518083038185875af1925050503d8060008114610664576040519150601f19603f3d011682016040523d82523d6000602084013e610669565b606091505b50509050806106ad576040517f08c379a00000000000000000000000000000000000000000000000000000000081526004016106a4906118ca565b60405180910390fd5b505050565b6060600080600160009054906101000a900473ffffffffffffffffffffffffffffffffffffffff1673ffffffffffffffffffffffffffffffffffffffff1663c4e41b226040518163ffffffff1660e01b8152600401602060405180830381865afa158015610724573d6000803e3d6000fd5b505050506040513d601f19601f8201168201806040525081019061074891906118ff565b90506000600160009054906101000a900473ffffffffffffffffffffffffffffffffffffffff1673ffffffffffffffffffffffffffffffffffffffff166370a08231336040518263ffffffff1660e01b81526004016107a7919061158c565b602060405180830381865afa1580156107c4573d6000803e3d6000fd5b505050506040513d601f19601f820116820180604052508101906107e891906118ff565b9050600160009054906101000a900473ffffffffffffffffffffffffffffffffffffffff1673ffffffffffffffffffffffffffffffffffffffff16636a627842662386f26fc10000336040518363ffffffff1660e01b815260040161084d919061158c565b60206040518083038185885af19350505050801561088957506040513d601f19601f8201168201806040525081019061088691906118ff565b60015b6108b4576000604051806060016040528060318152602001611a746031913990935093505050610c13565b600080821115610bee5780806108c99061195b565b91505083600160009054906101000a900473ffffffffffffffffffffffffffffffffffffffff1673ffffffffffffffffffffffffffffffffffffffff1663c4e41b226040518163ffffffff1660e01b8152600401602060405180830381865afa15801561093a573d6000803e3d6000fd5b505050506040513d601f19601f8201168201806040525081019061095e91906118ff565b111561097757808061096f9061195b565b9150506109a0565b60006040518060600160405280603c8152602001611aa5603c9139909550955050505050610c13565b3373ffffffffffffffffffffffffffffffffffffffff16600160009054906101000a900473ffffffffffffffffffffffffffffffffffffffff1673ffffffffffffffffffffffffffffffffffffffff16636352211e846040518263ffffffff1660e01b8152600401610a1291906119b2565b602060405180830381865afa158015610a2f573d6000803e3d6000fd5b505050506040513d601f19601f82011682018060405250810190610a5391906119e2565b73ffffffffffffffffffffffffffffffffffffffff1603610a81578080610a799061195b565b915050610aaa565b6000604051806060016040528060338152602001611ae160339139909550955050505050610c13565b600183610ab79190611a0f565b600160009054906101000a900473ffffffffffffffffffffffffffffffffffffffff1673ffffffffffffffffffffffffffffffffffffffff166370a08231336040518263ffffffff1660e01b8152600401610b12919061158c565b602060405180830381865afa158015610b2f573d6000803e3d6000fd5b505050506040513d601f19601f82011682018060405250810190610b5391906118ff565b03610b6b578080610b639061195b565b915050610b94565b60006040518060600160405280603b8152602001611b6f603b9139909550955050505050610c13565b60048103610bc5576001604051806060016040528060278152602001611b1460279139909550955050505050610c13565b6000604051806060016040528060348152602001611b3b60349139909550955050505050610c13565b6000604051806060016040528060398152602001611baa603991399095509550505050505b9091565b816000806101000a81548173ffffffffffffffffffffffffffffffffffffffff021916908373ffffffffffffffffffffffffffffffffffffffff1602179055506000610c616102af565b90508073ffffffffffffffffffffffffffffffffffffffff16637fb99b9330846040518363ffffffff1660e01b8152600401610c9e929190611a43565b600060405180830381600087803b158015610cb857600080fd5b505af1158015610ccc573d6000803e3d6000fd5b50505050505050565b6000604051905090565b600080fd5b600080fd5b600073ffffffffffffffffffffffffffffffffffffffff82169050919050565b6000610d1482610ce9565b9050919050565b610d2481610d09565b8114610d2f57600080fd5b50565b600081359050610d4181610d1b565b92915050565b60008060408385031215610d5e57610d5d610cdf565b5b6000610d6c85828601610d32565b9250506020610d7d85828601610d32565b9150509250929050565b600080fd5b600080fd5b6000601f19601f8301169050919050565b7f4e487b7100000000000000000000000000000000000000000000000000000000600052604160045260246000fd5b610dda82610d91565b810181811067ffffffffffffffff82111715610df957610df8610da2565b5b80604052505050565b6000610e0c610cd5565b9050610e188282610dd1565b919050565b600067ffffffffffffffff821115610e3857610e37610da2565b5b610e4182610d91565b9050602081019050919050565b82818337600083830152505050565b6000610e70610e6b84610e1d565b610e02565b905082815260208101848484011115610e8c57610e8b610d8c565b5b610e97848285610e4e565b509392505050565b600082601f830112610eb457610eb3610d87565b5b8135610ec4848260208601610e5d565b91505092915050565b600080600060608486031215610ee657610ee5610cdf565b5b600084013567ffffffffffffffff811115610f0457610f03610ce4565b5b610f1086828701610e9f565b935050602084013567ffffffffffffffff811115610f3157610f30610ce4565b5b610f3d86828701610e9f565b925050604084013567ffffffffffffffff811115610f5e57610f5d610ce4565b5b610f6a86828701610e9f565b9150509250925092565b600081519050919050565b600082825260208201905092915050565b60005b83811015610fae578082015181840152602081019050610f93565b60008484015250505050565b6000610fc582610f74565b610fcf8185610f7f565b9350610fdf818560208601610f90565b610fe881610d91565b840191505092915050565b6000602082019050818103600083015261100d8184610fba565b905092915050565b6000819050919050565b600061103a61103561103084610ce9565b611015565b610ce9565b9050919050565b600061104c8261101f565b9050919050565b600061105e82611041565b9050919050565b61106e81611053565b82525050565b60006020820190506110896000830184611065565b92915050565b600080600080608085870312156110a9576110a8610cdf565b5b600085013567ffffffffffffffff8111156110c7576110c6610ce4565b5b6110d387828801610e9f565b945050602085013567ffffffffffffffff8111156110f4576110f3610ce4565b5b61110087828801610e9f565b935050604085013567ffffffffffffffff81111561112157611120610ce4565b5b61112d87828801610e9f565b925050606085013567ffffffffffffffff81111561114e5761114d610ce4565b5b61115a87828801610e9f565b91505092959194509250565b6000806040838503121561117d5761117c610cdf565b5b600083013567ffffffffffffffff81111561119b5761119a610ce4565b5b6111a785828601610e9f565b925050602083013567ffffffffffffffff8111156111c8576111c7610ce4565b5b6111d485828601610e9f565b9150509250929050565b60008115159050919050565b6111f3816111de565b82525050565b600060208201905061120e60008301846111ea565b92915050565b600061121f82610ce9565b9050919050565b61122f81611214565b811461123a57600080fd5b50565b60008135905061124c81611226565b92915050565b6000819050919050565b61126581611252565b811461127057600080fd5b50565b6000813590506112828161125c565b92915050565b6000806040838503121561129f5761129e610cdf565b5b60006112ad8582860161123d565b92505060206112be85828601611273565b9150509250929050565b600060408201905081810360008301526112e28185610fba565b90506112f160208301846111ea565b9392505050565b6000806040838503121561130f5761130e610cdf565b5b600061131d85828601610d32565b925050602083013567ffffffffffffffff81111561133e5761133d610ce4565b5b61134a85828601610e9f565b9150509250929050565b600081905092915050565b600061136a82610f74565b6113748185611354565b9350611384818560208601610f90565b80840191505092915050565b7f3a20000000000000000000000000000000000000000000000000000000000000600082015250565b60006113c6600283611354565b91506113d182611390565b600282019050919050565b7f203e200000000000000000000000000000000000000000000000000000000000600082015250565b6000611412600383611354565b915061141d826113dc565b600382019050919050565b6000611434828661135f565b915061143f826113b9565b915061144b828561135f565b915061145682611405565b9150611462828461135f565b9150819050949350505050565b7f2045787065637465643a20000000000000000000000000000000000000000000600082015250565b60006114a5600b83611354565b91506114b08261146f565b600b82019050919050565b7f2041637475616c3a200000000000000000000000000000000000000000000000600082015250565b60006114f1600983611354565b91506114fc826114bb565b600982019050919050565b6000611513828761135f565b915061151e826113b9565b915061152a828661135f565b915061153582611498565b9150611541828561135f565b915061154c826114e4565b9150611558828461135f565b915081905095945050505050565b6000611572828461135f565b915081905092915050565b61158681610d09565b82525050565b60006020820190506115a1600083018461157d565b92915050565b6115b0816111de565b81146115bb57600080fd5b50565b6000815190506115cd816115a7565b92915050565b6000602082840312156115e9576115e8610cdf565b5b60006115f7848285016115be565b91505092915050565b7f4f6e6c7920636f6e74726163742061646d696e2063616e20776974686472617760008201527f2066756e64730000000000000000000000000000000000000000000000000000602082015250565b600061165c602683610f7f565b915061166782611600565b604082019050919050565b6000602082019050818103600083015261168b8161164f565b9050919050565b7f496e76616c696420616464726573730000000000000000000000000000000000600082015250565b60006116c8600f83610f7f565b91506116d382611692565b602082019050919050565b600060208201905081810360008301526116f7816116bb565b9050919050565b600061170982611041565b9050919050565b611719816116fe565b82525050565b60006020820190506117346000830184611710565b92915050565b7f46756e64732063616e206f6e6c792062652077697468647261776e20746f206160008201527f646d696e2c206d73672e73656e646572206f722074782e6f726967696e000000602082015250565b6000611796603d83610f7f565b91506117a18261173a565b604082019050919050565b600060208201905081810360008301526117c581611789565b9050919050565b7f496e73756666696369656e742066756e64730000000000000000000000000000600082015250565b6000611802601283610f7f565b915061180d826117cc565b602082019050919050565b60006020820190508181036000830152611831816117f5565b9050919050565b600081905092915050565b50565b6000611853600083611838565b915061185e82611843565b600082019050919050565b600061187482611846565b9150819050919050565b7f5472616e73666572206661696c65642e00000000000000000000000000000000600082015250565b60006118b4601083610f7f565b91506118bf8261187e565b602082019050919050565b600060208201905081810360008301526118e3816118a7565b9050919050565b6000815190506118f98161125c565b92915050565b60006020828403121561191557611914610cdf565b5b6000611923848285016118ea565b91505092915050565b7f4e487b7100000000000000000000000000000000000000000000000000000000600052601160045260246000fd5b600061196682611252565b91507fffffffffffffffffffffffffffffffffffffffffffffffffffffffffffffffff82036119985761199761192c565b5b600182019050919050565b6119ac81611252565b82525050565b60006020820190506119c760008301846119a3565b92915050565b6000815190506119dc81610d1b565b92915050565b6000602082840312156119f8576119f7610cdf565b5b6000611a06848285016119cd565b91505092915050565b6000611a1a82611252565b9150611a2583611252565b9250828201905080821115611a3d57611a3c61192c565b5b92915050565b6000604082019050611a58600083018561157d565b8181036020830152611a6a8184610fba565b9050939250505056fe4572726f72202845786572636973652041293a204572726f72207769746820746865206d696e742066756e6374696f6e214572726f72202845786572636973652041293a20546f74616c20737570706c7920646964206e6f7420696e63726561736520636f72726563746c79214572726f72202845786572636973652041293a204e4654206f776e6572206973206e6f7420636f72726563746c792073657421506173736564202845786572636973652041293a204578657263697365204120706173736564214572726f72202845786572636973652041293a20536f6d6520746573747320696e2045786572636973652041206661696c6564214572726f72202845786572636973652041293a2042616c616e6365206f66206d73672e73656e64657220646964206e6f7420696e637265617365214572726f72202845786572636973652041293a204572726f72207769746820746865206d696e742066756e6374696f6e206964206973203021a2646970667358221220000f032e316ebb7c50ffc17c778f9121716db195d4960776011ca27d87342eaf64736f6c63430008130033535332332041737369676e6d656e7420312056616c696461746f7220436f6e7472616374202d205461736b2041",
  "immutableReferences": {},
  "source": "// SPDX-License-Identifier: MIT\r\npragma solidity ^0.8.17;\r\n\r\n// Import the IAssignment1.sol\r\nimport \"./interface/IAssignment1.sol\";\r\n\r\nimport \"../../node_modules/@openzeppelin/contracts/utils/Base64.sol\";\r\nimport \"../../node_modules/@openzeppelin/contracts/utils/Strings.sol\";\r\n\r\n// Import Helper\r\nimport \"../Helper.sol\";\r\n\r\n// Import the assignment validator extend contract\r\nimport \"./Validator1Helper.sol\";\r\n\r\n// import \"BaseConfig.sol\";\r\nimport \"../BaseConfig.sol\";\r\n\r\n// Give the contract a name and inherit from the base assignment validator\r\ncontract Validator1TaskA is Helper, BaseConfig {\r\n    using Strings for uint256;\r\n\r\n    // assignment contract interface\r\n    IAssignment1 assignmentContract;\r\n    Validator1Helper validator1Helper;\r\n\r\n    constructor(address _configContractAddress) {\r\n        initAdmin(\r\n            _configContractAddress,\r\n            \"SS23 Assignment 1 Validator Contract - Task A\"\r\n        );\r\n    }\r\n\r\n    receive() external payable {}\r\n\r\n    // Init contract\r\n    function initContract(\r\n        address _contractAddress,\r\n        address _validator1HelperAddress\r\n    ) public {\r\n        // Call the contract interface which needs to be tested and store it in the variable assignmentContract\r\n        assignmentContract = IAssignment1(_contractAddress);\r\n        validator1Helper = Validator1Helper(payable(_validator1HelperAddress));\r\n    }\r\n\r\n    function testExerciseA() public payable returns (string memory, bool) {\r\n        /*----------  EXERCISE A  ----------*/\r\n\r\n        // Total supply before minting\r\n        uint256 totalSupplyBefore = assignmentContract.getTotalSupply();\r\n\r\n        // Total nft of msg.sender\r\n        uint256 balanceBefore = assignmentContract.balanceOf(msg.sender);\r\n\r\n        // mint a nft and send to _address and pay 0.01 ether\r\n        try assignmentContract.mint{value: 0.01 ether}(msg.sender) returns (\r\n            uint256 id_a\r\n        ) {\r\n            uint256 exerciseAPassedCounter = 0;\r\n\r\n            // Check if id is larger than 0\r\n            if (id_a > 0) {\r\n                exerciseAPassedCounter++;\r\n\r\n                // Check if the total supply is increased by 1\r\n                if (assignmentContract.getTotalSupply() > totalSupplyBefore) {\r\n                    exerciseAPassedCounter++;\r\n                } else {\r\n                    return (\r\n                        \"Error (Exercise A): Total supply did not increase correctly!\",\r\n                        false\r\n                    );\r\n                }\r\n\r\n                // Make sure NFT of token id is owned by the current msg.sender\r\n                if (assignmentContract.ownerOf(id_a) == msg.sender) {\r\n                    exerciseAPassedCounter++;\r\n                } else {\r\n                    return (\r\n                        \"Error (Exercise A): NFT owner is not correctly set!\",\r\n                        false\r\n                    );\r\n                }\r\n\r\n                // Make sure the balance of the current msg.sender is increased by 1\r\n                if (\r\n                    assignmentContract.balanceOf(msg.sender) ==\r\n                    balanceBefore + 1\r\n                ) {\r\n                    exerciseAPassedCounter++;\r\n                } else {\r\n                    return (\r\n                        \"Error (Exercise A): Balance of msg.sender did not increase!\",\r\n                        false\r\n                    );\r\n                }\r\n\r\n                // If exerciseAPassedCounter == 4 --> exercise A passed\r\n                if (exerciseAPassedCounter == 4) {\r\n                    return (\"Passed (Exercise A): Exercise A passed!\", true);\r\n                } else {\r\n                    // If not all tests passed, mark test as failed\r\n                    return (\r\n                        \"Error (Exercise A): Some tests in Exercise A failed!\",\r\n                        false\r\n                    );\r\n                }\r\n            } else {\r\n                return (\r\n                    \"Error (Exercise A): Error with the mint function id is 0!\",\r\n                    false\r\n                );\r\n            }\r\n        } catch {\r\n            // If an error occurs, mark test as failed\r\n            return (\"Error (Exercise A): Error with the mint function!\", false);\r\n        }\r\n    }\r\n}\r\n",
  "sourcePath": "C:\\Users\\stefa\\www\\mtp-blockchain\\smart-contracts\\contracts\\assignment_1\\Validator1TaskA.sol",
  "compiler": {
    "name": "solc",
    "version": "0.8.19+commit.7dd6d404.Emscripten.clang"
  },
  "schemaVersion": "3.4.11",
  "updatedAt": "2023-02-24T09:41:34.970Z",
  "devdoc": {
    "kind": "dev",
    "methods": {},
    "version": 1
  },
  "userdoc": {
    "kind": "user",
    "methods": {},
    "version": 1
  }
}