{
  "contractName": "Validator1TaskF",
  "abi": [
    {
      "inputs": [
        {
          "internalType": "address",
          "name": "_configContractAddress",
          "type": "address"
        }
      ],
      "stateMutability": "nonpayable",
      "type": "constructor"
    },
    {
      "inputs": [
        {
          "internalType": "string",
          "name": "_prefix",
          "type": "string"
        },
        {
          "internalType": "string",
          "name": "_message",
          "type": "string"
        },
        {
          "internalType": "string",
          "name": "_errorMsg",
          "type": "string"
        }
      ],
      "name": "buildErrorMessage",
      "outputs": [
        {
          "internalType": "string",
          "name": "",
          "type": "string"
        }
      ],
      "stateMutability": "pure",
      "type": "function"
    },
    {
      "inputs": [
        {
          "internalType": "string",
          "name": "_prefix",
          "type": "string"
        },
        {
          "internalType": "string",
          "name": "_message",
          "type": "string"
        },
        {
          "internalType": "string",
          "name": "_expected",
          "type": "string"
        },
        {
          "internalType": "string",
          "name": "_actual",
          "type": "string"
        }
      ],
      "name": "buildErrorMessageExtended",
      "outputs": [
        {
          "internalType": "string",
          "name": "",
          "type": "string"
        }
      ],
      "stateMutability": "pure",
      "type": "function"
    },
    {
      "inputs": [
        {
          "internalType": "string",
          "name": "a",
          "type": "string"
        },
        {
          "internalType": "string",
          "name": "b",
          "type": "string"
        }
      ],
      "name": "compareStrings",
      "outputs": [
        {
          "internalType": "bool",
          "name": "",
          "type": "bool"
        }
      ],
      "stateMutability": "pure",
      "type": "function"
    },
    {
      "inputs": [],
      "name": "getConfigStorage",
      "outputs": [
        {
          "internalType": "contract ConfigStorage",
          "name": "",
          "type": "address"
        }
      ],
      "stateMutability": "view",
      "type": "function"
    },
    {
      "inputs": [
        {
          "internalType": "address",
          "name": "_configContractAddress",
          "type": "address"
        },
        {
          "internalType": "string",
          "name": "_contractName",
          "type": "string"
        }
      ],
      "name": "initAdmin",
      "outputs": [],
      "stateMutability": "nonpayable",
      "type": "function"
    },
    {
      "inputs": [
        {
          "internalType": "address payable",
          "name": "_to",
          "type": "address"
        },
        {
          "internalType": "uint256",
          "name": "_value",
          "type": "uint256"
        }
      ],
      "name": "withdrawFunds",
      "outputs": [],
      "stateMutability": "payable",
      "type": "function"
    },
    {
      "stateMutability": "payable",
      "type": "receive"
    },
    {
      "inputs": [
        {
          "internalType": "address",
          "name": "_contractAddress",
          "type": "address"
        },
        {
          "internalType": "address",
          "name": "_validator1HelperAddress",
          "type": "address"
        }
      ],
      "name": "initContract",
      "outputs": [],
      "stateMutability": "nonpayable",
      "type": "function"
    },
    {
      "inputs": [],
      "name": "testExerciseF",
      "outputs": [
        {
          "internalType": "string",
          "name": "",
          "type": "string"
        },
        {
          "internalType": "bool",
          "name": "",
          "type": "bool"
        }
      ],
      "stateMutability": "payable",
      "type": "function"
    }
  ],
  "bytecode": "0x60806040526000600260146101000a81548160ff0219169083151502179055503480156200002c57600080fd5b5060405162001e7d38038062001e7d8339818101604052810190620000529190620001e1565b6200007d816040518060600160405280602d815260200162001e50602d91396200008460201b60201c565b50620002f2565b816000806101000a81548173ffffffffffffffffffffffffffffffffffffffff021916908373ffffffffffffffffffffffffffffffffffffffff1602179055506000620000d66200014e60201b60201c565b90508073ffffffffffffffffffffffffffffffffffffffff16637fb99b9330846040518363ffffffff1660e01b815260040162000115929190620002be565b600060405180830381600087803b1580156200013057600080fd5b505af115801562000145573d6000803e3d6000fd5b50505050505050565b60008060009054906101000a900473ffffffffffffffffffffffffffffffffffffffff16905090565b600080fd5b600073ffffffffffffffffffffffffffffffffffffffff82169050919050565b6000620001a9826200017c565b9050919050565b620001bb816200019c565b8114620001c757600080fd5b50565b600081519050620001db81620001b0565b92915050565b600060208284031215620001fa57620001f962000177565b5b60006200020a84828501620001ca565b91505092915050565b6200021e816200019c565b82525050565b600081519050919050565b600082825260208201905092915050565b60005b838110156200026057808201518184015260208101905062000243565b60008484015250505050565b6000601f19601f8301169050919050565b60006200028a8262000224565b6200029681856200022f565b9350620002a881856020860162000240565b620002b3816200026c565b840191505092915050565b6000604082019050620002d5600083018562000213565b8181036020830152620002e981846200027d565b90509392505050565b611b4e80620003026000396000f3fe60806040526004361061007f5760003560e01c8063bed34bba1161004e578063bed34bba146101d7578063c107532914610214578063f3e7284e14610230578063fae45fbe1461024f57610104565b806325ba0f51146101095780632b51830114610132578063516cbbe21461016f5780635827a0651461019a57610104565b36610104576000600a9050600a81036100a157808061009d90610b98565b9150505b600b81036100b85780806100b490610b98565b9150505b600c811480156100d45750600d6001826100d29190610be0565b145b156100e85780806100e490610b98565b9150505b6001600260146101000a81548160ff0219169083151502179055005b600080fd5b34801561011557600080fd5b50610130600480360381019061012b9190610c86565b610278565b005b34801561013e57600080fd5b5061015960048036038101906101549190610e0c565b610319565b6040516101669190610f32565b60405180910390f35b34801561017b57600080fd5b50610184610348565b6040516101919190610fb3565b60405180910390f35b3480156101a657600080fd5b506101c160048036038101906101bc9190610fce565b610371565b6040516101ce9190610f32565b60405180910390f35b3480156101e357600080fd5b506101fe60048036038101906101f991906110a5565b6103a3565b60405161020b9190611138565b60405180910390f35b61022e600480360381019061022991906111bd565b6103fc565b005b61023861074b565b6040516102469291906111fd565b60405180910390f35b34801561025b57600080fd5b506102766004803603810190610271919061122d565b610aa1565b005b81600160006101000a81548173ffffffffffffffffffffffffffffffffffffffff021916908373ffffffffffffffffffffffffffffffffffffffff16021790555080600260006101000a81548173ffffffffffffffffffffffffffffffffffffffff021916908373ffffffffffffffffffffffffffffffffffffffff1602179055506000600260146101000a81548160ff0219169083151502179055505050565b60608383836040516020016103309392919061135d565b60405160208183030381529060405290509392505050565b60008060009054906101000a900473ffffffffffffffffffffffffffffffffffffffff16905090565b60608484848460405160200161038a949392919061143c565b6040516020818303038152906040529050949350505050565b6000816040516020016103b6919061149b565b60405160208183030381529060405280519060200120836040516020016103dd919061149b565b6040516020818303038152906040528051906020012014905092915050565b610404610348565b73ffffffffffffffffffffffffffffffffffffffff166324d7806c336040518263ffffffff1660e01b815260040161043c91906114c1565b602060405180830381865afa158015610459573d6000803e3d6000fd5b505050506040513d601f19601f8201168201806040525081019061047d9190611508565b6104bc576040517f08c379a00000000000000000000000000000000000000000000000000000000081526004016104b3906115a7565b60405180910390fd5b600073ffffffffffffffffffffffffffffffffffffffff168273ffffffffffffffffffffffffffffffffffffffff160361052b576040517f08c379a000000000000000000000000000000000000000000000000000000000815260040161052290611613565b60405180910390fd5b3373ffffffffffffffffffffffffffffffffffffffff168273ffffffffffffffffffffffffffffffffffffffff16148061059057503273ffffffffffffffffffffffffffffffffffffffff168273ffffffffffffffffffffffffffffffffffffffff16145b80610618575061059e610348565b73ffffffffffffffffffffffffffffffffffffffff166324d7806c836040518263ffffffff1660e01b81526004016105d69190611654565b602060405180830381865afa1580156105f3573d6000803e3d6000fd5b505050506040513d601f19601f820116820180604052508101906106179190611508565b5b610657576040517f08c379a000000000000000000000000000000000000000000000000000000000815260040161064e906116e1565b60405180910390fd5b4781101561069a576040517f08c379a00000000000000000000000000000000000000000000000000000000081526004016106919061174d565b60405180910390fd5b60008273ffffffffffffffffffffffffffffffffffffffff16826040516106c09061179e565b60006040518083038185875af1925050503d80600081146106fd576040519150601f19603f3d011682016040523d82523d6000602084013e610702565b606091505b5050905080610746576040517f08c379a000000000000000000000000000000000000000000000000000000000815260040161073d906117ff565b60405180910390fd5b505050565b606060008047905060006064905080600160009054906101000a900473ffffffffffffffffffffffffffffffffffffffff1673ffffffffffffffffffffffffffffffffffffffff163110156107c1576000604051806060016040528060358152602001611a306035913990935093505050610a9d565b600160009054906101000a900473ffffffffffffffffffffffffffffffffffffffff1673ffffffffffffffffffffffffffffffffffffffff16632e1a7d4d826040518263ffffffff1660e01b815260040161081c919061182e565b600060405180830381600087803b15801561083657600080fd5b505af1925050508015610847575060015b6108ac57610853611856565b806308c379a0036108a05750610867611878565b8061087257506108a2565b80604051602001610883919061197a565b604051602081830303815290604052600094509450505050610a9d565b505b3d6000803e3d6000fd5b60004790506000600260149054906101000a900460ff166108f0576000604051806060016040528060338152602001611a6560339139909550955050505050610a9d565b80806108fb90610b98565b9150508382111561091957808061091190610b98565b915050610942565b60006040518060600160405280603c8152602001611a98603c9139909550955050505050610a9d565b600260009054906101000a900473ffffffffffffffffffffffffffffffffffffffff1673ffffffffffffffffffffffffffffffffffffffff16634d41d137600160009054906101000a900473ffffffffffffffffffffffffffffffffffffffff166040518263ffffffff1660e01b81526004016109bf91906119bd565b600060405180830381600087803b1580156109d957600080fd5b505af19250505080156109ea575060015b610a015780806109f990610b98565b915050610a2a565b6000604051806080016040528060458152602001611ad460459139909550955050505050610a9d565b60038103610a5b576001604051806060016040528060278152602001611a0960279139909550955050505050610a9d565b505060006040518060400160405280601b81526020017f506173736564202845786572636973652046293a204572726f72210000000000815250909350935050505b9091565b816000806101000a81548173ffffffffffffffffffffffffffffffffffffffff021916908373ffffffffffffffffffffffffffffffffffffffff1602179055506000610aeb610348565b90508073ffffffffffffffffffffffffffffffffffffffff16637fb99b9330846040518363ffffffff1660e01b8152600401610b289291906119d8565b600060405180830381600087803b158015610b4257600080fd5b505af1158015610b56573d6000803e3d6000fd5b50505050505050565b7f4e487b7100000000000000000000000000000000000000000000000000000000600052601160045260246000fd5b6000819050919050565b6000610ba382610b8e565b91507fffffffffffffffffffffffffffffffffffffffffffffffffffffffffffffffff8203610bd557610bd4610b5f565b5b600182019050919050565b6000610beb82610b8e565b9150610bf683610b8e565b9250828201905080821115610c0e57610c0d610b5f565b5b92915050565b6000604051905090565b600080fd5b600080fd5b600073ffffffffffffffffffffffffffffffffffffffff82169050919050565b6000610c5382610c28565b9050919050565b610c6381610c48565b8114610c6e57600080fd5b50565b600081359050610c8081610c5a565b92915050565b60008060408385031215610c9d57610c9c610c1e565b5b6000610cab85828601610c71565b9250506020610cbc85828601610c71565b9150509250929050565b600080fd5b600080fd5b6000601f19601f8301169050919050565b7f4e487b7100000000000000000000000000000000000000000000000000000000600052604160045260246000fd5b610d1982610cd0565b810181811067ffffffffffffffff82111715610d3857610d37610ce1565b5b80604052505050565b6000610d4b610c14565b9050610d578282610d10565b919050565b600067ffffffffffffffff821115610d7757610d76610ce1565b5b610d8082610cd0565b9050602081019050919050565b82818337600083830152505050565b6000610daf610daa84610d5c565b610d41565b905082815260208101848484011115610dcb57610dca610ccb565b5b610dd6848285610d8d565b509392505050565b600082601f830112610df357610df2610cc6565b5b8135610e03848260208601610d9c565b91505092915050565b600080600060608486031215610e2557610e24610c1e565b5b600084013567ffffffffffffffff811115610e4357610e42610c23565b5b610e4f86828701610dde565b935050602084013567ffffffffffffffff811115610e7057610e6f610c23565b5b610e7c86828701610dde565b925050604084013567ffffffffffffffff811115610e9d57610e9c610c23565b5b610ea986828701610dde565b9150509250925092565b600081519050919050565b600082825260208201905092915050565b60005b83811015610eed578082015181840152602081019050610ed2565b60008484015250505050565b6000610f0482610eb3565b610f0e8185610ebe565b9350610f1e818560208601610ecf565b610f2781610cd0565b840191505092915050565b60006020820190508181036000830152610f4c8184610ef9565b905092915050565b6000819050919050565b6000610f79610f74610f6f84610c28565b610f54565b610c28565b9050919050565b6000610f8b82610f5e565b9050919050565b6000610f9d82610f80565b9050919050565b610fad81610f92565b82525050565b6000602082019050610fc86000830184610fa4565b92915050565b60008060008060808587031215610fe857610fe7610c1e565b5b600085013567ffffffffffffffff81111561100657611005610c23565b5b61101287828801610dde565b945050602085013567ffffffffffffffff81111561103357611032610c23565b5b61103f87828801610dde565b935050604085013567ffffffffffffffff8111156110605761105f610c23565b5b61106c87828801610dde565b925050606085013567ffffffffffffffff81111561108d5761108c610c23565b5b61109987828801610dde565b91505092959194509250565b600080604083850312156110bc576110bb610c1e565b5b600083013567ffffffffffffffff8111156110da576110d9610c23565b5b6110e685828601610dde565b925050602083013567ffffffffffffffff81111561110757611106610c23565b5b61111385828601610dde565b9150509250929050565b60008115159050919050565b6111328161111d565b82525050565b600060208201905061114d6000830184611129565b92915050565b600061115e82610c28565b9050919050565b61116e81611153565b811461117957600080fd5b50565b60008135905061118b81611165565b92915050565b61119a81610b8e565b81146111a557600080fd5b50565b6000813590506111b781611191565b92915050565b600080604083850312156111d4576111d3610c1e565b5b60006111e28582860161117c565b92505060206111f3858286016111a8565b9150509250929050565b600060408201905081810360008301526112178185610ef9565b90506112266020830184611129565b9392505050565b6000806040838503121561124457611243610c1e565b5b600061125285828601610c71565b925050602083013567ffffffffffffffff81111561127357611272610c23565b5b61127f85828601610dde565b9150509250929050565b600081905092915050565b600061129f82610eb3565b6112a98185611289565b93506112b9818560208601610ecf565b80840191505092915050565b7f3a20000000000000000000000000000000000000000000000000000000000000600082015250565b60006112fb600283611289565b9150611306826112c5565b600282019050919050565b7f203e200000000000000000000000000000000000000000000000000000000000600082015250565b6000611347600383611289565b915061135282611311565b600382019050919050565b60006113698286611294565b9150611374826112ee565b91506113808285611294565b915061138b8261133a565b91506113978284611294565b9150819050949350505050565b7f2045787065637465643a20000000000000000000000000000000000000000000600082015250565b60006113da600b83611289565b91506113e5826113a4565b600b82019050919050565b7f2041637475616c3a200000000000000000000000000000000000000000000000600082015250565b6000611426600983611289565b9150611431826113f0565b600982019050919050565b60006114488287611294565b9150611453826112ee565b915061145f8286611294565b915061146a826113cd565b91506114768285611294565b915061148182611419565b915061148d8284611294565b915081905095945050505050565b60006114a78284611294565b915081905092915050565b6114bb81610c48565b82525050565b60006020820190506114d660008301846114b2565b92915050565b6114e58161111d565b81146114f057600080fd5b50565b600081519050611502816114dc565b92915050565b60006020828403121561151e5761151d610c1e565b5b600061152c848285016114f3565b91505092915050565b7f4f6e6c7920636f6e74726163742061646d696e2063616e20776974686472617760008201527f2066756e64730000000000000000000000000000000000000000000000000000602082015250565b6000611591602683610ebe565b915061159c82611535565b604082019050919050565b600060208201905081810360008301526115c081611584565b9050919050565b7f496e76616c696420616464726573730000000000000000000000000000000000600082015250565b60006115fd600f83610ebe565b9150611608826115c7565b602082019050919050565b6000602082019050818103600083015261162c816115f0565b9050919050565b600061163e82610f80565b9050919050565b61164e81611633565b82525050565b60006020820190506116696000830184611645565b92915050565b7f46756e64732063616e206f6e6c792062652077697468647261776e20746f206160008201527f646d696e2c206d73672e73656e646572206f722074782e6f726967696e000000602082015250565b60006116cb603d83610ebe565b91506116d68261166f565b604082019050919050565b600060208201905081810360008301526116fa816116be565b9050919050565b7f496e73756666696369656e742066756e64730000000000000000000000000000600082015250565b6000611737601283610ebe565b915061174282611701565b602082019050919050565b600060208201905081810360008301526117668161172a565b9050919050565b600081905092915050565b50565b600061178860008361176d565b915061179382611778565b600082019050919050565b60006117a98261177b565b9150819050919050565b7f5472616e73666572206661696c65642e00000000000000000000000000000000600082015250565b60006117e9601083610ebe565b91506117f4826117b3565b602082019050919050565b60006020820190508181036000830152611818816117dc565b9050919050565b61182881610b8e565b82525050565b6000602082019050611843600083018461181f565b92915050565b60008160e01c9050919050565b600060033d11156118755760046000803e611872600051611849565b90505b90565b600060443d106119055761188a610c14565b60043d036004823e80513d602482011167ffffffffffffffff821117156118b2575050611905565b808201805167ffffffffffffffff8111156118d05750505050611905565b80602083010160043d0385018111156118ed575050505050611905565b6118fc82602001850186610d10565b82955050505050505b90565b7f4572726f72202845786572636973652046293a204572726f722077697468207460008201527f68652077697468647261772066756e6374696f6e212000000000000000000000602082015250565b6000611964603683611289565b915061196f82611908565b603682019050919050565b600061198582611957565b91506119918284611294565b915081905092915050565b60006119a782610f80565b9050919050565b6119b78161199c565b82525050565b60006020820190506119d260008301846119ae565b92915050565b60006040820190506119ed60008301856114b2565b81810360208301526119ff8184610ef9565b9050939250505056fe506173736564202845786572636973652046293a204578657263697365204620706173736564214572726f72202845786572636973652046293a204e6f7420656e6f7567682066756e647320696e2074686520636f6e7472616374214572726f72202845786572636973652046293a20436f72726563742065746865722073656e64696e67206e6f742075736564214572726f72202845786572636973652046293a2045746865722062616c616e6365206f66206f776e6572206973206e6f7420696e63726561736564214572726f72202845786572636973652046293a2057697468647261772066756e6374696f6e206973206e6f74207265737472696374656420746f20746865206f776e657221a26469706673582212201e4af549e5e6260f8a0ca2e88164df419fee29ebb6b7f52b67bc86e2cb3c8cba64736f6c63430008110033535332332041737369676e6d656e7420312056616c696461746f7220436f6e7472616374202d205461736b2046",
  "immutableReferences": {},
  "source": "// SPDX-License-Identifier: MIT\r\npragma solidity ^0.8.17;\r\n\r\n// Import the IAssignment1.sol\r\nimport \"./interface/IAssignment1.sol\";\r\n\r\nimport \"../../node_modules/@openzeppelin/contracts/utils/Base64.sol\";\r\nimport \"../../node_modules/@openzeppelin/contracts/utils/Strings.sol\";\r\n\r\n// Import Helper\r\nimport \"../Helper.sol\";\r\n\r\n// Import the assignment validator extend contract\r\nimport \"./Validator1Helper.sol\";\r\n\r\n// import \"BaseConfig.sol\";\r\nimport \"../BaseConfig.sol\";\r\n\r\n// Give the contract a name and inherit from the base assignment validator\r\ncontract Validator1TaskF is Helper, BaseConfig {\r\n    using Strings for uint256;\r\n\r\n    // assignment contract interface\r\n    IAssignment1 assignmentContract;\r\n    Validator1Helper validator1Helper;\r\n\r\n    // Correct eth sending used\r\n    bool private correctEthSendingUsed = false;\r\n\r\n    constructor(address _configContractAddress) {\r\n        initAdmin(\r\n            _configContractAddress,\r\n            \"SS23 Assignment 1 Validator Contract - Task F\"\r\n        );\r\n    }\r\n\r\n    receive() external payable {\r\n        uint256 test = 10;\r\n        if (test == 10) test++;\r\n\r\n        if (test == 11) test++;\r\n\r\n        if (test == 12 && test + 1 == 13) test++;\r\n\r\n        correctEthSendingUsed = true;\r\n    }\r\n\r\n    // Init contract\r\n    function initContract(\r\n        address _contractAddress,\r\n        address _validator1HelperAddress\r\n    ) public {\r\n        // Call the contract interface which needs to be tested and store it in the variable assignmentContract\r\n        assignmentContract = IAssignment1(_contractAddress);\r\n        validator1Helper = Validator1Helper(payable(_validator1HelperAddress));\r\n        correctEthSendingUsed = false;\r\n    }\r\n\r\n    function testExerciseF() public payable returns (string memory, bool) {\r\n        /*----------  EXERCISE F  ----------*/\r\n\r\n        // get ether balance of owner\r\n        uint256 senderBalanceBeforeF = address(this).balance;\r\n\r\n        uint256 toWithdraw = 100 wei;\r\n\r\n        if (address(assignmentContract).balance < toWithdraw) {\r\n            return (\r\n                \"Error (Exercise F): Not enough funds in the contract!\",\r\n                false\r\n            );\r\n        }\r\n\r\n        // withdraw funds to owner\r\n        try assignmentContract.withdraw(toWithdraw) {\r\n            // get ether balance of owner\r\n            uint256 senderBalanceAfterF = address(this).balance;\r\n\r\n            uint256 exerciseFPassedCounter = 0;\r\n\r\n            if (!correctEthSendingUsed) {\r\n                return (\r\n                    \"Error (Exercise F): Correct ether sending not used!\",\r\n                    false\r\n                );\r\n            } else {\r\n                exerciseFPassedCounter++;\r\n            }\r\n\r\n            // check if ether balance of owner is increased\r\n            if (senderBalanceAfterF > senderBalanceBeforeF) {\r\n                exerciseFPassedCounter++;\r\n            } else {\r\n                // If not all tests passed, mark test as failed\r\n                return (\r\n                    \"Error (Exercise F): Ether balance of owner is not increased!\",\r\n                    false\r\n                );\r\n            }\r\n\r\n            // Try withdraw from not certified address\r\n            try validator1Helper.withdrawTestF(assignmentContract) {\r\n                return (\r\n                    \"Error (Exercise F): Withdraw function is not restricted to the owner!\",\r\n                    false\r\n                );\r\n            } catch {\r\n                exerciseFPassedCounter++;\r\n            }\r\n\r\n            if (exerciseFPassedCounter == 3) {\r\n                return (\"Passed (Exercise F): Exercise F passed!\", true);\r\n            }\r\n        } catch Error(string memory _reason) {\r\n            return (\r\n                string(\r\n                    abi.encodePacked(\r\n                        \"Error (Exercise F): Error with the withdraw function! \",\r\n                        _reason\r\n                    )\r\n                ),\r\n                false\r\n            );\r\n        }\r\n        return (\"Passed (Exercise F): Error!\", false);\r\n    }\r\n}\r\n",
  "sourcePath": "C:\\Users\\jonas\\Repos\\mtp-blockchain\\smart-contracts\\contracts\\assignment_1\\Validator1TaskF.sol",
  "compiler": {
    "name": "solc",
    "version": "0.8.17+commit.8df45f5f.Emscripten.clang"
  },
  "schemaVersion": "3.4.11",
  "updatedAt": "2023-02-01T15:34:30.330Z",
  "devdoc": {
    "kind": "dev",
    "methods": {},
    "version": 1
  },
  "userdoc": {
    "kind": "user",
    "methods": {},
    "version": 1
  }
}